{"abi":[{"type":"constructor","inputs":[{"name":"_memberRegistry","type":"address","internalType":"address"}],"stateMutability":"nonpayable"},{"type":"function","name":"MEMBER_ACTIVE","inputs":[],"outputs":[{"name":"","type":"uint8","internalType":"uint8"}],"stateMutability":"view"},{"type":"function","name":"ROLE_ACCOUNT_CREATOR","inputs":[],"outputs":[{"name":"","type":"uint256","internalType":"uint256"}],"stateMutability":"view"},{"type":"function","name":"ROLE_CUSTODIAN","inputs":[],"outputs":[{"name":"","type":"uint256","internalType":"uint256"}],"stateMutability":"view"},{"type":"function","name":"ROLE_GMO","inputs":[],"outputs":[{"name":"","type":"uint256","internalType":"uint256"}],"stateMutability":"view"},{"type":"function","name":"ROLE_MINTER","inputs":[],"outputs":[{"name":"","type":"uint256","internalType":"uint256"}],"stateMutability":"view"},{"type":"function","name":"ROLE_REFINER","inputs":[],"outputs":[{"name":"","type":"uint256","internalType":"uint256"}],"stateMutability":"view"},{"type":"function","name":"ROLE_TRADER","inputs":[],"outputs":[{"name":"","type":"uint256","internalType":"uint256"}],"stateMutability":"view"},{"type":"function","name":"ROLE_VAULT","inputs":[],"outputs":[{"name":"","type":"uint256","internalType":"uint256"}],"stateMutability":"view"},{"type":"function","name":"ROLE_VAULT_OP","inputs":[],"outputs":[{"name":"","type":"uint256","internalType":"uint256"}],"stateMutability":"view"},{"type":"function","name":"accounts","inputs":[{"name":"","type":"string","internalType":"string"}],"outputs":[{"name":"igan","type":"string","internalType":"string"},{"name":"memberGIC","type":"string","internalType":"string"},{"name":"ownerAddress","type":"address","internalType":"address"},{"name":"vaultOperator","type":"address","internalType":"address"},{"name":"vaultSiteId","type":"string","internalType":"string"},{"name":"guaranteeDepositAccount","type":"string","internalType":"string"},{"name":"goldAccountPurpose","type":"string","internalType":"string"},{"name":"initialDeposit","type":"uint256","internalType":"uint256"},{"name":"certificateAbsenceReason","type":"string","internalType":"string"},{"name":"balance","type":"uint256","internalType":"uint256"},{"name":"createdAt","type":"uint256","internalType":"uint256"},{"name":"active","type":"bool","internalType":"bool"}],"stateMutability":"view"},{"type":"function","name":"addressAccounts","inputs":[{"name":"","type":"address","internalType":"address"},{"name":"","type":"uint256","internalType":"uint256"}],"outputs":[{"name":"","type":"string","internalType":"string"}],"stateMutability":"view"},{"type":"function","name":"balanceUpdaters","inputs":[{"name":"","type":"address","internalType":"address"}],"outputs":[{"name":"","type":"bool","internalType":"bool"}],"stateMutability":"view"},{"type":"function","name":"createAccount","inputs":[{"name":"igan","type":"string","internalType":"string"},{"name":"memberGIC","type":"string","internalType":"string"},{"name":"vaultSiteId","type":"string","internalType":"string"},{"name":"guaranteeDepositAccount","type":"string","internalType":"string"},{"name":"goldAccountPurpose","type":"string","internalType":"string"},{"name":"initialDeposit","type":"uint256","internalType":"uint256"},{"name":"certificateAbsenceReason","type":"string","internalType":"string"},{"name":"ownerAddress","type":"address","internalType":"address"},{"name":"vaultOperator","type":"address","internalType":"address"}],"outputs":[{"name":"","type":"string","internalType":"string"}],"stateMutability":"nonpayable"},{"type":"function","name":"getAccountBalance","inputs":[{"name":"igan","type":"string","internalType":"string"}],"outputs":[{"name":"balance","type":"uint256","internalType":"uint256"}],"stateMutability":"view"},{"type":"function","name":"getAccountDetails","inputs":[{"name":"igan","type":"string","internalType":"string"}],"outputs":[{"name":"account","type":"tuple","internalType":"struct GoldAccountLedger.Account","components":[{"name":"igan","type":"string","internalType":"string"},{"name":"memberGIC","type":"string","internalType":"string"},{"name":"ownerAddress","type":"address","internalType":"address"},{"name":"vaultOperator","type":"address","internalType":"address"},{"name":"vaultSiteId","type":"string","internalType":"string"},{"name":"guaranteeDepositAccount","type":"string","internalType":"string"},{"name":"goldAccountPurpose","type":"string","internalType":"string"},{"name":"initialDeposit","type":"uint256","internalType":"uint256"},{"name":"certificateAbsenceReason","type":"string","internalType":"string"},{"name":"balance","type":"uint256","internalType":"uint256"},{"name":"createdAt","type":"uint256","internalType":"uint256"},{"name":"active","type":"bool","internalType":"bool"}]}],"stateMutability":"view"},{"type":"function","name":"getAccountsByAddress","inputs":[{"name":"addr","type":"address","internalType":"address"}],"outputs":[{"name":"list","type":"string[]","internalType":"string[]"}],"stateMutability":"view"},{"type":"function","name":"getAccountsByMember","inputs":[{"name":"memberGIC","type":"string","internalType":"string"}],"outputs":[{"name":"list","type":"string[]","internalType":"string[]"}],"stateMutability":"view"},{"type":"function","name":"memberAccounts","inputs":[{"name":"","type":"string","internalType":"string"},{"name":"","type":"uint256","internalType":"uint256"}],"outputs":[{"name":"","type":"string","internalType":"string"}],"stateMutability":"view"},{"type":"function","name":"memberRegistry","inputs":[],"outputs":[{"name":"","type":"address","internalType":"contract IMemberRegistry"}],"stateMutability":"view"},{"type":"function","name":"owner","inputs":[],"outputs":[{"name":"","type":"address","internalType":"address"}],"stateMutability":"view"},{"type":"function","name":"renounceOwnership","inputs":[],"outputs":[],"stateMutability":"nonpayable"},{"type":"function","name":"setBalanceUpdater","inputs":[{"name":"updater","type":"address","internalType":"address"},{"name":"allowed","type":"bool","internalType":"bool"}],"outputs":[],"stateMutability":"nonpayable"},{"type":"function","name":"transferOwnership","inputs":[{"name":"newOwner","type":"address","internalType":"address"}],"outputs":[],"stateMutability":"nonpayable"},{"type":"function","name":"updateBalance","inputs":[{"name":"igan","type":"string","internalType":"string"},{"name":"delta","type":"int256","internalType":"int256"},{"name":"reason","type":"string","internalType":"string"},{"name":"tokenId","type":"uint256","internalType":"uint256"}],"outputs":[],"stateMutability":"nonpayable"},{"type":"function","name":"updateBalanceFromContract","inputs":[{"name":"igan","type":"string","internalType":"string"},{"name":"delta","type":"int256","internalType":"int256"},{"name":"reason","type":"string","internalType":"string"},{"name":"tokenId","type":"uint256","internalType":"uint256"}],"outputs":[],"stateMutability":"nonpayable"},{"type":"event","name":"AccountCreated","inputs":[{"name":"igan","type":"string","indexed":true,"internalType":"string"},{"name":"memberGIC","type":"string","indexed":true,"internalType":"string"},{"name":"ownerAddress","type":"address","indexed":true,"internalType":"address"},{"name":"vaultSiteId","type":"string","indexed":false,"internalType":"string"},{"name":"guaranteeDepositAccount","type":"string","indexed":false,"internalType":"string"},{"name":"goldAccountPurpose","type":"string","indexed":false,"internalType":"string"},{"name":"initialDeposit","type":"uint256","indexed":false,"internalType":"uint256"},{"name":"certificateAbsenceReason","type":"string","indexed":false,"internalType":"string"},{"name":"timestamp","type":"uint256","indexed":false,"internalType":"uint256"}],"anonymous":false},{"type":"event","name":"BalanceUpdated","inputs":[{"name":"igan","type":"string","indexed":true,"internalType":"string"},{"name":"delta","type":"int256","indexed":false,"internalType":"int256"},{"name":"newBalance","type":"uint256","indexed":false,"internalType":"uint256"},{"name":"reason","type":"string","indexed":false,"internalType":"string"},{"name":"tokenId","type":"uint256","indexed":false,"internalType":"uint256"},{"name":"timestamp","type":"uint256","indexed":false,"internalType":"uint256"}],"anonymous":false},{"type":"event","name":"BalanceUpdaterSet","inputs":[{"name":"updater","type":"address","indexed":true,"internalType":"address"},{"name":"allowed","type":"bool","indexed":false,"internalType":"bool"},{"name":"timestamp","type":"uint256","indexed":false,"internalType":"uint256"}],"anonymous":false},{"type":"event","name":"OwnershipTransferred","inputs":[{"name":"previousOwner","type":"address","indexed":true,"internalType":"address"},{"name":"newOwner","type":"address","indexed":true,"internalType":"address"}],"anonymous":false},{"type":"error","name":"OwnableInvalidOwner","inputs":[{"name":"owner","type":"address","internalType":"address"}]},{"type":"error","name":"OwnableUnauthorizedAccount","inputs":[{"name":"account","type":"address","internalType":"address"}]}],"bytecode":{"object":"0x60803461010757601f611d3738819003918201601f19168301916001600160401b0383118484101761010b5780849260209460405283398101031261010757516001600160a01b03808216918290036101075733156100ef575f549060018060a01b03199133838216175f55604051913391167f8be0079c531659141344cd1fd0a4f28419497f9722a3daafe3b4186f6b6457e05f80a382156100ba575060015416176001556103e8600255604051611c1790816101208239f35b62461bcd60e51b815260206004820152601060248201526f496e76616c696420726567697374727960801b6044820152606490fd5b604051631e4fbdf760e01b81525f6004820152602490fd5b5f80fd5b634e487b7160e01b5f52604160045260245ffdfe6080806040526004361015610012575f80fd5b5f3560e01c9081630c3006cc146115a95750806317c3c0681461133f5780631c33e007146113245780631f679223146112e7578063303904141461117f578063380e78af146110eb57806345eed0db146110cf5780634a680b4214610a355780636074d28214610f12578063715018a614610ebb5780637589b7de14610ea05780638da5cb5b14610e7957806392afc33a14610e5e578063a74d477214610e36578063aeede42314610e1b578063bb119a6e14610b61578063bf75fda414610b46578063c10533be14610afa578063c35de06914610ade578063c82b4dbb14610a50578063d0473a6514610a35578063f0d333991461096d578063f2b42f9f146108e2578063f2fde38b146108585763f5f310bb1461012f575f80fd5b34610607576101203660031901126106075767ffffffffffffffff6004358181116106075761016290369060040161176a565b906024358181116106075761017b90369060040161176a565b906044358181116106075761019490369060040161176a565b91606435828111610607576101ad90369060040161176a565b608435838111610607576101c590369060040161176a565b9260c435908111610607576101de90369060040161176a565b60e43594906001600160a01b038616860361060757610104356001600160a01b038116810361060757600154604051638cbdcead60e01b81523360048201526101cf60248201526001600160a01b0390911690602081604481855afa908115610613575f91610829575b50156107ce5788511561079a5785511561076157835115610727578451156106d857865115610693576001600160a01b0388161561065c576001600160a01b0382161561061e5760206040518092638e690fc560e01b825282600483015281806102b5602482018c6117e1565b03915afa908115610613575f916105d2575b5060ff600191160361059957600a604051602081816102ec8d838151938492016117c0565b81016003815203019020015461055b57876040519161030a8361172b565b81835260208301908782526040840190600160a01b600190038b1682526060850190600160a01b600190031681526080850187815260a0860189815260c08701908c825260e088019260a43584526101008901948a86526101208a01965f88526101408b0198428a526101608c019a60018c526040518181809351602081930191610394926117c0565b8101600381520360200190209b516103ac908d611a3c565b516103ba9060018d01611a3c565b5160028b0180546001600160a01b03199081166001600160a01b0393841617909155915160038c0180549093169116179055516103fa9060048a01611a3c565b516104089060058901611a3c565b516104169060068801611a3c565b5160078601555161042a9060088601611a3c565b51600984015551600a83015551151590600b0190610453919060ff801983541691151516179055565b86604051808651818160208a019161046a926117c0565b8101600481520360200190209061048091611b44565b6001600160a01b0386165f9081526005602052604090206104a2908890611b44565b6104ab87611b76565b936104b590611b76565b9460405193849360c0855260c085016104cd916117e1565b84810360208601526104de916117e1565b83810360408501526104ef916117e1565b60a43560608401528281036080840152610508916117e1565b4260a08301526001600160a01b03909516947f2dba4bd74adcfffb68388653a17f41077c757fdfe716ff77ddf2294931626f419291900390a460405180916020825260208201610557916117e1565b0390f35b60405162461bcd60e51b81526020600482015260166024820152754163636f756e7420616c72656164792065786973747360501b6044820152606490fd5b60405162461bcd60e51b81526020600482015260116024820152704d656d626572206e6f742061637469766560781b6044820152606490fd5b90506020813d60201161060b575b816105ed60209383611748565b81010312610607575160ff811681036106075760ff6102c7565b5f80fd5b3d91506105e0565b6040513d5f823e3d90fd5b60405162461bcd60e51b815260206004820152601660248201527524b73b30b634b2103b30bab63a1037b832b930ba37b960511b6044820152606490fd5b60405162461bcd60e51b815260206004820152600f60248201526e496e76616c6964206164647265737360881b6044820152606490fd5b60405162461bcd60e51b815260206004820152601760248201527f496e76616c6964206163636f756e7420707572706f73650000000000000000006044820152606490fd5b60405162461bcd60e51b815260206004820152602160248201527f496e76616c69642067756172616e746565206465706f736974206163636f756e6044820152601d60fa1b6064820152608490fd5b60405162461bcd60e51b8152602060048201526012602482015271496e76616c6964207661756c74207369746560701b6044820152606490fd5b60405162461bcd60e51b8152602060048201526011602482015270496e76616c6964206d656d62657247494360781b6044820152606490fd5b60405162461bcd60e51b815260206004820152600c60248201526b24b73b30b634b21024a3a0a760a11b6044820152606490fd5b60405162461bcd60e51b815260206004820152602d60248201527f4e6f7420617574686f72697a65643a206163636f756e742063726561746f722060448201526c1c9bdb19481c995c5d5a5c9959609a1b6064820152608490fd5b61084b915060203d602011610851575b6108438183611748565b8101906119df565b5f610248565b503d610839565b3461060757602036600319011261060757610871611715565b610879611b96565b6001600160a01b039081169081156108ca575f54826bffffffffffffffffffffffff60a01b8216175f55167f8be0079c531659141344cd1fd0a4f28419497f9722a3daafe3b4186f6b6457e05f80a3005b604051631e4fbdf760e01b81525f6004820152602490fd5b346106075760403660031901126106075760043567ffffffffffffffff81116106075761091390369060040161176a565b61092f60206024359281604051938285809451938492016117c0565b81016004815203019020908154811015610607576109536109599161055793611992565b906119bb565b6040519182916020835260208301906117e1565b34610607576020806003193601126106075767ffffffffffffffff9060043582811161060757816109a56109b892369060040161176a565b81604051938285809451938492016117c0565b81016004815203019020918254908111610a21578290604051916109e1848360051b0184611748565b8183525f908152838120938084015b838310610a05576040518061055787826118e0565b6001828192610a138961183e565b8152019601920191946109f0565b634e487b7160e01b5f52604160045260245ffd5b34610607575f36600319011261060757602060405160018152f35b346106075760203660031901126106075760043567ffffffffffffffff8111610607576009610aca6020610a898194369060040161176a565b60405190610ab9600a825193858181860196610aa681838a6117c0565b81016003815203019020015415156119f7565b6040519384928392519283916117c0565b810160038152030190200154604051908152f35b34610607575f3660031901126106075760206040516101cf8152f35b3461060757604036600319011261060757610b13611715565b6001600160a01b03165f908152600560205260409020805460243590811015610607576109536109599161055793611992565b34610607575f36600319011261060757602060405160088152f35b3461060757610b6f36611943565b90929160018060a01b03600154169160405192638cbdcead60e01b80855233600486015260249160c0838701526020958681604481855afa9283156106135787915f94610dfc575b508315610dab575b50505015610d555760405184818751610bdb8183858c016117c0565b8101600381520301902090610bf5600a83015415156119f7565b60ff600b8301541615610d1d575f841215610cd057600160ff1b8414610c835760098201805491855f038310610c9657858301928311610c8357506009610c72935f80516020611bc2833981519152989993610c5593555b015497611b76565b96604051958695865285015260a0604085015260a08401906117e1565b9060608301524260808301520390a2005b634e487b7160e01b5f9081526011600452fd5b8660146064926040519262461bcd60e51b8452600484015282015273496e73756666696369656e742062616c616e636560601b6044820152fd5b5f8413610cf7575b505f80516020611bc28339815191529495610c556009610c7293610c4d565b60098201805491858301809311610c835750555f80516020611bc2833981519152610cd8565b8460126064926040519262461bcd60e51b84526004840152820152714163636f756e74206e6f742061637469766560701b6044820152fd5b83602a6084926040519262461bcd60e51b845260048401528201527f4e6f7420617574686f72697a65643a20474d4f206f72205641554c5420726f6c60448201526919481c995c5d5a5c995960b21b6064820152fd5b909192506044604051809481938252336004830152600c878301525afa908115610613575f91610ddf575b50878581610bbf565b610df69150853d8711610851576108438183611748565b87610dd6565b610e14919450823d8411610851576108438183611748565b928a610bb7565b34610607575f36600319011261060757602060405160048152f35b34610607575f366003190112610607576001546040516001600160a01b039091168152602090f35b34610607575f36600319011261060757602060405160028152f35b34610607575f366003190112610607575f546040516001600160a01b039091168152602090f35b34610607575f36600319011261060757602060405160c08152f35b34610607575f36600319011261060757610ed3611b96565b5f80546001600160a01b0319811682556001600160a01b03167f8be0079c531659141344cd1fd0a4f28419497f9722a3daafe3b4186f6b6457e08280a3005b3461060757610f2036611943565b9091335f526020916006835260ff60405f2054161561108a5760405183818751610f4d8183858c016117c0565b81016003815203019020610f66600a82015415156119f7565b60ff600b8201541615611050575f83121561101257600160ff1b8314610fc25760098101948554845f038110610fd657848101908111610fc2576009610c7293610c55925f80516020611bc28339815191529955015497611b76565b634e487b7160e01b5f52601160045260245ffd5b60405162461bcd60e51b8152600481018790526014602482015273496e73756666696369656e742062616c616e636560601b6044820152606490fd5b5f8313611037575b5f80516020611bc283398151915294610c556009610c7293610c4d565b60098101948554848101809111610fc25790955561101a565b60405162461bcd60e51b81526004810185905260126024820152714163636f756e74206e6f742061637469766560701b6044820152606490fd5b60405162461bcd60e51b815260048101849052601760248201527f4e6f7420617574686f72697a65643a20757064617465720000000000000000006044820152606490fd5b34610607575f3660031901126106075760206040516101008152f35b3461060757602080600319360112610607576001600160a01b0361110d611715565b165f526005815260405f2090815467ffffffffffffffff8111610a215782906040519161113f848360051b0184611748565b8183525f908152838120938084015b838310611163576040518061055787826118e0565b60018281926111718961183e565b81520196019201919461114e565b346106075760203660031901126106075760043567ffffffffffffffff8111610607576111b090369060040161176a565b60405181818093516020819301916111c7926117c0565b8101600381520360200190206111dc8161183e565b6111e86001830161183e565b6002830154600384015491936001600160a01b0391821692909116906112106004820161183e565b61121c6005830161183e565b6112286006840161183e565b60078401549161123a6008860161183e565b93600986015497600a87015496600b015460ff16976040519b8c9b8c6101808091528d01611267916117e1565b8c810360208e0152611278916117e1565b9160408c015260608b015289810360808b0152611294916117e1565b88810360a08a01526112a5916117e1565b87810360c08901526112b6916117e1565b9060e08701528581036101008701526112ce916117e1565b9261012085015261014084015215156101608301520390f35b34610607576020366003190112610607576001600160a01b03611308611715565b165f526006602052602060ff60405f2054166040519015158152f35b34610607575f366003190112610607576020604051600c8152f35b346106075760203660031901126106075760043567ffffffffffffffff81116106075760206113756113eb92369060040161176a565b5f6101606040516113858161172b565b6060815260608582015282604082015282606082015260606080820152606060a0820152606060c08201528260e082015260606101008201528261012082015282610140820152015260405190610ab9600a825193858181860196610aa681838a6117c0565b8101600381520301902060ff600b604051926114068461172b565b61140f8161183e565b845261141d6001820161183e565b602085015260028101546001600160a01b039081166040860152600382015416606085015261144e6004820161183e565b608085015261145f6005820161183e565b60a08501526114706006820161183e565b60c0850152600781015460e085015261148b6008820161183e565b6101008501526009810154610120850152600a810154610140850152015416151561016082015260405180916020825261016061158461156161154b6115356114fb6114e5875161018060208b01526101a08a01906117e1565b6020880151898203601f190160408b01526117e1565b60408701516001600160a01b0390811660608a810191909152880151166080808a0191909152870151888203601f190160a08a01526117e1565b60a0860151878203601f190160c08901526117e1565b60c0850151868203601f190160e08801526117e1565b60e0840151610100860152610100840151601f19868303016101208701526117e1565b9161012081015161014085015261014081015182850152015115156101808301520390f35b34610607576040366003190112610607576115c2611715565b602435918215159182840361060757600154638cbdcead60e01b835233600484015260c060248401526020926001600160a01b03929184908290604490829087165afa908115610613575f916116f8575b50156116a9571692831561167257916040916116657fb565f0960a8981c0365b6313b09fc72a32789a356aa4065068173e9c0345370094865f5260068352845f209060ff801983541691151516179055565b82519182524290820152a2005b60405162461bcd60e51b815260048101839052600f60248201526e24b73b30b634b2103ab83230ba32b960891b6044820152606490fd5b60405162461bcd60e51b815260048101849052602160248201527f4e6f7420617574686f72697a65643a20474d4f20726f6c6520726571756972656044820152601960fa1b6064820152608490fd5b61170f9150843d8611610851576108438183611748565b86611613565b600435906001600160a01b038216820361060757565b610180810190811067ffffffffffffffff821117610a2157604052565b90601f8019910116810190811067ffffffffffffffff821117610a2157604052565b81601f820112156106075780359067ffffffffffffffff8211610a21576040519261179f601f8401601f191660200185611748565b8284526020838301011161060757815f926020809301838601378301015290565b5f5b8381106117d15750505f910152565b81810151838201526020016117c2565b906020916117fa815180928185528580860191016117c0565b601f01601f1916010190565b90600182811c92168015611834575b602083101461182057565b634e487b7160e01b5f52602260045260245ffd5b91607f1691611815565b9060405191825f825461185081611806565b908184526020946001916001811690815f146118be5750600114611880575b50505061187e92500383611748565b565b5f90815285812095935091905b8183106118a657505061187e93508201015f808061186f565b8554888401850152948501948794509183019161188d565b9250505061187e94925060ff191682840152151560051b8201015f808061186f565b6020808201906020835283518092526040830192602060408460051b8301019501935f915b8483106119155750505050505090565b9091929394958480611933600193603f198682030187528a516117e1565b9801930193019194939290611905565b60806003198201126106075767ffffffffffffffff9160043583811161060757826119709160040161176a565b92602435926044359182116106075761198b9160040161176a565b9060643590565b80548210156119a7575f5260205f2001905f90565b634e487b7160e01b5f52603260045260245ffd5b906119cc576119c99061183e565b90565b634e487b7160e01b5f525f60045260245ffd5b90816020910312610607575180151581036106075790565b156119fe57565b60405162461bcd60e51b81526020600482015260166024820152751058d8dbdd5b9d08191bd95cc81b9bdd08195e1a5cdd60521b6044820152606490fd5b919091825167ffffffffffffffff8111610a2157611a5a8254611806565b601f8111611aff575b50602080601f8311600114611a9e5750819293945f92611a93575b50508160011b915f199060031b1c1916179055565b015190505f80611a7e565b90601f19831695845f5260205f20925f905b888210611ae757505083600195969710611acf575b505050811b019055565b01515f1960f88460031b161c191690555f8080611ac5565b80600185968294968601518155019501930190611ab0565b825f5260205f20601f830160051c81019160208410611b3a575b601f0160051c01905b818110611b2f5750611a63565b5f8155600101611b22565b9091508190611b19565b805468010000000000000000811015610a2157611b6691600182018155611992565b9190916119cc5761187e91611a3c565b611b8e906020604051928284809451938492016117c0565b810103902090565b5f546001600160a01b03163303611ba957565b60405163118cdaa760e01b8152336004820152602490fdfe218efa32e36e5dc1971edc148c88be33438f4d640370391b453450e439ba4901a2646970667358221220c09718c66318abcbdb0a313a1cb192c16cd6b9077c7f468be9b27bf9df4529b864736f6c63430008180033","linkReferences":{}},"methodIdentifiers":{"MEMBER_ACTIVE()":"4a680b42","ROLE_ACCOUNT_CREATOR()":"c35de069","ROLE_CUSTODIAN()":"aeede423","ROLE_GMO()":"7589b7de","ROLE_MINTER()":"92afc33a","ROLE_REFINER()":"d0473a65","ROLE_TRADER()":"45eed0db","ROLE_VAULT()":"1c33e007","ROLE_VAULT_OP()":"bf75fda4","accounts(string)":"30390414","addressAccounts(address,uint256)":"c10533be","balanceUpdaters(address)":"1f679223","createAccount(string,string,string,string,string,uint256,string,address,address)":"f5f310bb","getAccountBalance(string)":"c82b4dbb","getAccountDetails(string)":"17c3c068","getAccountsByAddress(address)":"380e78af","getAccountsByMember(string)":"f0d33399","memberAccounts(string,uint256)":"f2b42f9f","memberRegistry()":"a74d4772","owner()":"8da5cb5b","renounceOwnership()":"715018a6","setBalanceUpdater(address,bool)":"0c3006cc","transferOwnership(address)":"f2fde38b","updateBalance(string,int256,string,uint256)":"bb119a6e","updateBalanceFromContract(string,int256,string,uint256)":"6074d282"},"id":1}