{"abi":[{"type":"constructor","inputs":[{"name":"_memberRegistry","type":"address","internalType":"address"},{"name":"_accountLedger","type":"address","internalType":"address"}],"stateMutability":"nonpayable"},{"type":"function","name":"accountLedger","inputs":[],"outputs":[{"name":"","type":"address","internalType":"contract IGoldAccountLedger"}],"stateMutability":"view"},{"type":"function","name":"addToBlacklist","inputs":[{"name":"account","type":"address","internalType":"address"}],"outputs":[],"stateMutability":"nonpayable"},{"type":"function","name":"addToWhitelist","inputs":[{"name":"account","type":"address","internalType":"address"}],"outputs":[],"stateMutability":"nonpayable"},{"type":"function","name":"assetOwner","inputs":[{"name":"","type":"uint256","internalType":"uint256"}],"outputs":[{"name":"","type":"address","internalType":"address"}],"stateMutability":"view"},{"type":"function","name":"assets","inputs":[{"name":"","type":"uint256","internalType":"uint256"}],"outputs":[{"name":"tokenId","type":"string","internalType":"string"},{"name":"serialNumber","type":"string","internalType":"string"},{"name":"refinerName","type":"string","internalType":"string"},{"name":"weightGrams","type":"uint256","internalType":"uint256"},{"name":"fineness","type":"uint256","internalType":"uint256"},{"name":"fineWeightGrams","type":"uint256","internalType":"uint256"},{"name":"productType","type":"uint8","internalType":"enum GoldAssetToken.GoldProductType"},{"name":"certificateHash","type":"bytes32","internalType":"bytes32"},{"name":"traceabilityGIC","type":"string","internalType":"string"},{"name":"status","type":"uint8","internalType":"enum GoldAssetToken.AssetStatus"},{"name":"mintedAt","type":"uint256","internalType":"uint256"},{"name":"certified","type":"bool","internalType":"bool"},{"name":"igan","type":"string","internalType":"string"}],"stateMutability":"view"},{"type":"function","name":"balanceOf","inputs":[{"name":"account","type":"address","internalType":"address"},{"name":"id","type":"uint256","internalType":"uint256"}],"outputs":[{"name":"","type":"uint256","internalType":"uint256"}],"stateMutability":"view"},{"type":"function","name":"balanceOfBatch","inputs":[{"name":"accounts","type":"address[]","internalType":"address[]"},{"name":"ids","type":"uint256[]","internalType":"uint256[]"}],"outputs":[{"name":"","type":"uint256[]","internalType":"uint256[]"}],"stateMutability":"view"},{"type":"function","name":"blacklist","inputs":[{"name":"","type":"address","internalType":"address"}],"outputs":[{"name":"","type":"bool","internalType":"bool"}],"stateMutability":"view"},{"type":"function","name":"burn","inputs":[{"name":"tokenId","type":"uint256","internalType":"uint256"},{"name":"accountId","type":"string","internalType":"string"},{"name":"burnReason","type":"string","internalType":"string"}],"outputs":[],"stateMutability":"nonpayable"},{"type":"function","name":"forceTransfer","inputs":[{"name":"tokenId","type":"uint256","internalType":"uint256"},{"name":"from","type":"address","internalType":"address"},{"name":"to","type":"address","internalType":"address"},{"name":"reason","type":"string","internalType":"string"}],"outputs":[],"stateMutability":"nonpayable"},{"type":"function","name":"getAssetDetails","inputs":[{"name":"tokenId","type":"uint256","internalType":"uint256"}],"outputs":[{"name":"","type":"tuple","internalType":"struct GoldAssetToken.GoldAsset","components":[{"name":"tokenId","type":"string","internalType":"string"},{"name":"serialNumber","type":"string","internalType":"string"},{"name":"refinerName","type":"string","internalType":"string"},{"name":"weightGrams","type":"uint256","internalType":"uint256"},{"name":"fineness","type":"uint256","internalType":"uint256"},{"name":"fineWeightGrams","type":"uint256","internalType":"uint256"},{"name":"productType","type":"uint8","internalType":"enum GoldAssetToken.GoldProductType"},{"name":"certificateHash","type":"bytes32","internalType":"bytes32"},{"name":"traceabilityGIC","type":"string","internalType":"string"},{"name":"status","type":"uint8","internalType":"enum GoldAssetToken.AssetStatus"},{"name":"mintedAt","type":"uint256","internalType":"uint256"},{"name":"certified","type":"bool","internalType":"bool"},{"name":"igan","type":"string","internalType":"string"}]}],"stateMutability":"view"},{"type":"function","name":"getAssetsByOwner","inputs":[{"name":"owner","type":"address","internalType":"address"}],"outputs":[{"name":"","type":"uint256[]","internalType":"uint256[]"}],"stateMutability":"view"},{"type":"function","name":"getTokenByWarrant","inputs":[{"name":"warrantId","type":"string","internalType":"string"}],"outputs":[{"name":"","type":"uint256","internalType":"uint256"}],"stateMutability":"view"},{"type":"function","name":"isApprovedForAll","inputs":[{"name":"account","type":"address","internalType":"address"},{"name":"operator","type":"address","internalType":"address"}],"outputs":[{"name":"","type":"bool","internalType":"bool"}],"stateMutability":"view"},{"type":"function","name":"isAssetLocked","inputs":[{"name":"tokenId","type":"uint256","internalType":"uint256"}],"outputs":[{"name":"","type":"bool","internalType":"bool"}],"stateMutability":"view"},{"type":"function","name":"isWarrantUsed","inputs":[{"name":"warrantId","type":"string","internalType":"string"}],"outputs":[{"name":"","type":"bool","internalType":"bool"}],"stateMutability":"view"},{"type":"function","name":"memberRegistry","inputs":[],"outputs":[{"name":"","type":"address","internalType":"contract IMemberRegistry"}],"stateMutability":"view"},{"type":"function","name":"mint","inputs":[{"name":"to","type":"address","internalType":"address"},{"name":"accountId","type":"string","internalType":"string"},{"name":"serialNumber","type":"string","internalType":"string"},{"name":"refinerName","type":"string","internalType":"string"},{"name":"weightGrams","type":"uint256","internalType":"uint256"},{"name":"fineness","type":"uint256","internalType":"uint256"},{"name":"productType","type":"uint8","internalType":"enum GoldAssetToken.GoldProductType"},{"name":"certificateHash","type":"bytes32","internalType":"bytes32"},{"name":"traceabilityGIC","type":"string","internalType":"string"},{"name":"certified","type":"bool","internalType":"bool"},{"name":"warrantId","type":"string","internalType":"string"}],"outputs":[{"name":"","type":"uint256","internalType":"uint256"}],"stateMutability":"nonpayable"},{"type":"function","name":"owner","inputs":[],"outputs":[{"name":"","type":"address","internalType":"address"}],"stateMutability":"view"},{"type":"function","name":"removeFromBlacklist","inputs":[{"name":"account","type":"address","internalType":"address"}],"outputs":[],"stateMutability":"nonpayable"},{"type":"function","name":"removeFromWhitelist","inputs":[{"name":"account","type":"address","internalType":"address"}],"outputs":[],"stateMutability":"nonpayable"},{"type":"function","name":"renounceOwnership","inputs":[],"outputs":[],"stateMutability":"nonpayable"},{"type":"function","name":"safeBatchTransferFrom","inputs":[{"name":"from","type":"address","internalType":"address"},{"name":"to","type":"address","internalType":"address"},{"name":"ids","type":"uint256[]","internalType":"uint256[]"},{"name":"values","type":"uint256[]","internalType":"uint256[]"},{"name":"data","type":"bytes","internalType":"bytes"}],"outputs":[],"stateMutability":"nonpayable"},{"type":"function","name":"safeTransferFrom","inputs":[{"name":"from","type":"address","internalType":"address"},{"name":"to","type":"address","internalType":"address"},{"name":"id","type":"uint256","internalType":"uint256"},{"name":"value","type":"uint256","internalType":"uint256"},{"name":"data","type":"bytes","internalType":"bytes"}],"outputs":[],"stateMutability":"nonpayable"},{"type":"function","name":"setAccountLedger","inputs":[{"name":"_accountLedger","type":"address","internalType":"address"}],"outputs":[],"stateMutability":"nonpayable"},{"type":"function","name":"setApprovalForAll","inputs":[{"name":"operator","type":"address","internalType":"address"},{"name":"approved","type":"bool","internalType":"bool"}],"outputs":[],"stateMutability":"nonpayable"},{"type":"function","name":"setMemberRegistry","inputs":[{"name":"_memberRegistry","type":"address","internalType":"address"}],"outputs":[],"stateMutability":"nonpayable"},{"type":"function","name":"supportsInterface","inputs":[{"name":"interfaceId","type":"bytes4","internalType":"bytes4"}],"outputs":[{"name":"","type":"bool","internalType":"bool"}],"stateMutability":"view"},{"type":"function","name":"transferOwnership","inputs":[{"name":"newOwner","type":"address","internalType":"address"}],"outputs":[],"stateMutability":"nonpayable"},{"type":"function","name":"updateCustody","inputs":[{"name":"tokenId","type":"uint256","internalType":"uint256"},{"name":"toParty","type":"address","internalType":"address"},{"name":"custodyType","type":"string","internalType":"string"}],"outputs":[],"stateMutability":"nonpayable"},{"type":"function","name":"updateStatus","inputs":[{"name":"tokenId","type":"uint256","internalType":"uint256"},{"name":"newStatus","type":"uint8","internalType":"enum GoldAssetToken.AssetStatus"},{"name":"reason","type":"string","internalType":"string"}],"outputs":[],"stateMutability":"nonpayable"},{"type":"function","name":"uri","inputs":[{"name":"tokenId","type":"uint256","internalType":"uint256"}],"outputs":[{"name":"","type":"string","internalType":"string"}],"stateMutability":"view"},{"type":"function","name":"verifyCertificate","inputs":[{"name":"tokenId","type":"uint256","internalType":"uint256"},{"name":"certificateHash","type":"bytes32","internalType":"bytes32"}],"outputs":[{"name":"","type":"bool","internalType":"bool"}],"stateMutability":"view"},{"type":"function","name":"warrantToToken","inputs":[{"name":"","type":"string","internalType":"string"}],"outputs":[{"name":"","type":"uint256","internalType":"uint256"}],"stateMutability":"view"},{"type":"function","name":"whitelist","inputs":[{"name":"","type":"address","internalType":"address"}],"outputs":[{"name":"","type":"bool","internalType":"bool"}],"stateMutability":"view"},{"type":"event","name":"ApprovalForAll","inputs":[{"name":"account","type":"address","indexed":true,"internalType":"address"},{"name":"operator","type":"address","indexed":true,"internalType":"address"},{"name":"approved","type":"bool","indexed":false,"internalType":"bool"}],"anonymous":false},{"type":"event","name":"AssetBurned","inputs":[{"name":"tokenId","type":"uint256","indexed":true,"internalType":"uint256"},{"name":"burnReason","type":"string","indexed":false,"internalType":"string"},{"name":"finalOwner","type":"address","indexed":true,"internalType":"address"},{"name":"authorizedBy","type":"address","indexed":true,"internalType":"address"},{"name":"timestamp","type":"uint256","indexed":false,"internalType":"uint256"}],"anonymous":false},{"type":"event","name":"AssetMinted","inputs":[{"name":"tokenId","type":"uint256","indexed":true,"internalType":"uint256"},{"name":"serialNumber","type":"string","indexed":false,"internalType":"string"},{"name":"refinerName","type":"string","indexed":false,"internalType":"string"},{"name":"weightGrams","type":"uint256","indexed":false,"internalType":"uint256"},{"name":"fineness","type":"uint256","indexed":false,"internalType":"uint256"},{"name":"owner","type":"address","indexed":true,"internalType":"address"},{"name":"timestamp","type":"uint256","indexed":false,"internalType":"uint256"}],"anonymous":false},{"type":"event","name":"AssetStatusChanged","inputs":[{"name":"tokenId","type":"uint256","indexed":true,"internalType":"uint256"},{"name":"previousStatus","type":"uint8","indexed":false,"internalType":"enum GoldAssetToken.AssetStatus"},{"name":"newStatus","type":"uint8","indexed":false,"internalType":"enum GoldAssetToken.AssetStatus"},{"name":"reason","type":"string","indexed":false,"internalType":"string"},{"name":"changedBy","type":"address","indexed":true,"internalType":"address"},{"name":"timestamp","type":"uint256","indexed":false,"internalType":"uint256"}],"anonymous":false},{"type":"event","name":"AssetTransferred","inputs":[{"name":"tokenId","type":"uint256","indexed":true,"internalType":"uint256"},{"name":"fromIGAN","type":"address","indexed":true,"internalType":"address"},{"name":"toIGAN","type":"address","indexed":true,"internalType":"address"},{"name":"timestamp","type":"uint256","indexed":false,"internalType":"uint256"}],"anonymous":false},{"type":"event","name":"BlacklistUpdated","inputs":[{"name":"account","type":"address","indexed":true,"internalType":"address"},{"name":"status","type":"bool","indexed":false,"internalType":"bool"},{"name":"timestamp","type":"uint256","indexed":false,"internalType":"uint256"}],"anonymous":false},{"type":"event","name":"CustodyChanged","inputs":[{"name":"tokenId","type":"uint256","indexed":true,"internalType":"uint256"},{"name":"fromParty","type":"address","indexed":true,"internalType":"address"},{"name":"toParty","type":"address","indexed":true,"internalType":"address"},{"name":"custodyType","type":"string","indexed":false,"internalType":"string"},{"name":"timestamp","type":"uint256","indexed":false,"internalType":"uint256"}],"anonymous":false},{"type":"event","name":"OwnershipTransferred","inputs":[{"name":"previousOwner","type":"address","indexed":true,"internalType":"address"},{"name":"newOwner","type":"address","indexed":true,"internalType":"address"}],"anonymous":false},{"type":"event","name":"OwnershipUpdated","inputs":[{"name":"tokenId","type":"uint256","indexed":true,"internalType":"uint256"},{"name":"from","type":"address","indexed":true,"internalType":"address"},{"name":"to","type":"address","indexed":true,"internalType":"address"},{"name":"reason","type":"string","indexed":false,"internalType":"string"},{"name":"timestamp","type":"uint256","indexed":false,"internalType":"uint256"}],"anonymous":false},{"type":"event","name":"TransferBatch","inputs":[{"name":"operator","type":"address","indexed":true,"internalType":"address"},{"name":"from","type":"address","indexed":true,"internalType":"address"},{"name":"to","type":"address","indexed":true,"internalType":"address"},{"name":"ids","type":"uint256[]","indexed":false,"internalType":"uint256[]"},{"name":"values","type":"uint256[]","indexed":false,"internalType":"uint256[]"}],"anonymous":false},{"type":"event","name":"TransferSingle","inputs":[{"name":"operator","type":"address","indexed":true,"internalType":"address"},{"name":"from","type":"address","indexed":true,"internalType":"address"},{"name":"to","type":"address","indexed":true,"internalType":"address"},{"name":"id","type":"uint256","indexed":false,"internalType":"uint256"},{"name":"value","type":"uint256","indexed":false,"internalType":"uint256"}],"anonymous":false},{"type":"event","name":"URI","inputs":[{"name":"value","type":"string","indexed":false,"internalType":"string"},{"name":"id","type":"uint256","indexed":true,"internalType":"uint256"}],"anonymous":false},{"type":"event","name":"WarrantLinked","inputs":[{"name":"warrantId","type":"string","indexed":true,"internalType":"string"},{"name":"tokenId","type":"uint256","indexed":true,"internalType":"uint256"},{"name":"owner","type":"address","indexed":true,"internalType":"address"},{"name":"timestamp","type":"uint256","indexed":false,"internalType":"uint256"}],"anonymous":false},{"type":"event","name":"WhitelistUpdated","inputs":[{"name":"account","type":"address","indexed":true,"internalType":"address"},{"name":"status","type":"bool","indexed":false,"internalType":"bool"},{"name":"timestamp","type":"uint256","indexed":false,"internalType":"uint256"}],"anonymous":false},{"type":"error","name":"ERC1155InsufficientBalance","inputs":[{"name":"sender","type":"address","internalType":"address"},{"name":"balance","type":"uint256","internalType":"uint256"},{"name":"needed","type":"uint256","internalType":"uint256"},{"name":"tokenId","type":"uint256","internalType":"uint256"}]},{"type":"error","name":"ERC1155InvalidApprover","inputs":[{"name":"approver","type":"address","internalType":"address"}]},{"type":"error","name":"ERC1155InvalidArrayLength","inputs":[{"name":"idsLength","type":"uint256","internalType":"uint256"},{"name":"valuesLength","type":"uint256","internalType":"uint256"}]},{"type":"error","name":"ERC1155InvalidOperator","inputs":[{"name":"operator","type":"address","internalType":"address"}]},{"type":"error","name":"ERC1155InvalidReceiver","inputs":[{"name":"receiver","type":"address","internalType":"address"}]},{"type":"error","name":"ERC1155InvalidSender","inputs":[{"name":"sender","type":"address","internalType":"address"}]},{"type":"error","name":"ERC1155MissingApprovalForAll","inputs":[{"name":"operator","type":"address","internalType":"address"},{"name":"owner","type":"address","internalType":"address"}]},{"type":"error","name":"OwnableInvalidOwner","inputs":[{"name":"owner","type":"address","internalType":"address"}]},{"type":"error","name":"OwnableUnauthorizedAccount","inputs":[{"name":"account","type":"address","internalType":"address"}]}],"bytecode":{"object":"0x608034620001b5576001600160401b039062003da790601f38839003908101601f191682019084821183831017620001a15780839160409586948552833981010312620001b5576200005f60206200005783620001b9565b9201620001b9565b928251602081019181831090831117620001a1575f91845252600254600190600181811c9116801562000196575b60208210146200018257601f811162000138575b50505f60025533156200012157600380546001600160a01b0319808216339081179093559351946001600160a01b03939092849283167f8be0079c531659141344cd1fd0a4f28419497f9722a3daafe3b4186f6b6457e05f80a316836004541617600455169060055416176005556001600655613bd89081620001cf8239f35b8151631e4fbdf760e01b81525f6004820152602490fd5b60025f52601f0160051c7f405787fa12a823e0f2b7631cc41b3ba8828b3321ca811111fa75cd3aa3bb5ace908101905b818110620001775750620000a1565b5f8155820162000168565b634e487b7160e01b5f52602260045260245ffd5b90607f16906200008d565b634e487b7160e01b5f52604160045260245ffd5b5f80fd5b51906001600160a01b0382168203620001b55756fe60806040526004361015610011575f80fd5b5f3560e01c8062fdd58e1461024357806301ffc9a71461023e5780630e89341c14610239578063264716511461023457806327329eb71461022f578063276f09341461022a5780632a0ee644146102255780632eb2c2d61461022057806344337ea11461021b5780634873124d146102165780634e1273f414610211578063537df3b61461020c57806359317b7a146102075780635defa55e146102025780636fd7c34c146101fd578063715018a6146101f8578063722b0c7b146101f3578063781f0b72146101ee5780638ab1d681146101e95780638da5cb5b146101e45780639b19251a146101df578063a1f24b3d146101da578063a22cb465146101d5578063a74d4772146101d0578063ba211db0146101cb578063c19b8c66146101c6578063c3b451a2146101c1578063cf35bdd0146101bc578063e43252d7146101b7578063e7e55295146101b2578063e985e9c5146101ad578063f242432a146101a8578063f2fde38b146101a3578063f5dca3ca1461019e5763f9f92be414610199575f80fd5b611a62565b611a4a565b61195b565b6118a4565b611854565b611801565b611799565b6116e8565b61151a565b611485565b61137e565b611356565b61129f565b6111e7565b611071565b611049565b610fe1565b610ee5565b610e0b565b610d89565b610d05565b610cdd565b610c90565b610c28565b610b6e565b610b0b565b610a83565b610960565b6108b7565b61076a565b61060f565b6105e9565b6103c4565b6102fc565b6102a2565b600435906001600160a01b038216820361025e57565b5f80fd5b602435906001600160a01b038216820361025e57565b604435906001600160a01b038216820361025e57565b35906001600160a01b038216820361025e57565b3461025e57604036600319011261025e5760206102e16102c0610248565b6024355f525f835260405f209060018060a01b03165f5260205260405f2090565b54604051908152f35b6001600160e01b031981160361025e57565b3461025e57602036600319011261025e57602060043561031b816102ea565b63ffffffff60e01b16636cdb3d1360e11b8114908115610359575b8115610348575b506040519015158152f35b6301ffc9a760e01b1490505f61033d565b6303a24d0760e21b81149150610336565b5f5b83811061037b5750505f910152565b818101518382015260200161036c565b906020916103a48151809281855285808601910161036a565b601f01601f1916010190565b9060206103c192818152019061038b565b90565b3461025e5760208060031936011261025e57600435805f52600782526103f2600a60405f2001541515611a9f565b5f526007815260405f206040519066697066733a2f2f60c81b838301526027925f93825461041f81611565565b9360019180831690811561049f575060011461045d575b6104598661044d818a03601f19810183528261052e565b604051918291826103b0565b0390f35b9091929395505f52825f205f905b86821061048c57505050505061044d81602761045994820101935f80610436565b805486830185015290840190820161046b565b91505061045996508593506027925061044d94915060ff19168284015280151502820101935f80610436565b634e487b7160e01b5f52604160045260245ffd5b6101a081019081106001600160401b038211176104fb57604052565b6104cb565b6001600160401b0381116104fb57604052565b602081019081106001600160401b038211176104fb57604052565b90601f801991011681019081106001600160401b038211176104fb57604052565b6040519061055c826104df565b565b6001600160401b0381116104fb57601f01601f191660200190565b81601f8201121561025e578035906105908261055e565b9261059e604051948561052e565b8284526020838301011161025e57815f926020809301838601378301015290565b602060031982011261025e57600435906001600160401b03821161025e576103c191600401610579565b3461025e57602060ff6106036105fe366105bf565b6119fe565b54166040519015158152f35b3461025e57606036600319011261025e5760043561062b610262565b6044356001600160401b03811161025e5761064a903690600401610579565b5f838152600960205260409020549091906001600160a01b03166001600160a01b03163314801561068a575b9261068361068894611b02565b611b83565b005b506004546106a8906001600160a01b03165b6001600160a01b031690565b604051638cbdcead60e01b81523360048083019190915260248201529390602090859060449082905afa9384156107215761068894610683915f916106f2575b5091945050610676565b610714915060203d60201161071a575b61070c818361052e565b810190611ae2565b5f6106e8565b503d610702565b611af7565b9081518082526020808093019301915f5b828110610745575050505090565b835185529381019392810192600101610737565b9060206103c1928181520190610726565b3461025e57602036600319011261025e57610783610248565b6006546001600160a01b03918216915f60015b83811061084d57506107a790611bfa565b925f9160015b8481106107c257604051806104598882610759565b82826107e66107d9845f52600960205260405f2090565b546001600160a01b031690565b16148061081b575b6107fb575b6001016107ad565b92610813818561080d6001948a611c2c565b52611be7565b9390506107f3565b50600461083d6009610835845f52600760205260405f2090565b015460ff1690565b610846816110de565b14156107ee565b84836108646107d9845f52600960205260405f2090565b16148061088d575b610879575b600101610796565b90610885600191611be7565b919050610871565b5060046108a76009610835845f52600760205260405f2090565b6108b0816110de565b141561086c565b3461025e57602036600319011261025e576004355f526009602052602060018060a01b0360405f205416604051908152f35b6001600160401b0381116104fb5760051b60200190565b9080601f8301121561025e57602090823561091a816108e9565b93610928604051958661052e565b81855260208086019260051b82010192831161025e57602001905b828210610951575050505090565b81358152908301908301610943565b3461025e5760a036600319011261025e57610979610248565b610981610262565b90604435916001600160401b039081841161025e576109a560049436908601610900565b9060643583811161025e576109bd9036908701610900565b9260843590811161025e576109d59036908701610579565b936001600160a01b03808216903382141580610a60575b610a3357831615610a1c5715610a06576106889550613162565b604051626a0d4560e21b81525f81880152602490fd5b604051632bfa23e760e11b81525f81890152602490fd5b6040805163711bec9160e11b815233818b019081526001600160a01b038616602082015290918291010390fd5b505f82815260016020908152604080832033845290915290205460ff16156109ec565b3461025e57602036600319011261025e576044610a9e610248565b602060018060a01b036004541660405193848092638cbdcead60e01b8252336004830152604060248301525afa9182156107215761068892610ae7915f91610aec575b50611c54565b611caf565b610b05915060203d60201161071a5761070c818361052e565b5f610ae1565b3461025e57610b19366105bf565b60ff610b24826119fe565b541615610b36576102e1602091611a24565b60405162461bcd60e51b815260206004820152601060248201526f15d85c9c985b9d081b9bdd081d5cd95960821b6044820152606490fd5b3461025e57604036600319011261025e576004356001600160401b0380821161025e573660238301121561025e578160040135610baa816108e9565b92610bb8604051948561052e565b8184526020916024602086019160051b8301019136831161025e57602401905b828210610c11578560243586811161025e5761045991610bff610c05923690600401610900565b90611d00565b60405191829182610759565b838091610c1d8461028e565b815201910190610bd8565b3461025e57602036600319011261025e576044610c43610248565b602060018060a01b036004541660405193848092638cbdcead60e01b8252336004830152604060248301525afa9182156107215761068892610c8b915f91610aec5750611c54565b611d96565b3461025e57602036600319011261025e57610ca9610248565b610cb1612bfb565b600580546001600160a01b0319166001600160a01b0392909216919091179055005b5f91031261025e57565b3461025e575f36600319011261025e576005546040516001600160a01b039091168152602090f35b3461025e57602036600319011261025e57610d1e610248565b610d26612bfb565b6001600160a01b03168015610d51576bffffffffffffffffffffffff60a01b60045416176004555f80f35b60405162461bcd60e51b815260206004820152601060248201526f496e76616c696420726567697374727960801b6044820152606490fd5b3461025e575f36600319011261025e57610da1612bfb565b600380546001600160a01b031981169091555f906001600160a01b03167f8be0079c531659141344cd1fd0a4f28419497f9722a3daafe3b4186f6b6457e08280a3005b60c43590600482101561025e57565b8015150361025e57565b610124359061055c82610df3565b3461025e5761016036600319011261025e57610e25610248565b6001600160401b0360243581811161025e57610e45903690600401610579565b60443582811161025e57610e5d903690600401610579565b9060643583811161025e57610e76903690600401610579565b91610e7f610de4565b906101043585811161025e57610e99903690600401610579565b91610ea2610dfd565b936101443596871161025e5761045997610ec3610ed5983690600401610579565b9660e4359460a4359360843593611de3565b6040519081529081906020820190565b3461025e57606036600319011261025e57600435602435600781101561025e576044356001600160401b03811161025e57610f24903690600401610579565b5f838152600960205260409020549091906001600160a01b03166001600160a01b031633148015610f62575b92610f5d61068894611b02565b6125e7565b50600454610f78906001600160a01b031661069c565b604051638cbdcead60e01b81523360048083019190915260248201529390602090859060449082905afa9384156107215761068894610f5d915f91610fc2575b5091945050610f50565b610fdb915060203d60201161071a5761070c818361052e565b5f610fb8565b3461025e57602036600319011261025e576044610ffc610248565b602060018060a01b036004541660405193848092638cbdcead60e01b8252336004830152604060248301525afa9182156107215761068892611044915f91610aec5750611c54565b6126c1565b3461025e575f36600319011261025e576003546040516001600160a01b039091168152602090f35b3461025e57602036600319011261025e576001600160a01b03611092610248565b165f52600c602052602060ff60405f2054166040519015158152f35b634e487b7160e01b5f52602160045260245ffd5b600411156110cc57565b6110ae565b9060048210156110cc5752565b600711156110cc57565b9060078210156110cc5752565b906103c191602081528151906111196101a0928360208401526101c083019061038b565b9161114d611139602086015194601f19958686830301604087015261038b565b60408601518585830301606086015261038b565b9360608101516080840152608081015160a084015260a081015160c084015261117e60c082015160e08501906110d1565b6111a460e08201516101009081860152820151956101209686868303018887015261038b565b948101516111b861014091828601906110e8565b8101516101609081850152810151906111d8610180928386019015159052565b0151928285030191015261038b565b3461025e57602036600319011261025e5761045961129361128e600435604051611210816104df565b6101806060918281528260208201528260408201525f838201525f60808201525f60a08201525f60c08201525f60e0820152826101008201525f6101208201525f6101408201525f6101608201520152611280600a611277835f52600760205260405f2090565b01541515611a9f565b5f52600760205260405f2090565b61270e565b604051918291826110f5565b3461025e57604036600319011261025e576112b8610248565b6024356112c481610df3565b6001600160a01b03821691821561133f57816112fe61130f92335f52600160205260405f209060018060a01b03165f5260205260405f2090565b9060ff801983541691151516179055565b60405190151581527f17307eab39ab6107e8899845ad3d59bd9653f200f220920489ca2b5937696c3160203392a3005b60405162ced3e160e81b81525f6004820152602490fd5b3461025e575f36600319011261025e576004546040516001600160a01b039091168152602090f35b3461025e57606036600319011261025e576004356001600160401b0360243581811161025e576113b2903690600401610579565b5060443590811161025e576113cb903690600401610579565b5f828152600960205260409020546001600160a01b03166001600160a01b031633148015611406575b9161140161068893611b02565b6128a5565b5060045461141c906001600160a01b031661069c565b604051638cbdcead60e01b81523360048083019190915260248201529290602090849060449082905afa9283156107215761068893611401915f91611466575b50919350506113f4565b61147f915060203d60201161071a5761070c818361052e565b5f61145c565b3461025e57608036600319011261025e5761149e610262565b6114a6610278565b90606435916001600160401b03831161025e576114c96044933690600401610579565b91602060018060a01b036004541660405195868092638cbdcead60e01b8252336004830152604060248301525afa9384156107215761068894611512915f91610aec5750611c54565b600435612aaa565b3461025e57604036600319011261025e57600435805f526007602052611548600a60405f2001541515611a9f565b5f5260076020526020602435600760405f20015414604051908152f35b90600182811c92168015611593575b602083101461157f57565b634e487b7160e01b5f52602260045260245ffd5b91607f1691611574565b9060405191825f82546115af81611565565b908184526020946001916001811690815f1461161b57506001146115dd575b50505061055c9250038361052e565b5f90815285812095935091905b81831061160357505061055c93508201015f80806115ce565b855488840185015294850194879450918301916115ea565b9250505061055c94925060ff191682840152151560051b8201015f80806115ce565b999b9791966116ca966116be966103c19f9d999660606116948f99986116da9f99611686906116786116ab9a8e6101a090818152019061038b565b8d810360208f01529061038b565b908b820360408d015261038b565b98015260808d015260a08c015260c08b01906110d1565b60e089015287820361010089015261038b565b966101208601906110e8565b6101408401521515610160830152565b61018081840391015261038b565b3461025e57602036600319011261025e576004355f52600760205260405f206117108161159d565b61045961171f6001840161159d565b9261172c6002820161159d565b9060038101546004820154600583015461174a600685015460ff1690565b60078501549061175c6008870161159d565b9261176b600988015460ff1690565b94600a8801549661178c600c611785600b8c015460ff1690565b9a0161159d565b996040519d8e9d8e61163d565b3461025e57602036600319011261025e5760446117b4610248565b602060018060a01b036004541660405193848092638cbdcead60e01b8252336004830152604060248301525afa91821561072157610688926117fc915f91610aec5750611c54565b612baa565b3461025e57602036600319011261025e576004355f52600760205260ff600960405f2001541660078110156110cc578060036020921490811561184957506040519015158152f35b60029150145f61033d565b3461025e57604036600319011261025e57602060ff610603611874610248565b61187c610262565b6001600160a01b039182165f9081526001865260408082209290931681526020919091522090565b3461025e5760a036600319011261025e576118bd610248565b6118c5610262565b6084356001600160401b03811161025e576118e4903690600401610579565b906001600160a01b038316338114159081611937575b5061191057610688926064359160443591613120565b60405163711bec9160e11b81523360048201526001600160a01b0384166024820152604490fd5b5f90815260016020908152604080832033845290915281205460ff161591506118fa565b3461025e57602036600319011261025e57611974610248565b61197c612bfb565b6001600160a01b039081169081156119cf57600354826bffffffffffffffffffffffff60a01b821617600355167f8be0079c531659141344cd1fd0a4f28419497f9722a3daafe3b4186f6b6457e05f80a3005b604051631e4fbdf760e01b81525f6004820152602490fd5b906119fa6020928281519485920161036a565b0190565b6020611a1791816040519382858094519384920161036a565b8101600a81520301902090565b6020611a3d91816040519382858094519384920161036a565b8101600b81520301902090565b3461025e5760206102e1611a5d366105bf565b611a24565b3461025e57602036600319011261025e576001600160a01b03611a83610248565b165f52600d602052602060ff60405f2054166040519015158152f35b15611aa657565b60405162461bcd60e51b8152602060048201526014602482015273105cdcd95d08191bd95cc81b9bdd08195e1a5cdd60621b6044820152606490fd5b9081602091031261025e57516103c181610df3565b6040513d5f823e3d90fd5b15611b0957565b60405162461bcd60e51b815260206004820152603060248201527f4e6f7420617574686f72697a65643a204f776e6572206f7220435553544f444960448201526f1053881c9bdb19481c995c5d5a5c995960821b6064820152608490fd5b929190611b7e60209160408652604086019061038b565b930152565b805f5260096020527f7d8bbf09e5d2c4c9326e18403c0d0edc90bf13eb1854d3cab844ac9476b12ffe60018060a01b038060405f20541693611bce6040519283921696429083611b67565b0390a4565b634e487b7160e01b5f52601160045260245ffd5b5f198114611bf55760010190565b611bd3565b90611c04826108e9565b611c11604051918261052e565b8281528092611c22601f19916108e9565b0190602036910137565b8051821015611c405760209160051b010190565b634e487b7160e01b5f52603260045260245ffd5b15611c5b57565b60405162461bcd60e51b815260206004820152602660248201527f4e6f7420617574686f72697a65643a20504c4154464f524d20726f6c652072656044820152651c5d5a5c995960d21b6064820152608490fd5b60018060a01b0316805f52600d60205260405f20600160ff198254161790557fdb76f617e04ebf72dc17dbe8376979b98408ad67557ef09c5272f7156d8123e86040805160018152426020820152a2565b91909180518351808203611d74575050611d1a8151611bfa565b905f5b8151811015611d6d5780611d5b60019260051b5f602080808489010151938b01015182525260405f209060018060a01b03165f5260205260405f2090565b54611d668286611c2c565b5201611d1d565b5090925050565b604051635b05999160e01b815260048101919091526024810191909152604490fd5b60018060a01b0316805f52600d60205260405f2060ff1981541690557fdb76f617e04ebf72dc17dbe8376979b98408ad67557ef09c5272f7156d8123e8604080515f8152426020820152a2565b999897969594939291906044602060018060a01b036004541660405192838092638cbdcead60e01b8252336004830152600160248301525afa908115610721575f91611e8c575b5015611e39576103c19a6122b8565b60405162461bcd60e51b815260206004820152602560248201527f4e6f7420617574686f72697a65643a20524546494e455220726f6c65207265716044820152641d5a5c995960da1b6064820152608490fd5b611ea5915060203d60201161071a5761070c818361052e565b5f611e2a565b15611eb257565b60405162461bcd60e51b815260206004820152600d60248201526c24b73b30b634b21037bbb732b960991b6044820152606490fd5b15611eee57565b60405162461bcd60e51b8152602060048201526011602482015270125b9d985b1a59081858d8dbdd5b9d1259607a1b6044820152606490fd5b15611f2e57565b60405162461bcd60e51b815260206004820152601460248201527315d85c9c985b9d08185b1c9958591e481d5cd95960621b6044820152606490fd5b15611f7157565b60405162461bcd60e51b815260206004820152601860248201527f417373657420616c7265616479207265676973746572656400000000000000006044820152606490fd5b81810292918115918404141715611bf557565b60048210156110cc5752565b60078210156110cc5752565b601f8211611fee57505050565b5f5260205f20906020601f840160051c83019310612026575b601f0160051c01905b81811061201b575050565b5f8155600101612010565b9091508190612007565b91909182516001600160401b0381116104fb57612057816120518454611565565b84611fe1565b602080601f8311600114612098575081906120899394955f9261208d575b50508160011b915f199060031b1c19161790565b9055565b015190505f80612075565b90601f198316956120ac855f5260205f2090565b925f905b8882106120e7575050836001959697106120cf575b505050811b019055565b01515f1960f88460031b161c191690555f80806120c5565b806001859682949686015181550195019301906120b0565b9060048110156110cc5760ff80198354169116179055565b9060078110156110cc5760ff80198354169116179055565b600c61018061055c93612143815185612030565b612154602082015160018601612030565b612165604082015160028601612030565b606081015160038501556080810151600485015560a0810151600585015561219d60c0820151612194816110c2565b600686016120ff565b60e081015160078501556121b961010082015160088601612030565b6121d46101208201516121cb816110de565b60098601612117565b610140810151600a8501556122056121f0610160830151151590565b600b86019060ff801983541691151516179055565b01519101612030565b6040519061221b82610513565b5f8252565b929190604061223960609260808752608087019061038b565b600160208701528581038287015260048152631352539560e21b602082015201930152565b916122899061227b6080959897969360a0865260a086019061038b565b90848203602086015261038b565b95604083015260608201520152565b6122b09060206040519282848094519384920161036a565b810103902090565b96996001600160a01b038089169a9499979891978b9794959192918b916122e08a1515611eab565b855115156122ed90611ee7565b6122f68b6119fe565b5460ff161561230490611f27565b61230d8b6119fe565b805460ff191660011790556123228389612c27565b612334815f52600860205260405f2090565b5460ff161561234290611f6a565b612354905f52600860205260405f2090565b805460ff191660011790556006549e8f9c61236e8e611be7565b6006558d61237c8a8d611fb6565b61271090049061238b90612c94565b6040516a474946542d41535345542d60a81b602082015296908790602b82016123b3916119e7565b03601f19810188526123c5908861052e565b6123cd61054f565b9687528b602088015260408701528b606087015289608087015260a086015260c08501906123fa91611fc9565b60e08401526101008301525f610120830152426101408301521515610160820152836101808201526124348a5f52600760205260405f2090565b9061243e9161212f565b806124518a5f52600960205260405f2090565b80546001600160a01b0319166001600160a01b039092169190911790558861247889611a24565b558861248261220e565b9061248c92612dd6565b6005546001600160a01b03166001600160a01b031690811661251d575b50509185966124e67f932fb8f9d495becdde3eacf21ebe2745661a8fa6948a458f8eb2bd242bcda69d936124ee989560405194859442938661225e565b0390a3612298565b6040514281527f668955a820819a04e294e0bebb8424dbb3fc596648f7d09ad40153fe8d0ab02090602090a490565b91939650919350803b1561025e57885f9161254f938360405180968195829463303a694160e11b845260048401612220565b03925af19485156107215788966124e6899589957f932fb8f9d495becdde3eacf21ebe2745661a8fa6948a458f8eb2bd242bcda69d956124ee9a61259d575b509395509350819897506124a9565b806125aa6125b092610500565b80610cd3565b5f61258e565b9493926125d66060936125cc88611b7e956110e8565b60208801906110e8565b60806040870152608086019061038b565b9091815f52600760205260ff600960405f2001541660078110156110cc5760041461267c577f4a7f36090e241cfd69682f6a164350c2cb00366213fcca9c8a43c15e8168f94c906126456009610835855f52600760205260405f2090565b9061266485600961265e875f52600760205260405f2090565b01612117565b61267760405192839233974292856125b6565b0390a3565b60405162461bcd60e51b815260206004820152601a60248201527f43616e6e6f7420757064617465206275726e65642061737365740000000000006044820152606490fd5b60018060a01b0316805f52600c60205260405f2060ff1981541690557f0f2ab3269df45d41960fdf14c84cd22dfb81c269985eecc7ee6b93764639ae45604080515f8152426020820152a2565b906127e5600c61271c61054f565b936127268161159d565b85526127346001820161159d565b60208601526127456002820161159d565b60408601526003810154606086015260048101546080860152600581015460a0860152612782612779600683015460ff1690565b60c08701611fc9565b600781015460e08601526127986008820161159d565b6101008601526127b96127af600983015460ff1690565b6101208701611fd5565b600a8101546101408601526127df6127d5600b83015460ff1690565b1515610160870152565b0161159d565b610180830152565b156127f457565b60405162461bcd60e51b8152602060048201526014602482015273105cdcd95d08185b1c9958591e48189d5c9b995960621b6044820152606490fd5b1561283757565b60405162461bcd60e51b8152602060048201526016602482015275135a5cdcda5b99c81251d05388199bdc88185cdcd95d60521b6044820152606490fd5b939291611b7e9061289060609360808852608088019061038b565b5f19602088015286810360408801529061038b565b906128bd600a611277845f52600760205260405f2090565b6128e960046128d96009610835865f52600760205260405f2090565b6128e2816110de565b14156127ed565b6128fe6107d9835f52600960205260405f2090565b916129246009612916835f52600760205260405f2090565b01805460ff19166004179055565b61293b600c6127df835f52600760205260405f2090565b600554612950906001600160a01b031661069c565b6001600160a01b03908082166129a5575b507fd0360773ac0050786178ca762143b27b7e9b2d0b663ee86cf9e7f114b35008719150611bce906129938487612ecd565b60405191829133971695429083611b67565b6129b183511515612830565b803b1561025e57835f9186836129de966040519788958694859363303a694160e11b855260048501612875565b03925af1908115610721577fd0360773ac0050786178ca762143b27b7e9b2d0b663ee86cf9e7f114b350087192611bce92612a1b575b5090612961565b806125aa612a2892610500565b5f612a14565b15612a3557565b60405162461bcd60e51b8152602060048201526012602482015271496e76616c696420746f206164647265737360701b6044820152606490fd5b15612a7657565b60405162461bcd60e51b815260206004820152600c60248201526b105cdcd95d08189d5c9b995960a21b6044820152606490fd5b90929192815f526007602052612ac8600a60405f2001541515611a9f565b5f8281526009602052604090206001600160a01b0391908290541693828216809503612b6e57612b60611bce92857f8ec725dd8a48772a420e3a3a551add447b24fe29b5093e41922437ab8f90585495891698612b268a1515612a2e565b612b526004612b426009610835865f52600760205260405f2090565b612b4b816110de565b1415612a6f565b612b5a61220e565b926130d0565b604051918291429083611b67565b60405162461bcd60e51b8152602060048201526014602482015273496e76616c69642066726f6d206164647265737360601b6044820152606490fd5b60018060a01b0316805f52600c60205260405f20600160ff198254161790557f0f2ab3269df45d41960fdf14c84cd22dfb81c269985eecc7ee6b93764639ae456040805160018152426020820152a2565b6003546001600160a01b03163303612c0f57565b60405163118cdaa760e01b8152336004820152602490fd5b90612c666020604051809382612c46818401978881519384920161036a565b8201612c5a8251809386808501910161036a565b0103808452018261052e565b51902090565b90612c768261055e565b612c83604051918261052e565b8281528092611c22601f199161055e565b805f917a184f03e93ff9f4daa797ed6e38ed64bf6a1f01000000000000000080821015612dc8575b506d04ee2d6d415b85acef810000000080831015612db9575b50662386f26fc1000080831015612daa575b506305f5e10080831015612d9b575b5061271080831015612d8c575b506064821015612d7c575b600a80921015612d72575b600190816021612d2b60018701612c6c565b95860101905b612d3d575b5050505090565b5f19019083906f181899199a1a9b1b9c1cb0b131b232b360811b8282061a835304918215612d6d57919082612d31565b612d36565b9160010191612d19565b9190606460029104910191612d0e565b6004919392049101915f612d03565b6008919392049101915f612cf6565b6010919392049101915f612ce7565b6020919392049101915f612cd5565b60409350810491505f612cbc565b906001600160a01b03821615612eb557612e0f604051916001835260208301526040820190600182526001606084015260808301604052565b9093612e1c8286856138f2565b5f5b8551811015612e8657806001612e35819386611c2c565b5114612e42575b01612e1e565b612e8185612e62612e53848b611c2c565b515f52600960205260405f2090565b80546001600160a01b0319166001600160a01b03909216919091179055565b612e3c565b509392919260018151145f14612eab579060208061055c959301519101519133613854565b61055c933361365f565b604051632bfa23e760e11b81525f6004820152602490fd5b6001600160a01b0381169182156130b957612f07604051916001835260208301526040820190600182526001606084015260808301604052565b91906040945f604051612f1981610513565b528151845190818103611d745750505f5b8251811015612fcf578060051b60208082860101519187010151612f6e86612f59845f525f60205260405f2090565b9060018060a01b03165f5260205260405f2090565b54818110612f995786612f596001959493612f929303935f525f60205260405f2090565b5501612f2a565b89516303dee4c560e01b81526001600160a01b038816600482015260248101919091526044810182905260648101839052608490fd5b50945090505f929160019384936001845114821461307f5760208481015184820151604080519283529282015233917fc3d58168c5ae7397731d063d5bbf3d657854427343f4c083240f7aacaa2d0f6291a45b5f925b613030575b50505050565b815183101561307a57838381613047819685611c2c565b5114613055575b0192613025565b613075613065612e538387611c2c565b80546001600160a01b0319169055565b61304e565b61302a565b6040517f4a39dc06d4c0dbc64b70af90fd698a233a518aa5d07e595d983b8c0526c8f7fb3391806130b18789836138cd565b0390a4613022565b604051626a0d4560e21b81525f6004820152602490fd5b9192916001600160a01b0382811615612eb5578116156130b95761311861055c9490604051916001835260208301526040820190600182526001606084015260808301604052565b929091613162565b939291906001600160a01b0380821615612eb5578516156130b95761055c94604051926001845260208401526040830193600185526060840152608083016040525b6001600160a01b03808216158015979296929588959293919291866134ca575b9686975f9796979661338e575b61319b83858a8d613a05565b5f5b845181101561333d57808a8a8e60016131b781968a611c2c565b51146131c7575b5050500161319d565b82906131d3858b611c2c565b51936132ee575b8a806132e3575b15613205575050612e626131fd925f52600960205260405f2090565b8a8a8e6131be565b909150806132d9575b1561322e5750613065613229915f52600960205260405f2090565b6131fd565b613239575b506131fd565b8a61324f6107d9835f52600960205260405f2090565b9161326682612e62835f52600960205260405f2090565b8b15613274575b5050613233565b7f8ec725dd8a48772a420e3a3a551add447b24fe29b5093e41922437ab8f9058548b806040519416941692806132ce428291906040835260086040840152672a2920a729a322a960c11b6060840152602060808401930152565b0390a45f8a8161326d565b50898c161561320e565b508b831615156131e1565b6133236133086009610835875f52600760205260405f2090565b613311816110de565b60038114159081613328575b50613564565b6131da565b60029150613335816110de565b14155f61331d565b5097509850935095939190508116613357575b5050505050565b845160010361337d576020806133739601519201519233613889565b5f80808080613350565b61338994919233613758565b613373565b6004549096506133a6906001600160a01b031661069c565b60408051638cbdcead60e01b815233600482015260248101919091529690602090889060449082905afa968715610721575f976134a9575b508661318f576001600160a01b038a165f908152600c60205260409020613407905b5460ff1690565b8061347d575b613416906134d6565b6001600160a01b038a165f908152600d6020526040902061343e9061343a90613400565b1590565b80613452575b61344d90613522565b61318f565b5061344d61347661343a6134008b60018060a01b03165f52600d60205260405f2090565b9050613444565b506001600160a01b0388165f908152600c60205260409020613416906134a290613400565b905061340d565b6134c391975060203d60201161071a5761070c818361052e565b955f6133de565b84861615159650613182565b156134dd57565b60405162461bcd60e51b815260206004820152601860248201527f5472616e73666572206e6f742077686974656c697374656400000000000000006044820152606490fd5b1561352957565b60405162461bcd60e51b81526020600482015260136024820152721059191c995cdcc8189b1858dadb1a5cdd1959606a1b6044820152606490fd5b1561356b57565b60405162461bcd60e51b815260206004820152600c60248201526b105cdcd95d081b1bd8dad95960a21b6044820152606490fd5b9081602091031261025e57516103c1816102ea565b926135e26103c195936135f09360018060a01b031686525f602087015260a0604087015260a0860190610726565b908482036060860152610726565b91608081840391015261038b565b93906103c195936135e2916135f09460018060a01b03809216885216602087015260a0604087015260a0860190610726565b3d1561365a573d906136418261055e565b9161364f604051938461052e565b82523d5f602084013e565b606090565b9293919093843b613671575050505050565b602091613694604051948593849363bc197c8160e01b98898652600486016135b4565b03815f6001600160a01b0388165af15f9181613727575b506136ea57826136b9613630565b80519190826136e357604051632bfa23e760e11b81526001600160a01b0383166004820152602490fd5b6020915001fd5b6001600160e01b0319160361370457505f80808080613350565b604051632bfa23e760e11b81526001600160a01b03919091166004820152602490fd5b61374a91925060203d602011613751575b613742818361052e565b81019061359f565b905f6136ab565b503d613738565b939290949194853b61376d575b505050505050565b613790602093604051958694859463bc197c8160e01b998a8752600487016135fe565b03815f6001600160a01b0388165af15f91816137d0575b506137b557826136b9613630565b6001600160e01b0319160361370457505f8080808080613765565b6137ea91925060203d60201161375157613742818361052e565b905f6137a7565b909260a0926103c19594600180861b031683525f602084015260408301526060820152816080820152019061038b565b91926103c195949160a094600180871b03809216855216602084015260408301526060820152816080820152019061038b565b9293919093843b613866575050505050565b602091613694604051948593849363f23a6e6160e01b98898652600486016137f1565b939290949194853b61389d57505050505050565b613790602093604051958694859463f23a6e6160e01b998a875260048701613821565b91908201809211611bf557565b90916138e46103c193604084526040840190610726565b916020818403910152610726565b9190918251825190818103611d745750505f5b835181101561396957600581901b84810160209081015191850101516001929184906001600160a01b03821661393f575b50505001613905565b61395f91612f59613957925f525f60205260405f2090565b9182546138c0565b90555f8381613936565b509160018151145f146139c7576020908101519181015160408051938452918301526001600160a01b03909216915f9133917fc3d58168c5ae7397731d063d5bbf3d657854427343f4c083240f7aacaa2d0f62919081908101611bce565b7f4a39dc06d4c0dbc64b70af90fd698a233a518aa5d07e595d983b8c0526c8f7fb611bce5f939460405191829160018060a01b0316963395836138cd565b9392918051835190818103611d745750505f5b8151811015613afd57600581901b82810160209081015191860101516001600160a01b0392918590898516613a7d575b6001948216613a5b575b50505001613a18565b613a7391612f59613957925f525f60205260405f2090565b90555f8481613a52565b9192939050613a9789612f59845f525f60205260405f2090565b54838110613ac65791869184600196959403613abe8c612f59855f525f60205260405f2090565b559450613a48565b6040516303dee4c560e01b81526001600160a01b038b16600482015260248101919091526044810184905260648101839052608490fd5b508051939493919291600103613b5f576020908101519181015160408051938452918301526001600160a01b03928316939092169133917fc3d58168c5ae7397731d063d5bbf3d657854427343f4c083240f7aacaa2d0f629181908101611bce565b6040516001600160a01b03938416949093169233927f4a39dc06d4c0dbc64b70af90fd698a233a518aa5d07e595d983b8c0526c8f7fb928291611bce91836138cd56fea2646970667358221220f3eade659ef85a812662e1ab3a18a744f7c266d3a17ca098bcfd1820e052006c64736f6c63430008180033","linkReferences":{}},"methodIdentifiers":{"accountLedger()":"5defa55e","addToBlacklist(address)":"44337ea1","addToWhitelist(address)":"e43252d7","assetOwner(uint256)":"2a0ee644","assets(uint256)":"cf35bdd0","balanceOf(address,uint256)":"00fdd58e","balanceOfBatch(address[],uint256[])":"4e1273f4","blacklist(address)":"f9f92be4","burn(uint256,string,string)":"ba211db0","forceTransfer(uint256,address,address,string)":"c19b8c66","getAssetDetails(uint256)":"a1f24b3d","getAssetsByOwner(address)":"276f0934","getTokenByWarrant(string)":"4873124d","isApprovedForAll(address,address)":"e985e9c5","isAssetLocked(uint256)":"e7e55295","isWarrantUsed(string)":"26471651","memberRegistry()":"a74d4772","mint(address,string,string,string,uint256,uint256,uint8,bytes32,string,bool,string)":"722b0c7b","owner()":"8da5cb5b","removeFromBlacklist(address)":"537df3b6","removeFromWhitelist(address)":"8ab1d681","renounceOwnership()":"715018a6","safeBatchTransferFrom(address,address,uint256[],uint256[],bytes)":"2eb2c2d6","safeTransferFrom(address,address,uint256,uint256,bytes)":"f242432a","setAccountLedger(address)":"59317b7a","setApprovalForAll(address,bool)":"a22cb465","setMemberRegistry(address)":"6fd7c34c","supportsInterface(bytes4)":"01ffc9a7","transferOwnership(address)":"f2fde38b","updateCustody(uint256,address,string)":"27329eb7","updateStatus(uint256,uint8,string)":"781f0b72","uri(uint256)":"0e89341c","verifyCertificate(uint256,bytes32)":"c3b451a2","warrantToToken(string)":"f5dca3ca","whitelist(address)":"9b19251a"},"id":0}