{"abi":[{"type":"constructor","inputs":[{"name":"_memberRegistry","type":"address","internalType":"address"}],"stateMutability":"nonpayable"},{"type":"function","name":"assetOwner","inputs":[{"name":"","type":"uint256","internalType":"uint256"}],"outputs":[{"name":"","type":"address","internalType":"address"}],"stateMutability":"view"},{"type":"function","name":"assets","inputs":[{"name":"","type":"uint256","internalType":"uint256"}],"outputs":[{"name":"tokenId","type":"string","internalType":"string"},{"name":"serialNumber","type":"string","internalType":"string"},{"name":"refinerName","type":"string","internalType":"string"},{"name":"weightGrams","type":"uint256","internalType":"uint256"},{"name":"fineness","type":"uint256","internalType":"uint256"},{"name":"fineWeightGrams","type":"uint256","internalType":"uint256"},{"name":"productType","type":"uint8","internalType":"enum GoldAssetToken.GoldProductType"},{"name":"certificateHash","type":"bytes32","internalType":"bytes32"},{"name":"traceabilityGIC","type":"string","internalType":"string"},{"name":"status","type":"uint8","internalType":"enum GoldAssetToken.AssetStatus"},{"name":"mintedAt","type":"uint256","internalType":"uint256"},{"name":"certified","type":"bool","internalType":"bool"}],"stateMutability":"view"},{"type":"function","name":"balanceOf","inputs":[{"name":"account","type":"address","internalType":"address"},{"name":"id","type":"uint256","internalType":"uint256"}],"outputs":[{"name":"","type":"uint256","internalType":"uint256"}],"stateMutability":"view"},{"type":"function","name":"balanceOfBatch","inputs":[{"name":"accounts","type":"address[]","internalType":"address[]"},{"name":"ids","type":"uint256[]","internalType":"uint256[]"}],"outputs":[{"name":"","type":"uint256[]","internalType":"uint256[]"}],"stateMutability":"view"},{"type":"function","name":"burn","inputs":[{"name":"tokenId","type":"uint256","internalType":"uint256"},{"name":"burnReason","type":"string","internalType":"string"}],"outputs":[],"stateMutability":"nonpayable"},{"type":"function","name":"getAssetDetails","inputs":[{"name":"tokenId","type":"uint256","internalType":"uint256"}],"outputs":[{"name":"","type":"tuple","internalType":"struct GoldAssetToken.GoldAsset","components":[{"name":"tokenId","type":"string","internalType":"string"},{"name":"serialNumber","type":"string","internalType":"string"},{"name":"refinerName","type":"string","internalType":"string"},{"name":"weightGrams","type":"uint256","internalType":"uint256"},{"name":"fineness","type":"uint256","internalType":"uint256"},{"name":"fineWeightGrams","type":"uint256","internalType":"uint256"},{"name":"productType","type":"uint8","internalType":"enum GoldAssetToken.GoldProductType"},{"name":"certificateHash","type":"bytes32","internalType":"bytes32"},{"name":"traceabilityGIC","type":"string","internalType":"string"},{"name":"status","type":"uint8","internalType":"enum GoldAssetToken.AssetStatus"},{"name":"mintedAt","type":"uint256","internalType":"uint256"},{"name":"certified","type":"bool","internalType":"bool"}]}],"stateMutability":"view"},{"type":"function","name":"getAssetsByOwner","inputs":[{"name":"owner","type":"address","internalType":"address"}],"outputs":[{"name":"","type":"uint256[]","internalType":"uint256[]"}],"stateMutability":"view"},{"type":"function","name":"isApprovedForAll","inputs":[{"name":"account","type":"address","internalType":"address"},{"name":"operator","type":"address","internalType":"address"}],"outputs":[{"name":"","type":"bool","internalType":"bool"}],"stateMutability":"view"},{"type":"function","name":"isAssetLocked","inputs":[{"name":"tokenId","type":"uint256","internalType":"uint256"}],"outputs":[{"name":"","type":"bool","internalType":"bool"}],"stateMutability":"view"},{"type":"function","name":"memberRegistry","inputs":[],"outputs":[{"name":"","type":"address","internalType":"contract IMemberRegistry"}],"stateMutability":"view"},{"type":"function","name":"mint","inputs":[{"name":"to","type":"address","internalType":"address"},{"name":"serialNumber","type":"string","internalType":"string"},{"name":"refinerName","type":"string","internalType":"string"},{"name":"weightGrams","type":"uint256","internalType":"uint256"},{"name":"fineness","type":"uint256","internalType":"uint256"},{"name":"productType","type":"uint8","internalType":"enum GoldAssetToken.GoldProductType"},{"name":"certificateHash","type":"bytes32","internalType":"bytes32"},{"name":"traceabilityGIC","type":"string","internalType":"string"},{"name":"certified","type":"bool","internalType":"bool"}],"outputs":[{"name":"","type":"uint256","internalType":"uint256"}],"stateMutability":"nonpayable"},{"type":"function","name":"owner","inputs":[],"outputs":[{"name":"","type":"address","internalType":"address"}],"stateMutability":"view"},{"type":"function","name":"renounceOwnership","inputs":[],"outputs":[],"stateMutability":"nonpayable"},{"type":"function","name":"safeBatchTransferFrom","inputs":[{"name":"from","type":"address","internalType":"address"},{"name":"to","type":"address","internalType":"address"},{"name":"ids","type":"uint256[]","internalType":"uint256[]"},{"name":"values","type":"uint256[]","internalType":"uint256[]"},{"name":"data","type":"bytes","internalType":"bytes"}],"outputs":[],"stateMutability":"nonpayable"},{"type":"function","name":"safeTransferFrom","inputs":[{"name":"from","type":"address","internalType":"address"},{"name":"to","type":"address","internalType":"address"},{"name":"id","type":"uint256","internalType":"uint256"},{"name":"value","type":"uint256","internalType":"uint256"},{"name":"data","type":"bytes","internalType":"bytes"}],"outputs":[],"stateMutability":"nonpayable"},{"type":"function","name":"setApprovalForAll","inputs":[{"name":"operator","type":"address","internalType":"address"},{"name":"approved","type":"bool","internalType":"bool"}],"outputs":[],"stateMutability":"nonpayable"},{"type":"function","name":"setMemberRegistry","inputs":[{"name":"_memberRegistry","type":"address","internalType":"address"}],"outputs":[],"stateMutability":"nonpayable"},{"type":"function","name":"supportsInterface","inputs":[{"name":"interfaceId","type":"bytes4","internalType":"bytes4"}],"outputs":[{"name":"","type":"bool","internalType":"bool"}],"stateMutability":"view"},{"type":"function","name":"transferOwnership","inputs":[{"name":"newOwner","type":"address","internalType":"address"}],"outputs":[],"stateMutability":"nonpayable"},{"type":"function","name":"updateCustody","inputs":[{"name":"tokenId","type":"uint256","internalType":"uint256"},{"name":"toParty","type":"address","internalType":"address"},{"name":"custodyType","type":"string","internalType":"string"}],"outputs":[],"stateMutability":"nonpayable"},{"type":"function","name":"updateStatus","inputs":[{"name":"tokenId","type":"uint256","internalType":"uint256"},{"name":"newStatus","type":"uint8","internalType":"enum GoldAssetToken.AssetStatus"},{"name":"reason","type":"string","internalType":"string"}],"outputs":[],"stateMutability":"nonpayable"},{"type":"function","name":"uri","inputs":[{"name":"tokenId","type":"uint256","internalType":"uint256"}],"outputs":[{"name":"","type":"string","internalType":"string"}],"stateMutability":"view"},{"type":"function","name":"verifyCertificate","inputs":[{"name":"tokenId","type":"uint256","internalType":"uint256"},{"name":"certificateHash","type":"bytes32","internalType":"bytes32"}],"outputs":[{"name":"","type":"bool","internalType":"bool"}],"stateMutability":"view"},{"type":"event","name":"ApprovalForAll","inputs":[{"name":"account","type":"address","indexed":true,"internalType":"address"},{"name":"operator","type":"address","indexed":true,"internalType":"address"},{"name":"approved","type":"bool","indexed":false,"internalType":"bool"}],"anonymous":false},{"type":"event","name":"AssetBurned","inputs":[{"name":"tokenId","type":"uint256","indexed":true,"internalType":"uint256"},{"name":"burnReason","type":"string","indexed":false,"internalType":"string"},{"name":"finalOwner","type":"address","indexed":true,"internalType":"address"},{"name":"authorizedBy","type":"address","indexed":true,"internalType":"address"},{"name":"timestamp","type":"uint256","indexed":false,"internalType":"uint256"}],"anonymous":false},{"type":"event","name":"AssetMinted","inputs":[{"name":"tokenId","type":"uint256","indexed":true,"internalType":"uint256"},{"name":"serialNumber","type":"string","indexed":false,"internalType":"string"},{"name":"refinerName","type":"string","indexed":false,"internalType":"string"},{"name":"weightGrams","type":"uint256","indexed":false,"internalType":"uint256"},{"name":"fineness","type":"uint256","indexed":false,"internalType":"uint256"},{"name":"owner","type":"address","indexed":true,"internalType":"address"},{"name":"timestamp","type":"uint256","indexed":false,"internalType":"uint256"}],"anonymous":false},{"type":"event","name":"AssetStatusChanged","inputs":[{"name":"tokenId","type":"uint256","indexed":true,"internalType":"uint256"},{"name":"previousStatus","type":"uint8","indexed":false,"internalType":"enum GoldAssetToken.AssetStatus"},{"name":"newStatus","type":"uint8","indexed":false,"internalType":"enum GoldAssetToken.AssetStatus"},{"name":"reason","type":"string","indexed":false,"internalType":"string"},{"name":"changedBy","type":"address","indexed":true,"internalType":"address"},{"name":"timestamp","type":"uint256","indexed":false,"internalType":"uint256"}],"anonymous":false},{"type":"event","name":"AssetTransferred","inputs":[{"name":"tokenId","type":"uint256","indexed":true,"internalType":"uint256"},{"name":"fromIGAN","type":"address","indexed":true,"internalType":"address"},{"name":"toIGAN","type":"address","indexed":true,"internalType":"address"},{"name":"timestamp","type":"uint256","indexed":false,"internalType":"uint256"}],"anonymous":false},{"type":"event","name":"CustodyChanged","inputs":[{"name":"tokenId","type":"uint256","indexed":true,"internalType":"uint256"},{"name":"fromParty","type":"address","indexed":true,"internalType":"address"},{"name":"toParty","type":"address","indexed":true,"internalType":"address"},{"name":"custodyType","type":"string","indexed":false,"internalType":"string"},{"name":"timestamp","type":"uint256","indexed":false,"internalType":"uint256"}],"anonymous":false},{"type":"event","name":"OwnershipTransferred","inputs":[{"name":"previousOwner","type":"address","indexed":true,"internalType":"address"},{"name":"newOwner","type":"address","indexed":true,"internalType":"address"}],"anonymous":false},{"type":"event","name":"TransferBatch","inputs":[{"name":"operator","type":"address","indexed":true,"internalType":"address"},{"name":"from","type":"address","indexed":true,"internalType":"address"},{"name":"to","type":"address","indexed":true,"internalType":"address"},{"name":"ids","type":"uint256[]","indexed":false,"internalType":"uint256[]"},{"name":"values","type":"uint256[]","indexed":false,"internalType":"uint256[]"}],"anonymous":false},{"type":"event","name":"TransferSingle","inputs":[{"name":"operator","type":"address","indexed":true,"internalType":"address"},{"name":"from","type":"address","indexed":true,"internalType":"address"},{"name":"to","type":"address","indexed":true,"internalType":"address"},{"name":"id","type":"uint256","indexed":false,"internalType":"uint256"},{"name":"value","type":"uint256","indexed":false,"internalType":"uint256"}],"anonymous":false},{"type":"event","name":"URI","inputs":[{"name":"value","type":"string","indexed":false,"internalType":"string"},{"name":"id","type":"uint256","indexed":true,"internalType":"uint256"}],"anonymous":false},{"type":"error","name":"ERC1155InsufficientBalance","inputs":[{"name":"sender","type":"address","internalType":"address"},{"name":"balance","type":"uint256","internalType":"uint256"},{"name":"needed","type":"uint256","internalType":"uint256"},{"name":"tokenId","type":"uint256","internalType":"uint256"}]},{"type":"error","name":"ERC1155InvalidApprover","inputs":[{"name":"approver","type":"address","internalType":"address"}]},{"type":"error","name":"ERC1155InvalidArrayLength","inputs":[{"name":"idsLength","type":"uint256","internalType":"uint256"},{"name":"valuesLength","type":"uint256","internalType":"uint256"}]},{"type":"error","name":"ERC1155InvalidOperator","inputs":[{"name":"operator","type":"address","internalType":"address"}]},{"type":"error","name":"ERC1155InvalidReceiver","inputs":[{"name":"receiver","type":"address","internalType":"address"}]},{"type":"error","name":"ERC1155InvalidSender","inputs":[{"name":"sender","type":"address","internalType":"address"}]},{"type":"error","name":"ERC1155MissingApprovalForAll","inputs":[{"name":"operator","type":"address","internalType":"address"},{"name":"owner","type":"address","internalType":"address"}]},{"type":"error","name":"OwnableInvalidOwner","inputs":[{"name":"owner","type":"address","internalType":"address"}]},{"type":"error","name":"OwnableUnauthorizedAccount","inputs":[{"name":"account","type":"address","internalType":"address"}]}],"bytecode":{"object":"0x608060405234801561000f575f5ffd5b5060405161526a38038061526a83398181016040528101906100319190610253565b3360405180602001604052805f8152506100508161011f60201b60201c565b505f73ffffffffffffffffffffffffffffffffffffffff168173ffffffffffffffffffffffffffffffffffffffff16036100c1575f6040517f1e4fbdf70000000000000000000000000000000000000000000000000000000081526004016100b8919061028d565b60405180910390fd5b6100d08161013260201b60201c565b508060045f6101000a81548173ffffffffffffffffffffffffffffffffffffffff021916908373ffffffffffffffffffffffffffffffffffffffff1602179055506001600581905550506105b2565b806002908161012e91906104e3565b5050565b5f60035f9054906101000a900473ffffffffffffffffffffffffffffffffffffffff1690508160035f6101000a81548173ffffffffffffffffffffffffffffffffffffffff021916908373ffffffffffffffffffffffffffffffffffffffff1602179055508173ffffffffffffffffffffffffffffffffffffffff168173ffffffffffffffffffffffffffffffffffffffff167f8be0079c531659141344cd1fd0a4f28419497f9722a3daafe3b4186f6b6457e060405160405180910390a35050565b5f5ffd5b5f73ffffffffffffffffffffffffffffffffffffffff82169050919050565b5f610222826101f9565b9050919050565b61023281610218565b811461023c575f5ffd5b50565b5f8151905061024d81610229565b92915050565b5f60208284031215610268576102676101f5565b5b5f6102758482850161023f565b91505092915050565b61028781610218565b82525050565b5f6020820190506102a05f83018461027e565b92915050565b5f81519050919050565b7f4e487b71000000000000000000000000000000000000000000000000000000005f52604160045260245ffd5b7f4e487b71000000000000000000000000000000000000000000000000000000005f52602260045260245ffd5b5f600282049050600182168061032157607f821691505b602082108103610334576103336102dd565b5b50919050565b5f819050815f5260205f209050919050565b5f6020601f8301049050919050565b5f82821b905092915050565b5f600883026103967fffffffffffffffffffffffffffffffffffffffffffffffffffffffffffffffff8261035b565b6103a0868361035b565b95508019841693508086168417925050509392505050565b5f819050919050565b5f819050919050565b5f6103e46103df6103da846103b8565b6103c1565b6103b8565b9050919050565b5f819050919050565b6103fd836103ca565b610411610409826103eb565b848454610367565b825550505050565b5f5f905090565b610428610419565b6104338184846103f4565b505050565b5b818110156104565761044b5f82610420565b600181019050610439565b5050565b601f82111561049b5761046c8161033a565b6104758461034c565b81016020851015610484578190505b6104986104908561034c565b830182610438565b50505b505050565b5f82821c905092915050565b5f6104bb5f19846008026104a0565b1980831691505092915050565b5f6104d383836104ac565b9150826002028217905092915050565b6104ec826102a6565b67ffffffffffffffff811115610505576105046102b0565b5b61050f825461030a565b61051a82828561045a565b5f60209050601f83116001811461054b575f8415610539578287015190505b61054385826104c8565b8655506105aa565b601f1984166105598661033a565b5f5b828110156105805784890151825560018201915060208501945060208101905061055b565b8683101561059d5784890151610599601f8916826104ac565b8355505b6001600288020188555050505b505050505050565b614cab806105bf5f395ff3fe608060405234801561000f575f5ffd5b506004361061014a575f3560e01c80637641e6f3116100c1578063c3b451a21161007a578063c3b451a2146103bc578063cf35bdd0146103ec578063e7e5529514610427578063e985e9c514610457578063f242432a14610487578063f2fde38b146104a35761014a565b80637641e6f3146102fc578063781f0b72146103185780638da5cb5b14610334578063a1f24b3d14610352578063a22cb46514610382578063a74d47721461039e5761014a565b80632a0ee644116101135780632a0ee6441461022a5780632eb2c2d61461025a5780634e1273f41461027657806365987f8f146102a65780636fd7c34c146102d6578063715018a6146102f25761014a565b8062fdd58e1461014e57806301ffc9a71461017e5780630e89341c146101ae57806327329eb7146101de578063276f0934146101fa575b5f5ffd5b61016860048036038101906101639190613086565b6104bf565b60405161017591906130d3565b60405180910390f35b61019860048036038101906101939190613141565b610514565b6040516101a59190613186565b60405180910390f35b6101c860048036038101906101c3919061319f565b6105f5565b6040516101d5919061323a565b60405180910390f35b6101f860048036038101906101f39190613386565b610686565b005b610214600480360381019061020f91906133f2565b61086b565b60405161022191906134d4565b60405180910390f35b610244600480360381019061023f919061319f565b610ab0565b6040516102519190613503565b60405180910390f35b610274600480360381019061026f919061367e565b610ae0565b005b610290600480360381019061028b9190613809565b610b87565b60405161029d91906134d4565b60405180910390f35b6102c060048036038101906102bb91906138ff565b610c91565b6040516102cd91906130d3565b60405180910390f35b6102f060048036038101906102eb91906133f2565b6110cf565b005b6102fa61111a565b005b61031660048036038101906103119190613a17565b61112d565b005b610332600480360381019061032d9190613a94565b611378565b005b61033c6115fc565b6040516103499190613503565b60405180910390f35b61036c6004803603810190610367919061319f565b611624565b6040516103799190613d35565b60405180910390f35b61039c60048036038101906103979190613d55565b6119a5565b005b6103a66119bb565b6040516103b39190613dee565b60405180910390f35b6103d660048036038101906103d19190613e07565b6119e0565b6040516103e39190613186565b60405180910390f35b6104066004803603810190610401919061319f565b611a00565b60405161041e9c9b9a99989796959493929190613e72565b60405180910390f35b610441600480360381019061043c919061319f565b611c98565b60405161044e9190613186565b60405180910390f35b610471600480360381019061046c9190613f46565b611d1c565b60405161047e9190613186565b60405180910390f35b6104a1600480360381019061049c9190613f84565b611daa565b005b6104bd60048036038101906104b891906133f2565b611e51565b005b5f5f5f8381526020019081526020015f205f8473ffffffffffffffffffffffffffffffffffffffff1673ffffffffffffffffffffffffffffffffffffffff1681526020019081526020015f2054905092915050565b5f7fd9b67a26000000000000000000000000000000000000000000000000000000007bffffffffffffffffffffffffffffffffffffffffffffffffffffffff1916827bffffffffffffffffffffffffffffffffffffffffffffffffffffffff191614806105de57507f0e89341c000000000000000000000000000000000000000000000000000000007bffffffffffffffffffffffffffffffffffffffffffffffffffffffff1916827bffffffffffffffffffffffffffffffffffffffffffffffffffffffff1916145b806105ee57506105ed82611ed5565b5b9050919050565b60605f60065f8481526020019081526020015f20600a01540361064d576040517f08c379a000000000000000000000000000000000000000000000000000000000815260040161064490614061565b60405180910390fd5b60065f8381526020019081526020015f205f0160405160200161067091906141c2565b6040516020818303038152906040529050919050565b823373ffffffffffffffffffffffffffffffffffffffff1660085f8381526020019081526020015f205f9054906101000a900473ffffffffffffffffffffffffffffffffffffffff1673ffffffffffffffffffffffffffffffffffffffff161480610789575060045f9054906101000a900473ffffffffffffffffffffffffffffffffffffffff1673ffffffffffffffffffffffffffffffffffffffff16638cbdcead3360046040518363ffffffff1660e01b81526004016107499291906141e3565b602060405180830381865afa158015610764573d5f5f3e3d5ffd5b505050506040513d601f19601f82011682018060405250810190610788919061421e565b5b6107c8576040517f08c379a00000000000000000000000000000000000000000000000000000000081526004016107bf906142b9565b60405180910390fd5b5f60085f8681526020019081526020015f205f9054906101000a900473ffffffffffffffffffffffffffffffffffffffff1690508373ffffffffffffffffffffffffffffffffffffffff168173ffffffffffffffffffffffffffffffffffffffff16867f7d8bbf09e5d2c4c9326e18403c0d0edc90bf13eb1854d3cab844ac9476b12ffe864260405161085c9291906142d7565b60405180910390a45050505050565b60605f5f90505f600190505b600554811015610952578373ffffffffffffffffffffffffffffffffffffffff1660085f8381526020019081526020015f205f9054906101000a900473ffffffffffffffffffffffffffffffffffffffff1673ffffffffffffffffffffffffffffffffffffffff161480156109315750600460068111156108fb576108fa613b48565b5b60065f8381526020019081526020015f206009015f9054906101000a900460ff16600681111561092e5761092d613b48565b5b14155b1561094557818061094190614332565b9250505b8080600101915050610877565b505f8167ffffffffffffffff81111561096e5761096d613262565b5b60405190808252806020026020018201604052801561099c5781602001602082028036833780820191505090505b5090505f5f90505f600190505b600554811015610aa4578573ffffffffffffffffffffffffffffffffffffffff1660085f8381526020019081526020015f205f9054906101000a900473ffffffffffffffffffffffffffffffffffffffff1673ffffffffffffffffffffffffffffffffffffffff16148015610a63575060046006811115610a2d57610a2c613b48565b5b60065f8381526020019081526020015f206009015f9054906101000a900460ff166006811115610a6057610a5f613b48565b5b14155b15610a975780838381518110610a7c57610a7b614379565b5b6020026020010181815250508180610a9390614332565b9250505b80806001019150506109a9565b50819350505050919050565b6008602052805f5260405f205f915054906101000a900473ffffffffffffffffffffffffffffffffffffffff1681565b5f610ae9611f3e565b90508073ffffffffffffffffffffffffffffffffffffffff168673ffffffffffffffffffffffffffffffffffffffff1614158015610b2e5750610b2c8682611d1c565b155b15610b725780866040517fe237d922000000000000000000000000000000000000000000000000000000008152600401610b699291906143a6565b60405180910390fd5b610b7f8686868686611f45565b505050505050565b60608151835114610bd357815183516040517f5b059991000000000000000000000000000000000000000000000000000000008152600401610bca9291906143cd565b60405180910390fd5b5f835167ffffffffffffffff811115610bef57610bee613262565b5b604051908082528060200260200182016040528015610c1d5781602001602082028036833780820191505090505b5090505f5f90505b8451811015610c8657610c5c610c44828761203990919063ffffffff16565b610c57838761204c90919063ffffffff16565b6104bf565b828281518110610c6f57610c6e614379565b5b602002602001018181525050806001019050610c25565b508091505092915050565b5f60045f9054906101000a900473ffffffffffffffffffffffffffffffffffffffff1673ffffffffffffffffffffffffffffffffffffffff16638cbdcead3360016040518363ffffffff1660e01b8152600401610cef9291906141e3565b602060405180830381865afa158015610d0a573d5f5f3e3d5ffd5b505050506040513d601f19601f82011682018060405250810190610d2e919061421e565b610d6d576040517f08c379a0000000000000000000000000000000000000000000000000000000008152600401610d6490614464565b60405180910390fd5b5f610d788a8a61205f565b905060075f8281526020019081526020015f205f9054906101000a900460ff1615610dd8576040517f08c379a0000000000000000000000000000000000000000000000000000000008152600401610dcf906144cc565b60405180910390fd5b600160075f8381526020019081526020015f205f6101000a81548160ff0219169083151502179055505f612710888a610e1191906144ea565b610e1b9190614558565b90505f600554905060055f815480929190610e3590614332565b91905055505f604051806101800160405280610e5084612091565b604051602001610e609190614602565b60405160208183030381529060405281526020018e81526020018d81526020018c81526020018b81526020018481526020018a6003811115610ea557610ea4613b48565b5b81526020018981526020018881526020015f6006811115610ec957610ec8613b48565b5b815260200142815260200187151581525090508060065f8481526020019081526020015f205f820151815f019081610f0191906147a8565b506020820151816001019081610f1791906147a8565b506040820151816002019081610f2d91906147a8565b50606082015181600301556080820151816004015560a0820151816005015560c0820151816006015f6101000a81548160ff02191690836003811115610f7657610f75613b48565b5b021790555060e08201518160070155610100820151816008019081610f9b91906147a8565b50610120820151816009015f6101000a81548160ff02191690836006811115610fc757610fc6613b48565b5b021790555061014082015181600a015561016082015181600b015f6101000a81548160ff0219169083151502179055509050508d60085f8481526020019081526020015f205f6101000a81548173ffffffffffffffffffffffffffffffffffffffff021916908373ffffffffffffffffffffffffffffffffffffffff1602179055506110648e83600160405180602001604052805f81525061215b565b8d73ffffffffffffffffffffffffffffffffffffffff16827f932fb8f9d495becdde3eacf21ebe2745661a8fa6948a458f8eb2bd242bcda69d8f8f8f8f426040516110b3959493929190614877565b60405180910390a3819450505050509998505050505050505050565b6110d76121f0565b8060045f6101000a81548173ffffffffffffffffffffffffffffffffffffffff021916908373ffffffffffffffffffffffffffffffffffffffff16021790555050565b6111226121f0565b61112b5f612277565b565b3373ffffffffffffffffffffffffffffffffffffffff1660085f8481526020019081526020015f205f9054906101000a900473ffffffffffffffffffffffffffffffffffffffff1673ffffffffffffffffffffffffffffffffffffffff1614806111c9575061119a6115fc565b73ffffffffffffffffffffffffffffffffffffffff163373ffffffffffffffffffffffffffffffffffffffff16145b611208576040517f08c379a00000000000000000000000000000000000000000000000000000000081526004016111ff90614920565b60405180910390fd5b6004600681111561121c5761121b613b48565b5b60065f8481526020019081526020015f206009015f9054906101000a900460ff16600681111561124f5761124e613b48565b5b0361128f576040517f08c379a000000000000000000000000000000000000000000000000000000000815260040161128690614988565b60405180910390fd5b5f60085f8481526020019081526020015f205f9054906101000a900473ffffffffffffffffffffffffffffffffffffffff169050600460065f8581526020019081526020015f206009015f6101000a81548160ff021916908360068111156112fa576112f9613b48565b5b021790555061130b8184600161233a565b3373ffffffffffffffffffffffffffffffffffffffff168173ffffffffffffffffffffffffffffffffffffffff16847fd0360773ac0050786178ca762143b27b7e9b2d0b663ee86cf9e7f114b3500871854260405161136b9291906142d7565b60405180910390a4505050565b823373ffffffffffffffffffffffffffffffffffffffff1660085f8381526020019081526020015f205f9054906101000a900473ffffffffffffffffffffffffffffffffffffffff1673ffffffffffffffffffffffffffffffffffffffff16148061147b575060045f9054906101000a900473ffffffffffffffffffffffffffffffffffffffff1673ffffffffffffffffffffffffffffffffffffffff16638cbdcead3360046040518363ffffffff1660e01b815260040161143b9291906141e3565b602060405180830381865afa158015611456573d5f5f3e3d5ffd5b505050506040513d601f19601f8201168201806040525081019061147a919061421e565b5b6114ba576040517f08c379a00000000000000000000000000000000000000000000000000000000081526004016114b1906142b9565b60405180910390fd5b600460068111156114ce576114cd613b48565b5b60065f8681526020019081526020015f206009015f9054906101000a900460ff16600681111561150157611500613b48565b5b03611541576040517f08c379a0000000000000000000000000000000000000000000000000000000008152600401611538906149f0565b60405180910390fd5b5f60065f8681526020019081526020015f206009015f9054906101000a900460ff1690508360065f8781526020019081526020015f206009015f6101000a81548160ff0219169083600681111561159b5761159a613b48565b5b02179055503373ffffffffffffffffffffffffffffffffffffffff16857f4a7f36090e241cfd69682f6a164350c2cb00366213fcca9c8a43c15e8168f94c838787426040516115ed9493929190614a0e565b60405180910390a35050505050565b5f60035f9054906101000a900473ffffffffffffffffffffffffffffffffffffffff16905090565b61162c612f69565b5f60065f8481526020019081526020015f20600a015403611682576040517f08c379a000000000000000000000000000000000000000000000000000000000815260040161167990614061565b60405180910390fd5b60065f8381526020019081526020015f20604051806101800160405290815f820180546116ae90614100565b80601f01602080910402602001604051908101604052809291908181526020018280546116da90614100565b80156117255780601f106116fc57610100808354040283529160200191611725565b820191905f5260205f20905b81548152906001019060200180831161170857829003601f168201915b5050505050815260200160018201805461173e90614100565b80601f016020809104026020016040519081016040528092919081815260200182805461176a90614100565b80156117b55780601f1061178c576101008083540402835291602001916117b5565b820191905f5260205f20905b81548152906001019060200180831161179857829003601f168201915b505050505081526020016002820180546117ce90614100565b80601f01602080910402602001604051908101604052809291908181526020018280546117fa90614100565b80156118455780601f1061181c57610100808354040283529160200191611845565b820191905f5260205f20905b81548152906001019060200180831161182857829003601f168201915b50505050508152602001600382015481526020016004820154815260200160058201548152602001600682015f9054906101000a900460ff1660038111156118905761188f613b48565b5b60038111156118a2576118a1613b48565b5b8152602001600782015481526020016008820180546118c090614100565b80601f01602080910402602001604051908101604052809291908181526020018280546118ec90614100565b80156119375780601f1061190e57610100808354040283529160200191611937565b820191905f5260205f20905b81548152906001019060200180831161191a57829003601f168201915b50505050508152602001600982015f9054906101000a900460ff16600681111561196457611963613b48565b5b600681111561197657611975613b48565b5b8152602001600a8201548152602001600b82015f9054906101000a900460ff1615151515815250509050919050565b6119b76119b0611f3e565b83836123dc565b5050565b60045f9054906101000a900473ffffffffffffffffffffffffffffffffffffffff1681565b5f8160065f8581526020019081526020015f206007015414905092915050565b6006602052805f5260405f205f91509050805f018054611a1f90614100565b80601f0160208091040260200160405190810160405280929190818152602001828054611a4b90614100565b8015611a965780601f10611a6d57610100808354040283529160200191611a96565b820191905f5260205f20905b815481529060010190602001808311611a7957829003601f168201915b505050505090806001018054611aab90614100565b80601f0160208091040260200160405190810160405280929190818152602001828054611ad790614100565b8015611b225780601f10611af957610100808354040283529160200191611b22565b820191905f5260205f20905b815481529060010190602001808311611b0557829003601f168201915b505050505090806002018054611b3790614100565b80601f0160208091040260200160405190810160405280929190818152602001828054611b6390614100565b8015611bae5780601f10611b8557610100808354040283529160200191611bae565b820191905f5260205f20905b815481529060010190602001808311611b9157829003601f168201915b505050505090806003015490806004015490806005015490806006015f9054906101000a900460ff1690806007015490806008018054611bed90614100565b80601f0160208091040260200160405190810160405280929190818152602001828054611c1990614100565b8015611c645780601f10611c3b57610100808354040283529160200191611c64565b820191905f5260205f20905b815481529060010190602001808311611c4757829003601f168201915b505050505090806009015f9054906101000a900460ff169080600a01549080600b015f9054906101000a900460ff1690508c565b5f5f60065f8481526020019081526020015f206009015f9054906101000a900460ff16905060036006811115611cd157611cd0613b48565b5b816006811115611ce457611ce3613b48565b5b1480611d14575060026006811115611cff57611cfe613b48565b5b816006811115611d1257611d11613b48565b5b145b915050919050565b5f60015f8473ffffffffffffffffffffffffffffffffffffffff1673ffffffffffffffffffffffffffffffffffffffff1681526020019081526020015f205f8373ffffffffffffffffffffffffffffffffffffffff1673ffffffffffffffffffffffffffffffffffffffff1681526020019081526020015f205f9054906101000a900460ff16905092915050565b5f611db3611f3e565b90508073ffffffffffffffffffffffffffffffffffffffff168673ffffffffffffffffffffffffffffffffffffffff1614158015611df85750611df68682611d1c565b155b15611e3c5780866040517fe237d922000000000000000000000000000000000000000000000000000000008152600401611e339291906143a6565b60405180910390fd5b611e498686868686612545565b505050505050565b611e596121f0565b5f73ffffffffffffffffffffffffffffffffffffffff168173ffffffffffffffffffffffffffffffffffffffff1603611ec9575f6040517f1e4fbdf7000000000000000000000000000000000000000000000000000000008152600401611ec09190613503565b60405180910390fd5b611ed281612277565b50565b5f7f01ffc9a7000000000000000000000000000000000000000000000000000000007bffffffffffffffffffffffffffffffffffffffffffffffffffffffff1916827bffffffffffffffffffffffffffffffffffffffffffffffffffffffff1916149050919050565b5f33905090565b5f73ffffffffffffffffffffffffffffffffffffffff168473ffffffffffffffffffffffffffffffffffffffff1603611fb5575f6040517f57f447ce000000000000000000000000000000000000000000000000000000008152600401611fac9190613503565b60405180910390fd5b5f73ffffffffffffffffffffffffffffffffffffffff168573ffffffffffffffffffffffffffffffffffffffff1603612025575f6040517f01a8351400000000000000000000000000000000000000000000000000000000815260040161201c9190613503565b60405180910390fd5b612032858585858561264b565b5050505050565b5f60208202602084010151905092915050565b5f60208202602084010151905092915050565b5f8282604051602001612073929190614a58565b60405160208183030381529060405280519060200120905092915050565b60605f600161209f846126f7565b0190505f8167ffffffffffffffff8111156120bd576120bc613262565b5b6040519080825280601f01601f1916602001820160405280156120ef5781602001600182028036833780820191505090505b5090505f82602083010190505b600115612150578080600190039150507f3031323334353637383961626364656600000000000000000000000000000000600a86061a8153600a85816121455761214461452b565b5b0494505f85036120fc575b819350505050919050565b5f73ffffffffffffffffffffffffffffffffffffffff168473ffffffffffffffffffffffffffffffffffffffff16036121cb575f6040517f57f447ce0000000000000000000000000000000000000000000000000000000081526004016121c29190613503565b60405180910390fd5b5f5f6121d78585612848565b915091506121e85f8784848761264b565b505050505050565b6121f8611f3e565b73ffffffffffffffffffffffffffffffffffffffff166122166115fc565b73ffffffffffffffffffffffffffffffffffffffff161461227557612239611f3e565b6040517f118cdaa700000000000000000000000000000000000000000000000000000000815260040161226c9190613503565b60405180910390fd5b565b5f60035f9054906101000a900473ffffffffffffffffffffffffffffffffffffffff1690508160035f6101000a81548173ffffffffffffffffffffffffffffffffffffffff021916908373ffffffffffffffffffffffffffffffffffffffff1602179055508173ffffffffffffffffffffffffffffffffffffffff168173ffffffffffffffffffffffffffffffffffffffff167f8be0079c531659141344cd1fd0a4f28419497f9722a3daafe3b4186f6b6457e060405160405180910390a35050565b5f73ffffffffffffffffffffffffffffffffffffffff168373ffffffffffffffffffffffffffffffffffffffff16036123aa575f6040517f01a835140000000000000000000000000000000000000000000000000000000081526004016123a19190613503565b60405180910390fd5b5f5f6123b68484612848565b915091506123d5855f848460405180602001604052805f81525061264b565b5050505050565b5f73ffffffffffffffffffffffffffffffffffffffff168273ffffffffffffffffffffffffffffffffffffffff160361244c575f6040517fced3e1000000000000000000000000000000000000000000000000000000000081526004016124439190613503565b60405180910390fd5b8060015f8573ffffffffffffffffffffffffffffffffffffffff1673ffffffffffffffffffffffffffffffffffffffff1681526020019081526020015f205f8473ffffffffffffffffffffffffffffffffffffffff1673ffffffffffffffffffffffffffffffffffffffff1681526020019081526020015f205f6101000a81548160ff0219169083151502179055508173ffffffffffffffffffffffffffffffffffffffff168373ffffffffffffffffffffffffffffffffffffffff167f17307eab39ab6107e8899845ad3d59bd9653f200f220920489ca2b5937696c31836040516125389190613186565b60405180910390a3505050565b5f73ffffffffffffffffffffffffffffffffffffffff168473ffffffffffffffffffffffffffffffffffffffff16036125b5575f6040517f57f447ce0000000000000000000000000000000000000000000000000000000081526004016125ac9190613503565b60405180910390fd5b5f73ffffffffffffffffffffffffffffffffffffffff168573ffffffffffffffffffffffffffffffffffffffff1603612625575f6040517f01a8351400000000000000000000000000000000000000000000000000000000815260040161261c9190613503565b60405180910390fd5b5f5f6126318585612848565b91509150612642878784848761264b565b50505050505050565b61265785858585612878565b5f73ffffffffffffffffffffffffffffffffffffffff168473ffffffffffffffffffffffffffffffffffffffff16146126f0575f612693611f3e565b905060018451036126df575f6126b25f8661204c90919063ffffffff16565b90505f6126c85f8661204c90919063ffffffff16565b90506126d8838989858589612c0b565b50506126ee565b6126ed818787878787612dba565b5b505b5050505050565b5f5f5f90507a184f03e93ff9f4daa797ed6e38ed64bf6a1f0100000000000000008310612753577a184f03e93ff9f4daa797ed6e38ed64bf6a1f01000000000000000083816127495761274861452b565b5b0492506040810190505b6d04ee2d6d415b85acef81000000008310612790576d04ee2d6d415b85acef810000000083816127865761278561452b565b5b0492506020810190505b662386f26fc1000083106127bf57662386f26fc1000083816127b5576127b461452b565b5b0492506010810190505b6305f5e10083106127e8576305f5e10083816127de576127dd61452b565b5b0492506008810190505b612710831061280d5761271083816128035761280261452b565b5b0492506004810190505b6064831061283057606483816128265761282561452b565b5b0492506002810190505b600a831061283f576001810190505b80915050919050565b60608060405191506001825283602083015260408201905060018152826020820152604081016040529250929050565b80518251146128c257815181516040517f5b0599910000000000000000000000000000000000000000000000000000000081526004016128b99291906143cd565b60405180910390fd5b5f6128cb611f3e565b90505f5f90505b8351811015612aca575f6128ef828661204c90919063ffffffff16565b90505f612905838661204c90919063ffffffff16565b90505f73ffffffffffffffffffffffffffffffffffffffff168873ffffffffffffffffffffffffffffffffffffffff1614612a28575f5f5f8481526020019081526020015f205f8a73ffffffffffffffffffffffffffffffffffffffff1673ffffffffffffffffffffffffffffffffffffffff1681526020019081526020015f20549050818110156129d457888183856040517f03dee4c50000000000000000000000000000000000000000000000000000000081526004016129cb9493929190614a7b565b60405180910390fd5b8181035f5f8581526020019081526020015f205f8b73ffffffffffffffffffffffffffffffffffffffff1673ffffffffffffffffffffffffffffffffffffffff1681526020019081526020015f2081905550505b5f73ffffffffffffffffffffffffffffffffffffffff168773ffffffffffffffffffffffffffffffffffffffff1614612abd57805f5f8481526020019081526020015f205f8973ffffffffffffffffffffffffffffffffffffffff1673ffffffffffffffffffffffffffffffffffffffff1681526020019081526020015f205f828254612ab59190614abe565b925050819055505b50508060010190506128d2565b506001835103612b85575f612ae85f8561204c90919063ffffffff16565b90505f612afe5f8561204c90919063ffffffff16565b90508573ffffffffffffffffffffffffffffffffffffffff168773ffffffffffffffffffffffffffffffffffffffff168473ffffffffffffffffffffffffffffffffffffffff167fc3d58168c5ae7397731d063d5bbf3d657854427343f4c083240f7aacaa2d0f628585604051612b769291906143cd565b60405180910390a45050612c04565b8373ffffffffffffffffffffffffffffffffffffffff168573ffffffffffffffffffffffffffffffffffffffff168273ffffffffffffffffffffffffffffffffffffffff167f4a39dc06d4c0dbc64b70af90fd698a233a518aa5d07e595d983b8c0526c8f7fb8686604051612bfb929190614af1565b60405180910390a45b5050505050565b5f8473ffffffffffffffffffffffffffffffffffffffff163b1115612db2578373ffffffffffffffffffffffffffffffffffffffff1663f23a6e6187878686866040518663ffffffff1660e01b8152600401612c6b959493929190614b78565b6020604051808303815f875af1925050508015612ca657506040513d601f19601f82011682018060405250810190612ca39190614be4565b60015b612d27573d805f8114612cd4576040519150601f19603f3d011682016040523d82523d5f602084013e612cd9565b606091505b505f815103612d1f57846040517f57f447ce000000000000000000000000000000000000000000000000000000008152600401612d169190613503565b60405180910390fd5b805160208201fd5b63f23a6e6160e01b7bffffffffffffffffffffffffffffffffffffffffffffffffffffffff1916817bffffffffffffffffffffffffffffffffffffffffffffffffffffffff191614612db057846040517f57f447ce000000000000000000000000000000000000000000000000000000008152600401612da79190613503565b60405180910390fd5b505b505050505050565b5f8473ffffffffffffffffffffffffffffffffffffffff163b1115612f61578373ffffffffffffffffffffffffffffffffffffffff1663bc197c8187878686866040518663ffffffff1660e01b8152600401612e1a959493929190614c0f565b6020604051808303815f875af1925050508015612e5557506040513d601f19601f82011682018060405250810190612e529190614be4565b60015b612ed6573d805f8114612e83576040519150601f19603f3d011682016040523d82523d5f602084013e612e88565b606091505b505f815103612ece57846040517f57f447ce000000000000000000000000000000000000000000000000000000008152600401612ec59190613503565b60405180910390fd5b805160208201fd5b63bc197c8160e01b7bffffffffffffffffffffffffffffffffffffffffffffffffffffffff1916817bffffffffffffffffffffffffffffffffffffffffffffffffffffffff191614612f5f57846040517f57f447ce000000000000000000000000000000000000000000000000000000008152600401612f569190613503565b60405180910390fd5b505b505050505050565b6040518061018001604052806060815260200160608152602001606081526020015f81526020015f81526020015f81526020015f6003811115612faf57612fae613b48565b5b81526020015f8152602001606081526020015f6006811115612fd457612fd3613b48565b5b81526020015f81526020015f151581525090565b5f604051905090565b5f5ffd5b5f5ffd5b5f73ffffffffffffffffffffffffffffffffffffffff82169050919050565b5f61302282612ff9565b9050919050565b61303281613018565b811461303c575f5ffd5b50565b5f8135905061304d81613029565b92915050565b5f819050919050565b61306581613053565b811461306f575f5ffd5b50565b5f813590506130808161305c565b92915050565b5f5f6040838503121561309c5761309b612ff1565b5b5f6130a98582860161303f565b92505060206130ba85828601613072565b9150509250929050565b6130cd81613053565b82525050565b5f6020820190506130e65f8301846130c4565b92915050565b5f7fffffffff0000000000000000000000000000000000000000000000000000000082169050919050565b613120816130ec565b811461312a575f5ffd5b50565b5f8135905061313b81613117565b92915050565b5f6020828403121561315657613155612ff1565b5b5f6131638482850161312d565b91505092915050565b5f8115159050919050565b6131808161316c565b82525050565b5f6020820190506131995f830184613177565b92915050565b5f602082840312156131b4576131b3612ff1565b5b5f6131c184828501613072565b91505092915050565b5f81519050919050565b5f82825260208201905092915050565b8281835e5f83830152505050565b5f601f19601f8301169050919050565b5f61320c826131ca565b61321681856131d4565b93506132268185602086016131e4565b61322f816131f2565b840191505092915050565b5f6020820190508181035f8301526132528184613202565b905092915050565b5f5ffd5b5f5ffd5b7f4e487b71000000000000000000000000000000000000000000000000000000005f52604160045260245ffd5b613298826131f2565b810181811067ffffffffffffffff821117156132b7576132b6613262565b5b80604052505050565b5f6132c9612fe8565b90506132d5828261328f565b919050565b5f67ffffffffffffffff8211156132f4576132f3613262565b5b6132fd826131f2565b9050602081019050919050565b828183375f83830152505050565b5f61332a613325846132da565b6132c0565b9050828152602081018484840111156133465761334561325e565b5b61335184828561330a565b509392505050565b5f82601f83011261336d5761336c61325a565b5b813561337d848260208601613318565b91505092915050565b5f5f5f6060848603121561339d5761339c612ff1565b5b5f6133aa86828701613072565b93505060206133bb8682870161303f565b925050604084013567ffffffffffffffff8111156133dc576133db612ff5565b5b6133e886828701613359565b9150509250925092565b5f6020828403121561340757613406612ff1565b5b5f6134148482850161303f565b91505092915050565b5f81519050919050565b5f82825260208201905092915050565b5f819050602082019050919050565b61344f81613053565b82525050565b5f6134608383613446565b60208301905092915050565b5f602082019050919050565b5f6134828261341d565b61348c8185613427565b935061349783613437565b805f5b838110156134c75781516134ae8882613455565b97506134b98361346c565b92505060018101905061349a565b5085935050505092915050565b5f6020820190508181035f8301526134ec8184613478565b905092915050565b6134fd81613018565b82525050565b5f6020820190506135165f8301846134f4565b92915050565b5f67ffffffffffffffff82111561353657613535613262565b5b602082029050602081019050919050565b5f5ffd5b5f61355d6135588461351c565b6132c0565b905080838252602082019050602084028301858111156135805761357f613547565b5b835b818110156135a957806135958882613072565b845260208401935050602081019050613582565b5050509392505050565b5f82601f8301126135c7576135c661325a565b5b81356135d784826020860161354b565b91505092915050565b5f67ffffffffffffffff8211156135fa576135f9613262565b5b613603826131f2565b9050602081019050919050565b5f61362261361d846135e0565b6132c0565b90508281526020810184848401111561363e5761363d61325e565b5b61364984828561330a565b509392505050565b5f82601f8301126136655761366461325a565b5b8135613675848260208601613610565b91505092915050565b5f5f5f5f5f60a0868803121561369757613696612ff1565b5b5f6136a48882890161303f565b95505060206136b58882890161303f565b945050604086013567ffffffffffffffff8111156136d6576136d5612ff5565b5b6136e2888289016135b3565b935050606086013567ffffffffffffffff81111561370357613702612ff5565b5b61370f888289016135b3565b925050608086013567ffffffffffffffff8111156137305761372f612ff5565b5b61373c88828901613651565b9150509295509295909350565b5f67ffffffffffffffff82111561376357613762613262565b5b602082029050602081019050919050565b5f61378661378184613749565b6132c0565b905080838252602082019050602084028301858111156137a9576137a8613547565b5b835b818110156137d257806137be888261303f565b8452602084019350506020810190506137ab565b5050509392505050565b5f82601f8301126137f0576137ef61325a565b5b8135613800848260208601613774565b91505092915050565b5f5f6040838503121561381f5761381e612ff1565b5b5f83013567ffffffffffffffff81111561383c5761383b612ff5565b5b613848858286016137dc565b925050602083013567ffffffffffffffff81111561386957613868612ff5565b5b613875858286016135b3565b9150509250929050565b6004811061388b575f5ffd5b50565b5f8135905061389c8161387f565b92915050565b5f819050919050565b6138b4816138a2565b81146138be575f5ffd5b50565b5f813590506138cf816138ab565b92915050565b6138de8161316c565b81146138e8575f5ffd5b50565b5f813590506138f9816138d5565b92915050565b5f5f5f5f5f5f5f5f5f6101208a8c03121561391d5761391c612ff1565b5b5f61392a8c828d0161303f565b99505060208a013567ffffffffffffffff81111561394b5761394a612ff5565b5b6139578c828d01613359565b98505060408a013567ffffffffffffffff81111561397857613977612ff5565b5b6139848c828d01613359565b97505060606139958c828d01613072565b96505060806139a68c828d01613072565b95505060a06139b78c828d0161388e565b94505060c06139c88c828d016138c1565b93505060e08a013567ffffffffffffffff8111156139e9576139e8612ff5565b5b6139f58c828d01613359565b925050610100613a078c828d016138eb565b9150509295985092959850929598565b5f5f60408385031215613a2d57613a2c612ff1565b5b5f613a3a85828601613072565b925050602083013567ffffffffffffffff811115613a5b57613a5a612ff5565b5b613a6785828601613359565b9150509250929050565b60078110613a7d575f5ffd5b50565b5f81359050613a8e81613a71565b92915050565b5f5f5f60608486031215613aab57613aaa612ff1565b5b5f613ab886828701613072565b9350506020613ac986828701613a80565b925050604084013567ffffffffffffffff811115613aea57613ae9612ff5565b5b613af686828701613359565b9150509250925092565b5f82825260208201905092915050565b5f613b1a826131ca565b613b248185613b00565b9350613b348185602086016131e4565b613b3d816131f2565b840191505092915050565b7f4e487b71000000000000000000000000000000000000000000000000000000005f52602160045260245ffd5b60048110613b8657613b85613b48565b5b50565b5f819050613b9682613b75565b919050565b5f613ba582613b89565b9050919050565b613bb581613b9b565b82525050565b613bc4816138a2565b82525050565b60078110613bdb57613bda613b48565b5b50565b5f819050613beb82613bca565b919050565b5f613bfa82613bde565b9050919050565b613c0a81613bf0565b82525050565b613c198161316c565b82525050565b5f61018083015f8301518482035f860152613c3a8282613b10565b91505060208301518482036020860152613c548282613b10565b91505060408301518482036040860152613c6e8282613b10565b9150506060830151613c836060860182613446565b506080830151613c966080860182613446565b5060a0830151613ca960a0860182613446565b5060c0830151613cbc60c0860182613bac565b5060e0830151613ccf60e0860182613bbb565b50610100830151848203610100860152613ce98282613b10565b915050610120830151613d00610120860182613c01565b50610140830151613d15610140860182613446565b50610160830151613d2a610160860182613c10565b508091505092915050565b5f6020820190508181035f830152613d4d8184613c1f565b905092915050565b5f5f60408385031215613d6b57613d6a612ff1565b5b5f613d788582860161303f565b9250506020613d89858286016138eb565b9150509250929050565b5f819050919050565b5f613db6613db1613dac84612ff9565b613d93565b612ff9565b9050919050565b5f613dc782613d9c565b9050919050565b5f613dd882613dbd565b9050919050565b613de881613dce565b82525050565b5f602082019050613e015f830184613ddf565b92915050565b5f5f60408385031215613e1d57613e1c612ff1565b5b5f613e2a85828601613072565b9250506020613e3b858286016138c1565b9150509250929050565b613e4e81613b9b565b82525050565b613e5d816138a2565b82525050565b613e6c81613bf0565b82525050565b5f610180820190508181035f830152613e8b818f613202565b90508181036020830152613e9f818e613202565b90508181036040830152613eb3818d613202565b9050613ec2606083018c6130c4565b613ecf608083018b6130c4565b613edc60a083018a6130c4565b613ee960c0830189613e45565b613ef660e0830188613e54565b818103610100830152613f098187613202565b9050613f19610120830186613e63565b613f276101408301856130c4565b613f35610160830184613177565b9d9c50505050505050505050505050565b5f5f60408385031215613f5c57613f5b612ff1565b5b5f613f698582860161303f565b9250506020613f7a8582860161303f565b9150509250929050565b5f5f5f5f5f60a08688031215613f9d57613f9c612ff1565b5b5f613faa8882890161303f565b9550506020613fbb8882890161303f565b9450506040613fcc88828901613072565b9350506060613fdd88828901613072565b925050608086013567ffffffffffffffff811115613ffe57613ffd612ff5565b5b61400a88828901613651565b9150509295509295909350565b7f417373657420646f6573206e6f742065786973740000000000000000000000005f82015250565b5f61404b6014836131d4565b915061405682614017565b602082019050919050565b5f6020820190508181035f8301526140788161403f565b9050919050565b5f81905092915050565b7f697066733a2f2f000000000000000000000000000000000000000000000000005f82015250565b5f6140bd60078361407f565b91506140c882614089565b600782019050919050565b7f4e487b71000000000000000000000000000000000000000000000000000000005f52602260045260245ffd5b5f600282049050600182168061411757607f821691505b60208210810361412a576141296140d3565b5b50919050565b5f819050815f5260205f209050919050565b5f815461414e81614100565b614158818661407f565b9450600182165f81146141725760018114614187576141b9565b60ff19831686528115158202860193506141b9565b61419085614130565b5f5b838110156141b157815481890152600182019150602081019050614192565b838801955050505b50505092915050565b5f6141cc826140b1565b91506141d88284614142565b915081905092915050565b5f6040820190506141f65f8301856134f4565b61420360208301846130c4565b9392505050565b5f81519050614218816138d5565b92915050565b5f6020828403121561423357614232612ff1565b5b5f6142408482850161420a565b91505092915050565b7f4e6f7420617574686f72697a65643a204f776e6572206f7220435553544f44495f8201527f414e20726f6c6520726571756972656400000000000000000000000000000000602082015250565b5f6142a36030836131d4565b91506142ae82614249565b604082019050919050565b5f6020820190508181035f8301526142d081614297565b9050919050565b5f6040820190508181035f8301526142ef8185613202565b90506142fe60208301846130c4565b9392505050565b7f4e487b71000000000000000000000000000000000000000000000000000000005f52601160045260245ffd5b5f61433c82613053565b91507fffffffffffffffffffffffffffffffffffffffffffffffffffffffffffffffff820361436e5761436d614305565b5b600182019050919050565b7f4e487b71000000000000000000000000000000000000000000000000000000005f52603260045260245ffd5b5f6040820190506143b95f8301856134f4565b6143c660208301846134f4565b9392505050565b5f6040820190506143e05f8301856130c4565b6143ed60208301846130c4565b9392505050565b7f4e6f7420617574686f72697a65643a20524546494e455220726f6c65207265715f8201527f7569726564000000000000000000000000000000000000000000000000000000602082015250565b5f61444e6025836131d4565b9150614459826143f4565b604082019050919050565b5f6020820190508181035f83015261447b81614442565b9050919050565b7f417373657420616c7265616479207265676973746572656400000000000000005f82015250565b5f6144b66018836131d4565b91506144c182614482565b602082019050919050565b5f6020820190508181035f8301526144e3816144aa565b9050919050565b5f6144f482613053565b91506144ff83613053565b925082820261450d81613053565b9150828204841483151761452457614523614305565b5b5092915050565b7f4e487b71000000000000000000000000000000000000000000000000000000005f52601260045260245ffd5b5f61456282613053565b915061456d83613053565b92508261457d5761457c61452b565b5b828204905092915050565b7f474946542d41535345542d0000000000000000000000000000000000000000005f82015250565b5f6145bc600b8361407f565b91506145c782614588565b600b82019050919050565b5f6145dc826131ca565b6145e6818561407f565b93506145f68185602086016131e4565b80840191505092915050565b5f61460c826145b0565b915061461882846145d2565b915081905092915050565b5f6020601f8301049050919050565b5f82821b905092915050565b5f6008830261466d7fffffffffffffffffffffffffffffffffffffffffffffffffffffffffffffffff82614632565b6146778683614632565b95508019841693508086168417925050509392505050565b5f6146a96146a461469f84613053565b613d93565b613053565b9050919050565b5f819050919050565b6146c28361468f565b6146d66146ce826146b0565b84845461463e565b825550505050565b5f5f905090565b6146ed6146de565b6146f88184846146b9565b505050565b5b8181101561471b576147105f826146e5565b6001810190506146fe565b5050565b601f8211156147605761473181614130565b61473a84614623565b81016020851015614749578190505b61475d61475585614623565b8301826146fd565b50505b505050565b5f82821c905092915050565b5f6147805f1984600802614765565b1980831691505092915050565b5f6147988383614771565b9150826002028217905092915050565b6147b1826131ca565b67ffffffffffffffff8111156147ca576147c9613262565b5b6147d48254614100565b6147df82828561471f565b5f60209050601f831160018114614810575f84156147fe578287015190505b614808858261478d565b86555061486f565b601f19841661481e86614130565b5f5b8281101561484557848901518255600182019150602085019450602081019050614820565b86831015614862578489015161485e601f891682614771565b8355505b6001600288020188555050505b505050505050565b5f60a0820190508181035f83015261488f8188613202565b905081810360208301526148a38187613202565b90506148b260408301866130c4565b6148bf60608301856130c4565b6148cc60808301846130c4565b9695505050505050565b7f4e6f7420617574686f72697a65640000000000000000000000000000000000005f82015250565b5f61490a600e836131d4565b9150614915826148d6565b602082019050919050565b5f6020820190508181035f830152614937816148fe565b9050919050565b7f417373657420616c7265616479206275726e65640000000000000000000000005f82015250565b5f6149726014836131d4565b915061497d8261493e565b602082019050919050565b5f6020820190508181035f83015261499f81614966565b9050919050565b7f43616e6e6f7420757064617465206275726e65642061737365740000000000005f82015250565b5f6149da601a836131d4565b91506149e5826149a6565b602082019050919050565b5f6020820190508181035f830152614a07816149ce565b9050919050565b5f608082019050614a215f830187613e63565b614a2e6020830186613e63565b8181036040830152614a408185613202565b9050614a4f60608301846130c4565b95945050505050565b5f614a6382856145d2565b9150614a6f82846145d2565b91508190509392505050565b5f608082019050614a8e5f8301876134f4565b614a9b60208301866130c4565b614aa860408301856130c4565b614ab560608301846130c4565b95945050505050565b5f614ac882613053565b9150614ad383613053565b9250828201905080821115614aeb57614aea614305565b5b92915050565b5f6040820190508181035f830152614b098185613478565b90508181036020830152614b1d8184613478565b90509392505050565b5f81519050919050565b5f82825260208201905092915050565b5f614b4a82614b26565b614b548185614b30565b9350614b648185602086016131e4565b614b6d816131f2565b840191505092915050565b5f60a082019050614b8b5f8301886134f4565b614b9860208301876134f4565b614ba560408301866130c4565b614bb260608301856130c4565b8181036080830152614bc48184614b40565b90509695505050505050565b5f81519050614bde81613117565b92915050565b5f60208284031215614bf957614bf8612ff1565b5b5f614c0684828501614bd0565b91505092915050565b5f60a082019050614c225f8301886134f4565b614c2f60208301876134f4565b8181036040830152614c418186613478565b90508181036060830152614c558185613478565b90508181036080830152614c698184614b40565b9050969550505050505056fea2646970667358221220c45496ad2f58d94275c430aa7c426b88301ebfdd11ad0cfbffbd84a8e846a68264736f6c634300081e0033","linkReferences":{}},"methodIdentifiers":{"assetOwner(uint256)":"2a0ee644","assets(uint256)":"cf35bdd0","balanceOf(address,uint256)":"00fdd58e","balanceOfBatch(address[],uint256[])":"4e1273f4","burn(uint256,string)":"7641e6f3","getAssetDetails(uint256)":"a1f24b3d","getAssetsByOwner(address)":"276f0934","isApprovedForAll(address,address)":"e985e9c5","isAssetLocked(uint256)":"e7e55295","memberRegistry()":"a74d4772","mint(address,string,string,uint256,uint256,uint8,bytes32,string,bool)":"65987f8f","owner()":"8da5cb5b","renounceOwnership()":"715018a6","safeBatchTransferFrom(address,address,uint256[],uint256[],bytes)":"2eb2c2d6","safeTransferFrom(address,address,uint256,uint256,bytes)":"f242432a","setApprovalForAll(address,bool)":"a22cb465","setMemberRegistry(address)":"6fd7c34c","supportsInterface(bytes4)":"01ffc9a7","transferOwnership(address)":"f2fde38b","updateCustody(uint256,address,string)":"27329eb7","updateStatus(uint256,uint8,string)":"781f0b72","uri(uint256)":"0e89341c","verifyCertificate(uint256,bytes32)":"c3b451a2"},"id":0}