{"abi":[{"type":"constructor","inputs":[{"name":"_memberRegistry","type":"address","internalType":"address"},{"name":"_accountLedger","type":"address","internalType":"address"}],"stateMutability":"nonpayable"},{"type":"function","name":"accountLedger","inputs":[],"outputs":[{"name":"","type":"address","internalType":"contract IGoldAccountLedger"}],"stateMutability":"view"},{"type":"function","name":"addToBlacklist","inputs":[{"name":"account","type":"address","internalType":"address"}],"outputs":[],"stateMutability":"nonpayable"},{"type":"function","name":"assetOwner","inputs":[{"name":"","type":"uint256","internalType":"uint256"}],"outputs":[{"name":"","type":"address","internalType":"address"}],"stateMutability":"view"},{"type":"function","name":"assets","inputs":[{"name":"","type":"uint256","internalType":"uint256"}],"outputs":[{"name":"tokenId","type":"string","internalType":"string"},{"name":"serialNumber","type":"string","internalType":"string"},{"name":"refinerName","type":"string","internalType":"string"},{"name":"weightGrams","type":"uint256","internalType":"uint256"},{"name":"fineness","type":"uint256","internalType":"uint256"},{"name":"fineWeightGrams","type":"uint256","internalType":"uint256"},{"name":"productType","type":"string","internalType":"string"},{"name":"certificateHash","type":"bytes32","internalType":"bytes32"},{"name":"traceabilityGIC","type":"string","internalType":"string"},{"name":"status","type":"uint8","internalType":"enum GoldAssetToken.AssetStatus"},{"name":"mintedAt","type":"uint256","internalType":"uint256"},{"name":"certified","type":"bool","internalType":"bool"},{"name":"igan","type":"string","internalType":"string"}],"stateMutability":"view"},{"type":"function","name":"balanceOf","inputs":[{"name":"account","type":"address","internalType":"address"},{"name":"id","type":"uint256","internalType":"uint256"}],"outputs":[{"name":"","type":"uint256","internalType":"uint256"}],"stateMutability":"view"},{"type":"function","name":"balanceOfBatch","inputs":[{"name":"accounts","type":"address[]","internalType":"address[]"},{"name":"ids","type":"uint256[]","internalType":"uint256[]"}],"outputs":[{"name":"","type":"uint256[]","internalType":"uint256[]"}],"stateMutability":"view"},{"type":"function","name":"burn","inputs":[{"name":"tokenId","type":"uint256","internalType":"uint256"},{"name":"accountId","type":"string","internalType":"string"},{"name":"burnReason","type":"string","internalType":"string"}],"outputs":[],"stateMutability":"nonpayable"},{"type":"function","name":"forceTransfer","inputs":[{"name":"tokenId","type":"uint256","internalType":"uint256"},{"name":"from","type":"address","internalType":"address"},{"name":"to","type":"address","internalType":"address"},{"name":"reason","type":"string","internalType":"string"}],"outputs":[],"stateMutability":"nonpayable"},{"type":"function","name":"getAssetDetails","inputs":[{"name":"tokenId","type":"uint256","internalType":"uint256"}],"outputs":[{"name":"","type":"tuple","internalType":"struct GoldAssetToken.GoldAsset","components":[{"name":"tokenId","type":"string","internalType":"string"},{"name":"serialNumber","type":"string","internalType":"string"},{"name":"refinerName","type":"string","internalType":"string"},{"name":"weightGrams","type":"uint256","internalType":"uint256"},{"name":"fineness","type":"uint256","internalType":"uint256"},{"name":"fineWeightGrams","type":"uint256","internalType":"uint256"},{"name":"productType","type":"string","internalType":"string"},{"name":"certificateHash","type":"bytes32","internalType":"bytes32"},{"name":"traceabilityGIC","type":"string","internalType":"string"},{"name":"status","type":"uint8","internalType":"enum GoldAssetToken.AssetStatus"},{"name":"mintedAt","type":"uint256","internalType":"uint256"},{"name":"certified","type":"bool","internalType":"bool"},{"name":"igan","type":"string","internalType":"string"}]}],"stateMutability":"view"},{"type":"function","name":"getAssetsByOwner","inputs":[{"name":"owner","type":"address","internalType":"address"}],"outputs":[{"name":"","type":"uint256[]","internalType":"uint256[]"}],"stateMutability":"view"},{"type":"function","name":"getTokenByWarrant","inputs":[{"name":"warrantId","type":"string","internalType":"string"}],"outputs":[{"name":"","type":"uint256","internalType":"uint256"}],"stateMutability":"view"},{"type":"function","name":"isApprovedForAll","inputs":[{"name":"account","type":"address","internalType":"address"},{"name":"operator","type":"address","internalType":"address"}],"outputs":[{"name":"","type":"bool","internalType":"bool"}],"stateMutability":"view"},{"type":"function","name":"isAssetLocked","inputs":[{"name":"tokenId","type":"uint256","internalType":"uint256"}],"outputs":[{"name":"","type":"bool","internalType":"bool"}],"stateMutability":"view"},{"type":"function","name":"isWarrantUsed","inputs":[{"name":"warrantId","type":"string","internalType":"string"}],"outputs":[{"name":"","type":"bool","internalType":"bool"}],"stateMutability":"view"},{"type":"function","name":"memberRegistry","inputs":[],"outputs":[{"name":"","type":"address","internalType":"contract IMemberRegistry"}],"stateMutability":"view"},{"type":"function","name":"mint","inputs":[{"name":"to","type":"address","internalType":"address"},{"name":"accountId","type":"string","internalType":"string"},{"name":"serialNumber","type":"string","internalType":"string"},{"name":"refinerName","type":"string","internalType":"string"},{"name":"weightGrams","type":"uint256","internalType":"uint256"},{"name":"fineness","type":"uint256","internalType":"uint256"},{"name":"productType","type":"string","internalType":"string"},{"name":"certificateHash","type":"bytes32","internalType":"bytes32"},{"name":"traceabilityGIC","type":"string","internalType":"string"},{"name":"certified","type":"bool","internalType":"bool"},{"name":"warrantId","type":"string","internalType":"string"}],"outputs":[{"name":"","type":"uint256","internalType":"uint256"}],"stateMutability":"nonpayable"},{"type":"function","name":"owner","inputs":[],"outputs":[{"name":"","type":"address","internalType":"address"}],"stateMutability":"view"},{"type":"function","name":"removeFromBlacklist","inputs":[{"name":"account","type":"address","internalType":"address"}],"outputs":[],"stateMutability":"nonpayable"},{"type":"function","name":"renounceOwnership","inputs":[],"outputs":[],"stateMutability":"nonpayable"},{"type":"function","name":"safeBatchTransferFrom","inputs":[{"name":"from","type":"address","internalType":"address"},{"name":"to","type":"address","internalType":"address"},{"name":"ids","type":"uint256[]","internalType":"uint256[]"},{"name":"values","type":"uint256[]","internalType":"uint256[]"},{"name":"data","type":"bytes","internalType":"bytes"}],"outputs":[],"stateMutability":"nonpayable"},{"type":"function","name":"safeTransferFrom","inputs":[{"name":"from","type":"address","internalType":"address"},{"name":"to","type":"address","internalType":"address"},{"name":"id","type":"uint256","internalType":"uint256"},{"name":"value","type":"uint256","internalType":"uint256"},{"name":"data","type":"bytes","internalType":"bytes"}],"outputs":[],"stateMutability":"nonpayable"},{"type":"function","name":"setAccountLedger","inputs":[{"name":"_accountLedger","type":"address","internalType":"address"}],"outputs":[],"stateMutability":"nonpayable"},{"type":"function","name":"setApprovalForAll","inputs":[{"name":"operator","type":"address","internalType":"address"},{"name":"approved","type":"bool","internalType":"bool"}],"outputs":[],"stateMutability":"nonpayable"},{"type":"function","name":"setMemberRegistry","inputs":[{"name":"_memberRegistry","type":"address","internalType":"address"}],"outputs":[],"stateMutability":"nonpayable"},{"type":"function","name":"supportsInterface","inputs":[{"name":"interfaceId","type":"bytes4","internalType":"bytes4"}],"outputs":[{"name":"","type":"bool","internalType":"bool"}],"stateMutability":"view"},{"type":"function","name":"transferAsset","inputs":[{"name":"tokenId","type":"uint256","internalType":"uint256"},{"name":"to","type":"address","internalType":"address"}],"outputs":[{"name":"","type":"bool","internalType":"bool"}],"stateMutability":"nonpayable"},{"type":"function","name":"transferOwnership","inputs":[{"name":"newOwner","type":"address","internalType":"address"}],"outputs":[],"stateMutability":"nonpayable"},{"type":"function","name":"updateCustody","inputs":[{"name":"tokenId","type":"uint256","internalType":"uint256"},{"name":"toParty","type":"address","internalType":"address"},{"name":"custodyType","type":"string","internalType":"string"}],"outputs":[],"stateMutability":"nonpayable"},{"type":"function","name":"updateStatus","inputs":[{"name":"tokenId","type":"uint256","internalType":"uint256"},{"name":"newStatus","type":"uint8","internalType":"enum GoldAssetToken.AssetStatus"},{"name":"reason","type":"string","internalType":"string"}],"outputs":[],"stateMutability":"nonpayable"},{"type":"function","name":"uri","inputs":[{"name":"tokenId","type":"uint256","internalType":"uint256"}],"outputs":[{"name":"","type":"string","internalType":"string"}],"stateMutability":"view"},{"type":"function","name":"verifyCertificate","inputs":[{"name":"tokenId","type":"uint256","internalType":"uint256"},{"name":"certificateHash","type":"bytes32","internalType":"bytes32"}],"outputs":[{"name":"","type":"bool","internalType":"bool"}],"stateMutability":"view"},{"type":"function","name":"warrantToToken","inputs":[{"name":"","type":"string","internalType":"string"}],"outputs":[{"name":"","type":"uint256","internalType":"uint256"}],"stateMutability":"view"},{"type":"event","name":"ApprovalForAll","inputs":[{"name":"account","type":"address","indexed":true,"internalType":"address"},{"name":"operator","type":"address","indexed":true,"internalType":"address"},{"name":"approved","type":"bool","indexed":false,"internalType":"bool"}],"anonymous":false},{"type":"event","name":"AssetBurned","inputs":[{"name":"tokenId","type":"uint256","indexed":true,"internalType":"uint256"},{"name":"burnReason","type":"string","indexed":false,"internalType":"string"},{"name":"finalOwner","type":"address","indexed":true,"internalType":"address"},{"name":"authorizedBy","type":"address","indexed":true,"internalType":"address"},{"name":"timestamp","type":"uint256","indexed":false,"internalType":"uint256"}],"anonymous":false},{"type":"event","name":"AssetMinted","inputs":[{"name":"tokenId","type":"uint256","indexed":true,"internalType":"uint256"},{"name":"serialNumber","type":"string","indexed":false,"internalType":"string"},{"name":"refinerName","type":"string","indexed":false,"internalType":"string"},{"name":"weightGrams","type":"uint256","indexed":false,"internalType":"uint256"},{"name":"fineness","type":"uint256","indexed":false,"internalType":"uint256"},{"name":"owner","type":"address","indexed":true,"internalType":"address"},{"name":"timestamp","type":"uint256","indexed":false,"internalType":"uint256"}],"anonymous":false},{"type":"event","name":"AssetStatusChanged","inputs":[{"name":"tokenId","type":"uint256","indexed":true,"internalType":"uint256"},{"name":"previousStatus","type":"uint8","indexed":false,"internalType":"enum GoldAssetToken.AssetStatus"},{"name":"newStatus","type":"uint8","indexed":false,"internalType":"enum GoldAssetToken.AssetStatus"},{"name":"reason","type":"string","indexed":false,"internalType":"string"},{"name":"changedBy","type":"address","indexed":true,"internalType":"address"},{"name":"timestamp","type":"uint256","indexed":false,"internalType":"uint256"}],"anonymous":false},{"type":"event","name":"AssetTransferred","inputs":[{"name":"tokenId","type":"uint256","indexed":true,"internalType":"uint256"},{"name":"fromIGAN","type":"address","indexed":true,"internalType":"address"},{"name":"toIGAN","type":"address","indexed":true,"internalType":"address"},{"name":"timestamp","type":"uint256","indexed":false,"internalType":"uint256"}],"anonymous":false},{"type":"event","name":"CustodyChanged","inputs":[{"name":"tokenId","type":"uint256","indexed":true,"internalType":"uint256"},{"name":"fromParty","type":"address","indexed":true,"internalType":"address"},{"name":"toParty","type":"address","indexed":true,"internalType":"address"},{"name":"custodyType","type":"string","indexed":false,"internalType":"string"},{"name":"timestamp","type":"uint256","indexed":false,"internalType":"uint256"}],"anonymous":false},{"type":"event","name":"OwnershipTransferred","inputs":[{"name":"previousOwner","type":"address","indexed":true,"internalType":"address"},{"name":"newOwner","type":"address","indexed":true,"internalType":"address"}],"anonymous":false},{"type":"event","name":"OwnershipUpdated","inputs":[{"name":"tokenId","type":"uint256","indexed":true,"internalType":"uint256"},{"name":"from","type":"address","indexed":true,"internalType":"address"},{"name":"to","type":"address","indexed":true,"internalType":"address"},{"name":"reason","type":"string","indexed":false,"internalType":"string"},{"name":"timestamp","type":"uint256","indexed":false,"internalType":"uint256"}],"anonymous":false},{"type":"event","name":"TransferBatch","inputs":[{"name":"operator","type":"address","indexed":true,"internalType":"address"},{"name":"from","type":"address","indexed":true,"internalType":"address"},{"name":"to","type":"address","indexed":true,"internalType":"address"},{"name":"ids","type":"uint256[]","indexed":false,"internalType":"uint256[]"},{"name":"values","type":"uint256[]","indexed":false,"internalType":"uint256[]"}],"anonymous":false},{"type":"event","name":"TransferSingle","inputs":[{"name":"operator","type":"address","indexed":true,"internalType":"address"},{"name":"from","type":"address","indexed":true,"internalType":"address"},{"name":"to","type":"address","indexed":true,"internalType":"address"},{"name":"id","type":"uint256","indexed":false,"internalType":"uint256"},{"name":"value","type":"uint256","indexed":false,"internalType":"uint256"}],"anonymous":false},{"type":"event","name":"URI","inputs":[{"name":"value","type":"string","indexed":false,"internalType":"string"},{"name":"id","type":"uint256","indexed":true,"internalType":"uint256"}],"anonymous":false},{"type":"event","name":"WarrantLinked","inputs":[{"name":"warrantId","type":"string","indexed":true,"internalType":"string"},{"name":"tokenId","type":"uint256","indexed":true,"internalType":"uint256"},{"name":"owner","type":"address","indexed":true,"internalType":"address"},{"name":"timestamp","type":"uint256","indexed":false,"internalType":"uint256"}],"anonymous":false},{"type":"error","name":"ERC1155InsufficientBalance","inputs":[{"name":"sender","type":"address","internalType":"address"},{"name":"balance","type":"uint256","internalType":"uint256"},{"name":"needed","type":"uint256","internalType":"uint256"},{"name":"tokenId","type":"uint256","internalType":"uint256"}]},{"type":"error","name":"ERC1155InvalidApprover","inputs":[{"name":"approver","type":"address","internalType":"address"}]},{"type":"error","name":"ERC1155InvalidArrayLength","inputs":[{"name":"idsLength","type":"uint256","internalType":"uint256"},{"name":"valuesLength","type":"uint256","internalType":"uint256"}]},{"type":"error","name":"ERC1155InvalidOperator","inputs":[{"name":"operator","type":"address","internalType":"address"}]},{"type":"error","name":"ERC1155InvalidReceiver","inputs":[{"name":"receiver","type":"address","internalType":"address"}]},{"type":"error","name":"ERC1155InvalidSender","inputs":[{"name":"sender","type":"address","internalType":"address"}]},{"type":"error","name":"ERC1155MissingApprovalForAll","inputs":[{"name":"operator","type":"address","internalType":"address"},{"name":"owner","type":"address","internalType":"address"}]},{"type":"error","name":"OwnableInvalidOwner","inputs":[{"name":"owner","type":"address","internalType":"address"}]},{"type":"error","name":"OwnableUnauthorizedAccount","inputs":[{"name":"account","type":"address","internalType":"address"}]}],"bytecode":{"object":"0x608034620001b5576001600160401b039062003cc290601f38839003908101601f191682019084821183831017620001a15780839160409586948552833981010312620001b5576200005f60206200005783620001b9565b9201620001b9565b928251602081019181831090831117620001a1575f91845252600254600190600181811c9116801562000196575b60208210146200018257601f811162000138575b50505f60025533156200012157600380546001600160a01b0319808216339081179093559351946001600160a01b03939092849283167f8be0079c531659141344cd1fd0a4f28419497f9722a3daafe3b4186f6b6457e05f80a316836004541617600455169060055416176005556001600655613af39081620001cf8239f35b8151631e4fbdf760e01b81525f6004820152602490fd5b60025f52601f0160051c7f405787fa12a823e0f2b7631cc41b3ba8828b3321ca811111fa75cd3aa3bb5ace908101905b818110620001775750620000a1565b5f8155820162000168565b634e487b7160e01b5f52602260045260245ffd5b90607f16906200008d565b634e487b7160e01b5f52604160045260245ffd5b5f80fd5b51906001600160a01b0382168203620001b55756fe60806040526004361015610011575f80fd5b5f3560e01c8062fdd58e1461020e57806301ffc9a7146102095780630e89341c1461020457806326471651146101ff57806327329eb7146101fa578063276f0934146101f55780632a0ee644146101f05780632eb2c2d6146101eb57806344337ea1146101dc5780634873124d146101e65780634e1273f4146101e1578063537df3b6146101dc57806359317b7a146101d75780635defa55e146101d2578063698d49ab146101cd5780636fd7c34c146101c8578063715018a6146101c3578063781f0b72146101be5780638da5cb5b146101b9578063a1f24b3d146101b4578063a22cb465146101af578063a74d4772146101aa578063ba211db0146101a5578063c19b8c66146101a0578063c3b451a21461019b578063cf35bdd014610196578063e7e5529514610191578063e985e9c51461018c578063f242432a14610187578063f2fde38b14610182578063f5dca3ca1461017d5763fa62ee8d14610178575f80fd5b6118e8565b6118d0565b6117e1565b61172a565b6116da565b611674565b6115cb565b6113fb565b61134c565b6110ef565b6110c7565b611010565b610f58565b610e0e565b610dc5565b610d6a565b610ce6565b610c00565b610bc0565b610b73565b61097e565b610ab9565b610a56565b61085b565b6107b2565b610665565b6105da565b6105b4565b61038f565b6102c7565b61026d565b600435906001600160a01b038216820361022957565b5f80fd5b602435906001600160a01b038216820361022957565b604435906001600160a01b038216820361022957565b35906001600160a01b038216820361022957565b346102295760403660031901126102295760206102ac61028b610213565b6024355f525f835260405f209060018060a01b03165f5260205260405f2090565b54604051908152f35b6001600160e01b031981160361022957565b346102295760203660031901126102295760206004356102e6816102b5565b63ffffffff60e01b16636cdb3d1360e11b8114908115610324575b8115610313575b506040519015158152f35b6301ffc9a760e01b1490505f610308565b6303a24d0760e21b81149150610301565b5f5b8381106103465750505f910152565b8181015183820152602001610337565b9060209161036f81518092818552858086019101610335565b601f01601f1916010190565b90602061038c928181520190610356565b90565b346102295760208060031936011261022957600435805f52600882526103bd600a60405f2001541515611962565b5f526008815260405f206040519066697066733a2f2f60c81b838301526027925f9382546103ea81611446565b9360019180831690811561046a5750600114610428575b61042486610418818a03601f1981018352826104f9565b6040519182918261037b565b0390f35b9091929395505f52825f205f905b86821061045757505050505061041881602761042494820101935f80610401565b8054868301850152908401908201610436565b91505061042496508593506027925061041894915060ff19168284015280151502820101935f80610401565b634e487b7160e01b5f52604160045260245ffd5b6101a081019081106001600160401b038211176104c657604052565b610496565b6001600160401b0381116104c657604052565b602081019081106001600160401b038211176104c657604052565b90601f801991011681019081106001600160401b038211176104c657604052565b60405190610527826104aa565b565b6001600160401b0381116104c657601f01601f191660200190565b81601f820112156102295780359061055b82610529565b9261056960405194856104f9565b8284526020838301011161022957815f926020809301838601378301015290565b602060031982011261022957600435906001600160401b0382116102295761038c91600401610544565b3461022957602060ff6105ce6105c93661058a565b611884565b54166040519015158152f35b34610229576060366003190112610229576105f361022d565b604435906001600160401b0382116102295761061661061f923690600401610544565b90600435611a26565b005b9081518082526020808093019301915f5b828110610640575050505090565b835185529381019392810192600101610632565b90602061038c928181520190610621565b346102295760203660031901126102295761067e610213565b6006546001600160a01b03918216915f60015b83811061074857506106a290611b57565b925f9160015b8481106106bd57604051806104248882610654565b82826106e16106d4845f52600a60205260405f2090565b546001600160a01b031690565b161480610716575b6106f6575b6001016106a8565b9261070e81856107086001948a611b89565b52611b44565b9390506106ee565b5060046107386009610730845f52600860205260405f2090565b015460ff1690565b61074181610e36565b14156106e9565b848361075f6106d4845f52600a60205260405f2090565b161480610788575b610774575b600101610691565b90610780600191611b44565b91905061076c565b5060046107a26009610730845f52600860205260405f2090565b6107ab81610e36565b1415610767565b34610229576020366003190112610229576004355f52600a602052602060018060a01b0360405f205416604051908152f35b6001600160401b0381116104c65760051b60200190565b9080601f83011215610229576020908235610815816107e4565b9361082360405195866104f9565b81855260208086019260051b82010192831161022957602001905b82821061084c575050505090565b8135815290830190830161083e565b346102295760a036600319011261022957610874610213565b61087c61022d565b90604435916001600160401b0390818411610229576108a0600494369086016107fb565b90606435838111610229576108b890369087016107fb565b92608435908111610229576108d09036908701610544565b936001600160a01b0380821690338214158061095b575b61092e5783161561091757156109015761061f9550612e94565b604051626a0d4560e21b81525f81880152602490fd5b604051632bfa23e760e11b81525f81890152602490fd5b6040805163711bec9160e11b815233818b019081526001600160a01b038616602082015290918291010390fd5b505f82815260016020908152604080832033845290915290205460ff16156108e7565b346102295760208060031936011261022957610998610213565b60048054604051638cbdcead60e01b8152339281019290925260c060248301526001600160a01b03908116928483604481875afa908115610a34576109e860249287955f91610a39575b50611bb1565b604051948593849263fe575a8760e01b84521660048301525afa8015610a3457610a0e57005b8161061f92903d10610a2d575b610a2581836104f9565b8101906119a5565b503d610a1b565b6119ba565b610a509150863d8811610a2d57610a2581836104f9565b5f6109e2565b3461022957610a643661058a565b60ff610a6f82611884565b541615610a81576102ac6020916118aa565b60405162461bcd60e51b815260206004820152601060248201526f15d85c9c985b9d081b9bdd081d5cd95960821b6044820152606490fd5b34610229576040366003190112610229576004356001600160401b038082116102295736602383011215610229578160040135610af5816107e4565b92610b0360405194856104f9565b8184526020916024602086019160051b8301019136831161022957602401905b828210610b5c57856024358681116102295761042491610b4a610b509236906004016107fb565b90611c07565b60405191829182610654565b838091610b6884610259565b815201910190610b23565b3461022957602036600319011261022957610b8c610213565b610b946129cc565b600580546001600160a01b0319166001600160a01b0392909216919091179055005b5f91031261022957565b34610229575f366003190112610229576005546040516001600160a01b039091168152602090f35b8015150361022957565b610124359061052782610be8565b346102295761016036600319011261022957610c1a610213565b6024356001600160401b039182821161022957610c3c60049236908401610544565b9060443584811161022957610c549036908501610544565b9160643585811161022957610c6c9036908601610544565b9260c43586811161022957610c849036908701610544565b6101043587811161022957610c9c9036908801610544565b92610ca5610bf2565b946101443598891161022957610cc4610cd6986104249a369101610544565b9660e4359460a4359360843593611d01565b6040519081529081906020820190565b3461022957602036600319011261022957610cff610213565b610d076129cc565b6001600160a01b03168015610d32576bffffffffffffffffffffffff60a01b60045416176004555f80f35b60405162461bcd60e51b815260206004820152601060248201526f496e76616c696420726567697374727960801b6044820152606490fd5b34610229575f36600319011261022957610d826129cc565b600380546001600160a01b031981169091555f906001600160a01b03167f8be0079c531659141344cd1fd0a4f28419497f9722a3daafe3b4186f6b6457e08280a3005b3461022957606036600319011261022957602435600781101561022957604435906001600160401b03821161022957610e0561061f923690600401610544565b90600435612385565b34610229575f366003190112610229576003546040516001600160a01b039091168152602090f35b60071115610e4057565b634e487b7160e01b5f52602160045260245ffd5b906007821015610e405752565b9061038c9160208152815190610e856101a0928360208401526101c0830190610356565b91610eee610ebc610ea8602087015195601f199687878303016040880152610356565b604087015186868303016060870152610356565b60608601516080850152608086015160a085015260a086015160c085015260c0860151858583030160e0860152610356565b93610f1560e082015161010090818601528201519561012096868683030188870152610356565b94810151610f296101409182860190610e54565b810151610160908185015281015190610f49610180928386019015159052565b01519282850301910152610356565b3461022957602036600319011261022957610424611004610fff600435604051610f81816104aa565b6101806060918281528260208201528260408201525f838201525f60808201525f60a08201528260c08201525f60e0820152826101008201525f6101208201525f6101408201525f6101608201520152610ff1600a610fe8835f52600860205260405f2090565b01541515611962565b5f52600860205260405f2090565b612500565b60405191829182610e61565b3461022957604036600319011261022957611029610213565b60243561103581610be8565b6001600160a01b0382169182156110b0578161106f61108092335f52600160205260405f209060018060a01b03165f5260205260405f2090565b9060ff801983541691151516179055565b60405190151581527f17307eab39ab6107e8899845ad3d59bd9653f200f220920489ca2b5937696c3160203392a3005b60405162ced3e160e81b81525f6004820152602490fd5b34610229575f366003190112610229576004546040516001600160a01b039091168152602090f35b3461022957606036600319011261022957600480356001600160401b03602435818111610229576111239036908501610544565b506044359081116102295761113b9036908401610544565b825460408051638cbdcead60e01b81523381870190815260036020828101919091526001600160a01b03979596959492939092849290891691839182910103915afa8015610a3457611194915f9161132d575b50611c9d565b6111ab600a610fe8845f52600860205260405f2090565b6111d6816111c66009610730865f52600860205260405f2090565b6111cf81610e36565b14156125d0565b6111eb6106d4835f52600a60205260405f2090565b936112116009611203855f52600860205260405f2090565b01805460ff19166004179055565b61122e600c611228855f52600860205260405f2090565b0161147e565b60055461124b906001600160a01b03165b6001600160a01b031690565b9282841661129e575b50507fd0360773ac0050786178ca762143b27b7e9b2d0b663ee86cf9e7f114b35008719150611299906112878487612cde565b60405191829133971695429083611ac4565b0390a4005b6112aa82511515612613565b833b156102295784935f928388936112d66040519889968795869463303a694160e11b86528501612658565b03925af1908115610a34577fd0360773ac0050786178ca762143b27b7e9b2d0b663ee86cf9e7f114b35008719261129992611314575b819250611254565b80611321611327926104cb565b80610bb6565b5f61130c565b611346915060203d602011610a2d57610a2581836104f9565b5f61118e565b346102295760803660031901126102295761136561022d565b61136d610243565b90606435916001600160401b038311610229576113906024933690600401610544565b91602060018060a01b03600454166040519586809263fe575a8760e01b82523360048301525afa938415610a345761061f946113d4915f916113dc575b5015612688565b6004356126c9565b6113f5915060203d602011610a2d57610a2581836104f9565b5f6113cd565b3461022957604036600319011261022957600435805f526008602052611429600a60405f2001541515611962565b5f5260086020526020602435600760405f20015414604051908152f35b90600182811c92168015611474575b602083101461146057565b634e487b7160e01b5f52602260045260245ffd5b91607f1691611455565b9060405191825f825461149081611446565b908184526020946001916001811690815f146114fc57506001146114be575b505050610527925003836104f9565b5f90815285812095935091905b8183106114e457505061052793508201015f80806114af565b855488840185015294850194879450918301916114cb565b9250505061052794925060ff191682840152151560051b8201015f80806114af565b999b9793966115ad966115a19661038c9f9d9960606115738f96986115bd9f9961158d99611557611565926101a0808d528c0190610356565b908a820360208c0152610356565b9088820360408a0152610356565b95015260808d015260a08c01528a820360c08c0152610356565b9160e0890152878203610100890152610356565b96610120860190610e54565b6101408401521515610160830152565b610180818403910152610356565b34610229576020366003190112610229576004355f52600860205260405f206115f38161147e565b6104246116026001840161147e565b9261160f6002820161147e565b9060038101546004820154600583015461162b6006850161147e565b60078501549061163d6008870161147e565b9260ff60098801541694600a88015496611667600c611660600b8c015460ff1690565b9a0161147e565b996040519d8e9d8e61151e565b34610229576020366003190112610229576004355f52600860205260ff600960405f200154166007811015610e405780600361042492149081156116c6575b5060405190151581529081906020820190565b600291506116d381610e36565b145f6116b3565b3461022957604036600319011261022957602060ff6105ce6116fa610213565b61170261022d565b6001600160a01b039182165f9081526001865260408082209290931681526020919091522090565b346102295760a036600319011261022957611743610213565b61174b61022d565b6084356001600160401b0381116102295761176a903690600401610544565b906001600160a01b0383163381141590816117bd575b506117965761061f926064359160443591612e52565b60405163711bec9160e11b81523360048201526001600160a01b0384166024820152604490fd5b5f90815260016020908152604080832033845290915281205460ff16159150611780565b34610229576020366003190112610229576117fa610213565b6118026129cc565b6001600160a01b0390811690811561185557600354826bffffffffffffffffffffffff60a01b821617600355167f8be0079c531659141344cd1fd0a4f28419497f9722a3daafe3b4186f6b6457e05f80a3005b604051631e4fbdf760e01b81525f6004820152602490fd5b9061188060209282815194859201610335565b0190565b602061189d918160405193828580945193849201610335565b8101600b81520301902090565b60206118c3918160405193828580945193849201610335565b8101600c81520301902090565b346102295760206102ac6118e33661058a565b6118aa565b3461022957604036600319011261022957602461190361022d565b602060018060a01b03600454166040519384809263fe575a8760e01b82523360048301525afa908115610a345761194861195092610424945f916113dc575015612688565b6004356128ff565b60405190151581529081906020820190565b1561196957565b60405162461bcd60e51b8152602060048201526014602482015273105cdcd95d08191bd95cc81b9bdd08195e1a5cdd60621b6044820152606490fd5b90816020910312610229575161038c81610be8565b6040513d5f823e3d90fd5b156119cc57565b60405162461bcd60e51b815260206004820152602c60248201527f4e6f7420617574686f72697a65643a206173736574206f70657261746f72207260448201526b1bdb19481c995c5d5a5c995960a21b6064820152608490fd5b919060018060a01b0380611a42855f52600a60205260405f2090565b54163314611aba5760048054604051638cbdcead60e01b81523392810192909252601f602483015290949160209186916044918391165afa938415610a345761052794611a96915f91611a9b575b506119c5565b611ae0565b611ab4915060203d602011610a2d57610a2581836104f9565b5f611a90565b5061052792611ae0565b929190611adb602091604086526040860190610356565b930152565b805f52600a6020527f7d8bbf09e5d2c4c9326e18403c0d0edc90bf13eb1854d3cab844ac9476b12ffe60018060a01b038060405f20541693611b2b6040519283921696429083611ac4565b0390a4565b634e487b7160e01b5f52601160045260245ffd5b5f198114611b525760010190565b611b30565b90611b61826107e4565b611b6e60405191826104f9565b8281528092611b7f601f19916107e4565b0190602036910137565b8051821015611b9d5760209160051b010190565b634e487b7160e01b5f52603260045260245ffd5b15611bb857565b60405162461bcd60e51b815260206004820152602160248201527f4e6f7420617574686f72697a65643a20474d4f20726f6c6520726571756972656044820152601960fa1b6064820152608490fd5b91909180518351808203611c7b575050611c218151611b57565b905f5b8151811015611c745780611c6260019260051b5f602080808489010151938b01015182525260405f209060018060a01b03165f5260205260405f2090565b54611c6d8286611b89565b5201611c24565b5090925050565b604051635b05999160e01b815260048101919091526024810191909152604490fd5b15611ca457565b60405162461bcd60e51b815260206004820152602f60248201527f4e6f7420617574686f72697a65643a20524546494e4552206f72204d494e544560448201526e14881c9bdb19481c995c5d5a5c9959608a1b6064820152608490fd5b60048054604051638cbdcead60e01b8152339281019290925260036024830152989b9499979894979693946001600160a01b039291906020908290604490829087165afa8015610a3457611d5b915f9161132d5750611c9d565b898282169b8c98891515611d6e90611ff1565b85511515611d7b9061202d565b611d848b611884565b5460ff1615611d929061206d565b611d9b8b611884565b805460ff191660011790556006549e8f9c611db58e611b44565b6006558d611dc38a8d6120b0565b612710900490611dd290612a20565b6040516a474946542d41535345542d60a81b602082015296908790602b8201611dfa9161186d565b03601f1981018852611e0c90886104f9565b611e1461051a565b968752602087018c90526040870152606086018c9052608086018a905260a086015260c085015260e08401526101008301525f61012083015242610140830152151561016082015283610180820152611e758a5f52600860205260405f2090565b90611e7f91612205565b80611e928a5f52600a60205260405f2090565b80546001600160a01b0319166001600160a01b0390921691909117905588611eb9896118aa565b5588611ec36122db565b90611ecd92612b62565b6005546001600160a01b03166001600160a01b0316908116611f5e575b5050918596611f277f932fb8f9d495becdde3eacf21ebe2745661a8fa6948a458f8eb2bd242bcda69d93611f2f989560405194859442938661232b565b0390a3612365565b6040514281527f668955a820819a04e294e0bebb8424dbb3fc596648f7d09ad40153fe8d0ab02090602090a490565b91939650919350803b1561022957885f91611f90938360405180968195829463303a694160e11b8452600484016122ed565b03925af1948515610a34578896611f27899589957f932fb8f9d495becdde3eacf21ebe2745661a8fa6948a458f8eb2bd242bcda69d95611f2f9a611fde575b50939550935081989750611eea565b80611321611feb926104cb565b5f611fcf565b15611ff857565b60405162461bcd60e51b815260206004820152600d60248201526c24b73b30b634b21037bbb732b960991b6044820152606490fd5b1561203457565b60405162461bcd60e51b8152602060048201526011602482015270125b9d985b1a59081858d8dbdd5b9d1259607a1b6044820152606490fd5b1561207457565b60405162461bcd60e51b815260206004820152601460248201527315d85c9c985b9d08185b1c9958591e481d5cd95960621b6044820152606490fd5b81810292918115918404141715611b5257565b6007821015610e405752565b601f82116120dc57505050565b5f5260205f20906020601f840160051c83019310612114575b601f0160051c01905b818110612109575050565b5f81556001016120fe565b90915081906120f5565b91909182516001600160401b0381116104c6576121458161213f8454611446565b846120cf565b602080601f8311600114612186575081906121779394955f9261217b575b50508160011b915f199060031b1c19161790565b9055565b015190505f80612163565b90601f1983169561219a855f5260205f2090565b925f905b8882106121d5575050836001959697106121bd575b505050811b019055565b01515f1960f88460031b161c191690555f80806121b3565b8060018596829496860151815501950193019061219e565b906007811015610e405760ff80198354169116179055565b600c6101806105279361221981518561211e565b61222a60208201516001860161211e565b61223b60408201516002860161211e565b606081015160038501556080810151600485015560a0810151600585015561226a60c08201516006860161211e565b60e081015160078501556122866101008201516008860161211e565b6122a161012082015161229881610e36565b600986016121ed565b610140810151600a8501556122d26122bd610160830151151590565b600b86019060ff801983541691151516179055565b0151910161211e565b604051906122e8826104de565b5f8252565b9291906040612306606092608087526080870190610356565b600160208701528581038287015260048152631352539560e21b602082015201930152565b91612356906123486080959897969360a0865260a0860190610356565b908482036020860152610356565b95604083015260608201520152565b61237d90602060405192828480945193849201610335565b810103902090565b919060018060a01b03806123a1855f52600a60205260405f2090565b541633146123f95760048054604051638cbdcead60e01b81523392810192909252601f602483015290949160209186916044918391165afa938415610a3457610527946123f4915f91611a9b57506119c5565b6123ff565b50610527925b9091815f526008602052600460ff600960405f2001541661241f81610e36565b146124bb576124ac7f4a7f36090e241cfd69682f6a164350c2cb00366213fcca9c8a43c15e8168f94c9161249b60ff6009612462875f52600860205260405f2090565b0154169561248481600961247e895f52600860205260405f2090565b016121ed565b6124916040518098610e54565b6020870190610e54565b608060408601526080850190610356565b924260608201528033940390a3565b60405162461bcd60e51b815260206004820152601a60248201527f43616e6e6f7420757064617465206275726e65642061737365740000000000006044820152606490fd5b906125c8600c61250e61051a565b936125188161147e565b85526125266001820161147e565b60208601526125376002820161147e565b60408601526003810154606086015260048101546080860152600581015460a08601526125666006820161147e565b60c0860152600781015460e08601526125816008820161147e565b6101008601526125a2612598600983015460ff1690565b61012087016120c3565b600a8101546101408601526112286125be600b83015460ff1690565b1515610160870152565b610180830152565b156125d757565b60405162461bcd60e51b8152602060048201526014602482015273105cdcd95d08185b1c9958591e48189d5c9b995960621b6044820152606490fd5b1561261a57565b60405162461bcd60e51b8152602060048201526016602482015275135a5cdcda5b99c81251d05388199bdc88185cdcd95d60521b6044820152606490fd5b939291611adb90612673606093608088526080880190610356565b5f196020880152868103604088015290610356565b1561268f57565b60405162461bcd60e51b815260206004820152601260248201527110d85b1b195c88189b1858dadb1a5cdd195960721b6044820152606490fd5b9092919260018060a01b039060446020836004541660405192838092638cbdcead60e01b825233600483015260c060248301525afa8015610a3457612714915f916128285750611bb1565b61272b600a610fe8855f52600860205260405f2090565b8161273e845f52600a60205260405f2090565b5416938282168095036127ec576127cf611b2b92857f8ec725dd8a48772a420e3a3a551add447b24fe29b5093e41922437ab8f905854958916986127838a1515612841565b6127af600461279f6009610730865f52600860205260405f2090565b6127a881610e36565b1415612882565b6127c1600160ff196007541617600755565b6127c96122db565b92612e02565b6127de60ff1960075416600755565b604051918291429083611ac4565b60405162461bcd60e51b8152602060048201526014602482015273496e76616c69642066726f6d206164647265737360601b6044820152606490fd5b610a50915060203d602011610a2d57610a2581836104f9565b1561284857565b60405162461bcd60e51b8152602060048201526012602482015271496e76616c696420746f206164647265737360701b6044820152606490fd5b1561288957565b60405162461bcd60e51b815260206004820152600c60248201526b105cdcd95d08189d5c9b995960a21b6044820152606490fd5b156128c457565b60405162461bcd60e51b81526020600482015260136024820152721059191c995cdcc8189b1858dadb1a5cdd1959606a1b6044820152606490fd5b9060018060a01b036024602082600454166040519283809263fe575a8760e01b825286881660048301525afa8015610a3457612943915f916129ad575b50156128bd565b825f52600a60205260405f2054163303612976576129719160405191612968836104de565b5f835233612e02565b600190565b60405162461bcd60e51b815260206004820152600f60248201526e2737ba103a37b5b2b71037bbb732b960891b6044820152606490fd5b6129c6915060203d602011610a2d57610a2581836104f9565b5f61293c565b6003546001600160a01b031633036129e057565b60405163118cdaa760e01b8152336004820152602490fd5b90612a0282610529565b612a0f60405191826104f9565b8281528092611b7f601f1991610529565b805f917a184f03e93ff9f4daa797ed6e38ed64bf6a1f01000000000000000080821015612b54575b506d04ee2d6d415b85acef810000000080831015612b45575b50662386f26fc1000080831015612b36575b506305f5e10080831015612b27575b5061271080831015612b18575b506064821015612b08575b600a80921015612afe575b600190816021612ab7600187016129f8565b95860101905b612ac9575b5050505090565b5f19019083906f181899199a1a9b1b9c1cb0b131b232b360811b8282061a835304918215612af957919082612abd565b612ac2565b9160010191612aa5565b9190606460029104910191612a9a565b6004919392049101915f612a8f565b6008919392049101915f612a82565b6010919392049101915f612a73565b6020919392049101915f612a61565b60409350810491505f612a48565b92906001600160a01b03841615612cc657612b9c604051916001835260208301526040820190600182526001606084015260808301604052565b939091612baa85848461369a565b5f5b8351811015612c9757600480549091908490612bd0906001600160a01b031661123f565b60405163fe575a8760e01b81526001600160a01b039092169382019384529092602091829185919082908190850103915afa8015610a3457600193612c1e925f92612c7a575b5050156128bd565b81612c298289611b89565b5114612c36575b01612bac565b612c7584612c56612c478489611b89565b515f52600a60205260405f2090565b80546001600160a01b0319166001600160a01b03909216919091179055565b612c30565b612c909250803d10610a2d57610a2581836104f9565b5f80612c16565b509390929160018151145f14612cbc57906020806105279593015191015191336135fc565b6105279333613407565b604051632bfa23e760e11b81525f6004820152602490fd5b91906001600160a01b03831615612deb57612d18604051916001835260208301526040820190600182526001606084015260808301604052565b6040935f604051612d28816104de565b52612d348284836137c2565b5f5b8351811015612de357600480549091908390612d5a906001600160a01b031661123f565b885163fe575a8760e01b81526001600160a01b039092169382019384529092602091829185919082908190850103915afa8015610a3457600193612da6925f92612c7a575050156128bd565b81612db18286611b89565b5114612dbe575b01612d36565b612dde612dce612c478388611b89565b80546001600160a01b0319169055565b612db8565b505050509050565b604051626a0d4560e21b81525f6004820152602490fd5b9192916001600160a01b0382811615612cc657811615612deb57612e4a6105279490604051916001835260208301526040820190600182526001606084015260808301604052565b929091612e94565b939291906001600160a01b0380821615612cc657851615612deb5761052794604051926001845260208401526040830193600185526060840152608083016040525b6001600160a01b038116151595869390846132f9575b9484955f959495946131b5575b612ec382848887613920565b5f5b835181101561315c57896130f5575b6001600160a01b038716613086575b806001612ef1819386611b89565b5114612efe575b01612ec5565b88612f098287611b89565b5190613037575b8860a084901b84900388161580613027575b15612f4157612c56612f3c925f52600a60205260405f2090565b612ef8565b50898c80613018575b15612f655750612dce612f3c915f52600a60205260405f2090565b612f70575b50612ef8565b612f856106d4825f52600a60205260405f2090565b90612f9c8a612c56835f52600a60205260405f2090565b8815612fa9575b50612f6a565b604051907f8ec725dd8a48772a420e3a3a551add447b24fe29b5093e41922437ab8f905854858060a01b038c1693868060a01b0316928061300e428291906040835260086040840152672a2920a729a322a960c11b6060840152602060808401930152565b0390a45f80612fa3565b50838060a01b038a1615612f4a565b50838060a01b0381161515612f22565b61306c6130516009610730845f52600860205260405f2090565b61305a81610e36565b60038114159081613071575b5061330c565b612f10565b6002915061307e81610e36565b14155f613066565b6130cf9060208860046130a261123f825460018060a01b031690565b60405163fe575a8760e01b81526001600160a01b0390931691830191825291948592918391829160200190565b03915afa918215610a34576001926130ee915f916129ad5750156128bd565b9050612ee3565b6004805486919061310e906001600160a01b031661123f565b60405163fe575a8760e01b81526001600160a01b03909316918301918252602092918391839182908190850103915afa908115610a3457613157925f92612c7a575050156128bd565b612ed4565b5097509095945090929091506001600160a01b03811661317e575b5050505050565b84516001036131a45760208061319a9601519201519233613631565b5f80808080613177565b6131b094919233613500565b61319a565b6004549094506131cd906001600160a01b031661123f565b604051638cbdcead60e01b815233600482015260c0602482015294906020908187604481845afa968715610a34575f976132da575b508615613211575b5050612eb7565b60405163fe575a8760e01b8082526001600160a01b038816600483015291908381602481855afa908115610a34575f916132bd575b50159182613262575b505061325b91506128bd565b5f8061320a565b6040519081526001600160a01b038a16600482015291508290829060249082905afa908115610a345761325b925f926132a0575b5050155f8061324f565b6132b69250803d10610a2d57610a2581836104f9565b5f80613296565b6132d49150843d8611610a2d57610a2581836104f9565b5f613246565b6132f2919750823d8411610a2d57610a2581836104f9565b955f613202565b6001600160a01b03841615159450612eaa565b1561331357565b60405162461bcd60e51b815260206004820152600c60248201526b105cdcd95d081b1bd8dad95960a21b6044820152606490fd5b90816020910312610229575161038c816102b5565b9261338a61038c95936133989360018060a01b031686525f602087015260a0604087015260a0860190610621565b908482036060860152610621565b916080818403910152610356565b939061038c959361338a916133989460018060a01b03809216885216602087015260a0604087015260a0860190610621565b3d15613402573d906133e982610529565b916133f760405193846104f9565b82523d5f602084013e565b606090565b9293919093843b613419575050505050565b60209161343c604051948593849363bc197c8160e01b988986526004860161335c565b03815f6001600160a01b0388165af15f91816134cf575b5061349257826134616133d8565b805191908261348b57604051632bfa23e760e11b81526001600160a01b0383166004820152602490fd5b6020915001fd5b6001600160e01b031916036134ac57505f80808080613177565b604051632bfa23e760e11b81526001600160a01b03919091166004820152602490fd5b6134f291925060203d6020116134f9575b6134ea81836104f9565b810190613347565b905f613453565b503d6134e0565b939290949194853b613515575b505050505050565b613538602093604051958694859463bc197c8160e01b998a8752600487016133a6565b03815f6001600160a01b0388165af15f9181613578575b5061355d57826134616133d8565b6001600160e01b031916036134ac57505f808080808061350d565b61359291925060203d6020116134f9576134ea81836104f9565b905f61354f565b909260a09261038c9594600180861b031683525f6020840152604083015260608201528160808201520190610356565b919261038c95949160a094600180871b038092168552166020840152604083015260608201528160808201520190610356565b9293919093843b61360e575050505050565b60209161343c604051948593849363f23a6e6160e01b9889865260048601613599565b939290949194853b61364557505050505050565b613538602093604051958694859463f23a6e6160e01b998a8752600487016135c9565b91908201809211611b5257565b909161368c61038c93604084526040840190610621565b916020818403910152610621565b9190918251825190818103611c7b5750505f5b835181101561372657600581901b84810160209081015191850101516001929184906001600160a01b0382166136e7575b505050016136ad565b61371c916136ff613714925f525f60205260405f2090565b9060018060a01b03165f5260205260405f2090565b918254613668565b90555f83816136de565b509160018151145f14613784576020908101519181015160408051938452918301526001600160a01b03909216915f9133917fc3d58168c5ae7397731d063d5bbf3d657854427343f4c083240f7aacaa2d0f62919081908101611b2b565b7f4a39dc06d4c0dbc64b70af90fd698a233a518aa5d07e595d983b8c0526c8f7fb611b2b5f939460405191829160018060a01b031696339583613675565b9291908051825190818103611c7b5750505f5b815181101561388257600581901b82810160209081015191850101516001600160a01b03871661380a575b50506001016137d5565b61381f876136ff845f525f60205260405f2090565b5481811061384b57876136ff60019594936138439303935f525f60205260405f2090565b55905f613800565b6040516303dee4c560e01b81526001600160a01b038916600482015260248101919091526044810182905260648101839052608490fd5b50905f929391600181511484146138e1576020908101519181015160408051938452918301526001600160a01b039092169133917fc3d58168c5ae7397731d063d5bbf3d657854427343f4c083240f7aacaa2d0f629181908101611b2b565b6040516001600160a01b039093169233927f4a39dc06d4c0dbc64b70af90fd698a233a518aa5d07e595d983b8c0526c8f7fb928291611b2b9183613675565b9392918051835190818103611c7b5750505f5b8151811015613a1857600581901b82810160209081015191860101516001600160a01b0392918590898516613998575b6001948216613976575b50505001613933565b61398e916136ff613714925f525f60205260405f2090565b90555f848161396d565b91929390506139b2896136ff845f525f60205260405f2090565b548381106139e157918691846001969594036139d98c6136ff855f525f60205260405f2090565b559450613963565b6040516303dee4c560e01b81526001600160a01b038b16600482015260248101919091526044810184905260648101839052608490fd5b508051939493919291600103613a7a576020908101519181015160408051938452918301526001600160a01b03928316939092169133917fc3d58168c5ae7397731d063d5bbf3d657854427343f4c083240f7aacaa2d0f629181908101611b2b565b6040516001600160a01b03938416949093169233927f4a39dc06d4c0dbc64b70af90fd698a233a518aa5d07e595d983b8c0526c8f7fb928291611b2b918361367556fea2646970667358221220ba5352fd82977d7899ea1b8a4c43b314950f7f4d5a8ae4e130f93720d25c615a64736f6c63430008180033","linkReferences":{}},"methodIdentifiers":{"accountLedger()":"5defa55e","addToBlacklist(address)":"44337ea1","assetOwner(uint256)":"2a0ee644","assets(uint256)":"cf35bdd0","balanceOf(address,uint256)":"00fdd58e","balanceOfBatch(address[],uint256[])":"4e1273f4","burn(uint256,string,string)":"ba211db0","forceTransfer(uint256,address,address,string)":"c19b8c66","getAssetDetails(uint256)":"a1f24b3d","getAssetsByOwner(address)":"276f0934","getTokenByWarrant(string)":"4873124d","isApprovedForAll(address,address)":"e985e9c5","isAssetLocked(uint256)":"e7e55295","isWarrantUsed(string)":"26471651","memberRegistry()":"a74d4772","mint(address,string,string,string,uint256,uint256,string,bytes32,string,bool,string)":"698d49ab","owner()":"8da5cb5b","removeFromBlacklist(address)":"537df3b6","renounceOwnership()":"715018a6","safeBatchTransferFrom(address,address,uint256[],uint256[],bytes)":"2eb2c2d6","safeTransferFrom(address,address,uint256,uint256,bytes)":"f242432a","setAccountLedger(address)":"59317b7a","setApprovalForAll(address,bool)":"a22cb465","setMemberRegistry(address)":"6fd7c34c","supportsInterface(bytes4)":"01ffc9a7","transferAsset(uint256,address)":"fa62ee8d","transferOwnership(address)":"f2fde38b","updateCustody(uint256,address,string)":"27329eb7","updateStatus(uint256,uint8,string)":"781f0b72","uri(uint256)":"0e89341c","verifyCertificate(uint256,bytes32)":"c3b451a2","warrantToToken(string)":"f5dca3ca"},"id":2}