{"abi":[{"type":"constructor","inputs":[{"name":"_memberRegistry","type":"address","internalType":"address"},{"name":"_accountLedger","type":"address","internalType":"address"}],"stateMutability":"nonpayable"},{"type":"function","name":"accountLedger","inputs":[],"outputs":[{"name":"","type":"address","internalType":"contract IGoldAccountLedger"}],"stateMutability":"view"},{"type":"function","name":"addToBlacklist","inputs":[{"name":"account","type":"address","internalType":"address"}],"outputs":[],"stateMutability":"nonpayable"},{"type":"function","name":"addToWhitelist","inputs":[{"name":"account","type":"address","internalType":"address"}],"outputs":[],"stateMutability":"nonpayable"},{"type":"function","name":"assetOwner","inputs":[{"name":"","type":"uint256","internalType":"uint256"}],"outputs":[{"name":"","type":"address","internalType":"address"}],"stateMutability":"view"},{"type":"function","name":"assets","inputs":[{"name":"","type":"uint256","internalType":"uint256"}],"outputs":[{"name":"tokenId","type":"string","internalType":"string"},{"name":"serialNumber","type":"string","internalType":"string"},{"name":"refinerName","type":"string","internalType":"string"},{"name":"weightGrams","type":"uint256","internalType":"uint256"},{"name":"fineness","type":"uint256","internalType":"uint256"},{"name":"fineWeightGrams","type":"uint256","internalType":"uint256"},{"name":"productType","type":"uint8","internalType":"enum GoldAssetToken.GoldProductType"},{"name":"certificateHash","type":"bytes32","internalType":"bytes32"},{"name":"traceabilityGIC","type":"string","internalType":"string"},{"name":"status","type":"uint8","internalType":"enum GoldAssetToken.AssetStatus"},{"name":"mintedAt","type":"uint256","internalType":"uint256"},{"name":"certified","type":"bool","internalType":"bool"}],"stateMutability":"view"},{"type":"function","name":"balanceOf","inputs":[{"name":"account","type":"address","internalType":"address"},{"name":"id","type":"uint256","internalType":"uint256"}],"outputs":[{"name":"","type":"uint256","internalType":"uint256"}],"stateMutability":"view"},{"type":"function","name":"balanceOfBatch","inputs":[{"name":"accounts","type":"address[]","internalType":"address[]"},{"name":"ids","type":"uint256[]","internalType":"uint256[]"}],"outputs":[{"name":"","type":"uint256[]","internalType":"uint256[]"}],"stateMutability":"view"},{"type":"function","name":"blacklist","inputs":[{"name":"","type":"address","internalType":"address"}],"outputs":[{"name":"","type":"bool","internalType":"bool"}],"stateMutability":"view"},{"type":"function","name":"burn","inputs":[{"name":"tokenId","type":"uint256","internalType":"uint256"},{"name":"accountId","type":"string","internalType":"string"},{"name":"burnReason","type":"string","internalType":"string"}],"outputs":[],"stateMutability":"nonpayable"},{"type":"function","name":"forceTransfer","inputs":[{"name":"tokenId","type":"uint256","internalType":"uint256"},{"name":"from","type":"address","internalType":"address"},{"name":"to","type":"address","internalType":"address"},{"name":"reason","type":"string","internalType":"string"}],"outputs":[],"stateMutability":"nonpayable"},{"type":"function","name":"getAssetDetails","inputs":[{"name":"tokenId","type":"uint256","internalType":"uint256"}],"outputs":[{"name":"","type":"tuple","internalType":"struct GoldAssetToken.GoldAsset","components":[{"name":"tokenId","type":"string","internalType":"string"},{"name":"serialNumber","type":"string","internalType":"string"},{"name":"refinerName","type":"string","internalType":"string"},{"name":"weightGrams","type":"uint256","internalType":"uint256"},{"name":"fineness","type":"uint256","internalType":"uint256"},{"name":"fineWeightGrams","type":"uint256","internalType":"uint256"},{"name":"productType","type":"uint8","internalType":"enum GoldAssetToken.GoldProductType"},{"name":"certificateHash","type":"bytes32","internalType":"bytes32"},{"name":"traceabilityGIC","type":"string","internalType":"string"},{"name":"status","type":"uint8","internalType":"enum GoldAssetToken.AssetStatus"},{"name":"mintedAt","type":"uint256","internalType":"uint256"},{"name":"certified","type":"bool","internalType":"bool"}]}],"stateMutability":"view"},{"type":"function","name":"getAssetsByOwner","inputs":[{"name":"owner","type":"address","internalType":"address"}],"outputs":[{"name":"","type":"uint256[]","internalType":"uint256[]"}],"stateMutability":"view"},{"type":"function","name":"getTokenByWarrant","inputs":[{"name":"warrantId","type":"string","internalType":"string"}],"outputs":[{"name":"","type":"uint256","internalType":"uint256"}],"stateMutability":"view"},{"type":"function","name":"isApprovedForAll","inputs":[{"name":"account","type":"address","internalType":"address"},{"name":"operator","type":"address","internalType":"address"}],"outputs":[{"name":"","type":"bool","internalType":"bool"}],"stateMutability":"view"},{"type":"function","name":"isAssetLocked","inputs":[{"name":"tokenId","type":"uint256","internalType":"uint256"}],"outputs":[{"name":"","type":"bool","internalType":"bool"}],"stateMutability":"view"},{"type":"function","name":"isWarrantUsed","inputs":[{"name":"warrantId","type":"string","internalType":"string"}],"outputs":[{"name":"","type":"bool","internalType":"bool"}],"stateMutability":"view"},{"type":"function","name":"memberRegistry","inputs":[],"outputs":[{"name":"","type":"address","internalType":"contract IMemberRegistry"}],"stateMutability":"view"},{"type":"function","name":"mint","inputs":[{"name":"to","type":"address","internalType":"address"},{"name":"serialNumber","type":"string","internalType":"string"},{"name":"refinerName","type":"string","internalType":"string"},{"name":"weightGrams","type":"uint256","internalType":"uint256"},{"name":"fineness","type":"uint256","internalType":"uint256"},{"name":"productType","type":"uint8","internalType":"enum GoldAssetToken.GoldProductType"},{"name":"certificateHash","type":"bytes32","internalType":"bytes32"},{"name":"traceabilityGIC","type":"string","internalType":"string"},{"name":"certified","type":"bool","internalType":"bool"},{"name":"warrantId","type":"string","internalType":"string"}],"outputs":[{"name":"","type":"uint256","internalType":"uint256"}],"stateMutability":"nonpayable"},{"type":"function","name":"owner","inputs":[],"outputs":[{"name":"","type":"address","internalType":"address"}],"stateMutability":"view"},{"type":"function","name":"removeFromBlacklist","inputs":[{"name":"account","type":"address","internalType":"address"}],"outputs":[],"stateMutability":"nonpayable"},{"type":"function","name":"removeFromWhitelist","inputs":[{"name":"account","type":"address","internalType":"address"}],"outputs":[],"stateMutability":"nonpayable"},{"type":"function","name":"renounceOwnership","inputs":[],"outputs":[],"stateMutability":"nonpayable"},{"type":"function","name":"safeBatchTransferFrom","inputs":[{"name":"from","type":"address","internalType":"address"},{"name":"to","type":"address","internalType":"address"},{"name":"ids","type":"uint256[]","internalType":"uint256[]"},{"name":"values","type":"uint256[]","internalType":"uint256[]"},{"name":"data","type":"bytes","internalType":"bytes"}],"outputs":[],"stateMutability":"nonpayable"},{"type":"function","name":"safeTransferFrom","inputs":[{"name":"from","type":"address","internalType":"address"},{"name":"to","type":"address","internalType":"address"},{"name":"id","type":"uint256","internalType":"uint256"},{"name":"value","type":"uint256","internalType":"uint256"},{"name":"data","type":"bytes","internalType":"bytes"}],"outputs":[],"stateMutability":"nonpayable"},{"type":"function","name":"setAccountLedger","inputs":[{"name":"_accountLedger","type":"address","internalType":"address"}],"outputs":[],"stateMutability":"nonpayable"},{"type":"function","name":"setApprovalForAll","inputs":[{"name":"operator","type":"address","internalType":"address"},{"name":"approved","type":"bool","internalType":"bool"}],"outputs":[],"stateMutability":"nonpayable"},{"type":"function","name":"setMemberRegistry","inputs":[{"name":"_memberRegistry","type":"address","internalType":"address"}],"outputs":[],"stateMutability":"nonpayable"},{"type":"function","name":"supportsInterface","inputs":[{"name":"interfaceId","type":"bytes4","internalType":"bytes4"}],"outputs":[{"name":"","type":"bool","internalType":"bool"}],"stateMutability":"view"},{"type":"function","name":"transferOwnership","inputs":[{"name":"newOwner","type":"address","internalType":"address"}],"outputs":[],"stateMutability":"nonpayable"},{"type":"function","name":"updateCustody","inputs":[{"name":"tokenId","type":"uint256","internalType":"uint256"},{"name":"toParty","type":"address","internalType":"address"},{"name":"custodyType","type":"string","internalType":"string"}],"outputs":[],"stateMutability":"nonpayable"},{"type":"function","name":"updateStatus","inputs":[{"name":"tokenId","type":"uint256","internalType":"uint256"},{"name":"newStatus","type":"uint8","internalType":"enum GoldAssetToken.AssetStatus"},{"name":"reason","type":"string","internalType":"string"}],"outputs":[],"stateMutability":"nonpayable"},{"type":"function","name":"uri","inputs":[{"name":"tokenId","type":"uint256","internalType":"uint256"}],"outputs":[{"name":"","type":"string","internalType":"string"}],"stateMutability":"view"},{"type":"function","name":"verifyCertificate","inputs":[{"name":"tokenId","type":"uint256","internalType":"uint256"},{"name":"certificateHash","type":"bytes32","internalType":"bytes32"}],"outputs":[{"name":"","type":"bool","internalType":"bool"}],"stateMutability":"view"},{"type":"function","name":"warrantToToken","inputs":[{"name":"","type":"string","internalType":"string"}],"outputs":[{"name":"","type":"uint256","internalType":"uint256"}],"stateMutability":"view"},{"type":"function","name":"whitelist","inputs":[{"name":"","type":"address","internalType":"address"}],"outputs":[{"name":"","type":"bool","internalType":"bool"}],"stateMutability":"view"},{"type":"event","name":"ApprovalForAll","inputs":[{"name":"account","type":"address","indexed":true,"internalType":"address"},{"name":"operator","type":"address","indexed":true,"internalType":"address"},{"name":"approved","type":"bool","indexed":false,"internalType":"bool"}],"anonymous":false},{"type":"event","name":"AssetBurned","inputs":[{"name":"tokenId","type":"uint256","indexed":true,"internalType":"uint256"},{"name":"burnReason","type":"string","indexed":false,"internalType":"string"},{"name":"finalOwner","type":"address","indexed":true,"internalType":"address"},{"name":"authorizedBy","type":"address","indexed":true,"internalType":"address"},{"name":"timestamp","type":"uint256","indexed":false,"internalType":"uint256"}],"anonymous":false},{"type":"event","name":"AssetMinted","inputs":[{"name":"tokenId","type":"uint256","indexed":true,"internalType":"uint256"},{"name":"serialNumber","type":"string","indexed":false,"internalType":"string"},{"name":"refinerName","type":"string","indexed":false,"internalType":"string"},{"name":"weightGrams","type":"uint256","indexed":false,"internalType":"uint256"},{"name":"fineness","type":"uint256","indexed":false,"internalType":"uint256"},{"name":"owner","type":"address","indexed":true,"internalType":"address"},{"name":"timestamp","type":"uint256","indexed":false,"internalType":"uint256"}],"anonymous":false},{"type":"event","name":"AssetStatusChanged","inputs":[{"name":"tokenId","type":"uint256","indexed":true,"internalType":"uint256"},{"name":"previousStatus","type":"uint8","indexed":false,"internalType":"enum GoldAssetToken.AssetStatus"},{"name":"newStatus","type":"uint8","indexed":false,"internalType":"enum GoldAssetToken.AssetStatus"},{"name":"reason","type":"string","indexed":false,"internalType":"string"},{"name":"changedBy","type":"address","indexed":true,"internalType":"address"},{"name":"timestamp","type":"uint256","indexed":false,"internalType":"uint256"}],"anonymous":false},{"type":"event","name":"AssetTransferred","inputs":[{"name":"tokenId","type":"uint256","indexed":true,"internalType":"uint256"},{"name":"fromIGAN","type":"address","indexed":true,"internalType":"address"},{"name":"toIGAN","type":"address","indexed":true,"internalType":"address"},{"name":"timestamp","type":"uint256","indexed":false,"internalType":"uint256"}],"anonymous":false},{"type":"event","name":"BlacklistUpdated","inputs":[{"name":"account","type":"address","indexed":true,"internalType":"address"},{"name":"status","type":"bool","indexed":false,"internalType":"bool"},{"name":"timestamp","type":"uint256","indexed":false,"internalType":"uint256"}],"anonymous":false},{"type":"event","name":"CustodyChanged","inputs":[{"name":"tokenId","type":"uint256","indexed":true,"internalType":"uint256"},{"name":"fromParty","type":"address","indexed":true,"internalType":"address"},{"name":"toParty","type":"address","indexed":true,"internalType":"address"},{"name":"custodyType","type":"string","indexed":false,"internalType":"string"},{"name":"timestamp","type":"uint256","indexed":false,"internalType":"uint256"}],"anonymous":false},{"type":"event","name":"OwnershipTransferred","inputs":[{"name":"previousOwner","type":"address","indexed":true,"internalType":"address"},{"name":"newOwner","type":"address","indexed":true,"internalType":"address"}],"anonymous":false},{"type":"event","name":"OwnershipUpdated","inputs":[{"name":"tokenId","type":"uint256","indexed":true,"internalType":"uint256"},{"name":"from","type":"address","indexed":true,"internalType":"address"},{"name":"to","type":"address","indexed":true,"internalType":"address"},{"name":"reason","type":"string","indexed":false,"internalType":"string"},{"name":"timestamp","type":"uint256","indexed":false,"internalType":"uint256"}],"anonymous":false},{"type":"event","name":"TransferBatch","inputs":[{"name":"operator","type":"address","indexed":true,"internalType":"address"},{"name":"from","type":"address","indexed":true,"internalType":"address"},{"name":"to","type":"address","indexed":true,"internalType":"address"},{"name":"ids","type":"uint256[]","indexed":false,"internalType":"uint256[]"},{"name":"values","type":"uint256[]","indexed":false,"internalType":"uint256[]"}],"anonymous":false},{"type":"event","name":"TransferSingle","inputs":[{"name":"operator","type":"address","indexed":true,"internalType":"address"},{"name":"from","type":"address","indexed":true,"internalType":"address"},{"name":"to","type":"address","indexed":true,"internalType":"address"},{"name":"id","type":"uint256","indexed":false,"internalType":"uint256"},{"name":"value","type":"uint256","indexed":false,"internalType":"uint256"}],"anonymous":false},{"type":"event","name":"URI","inputs":[{"name":"value","type":"string","indexed":false,"internalType":"string"},{"name":"id","type":"uint256","indexed":true,"internalType":"uint256"}],"anonymous":false},{"type":"event","name":"WarrantLinked","inputs":[{"name":"warrantId","type":"string","indexed":true,"internalType":"string"},{"name":"tokenId","type":"uint256","indexed":true,"internalType":"uint256"},{"name":"owner","type":"address","indexed":true,"internalType":"address"},{"name":"timestamp","type":"uint256","indexed":false,"internalType":"uint256"}],"anonymous":false},{"type":"event","name":"WhitelistUpdated","inputs":[{"name":"account","type":"address","indexed":true,"internalType":"address"},{"name":"status","type":"bool","indexed":false,"internalType":"bool"},{"name":"timestamp","type":"uint256","indexed":false,"internalType":"uint256"}],"anonymous":false},{"type":"error","name":"ERC1155InsufficientBalance","inputs":[{"name":"sender","type":"address","internalType":"address"},{"name":"balance","type":"uint256","internalType":"uint256"},{"name":"needed","type":"uint256","internalType":"uint256"},{"name":"tokenId","type":"uint256","internalType":"uint256"}]},{"type":"error","name":"ERC1155InvalidApprover","inputs":[{"name":"approver","type":"address","internalType":"address"}]},{"type":"error","name":"ERC1155InvalidArrayLength","inputs":[{"name":"idsLength","type":"uint256","internalType":"uint256"},{"name":"valuesLength","type":"uint256","internalType":"uint256"}]},{"type":"error","name":"ERC1155InvalidOperator","inputs":[{"name":"operator","type":"address","internalType":"address"}]},{"type":"error","name":"ERC1155InvalidReceiver","inputs":[{"name":"receiver","type":"address","internalType":"address"}]},{"type":"error","name":"ERC1155InvalidSender","inputs":[{"name":"sender","type":"address","internalType":"address"}]},{"type":"error","name":"ERC1155MissingApprovalForAll","inputs":[{"name":"operator","type":"address","internalType":"address"},{"name":"owner","type":"address","internalType":"address"}]},{"type":"error","name":"OwnableInvalidOwner","inputs":[{"name":"owner","type":"address","internalType":"address"}]},{"type":"error","name":"OwnableUnauthorizedAccount","inputs":[{"name":"account","type":"address","internalType":"address"}]}],"bytecode":{"object":"0x608060405234801562000010575f80fd5b5060405162007052380380620070528339818101604052810190620000369190620002aa565b3360405180602001604052805f81525062000057816200016d60201b60201c565b505f73ffffffffffffffffffffffffffffffffffffffff168173ffffffffffffffffffffffffffffffffffffffff1603620000cb575f6040517f1e4fbdf7000000000000000000000000000000000000000000000000000000008152600401620000c2919062000300565b60405180910390fd5b620000dc816200018260201b60201c565b508160045f6101000a81548173ffffffffffffffffffffffffffffffffffffffff021916908373ffffffffffffffffffffffffffffffffffffffff1602179055508060055f6101000a81548173ffffffffffffffffffffffffffffffffffffffff021916908373ffffffffffffffffffffffffffffffffffffffff1602179055506001600681905550505062000663565b80600290816200017e91906200057f565b5050565b5f60035f9054906101000a900473ffffffffffffffffffffffffffffffffffffffff1690508160035f6101000a81548173ffffffffffffffffffffffffffffffffffffffff021916908373ffffffffffffffffffffffffffffffffffffffff1602179055508173ffffffffffffffffffffffffffffffffffffffff168173ffffffffffffffffffffffffffffffffffffffff167f8be0079c531659141344cd1fd0a4f28419497f9722a3daafe3b4186f6b6457e060405160405180910390a35050565b5f80fd5b5f73ffffffffffffffffffffffffffffffffffffffff82169050919050565b5f620002748262000249565b9050919050565b620002868162000268565b811462000291575f80fd5b50565b5f81519050620002a4816200027b565b92915050565b5f8060408385031215620002c357620002c262000245565b5b5f620002d28582860162000294565b9250506020620002e58582860162000294565b9150509250929050565b620002fa8162000268565b82525050565b5f602082019050620003155f830184620002ef565b92915050565b5f81519050919050565b7f4e487b71000000000000000000000000000000000000000000000000000000005f52604160045260245ffd5b7f4e487b71000000000000000000000000000000000000000000000000000000005f52602260045260245ffd5b5f60028204905060018216806200039757607f821691505b602082108103620003ad57620003ac62000352565b5b50919050565b5f819050815f5260205f209050919050565b5f6020601f8301049050919050565b5f82821b905092915050565b5f60088302620004117fffffffffffffffffffffffffffffffffffffffffffffffffffffffffffffffff82620003d4565b6200041d8683620003d4565b95508019841693508086168417925050509392505050565b5f819050919050565b5f819050919050565b5f62000467620004616200045b8462000435565b6200043e565b62000435565b9050919050565b5f819050919050565b620004828362000447565b6200049a62000491826200046e565b848454620003e0565b825550505050565b5f90565b620004b0620004a2565b620004bd81848462000477565b505050565b5b81811015620004e457620004d85f82620004a6565b600181019050620004c3565b5050565b601f8211156200053357620004fd81620003b3565b6200050884620003c5565b8101602085101562000518578190505b620005306200052785620003c5565b830182620004c2565b50505b505050565b5f82821c905092915050565b5f620005555f198460080262000538565b1980831691505092915050565b5f6200056f838362000544565b9150826002028217905092915050565b6200058a826200031b565b67ffffffffffffffff811115620005a657620005a562000325565b5b620005b282546200037f565b620005bf828285620004e8565b5f60209050601f831160018114620005f5575f8415620005e0578287015190505b620005ec858262000562565b8655506200065b565b601f1984166200060586620003b3565b5f5b828110156200062e5784890151825560018201915060208501945060208101905062000607565b868310156200064e57848901516200064a601f89168262000544565b8355505b6001600288020188555050505b505050505050565b6169e180620006715f395ff3fe608060405234801561000f575f80fd5b506004361061020e575f3560e01c80638ab1d68111610123578063cf35bdd0116100ab578063f242432a1161007a578063f242432a14610671578063f2fde38b1461068d578063f5dca3ca146106a9578063f9f92be4146106d9578063fb996820146107095761020e565b8063cf35bdd0146105ba578063e43252d7146105f5578063e7e5529514610611578063e985e9c5146106415761020e565b8063a22cb465116100f2578063a22cb46514610518578063a74d477214610534578063ba211db014610552578063c19b8c661461056e578063c3b451a21461058a5761020e565b80638ab1d6811461047e5780638da5cb5b1461049a5780639b19251a146104b8578063a1f24b3d146104e85761020e565b806344337ea1116101a657806359317b7a1161017557806359317b7a146104025780635defa55e1461041e5780636fd7c34c1461043c578063715018a614610458578063781f0b72146104625761020e565b806344337ea11461036a5780634873124d146103865780634e1273f4146103b6578063537df3b6146103e65761020e565b806327329eb7116101e257806327329eb7146102d2578063276f0934146102ee5780632a0ee6441461031e5780632eb2c2d61461034e5761020e565b8062fdd58e1461021257806301ffc9a7146102425780630e89341c1461027257806326471651146102a2575b5f80fd5b61022c6004803603810190610227919061479a565b610739565b60405161023991906147e7565b60405180910390f35b61025c60048036038101906102579190614855565b61078e565b604051610269919061489a565b60405180910390f35b61028c600480360381019061028791906148b3565b61086f565b6040516102999190614968565b60405180910390f35b6102bc60048036038101906102b79190614ab4565b610900565b6040516102c9919061489a565b60405180910390f35b6102ec60048036038101906102e79190614afb565b610933565b005b61030860048036038101906103039190614b67565b610b18565b6040516103159190614c49565b60405180910390f35b610338600480360381019061033391906148b3565b610d57565b6040516103459190614c78565b60405180910390f35b61036860048036038101906103639190614df3565b610d87565b005b610384600480360381019061037f9190614b67565b610e2e565b005b6103a0600480360381019061039b9190614ab4565b610fb1565b6040516103ad91906147e7565b60405180910390f35b6103d060048036038101906103cb9190614f7e565b611042565b6040516103dd9190614c49565b60405180910390f35b61040060048036038101906103fb9190614b67565b611149565b005b61041c60048036038101906104179190614b67565b6112ca565b005b610426611315565b604051610433919061504f565b60405180910390f35b61045660048036038101906104519190614b67565b61133a565b005b610460611385565b005b61047c6004803603810190610477919061508b565b611398565b005b61049860048036038101906104939190614b67565b61161c565b005b6104a261179d565b6040516104af9190614c78565b60405180910390f35b6104d260048036038101906104cd9190614b67565b6117c5565b6040516104df919061489a565b60405180910390f35b61050260048036038101906104fd91906148b3565b6117e2565b60405161050f9190615335565b60405180910390f35b610532600480360381019061052d919061537f565b611b63565b005b61053c611b79565b60405161054991906153dd565b60405180910390f35b61056c600480360381019061056791906153f6565b611b9e565b005b6105886004803603810190610583919061547e565b611faa565b005b6105a4600480360381019061059f9190615528565b6122f7565b6040516105b1919061489a565b60405180910390f35b6105d460048036038101906105cf91906148b3565b61236d565b6040516105ec9c9b9a99989796959493929190615593565b60405180910390f35b61060f600480360381019061060a9190614b67565b612605565b005b61062b600480360381019061062691906148b3565b612788565b604051610638919061489a565b60405180910390f35b61065b60048036038101906106569190615667565b61280c565b604051610668919061489a565b60405180910390f35b61068b600480360381019061068691906156a5565b61289a565b005b6106a760048036038101906106a29190614b67565b612941565b005b6106c360048036038101906106be9190614ab4565b6129c5565b6040516106d091906147e7565b60405180910390f35b6106f360048036038101906106ee9190614b67565b6129f2565b604051610700919061489a565b60405180910390f35b610723600480360381019061071e919061575b565b612a0f565b60405161073091906147e7565b60405180910390f35b5f805f8381526020019081526020015f205f8473ffffffffffffffffffffffffffffffffffffffff1673ffffffffffffffffffffffffffffffffffffffff1681526020019081526020015f2054905092915050565b5f7fd9b67a26000000000000000000000000000000000000000000000000000000007bffffffffffffffffffffffffffffffffffffffffffffffffffffffff1916827bffffffffffffffffffffffffffffffffffffffffffffffffffffffff1916148061085857507f0e89341c000000000000000000000000000000000000000000000000000000007bffffffffffffffffffffffffffffffffffffffffffffffffffffffff1916827bffffffffffffffffffffffffffffffffffffffffffffffffffffffff1916145b80610868575061086782612f6e565b5b9050919050565b60605f60075f8481526020019081526020015f20600a0154036108c7576040517f08c379a00000000000000000000000000000000000000000000000000000000081526004016108be906158ee565b60405180910390fd5b60075f8381526020019081526020015f205f016040516020016108ea9190615a4f565b6040516020818303038152906040529050919050565b5f600a826040516109119190615aa0565b90815260200160405180910390205f9054906101000a900460ff169050919050565b823373ffffffffffffffffffffffffffffffffffffffff1660095f8381526020019081526020015f205f9054906101000a900473ffffffffffffffffffffffffffffffffffffffff1673ffffffffffffffffffffffffffffffffffffffff161480610a36575060045f9054906101000a900473ffffffffffffffffffffffffffffffffffffffff1673ffffffffffffffffffffffffffffffffffffffff16638cbdcead3360046040518363ffffffff1660e01b81526004016109f6929190615ab6565b602060405180830381865afa158015610a11573d5f803e3d5ffd5b505050506040513d601f19601f82011682018060405250810190610a359190615af1565b5b610a75576040517f08c379a0000000000000000000000000000000000000000000000000000000008152600401610a6c90615b8c565b60405180910390fd5b5f60095f8681526020019081526020015f205f9054906101000a900473ffffffffffffffffffffffffffffffffffffffff1690508373ffffffffffffffffffffffffffffffffffffffff168173ffffffffffffffffffffffffffffffffffffffff16867f7d8bbf09e5d2c4c9326e18403c0d0edc90bf13eb1854d3cab844ac9476b12ffe8642604051610b09929190615baa565b60405180910390a45050505050565b60605f80600190505b600654811015610bfc578373ffffffffffffffffffffffffffffffffffffffff1660095f8381526020019081526020015f205f9054906101000a900473ffffffffffffffffffffffffffffffffffffffff1673ffffffffffffffffffffffffffffffffffffffff16148015610bdb575060046006811115610ba557610ba461513f565b5b60075f8381526020019081526020015f206009015f9054906101000a900460ff166006811115610bd857610bd761513f565b5b14155b15610bef578180610beb90615c05565b9250505b8080600101915050610b21565b505f8167ffffffffffffffff811115610c1857610c17614990565b5b604051908082528060200260200182016040528015610c465781602001602082028036833780820191505090505b5090505f80600190505b600654811015610d4b578573ffffffffffffffffffffffffffffffffffffffff1660095f8381526020019081526020015f205f9054906101000a900473ffffffffffffffffffffffffffffffffffffffff1673ffffffffffffffffffffffffffffffffffffffff16148015610d0a575060046006811115610cd457610cd361513f565b5b60075f8381526020019081526020015f206009015f9054906101000a900460ff166006811115610d0757610d0661513f565b5b14155b15610d3e5780838381518110610d2357610d22615c4c565b5b6020026020010181815250508180610d3a90615c05565b9250505b8080600101915050610c50565b50819350505050919050565b6009602052805f5260405f205f915054906101000a900473ffffffffffffffffffffffffffffffffffffffff1681565b5f610d90612fd7565b90508073ffffffffffffffffffffffffffffffffffffffff168673ffffffffffffffffffffffffffffffffffffffff1614158015610dd55750610dd3868261280c565b155b15610e195780866040517fe237d922000000000000000000000000000000000000000000000000000000008152600401610e10929190615c79565b60405180910390fd5b610e268686868686612fde565b505050505050565b60045f9054906101000a900473ffffffffffffffffffffffffffffffffffffffff1673ffffffffffffffffffffffffffffffffffffffff16638cbdcead33604080518363ffffffff1660e01b8152600401610e8a929190615ab6565b602060405180830381865afa158015610ea5573d5f803e3d5ffd5b505050506040513d601f19601f82011682018060405250810190610ec99190615af1565b610f08576040517f08c379a0000000000000000000000000000000000000000000000000000000008152600401610eff90615d10565b60405180910390fd5b6001600d5f8373ffffffffffffffffffffffffffffffffffffffff1673ffffffffffffffffffffffffffffffffffffffff1681526020019081526020015f205f6101000a81548160ff0219169083151502179055508073ffffffffffffffffffffffffffffffffffffffff167fdb76f617e04ebf72dc17dbe8376979b98408ad67557ef09c5272f7156d8123e8600142604051610fa6929190615d2e565b60405180910390a250565b5f600a82604051610fc29190615aa0565b90815260200160405180910390205f9054906101000a900460ff1661101c576040517f08c379a000000000000000000000000000000000000000000000000000000000815260040161101390615d9f565b60405180910390fd5b600b8260405161102c9190615aa0565b9081526020016040518091039020549050919050565b6060815183511461108e57815183516040517f5b059991000000000000000000000000000000000000000000000000000000008152600401611085929190615dbd565b60405180910390fd5b5f835167ffffffffffffffff8111156110aa576110a9614990565b5b6040519080825280602002602001820160405280156110d85781602001602082028036833780820191505090505b5090505f5b845181101561113e576111146110fc82876130d290919063ffffffff16565b61110f83876130e590919063ffffffff16565b610739565b82828151811061112757611126615c4c565b5b6020026020010181815250508060010190506110dd565b508091505092915050565b60045f9054906101000a900473ffffffffffffffffffffffffffffffffffffffff1673ffffffffffffffffffffffffffffffffffffffff16638cbdcead33604080518363ffffffff1660e01b81526004016111a5929190615ab6565b602060405180830381865afa1580156111c0573d5f803e3d5ffd5b505050506040513d601f19601f820116820180604052508101906111e49190615af1565b611223576040517f08c379a000000000000000000000000000000000000000000000000000000000815260040161121a90615d10565b60405180910390fd5b5f600d5f8373ffffffffffffffffffffffffffffffffffffffff1673ffffffffffffffffffffffffffffffffffffffff1681526020019081526020015f205f6101000a81548160ff0219169083151502179055508073ffffffffffffffffffffffffffffffffffffffff167fdb76f617e04ebf72dc17dbe8376979b98408ad67557ef09c5272f7156d8123e85f426040516112bf929190615d2e565b60405180910390a250565b6112d26130f8565b8060055f6101000a81548173ffffffffffffffffffffffffffffffffffffffff021916908373ffffffffffffffffffffffffffffffffffffffff16021790555050565b60055f9054906101000a900473ffffffffffffffffffffffffffffffffffffffff1681565b6113426130f8565b8060045f6101000a81548173ffffffffffffffffffffffffffffffffffffffff021916908373ffffffffffffffffffffffffffffffffffffffff16021790555050565b61138d6130f8565b6113965f61317f565b565b823373ffffffffffffffffffffffffffffffffffffffff1660095f8381526020019081526020015f205f9054906101000a900473ffffffffffffffffffffffffffffffffffffffff1673ffffffffffffffffffffffffffffffffffffffff16148061149b575060045f9054906101000a900473ffffffffffffffffffffffffffffffffffffffff1673ffffffffffffffffffffffffffffffffffffffff16638cbdcead3360046040518363ffffffff1660e01b815260040161145b929190615ab6565b602060405180830381865afa158015611476573d5f803e3d5ffd5b505050506040513d601f19601f8201168201806040525081019061149a9190615af1565b5b6114da576040517f08c379a00000000000000000000000000000000000000000000000000000000081526004016114d190615b8c565b60405180910390fd5b600460068111156114ee576114ed61513f565b5b60075f8681526020019081526020015f206009015f9054906101000a900460ff1660068111156115215761152061513f565b5b03611561576040517f08c379a000000000000000000000000000000000000000000000000000000000815260040161155890615e2e565b60405180910390fd5b5f60075f8681526020019081526020015f206009015f9054906101000a900460ff1690508360075f8781526020019081526020015f206009015f6101000a81548160ff021916908360068111156115bb576115ba61513f565b5b02179055503373ffffffffffffffffffffffffffffffffffffffff16857f4a7f36090e241cfd69682f6a164350c2cb00366213fcca9c8a43c15e8168f94c8387874260405161160d9493929190615e4c565b60405180910390a35050505050565b60045f9054906101000a900473ffffffffffffffffffffffffffffffffffffffff1673ffffffffffffffffffffffffffffffffffffffff16638cbdcead33604080518363ffffffff1660e01b8152600401611678929190615ab6565b602060405180830381865afa158015611693573d5f803e3d5ffd5b505050506040513d601f19601f820116820180604052508101906116b79190615af1565b6116f6576040517f08c379a00000000000000000000000000000000000000000000000000000000081526004016116ed90615d10565b60405180910390fd5b5f600c5f8373ffffffffffffffffffffffffffffffffffffffff1673ffffffffffffffffffffffffffffffffffffffff1681526020019081526020015f205f6101000a81548160ff0219169083151502179055508073ffffffffffffffffffffffffffffffffffffffff167f0f2ab3269df45d41960fdf14c84cd22dfb81c269985eecc7ee6b93764639ae455f42604051611792929190615d2e565b60405180910390a250565b5f60035f9054906101000a900473ffffffffffffffffffffffffffffffffffffffff16905090565b600c602052805f5260405f205f915054906101000a900460ff1681565b6117ea61467a565b5f60075f8481526020019081526020015f20600a015403611840576040517f08c379a0000000000000000000000000000000000000000000000000000000008152600401611837906158ee565b60405180910390fd5b60075f8381526020019081526020015f20604051806101800160405290815f8201805461186c9061598d565b80601f01602080910402602001604051908101604052809291908181526020018280546118989061598d565b80156118e35780601f106118ba576101008083540402835291602001916118e3565b820191905f5260205f20905b8154815290600101906020018083116118c657829003601f168201915b505050505081526020016001820180546118fc9061598d565b80601f01602080910402602001604051908101604052809291908181526020018280546119289061598d565b80156119735780601f1061194a57610100808354040283529160200191611973565b820191905f5260205f20905b81548152906001019060200180831161195657829003601f168201915b5050505050815260200160028201805461198c9061598d565b80601f01602080910402602001604051908101604052809291908181526020018280546119b89061598d565b8015611a035780601f106119da57610100808354040283529160200191611a03565b820191905f5260205f20905b8154815290600101906020018083116119e657829003601f168201915b50505050508152602001600382015481526020016004820154815260200160058201548152602001600682015f9054906101000a900460ff166003811115611a4e57611a4d61513f565b5b6003811115611a6057611a5f61513f565b5b815260200160078201548152602001600882018054611a7e9061598d565b80601f0160208091040260200160405190810160405280929190818152602001828054611aaa9061598d565b8015611af55780601f10611acc57610100808354040283529160200191611af5565b820191905f5260205f20905b815481529060010190602001808311611ad857829003601f168201915b50505050508152602001600982015f9054906101000a900460ff166006811115611b2257611b2161513f565b5b6006811115611b3457611b3361513f565b5b8152602001600a8201548152602001600b82015f9054906101000a900460ff1615151515815250509050919050565b611b75611b6e612fd7565b8383613242565b5050565b60045f9054906101000a900473ffffffffffffffffffffffffffffffffffffffff1681565b823373ffffffffffffffffffffffffffffffffffffffff1660095f8381526020019081526020015f205f9054906101000a900473ffffffffffffffffffffffffffffffffffffffff1673ffffffffffffffffffffffffffffffffffffffff161480611ca1575060045f9054906101000a900473ffffffffffffffffffffffffffffffffffffffff1673ffffffffffffffffffffffffffffffffffffffff16638cbdcead3360046040518363ffffffff1660e01b8152600401611c61929190615ab6565b602060405180830381865afa158015611c7c573d5f803e3d5ffd5b505050506040513d601f19601f82011682018060405250810190611ca09190615af1565b5b611ce0576040517f08c379a0000000000000000000000000000000000000000000000000000000008152600401611cd790615b8c565b60405180910390fd5b5f60075f8681526020019081526020015f20600a015403611d36576040517f08c379a0000000000000000000000000000000000000000000000000000000008152600401611d2d906158ee565b60405180910390fd5b60046006811115611d4a57611d4961513f565b5b60075f8681526020019081526020015f206009015f9054906101000a900460ff166006811115611d7d57611d7c61513f565b5b03611dbd576040517f08c379a0000000000000000000000000000000000000000000000000000000008152600401611db490615ee0565b60405180910390fd5b5f60095f8681526020019081526020015f205f9054906101000a900473ffffffffffffffffffffffffffffffffffffffff169050600460075f8781526020019081526020015f206009015f6101000a81548160ff02191690836006811115611e2857611e2761513f565b5b02179055505f73ffffffffffffffffffffffffffffffffffffffff1660055f9054906101000a900473ffffffffffffffffffffffffffffffffffffffff1673ffffffffffffffffffffffffffffffffffffffff1614611f2f5760055f9054906101000a900473ffffffffffffffffffffffffffffffffffffffff1673ffffffffffffffffffffffffffffffffffffffff1663bb119a6e857fffffffffffffffffffffffffffffffffffffffffffffffffffffffffffffffff86896040518563ffffffff1660e01b8152600401611f019493929190615f40565b5f604051808303815f87803b158015611f18575f80fd5b505af1158015611f2a573d5f803e3d5ffd5b505050505b611f3b818660016133ab565b3373ffffffffffffffffffffffffffffffffffffffff168173ffffffffffffffffffffffffffffffffffffffff16867fd0360773ac0050786178ca762143b27b7e9b2d0b663ee86cf9e7f114b35008718642604051611f9b929190615baa565b60405180910390a45050505050565b60045f9054906101000a900473ffffffffffffffffffffffffffffffffffffffff1673ffffffffffffffffffffffffffffffffffffffff16638cbdcead33604080518363ffffffff1660e01b8152600401612006929190615ab6565b602060405180830381865afa158015612021573d5f803e3d5ffd5b505050506040513d601f19601f820116820180604052508101906120459190615af1565b612084576040517f08c379a000000000000000000000000000000000000000000000000000000000815260040161207b90615d10565b60405180910390fd5b5f60075f8681526020019081526020015f20600a0154036120da576040517f08c379a00000000000000000000000000000000000000000000000000000000081526004016120d1906158ee565b60405180910390fd5b8273ffffffffffffffffffffffffffffffffffffffff1660095f8681526020019081526020015f205f9054906101000a900473ffffffffffffffffffffffffffffffffffffffff1673ffffffffffffffffffffffffffffffffffffffff1614612178576040517f08c379a000000000000000000000000000000000000000000000000000000000815260040161216f90615fdb565b60405180910390fd5b5f73ffffffffffffffffffffffffffffffffffffffff168273ffffffffffffffffffffffffffffffffffffffff16036121e6576040517f08c379a00000000000000000000000000000000000000000000000000000000081526004016121dd90616043565b60405180910390fd5b600460068111156121fa576121f961513f565b5b60075f8681526020019081526020015f206009015f9054906101000a900460ff16600681111561222d5761222c61513f565b5b0361226d576040517f08c379a0000000000000000000000000000000000000000000000000000000008152600401612264906160ab565b60405180910390fd5b612289838386600160405180602001604052805f81525061344d565b8173ffffffffffffffffffffffffffffffffffffffff168373ffffffffffffffffffffffffffffffffffffffff16857f8ec725dd8a48772a420e3a3a551add447b24fe29b5093e41922437ab8f90585484426040516122e9929190615baa565b60405180910390a450505050565b5f8060075f8581526020019081526020015f20600a01540361234e576040517f08c379a0000000000000000000000000000000000000000000000000000000008152600401612345906158ee565b60405180910390fd5b8160075f8581526020019081526020015f206007015414905092915050565b6007602052805f5260405f205f91509050805f01805461238c9061598d565b80601f01602080910402602001604051908101604052809291908181526020018280546123b89061598d565b80156124035780601f106123da57610100808354040283529160200191612403565b820191905f5260205f20905b8154815290600101906020018083116123e657829003601f168201915b5050505050908060010180546124189061598d565b80601f01602080910402602001604051908101604052809291908181526020018280546124449061598d565b801561248f5780601f106124665761010080835404028352916020019161248f565b820191905f5260205f20905b81548152906001019060200180831161247257829003601f168201915b5050505050908060020180546124a49061598d565b80601f01602080910402602001604051908101604052809291908181526020018280546124d09061598d565b801561251b5780601f106124f25761010080835404028352916020019161251b565b820191905f5260205f20905b8154815290600101906020018083116124fe57829003601f168201915b505050505090806003015490806004015490806005015490806006015f9054906101000a900460ff169080600701549080600801805461255a9061598d565b80601f01602080910402602001604051908101604052809291908181526020018280546125869061598d565b80156125d15780601f106125a8576101008083540402835291602001916125d1565b820191905f5260205f20905b8154815290600101906020018083116125b457829003601f168201915b505050505090806009015f9054906101000a900460ff169080600a01549080600b015f9054906101000a900460ff1690508c565b60045f9054906101000a900473ffffffffffffffffffffffffffffffffffffffff1673ffffffffffffffffffffffffffffffffffffffff16638cbdcead33604080518363ffffffff1660e01b8152600401612661929190615ab6565b602060405180830381865afa15801561267c573d5f803e3d5ffd5b505050506040513d601f19601f820116820180604052508101906126a09190615af1565b6126df576040517f08c379a00000000000000000000000000000000000000000000000000000000081526004016126d690615d10565b60405180910390fd5b6001600c5f8373ffffffffffffffffffffffffffffffffffffffff1673ffffffffffffffffffffffffffffffffffffffff1681526020019081526020015f205f6101000a81548160ff0219169083151502179055508073ffffffffffffffffffffffffffffffffffffffff167f0f2ab3269df45d41960fdf14c84cd22dfb81c269985eecc7ee6b93764639ae4560014260405161277d929190615d2e565b60405180910390a250565b5f8060075f8481526020019081526020015f206009015f9054906101000a900460ff169050600360068111156127c1576127c061513f565b5b8160068111156127d4576127d361513f565b5b14806128045750600260068111156127ef576127ee61513f565b5b8160068111156128025761280161513f565b5b145b915050919050565b5f60015f8473ffffffffffffffffffffffffffffffffffffffff1673ffffffffffffffffffffffffffffffffffffffff1681526020019081526020015f205f8373ffffffffffffffffffffffffffffffffffffffff1673ffffffffffffffffffffffffffffffffffffffff1681526020019081526020015f205f9054906101000a900460ff16905092915050565b5f6128a3612fd7565b90508073ffffffffffffffffffffffffffffffffffffffff168673ffffffffffffffffffffffffffffffffffffffff16141580156128e857506128e6868261280c565b155b1561292c5780866040517fe237d922000000000000000000000000000000000000000000000000000000008152600401612923929190615c79565b60405180910390fd5b612939868686868661344d565b505050505050565b6129496130f8565b5f73ffffffffffffffffffffffffffffffffffffffff168173ffffffffffffffffffffffffffffffffffffffff16036129b9575f6040517f1e4fbdf70000000000000000000000000000000000000000000000000000000081526004016129b09190614c78565b60405180910390fd5b6129c28161317f565b50565b600b818051602081018201805184825260208301602085012081835280955050505050505f915090505481565b600d602052805f5260405f205f915054906101000a900460ff1681565b5f60045f9054906101000a900473ffffffffffffffffffffffffffffffffffffffff1673ffffffffffffffffffffffffffffffffffffffff16638cbdcead3360016040518363ffffffff1660e01b8152600401612a6d929190615ab6565b602060405180830381865afa158015612a88573d5f803e3d5ffd5b505050506040513d601f19601f82011682018060405250810190612aac9190615af1565b612aeb576040517f08c379a0000000000000000000000000000000000000000000000000000000008152600401612ae290616139565b60405180910390fd5b600a82604051612afb9190615aa0565b90815260200160405180910390205f9054906101000a900460ff1615612b56576040517f08c379a0000000000000000000000000000000000000000000000000000000008152600401612b4d906161a1565b60405180910390fd5b6001600a83604051612b689190615aa0565b90815260200160405180910390205f6101000a81548160ff0219169083151502179055505f612b978b8b613553565b905060085f8281526020019081526020015f205f9054906101000a900460ff1615612bf7576040517f08c379a0000000000000000000000000000000000000000000000000000000008152600401612bee90616209565b60405180910390fd5b600160085f8381526020019081526020015f205f6101000a81548160ff0219169083151502179055505f60065f815480929190612c3390615c05565b9190505590505f6127108a8c612c499190616227565b612c539190616295565b9050604051806101800160405280612c6a84613585565b604051602001612c7a919061630f565b60405160208183030381529060405281526020018e81526020018d81526020018c81526020018b81526020018281526020018a6003811115612cbf57612cbe61513f565b5b81526020018981526020018881526020015f6006811115612ce357612ce261513f565b5b815260200142815260200187151581525060075f8481526020019081526020015f205f820151815f019081612d1891906164b2565b506020820151816001019081612d2e91906164b2565b506040820151816002019081612d4491906164b2565b50606082015181600301556080820151816004015560a0820151816005015560c0820151816006015f6101000a81548160ff02191690836003811115612d8d57612d8c61513f565b5b021790555060e08201518160070155610100820151816008019081612db291906164b2565b50610120820151816009015f6101000a81548160ff02191690836006811115612dde57612ddd61513f565b5b021790555061014082015181600a015561016082015181600b015f6101000a81548160ff0219169083151502179055509050508d60095f8481526020019081526020015f205f6101000a81548173ffffffffffffffffffffffffffffffffffffffff021916908373ffffffffffffffffffffffffffffffffffffffff16021790555081600b86604051612e719190615aa0565b908152602001604051809103902081905550612e9e8e83600160405180602001604052805f81525061364f565b8d73ffffffffffffffffffffffffffffffffffffffff16827f932fb8f9d495becdde3eacf21ebe2745661a8fa6948a458f8eb2bd242bcda69d8f8f8f8f42604051612eed959493929190616581565b60405180910390a38d73ffffffffffffffffffffffffffffffffffffffff168286604051612f1b9190615aa0565b60405180910390207f668955a820819a04e294e0bebb8424dbb3fc596648f7d09ad40153fe8d0ab02042604051612f5291906147e7565b60405180910390a48193505050509a9950505050505050505050565b5f7f01ffc9a7000000000000000000000000000000000000000000000000000000007bffffffffffffffffffffffffffffffffffffffffffffffffffffffff1916827bffffffffffffffffffffffffffffffffffffffffffffffffffffffff1916149050919050565b5f33905090565b5f73ffffffffffffffffffffffffffffffffffffffff168473ffffffffffffffffffffffffffffffffffffffff160361304e575f6040517f57f447ce0000000000000000000000000000000000000000000000000000000081526004016130459190614c78565b60405180910390fd5b5f73ffffffffffffffffffffffffffffffffffffffff168573ffffffffffffffffffffffffffffffffffffffff16036130be575f6040517f01a835140000000000000000000000000000000000000000000000000000000081526004016130b59190614c78565b60405180910390fd5b6130cb85858585856136e4565b5050505050565b5f60208202602084010151905092915050565b5f60208202602084010151905092915050565b613100612fd7565b73ffffffffffffffffffffffffffffffffffffffff1661311e61179d565b73ffffffffffffffffffffffffffffffffffffffff161461317d57613141612fd7565b6040517f118cdaa70000000000000000000000000000000000000000000000000000000081526004016131749190614c78565b60405180910390fd5b565b5f60035f9054906101000a900473ffffffffffffffffffffffffffffffffffffffff1690508160035f6101000a81548173ffffffffffffffffffffffffffffffffffffffff021916908373ffffffffffffffffffffffffffffffffffffffff1602179055508173ffffffffffffffffffffffffffffffffffffffff168173ffffffffffffffffffffffffffffffffffffffff167f8be0079c531659141344cd1fd0a4f28419497f9722a3daafe3b4186f6b6457e060405160405180910390a35050565b5f73ffffffffffffffffffffffffffffffffffffffff168273ffffffffffffffffffffffffffffffffffffffff16036132b2575f6040517fced3e1000000000000000000000000000000000000000000000000000000000081526004016132a99190614c78565b60405180910390fd5b8060015f8573ffffffffffffffffffffffffffffffffffffffff1673ffffffffffffffffffffffffffffffffffffffff1681526020019081526020015f205f8473ffffffffffffffffffffffffffffffffffffffff1673ffffffffffffffffffffffffffffffffffffffff1681526020019081526020015f205f6101000a81548160ff0219169083151502179055508173ffffffffffffffffffffffffffffffffffffffff168373ffffffffffffffffffffffffffffffffffffffff167f17307eab39ab6107e8899845ad3d59bd9653f200f220920489ca2b5937696c318360405161339e919061489a565b60405180910390a3505050565b5f73ffffffffffffffffffffffffffffffffffffffff168373ffffffffffffffffffffffffffffffffffffffff160361341b575f6040517f01a835140000000000000000000000000000000000000000000000000000000081526004016134129190614c78565b60405180910390fd5b5f806134278484613790565b91509150613446855f848460405180602001604052805f8152506136e4565b5050505050565b5f73ffffffffffffffffffffffffffffffffffffffff168473ffffffffffffffffffffffffffffffffffffffff16036134bd575f6040517f57f447ce0000000000000000000000000000000000000000000000000000000081526004016134b49190614c78565b60405180910390fd5b5f73ffffffffffffffffffffffffffffffffffffffff168573ffffffffffffffffffffffffffffffffffffffff160361352d575f6040517f01a835140000000000000000000000000000000000000000000000000000000081526004016135249190614c78565b60405180910390fd5b5f806135398585613790565b9150915061354a87878484876136e4565b50505050505050565b5f82826040516020016135679291906165e0565b60405160208183030381529060405280519060200120905092915050565b60605f6001613593846137c0565b0190505f8167ffffffffffffffff8111156135b1576135b0614990565b5b6040519080825280601f01601f1916602001820160405280156135e35781602001600182028036833780820191505090505b5090505f82602083010190505b600115613644578080600190039150507f3031323334353637383961626364656600000000000000000000000000000000600a86061a8153600a858161363957613638616268565b5b0494505f85036135f0575b819350505050919050565b5f73ffffffffffffffffffffffffffffffffffffffff168473ffffffffffffffffffffffffffffffffffffffff16036136bf575f6040517f57f447ce0000000000000000000000000000000000000000000000000000000081526004016136b69190614c78565b60405180910390fd5b5f806136cb8585613790565b915091506136dc5f878484876136e4565b505050505050565b6136f085858585613911565b5f73ffffffffffffffffffffffffffffffffffffffff168473ffffffffffffffffffffffffffffffffffffffff1614613789575f61372c612fd7565b90506001845103613778575f61374b5f866130e590919063ffffffff16565b90505f6137615f866130e590919063ffffffff16565b9050613771838989858589613f8c565b5050613787565b61378681878787878761413b565b5b505b5050505050565b60608060405191506001825283602083015260408201905060018152826020820152604081016040529250929050565b5f805f90507a184f03e93ff9f4daa797ed6e38ed64bf6a1f010000000000000000831061381c577a184f03e93ff9f4daa797ed6e38ed64bf6a1f010000000000000000838161381257613811616268565b5b0492506040810190505b6d04ee2d6d415b85acef81000000008310613859576d04ee2d6d415b85acef8100000000838161384f5761384e616268565b5b0492506020810190505b662386f26fc10000831061388857662386f26fc10000838161387e5761387d616268565b5b0492506010810190505b6305f5e10083106138b1576305f5e10083816138a7576138a6616268565b5b0492506008810190505b61271083106138d65761271083816138cc576138cb616268565b5b0492506004810190505b606483106138f957606483816138ef576138ee616268565b5b0492506002810190505b600a8310613908576001810190505b80915050919050565b5f8073ffffffffffffffffffffffffffffffffffffffff168573ffffffffffffffffffffffffffffffffffffffff161415801561397a57505f73ffffffffffffffffffffffffffffffffffffffff168473ffffffffffffffffffffffffffffffffffffffff1614155b90505f8115613bdf5760045f9054906101000a900473ffffffffffffffffffffffffffffffffffffffff1673ffffffffffffffffffffffffffffffffffffffff16638cbdcead33604080518363ffffffff1660e01b81526004016139df929190615ab6565b602060405180830381865afa1580156139fa573d5f803e3d5ffd5b505050506040513d601f19601f82011682018060405250810190613a1e9190615af1565b905080613bde57600c5f8773ffffffffffffffffffffffffffffffffffffffff1673ffffffffffffffffffffffffffffffffffffffff1681526020019081526020015f205f9054906101000a900460ff168015613ac15750600c5f8673ffffffffffffffffffffffffffffffffffffffff1673ffffffffffffffffffffffffffffffffffffffff1681526020019081526020015f205f9054906101000a900460ff165b613b00576040517f08c379a0000000000000000000000000000000000000000000000000000000008152600401613af79061664d565b60405180910390fd5b600d5f8773ffffffffffffffffffffffffffffffffffffffff1673ffffffffffffffffffffffffffffffffffffffff1681526020019081526020015f205f9054906101000a900460ff16158015613b9e5750600d5f8673ffffffffffffffffffffffffffffffffffffffff1673ffffffffffffffffffffffffffffffffffffffff1681526020019081526020015f205f9054906101000a900460ff16155b613bdd576040517f08c379a0000000000000000000000000000000000000000000000000000000008152600401613bd4906166b5565b60405180910390fd5b5b5b613beb868686866142ea565b5f5b8451811015613f83576001848281518110613c0b57613c0a615c4c565b5b602002602001015103613f76575f858281518110613c2c57613c2b615c4c565b5b602002602001015190508315613cfb575f60075f8381526020019081526020015f206009015f9054906101000a900460ff16905060036006811115613c7457613c7361513f565b5b816006811115613c8757613c8661513f565b5b14158015613cba575060026006811115613ca457613ca361513f565b5b816006811115613cb757613cb661513f565b5b14155b613cf9576040517f08c379a0000000000000000000000000000000000000000000000000000000008152600401613cf09061671d565b60405180910390fd5b505b5f73ffffffffffffffffffffffffffffffffffffffff168873ffffffffffffffffffffffffffffffffffffffff16148015613d6257505f73ffffffffffffffffffffffffffffffffffffffff168773ffffffffffffffffffffffffffffffffffffffff1614155b15613dbb578660095f8381526020019081526020015f205f6101000a81548173ffffffffffffffffffffffffffffffffffffffff021916908373ffffffffffffffffffffffffffffffffffffffff160217905550613f74565b5f73ffffffffffffffffffffffffffffffffffffffff168873ffffffffffffffffffffffffffffffffffffffff1614158015613e2257505f73ffffffffffffffffffffffffffffffffffffffff168773ffffffffffffffffffffffffffffffffffffffff16145b15613e7b575f60095f8381526020019081526020015f205f6101000a81548173ffffffffffffffffffffffffffffffffffffffff021916908373ffffffffffffffffffffffffffffffffffffffff160217905550613f73565b8315613f72575f60095f8381526020019081526020015f205f9054906101000a900473ffffffffffffffffffffffffffffffffffffffff1690508760095f8481526020019081526020015f205f6101000a81548173ffffffffffffffffffffffffffffffffffffffff021916908373ffffffffffffffffffffffffffffffffffffffff16021790555083613f70578773ffffffffffffffffffffffffffffffffffffffff168173ffffffffffffffffffffffffffffffffffffffff16837f8ec725dd8a48772a420e3a3a551add447b24fe29b5093e41922437ab8f90585442604051613f679190616785565b60405180910390a45b505b5b5b505b8080600101915050613bed565b50505050505050565b5f8473ffffffffffffffffffffffffffffffffffffffff163b1115614133578373ffffffffffffffffffffffffffffffffffffffff1663f23a6e6187878686866040518663ffffffff1660e01b8152600401613fec959493929190616803565b6020604051808303815f875af192505050801561402757506040513d601f19601f82011682018060405250810190614024919061686f565b60015b6140a8573d805f8114614055576040519150601f19603f3d011682016040523d82523d5f602084013e61405a565b606091505b505f8151036140a057846040517f57f447ce0000000000000000000000000000000000000000000000000000000081526004016140979190614c78565b60405180910390fd5b805160208201fd5b63f23a6e6160e01b7bffffffffffffffffffffffffffffffffffffffffffffffffffffffff1916817bffffffffffffffffffffffffffffffffffffffffffffffffffffffff19161461413157846040517f57f447ce0000000000000000000000000000000000000000000000000000000081526004016141289190614c78565b60405180910390fd5b505b505050505050565b5f8473ffffffffffffffffffffffffffffffffffffffff163b11156142e2578373ffffffffffffffffffffffffffffffffffffffff1663bc197c8187878686866040518663ffffffff1660e01b815260040161419b95949392919061689a565b6020604051808303815f875af19250505080156141d657506040513d601f19601f820116820180604052508101906141d3919061686f565b60015b614257573d805f8114614204576040519150601f19603f3d011682016040523d82523d5f602084013e614209565b606091505b505f81510361424f57846040517f57f447ce0000000000000000000000000000000000000000000000000000000081526004016142469190614c78565b60405180910390fd5b805160208201fd5b63bc197c8160e01b7bffffffffffffffffffffffffffffffffffffffffffffffffffffffff1916817bffffffffffffffffffffffffffffffffffffffffffffffffffffffff1916146142e057846040517f57f447ce0000000000000000000000000000000000000000000000000000000081526004016142d79190614c78565b60405180910390fd5b505b505050505050565b805182511461433457815181516040517f5b05999100000000000000000000000000000000000000000000000000000000815260040161432b929190615dbd565b60405180910390fd5b5f61433d612fd7565b90505f5b8351811015614539575f61435e82866130e590919063ffffffff16565b90505f61437483866130e590919063ffffffff16565b90505f73ffffffffffffffffffffffffffffffffffffffff168873ffffffffffffffffffffffffffffffffffffffff1614614497575f805f8481526020019081526020015f205f8a73ffffffffffffffffffffffffffffffffffffffff1673ffffffffffffffffffffffffffffffffffffffff1681526020019081526020015f205490508181101561444357888183856040517f03dee4c500000000000000000000000000000000000000000000000000000000815260040161443a9493929190616900565b60405180910390fd5b8181035f808581526020019081526020015f205f8b73ffffffffffffffffffffffffffffffffffffffff1673ffffffffffffffffffffffffffffffffffffffff1681526020019081526020015f2081905550505b5f73ffffffffffffffffffffffffffffffffffffffff168773ffffffffffffffffffffffffffffffffffffffff161461452c57805f808481526020019081526020015f205f8973ffffffffffffffffffffffffffffffffffffffff1673ffffffffffffffffffffffffffffffffffffffff1681526020019081526020015f205f8282546145249190616943565b925050819055505b5050806001019050614341565b5060018351036145f4575f6145575f856130e590919063ffffffff16565b90505f61456d5f856130e590919063ffffffff16565b90508573ffffffffffffffffffffffffffffffffffffffff168773ffffffffffffffffffffffffffffffffffffffff168473ffffffffffffffffffffffffffffffffffffffff167fc3d58168c5ae7397731d063d5bbf3d657854427343f4c083240f7aacaa2d0f6285856040516145e5929190615dbd565b60405180910390a45050614673565b8373ffffffffffffffffffffffffffffffffffffffff168573ffffffffffffffffffffffffffffffffffffffff168273ffffffffffffffffffffffffffffffffffffffff167f4a39dc06d4c0dbc64b70af90fd698a233a518aa5d07e595d983b8c0526c8f7fb868660405161466a929190616976565b60405180910390a45b5050505050565b6040518061018001604052806060815260200160608152602001606081526020015f81526020015f81526020015f81526020015f60038111156146c0576146bf61513f565b5b81526020015f8019168152602001606081526020015f60068111156146e8576146e761513f565b5b81526020015f81526020015f151581525090565b5f604051905090565b5f80fd5b5f80fd5b5f73ffffffffffffffffffffffffffffffffffffffff82169050919050565b5f6147368261470d565b9050919050565b6147468161472c565b8114614750575f80fd5b50565b5f813590506147618161473d565b92915050565b5f819050919050565b61477981614767565b8114614783575f80fd5b50565b5f8135905061479481614770565b92915050565b5f80604083850312156147b0576147af614705565b5b5f6147bd85828601614753565b92505060206147ce85828601614786565b9150509250929050565b6147e181614767565b82525050565b5f6020820190506147fa5f8301846147d8565b92915050565b5f7fffffffff0000000000000000000000000000000000000000000000000000000082169050919050565b61483481614800565b811461483e575f80fd5b50565b5f8135905061484f8161482b565b92915050565b5f6020828403121561486a57614869614705565b5b5f61487784828501614841565b91505092915050565b5f8115159050919050565b61489481614880565b82525050565b5f6020820190506148ad5f83018461488b565b92915050565b5f602082840312156148c8576148c7614705565b5b5f6148d584828501614786565b91505092915050565b5f81519050919050565b5f82825260208201905092915050565b5f5b838110156149155780820151818401526020810190506148fa565b5f8484015250505050565b5f601f19601f8301169050919050565b5f61493a826148de565b61494481856148e8565b93506149548185602086016148f8565b61495d81614920565b840191505092915050565b5f6020820190508181035f8301526149808184614930565b905092915050565b5f80fd5b5f80fd5b7f4e487b71000000000000000000000000000000000000000000000000000000005f52604160045260245ffd5b6149c682614920565b810181811067ffffffffffffffff821117156149e5576149e4614990565b5b80604052505050565b5f6149f76146fc565b9050614a0382826149bd565b919050565b5f67ffffffffffffffff821115614a2257614a21614990565b5b614a2b82614920565b9050602081019050919050565b828183375f83830152505050565b5f614a58614a5384614a08565b6149ee565b905082815260208101848484011115614a7457614a7361498c565b5b614a7f848285614a38565b509392505050565b5f82601f830112614a9b57614a9a614988565b5b8135614aab848260208601614a46565b91505092915050565b5f60208284031215614ac957614ac8614705565b5b5f82013567ffffffffffffffff811115614ae657614ae5614709565b5b614af284828501614a87565b91505092915050565b5f805f60608486031215614b1257614b11614705565b5b5f614b1f86828701614786565b9350506020614b3086828701614753565b925050604084013567ffffffffffffffff811115614b5157614b50614709565b5b614b5d86828701614a87565b9150509250925092565b5f60208284031215614b7c57614b7b614705565b5b5f614b8984828501614753565b91505092915050565b5f81519050919050565b5f82825260208201905092915050565b5f819050602082019050919050565b614bc481614767565b82525050565b5f614bd58383614bbb565b60208301905092915050565b5f602082019050919050565b5f614bf782614b92565b614c018185614b9c565b9350614c0c83614bac565b805f5b83811015614c3c578151614c238882614bca565b9750614c2e83614be1565b925050600181019050614c0f565b5085935050505092915050565b5f6020820190508181035f830152614c618184614bed565b905092915050565b614c728161472c565b82525050565b5f602082019050614c8b5f830184614c69565b92915050565b5f67ffffffffffffffff821115614cab57614caa614990565b5b602082029050602081019050919050565b5f80fd5b5f614cd2614ccd84614c91565b6149ee565b90508083825260208201905060208402830185811115614cf557614cf4614cbc565b5b835b81811015614d1e5780614d0a8882614786565b845260208401935050602081019050614cf7565b5050509392505050565b5f82601f830112614d3c57614d3b614988565b5b8135614d4c848260208601614cc0565b91505092915050565b5f67ffffffffffffffff821115614d6f57614d6e614990565b5b614d7882614920565b9050602081019050919050565b5f614d97614d9284614d55565b6149ee565b905082815260208101848484011115614db357614db261498c565b5b614dbe848285614a38565b509392505050565b5f82601f830112614dda57614dd9614988565b5b8135614dea848260208601614d85565b91505092915050565b5f805f805f60a08688031215614e0c57614e0b614705565b5b5f614e1988828901614753565b9550506020614e2a88828901614753565b945050604086013567ffffffffffffffff811115614e4b57614e4a614709565b5b614e5788828901614d28565b935050606086013567ffffffffffffffff811115614e7857614e77614709565b5b614e8488828901614d28565b925050608086013567ffffffffffffffff811115614ea557614ea4614709565b5b614eb188828901614dc6565b9150509295509295909350565b5f67ffffffffffffffff821115614ed857614ed7614990565b5b602082029050602081019050919050565b5f614efb614ef684614ebe565b6149ee565b90508083825260208201905060208402830185811115614f1e57614f1d614cbc565b5b835b81811015614f475780614f338882614753565b845260208401935050602081019050614f20565b5050509392505050565b5f82601f830112614f6557614f64614988565b5b8135614f75848260208601614ee9565b91505092915050565b5f8060408385031215614f9457614f93614705565b5b5f83013567ffffffffffffffff811115614fb157614fb0614709565b5b614fbd85828601614f51565b925050602083013567ffffffffffffffff811115614fde57614fdd614709565b5b614fea85828601614d28565b9150509250929050565b5f819050919050565b5f61501761501261500d8461470d565b614ff4565b61470d565b9050919050565b5f61502882614ffd565b9050919050565b5f6150398261501e565b9050919050565b6150498161502f565b82525050565b5f6020820190506150625f830184615040565b92915050565b60078110615074575f80fd5b50565b5f8135905061508581615068565b92915050565b5f805f606084860312156150a2576150a1614705565b5b5f6150af86828701614786565b93505060206150c086828701615077565b925050604084013567ffffffffffffffff8111156150e1576150e0614709565b5b6150ed86828701614a87565b9150509250925092565b5f82825260208201905092915050565b5f615111826148de565b61511b81856150f7565b935061512b8185602086016148f8565b61513481614920565b840191505092915050565b7f4e487b71000000000000000000000000000000000000000000000000000000005f52602160045260245ffd5b6004811061517d5761517c61513f565b5b50565b5f81905061518d8261516c565b919050565b5f61519c82615180565b9050919050565b6151ac81615192565b82525050565b5f819050919050565b6151c4816151b2565b82525050565b600781106151db576151da61513f565b5b50565b5f8190506151eb826151ca565b919050565b5f6151fa826151de565b9050919050565b61520a816151f0565b82525050565b61521981614880565b82525050565b5f61018083015f8301518482035f86015261523a8282615107565b915050602083015184820360208601526152548282615107565b9150506040830151848203604086015261526e8282615107565b91505060608301516152836060860182614bbb565b5060808301516152966080860182614bbb565b5060a08301516152a960a0860182614bbb565b5060c08301516152bc60c08601826151a3565b5060e08301516152cf60e08601826151bb565b506101008301518482036101008601526152e98282615107565b915050610120830151615300610120860182615201565b50610140830151615315610140860182614bbb565b5061016083015161532a610160860182615210565b508091505092915050565b5f6020820190508181035f83015261534d818461521f565b905092915050565b61535e81614880565b8114615368575f80fd5b50565b5f8135905061537981615355565b92915050565b5f806040838503121561539557615394614705565b5b5f6153a285828601614753565b92505060206153b38582860161536b565b9150509250929050565b5f6153c78261501e565b9050919050565b6153d7816153bd565b82525050565b5f6020820190506153f05f8301846153ce565b92915050565b5f805f6060848603121561540d5761540c614705565b5b5f61541a86828701614786565b935050602084013567ffffffffffffffff81111561543b5761543a614709565b5b61544786828701614a87565b925050604084013567ffffffffffffffff81111561546857615467614709565b5b61547486828701614a87565b9150509250925092565b5f805f806080858703121561549657615495614705565b5b5f6154a387828801614786565b94505060206154b487828801614753565b93505060406154c587828801614753565b925050606085013567ffffffffffffffff8111156154e6576154e5614709565b5b6154f287828801614a87565b91505092959194509250565b615507816151b2565b8114615511575f80fd5b50565b5f81359050615522816154fe565b92915050565b5f806040838503121561553e5761553d614705565b5b5f61554b85828601614786565b925050602061555c85828601615514565b9150509250929050565b61556f81615192565b82525050565b61557e816151b2565b82525050565b61558d816151f0565b82525050565b5f610180820190508181035f8301526155ac818f614930565b905081810360208301526155c0818e614930565b905081810360408301526155d4818d614930565b90506155e3606083018c6147d8565b6155f0608083018b6147d8565b6155fd60a083018a6147d8565b61560a60c0830189615566565b61561760e0830188615575565b81810361010083015261562a8187614930565b905061563a610120830186615584565b6156486101408301856147d8565b61565661016083018461488b565b9d9c50505050505050505050505050565b5f806040838503121561567d5761567c614705565b5b5f61568a85828601614753565b925050602061569b85828601614753565b9150509250929050565b5f805f805f60a086880312156156be576156bd614705565b5b5f6156cb88828901614753565b95505060206156dc88828901614753565b94505060406156ed88828901614786565b93505060606156fe88828901614786565b925050608086013567ffffffffffffffff81111561571f5761571e614709565b5b61572b88828901614dc6565b9150509295509295909350565b60048110615744575f80fd5b50565b5f8135905061575581615738565b92915050565b5f805f805f805f805f806101408b8d03121561577a57615779614705565b5b5f6157878d828e01614753565b9a505060208b013567ffffffffffffffff8111156157a8576157a7614709565b5b6157b48d828e01614a87565b99505060408b013567ffffffffffffffff8111156157d5576157d4614709565b5b6157e18d828e01614a87565b98505060606157f28d828e01614786565b97505060806158038d828e01614786565b96505060a06158148d828e01615747565b95505060c06158258d828e01615514565b94505060e08b013567ffffffffffffffff81111561584657615845614709565b5b6158528d828e01614a87565b9350506101006158648d828e0161536b565b9250506101208b013567ffffffffffffffff81111561588657615885614709565b5b6158928d828e01614a87565b9150509295989b9194979a5092959850565b7f417373657420646f6573206e6f742065786973740000000000000000000000005f82015250565b5f6158d86014836148e8565b91506158e3826158a4565b602082019050919050565b5f6020820190508181035f830152615905816158cc565b9050919050565b5f81905092915050565b7f697066733a2f2f000000000000000000000000000000000000000000000000005f82015250565b5f61594a60078361590c565b915061595582615916565b600782019050919050565b7f4e487b71000000000000000000000000000000000000000000000000000000005f52602260045260245ffd5b5f60028204905060018216806159a457607f821691505b6020821081036159b7576159b6615960565b5b50919050565b5f819050815f5260205f209050919050565b5f81546159db8161598d565b6159e5818661590c565b9450600182165f81146159ff5760018114615a1457615a46565b60ff1983168652811515820286019350615a46565b615a1d856159bd565b5f5b83811015615a3e57815481890152600182019150602081019050615a1f565b838801955050505b50505092915050565b5f615a598261593e565b9150615a6582846159cf565b915081905092915050565b5f615a7a826148de565b615a84818561590c565b9350615a948185602086016148f8565b80840191505092915050565b5f615aab8284615a70565b915081905092915050565b5f604082019050615ac95f830185614c69565b615ad660208301846147d8565b9392505050565b5f81519050615aeb81615355565b92915050565b5f60208284031215615b0657615b05614705565b5b5f615b1384828501615add565b91505092915050565b7f4e6f7420617574686f72697a65643a204f776e6572206f7220435553544f44495f8201527f414e20726f6c6520726571756972656400000000000000000000000000000000602082015250565b5f615b766030836148e8565b9150615b8182615b1c565b604082019050919050565b5f6020820190508181035f830152615ba381615b6a565b9050919050565b5f6040820190508181035f830152615bc28185614930565b9050615bd160208301846147d8565b9392505050565b7f4e487b71000000000000000000000000000000000000000000000000000000005f52601160045260245ffd5b5f615c0f82614767565b91507fffffffffffffffffffffffffffffffffffffffffffffffffffffffffffffffff8203615c4157615c40615bd8565b5b600182019050919050565b7f4e487b71000000000000000000000000000000000000000000000000000000005f52603260045260245ffd5b5f604082019050615c8c5f830185614c69565b615c996020830184614c69565b9392505050565b7f4e6f7420617574686f72697a65643a20504c4154464f524d20726f6c652072655f8201527f7175697265640000000000000000000000000000000000000000000000000000602082015250565b5f615cfa6026836148e8565b9150615d0582615ca0565b604082019050919050565b5f6020820190508181035f830152615d2781615cee565b9050919050565b5f604082019050615d415f83018561488b565b615d4e60208301846147d8565b9392505050565b7f57617272616e74206e6f742075736564000000000000000000000000000000005f82015250565b5f615d896010836148e8565b9150615d9482615d55565b602082019050919050565b5f6020820190508181035f830152615db681615d7d565b9050919050565b5f604082019050615dd05f8301856147d8565b615ddd60208301846147d8565b9392505050565b7f43616e6e6f7420757064617465206275726e65642061737365740000000000005f82015250565b5f615e18601a836148e8565b9150615e2382615de4565b602082019050919050565b5f6020820190508181035f830152615e4581615e0c565b9050919050565b5f608082019050615e5f5f830187615584565b615e6c6020830186615584565b8181036040830152615e7e8185614930565b9050615e8d60608301846147d8565b95945050505050565b7f417373657420616c7265616479206275726e65640000000000000000000000005f82015250565b5f615eca6014836148e8565b9150615ed582615e96565b602082019050919050565b5f6020820190508181035f830152615ef781615ebe565b9050919050565b5f819050919050565b5f819050919050565b5f615f2a615f25615f2084615efe565b614ff4565b615f07565b9050919050565b615f3a81615f10565b82525050565b5f6080820190508181035f830152615f588187614930565b9050615f676020830186615f31565b8181036040830152615f798185614930565b9050615f8860608301846147d8565b95945050505050565b7f496e76616c69642066726f6d20616464726573730000000000000000000000005f82015250565b5f615fc56014836148e8565b9150615fd082615f91565b602082019050919050565b5f6020820190508181035f830152615ff281615fb9565b9050919050565b7f496e76616c696420746f206164647265737300000000000000000000000000005f82015250565b5f61602d6012836148e8565b915061603882615ff9565b602082019050919050565b5f6020820190508181035f83015261605a81616021565b9050919050565b7f4173736574206275726e656400000000000000000000000000000000000000005f82015250565b5f616095600c836148e8565b91506160a082616061565b602082019050919050565b5f6020820190508181035f8301526160c281616089565b9050919050565b7f4e6f7420617574686f72697a65643a20524546494e455220726f6c65207265715f8201527f7569726564000000000000000000000000000000000000000000000000000000602082015250565b5f6161236025836148e8565b915061612e826160c9565b604082019050919050565b5f6020820190508181035f83015261615081616117565b9050919050565b7f57617272616e7420616c726561647920757365640000000000000000000000005f82015250565b5f61618b6014836148e8565b915061619682616157565b602082019050919050565b5f6020820190508181035f8301526161b88161617f565b9050919050565b7f417373657420616c7265616479207265676973746572656400000000000000005f82015250565b5f6161f36018836148e8565b91506161fe826161bf565b602082019050919050565b5f6020820190508181035f830152616220816161e7565b9050919050565b5f61623182614767565b915061623c83614767565b925082820261624a81614767565b9150828204841483151761626157616260615bd8565b5b5092915050565b7f4e487b71000000000000000000000000000000000000000000000000000000005f52601260045260245ffd5b5f61629f82614767565b91506162aa83614767565b9250826162ba576162b9616268565b5b828204905092915050565b7f474946542d41535345542d0000000000000000000000000000000000000000005f82015250565b5f6162f9600b8361590c565b9150616304826162c5565b600b82019050919050565b5f616319826162ed565b91506163258284615a70565b915081905092915050565b5f6020601f8301049050919050565b5f82821b905092915050565b5f6008830261637a7fffffffffffffffffffffffffffffffffffffffffffffffffffffffffffffffff8261633f565b616384868361633f565b95508019841693508086168417925050509392505050565b5f6163b66163b16163ac84614767565b614ff4565b614767565b9050919050565b5f819050919050565b6163cf8361639c565b6163e36163db826163bd565b84845461634b565b825550505050565b5f90565b6163f76163eb565b6164028184846163c6565b505050565b5b818110156164255761641a5f826163ef565b600181019050616408565b5050565b601f82111561646a5761643b816159bd565b61644484616330565b81016020851015616453578190505b61646761645f85616330565b830182616407565b50505b505050565b5f82821c905092915050565b5f61648a5f198460080261646f565b1980831691505092915050565b5f6164a2838361647b565b9150826002028217905092915050565b6164bb826148de565b67ffffffffffffffff8111156164d4576164d3614990565b5b6164de825461598d565b6164e9828285616429565b5f60209050601f83116001811461651a575f8415616508578287015190505b6165128582616497565b865550616579565b601f198416616528866159bd565b5f5b8281101561654f5784890151825560018201915060208501945060208101905061652a565b8683101561656c5784890151616568601f89168261647b565b8355505b6001600288020188555050505b505050505050565b5f60a0820190508181035f8301526165998188614930565b905081810360208301526165ad8187614930565b90506165bc60408301866147d8565b6165c960608301856147d8565b6165d660808301846147d8565b9695505050505050565b5f6165eb8285615a70565b91506165f78284615a70565b91508190509392505050565b7f5472616e73666572206e6f742077686974656c697374656400000000000000005f82015250565b5f6166376018836148e8565b915061664282616603565b602082019050919050565b5f6020820190508181035f8301526166648161662b565b9050919050565b7f4164647265737320626c61636b6c6973746564000000000000000000000000005f82015250565b5f61669f6013836148e8565b91506166aa8261666b565b602082019050919050565b5f6020820190508181035f8301526166cc81616693565b9050919050565b7f4173736574206c6f636b656400000000000000000000000000000000000000005f82015250565b5f616707600c836148e8565b9150616712826166d3565b602082019050919050565b5f6020820190508181035f830152616734816166fb565b9050919050565b7f5452414e534645520000000000000000000000000000000000000000000000005f82015250565b5f61676f6008836148e8565b915061677a8261673b565b602082019050919050565b5f6040820190508181035f83015261679c81616763565b90506167ab60208301846147d8565b92915050565b5f81519050919050565b5f82825260208201905092915050565b5f6167d5826167b1565b6167df81856167bb565b93506167ef8185602086016148f8565b6167f881614920565b840191505092915050565b5f60a0820190506168165f830188614c69565b6168236020830187614c69565b61683060408301866147d8565b61683d60608301856147d8565b818103608083015261684f81846167cb565b90509695505050505050565b5f815190506168698161482b565b92915050565b5f6020828403121561688457616883614705565b5b5f6168918482850161685b565b91505092915050565b5f60a0820190506168ad5f830188614c69565b6168ba6020830187614c69565b81810360408301526168cc8186614bed565b905081810360608301526168e08185614bed565b905081810360808301526168f481846167cb565b90509695505050505050565b5f6080820190506169135f830187614c69565b61692060208301866147d8565b61692d60408301856147d8565b61693a60608301846147d8565b95945050505050565b5f61694d82614767565b915061695883614767565b92508282019050808211156169705761696f615bd8565b5b92915050565b5f6040820190508181035f83015261698e8185614bed565b905081810360208301526169a28184614bed565b9050939250505056fea26469706673582212207c8a23ca5996ff91265a9493597a2944c3c438877e4f582d9a76bed91aad5d3c64736f6c63430008180033","linkReferences":{}},"methodIdentifiers":{"accountLedger()":"5defa55e","addToBlacklist(address)":"44337ea1","addToWhitelist(address)":"e43252d7","assetOwner(uint256)":"2a0ee644","assets(uint256)":"cf35bdd0","balanceOf(address,uint256)":"00fdd58e","balanceOfBatch(address[],uint256[])":"4e1273f4","blacklist(address)":"f9f92be4","burn(uint256,string,string)":"ba211db0","forceTransfer(uint256,address,address,string)":"c19b8c66","getAssetDetails(uint256)":"a1f24b3d","getAssetsByOwner(address)":"276f0934","getTokenByWarrant(string)":"4873124d","isApprovedForAll(address,address)":"e985e9c5","isAssetLocked(uint256)":"e7e55295","isWarrantUsed(string)":"26471651","memberRegistry()":"a74d4772","mint(address,string,string,uint256,uint256,uint8,bytes32,string,bool,string)":"fb996820","owner()":"8da5cb5b","removeFromBlacklist(address)":"537df3b6","removeFromWhitelist(address)":"8ab1d681","renounceOwnership()":"715018a6","safeBatchTransferFrom(address,address,uint256[],uint256[],bytes)":"2eb2c2d6","safeTransferFrom(address,address,uint256,uint256,bytes)":"f242432a","setAccountLedger(address)":"59317b7a","setApprovalForAll(address,bool)":"a22cb465","setMemberRegistry(address)":"6fd7c34c","supportsInterface(bytes4)":"01ffc9a7","transferOwnership(address)":"f2fde38b","updateCustody(uint256,address,string)":"27329eb7","updateStatus(uint256,uint8,string)":"781f0b72","uri(uint256)":"0e89341c","verifyCertificate(uint256,bytes32)":"c3b451a2","warrantToToken(string)":"f5dca3ca","whitelist(address)":"9b19251a"},"id":0}