{"abi":[{"type":"constructor","inputs":[{"name":"_memberRegistry","type":"address","internalType":"address"},{"name":"_accountLedger","type":"address","internalType":"address"}],"stateMutability":"nonpayable"},{"type":"function","name":"accountLedger","inputs":[],"outputs":[{"name":"","type":"address","internalType":"contract IGoldAccountLedger"}],"stateMutability":"view"},{"type":"function","name":"addToBlacklist","inputs":[{"name":"account","type":"address","internalType":"address"}],"outputs":[],"stateMutability":"nonpayable"},{"type":"function","name":"addToWhitelist","inputs":[{"name":"account","type":"address","internalType":"address"}],"outputs":[],"stateMutability":"nonpayable"},{"type":"function","name":"assetOwner","inputs":[{"name":"","type":"uint256","internalType":"uint256"}],"outputs":[{"name":"","type":"address","internalType":"address"}],"stateMutability":"view"},{"type":"function","name":"assets","inputs":[{"name":"","type":"uint256","internalType":"uint256"}],"outputs":[{"name":"tokenId","type":"string","internalType":"string"},{"name":"serialNumber","type":"string","internalType":"string"},{"name":"refinerName","type":"string","internalType":"string"},{"name":"weightGrams","type":"uint256","internalType":"uint256"},{"name":"fineness","type":"uint256","internalType":"uint256"},{"name":"fineWeightGrams","type":"uint256","internalType":"uint256"},{"name":"productType","type":"uint8","internalType":"enum GoldAssetToken.GoldProductType"},{"name":"certificateHash","type":"bytes32","internalType":"bytes32"},{"name":"traceabilityGIC","type":"string","internalType":"string"},{"name":"status","type":"uint8","internalType":"enum GoldAssetToken.AssetStatus"},{"name":"mintedAt","type":"uint256","internalType":"uint256"},{"name":"certified","type":"bool","internalType":"bool"}],"stateMutability":"view"},{"type":"function","name":"balanceOf","inputs":[{"name":"account","type":"address","internalType":"address"},{"name":"id","type":"uint256","internalType":"uint256"}],"outputs":[{"name":"","type":"uint256","internalType":"uint256"}],"stateMutability":"view"},{"type":"function","name":"balanceOfBatch","inputs":[{"name":"accounts","type":"address[]","internalType":"address[]"},{"name":"ids","type":"uint256[]","internalType":"uint256[]"}],"outputs":[{"name":"","type":"uint256[]","internalType":"uint256[]"}],"stateMutability":"view"},{"type":"function","name":"blacklist","inputs":[{"name":"","type":"address","internalType":"address"}],"outputs":[{"name":"","type":"bool","internalType":"bool"}],"stateMutability":"view"},{"type":"function","name":"burn","inputs":[{"name":"tokenId","type":"uint256","internalType":"uint256"},{"name":"accountId","type":"string","internalType":"string"},{"name":"burnReason","type":"string","internalType":"string"}],"outputs":[],"stateMutability":"nonpayable"},{"type":"function","name":"forceTransfer","inputs":[{"name":"tokenId","type":"uint256","internalType":"uint256"},{"name":"from","type":"address","internalType":"address"},{"name":"to","type":"address","internalType":"address"},{"name":"reason","type":"string","internalType":"string"}],"outputs":[],"stateMutability":"nonpayable"},{"type":"function","name":"getAssetDetails","inputs":[{"name":"tokenId","type":"uint256","internalType":"uint256"}],"outputs":[{"name":"","type":"tuple","internalType":"struct GoldAssetToken.GoldAsset","components":[{"name":"tokenId","type":"string","internalType":"string"},{"name":"serialNumber","type":"string","internalType":"string"},{"name":"refinerName","type":"string","internalType":"string"},{"name":"weightGrams","type":"uint256","internalType":"uint256"},{"name":"fineness","type":"uint256","internalType":"uint256"},{"name":"fineWeightGrams","type":"uint256","internalType":"uint256"},{"name":"productType","type":"uint8","internalType":"enum GoldAssetToken.GoldProductType"},{"name":"certificateHash","type":"bytes32","internalType":"bytes32"},{"name":"traceabilityGIC","type":"string","internalType":"string"},{"name":"status","type":"uint8","internalType":"enum GoldAssetToken.AssetStatus"},{"name":"mintedAt","type":"uint256","internalType":"uint256"},{"name":"certified","type":"bool","internalType":"bool"}]}],"stateMutability":"view"},{"type":"function","name":"getAssetsByOwner","inputs":[{"name":"owner","type":"address","internalType":"address"}],"outputs":[{"name":"","type":"uint256[]","internalType":"uint256[]"}],"stateMutability":"view"},{"type":"function","name":"getTokenByWarrant","inputs":[{"name":"warrantId","type":"string","internalType":"string"}],"outputs":[{"name":"","type":"uint256","internalType":"uint256"}],"stateMutability":"view"},{"type":"function","name":"isApprovedForAll","inputs":[{"name":"account","type":"address","internalType":"address"},{"name":"operator","type":"address","internalType":"address"}],"outputs":[{"name":"","type":"bool","internalType":"bool"}],"stateMutability":"view"},{"type":"function","name":"isAssetLocked","inputs":[{"name":"tokenId","type":"uint256","internalType":"uint256"}],"outputs":[{"name":"","type":"bool","internalType":"bool"}],"stateMutability":"view"},{"type":"function","name":"isWarrantUsed","inputs":[{"name":"warrantId","type":"string","internalType":"string"}],"outputs":[{"name":"","type":"bool","internalType":"bool"}],"stateMutability":"view"},{"type":"function","name":"memberRegistry","inputs":[],"outputs":[{"name":"","type":"address","internalType":"contract IMemberRegistry"}],"stateMutability":"view"},{"type":"function","name":"mint","inputs":[{"name":"to","type":"address","internalType":"address"},{"name":"serialNumber","type":"string","internalType":"string"},{"name":"refinerName","type":"string","internalType":"string"},{"name":"weightGrams","type":"uint256","internalType":"uint256"},{"name":"fineness","type":"uint256","internalType":"uint256"},{"name":"productType","type":"uint8","internalType":"enum GoldAssetToken.GoldProductType"},{"name":"certificateHash","type":"bytes32","internalType":"bytes32"},{"name":"traceabilityGIC","type":"string","internalType":"string"},{"name":"certified","type":"bool","internalType":"bool"},{"name":"warrantId","type":"string","internalType":"string"}],"outputs":[{"name":"","type":"uint256","internalType":"uint256"}],"stateMutability":"nonpayable"},{"type":"function","name":"owner","inputs":[],"outputs":[{"name":"","type":"address","internalType":"address"}],"stateMutability":"view"},{"type":"function","name":"removeFromBlacklist","inputs":[{"name":"account","type":"address","internalType":"address"}],"outputs":[],"stateMutability":"nonpayable"},{"type":"function","name":"removeFromWhitelist","inputs":[{"name":"account","type":"address","internalType":"address"}],"outputs":[],"stateMutability":"nonpayable"},{"type":"function","name":"renounceOwnership","inputs":[],"outputs":[],"stateMutability":"nonpayable"},{"type":"function","name":"safeBatchTransferFrom","inputs":[{"name":"from","type":"address","internalType":"address"},{"name":"to","type":"address","internalType":"address"},{"name":"ids","type":"uint256[]","internalType":"uint256[]"},{"name":"values","type":"uint256[]","internalType":"uint256[]"},{"name":"data","type":"bytes","internalType":"bytes"}],"outputs":[],"stateMutability":"nonpayable"},{"type":"function","name":"safeTransferFrom","inputs":[{"name":"from","type":"address","internalType":"address"},{"name":"to","type":"address","internalType":"address"},{"name":"id","type":"uint256","internalType":"uint256"},{"name":"value","type":"uint256","internalType":"uint256"},{"name":"data","type":"bytes","internalType":"bytes"}],"outputs":[],"stateMutability":"nonpayable"},{"type":"function","name":"setAccountLedger","inputs":[{"name":"_accountLedger","type":"address","internalType":"address"}],"outputs":[],"stateMutability":"nonpayable"},{"type":"function","name":"setApprovalForAll","inputs":[{"name":"operator","type":"address","internalType":"address"},{"name":"approved","type":"bool","internalType":"bool"}],"outputs":[],"stateMutability":"nonpayable"},{"type":"function","name":"setMemberRegistry","inputs":[{"name":"_memberRegistry","type":"address","internalType":"address"}],"outputs":[],"stateMutability":"nonpayable"},{"type":"function","name":"supportsInterface","inputs":[{"name":"interfaceId","type":"bytes4","internalType":"bytes4"}],"outputs":[{"name":"","type":"bool","internalType":"bool"}],"stateMutability":"view"},{"type":"function","name":"transferOwnership","inputs":[{"name":"newOwner","type":"address","internalType":"address"}],"outputs":[],"stateMutability":"nonpayable"},{"type":"function","name":"updateCustody","inputs":[{"name":"tokenId","type":"uint256","internalType":"uint256"},{"name":"toParty","type":"address","internalType":"address"},{"name":"custodyType","type":"string","internalType":"string"}],"outputs":[],"stateMutability":"nonpayable"},{"type":"function","name":"updateStatus","inputs":[{"name":"tokenId","type":"uint256","internalType":"uint256"},{"name":"newStatus","type":"uint8","internalType":"enum GoldAssetToken.AssetStatus"},{"name":"reason","type":"string","internalType":"string"}],"outputs":[],"stateMutability":"nonpayable"},{"type":"function","name":"uri","inputs":[{"name":"tokenId","type":"uint256","internalType":"uint256"}],"outputs":[{"name":"","type":"string","internalType":"string"}],"stateMutability":"view"},{"type":"function","name":"verifyCertificate","inputs":[{"name":"tokenId","type":"uint256","internalType":"uint256"},{"name":"certificateHash","type":"bytes32","internalType":"bytes32"}],"outputs":[{"name":"","type":"bool","internalType":"bool"}],"stateMutability":"view"},{"type":"function","name":"warrantToToken","inputs":[{"name":"","type":"string","internalType":"string"}],"outputs":[{"name":"","type":"uint256","internalType":"uint256"}],"stateMutability":"view"},{"type":"function","name":"whitelist","inputs":[{"name":"","type":"address","internalType":"address"}],"outputs":[{"name":"","type":"bool","internalType":"bool"}],"stateMutability":"view"},{"type":"event","name":"ApprovalForAll","inputs":[{"name":"account","type":"address","indexed":true,"internalType":"address"},{"name":"operator","type":"address","indexed":true,"internalType":"address"},{"name":"approved","type":"bool","indexed":false,"internalType":"bool"}],"anonymous":false},{"type":"event","name":"AssetBurned","inputs":[{"name":"tokenId","type":"uint256","indexed":true,"internalType":"uint256"},{"name":"burnReason","type":"string","indexed":false,"internalType":"string"},{"name":"finalOwner","type":"address","indexed":true,"internalType":"address"},{"name":"authorizedBy","type":"address","indexed":true,"internalType":"address"},{"name":"timestamp","type":"uint256","indexed":false,"internalType":"uint256"}],"anonymous":false},{"type":"event","name":"AssetMinted","inputs":[{"name":"tokenId","type":"uint256","indexed":true,"internalType":"uint256"},{"name":"serialNumber","type":"string","indexed":false,"internalType":"string"},{"name":"refinerName","type":"string","indexed":false,"internalType":"string"},{"name":"weightGrams","type":"uint256","indexed":false,"internalType":"uint256"},{"name":"fineness","type":"uint256","indexed":false,"internalType":"uint256"},{"name":"owner","type":"address","indexed":true,"internalType":"address"},{"name":"timestamp","type":"uint256","indexed":false,"internalType":"uint256"}],"anonymous":false},{"type":"event","name":"AssetStatusChanged","inputs":[{"name":"tokenId","type":"uint256","indexed":true,"internalType":"uint256"},{"name":"previousStatus","type":"uint8","indexed":false,"internalType":"enum GoldAssetToken.AssetStatus"},{"name":"newStatus","type":"uint8","indexed":false,"internalType":"enum GoldAssetToken.AssetStatus"},{"name":"reason","type":"string","indexed":false,"internalType":"string"},{"name":"changedBy","type":"address","indexed":true,"internalType":"address"},{"name":"timestamp","type":"uint256","indexed":false,"internalType":"uint256"}],"anonymous":false},{"type":"event","name":"AssetTransferred","inputs":[{"name":"tokenId","type":"uint256","indexed":true,"internalType":"uint256"},{"name":"fromIGAN","type":"address","indexed":true,"internalType":"address"},{"name":"toIGAN","type":"address","indexed":true,"internalType":"address"},{"name":"timestamp","type":"uint256","indexed":false,"internalType":"uint256"}],"anonymous":false},{"type":"event","name":"BlacklistUpdated","inputs":[{"name":"account","type":"address","indexed":true,"internalType":"address"},{"name":"status","type":"bool","indexed":false,"internalType":"bool"},{"name":"timestamp","type":"uint256","indexed":false,"internalType":"uint256"}],"anonymous":false},{"type":"event","name":"CustodyChanged","inputs":[{"name":"tokenId","type":"uint256","indexed":true,"internalType":"uint256"},{"name":"fromParty","type":"address","indexed":true,"internalType":"address"},{"name":"toParty","type":"address","indexed":true,"internalType":"address"},{"name":"custodyType","type":"string","indexed":false,"internalType":"string"},{"name":"timestamp","type":"uint256","indexed":false,"internalType":"uint256"}],"anonymous":false},{"type":"event","name":"OwnershipTransferred","inputs":[{"name":"previousOwner","type":"address","indexed":true,"internalType":"address"},{"name":"newOwner","type":"address","indexed":true,"internalType":"address"}],"anonymous":false},{"type":"event","name":"OwnershipUpdated","inputs":[{"name":"tokenId","type":"uint256","indexed":true,"internalType":"uint256"},{"name":"from","type":"address","indexed":true,"internalType":"address"},{"name":"to","type":"address","indexed":true,"internalType":"address"},{"name":"reason","type":"string","indexed":false,"internalType":"string"},{"name":"timestamp","type":"uint256","indexed":false,"internalType":"uint256"}],"anonymous":false},{"type":"event","name":"TransferBatch","inputs":[{"name":"operator","type":"address","indexed":true,"internalType":"address"},{"name":"from","type":"address","indexed":true,"internalType":"address"},{"name":"to","type":"address","indexed":true,"internalType":"address"},{"name":"ids","type":"uint256[]","indexed":false,"internalType":"uint256[]"},{"name":"values","type":"uint256[]","indexed":false,"internalType":"uint256[]"}],"anonymous":false},{"type":"event","name":"TransferSingle","inputs":[{"name":"operator","type":"address","indexed":true,"internalType":"address"},{"name":"from","type":"address","indexed":true,"internalType":"address"},{"name":"to","type":"address","indexed":true,"internalType":"address"},{"name":"id","type":"uint256","indexed":false,"internalType":"uint256"},{"name":"value","type":"uint256","indexed":false,"internalType":"uint256"}],"anonymous":false},{"type":"event","name":"URI","inputs":[{"name":"value","type":"string","indexed":false,"internalType":"string"},{"name":"id","type":"uint256","indexed":true,"internalType":"uint256"}],"anonymous":false},{"type":"event","name":"WarrantLinked","inputs":[{"name":"warrantId","type":"string","indexed":true,"internalType":"string"},{"name":"tokenId","type":"uint256","indexed":true,"internalType":"uint256"},{"name":"owner","type":"address","indexed":true,"internalType":"address"},{"name":"timestamp","type":"uint256","indexed":false,"internalType":"uint256"}],"anonymous":false},{"type":"event","name":"WhitelistUpdated","inputs":[{"name":"account","type":"address","indexed":true,"internalType":"address"},{"name":"status","type":"bool","indexed":false,"internalType":"bool"},{"name":"timestamp","type":"uint256","indexed":false,"internalType":"uint256"}],"anonymous":false},{"type":"error","name":"ERC1155InsufficientBalance","inputs":[{"name":"sender","type":"address","internalType":"address"},{"name":"balance","type":"uint256","internalType":"uint256"},{"name":"needed","type":"uint256","internalType":"uint256"},{"name":"tokenId","type":"uint256","internalType":"uint256"}]},{"type":"error","name":"ERC1155InvalidApprover","inputs":[{"name":"approver","type":"address","internalType":"address"}]},{"type":"error","name":"ERC1155InvalidArrayLength","inputs":[{"name":"idsLength","type":"uint256","internalType":"uint256"},{"name":"valuesLength","type":"uint256","internalType":"uint256"}]},{"type":"error","name":"ERC1155InvalidOperator","inputs":[{"name":"operator","type":"address","internalType":"address"}]},{"type":"error","name":"ERC1155InvalidReceiver","inputs":[{"name":"receiver","type":"address","internalType":"address"}]},{"type":"error","name":"ERC1155InvalidSender","inputs":[{"name":"sender","type":"address","internalType":"address"}]},{"type":"error","name":"ERC1155MissingApprovalForAll","inputs":[{"name":"operator","type":"address","internalType":"address"},{"name":"owner","type":"address","internalType":"address"}]},{"type":"error","name":"OwnableInvalidOwner","inputs":[{"name":"owner","type":"address","internalType":"address"}]},{"type":"error","name":"OwnableUnauthorizedAccount","inputs":[{"name":"account","type":"address","internalType":"address"}]}],"bytecode":{"object":"0x608034620001b5576001600160401b039062003ae290601f38839003908101601f191682019084821183831017620001a15780839160409586948552833981010312620001b5576200005f60206200005783620001b9565b9201620001b9565b928251602081019181831090831117620001a1575f91845252600254600190600181811c9116801562000196575b60208210146200018257601f811162000138575b50505f60025533156200012157600380546001600160a01b0319808216339081179093559351946001600160a01b03939092849283167f8be0079c531659141344cd1fd0a4f28419497f9722a3daafe3b4186f6b6457e05f80a3168360045416176004551690600554161760055560016006556139139081620001cf8239f35b8151631e4fbdf760e01b81525f6004820152602490fd5b60025f52601f0160051c7f405787fa12a823e0f2b7631cc41b3ba8828b3321ca811111fa75cd3aa3bb5ace908101905b818110620001775750620000a1565b5f8155820162000168565b634e487b7160e01b5f52602260045260245ffd5b90607f16906200008d565b634e487b7160e01b5f52604160045260245ffd5b5f80fd5b51906001600160a01b0382168203620001b55756fe60806040526004361015610011575f80fd5b5f3560e01c8062fdd58e1461024357806301ffc9a71461023e5780630e89341c14610239578063264716511461023457806327329eb71461022f578063276f09341461022a5780632a0ee644146102255780632eb2c2d61461022057806344337ea11461021b5780634873124d146102165780634e1273f414610211578063537df3b61461020c57806359317b7a146102075780635defa55e146102025780636fd7c34c146101fd578063715018a6146101f8578063781f0b72146101f35780638ab1d681146101ee5780638da5cb5b146101e95780639b19251a146101e4578063a1f24b3d146101df578063a22cb465146101da578063a74d4772146101d5578063ba211db0146101d0578063c19b8c66146101cb578063c3b451a2146101c6578063cf35bdd0146101c1578063e43252d7146101bc578063e7e55295146101b7578063e985e9c5146101b2578063f242432a146101ad578063f2fde38b146101a8578063f5dca3ca146101a3578063f9f92be41461019e5763fb99682014610199575f80fd5b611935565b6118e9565b6118d1565b6117e2565b61172b565b6116db565b611688565b611620565b611588565b6113d1565b61133c565b611232565b61120a565b611153565b611087565b610f2f565b610f07565b610e9f565b610da3565b610d48565b610d05565b610cdd565b610c90565b610c28565b610b6e565b610b0b565b610a83565b610960565b6108b7565b61076a565b61060f565b6105e9565b6103c4565b6102fc565b6102a2565b600435906001600160a01b038216820361025e57565b5f80fd5b602435906001600160a01b038216820361025e57565b604435906001600160a01b038216820361025e57565b35906001600160a01b038216820361025e57565b3461025e57604036600319011261025e5760206102e16102c0610248565b6024355f525f835260405f209060018060a01b03165f5260205260405f2090565b54604051908152f35b6001600160e01b031981160361025e57565b3461025e57602036600319011261025e57602060043561031b816102ea565b63ffffffff60e01b16636cdb3d1360e11b8114908115610359575b8115610348575b506040519015158152f35b6301ffc9a760e01b1490505f61033d565b6303a24d0760e21b81149150610336565b5f5b83811061037b5750505f910152565b818101518382015260200161036c565b906020916103a48151809281855285808601910161036a565b601f01601f1916010190565b9060206103c192818152019061038b565b90565b3461025e5760208060031936011261025e57600435805f52600782526103f2600a60405f20015415156119f5565b5f526007815260405f206040519066697066733a2f2f60c81b838301526027925f93825461041f8161141c565b9360019180831690811561049f575060011461045d575b6104598661044d818a03601f19810183528261052e565b604051918291826103b0565b0390f35b9091929395505f52825f205f905b86821061048c57505050505061044d81602761045994820101935f80610436565b805486830185015290840190820161046b565b91505061045996508593506027925061044d94915060ff19168284015280151502820101935f80610436565b634e487b7160e01b5f52604160045260245ffd5b61018081019081106001600160401b038211176104fb57604052565b6104cb565b6001600160401b0381116104fb57604052565b602081019081106001600160401b038211176104fb57604052565b90601f801991011681019081106001600160401b038211176104fb57604052565b6040519061055c826104df565b565b6001600160401b0381116104fb57601f01601f191660200190565b81601f8201121561025e578035906105908261055e565b9261059e604051948561052e565b8284526020838301011161025e57815f926020809301838601378301015290565b602060031982011261025e57600435906001600160401b03821161025e576103c191600401610579565b3461025e57602060ff6106036105fe366105bf565b611885565b54166040519015158152f35b3461025e57606036600319011261025e5760043561062b610262565b6044356001600160401b03811161025e5761064a903690600401610579565b5f838152600960205260409020549091906001600160a01b03166001600160a01b03163314801561068a575b9261068361068894611a58565b611ad9565b005b506004546106a8906001600160a01b03165b6001600160a01b031690565b604051638cbdcead60e01b81523360048083019190915260248201529390602090859060449082905afa9384156107215761068894610683915f916106f2575b5091945050610676565b610714915060203d60201161071a575b61070c818361052e565b810190611a38565b5f6106e8565b503d610702565b611a4d565b9081518082526020808093019301915f5b828110610745575050505090565b835185529381019392810192600101610737565b9060206103c1928181520190610726565b3461025e57602036600319011261025e57610783610248565b6006546001600160a01b03918216915f60015b83811061084d57506107a790611b50565b925f9160015b8481106107c257604051806104598882610759565b82826107e66107d9845f52600960205260405f2090565b546001600160a01b031690565b16148061081b575b6107fb575b6001016107ad565b92610813818561080d6001948a611b82565b52611b3d565b9390506107f3565b50600461083d6009610835845f52600760205260405f2090565b015460ff1690565b61084681610f9c565b14156107ee565b84836108646107d9845f52600960205260405f2090565b16148061088d575b610879575b600101610796565b90610885600191611b3d565b919050610871565b5060046108a76009610835845f52600760205260405f2090565b6108b081610f9c565b141561086c565b3461025e57602036600319011261025e576004355f526009602052602060018060a01b0360405f205416604051908152f35b6001600160401b0381116104fb5760051b60200190565b9080601f8301121561025e57602090823561091a816108e9565b93610928604051958661052e565b81855260208086019260051b82010192831161025e57602001905b828210610951575050505090565b81358152908301908301610943565b3461025e5760a036600319011261025e57610979610248565b610981610262565b90604435916001600160401b039081841161025e576109a560049436908601610900565b9060643583811161025e576109bd9036908701610900565b9260843590811161025e576109d59036908701610579565b936001600160a01b03808216903382141580610a60575b610a3357831615610a1c5715610a06576106889550612e9d565b604051626a0d4560e21b81525f81880152602490fd5b604051632bfa23e760e11b81525f81890152602490fd5b6040805163711bec9160e11b815233818b019081526001600160a01b038616602082015290918291010390fd5b505f82815260016020908152604080832033845290915290205460ff16156109ec565b3461025e57602036600319011261025e576044610a9e610248565b602060018060a01b036004541660405193848092638cbdcead60e01b8252336004830152604060248301525afa9182156107215761068892610ae7915f91610aec575b50611baa565b611c05565b610b05915060203d60201161071a5761070c818361052e565b5f610ae1565b3461025e57610b19366105bf565b60ff610b2482611885565b541615610b36576102e16020916118ab565b60405162461bcd60e51b815260206004820152601060248201526f15d85c9c985b9d081b9bdd081d5cd95960821b6044820152606490fd5b3461025e57604036600319011261025e576004356001600160401b0380821161025e573660238301121561025e578160040135610baa816108e9565b92610bb8604051948561052e565b8184526020916024602086019160051b8301019136831161025e57602401905b828210610c11578560243586811161025e5761045991610bff610c05923690600401610900565b90611c56565b60405191829182610759565b838091610c1d8461028e565b815201910190610bd8565b3461025e57602036600319011261025e576044610c43610248565b602060018060a01b036004541660405193848092638cbdcead60e01b8252336004830152604060248301525afa9182156107215761068892610c8b915f91610aec5750611baa565b611cec565b3461025e57602036600319011261025e57610ca9610248565b610cb1612932565b600580546001600160a01b0319166001600160a01b0392909216919091179055005b5f91031261025e57565b3461025e575f36600319011261025e576005546040516001600160a01b039091168152602090f35b3461025e57602036600319011261025e57610d1e610248565b610d26612932565b600480546001600160a01b0319166001600160a01b0392909216919091179055005b3461025e575f36600319011261025e57610d60612932565b600380546001600160a01b031981169091555f906001600160a01b03167f8be0079c531659141344cd1fd0a4f28419497f9722a3daafe3b4186f6b6457e08280a3005b3461025e57606036600319011261025e57600435602435600781101561025e576044356001600160401b03811161025e57610de2903690600401610579565b5f838152600960205260409020549091906001600160a01b03166001600160a01b031633148015610e20575b92610e1b61068894611a58565b611d82565b50600454610e36906001600160a01b031661069c565b604051638cbdcead60e01b81523360048083019190915260248201529390602090859060449082905afa9384156107215761068894610e1b915f91610e80575b5091945050610e0e565b610e99915060203d60201161071a5761070c818361052e565b5f610e76565b3461025e57602036600319011261025e576044610eba610248565b602060018060a01b036004541660405193848092638cbdcead60e01b8252336004830152604060248301525afa9182156107215761068892610f02915f91610aec5750611baa565b611e5c565b3461025e575f36600319011261025e576003546040516001600160a01b039091168152602090f35b3461025e57602036600319011261025e576001600160a01b03610f50610248565b165f52600c602052602060ff60405f2054166040519015158152f35b634e487b7160e01b5f52602160045260245ffd5b60041115610f8a57565b610f6c565b906004821015610f8a5752565b60071115610f8a57565b906007821015610f8a5752565b6103c190602081528251610fd5610180918260208501526101a084019061038b565b9361105d61100c610ff8602084015197601f19988988830301604089015261038b565b60408401518887830301606088015261038b565b60608301516080860152608083015160a086015260a083015160c086015261103c60c084015160e0870190610f8f565b60e0830151610100908187015283015161012097868303018887015261038b565b948101516110716101409182860190610fa6565b8101516101608481019190915201511515910152565b3461025e57602036600319011261025e5761045961112f61112a6004355f6101606040516110b4816104df565b6060815260606020820152606060408201528260608201528260808201528260a08201528260c08201528260e082015260606101008201528261012082015282610140820152015261111c600a611113835f52600760205260405f2090565b015415156119f5565b5f52600760205260405f2090565b611ec1565b60405191829182610fb3565b8015150361025e57565b610104359061055c8261113b565b3461025e57604036600319011261025e5761116c610248565b6024356111788161113b565b6001600160a01b0382169182156111f357816111b26111c392335f52600160205260405f209060018060a01b03165f5260205260405f2090565b9060ff801983541691151516179055565b60405190151581527f17307eab39ab6107e8899845ad3d59bd9653f200f220920489ca2b5937696c3160203392a3005b60405162ced3e160e81b81525f6004820152602490fd5b3461025e575f36600319011261025e576004546040516001600160a01b039091168152602090f35b3461025e57606036600319011261025e576004356001600160401b0360243581811161025e57611266903690600401610579565b9060443590811161025e5761127f903690600401610579565b5f838152600960205260409020549091906001600160a01b03166001600160a01b0316331480156112bd575b926112b861068894611a58565b611fff565b506004546112d3906001600160a01b031661069c565b604051638cbdcead60e01b81523360048083019190915260248201529390602090859060449082905afa93841561072157610688946112b8915f9161131d575b50919450506112ab565b611336915060203d60201161071a5761070c818361052e565b5f611313565b3461025e57608036600319011261025e57611355610262565b61135d610278565b90606435916001600160401b03831161025e576113806044933690600401610579565b91602060018060a01b036004541660405195868092638cbdcead60e01b8252336004830152604060248301525afa93841561072157610688946113c9915f91610aec5750611baa565b6004356121fb565b3461025e57604036600319011261025e57600435805f5260076020526113ff600a60405f20015415156119f5565b5f5260076020526020602435600760405f20015414604051908152f35b90600182811c9216801561144a575b602083101461143657565b634e487b7160e01b5f52602260045260245ffd5b91607f169161142b565b9060405191825f82546114668161141c565b908184526020946001916001811690815f146114d25750600114611494575b50505061055c9250038361052e565b5f90815285812095935091905b8183106114ba57505061055c93508201015f8080611485565b855488840185015294850194879450918301916114a1565b9250505061055c94925060ff191682840152151560051b8201015f8080611485565b9a9792958b956101609b9e9d9a95606061154561156f9a61153761155c9861152961157b9f998e61018090818152019061038b565b8d810360208f01529061038b565b908b820360408d015261038b565b98015260808d015260a08c015260c08b0190610f8f565b60e089015287820361010089015261038b565b96610120860190610fa6565b6101408401521515910152565b3461025e57602036600319011261025e576004355f52600760205260405f206115b081611454565b6104596115bf60018401611454565b926115cc60028201611454565b9060038101546004820154600583015460ff6006850154166007850154916115f660088701611454565b9360ff60098801541695611613600b600a8a015499015460ff1690565b986040519c8d9c8d6114f4565b3461025e57602036600319011261025e57604461163b610248565b602060018060a01b036004541660405193848092638cbdcead60e01b8252336004830152604060248301525afa9182156107215761068892611683915f91610aec5750611baa565b6122fb565b3461025e57602036600319011261025e576004355f52600760205260ff600960405f200154166007811015610f8a57806003602092149081156116d057506040519015158152f35b60029150145f61033d565b3461025e57604036600319011261025e57602060ff6106036116fb610248565b611703610262565b6001600160a01b039182165f9081526001865260408082209290931681526020919091522090565b3461025e5760a036600319011261025e57611744610248565b61174c610262565b6084356001600160401b03811161025e5761176b903690600401610579565b906001600160a01b0383163381141590816117be575b5061179757610688926064359160443591612bd8565b60405163711bec9160e11b81523360048201526001600160a01b0384166024820152604490fd5b5f90815260016020908152604080832033845290915281205460ff16159150611781565b3461025e57602036600319011261025e576117fb610248565b611803612932565b6001600160a01b0390811690811561185657600354826bffffffffffffffffffffffff60a01b821617600355167f8be0079c531659141344cd1fd0a4f28419497f9722a3daafe3b4186f6b6457e05f80a3005b604051631e4fbdf760e01b81525f6004820152602490fd5b906118816020928281519485920161036a565b0190565b602061189e91816040519382858094519384920161036a565b8101600a81520301902090565b60206118c491816040519382858094519384920161036a565b8101600b81520301902090565b3461025e5760206102e16118e4366105bf565b6118ab565b3461025e57602036600319011261025e576001600160a01b0361190a610248565b165f52600d602052602060ff60405f2054166040519015158152f35b60a43590600482101561025e57565b3461025e5761014036600319011261025e5761194f610248565b6001600160401b0360243581811161025e5761196f903690600401610579565b9160443582811161025e57611988903690600401610579565b611990611926565b9060e43584811161025e576119a9903690600401610579565b906119b2611145565b926101243595861161025e57610459966119d36119e5973690600401610579565b9560c43593608435926064359261234c565b6040519081529081906020820190565b156119fc57565b60405162461bcd60e51b8152602060048201526014602482015273105cdcd95d08191bd95cc81b9bdd08195e1a5cdd60621b6044820152606490fd5b9081602091031261025e57516103c18161113b565b6040513d5f823e3d90fd5b15611a5f57565b60405162461bcd60e51b815260206004820152603060248201527f4e6f7420617574686f72697a65643a204f776e6572206f7220435553544f444960448201526f1053881c9bdb19481c995c5d5a5c995960821b6064820152608490fd5b929190611ad460209160408652604086019061038b565b930152565b805f5260096020527f7d8bbf09e5d2c4c9326e18403c0d0edc90bf13eb1854d3cab844ac9476b12ffe60018060a01b038060405f20541693611b246040519283921696429083611abd565b0390a4565b634e487b7160e01b5f52601160045260245ffd5b5f198114611b4b5760010190565b611b29565b90611b5a826108e9565b611b67604051918261052e565b8281528092611b78601f19916108e9565b0190602036910137565b8051821015611b965760209160051b010190565b634e487b7160e01b5f52603260045260245ffd5b15611bb157565b60405162461bcd60e51b815260206004820152602660248201527f4e6f7420617574686f72697a65643a20504c4154464f524d20726f6c652072656044820152651c5d5a5c995960d21b6064820152608490fd5b60018060a01b0316805f52600d60205260405f20600160ff198254161790557fdb76f617e04ebf72dc17dbe8376979b98408ad67557ef09c5272f7156d8123e86040805160018152426020820152a2565b91909180518351808203611cca575050611c708151611b50565b905f5b8151811015611cc35780611cb160019260051b5f602080808489010151938b01015182525260405f209060018060a01b03165f5260205260405f2090565b54611cbc8286611b82565b5201611c73565b5090925050565b604051635b05999160e01b815260048101919091526024810191909152604490fd5b60018060a01b0316805f52600d60205260405f2060ff1981541690557fdb76f617e04ebf72dc17dbe8376979b98408ad67557ef09c5272f7156d8123e8604080515f8152426020820152a2565b906007811015610f8a5760ff80198354169116179055565b949392611d71606093611d6788611ad495610fa6565b6020880190610fa6565b60806040870152608086019061038b565b9091815f52600760205260ff600960405f200154166007811015610f8a57600414611e17577f4a7f36090e241cfd69682f6a164350c2cb00366213fcca9c8a43c15e8168f94c90611de06009610835855f52600760205260405f2090565b90611dff856009611df9875f52600760205260405f2090565b01611d39565b611e126040519283923397429285611d51565b0390a3565b60405162461bcd60e51b815260206004820152601a60248201527f43616e6e6f7420757064617465206275726e65642061737365740000000000006044820152606490fd5b60018060a01b0316805f52600c60205260405f2060ff1981541690557f0f2ab3269df45d41960fdf14c84cd22dfb81c269985eecc7ee6b93764639ae45604080515f8152426020820152a2565b6004821015610f8a5752565b6007821015610f8a5752565b9061055c611f82600b611ed261054f565b94611edc81611454565b8652611eea60018201611454565b6020870152611efb60028201611454565b60408701526003810154606087015260048101546080870152600581015460a0870152611f38611f2f600683015460ff1690565b60c08801611ea9565b600781015460e0870152611f4e60088201611454565b610100870152611f6f611f65600983015460ff1690565b6101208801611eb5565b600a810154610140870152015460ff1690565b1515610160840152565b15611f9357565b60405162461bcd60e51b8152602060048201526014602482015273105cdcd95d08185b1c9958591e48189d5c9b995960621b6044820152606490fd5b939291611ad490611fea60609360808852608088019061038b565b5f19602088015286810360408801529061038b565b919091612019600a611113835f52600760205260405f2090565b61204560046120356009610835855f52600760205260405f2090565b61203e81610f9c565b1415611f8c565b61205a6107d9825f52600960205260405f2090565b926120806009612072845f52600760205260405f2090565b01805460ff19166004179055565b600554612095906001600160a01b031661069c565b6001600160a01b03908082166120ea575b507fd0360773ac0050786178ca762143b27b7e9b2d0b663ee86cf9e7f114b35008719150611b24906120d8848761295e565b60405191829133971695429083611abd565b803b1561025e57835f9186836121179660405197889586948593635d88cd3760e11b855260048501611fcf565b03925af1908115610721577fd0360773ac0050786178ca762143b27b7e9b2d0b663ee86cf9e7f114b350087192611b2492612154575b50906120a6565b8061216161216792610500565b80610cd3565b5f61214d565b1561217457565b60405162461bcd60e51b8152602060048201526012602482015271496e76616c696420746f206164647265737360701b6044820152606490fd5b156121b557565b60405162461bcd60e51b815260206004820152600c60248201526b105cdcd95d08189d5c9b995960a21b6044820152606490fd5b604051906121f682610513565b5f8252565b90929192815f526007602052612219600a60405f20015415156119f5565b5f8281526009602052604090206001600160a01b03919082905416938282168095036122bf576122b1611b2492857f8ec725dd8a48772a420e3a3a551add447b24fe29b5093e41922437ab8f905854958916986122778a151561216d565b6122a360046122936009610835865f52600760205260405f2090565b61229c81610f9c565b14156121ae565b6122ab6121e9565b92612b70565b604051918291429083611abd565b60405162461bcd60e51b8152602060048201526014602482015273496e76616c69642066726f6d206164647265737360601b6044820152606490fd5b60018060a01b0316805f52600c60205260405f20600160ff198254161790557f0f2ab3269df45d41960fdf14c84cd22dfb81c269985eecc7ee6b93764639ae456040805160018152426020820152a2565b9897969594939291906044602060018060a01b036004541660405192838092638cbdcead60e01b8252336004830152600160248301525afa908115610721575f916123f4575b50156123a1576103c199612712565b60405162461bcd60e51b815260206004820152602560248201527f4e6f7420617574686f72697a65643a20524546494e455220726f6c65207265716044820152641d5a5c995960da1b6064820152608490fd5b61240d915060203d60201161071a5761070c818361052e565b5f612392565b1561241a57565b60405162461bcd60e51b815260206004820152601460248201527315d85c9c985b9d08185b1c9958591e481d5cd95960621b6044820152606490fd5b1561245d57565b60405162461bcd60e51b815260206004820152601860248201527f417373657420616c7265616479207265676973746572656400000000000000006044820152606490fd5b81810292918115918404141715611b4b57565b601f82116124c257505050565b5f5260205f20906020601f840160051c830193106124fa575b601f0160051c01905b8181106124ef575050565b5f81556001016124e4565b90915081906124db565b91909182516001600160401b0381116104fb5761252b81612525845461141c565b846124b5565b602080601f831160011461256c5750819061255d9394955f92612561575b50508160011b915f199060031b1c19161790565b9055565b015190505f80612549565b90601f19831695612580855f5260205f2090565b925f905b8882106125bb575050836001959697106125a3575b505050811b019055565b01515f1960f88460031b161c191690555f8080612599565b80600185968294968601518155019501930190612584565b906004811015610f8a5760ff80198354169116179055565b600b6126a561016061055c94612602815186612504565b612613602082015160018701612504565b612624604082015160028701612504565b606081015160038601556080810151600486015560a0810151600586015561265c60c082015161265381610f80565b600687016125d3565b60e0810151600786015561267861010082015160088701612504565b61269361012082015161268a81610f9c565b60098701611d39565b610140810151600a8601550151151590565b91019060ff801983541691151516179055565b916126e3906126d56080959897969360a0865260a086019061038b565b90848203602086015261038b565b95604083015260608201520152565b61270a9060206040519282848094519384920161036a565b810103902090565b909798959392919461272387611885565b5460ff161561273190612413565b61273a87611885565b805460ff1916600117905561274f868a612c1e565b612761815f52600860205260405f2090565b5460ff161561276f90612456565b612781905f52600860205260405f2090565b805460ff19166001179055600654998a98899661279d88611b3d565b6006556127aa87876124a2565b6127109004936127b989612c8b565b6040516a474946542d41535345542d60a81b602082015295908690602b82016127e19161186e565b03601f19810187526127f3908761052e565b6127fb61054f565b9586528d60208701528a604087015287606087015288608087015260a086015260c085019061282991611ea9565b60e08401526101008301525f61012083015242610140830152151561016082015261285c855f52600760205260405f2090565b90612866916125eb565b80612879855f52600960205260405f2090565b80546001600160a01b0319166001600160a01b03909216919091179055836128a0876118ab565b556128a96121e9565b6128b4908583612dcd565b6040516001600160a01b0391909116978895919384936128d6934293866126b8565b037f932fb8f9d495becdde3eacf21ebe2745661a8fa6948a458f8eb2bd242bcda69d91a3612903906126f2565b6040514281527f668955a820819a04e294e0bebb8424dbb3fc596648f7d09ad40153fe8d0ab02090602090a490565b6003546001600160a01b0316330361294657565b60405163118cdaa760e01b8152336004820152602490fd5b6001600160a01b038116918215612b5957612998604051916001835260208301526040820190600182526001606084015260808301604052565b91906040945f6040516129aa81610513565b528151845190818103611cca5750505f5b8251811015612a60578060051b602080828601015191870101516129ff866129ea845f525f60205260405f2090565b9060018060a01b03165f5260205260405f2090565b54818110612a2a57866129ea6001959493612a239303935f525f60205260405f2090565b55016129bb565b89516303dee4c560e01b81526001600160a01b038816600482015260248101919091526044810182905260648101839052608490fd5b50945090505f9291600193849360018451148214612b1f5760208481015184820151604080519283529282015233917fc3d58168c5ae7397731d063d5bbf3d657854427343f4c083240f7aacaa2d0f6291a45b5f925b612ac1575b50505050565b8151831015612b1a57838381612ad8819685611b82565b5114612ae6575b0192612ab6565b612b15612b05612af68387611b82565b515f52600960205260405f2090565b80546001600160a01b0319169055565b612adf565b612abb565b6040517f4a39dc06d4c0dbc64b70af90fd698a233a518aa5d07e595d983b8c0526c8f7fb339180612b51878983613608565b0390a4612ab3565b604051626a0d4560e21b81525f6004820152602490fd5b9192916001600160a01b0382811615612bc057811615612b5957612bb861055c9490604051916001835260208301526040820190600182526001606084015260808301604052565b929091612e9d565b604051632bfa23e760e11b81525f6004820152602490fd5b939291906001600160a01b0380821615612bc057851615612b595761055c9460405192600184526020840152604083019360018552606084015260808301604052612e9d565b90612c5d6020604051809382612c3d818401978881519384920161036a565b8201612c518251809386808501910161036a565b0103808452018261052e565b51902090565b90612c6d8261055e565b612c7a604051918261052e565b8281528092611b78601f199161055e565b805f917a184f03e93ff9f4daa797ed6e38ed64bf6a1f01000000000000000080821015612dbf575b506d04ee2d6d415b85acef810000000080831015612db0575b50662386f26fc1000080831015612da1575b506305f5e10080831015612d92575b5061271080831015612d83575b506064821015612d73575b600a80921015612d69575b600190816021612d2260018701612c63565b95860101905b612d34575b5050505090565b5f19019083906f181899199a1a9b1b9c1cb0b131b232b360811b8282061a835304918215612d6457919082612d28565b612d2d565b9160010191612d10565b9190606460029104910191612d05565b6004919392049101915f612cfa565b6008919392049101915f612ced565b6010919392049101915f612cde565b6020919392049101915f612ccc565b60409350810491505f612cb3565b906001600160a01b03821615612bc057612e06604051916001835260208301526040820190600182526001606084015260808301604052565b9093612e1382868561362d565b5f5b8551811015612e6e57806001612e2c819386611b82565b5114612e39575b01612e15565b612e6985612e4a612af6848b611b82565b80546001600160a01b0319166001600160a01b03909216919091179055565b612e33565b509392919260018151145f14612e93579060208061055c95930151910151913361358f565b61055c933361339a565b6001600160a01b0380821615801597929692958895929391929186613205575b9686975f979697966130c9575b612ed683858a8d613740565b5f5b845181101561307857808a8a8e6001612ef281968a611b82565b5114612f02575b50505001612ed8565b8290612f0e858b611b82565b5193613029575b8a8061301e575b15612f40575050612e4a612f38925f52600960205260405f2090565b8a8a8e612ef9565b90915080613014575b15612f695750612b05612f64915f52600960205260405f2090565b612f38565b612f74575b50612f38565b8a612f8a6107d9835f52600960205260405f2090565b91612fa182612e4a835f52600960205260405f2090565b8b15612faf575b5050612f6e565b7f8ec725dd8a48772a420e3a3a551add447b24fe29b5093e41922437ab8f9058548b80604051941694169280613009428291906040835260086040840152672a2920a729a322a960c11b6060840152602060808401930152565b0390a45f8a81612fa8565b50898c1615612f49565b508b83161515612f1c565b61305e6130436009610835875f52600760205260405f2090565b61304c81610f9c565b60038114159081613063575b5061329f565b612f15565b6002915061307081610f9c565b14155f613058565b5097509850935095939190508116613092575b5050505050565b84516001036130b8576020806130ae96015192015192336135c4565b5f8080808061308b565b6130c494919233613493565b6130ae565b6004549096506130e1906001600160a01b031661069c565b60408051638cbdcead60e01b815233600482015260248101919091529690602090889060449082905afa968715610721575f976131e4575b5086612eca576001600160a01b038a165f908152600c60205260409020613142905b5460ff1690565b806131b8575b61315190613211565b6001600160a01b038a165f908152600d60205260409020613179906131759061313b565b1590565b8061318d575b6131889061325d565b612eca565b506131886131b161317561313b8b60018060a01b03165f52600d60205260405f2090565b905061317f565b506001600160a01b0388165f908152600c60205260409020613151906131dd9061313b565b9050613148565b6131fe91975060203d60201161071a5761070c818361052e565b955f613119565b84861615159650612ebd565b1561321857565b60405162461bcd60e51b815260206004820152601860248201527f5472616e73666572206e6f742077686974656c697374656400000000000000006044820152606490fd5b1561326457565b60405162461bcd60e51b81526020600482015260136024820152721059191c995cdcc8189b1858dadb1a5cdd1959606a1b6044820152606490fd5b156132a657565b60405162461bcd60e51b815260206004820152600c60248201526b105cdcd95d081b1bd8dad95960a21b6044820152606490fd5b9081602091031261025e57516103c1816102ea565b9261331d6103c1959361332b9360018060a01b031686525f602087015260a0604087015260a0860190610726565b908482036060860152610726565b91608081840391015261038b565b93906103c1959361331d9161332b9460018060a01b03809216885216602087015260a0604087015260a0860190610726565b3d15613395573d9061337c8261055e565b9161338a604051938461052e565b82523d5f602084013e565b606090565b9293919093843b6133ac575050505050565b6020916133cf604051948593849363bc197c8160e01b98898652600486016132ef565b03815f6001600160a01b0388165af15f9181613462575b5061342557826133f461336b565b805191908261341e57604051632bfa23e760e11b81526001600160a01b0383166004820152602490fd5b6020915001fd5b6001600160e01b0319160361343f57505f8080808061308b565b604051632bfa23e760e11b81526001600160a01b03919091166004820152602490fd5b61348591925060203d60201161348c575b61347d818361052e565b8101906132da565b905f6133e6565b503d613473565b939290949194853b6134a8575b505050505050565b6134cb602093604051958694859463bc197c8160e01b998a875260048701613339565b03815f6001600160a01b0388165af15f918161350b575b506134f057826133f461336b565b6001600160e01b0319160361343f57505f80808080806134a0565b61352591925060203d60201161348c5761347d818361052e565b905f6134e2565b909260a0926103c19594600180861b031683525f602084015260408301526060820152816080820152019061038b565b91926103c195949160a094600180871b03809216855216602084015260408301526060820152816080820152019061038b565b9293919093843b6135a1575050505050565b6020916133cf604051948593849363f23a6e6160e01b988986526004860161352c565b939290949194853b6135d857505050505050565b6134cb602093604051958694859463f23a6e6160e01b998a87526004870161355c565b91908201809211611b4b57565b909161361f6103c193604084526040840190610726565b916020818403910152610726565b9190918251825190818103611cca5750505f5b83518110156136a457600581901b84810160209081015191850101516001929184906001600160a01b03821661367a575b50505001613640565b61369a916129ea613692925f525f60205260405f2090565b9182546135fb565b90555f8381613671565b509160018151145f14613702576020908101519181015160408051938452918301526001600160a01b03909216915f9133917fc3d58168c5ae7397731d063d5bbf3d657854427343f4c083240f7aacaa2d0f62919081908101611b24565b7f4a39dc06d4c0dbc64b70af90fd698a233a518aa5d07e595d983b8c0526c8f7fb611b245f939460405191829160018060a01b031696339583613608565b9392918051835190818103611cca5750505f5b815181101561383857600581901b82810160209081015191860101516001600160a01b03929185908985166137b8575b6001948216613796575b50505001613753565b6137ae916129ea613692925f525f60205260405f2090565b90555f848161378d565b91929390506137d2896129ea845f525f60205260405f2090565b5483811061380157918691846001969594036137f98c6129ea855f525f60205260405f2090565b559450613783565b6040516303dee4c560e01b81526001600160a01b038b16600482015260248101919091526044810184905260648101839052608490fd5b50805193949391929160010361389a576020908101519181015160408051938452918301526001600160a01b03928316939092169133917fc3d58168c5ae7397731d063d5bbf3d657854427343f4c083240f7aacaa2d0f629181908101611b24565b6040516001600160a01b03938416949093169233927f4a39dc06d4c0dbc64b70af90fd698a233a518aa5d07e595d983b8c0526c8f7fb928291611b24918361360856fea2646970667358221220789277e4a03cdc36c03c333444c4b10316f34e7f645257eee7e3cacb7f88c12064736f6c63430008180033","linkReferences":{}},"methodIdentifiers":{"accountLedger()":"5defa55e","addToBlacklist(address)":"44337ea1","addToWhitelist(address)":"e43252d7","assetOwner(uint256)":"2a0ee644","assets(uint256)":"cf35bdd0","balanceOf(address,uint256)":"00fdd58e","balanceOfBatch(address[],uint256[])":"4e1273f4","blacklist(address)":"f9f92be4","burn(uint256,string,string)":"ba211db0","forceTransfer(uint256,address,address,string)":"c19b8c66","getAssetDetails(uint256)":"a1f24b3d","getAssetsByOwner(address)":"276f0934","getTokenByWarrant(string)":"4873124d","isApprovedForAll(address,address)":"e985e9c5","isAssetLocked(uint256)":"e7e55295","isWarrantUsed(string)":"26471651","memberRegistry()":"a74d4772","mint(address,string,string,uint256,uint256,uint8,bytes32,string,bool,string)":"fb996820","owner()":"8da5cb5b","removeFromBlacklist(address)":"537df3b6","removeFromWhitelist(address)":"8ab1d681","renounceOwnership()":"715018a6","safeBatchTransferFrom(address,address,uint256[],uint256[],bytes)":"2eb2c2d6","safeTransferFrom(address,address,uint256,uint256,bytes)":"f242432a","setAccountLedger(address)":"59317b7a","setApprovalForAll(address,bool)":"a22cb465","setMemberRegistry(address)":"6fd7c34c","supportsInterface(bytes4)":"01ffc9a7","transferOwnership(address)":"f2fde38b","updateCustody(uint256,address,string)":"27329eb7","updateStatus(uint256,uint8,string)":"781f0b72","uri(uint256)":"0e89341c","verifyCertificate(uint256,bytes32)":"c3b451a2","warrantToToken(string)":"f5dca3ca","whitelist(address)":"9b19251a"},"id":1}