{"abi":[{"type":"constructor","inputs":[{"name":"_memberRegistry","type":"address","internalType":"address"},{"name":"_accountLedger","type":"address","internalType":"address"}],"stateMutability":"nonpayable"},{"type":"function","name":"accountLedger","inputs":[],"outputs":[{"name":"","type":"address","internalType":"contract IGoldAccountLedger"}],"stateMutability":"view"},{"type":"function","name":"addToBlacklist","inputs":[{"name":"account","type":"address","internalType":"address"}],"outputs":[],"stateMutability":"nonpayable"},{"type":"function","name":"assetOwner","inputs":[{"name":"","type":"uint256","internalType":"uint256"}],"outputs":[{"name":"","type":"address","internalType":"address"}],"stateMutability":"view"},{"type":"function","name":"assets","inputs":[{"name":"","type":"uint256","internalType":"uint256"}],"outputs":[{"name":"tokenId","type":"string","internalType":"string"},{"name":"serialNumber","type":"string","internalType":"string"},{"name":"refinerName","type":"string","internalType":"string"},{"name":"weightGrams","type":"uint256","internalType":"uint256"},{"name":"fineness","type":"uint256","internalType":"uint256"},{"name":"fineWeightGrams","type":"uint256","internalType":"uint256"},{"name":"productType","type":"string","internalType":"string"},{"name":"certificateHash","type":"bytes32","internalType":"bytes32"},{"name":"traceabilityGIC","type":"string","internalType":"string"},{"name":"status","type":"uint8","internalType":"enum GoldAssetToken.AssetStatus"},{"name":"mintedAt","type":"uint256","internalType":"uint256"},{"name":"certified","type":"bool","internalType":"bool"},{"name":"igan","type":"string","internalType":"string"}],"stateMutability":"view"},{"type":"function","name":"balanceOf","inputs":[{"name":"account","type":"address","internalType":"address"},{"name":"id","type":"uint256","internalType":"uint256"}],"outputs":[{"name":"","type":"uint256","internalType":"uint256"}],"stateMutability":"view"},{"type":"function","name":"balanceOfBatch","inputs":[{"name":"accounts","type":"address[]","internalType":"address[]"},{"name":"ids","type":"uint256[]","internalType":"uint256[]"}],"outputs":[{"name":"","type":"uint256[]","internalType":"uint256[]"}],"stateMutability":"view"},{"type":"function","name":"burn","inputs":[{"name":"tokenId","type":"uint256","internalType":"uint256"},{"name":"accountId","type":"string","internalType":"string"},{"name":"burnReason","type":"string","internalType":"string"}],"outputs":[],"stateMutability":"nonpayable"},{"type":"function","name":"forceTransfer","inputs":[{"name":"tokenId","type":"uint256","internalType":"uint256"},{"name":"from","type":"address","internalType":"address"},{"name":"to","type":"address","internalType":"address"},{"name":"reason","type":"string","internalType":"string"}],"outputs":[],"stateMutability":"nonpayable"},{"type":"function","name":"getAssetDetails","inputs":[{"name":"tokenId","type":"uint256","internalType":"uint256"}],"outputs":[{"name":"","type":"tuple","internalType":"struct GoldAssetToken.GoldAsset","components":[{"name":"tokenId","type":"string","internalType":"string"},{"name":"serialNumber","type":"string","internalType":"string"},{"name":"refinerName","type":"string","internalType":"string"},{"name":"weightGrams","type":"uint256","internalType":"uint256"},{"name":"fineness","type":"uint256","internalType":"uint256"},{"name":"fineWeightGrams","type":"uint256","internalType":"uint256"},{"name":"productType","type":"string","internalType":"string"},{"name":"certificateHash","type":"bytes32","internalType":"bytes32"},{"name":"traceabilityGIC","type":"string","internalType":"string"},{"name":"status","type":"uint8","internalType":"enum GoldAssetToken.AssetStatus"},{"name":"mintedAt","type":"uint256","internalType":"uint256"},{"name":"certified","type":"bool","internalType":"bool"},{"name":"igan","type":"string","internalType":"string"}]}],"stateMutability":"view"},{"type":"function","name":"getAssetStatus","inputs":[{"name":"tokenId","type":"uint256","internalType":"uint256"}],"outputs":[{"name":"","type":"uint8","internalType":"enum GoldAssetToken.AssetStatus"}],"stateMutability":"view"},{"type":"function","name":"getAssetsByOwner","inputs":[{"name":"owner","type":"address","internalType":"address"}],"outputs":[{"name":"","type":"uint256[]","internalType":"uint256[]"}],"stateMutability":"view"},{"type":"function","name":"getTokenByWarrant","inputs":[{"name":"warrantId","type":"string","internalType":"string"}],"outputs":[{"name":"","type":"uint256","internalType":"uint256"}],"stateMutability":"view"},{"type":"function","name":"isApprovedForAll","inputs":[{"name":"account","type":"address","internalType":"address"},{"name":"operator","type":"address","internalType":"address"}],"outputs":[{"name":"","type":"bool","internalType":"bool"}],"stateMutability":"view"},{"type":"function","name":"isAssetLocked","inputs":[{"name":"tokenId","type":"uint256","internalType":"uint256"}],"outputs":[{"name":"","type":"bool","internalType":"bool"}],"stateMutability":"view"},{"type":"function","name":"isWarrantUsed","inputs":[{"name":"warrantId","type":"string","internalType":"string"}],"outputs":[{"name":"","type":"bool","internalType":"bool"}],"stateMutability":"view"},{"type":"function","name":"memberRegistry","inputs":[],"outputs":[{"name":"","type":"address","internalType":"contract IMemberRegistry"}],"stateMutability":"view"},{"type":"function","name":"mint","inputs":[{"name":"to","type":"address","internalType":"address"},{"name":"accountId","type":"string","internalType":"string"},{"name":"serialNumber","type":"string","internalType":"string"},{"name":"refinerName","type":"string","internalType":"string"},{"name":"weightGrams","type":"uint256","internalType":"uint256"},{"name":"fineness","type":"uint256","internalType":"uint256"},{"name":"productType","type":"string","internalType":"string"},{"name":"certificateHash","type":"bytes32","internalType":"bytes32"},{"name":"traceabilityGIC","type":"string","internalType":"string"},{"name":"certified","type":"bool","internalType":"bool"},{"name":"warrantId","type":"string","internalType":"string"}],"outputs":[{"name":"","type":"uint256","internalType":"uint256"}],"stateMutability":"nonpayable"},{"type":"function","name":"owner","inputs":[],"outputs":[{"name":"","type":"address","internalType":"address"}],"stateMutability":"view"},{"type":"function","name":"removeFromBlacklist","inputs":[{"name":"account","type":"address","internalType":"address"}],"outputs":[],"stateMutability":"nonpayable"},{"type":"function","name":"renounceOwnership","inputs":[],"outputs":[],"stateMutability":"nonpayable"},{"type":"function","name":"safeBatchTransferFrom","inputs":[{"name":"from","type":"address","internalType":"address"},{"name":"to","type":"address","internalType":"address"},{"name":"ids","type":"uint256[]","internalType":"uint256[]"},{"name":"values","type":"uint256[]","internalType":"uint256[]"},{"name":"data","type":"bytes","internalType":"bytes"}],"outputs":[],"stateMutability":"nonpayable"},{"type":"function","name":"safeTransferFrom","inputs":[{"name":"from","type":"address","internalType":"address"},{"name":"to","type":"address","internalType":"address"},{"name":"id","type":"uint256","internalType":"uint256"},{"name":"value","type":"uint256","internalType":"uint256"},{"name":"data","type":"bytes","internalType":"bytes"}],"outputs":[],"stateMutability":"nonpayable"},{"type":"function","name":"setAccountLedger","inputs":[{"name":"_accountLedger","type":"address","internalType":"address"}],"outputs":[],"stateMutability":"nonpayable"},{"type":"function","name":"setApprovalForAll","inputs":[{"name":"operator","type":"address","internalType":"address"},{"name":"approved","type":"bool","internalType":"bool"}],"outputs":[],"stateMutability":"nonpayable"},{"type":"function","name":"setMemberRegistry","inputs":[{"name":"_memberRegistry","type":"address","internalType":"address"}],"outputs":[],"stateMutability":"nonpayable"},{"type":"function","name":"supportsInterface","inputs":[{"name":"interfaceId","type":"bytes4","internalType":"bytes4"}],"outputs":[{"name":"","type":"bool","internalType":"bool"}],"stateMutability":"view"},{"type":"function","name":"transferAsset","inputs":[{"name":"tokenId","type":"uint256","internalType":"uint256"},{"name":"to","type":"address","internalType":"address"}],"outputs":[{"name":"","type":"bool","internalType":"bool"}],"stateMutability":"nonpayable"},{"type":"function","name":"transferOwnership","inputs":[{"name":"newOwner","type":"address","internalType":"address"}],"outputs":[],"stateMutability":"nonpayable"},{"type":"function","name":"updateCustody","inputs":[{"name":"tokenId","type":"uint256","internalType":"uint256"},{"name":"toParty","type":"address","internalType":"address"},{"name":"custodyType","type":"string","internalType":"string"}],"outputs":[],"stateMutability":"nonpayable"},{"type":"function","name":"updateCustodyBatch","inputs":[{"name":"tokenIds","type":"uint256[]","internalType":"uint256[]"},{"name":"toParty","type":"address","internalType":"address"},{"name":"custodyType","type":"string","internalType":"string"}],"outputs":[],"stateMutability":"nonpayable"},{"type":"function","name":"updateStatus","inputs":[{"name":"tokenId","type":"uint256","internalType":"uint256"},{"name":"newStatus","type":"uint8","internalType":"enum GoldAssetToken.AssetStatus"},{"name":"reason","type":"string","internalType":"string"}],"outputs":[],"stateMutability":"nonpayable"},{"type":"function","name":"uri","inputs":[{"name":"tokenId","type":"uint256","internalType":"uint256"}],"outputs":[{"name":"","type":"string","internalType":"string"}],"stateMutability":"view"},{"type":"function","name":"verifyCertificate","inputs":[{"name":"tokenId","type":"uint256","internalType":"uint256"},{"name":"certificateHash","type":"bytes32","internalType":"bytes32"}],"outputs":[{"name":"","type":"bool","internalType":"bool"}],"stateMutability":"view"},{"type":"function","name":"warrantToToken","inputs":[{"name":"","type":"string","internalType":"string"}],"outputs":[{"name":"","type":"uint256","internalType":"uint256"}],"stateMutability":"view"},{"type":"event","name":"ApprovalForAll","inputs":[{"name":"account","type":"address","indexed":true,"internalType":"address"},{"name":"operator","type":"address","indexed":true,"internalType":"address"},{"name":"approved","type":"bool","indexed":false,"internalType":"bool"}],"anonymous":false},{"type":"event","name":"AssetBurned","inputs":[{"name":"tokenId","type":"uint256","indexed":true,"internalType":"uint256"},{"name":"burnReason","type":"string","indexed":false,"internalType":"string"},{"name":"finalOwner","type":"address","indexed":true,"internalType":"address"},{"name":"authorizedBy","type":"address","indexed":true,"internalType":"address"},{"name":"timestamp","type":"uint256","indexed":false,"internalType":"uint256"}],"anonymous":false},{"type":"event","name":"AssetMinted","inputs":[{"name":"tokenId","type":"uint256","indexed":true,"internalType":"uint256"},{"name":"serialNumber","type":"string","indexed":false,"internalType":"string"},{"name":"refinerName","type":"string","indexed":false,"internalType":"string"},{"name":"weightGrams","type":"uint256","indexed":false,"internalType":"uint256"},{"name":"fineness","type":"uint256","indexed":false,"internalType":"uint256"},{"name":"owner","type":"address","indexed":true,"internalType":"address"},{"name":"timestamp","type":"uint256","indexed":false,"internalType":"uint256"}],"anonymous":false},{"type":"event","name":"AssetStatusChanged","inputs":[{"name":"tokenId","type":"uint256","indexed":true,"internalType":"uint256"},{"name":"previousStatus","type":"uint8","indexed":false,"internalType":"enum GoldAssetToken.AssetStatus"},{"name":"newStatus","type":"uint8","indexed":false,"internalType":"enum GoldAssetToken.AssetStatus"},{"name":"reason","type":"string","indexed":false,"internalType":"string"},{"name":"changedBy","type":"address","indexed":true,"internalType":"address"},{"name":"timestamp","type":"uint256","indexed":false,"internalType":"uint256"}],"anonymous":false},{"type":"event","name":"AssetTransferred","inputs":[{"name":"tokenId","type":"uint256","indexed":true,"internalType":"uint256"},{"name":"fromIGAN","type":"address","indexed":true,"internalType":"address"},{"name":"toIGAN","type":"address","indexed":true,"internalType":"address"},{"name":"timestamp","type":"uint256","indexed":false,"internalType":"uint256"}],"anonymous":false},{"type":"event","name":"CustodyChanged","inputs":[{"name":"tokenId","type":"uint256","indexed":true,"internalType":"uint256"},{"name":"fromParty","type":"address","indexed":true,"internalType":"address"},{"name":"toParty","type":"address","indexed":true,"internalType":"address"},{"name":"custodyType","type":"string","indexed":false,"internalType":"string"},{"name":"timestamp","type":"uint256","indexed":false,"internalType":"uint256"}],"anonymous":false},{"type":"event","name":"OwnershipTransferred","inputs":[{"name":"previousOwner","type":"address","indexed":true,"internalType":"address"},{"name":"newOwner","type":"address","indexed":true,"internalType":"address"}],"anonymous":false},{"type":"event","name":"OwnershipUpdated","inputs":[{"name":"tokenId","type":"uint256","indexed":true,"internalType":"uint256"},{"name":"from","type":"address","indexed":true,"internalType":"address"},{"name":"to","type":"address","indexed":true,"internalType":"address"},{"name":"reason","type":"string","indexed":false,"internalType":"string"},{"name":"timestamp","type":"uint256","indexed":false,"internalType":"uint256"}],"anonymous":false},{"type":"event","name":"TransferBatch","inputs":[{"name":"operator","type":"address","indexed":true,"internalType":"address"},{"name":"from","type":"address","indexed":true,"internalType":"address"},{"name":"to","type":"address","indexed":true,"internalType":"address"},{"name":"ids","type":"uint256[]","indexed":false,"internalType":"uint256[]"},{"name":"values","type":"uint256[]","indexed":false,"internalType":"uint256[]"}],"anonymous":false},{"type":"event","name":"TransferSingle","inputs":[{"name":"operator","type":"address","indexed":true,"internalType":"address"},{"name":"from","type":"address","indexed":true,"internalType":"address"},{"name":"to","type":"address","indexed":true,"internalType":"address"},{"name":"id","type":"uint256","indexed":false,"internalType":"uint256"},{"name":"value","type":"uint256","indexed":false,"internalType":"uint256"}],"anonymous":false},{"type":"event","name":"URI","inputs":[{"name":"value","type":"string","indexed":false,"internalType":"string"},{"name":"id","type":"uint256","indexed":true,"internalType":"uint256"}],"anonymous":false},{"type":"event","name":"WarrantLinked","inputs":[{"name":"warrantId","type":"string","indexed":true,"internalType":"string"},{"name":"tokenId","type":"uint256","indexed":true,"internalType":"uint256"},{"name":"owner","type":"address","indexed":true,"internalType":"address"},{"name":"timestamp","type":"uint256","indexed":false,"internalType":"uint256"}],"anonymous":false},{"type":"error","name":"ERC1155InsufficientBalance","inputs":[{"name":"sender","type":"address","internalType":"address"},{"name":"balance","type":"uint256","internalType":"uint256"},{"name":"needed","type":"uint256","internalType":"uint256"},{"name":"tokenId","type":"uint256","internalType":"uint256"}]},{"type":"error","name":"ERC1155InvalidApprover","inputs":[{"name":"approver","type":"address","internalType":"address"}]},{"type":"error","name":"ERC1155InvalidArrayLength","inputs":[{"name":"idsLength","type":"uint256","internalType":"uint256"},{"name":"valuesLength","type":"uint256","internalType":"uint256"}]},{"type":"error","name":"ERC1155InvalidOperator","inputs":[{"name":"operator","type":"address","internalType":"address"}]},{"type":"error","name":"ERC1155InvalidReceiver","inputs":[{"name":"receiver","type":"address","internalType":"address"}]},{"type":"error","name":"ERC1155InvalidSender","inputs":[{"name":"sender","type":"address","internalType":"address"}]},{"type":"error","name":"ERC1155MissingApprovalForAll","inputs":[{"name":"operator","type":"address","internalType":"address"},{"name":"owner","type":"address","internalType":"address"}]},{"type":"error","name":"OwnableInvalidOwner","inputs":[{"name":"owner","type":"address","internalType":"address"}]},{"type":"error","name":"OwnableUnauthorizedAccount","inputs":[{"name":"account","type":"address","internalType":"address"}]}],"bytecode":{"object":"0x608034620001b5576001600160401b0390620040f690601f38839003908101601f191682019084821183831017620001a15780839160409586948552833981010312620001b5576200005f60206200005783620001b9565b9201620001b9565b928251602081019181831090831117620001a1575f91845252600254600190600181811c9116801562000196575b60208210146200018257601f811162000138575b50505f60025533156200012157600380546001600160a01b0319808216339081179093559351946001600160a01b03939092849283167f8be0079c531659141344cd1fd0a4f28419497f9722a3daafe3b4186f6b6457e05f80a316836004541617600455169060055416176005556001600655613f279081620001cf8239f35b8151631e4fbdf760e01b81525f6004820152602490fd5b60025f52601f0160051c7f405787fa12a823e0f2b7631cc41b3ba8828b3321ca811111fa75cd3aa3bb5ace908101905b818110620001775750620000a1565b5f8155820162000168565b634e487b7160e01b5f52602260045260245ffd5b90607f16906200008d565b634e487b7160e01b5f52604160045260245ffd5b5f80fd5b51906001600160a01b0382168203620001b55756fe60806040526004361015610011575f80fd5b5f3560e01c8062fdd58e1461022e57806301ffc9a7146102295780630e89341c14610224578063264716511461021f57806327329eb71461021a578063276f0934146102155780632a0ee644146102105780632eb2c2d61461020b57806344337ea1146101fc5780634873124d146102065780634e1273f414610201578063537df3b6146101fc57806359317b7a146101f75780635defa55e146101f2578063698d49ab146101ed5780636fd7c34c146101e8578063715018a6146101e3578063781f0b72146101de578063823a65f5146101d95780638b27ebf4146101d45780638da5cb5b146101cf578063a1f24b3d146101ca578063a22cb465146101c5578063a74d4772146101c0578063ba211db0146101bb578063c19b8c66146101b6578063c3b451a2146101b1578063cf35bdd0146101ac578063e7e55295146101a7578063e985e9c5146101a2578063f242432a1461019d578063f2fde38b14610198578063f5dca3ca146101935763fa62ee8d1461018e575f80fd5b611c31565b611c19565b611b2a565b611a73565b611a23565b6119bd565b611914565b611744565b611695565b611438565b611410565b611359565b6112aa565b61118b565b611027565b610fd6565b610ed1565b610e76565b610df2565b610d0c565b610ccc565b610c7f565b610a8a565b610bc5565b610b62565b610965565b6108bc565b610777565b6105fa565b6105d4565b6103af565b6102e7565b61028d565b600435906001600160a01b038216820361024957565b5f80fd5b602435906001600160a01b038216820361024957565b604435906001600160a01b038216820361024957565b35906001600160a01b038216820361024957565b346102495760403660031901126102495760206102cc6102ab610233565b6024355f525f835260405f209060018060a01b03165f5260205260405f2090565b54604051908152f35b6001600160e01b031981160361024957565b34610249576020366003190112610249576020600435610306816102d5565b63ffffffff60e01b16636cdb3d1360e11b8114908115610344575b8115610333575b506040519015158152f35b6301ffc9a760e01b1490505f610328565b6303a24d0760e21b81149150610321565b5f5b8381106103665750505f910152565b8181015183820152602001610357565b9060209161038f81518092818552858086019101610355565b601f01601f1916010190565b9060206103ac928181520190610376565b90565b346102495760208060031936011261024957600435805f52600882526103dd600a60405f2001541515611cab565b5f526008815260405f206040519066697066733a2f2f60c81b838301526027925f93825461040a8161178f565b9360019180831690811561048a5750600114610448575b61044486610438818a03601f198101835282610519565b6040519182918261039b565b0390f35b9091929395505f52825f205f905b86821061047757505050505061043881602761044494820101935f80610421565b8054868301850152908401908201610456565b91505061044496508593506027925061043894915060ff19168284015280151502820101935f80610421565b634e487b7160e01b5f52604160045260245ffd5b6101a081019081106001600160401b038211176104e657604052565b6104b6565b6001600160401b0381116104e657604052565b602081019081106001600160401b038211176104e657604052565b90601f801991011681019081106001600160401b038211176104e657604052565b60405190610547826104ca565b565b6001600160401b0381116104e657601f01601f191660200190565b81601f820112156102495780359061057b82610549565b926105896040519485610519565b8284526020838301011161024957815f926020809301838601378301015290565b602060031982011261024957600435906001600160401b038211610249576103ac91600401610564565b3461024957602060ff6105ee6105e9366105aa565b611bcd565b54166040519015158152f35b346102495760603660031901126102495760043561061661024d565b6044356001600160401b03811161024957610635903690600401610564565b61063e83612b41565b825f526008602052610658600a60405f2001541515611cab565b5f838152600a602052604090205483907f7d8bbf09e5d2c4c9326e18403c0d0edc90bf13eb1854d3cab844ac9476b12ffe906001600160a01b03166040516001600160a01b03958616959091169381906106b490429083611cee565b0390a46106d660096106ce835f52600860205260405f2090565b015460ff1690565b906106fc60096106ee835f52600860205260405f2090565b01805460ff19166002179055565b7f4a7f36090e241cfd69682f6a164350c2cb00366213fcca9c8a43c15e8168f94c6040518061072e3395429083611d22565b0390a3005b9081518082526020808093019301915f5b828110610752575050505090565b835185529381019392810192600101610744565b9060206103ac928181520190610733565b3461024957602036600319011261024957610790610233565b6006546001600160a01b03918216915f60015b83811061085257506107b490611d91565b925f9160015b8481106107cf57604051806104448882610766565b82826107f36107e6845f52600a60205260405f2090565b546001600160a01b031690565b161480610828575b610808575b6001016107ba565b92610820818561081a6001948a611dc3565b52611d7e565b939050610800565b50600461084260096106ce845f52600860205260405f2090565b61084b81610fab565b14156107fb565b84836108696107e6845f52600a60205260405f2090565b161480610892575b61087e575b6001016107a3565b9061088a600191611d7e565b919050610876565b5060046108ac60096106ce845f52600860205260405f2090565b6108b581610fab565b1415610871565b34610249576020366003190112610249576004355f52600a602052602060018060a01b0360405f205416604051908152f35b6001600160401b0381116104e65760051b60200190565b9080601f8301121561024957602090823561091f816108ee565b9361092d6040519586610519565b81855260208086019260051b82010192831161024957602001905b828210610956575050505090565b81358152908301908301610948565b346102495760a03660031901126102495761097e610233565b61098661024d565b90604435916001600160401b0390818411610249576109aa60049436908601610905565b90606435838111610249576109c29036908701610905565b92608435908111610249576109da9036908701610564565b936001600160a01b03808216903382141580610a67575b610a3a57831615610a235715610a0d57610a0b955061320c565b005b604051626a0d4560e21b81525f81880152602490fd5b604051632bfa23e760e11b81525f81890152602490fd5b6040805163711bec9160e11b815233818b019081526001600160a01b038616602082015290918291010390fd5b505f82815260016020908152604080832033845290915290205460ff16156109f1565b346102495760208060031936011261024957610aa4610233565b60048054604051638cbdcead60e01b8152339281019290925260c060248301526001600160a01b03908116928483604481875afa908115610b4057610af460249287955f91610b45575b50611e0b565b604051948593849263fe575a8760e01b84521660048301525afa8015610b4057610b1a57005b81610a0b92903d10610b39575b610b318183610519565b810190611deb565b503d610b27565b611e00565b610b5c9150863d8811610b3957610b318183610519565b5f610aee565b3461024957610b70366105aa565b60ff610b7b82611bcd565b541615610b8d576102cc602091611bf3565b60405162461bcd60e51b815260206004820152601060248201526f15d85c9c985b9d081b9bdd081d5cd95960821b6044820152606490fd5b34610249576040366003190112610249576004356001600160401b038082116102495736602383011215610249578160040135610c01816108ee565b92610c0f6040519485610519565b8184526020916024602086019160051b8301019136831161024957602401905b828210610c6857856024358681116102495761044491610c56610c5c923690600401610905565b90611e61565b60405191829182610766565b838091610c7484610279565b815201910190610c2f565b3461024957602036600319011261024957610c98610233565b610ca0612c1c565b600580546001600160a01b0319166001600160a01b0392909216919091179055005b5f91031261024957565b34610249575f366003190112610249576005546040516001600160a01b039091168152602090f35b8015150361024957565b610124359061054782610cf4565b346102495761016036600319011261024957610d26610233565b6024356001600160401b039182821161024957610d4860049236908401610564565b9060443584811161024957610d609036908501610564565b9160643585811161024957610d789036908601610564565b9260c43586811161024957610d909036908701610564565b6101043587811161024957610da89036908801610564565b92610db1610cfe565b946101443598891161024957610dd0610de2986104449a369101610564565b9660e4359460a4359360843593611f5b565b6040519081529081906020820190565b3461024957602036600319011261024957610e0b610233565b610e13612c1c565b6001600160a01b03168015610e3e576bffffffffffffffffffffffff60a01b60045416176004555f80f35b60405162461bcd60e51b815260206004820152601060248201526f496e76616c696420726567697374727960801b6044820152606490fd5b34610249575f36600319011261024957610e8e612c1c565b600380546001600160a01b031981169091555f906001600160a01b03167f8be0079c531659141344cd1fd0a4f28419497f9722a3daafe3b4186f6b6457e08280a3005b34610249576060366003190112610249576024356004356007821015610249576044356001600160401b03811161024957610f317f4a7f36090e241cfd69682f6a164350c2cb00366213fcca9c8a43c15e8168f94c913690600401610564565b610f3a83612b41565b825f526008602052610f62600460ff600960405f20015416610f5b81610fab565b14156125c7565b610f7960096106ce855f52600860205260405f2090565b90610f98856009610f92875f52600860205260405f2090565b01611d0a565b61072e6040519283923397429285612613565b60071115610fb557565b634e487b7160e01b5f52602160045260245ffd5b906007821015610fb55752565b3461024957602036600319011261024957600435805f526008602052611004600a60405f2001541515611cab565b5f526008602052602060ff600960405f200154166110256040518092610fc9565bf35b34610249576060366003190112610249576001600160401b0360043581811161024957611058903690600401610905565b9061106161024d565b906044359081116102495761107a903690600401610564565b61108683511515612644565b6001600160a01b03918216915f5b8451811015610a0b57806110aa60019287611dc3565b516110cb600a6110c2835f52600860205260405f2090565b01541515611cab565b6110d481612b41565b836110ea6107e6835f52600a60205260405f2090565b169086604092827f7d8bbf09e5d2c4c9326e18403c0d0edc90bf13eb1854d3cab844ac9476b12ffe855180611120428d83611cee565b0390a47f4a7f36090e241cfd69682f6a164350c2cb00366213fcca9c8a43c15e8168f94c600992611173611160856106ce865f52600860205260405f2090565b946106ee855f52600860205260405f2090565b51806111823395429083611d22565b0390a301611094565b34610249575f366003190112610249576003546040516001600160a01b039091168152602090f35b906103ac91602081528151906111d76101a0928360208401526101c0830190610376565b9161124061120e6111fa602087015195601f199687878303016040880152610376565b604087015186868303016060870152610376565b60608601516080850152608086015160a085015260a086015160c085015260c0860151858583030160e0860152610376565b9361126760e082015161010090818601528201519561012096868683030188870152610376565b9481015161127b6101409182860190610fc9565b81015161016090818501528101519061129b610180928386019015159052565b01519282850301910152610376565b346102495760203660031901126102495761044461134d6113486004356040516112d3816104ca565b6101806060918281528260208201528260408201525f838201525f60808201525f60a08201528260c08201525f60e0820152826101008201525f6101208201525f6101408201525f610160820152015261133a600a6110c2835f52600860205260405f2090565b5f52600860205260405f2090565b612683565b604051918291826111b3565b3461024957604036600319011261024957611372610233565b60243561137e81610cf4565b6001600160a01b0382169182156113f957816113b86113c992335f52600160205260405f209060018060a01b03165f5260205260405f2090565b9060ff801983541691151516179055565b60405190151581527f17307eab39ab6107e8899845ad3d59bd9653f200f220920489ca2b5937696c3160203392a3005b60405162ced3e160e81b81525f6004820152602490fd5b34610249575f366003190112610249576004546040516001600160a01b039091168152602090f35b3461024957606036600319011261024957600480356001600160401b036024358181116102495761146c9036908501610564565b50604435908111610249576114849036908401610564565b825460408051638cbdcead60e01b81523381870190815260036020828101919091526001600160a01b03979596959492939092849290891691839182910103915afa8015610b40576114dd915f91611676575b50611ef7565b6114f4600a6110c2845f52600860205260405f2090565b61151f8161150f60096106ce865f52600860205260405f2090565b61151881610fab565b1415612753565b6115346107e6835f52600a60205260405f2090565b9361155a600961154c855f52600860205260405f2090565b01805460ff19166004179055565b611577600c611571855f52600860205260405f2090565b016117c7565b600554611594906001600160a01b03165b6001600160a01b031690565b928284166115e7575b50507fd0360773ac0050786178ca762143b27b7e9b2d0b663ee86cf9e7f114b350087191506115e2906115d08487612fd0565b60405191829133971695429083611cee565b0390a4005b6115f382511515612796565b833b156102495784935f9283889361161f6040519889968795869463303a694160e11b865285016127db565b03925af1908115610b40577fd0360773ac0050786178ca762143b27b7e9b2d0b663ee86cf9e7f114b3500871926115e29261165d575b81925061159d565b8061166a611670926104eb565b80610cc2565b5f611655565b61168f915060203d602011610b3957610b318183610519565b5f6114d7565b34610249576080366003190112610249576116ae61024d565b6116b6610263565b90606435916001600160401b038311610249576116d96024933690600401610564565b91602060018060a01b03600454166040519586809263fe575a8760e01b82523360048301525afa938415610b4057610a0b9461171d915f91611725575b501561280b565b60043561284c565b61173e915060203d602011610b3957610b318183610519565b5f611716565b3461024957604036600319011261024957600435805f526008602052611772600a60405f2001541515611cab565b5f5260086020526020602435600760405f20015414604051908152f35b90600182811c921680156117bd575b60208310146117a957565b634e487b7160e01b5f52602260045260245ffd5b91607f169161179e565b9060405191825f82546117d98161178f565b908184526020946001916001811690815f146118455750600114611807575b50505061054792500383610519565b5f90815285812095935091905b81831061182d57505061054793508201015f80806117f8565b85548884018501529485019487945091830191611814565b9250505061054794925060ff191682840152151560051b8201015f80806117f8565b999b9793966118f6966118ea966103ac9f9d9960606118bc8f96986119069f996118d6996118a06118ae926101a0808d528c0190610376565b908a820360208c0152610376565b9088820360408a0152610376565b95015260808d015260a08c01528a820360c08c0152610376565b9160e0890152878203610100890152610376565b96610120860190610fc9565b6101408401521515610160830152565b610180818403910152610376565b34610249576020366003190112610249576004355f52600860205260405f2061193c816117c7565b61044461194b600184016117c7565b92611958600282016117c7565b90600381015460048201546005830154611974600685016117c7565b600785015490611986600887016117c7565b9260ff60098801541694600a880154966119b0600c6119a9600b8c015460ff1690565b9a016117c7565b996040519d8e9d8e611867565b34610249576020366003190112610249576004355f52600860205260ff600960405f200154166007811015610fb5578060036104449214908115611a0f575b5060405190151581529081906020820190565b60029150611a1c81610fab565b145f6119fc565b3461024957604036600319011261024957602060ff6105ee611a43610233565b611a4b61024d565b6001600160a01b039182165f9081526001865260408082209290931681526020919091522090565b346102495760a036600319011261024957611a8c610233565b611a9461024d565b6084356001600160401b03811161024957611ab3903690600401610564565b906001600160a01b038316338114159081611b06575b50611adf57610a0b9260643591604435916131ca565b60405163711bec9160e11b81523360048201526001600160a01b0384166024820152604490fd5b5f90815260016020908152604080832033845290915281205460ff16159150611ac9565b3461024957602036600319011261024957611b43610233565b611b4b612c1c565b6001600160a01b03908116908115611b9e57600354826bffffffffffffffffffffffff60a01b821617600355167f8be0079c531659141344cd1fd0a4f28419497f9722a3daafe3b4186f6b6457e05f80a3005b604051631e4fbdf760e01b81525f6004820152602490fd5b90611bc960209282815194859201610355565b0190565b6020611be6918160405193828580945193849201610355565b8101600b81520301902090565b6020611c0c918160405193828580945193849201610355565b8101600c81520301902090565b346102495760206102cc611c2c366105aa565b611bf3565b34610249576040366003190112610249576024611c4c61024d565b602060018060a01b03600454166040519384809263fe575a8760e01b82523360048301525afa908115610b4057611c91611c9992610444945f9161172557501561280b565b600435612a74565b60405190151581529081906020820190565b15611cb257565b60405162461bcd60e51b8152602060048201526014602482015273105cdcd95d08191bd95cc81b9bdd08195e1a5cdd60621b6044820152606490fd5b929190611d05602091604086526040860190610376565b930152565b906007811015610fb55760ff80198354169116179055565b92919083611d2f91610fc9565b6002602084015260806040840152601260808401527110d554d513d11657d25397d514905394d25560721b60a0840152606060c08401930152565b634e487b7160e01b5f52601160045260245ffd5b5f198114611d8c5760010190565b611d6a565b90611d9b826108ee565b611da86040519182610519565b8281528092611db9601f19916108ee565b0190602036910137565b8051821015611dd75760209160051b010190565b634e487b7160e01b5f52603260045260245ffd5b9081602091031261024957516103ac81610cf4565b6040513d5f823e3d90fd5b15611e1257565b60405162461bcd60e51b815260206004820152602160248201527f4e6f7420617574686f72697a65643a20474d4f20726f6c6520726571756972656044820152601960fa1b6064820152608490fd5b91909180518351808203611ed5575050611e7b8151611d91565b905f5b8151811015611ece5780611ebc60019260051b5f602080808489010151938b01015182525260405f209060018060a01b03165f5260205260405f2090565b54611ec78286611dc3565b5201611e7e565b5090925050565b604051635b05999160e01b815260048101919091526024810191909152604490fd5b15611efe57565b60405162461bcd60e51b815260206004820152602f60248201527f4e6f7420617574686f72697a65643a20524546494e4552206f72204d494e544560448201526e14881c9bdb19481c995c5d5a5c9959608a1b6064820152608490fd5b60048054604051638cbdcead60e01b8152339281019290925260036024830152989b9499979894979693946001600160a01b039291906020908290604490829087165afa8015610b4057611fb5915f916116765750611ef7565b898282169b8c98891515611fc89061224b565b85511515611fd590612287565b611fde8b611bcd565b5460ff1615611fec906122c7565b611ff58b611bcd565b805460ff191660011790556006549e8f9c61200f8e611d7e565b6006558d61201d8a8d61230a565b61271090049061202c90612c70565b6040516a474946542d41535345542d60a81b602082015296908790602b820161205491611bb6565b03601f19810188526120669088610519565b61206e61053a565b968752602087018c90526040870152606086018c9052608086018a905260a086015260c085015260e08401526101008301525f610120830152426101408301521515610160820152836101808201526120cf8a5f52600860205260405f2090565b906120d991612447565b806120ec8a5f52600a60205260405f2090565b80546001600160a01b0319166001600160a01b039092169190911790558861211389611bf3565b558861211d61251d565b9061212792612db2565b6005546001600160a01b03166001600160a01b03169081166121b8575b50509185966121817f932fb8f9d495becdde3eacf21ebe2745661a8fa6948a458f8eb2bd242bcda69d93612189989560405194859442938661256d565b0390a36125a7565b6040514281527f668955a820819a04e294e0bebb8424dbb3fc596648f7d09ad40153fe8d0ab02090602090a490565b91939650919350803b1561024957885f916121ea938360405180968195829463303a694160e11b84526004840161252f565b03925af1948515610b40578896612181899589957f932fb8f9d495becdde3eacf21ebe2745661a8fa6948a458f8eb2bd242bcda69d956121899a612238575b50939550935081989750612144565b8061166a612245926104eb565b5f612229565b1561225257565b60405162461bcd60e51b815260206004820152600d60248201526c24b73b30b634b21037bbb732b960991b6044820152606490fd5b1561228e57565b60405162461bcd60e51b8152602060048201526011602482015270125b9d985b1a59081858d8dbdd5b9d1259607a1b6044820152606490fd5b156122ce57565b60405162461bcd60e51b815260206004820152601460248201527315d85c9c985b9d08185b1c9958591e481d5cd95960621b6044820152606490fd5b81810292918115918404141715611d8c57565b6007821015610fb55752565b601f821161233657505050565b5f5260205f20906020601f840160051c8301931061236e575b601f0160051c01905b818110612363575050565b5f8155600101612358565b909150819061234f565b91909182516001600160401b0381116104e65761239f81612399845461178f565b84612329565b602080601f83116001146123e0575081906123d19394955f926123d5575b50508160011b915f199060031b1c19161790565b9055565b015190505f806123bd565b90601f198316956123f4855f5260205f2090565b925f905b88821061242f57505083600195969710612417575b505050811b019055565b01515f1960f88460031b161c191690555f808061240d565b806001859682949686015181550195019301906123f8565b600c6101806105479361245b815185612378565b61246c602082015160018601612378565b61247d604082015160028601612378565b606081015160038501556080810151600485015560a081015160058501556124ac60c082015160068601612378565b60e081015160078501556124c861010082015160088601612378565b6124e36101208201516124da81610fab565b60098601611d0a565b610140810151600a8501556125146124ff610160830151151590565b600b86019060ff801983541691151516179055565b01519101612378565b6040519061252a826104fe565b5f8252565b9291906040612548606092608087526080870190610376565b600160208701528581038287015260048152631352539560e21b602082015201930152565b916125989061258a6080959897969360a0865260a0860190610376565b908482036020860152610376565b95604083015260608201520152565b6125bf90602060405192828480945193849201610355565b810103902090565b156125ce57565b60405162461bcd60e51b815260206004820152601a60248201527f43616e6e6f7420757064617465206275726e65642061737365740000000000006044820152606490fd5b94939261263360609361262988611d0595610fc9565b6020880190610fc9565b608060408701526080860190610376565b1561264b57565b60405162461bcd60e51b815260206004820152601060248201526f4d697373696e6720746f6b656e49647360801b6044820152606490fd5b9061274b600c61269161053a565b9361269b816117c7565b85526126a9600182016117c7565b60208601526126ba600282016117c7565b60408601526003810154606086015260048101546080860152600581015460a08601526126e9600682016117c7565b60c0860152600781015460e0860152612704600882016117c7565b61010086015261272561271b600983015460ff1690565b610120870161231d565b600a810154610140860152611571612741600b83015460ff1690565b1515610160870152565b610180830152565b1561275a57565b60405162461bcd60e51b8152602060048201526014602482015273105cdcd95d08185b1c9958591e48189d5c9b995960621b6044820152606490fd5b1561279d57565b60405162461bcd60e51b8152602060048201526016602482015275135a5cdcda5b99c81251d05388199bdc88185cdcd95d60521b6044820152606490fd5b939291611d05906127f6606093608088526080880190610376565b5f196020880152868103604088015290610376565b1561281257565b60405162461bcd60e51b815260206004820152601260248201527110d85b1b195c88189b1858dadb1a5cdd195960721b6044820152606490fd5b9092919260018060a01b039060446020836004541660405192838092638cbdcead60e01b825233600483015260c060248301525afa8015610b4057612897915f9161299d5750611e0b565b6128ae600a6110c2855f52600860205260405f2090565b816128c1845f52600a60205260405f2090565b5416938282168095036129615761293f61295c92855f80516020613ed2833981519152958916986128f38a15156129b6565b61291f600461290f60096106ce865f52600860205260405f2090565b61291881610fab565b14156129f7565b612931600160ff196007541617600755565b61293961251d565b9261317a565b61294e60ff1960075416600755565b604051918291429083611cee565b0390a4565b60405162461bcd60e51b8152602060048201526014602482015273496e76616c69642066726f6d206164647265737360601b6044820152606490fd5b610b5c915060203d602011610b3957610b318183610519565b156129bd57565b60405162461bcd60e51b8152602060048201526012602482015271496e76616c696420746f206164647265737360701b6044820152606490fd5b156129fe57565b60405162461bcd60e51b815260206004820152600c60248201526b105cdcd95d08189d5c9b995960a21b6044820152606490fd5b15612a3957565b60405162461bcd60e51b81526020600482015260136024820152721059191c995cdcc8189b1858dadb1a5cdd1959606a1b6044820152606490fd5b9060018060a01b036024602082600454166040519283809263fe575a8760e01b825286881660048301525afa8015610b4057612ab8915f91612b22575b5015612a32565b825f52600a60205260405f2054163303612aeb57612ae69160405191612add836104fe565b5f83523361317a565b600190565b60405162461bcd60e51b815260206004820152600f60248201526e2737ba103a37b5b2b71037bbb732b960891b6044820152606490fd5b612b3b915060203d602011610b3957610b318183610519565b5f612ab1565b5f908152600a602052604090206001600160a01b0390819054163314612c195760206044916004541660405192838092638cbdcead60e01b8252336004830152601f60248301525afa908115610b40575f91612bfa575b5015612ba057565b60405162461bcd60e51b815260206004820152602c60248201527f4e6f7420617574686f72697a65643a206173736574206f70657261746f72207260448201526b1bdb19481c995c5d5a5c995960a21b6064820152608490fd5b612c13915060203d602011610b3957610b318183610519565b5f612b98565b50565b6003546001600160a01b03163303612c3057565b60405163118cdaa760e01b8152336004820152602490fd5b90612c5282610549565b612c5f6040519182610519565b8281528092611db9601f1991610549565b805f917a184f03e93ff9f4daa797ed6e38ed64bf6a1f01000000000000000080821015612da4575b506d04ee2d6d415b85acef810000000080831015612d95575b50662386f26fc1000080831015612d86575b506305f5e10080831015612d77575b5061271080831015612d68575b506064821015612d58575b600a80921015612d4e575b600190816021612d0760018701612c48565b95860101905b612d19575b5050505090565b5f19019083906f181899199a1a9b1b9c1cb0b131b232b360811b8282061a835304918215612d4957919082612d0d565b612d12565b9160010191612cf5565b9190606460029104910191612cea565b6004919392049101915f612cdf565b6008919392049101915f612cd2565b6010919392049101915f612cc3565b6020919392049101915f612cb1565b60409350810491505f612c98565b6001600160a01b038082169490928515612fb857612def604051916001835260208301526040820190600182526001606084015260808301604052565b959093612dfc8551611d91565b612e068651611d91565b935f5b8751811015612ef457600480549091908890612e2d906001600160a01b0316611588565b60405163fe575a8760e01b81526001600160a01b039092169382019384529092602091829185919082908190850103915afa8015610b4057600193612e7b925f92612ed7575b505015612a32565b81612e86828d611dc3565b5114612e93575b01612e09565b612ed288612eb3612ea4848d611dc3565b515f52600a60205260405f2090565b80546001600160a01b0319166001600160a01b03909216919091179055565b612e8d565b612eed9250803d10610b3957610b318183610519565b5f80612e73565b50919490939796959295612f09888584613aae565b5f5b8451811015612f845780612f2a612f246001938d611dc3565b51151590565b612f35575b01612f0b565b88612f408288611dc3565b51612f5b612f4e848b611dc3565b516001600160a01b031690565b905f80516020613ed28339815191528b60405193169280612f7c4282613732565b0390a4612f2f565b5095509593509550905060018151145f14612fae5790602080610547959301519101519133613a10565b610547933361381b565b604051632bfa23e760e11b81525f6004820152602490fd5b6001600160a01b0391818316156131635761300a604051916001835260208301526040820190600182526001606084015260808301604052565b90916040945f60405161301c816104fe565b526130278451611d91565b6130318551611d91565b955f5b86518110156130e157600480549091908690613058906001600160a01b0316611588565b8b5163fe575a8760e01b81526001600160a01b039092169382019384529092602091829185919082908190850103915afa8015610b40576001936130a4925f92612ed757505015612a32565b816130af8289611dc3565b51146130bc575b01613034565b6130dc6130cc612ea4838b611dc3565b80546001600160a01b0319169055565b6130b6565b509293856130f3929695979397613bd6565b5f5b835181101561315a578061310e612f2460019385611dc3565b613119575b016130f5565b5f6131248287611dc3565b51613132612f4e848a611dc3565b905f80516020613ed2833981519152878c51931692806131524282613732565b0390a4613113565b50505050509050565b604051626a0d4560e21b81525f6004820152602490fd5b9192916001600160a01b0382811615612fb857811615613163576131c26105479490604051916001835260208301526040820190600182526001606084015260808301604052565b92909161320c565b939291906001600160a01b0380821615612fb8578516156131635761054794604051926001845260208401526040830193600185526060840152608083016040525b90926001600160a01b03821615159290918390816136e4575b5f92919085613599575b6132398351611d91565b946132448451611d91565b995f5b85518110156134b9578b9085613476575b8a8a8a6001600160a01b0383166133f9575b836001958b8761327a848c611dc3565b511461328d575b50505050505001613247565b613298838692611dc3565b51946133aa575b60a088901b8890038b16158061339a575b156132db575050505090612eb36132cf925f52600a60205260405f2090565b8a8a8a8f84908b613281565b8b8096929394969061338b575b1561330d575050505061330891506130cc905f52600a60205260405f2090565b6132cf565b61331c575b50505050506132cf565b61334790612eb36133386107e6875f52600a60205260405f2090565b955f52600a60205260405f2090565b8b15613354575b8e613312565b61337761337c936133688461338297611dc3565b6001600160a01b039091169052565b611dc3565b60019052565b885f828f61334e565b50878060a01b038216156132e8565b50878060a01b03861615156132b0565b6133df6133c460096106ce885f52600860205260405f2090565b6133cd81610fab565b600381141590816133e4575b506136f7565b61329f565b600291506133f181610fab565b14155f6133d9565b5050600480546134489450602092919061341b906001600160a01b0316611588565b60405163fe575a8760e01b81526001600160a01b0390931691830191825291948592918391829160200190565b03915afa918215610b40578a8a8f84908f9460019761346e915f91612b22575015612a32565b95505061326a565b600480546134969350602091879161341b906001600160a01b0316611588565b03915afa918215610b40578d926134b4915f91612b22575015612a32565b613258565b509450979295509050969294966134d287868a84613d34565b5f5b855181101561354557806134ed612f2460019388611dc3565b6134f8575b016134d4565b6135028188611dc3565b51613510612f4e838b611dc3565b60405160a085901b859003808e1693921691905f80516020613ed2833981519152908061353d4282613732565b0390a46134f2565b509395925093509460018060a01b038116613562575b5050505050565b84516001036135885760208061357e9601519201519233613a45565b5f8080808061355b565b61359494919233613914565b61357e565b6004549093506135b1906001600160a01b0316611588565b604051638cbdcead60e01b815233600482015260c0602482015293906020908186604481845afa958615610b40575f966136c5575b5085156135f5575b505061322f565b60405163fe575a8760e01b8082526001600160a01b038516600483015292908181602481865afa8015610b40578b915f916136a8575b50159283613648575b5050506136419150612a32565b5f806135ee565b6040519485526001600160a01b03919091166004850152909291508290829060249082905afa908115610b4057613641925f9261368b575b5050155f8981613634565b6136a19250803d10610b3957610b318183610519565b5f80613680565b6136bf9150833d8511610b3957610b318183610519565b5f61362b565b6136dd919650823d8411610b3957610b318183610519565b945f6135e6565b6001600160a01b03861615159450613225565b156136fe57565b60405162461bcd60e51b815260206004820152600c60248201526b105cdcd95d081b1bd8dad95960a21b6044820152606490fd5b91906040835260086040840152672a2920a729a322a960c11b6060840152602060808401930152565b9081602091031261024957516103ac816102d5565b9261379e6103ac95936137ac9360018060a01b031686525f602087015260a0604087015260a0860190610733565b908482036060860152610733565b916080818403910152610376565b93906103ac959361379e916137ac9460018060a01b03809216885216602087015260a0604087015260a0860190610733565b3d15613816573d906137fd82610549565b9161380b6040519384610519565b82523d5f602084013e565b606090565b9293919093843b61382d575050505050565b602091613850604051948593849363bc197c8160e01b9889865260048601613770565b03815f6001600160a01b0388165af15f91816138e3575b506138a657826138756137ec565b805191908261389f57604051632bfa23e760e11b81526001600160a01b0383166004820152602490fd5b6020915001fd5b6001600160e01b031916036138c057505f8080808061355b565b604051632bfa23e760e11b81526001600160a01b03919091166004820152602490fd5b61390691925060203d60201161390d575b6138fe8183610519565b81019061375b565b905f613867565b503d6138f4565b939290949194853b613929575b505050505050565b61394c602093604051958694859463bc197c8160e01b998a8752600487016137ba565b03815f6001600160a01b0388165af15f918161398c575b5061397157826138756137ec565b6001600160e01b031916036138c057505f8080808080613921565b6139a691925060203d60201161390d576138fe8183610519565b905f613963565b909260a0926103ac9594600180861b031683525f6020840152604083015260608201528160808201520190610376565b91926103ac95949160a094600180871b038092168552166020840152604083015260608201528160808201520190610376565b9293919093843b613a22575050505050565b602091613850604051948593849363f23a6e6160e01b98898652600486016139ad565b939290949194853b613a5957505050505050565b61394c602093604051958694859463f23a6e6160e01b998a8752600487016139dd565b91908201809211611d8c57565b9091613aa06103ac93604084526040840190610733565b916020818403910152610733565b9190918251825190818103611ed55750505f5b8351811015613b3a57600581901b84810160209081015191850101516001929184906001600160a01b038216613afb575b50505001613ac1565b613b3091613b13613b28925f525f60205260405f2090565b9060018060a01b03165f5260205260405f2090565b918254613a7c565b90555f8381613af2565b509160018151145f14613b98576020908101519181015160408051938452918301526001600160a01b03909216915f9133917fc3d58168c5ae7397731d063d5bbf3d657854427343f4c083240f7aacaa2d0f6291908190810161295c565b7f4a39dc06d4c0dbc64b70af90fd698a233a518aa5d07e595d983b8c0526c8f7fb61295c5f939460405191829160018060a01b031696339583613a89565b9291908051825190818103611ed55750505f5b8151811015613c9657600581901b82810160209081015191850101516001600160a01b038716613c1e575b5050600101613be9565b613c3387613b13845f525f60205260405f2090565b54818110613c5f5787613b136001959493613c579303935f525f60205260405f2090565b55905f613c14565b6040516303dee4c560e01b81526001600160a01b038916600482015260248101919091526044810182905260648101839052608490fd5b50905f92939160018151148414613cf5576020908101519181015160408051938452918301526001600160a01b039092169133917fc3d58168c5ae7397731d063d5bbf3d657854427343f4c083240f7aacaa2d0f62918190810161295c565b6040516001600160a01b039093169233927f4a39dc06d4c0dbc64b70af90fd698a233a518aa5d07e595d983b8c0526c8f7fb92829161295c9183613a89565b9392918051835190818103611ed55750505f5b8151811015613e2c57600581901b82810160209081015191860101516001600160a01b0392918590898516613dac575b6001948216613d8a575b50505001613d47565b613da291613b13613b28925f525f60205260405f2090565b90555f8481613d81565b9192939050613dc689613b13845f525f60205260405f2090565b54838110613df55791869184600196959403613ded8c613b13855f525f60205260405f2090565b559450613d77565b6040516303dee4c560e01b81526001600160a01b038b16600482015260248101919091526044810184905260648101839052608490fd5b508051939493919291600103613e8e576020908101519181015160408051938452918301526001600160a01b03928316939092169133917fc3d58168c5ae7397731d063d5bbf3d657854427343f4c083240f7aacaa2d0f62918190810161295c565b6040516001600160a01b03938416949093169233927f4a39dc06d4c0dbc64b70af90fd698a233a518aa5d07e595d983b8c0526c8f7fb92829161295c9183613a8956fe8ec725dd8a48772a420e3a3a551add447b24fe29b5093e41922437ab8f905854a26469706673582212205e8357f03b23a905b070a781c557457c13e2b55be8c13eb16a77923f8b06441364736f6c63430008180033","linkReferences":{}},"methodIdentifiers":{"accountLedger()":"5defa55e","addToBlacklist(address)":"44337ea1","assetOwner(uint256)":"2a0ee644","assets(uint256)":"cf35bdd0","balanceOf(address,uint256)":"00fdd58e","balanceOfBatch(address[],uint256[])":"4e1273f4","burn(uint256,string,string)":"ba211db0","forceTransfer(uint256,address,address,string)":"c19b8c66","getAssetDetails(uint256)":"a1f24b3d","getAssetStatus(uint256)":"823a65f5","getAssetsByOwner(address)":"276f0934","getTokenByWarrant(string)":"4873124d","isApprovedForAll(address,address)":"e985e9c5","isAssetLocked(uint256)":"e7e55295","isWarrantUsed(string)":"26471651","memberRegistry()":"a74d4772","mint(address,string,string,string,uint256,uint256,string,bytes32,string,bool,string)":"698d49ab","owner()":"8da5cb5b","removeFromBlacklist(address)":"537df3b6","renounceOwnership()":"715018a6","safeBatchTransferFrom(address,address,uint256[],uint256[],bytes)":"2eb2c2d6","safeTransferFrom(address,address,uint256,uint256,bytes)":"f242432a","setAccountLedger(address)":"59317b7a","setApprovalForAll(address,bool)":"a22cb465","setMemberRegistry(address)":"6fd7c34c","supportsInterface(bytes4)":"01ffc9a7","transferAsset(uint256,address)":"fa62ee8d","transferOwnership(address)":"f2fde38b","updateCustody(uint256,address,string)":"27329eb7","updateCustodyBatch(uint256[],address,string)":"8b27ebf4","updateStatus(uint256,uint8,string)":"781f0b72","uri(uint256)":"0e89341c","verifyCertificate(uint256,bytes32)":"c3b451a2","warrantToToken(string)":"f5dca3ca"},"id":2}