{"abi":[{"type":"constructor","inputs":[{"name":"_memberRegistry","type":"address","internalType":"address"}],"stateMutability":"nonpayable"},{"type":"function","name":"assetOwner","inputs":[{"name":"","type":"uint256","internalType":"uint256"}],"outputs":[{"name":"","type":"address","internalType":"address"}],"stateMutability":"view"},{"type":"function","name":"assets","inputs":[{"name":"","type":"uint256","internalType":"uint256"}],"outputs":[{"name":"tokenId","type":"string","internalType":"string"},{"name":"serialNumber","type":"string","internalType":"string"},{"name":"refinerName","type":"string","internalType":"string"},{"name":"weightGrams","type":"uint256","internalType":"uint256"},{"name":"fineness","type":"uint256","internalType":"uint256"},{"name":"fineWeightGrams","type":"uint256","internalType":"uint256"},{"name":"productType","type":"uint8","internalType":"enum GoldAssetToken.GoldProductType"},{"name":"certificateHash","type":"bytes32","internalType":"bytes32"},{"name":"traceabilityGIC","type":"string","internalType":"string"},{"name":"status","type":"uint8","internalType":"enum GoldAssetToken.AssetStatus"},{"name":"mintedAt","type":"uint256","internalType":"uint256"},{"name":"certified","type":"bool","internalType":"bool"}],"stateMutability":"view"},{"type":"function","name":"balanceOf","inputs":[{"name":"account","type":"address","internalType":"address"},{"name":"id","type":"uint256","internalType":"uint256"}],"outputs":[{"name":"","type":"uint256","internalType":"uint256"}],"stateMutability":"view"},{"type":"function","name":"balanceOfBatch","inputs":[{"name":"accounts","type":"address[]","internalType":"address[]"},{"name":"ids","type":"uint256[]","internalType":"uint256[]"}],"outputs":[{"name":"","type":"uint256[]","internalType":"uint256[]"}],"stateMutability":"view"},{"type":"function","name":"burn","inputs":[{"name":"tokenId","type":"uint256","internalType":"uint256"},{"name":"burnReason","type":"string","internalType":"string"}],"outputs":[],"stateMutability":"nonpayable"},{"type":"function","name":"getAssetDetails","inputs":[{"name":"tokenId","type":"uint256","internalType":"uint256"}],"outputs":[{"name":"","type":"tuple","internalType":"struct GoldAssetToken.GoldAsset","components":[{"name":"tokenId","type":"string","internalType":"string"},{"name":"serialNumber","type":"string","internalType":"string"},{"name":"refinerName","type":"string","internalType":"string"},{"name":"weightGrams","type":"uint256","internalType":"uint256"},{"name":"fineness","type":"uint256","internalType":"uint256"},{"name":"fineWeightGrams","type":"uint256","internalType":"uint256"},{"name":"productType","type":"uint8","internalType":"enum GoldAssetToken.GoldProductType"},{"name":"certificateHash","type":"bytes32","internalType":"bytes32"},{"name":"traceabilityGIC","type":"string","internalType":"string"},{"name":"status","type":"uint8","internalType":"enum GoldAssetToken.AssetStatus"},{"name":"mintedAt","type":"uint256","internalType":"uint256"},{"name":"certified","type":"bool","internalType":"bool"}]}],"stateMutability":"view"},{"type":"function","name":"getAssetsByOwner","inputs":[{"name":"owner","type":"address","internalType":"address"}],"outputs":[{"name":"","type":"uint256[]","internalType":"uint256[]"}],"stateMutability":"view"},{"type":"function","name":"isApprovedForAll","inputs":[{"name":"account","type":"address","internalType":"address"},{"name":"operator","type":"address","internalType":"address"}],"outputs":[{"name":"","type":"bool","internalType":"bool"}],"stateMutability":"view"},{"type":"function","name":"isAssetLocked","inputs":[{"name":"tokenId","type":"uint256","internalType":"uint256"}],"outputs":[{"name":"","type":"bool","internalType":"bool"}],"stateMutability":"view"},{"type":"function","name":"memberRegistry","inputs":[],"outputs":[{"name":"","type":"address","internalType":"contract IMemberRegistry"}],"stateMutability":"view"},{"type":"function","name":"mint","inputs":[{"name":"to","type":"address","internalType":"address"},{"name":"serialNumber","type":"string","internalType":"string"},{"name":"refinerName","type":"string","internalType":"string"},{"name":"weightGrams","type":"uint256","internalType":"uint256"},{"name":"fineness","type":"uint256","internalType":"uint256"},{"name":"productType","type":"uint8","internalType":"enum GoldAssetToken.GoldProductType"},{"name":"certificateHash","type":"bytes32","internalType":"bytes32"},{"name":"traceabilityGIC","type":"string","internalType":"string"},{"name":"certified","type":"bool","internalType":"bool"}],"outputs":[{"name":"","type":"uint256","internalType":"uint256"}],"stateMutability":"nonpayable"},{"type":"function","name":"owner","inputs":[],"outputs":[{"name":"","type":"address","internalType":"address"}],"stateMutability":"view"},{"type":"function","name":"renounceOwnership","inputs":[],"outputs":[],"stateMutability":"nonpayable"},{"type":"function","name":"safeBatchTransferFrom","inputs":[{"name":"from","type":"address","internalType":"address"},{"name":"to","type":"address","internalType":"address"},{"name":"ids","type":"uint256[]","internalType":"uint256[]"},{"name":"values","type":"uint256[]","internalType":"uint256[]"},{"name":"data","type":"bytes","internalType":"bytes"}],"outputs":[],"stateMutability":"nonpayable"},{"type":"function","name":"safeTransferFrom","inputs":[{"name":"from","type":"address","internalType":"address"},{"name":"to","type":"address","internalType":"address"},{"name":"id","type":"uint256","internalType":"uint256"},{"name":"value","type":"uint256","internalType":"uint256"},{"name":"data","type":"bytes","internalType":"bytes"}],"outputs":[],"stateMutability":"nonpayable"},{"type":"function","name":"setApprovalForAll","inputs":[{"name":"operator","type":"address","internalType":"address"},{"name":"approved","type":"bool","internalType":"bool"}],"outputs":[],"stateMutability":"nonpayable"},{"type":"function","name":"setMemberRegistry","inputs":[{"name":"_memberRegistry","type":"address","internalType":"address"}],"outputs":[],"stateMutability":"nonpayable"},{"type":"function","name":"supportsInterface","inputs":[{"name":"interfaceId","type":"bytes4","internalType":"bytes4"}],"outputs":[{"name":"","type":"bool","internalType":"bool"}],"stateMutability":"view"},{"type":"function","name":"transferOwnership","inputs":[{"name":"newOwner","type":"address","internalType":"address"}],"outputs":[],"stateMutability":"nonpayable"},{"type":"function","name":"updateCustody","inputs":[{"name":"tokenId","type":"uint256","internalType":"uint256"},{"name":"toParty","type":"address","internalType":"address"},{"name":"custodyType","type":"string","internalType":"string"}],"outputs":[],"stateMutability":"nonpayable"},{"type":"function","name":"updateStatus","inputs":[{"name":"tokenId","type":"uint256","internalType":"uint256"},{"name":"newStatus","type":"uint8","internalType":"enum GoldAssetToken.AssetStatus"},{"name":"reason","type":"string","internalType":"string"}],"outputs":[],"stateMutability":"nonpayable"},{"type":"function","name":"uri","inputs":[{"name":"tokenId","type":"uint256","internalType":"uint256"}],"outputs":[{"name":"","type":"string","internalType":"string"}],"stateMutability":"view"},{"type":"function","name":"verifyCertificate","inputs":[{"name":"tokenId","type":"uint256","internalType":"uint256"},{"name":"certificateHash","type":"bytes32","internalType":"bytes32"}],"outputs":[{"name":"","type":"bool","internalType":"bool"}],"stateMutability":"view"},{"type":"event","name":"ApprovalForAll","inputs":[{"name":"account","type":"address","indexed":true,"internalType":"address"},{"name":"operator","type":"address","indexed":true,"internalType":"address"},{"name":"approved","type":"bool","indexed":false,"internalType":"bool"}],"anonymous":false},{"type":"event","name":"AssetBurned","inputs":[{"name":"tokenId","type":"uint256","indexed":true,"internalType":"uint256"},{"name":"burnReason","type":"string","indexed":false,"internalType":"string"},{"name":"finalOwner","type":"address","indexed":true,"internalType":"address"},{"name":"authorizedBy","type":"address","indexed":true,"internalType":"address"},{"name":"timestamp","type":"uint256","indexed":false,"internalType":"uint256"}],"anonymous":false},{"type":"event","name":"AssetMinted","inputs":[{"name":"tokenId","type":"uint256","indexed":true,"internalType":"uint256"},{"name":"serialNumber","type":"string","indexed":false,"internalType":"string"},{"name":"refinerName","type":"string","indexed":false,"internalType":"string"},{"name":"weightGrams","type":"uint256","indexed":false,"internalType":"uint256"},{"name":"fineness","type":"uint256","indexed":false,"internalType":"uint256"},{"name":"owner","type":"address","indexed":true,"internalType":"address"},{"name":"timestamp","type":"uint256","indexed":false,"internalType":"uint256"}],"anonymous":false},{"type":"event","name":"AssetStatusChanged","inputs":[{"name":"tokenId","type":"uint256","indexed":true,"internalType":"uint256"},{"name":"previousStatus","type":"uint8","indexed":false,"internalType":"enum GoldAssetToken.AssetStatus"},{"name":"newStatus","type":"uint8","indexed":false,"internalType":"enum GoldAssetToken.AssetStatus"},{"name":"reason","type":"string","indexed":false,"internalType":"string"},{"name":"changedBy","type":"address","indexed":true,"internalType":"address"},{"name":"timestamp","type":"uint256","indexed":false,"internalType":"uint256"}],"anonymous":false},{"type":"event","name":"AssetTransferred","inputs":[{"name":"tokenId","type":"uint256","indexed":true,"internalType":"uint256"},{"name":"fromIGAN","type":"address","indexed":true,"internalType":"address"},{"name":"toIGAN","type":"address","indexed":true,"internalType":"address"},{"name":"timestamp","type":"uint256","indexed":false,"internalType":"uint256"}],"anonymous":false},{"type":"event","name":"CustodyChanged","inputs":[{"name":"tokenId","type":"uint256","indexed":true,"internalType":"uint256"},{"name":"fromParty","type":"address","indexed":true,"internalType":"address"},{"name":"toParty","type":"address","indexed":true,"internalType":"address"},{"name":"custodyType","type":"string","indexed":false,"internalType":"string"},{"name":"timestamp","type":"uint256","indexed":false,"internalType":"uint256"}],"anonymous":false},{"type":"event","name":"OwnershipTransferred","inputs":[{"name":"previousOwner","type":"address","indexed":true,"internalType":"address"},{"name":"newOwner","type":"address","indexed":true,"internalType":"address"}],"anonymous":false},{"type":"event","name":"TransferBatch","inputs":[{"name":"operator","type":"address","indexed":true,"internalType":"address"},{"name":"from","type":"address","indexed":true,"internalType":"address"},{"name":"to","type":"address","indexed":true,"internalType":"address"},{"name":"ids","type":"uint256[]","indexed":false,"internalType":"uint256[]"},{"name":"values","type":"uint256[]","indexed":false,"internalType":"uint256[]"}],"anonymous":false},{"type":"event","name":"TransferSingle","inputs":[{"name":"operator","type":"address","indexed":true,"internalType":"address"},{"name":"from","type":"address","indexed":true,"internalType":"address"},{"name":"to","type":"address","indexed":true,"internalType":"address"},{"name":"id","type":"uint256","indexed":false,"internalType":"uint256"},{"name":"value","type":"uint256","indexed":false,"internalType":"uint256"}],"anonymous":false},{"type":"event","name":"URI","inputs":[{"name":"value","type":"string","indexed":false,"internalType":"string"},{"name":"id","type":"uint256","indexed":true,"internalType":"uint256"}],"anonymous":false},{"type":"error","name":"ERC1155InsufficientBalance","inputs":[{"name":"sender","type":"address","internalType":"address"},{"name":"balance","type":"uint256","internalType":"uint256"},{"name":"needed","type":"uint256","internalType":"uint256"},{"name":"tokenId","type":"uint256","internalType":"uint256"}]},{"type":"error","name":"ERC1155InvalidApprover","inputs":[{"name":"approver","type":"address","internalType":"address"}]},{"type":"error","name":"ERC1155InvalidArrayLength","inputs":[{"name":"idsLength","type":"uint256","internalType":"uint256"},{"name":"valuesLength","type":"uint256","internalType":"uint256"}]},{"type":"error","name":"ERC1155InvalidOperator","inputs":[{"name":"operator","type":"address","internalType":"address"}]},{"type":"error","name":"ERC1155InvalidReceiver","inputs":[{"name":"receiver","type":"address","internalType":"address"}]},{"type":"error","name":"ERC1155InvalidSender","inputs":[{"name":"sender","type":"address","internalType":"address"}]},{"type":"error","name":"ERC1155MissingApprovalForAll","inputs":[{"name":"operator","type":"address","internalType":"address"},{"name":"owner","type":"address","internalType":"address"}]},{"type":"error","name":"OwnableInvalidOwner","inputs":[{"name":"owner","type":"address","internalType":"address"}]},{"type":"error","name":"OwnableUnauthorizedAccount","inputs":[{"name":"account","type":"address","internalType":"address"}]}],"bytecode":{"object":"0x608060405234801562000010575f80fd5b50604051620052d4380380620052d4833981810160405281019062000036919062000269565b3360405180602001604052805f81525062000057816200012c60201b60201c565b505f73ffffffffffffffffffffffffffffffffffffffff168173ffffffffffffffffffffffffffffffffffffffff1603620000cb575f6040517f1e4fbdf7000000000000000000000000000000000000000000000000000000008152600401620000c29190620002aa565b60405180910390fd5b620000dc816200014160201b60201c565b508060045f6101000a81548173ffffffffffffffffffffffffffffffffffffffff021916908373ffffffffffffffffffffffffffffffffffffffff1602179055506001600581905550506200060d565b80600290816200013d919062000529565b5050565b5f60035f9054906101000a900473ffffffffffffffffffffffffffffffffffffffff1690508160035f6101000a81548173ffffffffffffffffffffffffffffffffffffffff021916908373ffffffffffffffffffffffffffffffffffffffff1602179055508173ffffffffffffffffffffffffffffffffffffffff168173ffffffffffffffffffffffffffffffffffffffff167f8be0079c531659141344cd1fd0a4f28419497f9722a3daafe3b4186f6b6457e060405160405180910390a35050565b5f80fd5b5f73ffffffffffffffffffffffffffffffffffffffff82169050919050565b5f620002338262000208565b9050919050565b620002458162000227565b811462000250575f80fd5b50565b5f8151905062000263816200023a565b92915050565b5f6020828403121562000281576200028062000204565b5b5f620002908482850162000253565b91505092915050565b620002a48162000227565b82525050565b5f602082019050620002bf5f83018462000299565b92915050565b5f81519050919050565b7f4e487b71000000000000000000000000000000000000000000000000000000005f52604160045260245ffd5b7f4e487b71000000000000000000000000000000000000000000000000000000005f52602260045260245ffd5b5f60028204905060018216806200034157607f821691505b602082108103620003575762000356620002fc565b5b50919050565b5f819050815f5260205f209050919050565b5f6020601f8301049050919050565b5f82821b905092915050565b5f60088302620003bb7fffffffffffffffffffffffffffffffffffffffffffffffffffffffffffffffff826200037e565b620003c786836200037e565b95508019841693508086168417925050509392505050565b5f819050919050565b5f819050919050565b5f620004116200040b6200040584620003df565b620003e8565b620003df565b9050919050565b5f819050919050565b6200042c83620003f1565b620004446200043b8262000418565b8484546200038a565b825550505050565b5f90565b6200045a6200044c565b6200046781848462000421565b505050565b5b818110156200048e57620004825f8262000450565b6001810190506200046d565b5050565b601f821115620004dd57620004a7816200035d565b620004b2846200036f565b81016020851015620004c2578190505b620004da620004d1856200036f565b8301826200046c565b50505b505050565b5f82821c905092915050565b5f620004ff5f1984600802620004e2565b1980831691505092915050565b5f620005198383620004ee565b9150826002028217905092915050565b6200053482620002c5565b67ffffffffffffffff81111562000550576200054f620002cf565b5b6200055c825462000329565b6200056982828562000492565b5f60209050601f8311600181146200059f575f84156200058a578287015190505b6200059685826200050c565b86555062000605565b601f198416620005af866200035d565b5f5b82811015620005d857848901518255600182019150602085019450602081019050620005b1565b86831015620005f85784890151620005f4601f891682620004ee565b8355505b6001600288020188555050505b505050505050565b614cb9806200061b5f395ff3fe608060405234801561000f575f80fd5b506004361061014a575f3560e01c80637641e6f3116100c1578063c3b451a21161007a578063c3b451a2146103bc578063cf35bdd0146103ec578063e7e5529514610427578063e985e9c514610457578063f242432a14610487578063f2fde38b146104a35761014a565b80637641e6f3146102fc578063781f0b72146103185780638da5cb5b14610334578063a1f24b3d14610352578063a22cb46514610382578063a74d47721461039e5761014a565b80632a0ee644116101135780632a0ee6441461022a5780632eb2c2d61461025a5780634e1273f41461027657806365987f8f146102a65780636fd7c34c146102d6578063715018a6146102f25761014a565b8062fdd58e1461014e57806301ffc9a71461017e5780630e89341c146101ae57806327329eb7146101de578063276f0934146101fa575b5f80fd5b6101686004803603810190610163919061307d565b6104bf565b60405161017591906130ca565b60405180910390f35b61019860048036038101906101939190613138565b610514565b6040516101a5919061317d565b60405180910390f35b6101c860048036038101906101c39190613196565b6105f5565b6040516101d5919061324b565b60405180910390f35b6101f860048036038101906101f39190613397565b610686565b005b610214600480360381019061020f9190613403565b61086b565b60405161022191906134e5565b60405180910390f35b610244600480360381019061023f9190613196565b610aaa565b6040516102519190613514565b60405180910390f35b610274600480360381019061026f919061368f565b610ada565b005b610290600480360381019061028b919061381a565b610b81565b60405161029d91906134e5565b60405180910390f35b6102c060048036038101906102bb9190613910565b610c88565b6040516102cd91906130ca565b60405180910390f35b6102f060048036038101906102eb9190613403565b6110c6565b005b6102fa611111565b005b61031660048036038101906103119190613a28565b611124565b005b610332600480360381019061032d9190613aa5565b61136f565b005b61033c6115f3565b6040516103499190613514565b60405180910390f35b61036c60048036038101906103679190613196565b61161b565b6040516103799190613d46565b60405180910390f35b61039c60048036038101906103979190613d66565b61199c565b005b6103a66119b2565b6040516103b39190613dff565b60405180910390f35b6103d660048036038101906103d19190613e18565b6119d7565b6040516103e3919061317d565b60405180910390f35b61040660048036038101906104019190613196565b6119f7565b60405161041e9c9b9a99989796959493929190613e83565b60405180910390f35b610441600480360381019061043c9190613196565b611c8f565b60405161044e919061317d565b60405180910390f35b610471600480360381019061046c9190613f57565b611d13565b60405161047e919061317d565b60405180910390f35b6104a1600480360381019061049c9190613f95565b611da1565b005b6104bd60048036038101906104b89190613403565b611e48565b005b5f805f8381526020019081526020015f205f8473ffffffffffffffffffffffffffffffffffffffff1673ffffffffffffffffffffffffffffffffffffffff1681526020019081526020015f2054905092915050565b5f7fd9b67a26000000000000000000000000000000000000000000000000000000007bffffffffffffffffffffffffffffffffffffffffffffffffffffffff1916827bffffffffffffffffffffffffffffffffffffffffffffffffffffffff191614806105de57507f0e89341c000000000000000000000000000000000000000000000000000000007bffffffffffffffffffffffffffffffffffffffffffffffffffffffff1916827bffffffffffffffffffffffffffffffffffffffffffffffffffffffff1916145b806105ee57506105ed82611ecc565b5b9050919050565b60605f60065f8481526020019081526020015f20600a01540361064d576040517f08c379a000000000000000000000000000000000000000000000000000000000815260040161064490614072565b60405180910390fd5b60065f8381526020019081526020015f205f0160405160200161067091906141d3565b6040516020818303038152906040529050919050565b823373ffffffffffffffffffffffffffffffffffffffff1660085f8381526020019081526020015f205f9054906101000a900473ffffffffffffffffffffffffffffffffffffffff1673ffffffffffffffffffffffffffffffffffffffff161480610789575060045f9054906101000a900473ffffffffffffffffffffffffffffffffffffffff1673ffffffffffffffffffffffffffffffffffffffff16638cbdcead3360046040518363ffffffff1660e01b81526004016107499291906141f4565b602060405180830381865afa158015610764573d5f803e3d5ffd5b505050506040513d601f19601f82011682018060405250810190610788919061422f565b5b6107c8576040517f08c379a00000000000000000000000000000000000000000000000000000000081526004016107bf906142ca565b60405180910390fd5b5f60085f8681526020019081526020015f205f9054906101000a900473ffffffffffffffffffffffffffffffffffffffff1690508373ffffffffffffffffffffffffffffffffffffffff168173ffffffffffffffffffffffffffffffffffffffff16867f7d8bbf09e5d2c4c9326e18403c0d0edc90bf13eb1854d3cab844ac9476b12ffe864260405161085c9291906142e8565b60405180910390a45050505050565b60605f80600190505b60055481101561094f578373ffffffffffffffffffffffffffffffffffffffff1660085f8381526020019081526020015f205f9054906101000a900473ffffffffffffffffffffffffffffffffffffffff1673ffffffffffffffffffffffffffffffffffffffff1614801561092e5750600460068111156108f8576108f7613b59565b5b60065f8381526020019081526020015f206009015f9054906101000a900460ff16600681111561092b5761092a613b59565b5b14155b1561094257818061093e90614343565b9250505b8080600101915050610874565b505f8167ffffffffffffffff81111561096b5761096a613273565b5b6040519080825280602002602001820160405280156109995781602001602082028036833780820191505090505b5090505f80600190505b600554811015610a9e578573ffffffffffffffffffffffffffffffffffffffff1660085f8381526020019081526020015f205f9054906101000a900473ffffffffffffffffffffffffffffffffffffffff1673ffffffffffffffffffffffffffffffffffffffff16148015610a5d575060046006811115610a2757610a26613b59565b5b60065f8381526020019081526020015f206009015f9054906101000a900460ff166006811115610a5a57610a59613b59565b5b14155b15610a915780838381518110610a7657610a7561438a565b5b6020026020010181815250508180610a8d90614343565b9250505b80806001019150506109a3565b50819350505050919050565b6008602052805f5260405f205f915054906101000a900473ffffffffffffffffffffffffffffffffffffffff1681565b5f610ae3611f35565b90508073ffffffffffffffffffffffffffffffffffffffff168673ffffffffffffffffffffffffffffffffffffffff1614158015610b285750610b268682611d13565b155b15610b6c5780866040517fe237d922000000000000000000000000000000000000000000000000000000008152600401610b639291906143b7565b60405180910390fd5b610b798686868686611f3c565b505050505050565b60608151835114610bcd57815183516040517f5b059991000000000000000000000000000000000000000000000000000000008152600401610bc49291906143de565b60405180910390fd5b5f835167ffffffffffffffff811115610be957610be8613273565b5b604051908082528060200260200182016040528015610c175781602001602082028036833780820191505090505b5090505f5b8451811015610c7d57610c53610c3b828761203090919063ffffffff16565b610c4e838761204390919063ffffffff16565b6104bf565b828281518110610c6657610c6561438a565b5b602002602001018181525050806001019050610c1c565b508091505092915050565b5f60045f9054906101000a900473ffffffffffffffffffffffffffffffffffffffff1673ffffffffffffffffffffffffffffffffffffffff16638cbdcead3360016040518363ffffffff1660e01b8152600401610ce69291906141f4565b602060405180830381865afa158015610d01573d5f803e3d5ffd5b505050506040513d601f19601f82011682018060405250810190610d25919061422f565b610d64576040517f08c379a0000000000000000000000000000000000000000000000000000000008152600401610d5b90614475565b60405180910390fd5b5f610d6f8a8a612056565b905060075f8281526020019081526020015f205f9054906101000a900460ff1615610dcf576040517f08c379a0000000000000000000000000000000000000000000000000000000008152600401610dc6906144dd565b60405180910390fd5b600160075f8381526020019081526020015f205f6101000a81548160ff0219169083151502179055505f612710888a610e0891906144fb565b610e129190614569565b90505f600554905060055f815480929190610e2c90614343565b91905055505f604051806101800160405280610e4784612088565b604051602001610e579190614613565b60405160208183030381529060405281526020018e81526020018d81526020018c81526020018b81526020018481526020018a6003811115610e9c57610e9b613b59565b5b81526020018981526020018881526020015f6006811115610ec057610ebf613b59565b5b815260200142815260200187151581525090508060065f8481526020019081526020015f205f820151815f019081610ef891906147b6565b506020820151816001019081610f0e91906147b6565b506040820151816002019081610f2491906147b6565b50606082015181600301556080820151816004015560a0820151816005015560c0820151816006015f6101000a81548160ff02191690836003811115610f6d57610f6c613b59565b5b021790555060e08201518160070155610100820151816008019081610f9291906147b6565b50610120820151816009015f6101000a81548160ff02191690836006811115610fbe57610fbd613b59565b5b021790555061014082015181600a015561016082015181600b015f6101000a81548160ff0219169083151502179055509050508d60085f8481526020019081526020015f205f6101000a81548173ffffffffffffffffffffffffffffffffffffffff021916908373ffffffffffffffffffffffffffffffffffffffff16021790555061105b8e83600160405180602001604052805f815250612152565b8d73ffffffffffffffffffffffffffffffffffffffff16827f932fb8f9d495becdde3eacf21ebe2745661a8fa6948a458f8eb2bd242bcda69d8f8f8f8f426040516110aa959493929190614885565b60405180910390a3819450505050509998505050505050505050565b6110ce6121e7565b8060045f6101000a81548173ffffffffffffffffffffffffffffffffffffffff021916908373ffffffffffffffffffffffffffffffffffffffff16021790555050565b6111196121e7565b6111225f61226e565b565b3373ffffffffffffffffffffffffffffffffffffffff1660085f8481526020019081526020015f205f9054906101000a900473ffffffffffffffffffffffffffffffffffffffff1673ffffffffffffffffffffffffffffffffffffffff1614806111c057506111916115f3565b73ffffffffffffffffffffffffffffffffffffffff163373ffffffffffffffffffffffffffffffffffffffff16145b6111ff576040517f08c379a00000000000000000000000000000000000000000000000000000000081526004016111f69061492e565b60405180910390fd5b6004600681111561121357611212613b59565b5b60065f8481526020019081526020015f206009015f9054906101000a900460ff16600681111561124657611245613b59565b5b03611286576040517f08c379a000000000000000000000000000000000000000000000000000000000815260040161127d90614996565b60405180910390fd5b5f60085f8481526020019081526020015f205f9054906101000a900473ffffffffffffffffffffffffffffffffffffffff169050600460065f8581526020019081526020015f206009015f6101000a81548160ff021916908360068111156112f1576112f0613b59565b5b021790555061130281846001612331565b3373ffffffffffffffffffffffffffffffffffffffff168173ffffffffffffffffffffffffffffffffffffffff16847fd0360773ac0050786178ca762143b27b7e9b2d0b663ee86cf9e7f114b350087185426040516113629291906142e8565b60405180910390a4505050565b823373ffffffffffffffffffffffffffffffffffffffff1660085f8381526020019081526020015f205f9054906101000a900473ffffffffffffffffffffffffffffffffffffffff1673ffffffffffffffffffffffffffffffffffffffff161480611472575060045f9054906101000a900473ffffffffffffffffffffffffffffffffffffffff1673ffffffffffffffffffffffffffffffffffffffff16638cbdcead3360046040518363ffffffff1660e01b81526004016114329291906141f4565b602060405180830381865afa15801561144d573d5f803e3d5ffd5b505050506040513d601f19601f82011682018060405250810190611471919061422f565b5b6114b1576040517f08c379a00000000000000000000000000000000000000000000000000000000081526004016114a8906142ca565b60405180910390fd5b600460068111156114c5576114c4613b59565b5b60065f8681526020019081526020015f206009015f9054906101000a900460ff1660068111156114f8576114f7613b59565b5b03611538576040517f08c379a000000000000000000000000000000000000000000000000000000000815260040161152f906149fe565b60405180910390fd5b5f60065f8681526020019081526020015f206009015f9054906101000a900460ff1690508360065f8781526020019081526020015f206009015f6101000a81548160ff0219169083600681111561159257611591613b59565b5b02179055503373ffffffffffffffffffffffffffffffffffffffff16857f4a7f36090e241cfd69682f6a164350c2cb00366213fcca9c8a43c15e8168f94c838787426040516115e49493929190614a1c565b60405180910390a35050505050565b5f60035f9054906101000a900473ffffffffffffffffffffffffffffffffffffffff16905090565b611623612f5d565b5f60065f8481526020019081526020015f20600a015403611679576040517f08c379a000000000000000000000000000000000000000000000000000000000815260040161167090614072565b60405180910390fd5b60065f8381526020019081526020015f20604051806101800160405290815f820180546116a590614111565b80601f01602080910402602001604051908101604052809291908181526020018280546116d190614111565b801561171c5780601f106116f35761010080835404028352916020019161171c565b820191905f5260205f20905b8154815290600101906020018083116116ff57829003601f168201915b5050505050815260200160018201805461173590614111565b80601f016020809104026020016040519081016040528092919081815260200182805461176190614111565b80156117ac5780601f10611783576101008083540402835291602001916117ac565b820191905f5260205f20905b81548152906001019060200180831161178f57829003601f168201915b505050505081526020016002820180546117c590614111565b80601f01602080910402602001604051908101604052809291908181526020018280546117f190614111565b801561183c5780601f106118135761010080835404028352916020019161183c565b820191905f5260205f20905b81548152906001019060200180831161181f57829003601f168201915b50505050508152602001600382015481526020016004820154815260200160058201548152602001600682015f9054906101000a900460ff16600381111561188757611886613b59565b5b600381111561189957611898613b59565b5b8152602001600782015481526020016008820180546118b790614111565b80601f01602080910402602001604051908101604052809291908181526020018280546118e390614111565b801561192e5780601f106119055761010080835404028352916020019161192e565b820191905f5260205f20905b81548152906001019060200180831161191157829003601f168201915b50505050508152602001600982015f9054906101000a900460ff16600681111561195b5761195a613b59565b5b600681111561196d5761196c613b59565b5b8152602001600a8201548152602001600b82015f9054906101000a900460ff1615151515815250509050919050565b6119ae6119a7611f35565b83836123d3565b5050565b60045f9054906101000a900473ffffffffffffffffffffffffffffffffffffffff1681565b5f8160065f8581526020019081526020015f206007015414905092915050565b6006602052805f5260405f205f91509050805f018054611a1690614111565b80601f0160208091040260200160405190810160405280929190818152602001828054611a4290614111565b8015611a8d5780601f10611a6457610100808354040283529160200191611a8d565b820191905f5260205f20905b815481529060010190602001808311611a7057829003601f168201915b505050505090806001018054611aa290614111565b80601f0160208091040260200160405190810160405280929190818152602001828054611ace90614111565b8015611b195780601f10611af057610100808354040283529160200191611b19565b820191905f5260205f20905b815481529060010190602001808311611afc57829003601f168201915b505050505090806002018054611b2e90614111565b80601f0160208091040260200160405190810160405280929190818152602001828054611b5a90614111565b8015611ba55780601f10611b7c57610100808354040283529160200191611ba5565b820191905f5260205f20905b815481529060010190602001808311611b8857829003601f168201915b505050505090806003015490806004015490806005015490806006015f9054906101000a900460ff1690806007015490806008018054611be490614111565b80601f0160208091040260200160405190810160405280929190818152602001828054611c1090614111565b8015611c5b5780601f10611c3257610100808354040283529160200191611c5b565b820191905f5260205f20905b815481529060010190602001808311611c3e57829003601f168201915b505050505090806009015f9054906101000a900460ff169080600a01549080600b015f9054906101000a900460ff1690508c565b5f8060065f8481526020019081526020015f206009015f9054906101000a900460ff16905060036006811115611cc857611cc7613b59565b5b816006811115611cdb57611cda613b59565b5b1480611d0b575060026006811115611cf657611cf5613b59565b5b816006811115611d0957611d08613b59565b5b145b915050919050565b5f60015f8473ffffffffffffffffffffffffffffffffffffffff1673ffffffffffffffffffffffffffffffffffffffff1681526020019081526020015f205f8373ffffffffffffffffffffffffffffffffffffffff1673ffffffffffffffffffffffffffffffffffffffff1681526020019081526020015f205f9054906101000a900460ff16905092915050565b5f611daa611f35565b90508073ffffffffffffffffffffffffffffffffffffffff168673ffffffffffffffffffffffffffffffffffffffff1614158015611def5750611ded8682611d13565b155b15611e335780866040517fe237d922000000000000000000000000000000000000000000000000000000008152600401611e2a9291906143b7565b60405180910390fd5b611e40868686868661253c565b505050505050565b611e506121e7565b5f73ffffffffffffffffffffffffffffffffffffffff168173ffffffffffffffffffffffffffffffffffffffff1603611ec0575f6040517f1e4fbdf7000000000000000000000000000000000000000000000000000000008152600401611eb79190613514565b60405180910390fd5b611ec98161226e565b50565b5f7f01ffc9a7000000000000000000000000000000000000000000000000000000007bffffffffffffffffffffffffffffffffffffffffffffffffffffffff1916827bffffffffffffffffffffffffffffffffffffffffffffffffffffffff1916149050919050565b5f33905090565b5f73ffffffffffffffffffffffffffffffffffffffff168473ffffffffffffffffffffffffffffffffffffffff1603611fac575f6040517f57f447ce000000000000000000000000000000000000000000000000000000008152600401611fa39190613514565b60405180910390fd5b5f73ffffffffffffffffffffffffffffffffffffffff168573ffffffffffffffffffffffffffffffffffffffff160361201c575f6040517f01a835140000000000000000000000000000000000000000000000000000000081526004016120139190613514565b60405180910390fd5b6120298585858585612642565b5050505050565b5f60208202602084010151905092915050565b5f60208202602084010151905092915050565b5f828260405160200161206a929190614a66565b60405160208183030381529060405280519060200120905092915050565b60605f6001612096846126ee565b0190505f8167ffffffffffffffff8111156120b4576120b3613273565b5b6040519080825280601f01601f1916602001820160405280156120e65781602001600182028036833780820191505090505b5090505f82602083010190505b600115612147578080600190039150507f3031323334353637383961626364656600000000000000000000000000000000600a86061a8153600a858161213c5761213b61453c565b5b0494505f85036120f3575b819350505050919050565b5f73ffffffffffffffffffffffffffffffffffffffff168473ffffffffffffffffffffffffffffffffffffffff16036121c2575f6040517f57f447ce0000000000000000000000000000000000000000000000000000000081526004016121b99190613514565b60405180910390fd5b5f806121ce858561283f565b915091506121df5f87848487612642565b505050505050565b6121ef611f35565b73ffffffffffffffffffffffffffffffffffffffff1661220d6115f3565b73ffffffffffffffffffffffffffffffffffffffff161461226c57612230611f35565b6040517f118cdaa70000000000000000000000000000000000000000000000000000000081526004016122639190613514565b60405180910390fd5b565b5f60035f9054906101000a900473ffffffffffffffffffffffffffffffffffffffff1690508160035f6101000a81548173ffffffffffffffffffffffffffffffffffffffff021916908373ffffffffffffffffffffffffffffffffffffffff1602179055508173ffffffffffffffffffffffffffffffffffffffff168173ffffffffffffffffffffffffffffffffffffffff167f8be0079c531659141344cd1fd0a4f28419497f9722a3daafe3b4186f6b6457e060405160405180910390a35050565b5f73ffffffffffffffffffffffffffffffffffffffff168373ffffffffffffffffffffffffffffffffffffffff16036123a1575f6040517f01a835140000000000000000000000000000000000000000000000000000000081526004016123989190613514565b60405180910390fd5b5f806123ad848461283f565b915091506123cc855f848460405180602001604052805f815250612642565b5050505050565b5f73ffffffffffffffffffffffffffffffffffffffff168273ffffffffffffffffffffffffffffffffffffffff1603612443575f6040517fced3e10000000000000000000000000000000000000000000000000000000000815260040161243a9190613514565b60405180910390fd5b8060015f8573ffffffffffffffffffffffffffffffffffffffff1673ffffffffffffffffffffffffffffffffffffffff1681526020019081526020015f205f8473ffffffffffffffffffffffffffffffffffffffff1673ffffffffffffffffffffffffffffffffffffffff1681526020019081526020015f205f6101000a81548160ff0219169083151502179055508173ffffffffffffffffffffffffffffffffffffffff168373ffffffffffffffffffffffffffffffffffffffff167f17307eab39ab6107e8899845ad3d59bd9653f200f220920489ca2b5937696c318360405161252f919061317d565b60405180910390a3505050565b5f73ffffffffffffffffffffffffffffffffffffffff168473ffffffffffffffffffffffffffffffffffffffff16036125ac575f6040517f57f447ce0000000000000000000000000000000000000000000000000000000081526004016125a39190613514565b60405180910390fd5b5f73ffffffffffffffffffffffffffffffffffffffff168573ffffffffffffffffffffffffffffffffffffffff160361261c575f6040517f01a835140000000000000000000000000000000000000000000000000000000081526004016126139190613514565b60405180910390fd5b5f80612628858561283f565b915091506126398787848487612642565b50505050505050565b61264e8585858561286f565b5f73ffffffffffffffffffffffffffffffffffffffff168473ffffffffffffffffffffffffffffffffffffffff16146126e7575f61268a611f35565b905060018451036126d6575f6126a95f8661204390919063ffffffff16565b90505f6126bf5f8661204390919063ffffffff16565b90506126cf838989858589612bff565b50506126e5565b6126e4818787878787612dae565b5b505b5050505050565b5f805f90507a184f03e93ff9f4daa797ed6e38ed64bf6a1f010000000000000000831061274a577a184f03e93ff9f4daa797ed6e38ed64bf6a1f01000000000000000083816127405761273f61453c565b5b0492506040810190505b6d04ee2d6d415b85acef81000000008310612787576d04ee2d6d415b85acef8100000000838161277d5761277c61453c565b5b0492506020810190505b662386f26fc1000083106127b657662386f26fc1000083816127ac576127ab61453c565b5b0492506010810190505b6305f5e10083106127df576305f5e10083816127d5576127d461453c565b5b0492506008810190505b61271083106128045761271083816127fa576127f961453c565b5b0492506004810190505b60648310612827576064838161281d5761281c61453c565b5b0492506002810190505b600a8310612836576001810190505b80915050919050565b60608060405191506001825283602083015260408201905060018152826020820152604081016040529250929050565b80518251146128b957815181516040517f5b0599910000000000000000000000000000000000000000000000000000000081526004016128b09291906143de565b60405180910390fd5b5f6128c2611f35565b90505f5b8351811015612abe575f6128e3828661204390919063ffffffff16565b90505f6128f9838661204390919063ffffffff16565b90505f73ffffffffffffffffffffffffffffffffffffffff168873ffffffffffffffffffffffffffffffffffffffff1614612a1c575f805f8481526020019081526020015f205f8a73ffffffffffffffffffffffffffffffffffffffff1673ffffffffffffffffffffffffffffffffffffffff1681526020019081526020015f20549050818110156129c857888183856040517f03dee4c50000000000000000000000000000000000000000000000000000000081526004016129bf9493929190614a89565b60405180910390fd5b8181035f808581526020019081526020015f205f8b73ffffffffffffffffffffffffffffffffffffffff1673ffffffffffffffffffffffffffffffffffffffff1681526020019081526020015f2081905550505b5f73ffffffffffffffffffffffffffffffffffffffff168773ffffffffffffffffffffffffffffffffffffffff1614612ab157805f808481526020019081526020015f205f8973ffffffffffffffffffffffffffffffffffffffff1673ffffffffffffffffffffffffffffffffffffffff1681526020019081526020015f205f828254612aa99190614acc565b925050819055505b50508060010190506128c6565b506001835103612b79575f612adc5f8561204390919063ffffffff16565b90505f612af25f8561204390919063ffffffff16565b90508573ffffffffffffffffffffffffffffffffffffffff168773ffffffffffffffffffffffffffffffffffffffff168473ffffffffffffffffffffffffffffffffffffffff167fc3d58168c5ae7397731d063d5bbf3d657854427343f4c083240f7aacaa2d0f628585604051612b6a9291906143de565b60405180910390a45050612bf8565b8373ffffffffffffffffffffffffffffffffffffffff168573ffffffffffffffffffffffffffffffffffffffff168273ffffffffffffffffffffffffffffffffffffffff167f4a39dc06d4c0dbc64b70af90fd698a233a518aa5d07e595d983b8c0526c8f7fb8686604051612bef929190614aff565b60405180910390a45b5050505050565b5f8473ffffffffffffffffffffffffffffffffffffffff163b1115612da6578373ffffffffffffffffffffffffffffffffffffffff1663f23a6e6187878686866040518663ffffffff1660e01b8152600401612c5f959493929190614b86565b6020604051808303815f875af1925050508015612c9a57506040513d601f19601f82011682018060405250810190612c979190614bf2565b60015b612d1b573d805f8114612cc8576040519150601f19603f3d011682016040523d82523d5f602084013e612ccd565b606091505b505f815103612d1357846040517f57f447ce000000000000000000000000000000000000000000000000000000008152600401612d0a9190613514565b60405180910390fd5b805160208201fd5b63f23a6e6160e01b7bffffffffffffffffffffffffffffffffffffffffffffffffffffffff1916817bffffffffffffffffffffffffffffffffffffffffffffffffffffffff191614612da457846040517f57f447ce000000000000000000000000000000000000000000000000000000008152600401612d9b9190613514565b60405180910390fd5b505b505050505050565b5f8473ffffffffffffffffffffffffffffffffffffffff163b1115612f55578373ffffffffffffffffffffffffffffffffffffffff1663bc197c8187878686866040518663ffffffff1660e01b8152600401612e0e959493929190614c1d565b6020604051808303815f875af1925050508015612e4957506040513d601f19601f82011682018060405250810190612e469190614bf2565b60015b612eca573d805f8114612e77576040519150601f19603f3d011682016040523d82523d5f602084013e612e7c565b606091505b505f815103612ec257846040517f57f447ce000000000000000000000000000000000000000000000000000000008152600401612eb99190613514565b60405180910390fd5b805160208201fd5b63bc197c8160e01b7bffffffffffffffffffffffffffffffffffffffffffffffffffffffff1916817bffffffffffffffffffffffffffffffffffffffffffffffffffffffff191614612f5357846040517f57f447ce000000000000000000000000000000000000000000000000000000008152600401612f4a9190613514565b60405180910390fd5b505b505050505050565b6040518061018001604052806060815260200160608152602001606081526020015f81526020015f81526020015f81526020015f6003811115612fa357612fa2613b59565b5b81526020015f8019168152602001606081526020015f6006811115612fcb57612fca613b59565b5b81526020015f81526020015f151581525090565b5f604051905090565b5f80fd5b5f80fd5b5f73ffffffffffffffffffffffffffffffffffffffff82169050919050565b5f61301982612ff0565b9050919050565b6130298161300f565b8114613033575f80fd5b50565b5f8135905061304481613020565b92915050565b5f819050919050565b61305c8161304a565b8114613066575f80fd5b50565b5f8135905061307781613053565b92915050565b5f806040838503121561309357613092612fe8565b5b5f6130a085828601613036565b92505060206130b185828601613069565b9150509250929050565b6130c48161304a565b82525050565b5f6020820190506130dd5f8301846130bb565b92915050565b5f7fffffffff0000000000000000000000000000000000000000000000000000000082169050919050565b613117816130e3565b8114613121575f80fd5b50565b5f813590506131328161310e565b92915050565b5f6020828403121561314d5761314c612fe8565b5b5f61315a84828501613124565b91505092915050565b5f8115159050919050565b61317781613163565b82525050565b5f6020820190506131905f83018461316e565b92915050565b5f602082840312156131ab576131aa612fe8565b5b5f6131b884828501613069565b91505092915050565b5f81519050919050565b5f82825260208201905092915050565b5f5b838110156131f85780820151818401526020810190506131dd565b5f8484015250505050565b5f601f19601f8301169050919050565b5f61321d826131c1565b61322781856131cb565b93506132378185602086016131db565b61324081613203565b840191505092915050565b5f6020820190508181035f8301526132638184613213565b905092915050565b5f80fd5b5f80fd5b7f4e487b71000000000000000000000000000000000000000000000000000000005f52604160045260245ffd5b6132a982613203565b810181811067ffffffffffffffff821117156132c8576132c7613273565b5b80604052505050565b5f6132da612fdf565b90506132e682826132a0565b919050565b5f67ffffffffffffffff82111561330557613304613273565b5b61330e82613203565b9050602081019050919050565b828183375f83830152505050565b5f61333b613336846132eb565b6132d1565b9050828152602081018484840111156133575761335661326f565b5b61336284828561331b565b509392505050565b5f82601f83011261337e5761337d61326b565b5b813561338e848260208601613329565b91505092915050565b5f805f606084860312156133ae576133ad612fe8565b5b5f6133bb86828701613069565b93505060206133cc86828701613036565b925050604084013567ffffffffffffffff8111156133ed576133ec612fec565b5b6133f98682870161336a565b9150509250925092565b5f6020828403121561341857613417612fe8565b5b5f61342584828501613036565b91505092915050565b5f81519050919050565b5f82825260208201905092915050565b5f819050602082019050919050565b6134608161304a565b82525050565b5f6134718383613457565b60208301905092915050565b5f602082019050919050565b5f6134938261342e565b61349d8185613438565b93506134a883613448565b805f5b838110156134d85781516134bf8882613466565b97506134ca8361347d565b9250506001810190506134ab565b5085935050505092915050565b5f6020820190508181035f8301526134fd8184613489565b905092915050565b61350e8161300f565b82525050565b5f6020820190506135275f830184613505565b92915050565b5f67ffffffffffffffff82111561354757613546613273565b5b602082029050602081019050919050565b5f80fd5b5f61356e6135698461352d565b6132d1565b9050808382526020820190506020840283018581111561359157613590613558565b5b835b818110156135ba57806135a68882613069565b845260208401935050602081019050613593565b5050509392505050565b5f82601f8301126135d8576135d761326b565b5b81356135e884826020860161355c565b91505092915050565b5f67ffffffffffffffff82111561360b5761360a613273565b5b61361482613203565b9050602081019050919050565b5f61363361362e846135f1565b6132d1565b90508281526020810184848401111561364f5761364e61326f565b5b61365a84828561331b565b509392505050565b5f82601f8301126136765761367561326b565b5b8135613686848260208601613621565b91505092915050565b5f805f805f60a086880312156136a8576136a7612fe8565b5b5f6136b588828901613036565b95505060206136c688828901613036565b945050604086013567ffffffffffffffff8111156136e7576136e6612fec565b5b6136f3888289016135c4565b935050606086013567ffffffffffffffff81111561371457613713612fec565b5b613720888289016135c4565b925050608086013567ffffffffffffffff81111561374157613740612fec565b5b61374d88828901613662565b9150509295509295909350565b5f67ffffffffffffffff82111561377457613773613273565b5b602082029050602081019050919050565b5f6137976137928461375a565b6132d1565b905080838252602082019050602084028301858111156137ba576137b9613558565b5b835b818110156137e357806137cf8882613036565b8452602084019350506020810190506137bc565b5050509392505050565b5f82601f8301126138015761380061326b565b5b8135613811848260208601613785565b91505092915050565b5f80604083850312156138305761382f612fe8565b5b5f83013567ffffffffffffffff81111561384d5761384c612fec565b5b613859858286016137ed565b925050602083013567ffffffffffffffff81111561387a57613879612fec565b5b613886858286016135c4565b9150509250929050565b6004811061389c575f80fd5b50565b5f813590506138ad81613890565b92915050565b5f819050919050565b6138c5816138b3565b81146138cf575f80fd5b50565b5f813590506138e0816138bc565b92915050565b6138ef81613163565b81146138f9575f80fd5b50565b5f8135905061390a816138e6565b92915050565b5f805f805f805f805f6101208a8c03121561392e5761392d612fe8565b5b5f61393b8c828d01613036565b99505060208a013567ffffffffffffffff81111561395c5761395b612fec565b5b6139688c828d0161336a565b98505060408a013567ffffffffffffffff81111561398957613988612fec565b5b6139958c828d0161336a565b97505060606139a68c828d01613069565b96505060806139b78c828d01613069565b95505060a06139c88c828d0161389f565b94505060c06139d98c828d016138d2565b93505060e08a013567ffffffffffffffff8111156139fa576139f9612fec565b5b613a068c828d0161336a565b925050610100613a188c828d016138fc565b9150509295985092959850929598565b5f8060408385031215613a3e57613a3d612fe8565b5b5f613a4b85828601613069565b925050602083013567ffffffffffffffff811115613a6c57613a6b612fec565b5b613a788582860161336a565b9150509250929050565b60078110613a8e575f80fd5b50565b5f81359050613a9f81613a82565b92915050565b5f805f60608486031215613abc57613abb612fe8565b5b5f613ac986828701613069565b9350506020613ada86828701613a91565b925050604084013567ffffffffffffffff811115613afb57613afa612fec565b5b613b078682870161336a565b9150509250925092565b5f82825260208201905092915050565b5f613b2b826131c1565b613b358185613b11565b9350613b458185602086016131db565b613b4e81613203565b840191505092915050565b7f4e487b71000000000000000000000000000000000000000000000000000000005f52602160045260245ffd5b60048110613b9757613b96613b59565b5b50565b5f819050613ba782613b86565b919050565b5f613bb682613b9a565b9050919050565b613bc681613bac565b82525050565b613bd5816138b3565b82525050565b60078110613bec57613beb613b59565b5b50565b5f819050613bfc82613bdb565b919050565b5f613c0b82613bef565b9050919050565b613c1b81613c01565b82525050565b613c2a81613163565b82525050565b5f61018083015f8301518482035f860152613c4b8282613b21565b91505060208301518482036020860152613c658282613b21565b91505060408301518482036040860152613c7f8282613b21565b9150506060830151613c946060860182613457565b506080830151613ca76080860182613457565b5060a0830151613cba60a0860182613457565b5060c0830151613ccd60c0860182613bbd565b5060e0830151613ce060e0860182613bcc565b50610100830151848203610100860152613cfa8282613b21565b915050610120830151613d11610120860182613c12565b50610140830151613d26610140860182613457565b50610160830151613d3b610160860182613c21565b508091505092915050565b5f6020820190508181035f830152613d5e8184613c30565b905092915050565b5f8060408385031215613d7c57613d7b612fe8565b5b5f613d8985828601613036565b9250506020613d9a858286016138fc565b9150509250929050565b5f819050919050565b5f613dc7613dc2613dbd84612ff0565b613da4565b612ff0565b9050919050565b5f613dd882613dad565b9050919050565b5f613de982613dce565b9050919050565b613df981613ddf565b82525050565b5f602082019050613e125f830184613df0565b92915050565b5f8060408385031215613e2e57613e2d612fe8565b5b5f613e3b85828601613069565b9250506020613e4c858286016138d2565b9150509250929050565b613e5f81613bac565b82525050565b613e6e816138b3565b82525050565b613e7d81613c01565b82525050565b5f610180820190508181035f830152613e9c818f613213565b90508181036020830152613eb0818e613213565b90508181036040830152613ec4818d613213565b9050613ed3606083018c6130bb565b613ee0608083018b6130bb565b613eed60a083018a6130bb565b613efa60c0830189613e56565b613f0760e0830188613e65565b818103610100830152613f1a8187613213565b9050613f2a610120830186613e74565b613f386101408301856130bb565b613f4661016083018461316e565b9d9c50505050505050505050505050565b5f8060408385031215613f6d57613f6c612fe8565b5b5f613f7a85828601613036565b9250506020613f8b85828601613036565b9150509250929050565b5f805f805f60a08688031215613fae57613fad612fe8565b5b5f613fbb88828901613036565b9550506020613fcc88828901613036565b9450506040613fdd88828901613069565b9350506060613fee88828901613069565b925050608086013567ffffffffffffffff81111561400f5761400e612fec565b5b61401b88828901613662565b9150509295509295909350565b7f417373657420646f6573206e6f742065786973740000000000000000000000005f82015250565b5f61405c6014836131cb565b915061406782614028565b602082019050919050565b5f6020820190508181035f83015261408981614050565b9050919050565b5f81905092915050565b7f697066733a2f2f000000000000000000000000000000000000000000000000005f82015250565b5f6140ce600783614090565b91506140d98261409a565b600782019050919050565b7f4e487b71000000000000000000000000000000000000000000000000000000005f52602260045260245ffd5b5f600282049050600182168061412857607f821691505b60208210810361413b5761413a6140e4565b5b50919050565b5f819050815f5260205f209050919050565b5f815461415f81614111565b6141698186614090565b9450600182165f81146141835760018114614198576141ca565b60ff19831686528115158202860193506141ca565b6141a185614141565b5f5b838110156141c2578154818901526001820191506020810190506141a3565b838801955050505b50505092915050565b5f6141dd826140c2565b91506141e98284614153565b915081905092915050565b5f6040820190506142075f830185613505565b61421460208301846130bb565b9392505050565b5f81519050614229816138e6565b92915050565b5f6020828403121561424457614243612fe8565b5b5f6142518482850161421b565b91505092915050565b7f4e6f7420617574686f72697a65643a204f776e6572206f7220435553544f44495f8201527f414e20726f6c6520726571756972656400000000000000000000000000000000602082015250565b5f6142b46030836131cb565b91506142bf8261425a565b604082019050919050565b5f6020820190508181035f8301526142e1816142a8565b9050919050565b5f6040820190508181035f8301526143008185613213565b905061430f60208301846130bb565b9392505050565b7f4e487b71000000000000000000000000000000000000000000000000000000005f52601160045260245ffd5b5f61434d8261304a565b91507fffffffffffffffffffffffffffffffffffffffffffffffffffffffffffffffff820361437f5761437e614316565b5b600182019050919050565b7f4e487b71000000000000000000000000000000000000000000000000000000005f52603260045260245ffd5b5f6040820190506143ca5f830185613505565b6143d76020830184613505565b9392505050565b5f6040820190506143f15f8301856130bb565b6143fe60208301846130bb565b9392505050565b7f4e6f7420617574686f72697a65643a20524546494e455220726f6c65207265715f8201527f7569726564000000000000000000000000000000000000000000000000000000602082015250565b5f61445f6025836131cb565b915061446a82614405565b604082019050919050565b5f6020820190508181035f83015261448c81614453565b9050919050565b7f417373657420616c7265616479207265676973746572656400000000000000005f82015250565b5f6144c76018836131cb565b91506144d282614493565b602082019050919050565b5f6020820190508181035f8301526144f4816144bb565b9050919050565b5f6145058261304a565b91506145108361304a565b925082820261451e8161304a565b9150828204841483151761453557614534614316565b5b5092915050565b7f4e487b71000000000000000000000000000000000000000000000000000000005f52601260045260245ffd5b5f6145738261304a565b915061457e8361304a565b92508261458e5761458d61453c565b5b828204905092915050565b7f474946542d41535345542d0000000000000000000000000000000000000000005f82015250565b5f6145cd600b83614090565b91506145d882614599565b600b82019050919050565b5f6145ed826131c1565b6145f78185614090565b93506146078185602086016131db565b80840191505092915050565b5f61461d826145c1565b915061462982846145e3565b915081905092915050565b5f6020601f8301049050919050565b5f82821b905092915050565b5f6008830261467e7fffffffffffffffffffffffffffffffffffffffffffffffffffffffffffffffff82614643565b6146888683614643565b95508019841693508086168417925050509392505050565b5f6146ba6146b56146b08461304a565b613da4565b61304a565b9050919050565b5f819050919050565b6146d3836146a0565b6146e76146df826146c1565b84845461464f565b825550505050565b5f90565b6146fb6146ef565b6147068184846146ca565b505050565b5b818110156147295761471e5f826146f3565b60018101905061470c565b5050565b601f82111561476e5761473f81614141565b61474884614634565b81016020851015614757578190505b61476b61476385614634565b83018261470b565b50505b505050565b5f82821c905092915050565b5f61478e5f1984600802614773565b1980831691505092915050565b5f6147a6838361477f565b9150826002028217905092915050565b6147bf826131c1565b67ffffffffffffffff8111156147d8576147d7613273565b5b6147e28254614111565b6147ed82828561472d565b5f60209050601f83116001811461481e575f841561480c578287015190505b614816858261479b565b86555061487d565b601f19841661482c86614141565b5f5b828110156148535784890151825560018201915060208501945060208101905061482e565b86831015614870578489015161486c601f89168261477f565b8355505b6001600288020188555050505b505050505050565b5f60a0820190508181035f83015261489d8188613213565b905081810360208301526148b18187613213565b90506148c060408301866130bb565b6148cd60608301856130bb565b6148da60808301846130bb565b9695505050505050565b7f4e6f7420617574686f72697a65640000000000000000000000000000000000005f82015250565b5f614918600e836131cb565b9150614923826148e4565b602082019050919050565b5f6020820190508181035f8301526149458161490c565b9050919050565b7f417373657420616c7265616479206275726e65640000000000000000000000005f82015250565b5f6149806014836131cb565b915061498b8261494c565b602082019050919050565b5f6020820190508181035f8301526149ad81614974565b9050919050565b7f43616e6e6f7420757064617465206275726e65642061737365740000000000005f82015250565b5f6149e8601a836131cb565b91506149f3826149b4565b602082019050919050565b5f6020820190508181035f830152614a15816149dc565b9050919050565b5f608082019050614a2f5f830187613e74565b614a3c6020830186613e74565b8181036040830152614a4e8185613213565b9050614a5d60608301846130bb565b95945050505050565b5f614a7182856145e3565b9150614a7d82846145e3565b91508190509392505050565b5f608082019050614a9c5f830187613505565b614aa960208301866130bb565b614ab660408301856130bb565b614ac360608301846130bb565b95945050505050565b5f614ad68261304a565b9150614ae18361304a565b9250828201905080821115614af957614af8614316565b5b92915050565b5f6040820190508181035f830152614b178185613489565b90508181036020830152614b2b8184613489565b90509392505050565b5f81519050919050565b5f82825260208201905092915050565b5f614b5882614b34565b614b628185614b3e565b9350614b728185602086016131db565b614b7b81613203565b840191505092915050565b5f60a082019050614b995f830188613505565b614ba66020830187613505565b614bb360408301866130bb565b614bc060608301856130bb565b8181036080830152614bd28184614b4e565b90509695505050505050565b5f81519050614bec8161310e565b92915050565b5f60208284031215614c0757614c06612fe8565b5b5f614c1484828501614bde565b91505092915050565b5f60a082019050614c305f830188613505565b614c3d6020830187613505565b8181036040830152614c4f8186613489565b90508181036060830152614c638185613489565b90508181036080830152614c778184614b4e565b9050969550505050505056fea26469706673582212203fac6d445653cbbb70b89d2c3f0fc10cfc792e13a15f07ad01ce645ff9657ae164736f6c63430008180033","linkReferences":{}},"methodIdentifiers":{"assetOwner(uint256)":"2a0ee644","assets(uint256)":"cf35bdd0","balanceOf(address,uint256)":"00fdd58e","balanceOfBatch(address[],uint256[])":"4e1273f4","burn(uint256,string)":"7641e6f3","getAssetDetails(uint256)":"a1f24b3d","getAssetsByOwner(address)":"276f0934","isApprovedForAll(address,address)":"e985e9c5","isAssetLocked(uint256)":"e7e55295","memberRegistry()":"a74d4772","mint(address,string,string,uint256,uint256,uint8,bytes32,string,bool)":"65987f8f","owner()":"8da5cb5b","renounceOwnership()":"715018a6","safeBatchTransferFrom(address,address,uint256[],uint256[],bytes)":"2eb2c2d6","safeTransferFrom(address,address,uint256,uint256,bytes)":"f242432a","setApprovalForAll(address,bool)":"a22cb465","setMemberRegistry(address)":"6fd7c34c","supportsInterface(bytes4)":"01ffc9a7","transferOwnership(address)":"f2fde38b","updateCustody(uint256,address,string)":"27329eb7","updateStatus(uint256,uint8,string)":"781f0b72","uri(uint256)":"0e89341c","verifyCertificate(uint256,bytes32)":"c3b451a2"},"id":0}