{"abi":[{"type":"constructor","inputs":[],"stateMutability":"nonpayable"},{"type":"function","name":"activateUser","inputs":[{"name":"userId","type":"string","internalType":"string"}],"outputs":[{"name":"","type":"bool","internalType":"bool"}],"stateMutability":"nonpayable"},{"type":"function","name":"addUserAdminAddress","inputs":[{"name":"userId","type":"string","internalType":"string"},{"name":"adminAddress","type":"address","internalType":"address"}],"outputs":[{"name":"","type":"bool","internalType":"bool"}],"stateMutability":"nonpayable"},{"type":"function","name":"addressToMemberGIC","inputs":[{"name":"","type":"address","internalType":"address"}],"outputs":[{"name":"","type":"string","internalType":"string"}],"stateMutability":"view"},{"type":"function","name":"addressToUserId","inputs":[{"name":"","type":"address","internalType":"address"}],"outputs":[{"name":"","type":"string","internalType":"string"}],"stateMutability":"view"},{"type":"function","name":"approveMember","inputs":[{"name":"memberGIC","type":"string","internalType":"string"}],"outputs":[{"name":"","type":"bool","internalType":"bool"}],"stateMutability":"nonpayable"},{"type":"function","name":"assignRole","inputs":[{"name":"memberGIC","type":"string","internalType":"string"},{"name":"role","type":"uint256","internalType":"uint256"}],"outputs":[{"name":"","type":"bool","internalType":"bool"}],"stateMutability":"nonpayable"},{"type":"function","name":"getMemberDetails","inputs":[{"name":"memberGIC","type":"string","internalType":"string"}],"outputs":[{"name":"","type":"tuple","internalType":"struct MemberRegistry.Member","components":[{"name":"memberGIC","type":"string","internalType":"string"},{"name":"memberType","type":"uint8","internalType":"enum MemberRegistry.MemberType"},{"name":"status","type":"uint8","internalType":"enum MemberRegistry.MemberStatus"},{"name":"createdAt","type":"uint256","internalType":"uint256"},{"name":"updatedAt","type":"uint256","internalType":"uint256"},{"name":"memberHash","type":"bytes32","internalType":"bytes32"},{"name":"roles","type":"uint256","internalType":"uint256"},{"name":"userAddress","type":"address","internalType":"address"}]}],"stateMutability":"view"},{"type":"function","name":"getMemberStatus","inputs":[{"name":"memberGIC","type":"string","internalType":"string"}],"outputs":[{"name":"","type":"uint8","internalType":"uint8"}],"stateMutability":"view"},{"type":"function","name":"getMembersCount","inputs":[],"outputs":[{"name":"","type":"uint256","internalType":"uint256"}],"stateMutability":"view"},{"type":"function","name":"getUserDetails","inputs":[{"name":"userId","type":"string","internalType":"string"}],"outputs":[{"name":"","type":"tuple","internalType":"struct MemberRegistry.User","components":[{"name":"userId","type":"string","internalType":"string"},{"name":"userHash","type":"bytes32","internalType":"bytes32"},{"name":"linkedMemberGIC","type":"string","internalType":"string"},{"name":"status","type":"uint8","internalType":"enum MemberRegistry.UserStatus"},{"name":"createdAt","type":"uint256","internalType":"uint256"},{"name":"adminAddresses","type":"address[]","internalType":"address[]"}]}],"stateMutability":"view"},{"type":"function","name":"getUserStatus","inputs":[{"name":"userId","type":"string","internalType":"string"}],"outputs":[{"name":"","type":"uint8","internalType":"uint8"}],"stateMutability":"view"},{"type":"function","name":"getUsersCount","inputs":[],"outputs":[{"name":"","type":"uint256","internalType":"uint256"}],"stateMutability":"view"},{"type":"function","name":"isMemberInRole","inputs":[{"name":"member","type":"address","internalType":"address"},{"name":"role","type":"uint256","internalType":"uint256"}],"outputs":[{"name":"","type":"bool","internalType":"bool"}],"stateMutability":"view"},{"type":"function","name":"linkAddressToMember","inputs":[{"name":"addr","type":"address","internalType":"address"},{"name":"memberGIC","type":"string","internalType":"string"}],"outputs":[{"name":"","type":"bool","internalType":"bool"}],"stateMutability":"nonpayable"},{"type":"function","name":"linkUserToMember","inputs":[{"name":"userId","type":"string","internalType":"string"},{"name":"memberGIC","type":"string","internalType":"string"}],"outputs":[{"name":"","type":"bool","internalType":"bool"}],"stateMutability":"nonpayable"},{"type":"function","name":"memberList","inputs":[{"name":"","type":"uint256","internalType":"uint256"}],"outputs":[{"name":"","type":"string","internalType":"string"}],"stateMutability":"view"},{"type":"function","name":"members","inputs":[{"name":"","type":"string","internalType":"string"}],"outputs":[{"name":"memberGIC","type":"string","internalType":"string"},{"name":"memberType","type":"uint8","internalType":"enum MemberRegistry.MemberType"},{"name":"status","type":"uint8","internalType":"enum MemberRegistry.MemberStatus"},{"name":"createdAt","type":"uint256","internalType":"uint256"},{"name":"updatedAt","type":"uint256","internalType":"uint256"},{"name":"memberHash","type":"bytes32","internalType":"bytes32"},{"name":"roles","type":"uint256","internalType":"uint256"},{"name":"userAddress","type":"address","internalType":"address"}],"stateMutability":"view"},{"type":"function","name":"owner","inputs":[],"outputs":[{"name":"","type":"address","internalType":"address"}],"stateMutability":"view"},{"type":"function","name":"registerMember","inputs":[{"name":"memberGIC","type":"string","internalType":"string"},{"name":"memberType","type":"uint8","internalType":"enum MemberRegistry.MemberType"},{"name":"memberHash","type":"bytes32","internalType":"bytes32"},{"name":"userAddress","type":"address","internalType":"address"},{"name":"role","type":"uint256","internalType":"uint256"}],"outputs":[{"name":"","type":"bool","internalType":"bool"}],"stateMutability":"nonpayable"},{"type":"function","name":"registerUser","inputs":[{"name":"userId","type":"string","internalType":"string"},{"name":"userHash","type":"bytes32","internalType":"bytes32"}],"outputs":[{"name":"","type":"bool","internalType":"bool"}],"stateMutability":"nonpayable"},{"type":"function","name":"renounceOwnership","inputs":[],"outputs":[],"stateMutability":"nonpayable"},{"type":"function","name":"revokeRole","inputs":[{"name":"memberGIC","type":"string","internalType":"string"},{"name":"role","type":"uint256","internalType":"uint256"}],"outputs":[{"name":"","type":"bool","internalType":"bool"}],"stateMutability":"nonpayable"},{"type":"function","name":"suspendMember","inputs":[{"name":"memberGIC","type":"string","internalType":"string"},{"name":"reason","type":"string","internalType":"string"}],"outputs":[{"name":"","type":"bool","internalType":"bool"}],"stateMutability":"nonpayable"},{"type":"function","name":"suspendUser","inputs":[{"name":"userId","type":"string","internalType":"string"}],"outputs":[{"name":"","type":"bool","internalType":"bool"}],"stateMutability":"nonpayable"},{"type":"function","name":"terminateMember","inputs":[{"name":"memberGIC","type":"string","internalType":"string"}],"outputs":[{"name":"","type":"bool","internalType":"bool"}],"stateMutability":"nonpayable"},{"type":"function","name":"transferOwnership","inputs":[{"name":"newOwner","type":"address","internalType":"address"}],"outputs":[],"stateMutability":"nonpayable"},{"type":"function","name":"userList","inputs":[{"name":"","type":"uint256","internalType":"uint256"}],"outputs":[{"name":"","type":"string","internalType":"string"}],"stateMutability":"view"},{"type":"function","name":"users","inputs":[{"name":"","type":"string","internalType":"string"}],"outputs":[{"name":"userId","type":"string","internalType":"string"},{"name":"userHash","type":"bytes32","internalType":"bytes32"},{"name":"linkedMemberGIC","type":"string","internalType":"string"},{"name":"status","type":"uint8","internalType":"enum MemberRegistry.UserStatus"},{"name":"createdAt","type":"uint256","internalType":"uint256"}],"stateMutability":"view"},{"type":"function","name":"validatePermission","inputs":[{"name":"member","type":"address","internalType":"address"},{"name":"role","type":"uint256","internalType":"uint256"}],"outputs":[{"name":"","type":"bool","internalType":"bool"}],"stateMutability":"view"},{"type":"event","name":"MemberApproved","inputs":[{"name":"memberGIC","type":"string","indexed":true,"internalType":"string"},{"name":"approvedBy","type":"address","indexed":true,"internalType":"address"},{"name":"timestamp","type":"uint256","indexed":false,"internalType":"uint256"}],"anonymous":false},{"type":"event","name":"MemberRegistered","inputs":[{"name":"memberGIC","type":"string","indexed":true,"internalType":"string"},{"name":"memberType","type":"uint8","indexed":false,"internalType":"enum MemberRegistry.MemberType"},{"name":"registeredBy","type":"address","indexed":true,"internalType":"address"},{"name":"timestamp","type":"uint256","indexed":false,"internalType":"uint256"}],"anonymous":false},{"type":"event","name":"MemberSuspended","inputs":[{"name":"memberGIC","type":"string","indexed":true,"internalType":"string"},{"name":"reason","type":"string","indexed":false,"internalType":"string"},{"name":"suspendedBy","type":"address","indexed":true,"internalType":"address"},{"name":"timestamp","type":"uint256","indexed":false,"internalType":"uint256"}],"anonymous":false},{"type":"event","name":"OwnershipTransferred","inputs":[{"name":"previousOwner","type":"address","indexed":true,"internalType":"address"},{"name":"newOwner","type":"address","indexed":true,"internalType":"address"}],"anonymous":false},{"type":"event","name":"RoleAssigned","inputs":[{"name":"memberGIC","type":"string","indexed":true,"internalType":"string"},{"name":"role","type":"uint256","indexed":false,"internalType":"uint256"},{"name":"assignedBy","type":"address","indexed":true,"internalType":"address"},{"name":"timestamp","type":"uint256","indexed":false,"internalType":"uint256"}],"anonymous":false},{"type":"event","name":"RoleRevoked","inputs":[{"name":"memberGIC","type":"string","indexed":true,"internalType":"string"},{"name":"role","type":"uint256","indexed":false,"internalType":"uint256"},{"name":"revokedBy","type":"address","indexed":true,"internalType":"address"},{"name":"timestamp","type":"uint256","indexed":false,"internalType":"uint256"}],"anonymous":false},{"type":"event","name":"UserLinkedToMember","inputs":[{"name":"userId","type":"string","indexed":true,"internalType":"string"},{"name":"memberGIC","type":"string","indexed":true,"internalType":"string"},{"name":"linkedBy","type":"address","indexed":true,"internalType":"address"},{"name":"timestamp","type":"uint256","indexed":false,"internalType":"uint256"}],"anonymous":false},{"type":"event","name":"UserRegistered","inputs":[{"name":"userId","type":"string","indexed":true,"internalType":"string"},{"name":"userHash","type":"bytes32","indexed":false,"internalType":"bytes32"},{"name":"registeredBy","type":"address","indexed":true,"internalType":"address"},{"name":"timestamp","type":"uint256","indexed":false,"internalType":"uint256"}],"anonymous":false},{"type":"error","name":"OwnableInvalidOwner","inputs":[{"name":"owner","type":"address","internalType":"address"}]},{"type":"error","name":"OwnableUnauthorizedAccount","inputs":[{"name":"account","type":"address","internalType":"address"}]}],"bytecode":{"object":"0x608060405234801562000010575f80fd5b50335f73ffffffffffffffffffffffffffffffffffffffff168173ffffffffffffffffffffffffffffffffffffffff160362000085575f6040517f1e4fbdf70000000000000000000000000000000000000000000000000000000081526004016200007c91906200047e565b60405180910390fd5b62000096816200037a60201b60201c565b505f6040518061010001604052806040518060400160405280600881526020017f504c4154464f524d0000000000000000000000000000000000000000000000008152508152602001600280811115620000f557620000f462000499565b5b81526020016001600381111562000111576200011062000499565b5b81526020014281526020014281526020017f3cb058642d3f17bc460bdd6eab42c21564f6b5228beab6a905a2eb32727c49d18152602001608060406020601060086004600260011717171717171781526020013373ffffffffffffffffffffffffffffffffffffffff16815250905080600160405162000191906200051e565b90815260200160405180910390205f820151815f019081620001b4919062000798565b506020820151816001015f6101000a81548160ff02191690836002811115620001e257620001e162000499565b5b021790555060408201518160010160016101000a81548160ff0219169083600381111562000215576200021462000499565b5b0217905550606082015181600201556080820151816003015560a0820151816004015560c0820151816005015560e0820151816006015f6101000a81548173ffffffffffffffffffffffffffffffffffffffff021916908373ffffffffffffffffffffffffffffffffffffffff16021790555090505060058060018154018082558091505060019003905f5260205f20015f6040518060400160405280600881526020017f504c4154464f524d00000000000000000000000000000000000000000000000081525090919091509081620002f0919062000798565b506040518060400160405280600881526020017f504c4154464f524d00000000000000000000000000000000000000000000000081525060035f3373ffffffffffffffffffffffffffffffffffffffff1673ffffffffffffffffffffffffffffffffffffffff1681526020019081526020015f20908162000372919062000798565b50506200087c565b5f805f9054906101000a900473ffffffffffffffffffffffffffffffffffffffff169050815f806101000a81548173ffffffffffffffffffffffffffffffffffffffff021916908373ffffffffffffffffffffffffffffffffffffffff1602179055508173ffffffffffffffffffffffffffffffffffffffff168173ffffffffffffffffffffffffffffffffffffffff167f8be0079c531659141344cd1fd0a4f28419497f9722a3daafe3b4186f6b6457e060405160405180910390a35050565b5f73ffffffffffffffffffffffffffffffffffffffff82169050919050565b5f62000466826200043b565b9050919050565b62000478816200045a565b82525050565b5f602082019050620004935f8301846200046d565b92915050565b7f4e487b71000000000000000000000000000000000000000000000000000000005f52602160045260245ffd5b5f81905092915050565b7f504c4154464f524d0000000000000000000000000000000000000000000000005f82015250565b5f62000506600883620004c6565b91506200051382620004d0565b600882019050919050565b5f6200052a82620004f8565b9150819050919050565b5f81519050919050565b7f4e487b71000000000000000000000000000000000000000000000000000000005f52604160045260245ffd5b7f4e487b71000000000000000000000000000000000000000000000000000000005f52602260045260245ffd5b5f6002820490506001821680620005b057607f821691505b602082108103620005c657620005c56200056b565b5b50919050565b5f819050815f5260205f209050919050565b5f6020601f8301049050919050565b5f82821b905092915050565b5f600883026200062a7fffffffffffffffffffffffffffffffffffffffffffffffffffffffffffffffff82620005ed565b620006368683620005ed565b95508019841693508086168417925050509392505050565b5f819050919050565b5f819050919050565b5f620006806200067a62000674846200064e565b62000657565b6200064e565b9050919050565b5f819050919050565b6200069b8362000660565b620006b3620006aa8262000687565b848454620005f9565b825550505050565b5f90565b620006c9620006bb565b620006d681848462000690565b505050565b5b81811015620006fd57620006f15f82620006bf565b600181019050620006dc565b5050565b601f8211156200074c576200071681620005cc565b6200072184620005de565b8101602085101562000731578190505b620007496200074085620005de565b830182620006db565b50505b505050565b5f82821c905092915050565b5f6200076e5f198460080262000751565b1980831691505092915050565b5f6200078883836200075d565b9150826002028217905092915050565b620007a38262000534565b67ffffffffffffffff811115620007bf57620007be6200053e565b5b620007cb825462000598565b620007d882828562000701565b5f60209050601f8311600181146200080e575f8415620007f9578287015190505b6200080585826200077b565b86555062000874565b601f1984166200081e86620005cc565b5f5b82811015620008475784890151825560018201915060208501945060208101905062000820565b8683101562000867578489015162000863601f8916826200075d565b8355505b6001600288020188555050505b505050505050565b614966806200088a5f395ff3fe608060405234801561000f575f80fd5b50600436106101cd575f3560e01c80638da5cb5b11610102578063b5ffbbcc116100a0578063e106c71a1161006f578063e106c71a14610630578063f2fde38b14610660578063fe1d3fd21461067c578063ff1484ca146106ac576101cd565b8063b5ffbbcc14610570578063cd77022c146105a0578063d10a9f68146105d0578063d6e9f49514610600576101cd565b80639f4216e8116100dc5780639f4216e8146104c2578063a4a1e263146104f2578063a9d23d4614610510578063b307fc6d14610540576101cd565b80638da5cb5b146104445780638e690fc51461046257806393a0208214610492576101cd565b8063689f2ed21161016f5780636a769c29116101495780636a769c29146103aa578063715018a6146103da5780637c0f8882146103e45780638cbdcead14610414576101cd565b8063689f2ed21461031357806368ae5563146103435780636957a0b214610373576101cd565b806309772f8f116101ab57806309772f8f146102615780632b3fafb21461027f5780633b8cd7dc146102af578063689e1c03146102df576101cd565b806304418790146101d157806307e9c88314610201578063085ba07414610231575b5f80fd5b6101eb60048036038101906101e69190613481565b6106dc565b6040516101f89190613511565b60405180910390f35b61021b6004803603810190610216919061352a565b610913565b604051610228919061358c565b60405180910390f35b61024b6004803603810190610246919061352a565b6109c0565b604051610258919061383d565b60405180910390f35b610269610c55565b604051610276919061386c565b60405180910390f35b6102996004803603810190610294919061352a565b610c61565b6040516102a69190613511565b60405180910390f35b6102c960048036038101906102c4919061352a565b610d62565b6040516102d69190613511565b60405180910390f35b6102f960048036038101906102f4919061352a565b610e8b565b60405161030a9594939291906138eb565b60405180910390f35b61032d60048036038101906103289190613481565b610fed565b60405161033a9190613511565b60405180910390f35b61035d60048036038101906103589190613974565b611212565b60405161036a9190613511565b60405180910390f35b61038d6004803603810190610388919061352a565b61153a565b6040516103a1989796959493929190613a69565b60405180910390f35b6103c460048036038101906103bf9190613b16565b611654565b6040516103d19190613511565b60405180910390f35b6103e26117c9565b005b6103fe60048036038101906103f99190613b9a565b6117dc565b60405161040b9190613511565b60405180910390f35b61042e60048036038101906104299190613b9a565b611ab2565b60405161043b9190613511565b60405180910390f35b61044c611e48565b6040516104599190613bd8565b60405180910390f35b61047c6004803603810190610477919061352a565b611e6f565b604051610489919061358c565b60405180910390f35b6104ac60048036038101906104a79190613bf1565b611f1d565b6040516104b99190613c1c565b60405180910390f35b6104dc60048036038101906104d79190613c3c565b611fb8565b6040516104e99190613c1c565b60405180910390f35b6104fa61205e565b604051610507919061386c565b60405180910390f35b61052a60048036038101906105259190613c67565b61206a565b6040516105379190613511565b60405180910390f35b61055a60048036038101906105559190613c3c565b612147565b6040516105679190613c1c565b60405180910390f35b61058a60048036038101906105859190613bf1565b6121ed565b6040516105979190613c1c565b60405180910390f35b6105ba60048036038101906105b59190613ce4565b612288565b6040516105c79190613511565b60405180910390f35b6105ea60048036038101906105e59190613d77565b6126c1565b6040516105f79190613511565b60405180910390f35b61061a6004803603810190610615919061352a565b6128b3565b6040516106279190613511565b60405180910390f35b61064a6004803603810190610645919061352a565b612ad3565b6040516106579190613511565b60405180910390f35b61067a60048036038101906106759190613bf1565b612bd4565b005b6106966004803603810190610691919061352a565b612c58565b6040516106a39190613e9c565b60405180910390f35b6106c660048036038101906106c19190613b16565b612e77565b6040516106d39190613511565b60405180910390f35b5f6106e8336040611ab2565b610727576040517f08c379a000000000000000000000000000000000000000000000000000000000815260040161071e90613f2c565b60405180910390fd5b825f6002826040516107399190613f84565b9081526020016040518091039020600401540361078b576040517f08c379a000000000000000000000000000000000000000000000000000000000815260040161078290613fe4565b60405180910390fd5b825f60018260405161079d9190613f84565b908152602001604051809103902060020154036107ef576040517f08c379a00000000000000000000000000000000000000000000000000000000081526004016107e69061404c565b60405180910390fd5b5f6002866040516108009190613f84565b9081526020016040518091039020600201805461081c90614097565b90501461085e576040517f08c379a000000000000000000000000000000000000000000000000000000000815260040161085590614111565b60405180910390fd5b8360028660405161086f9190613f84565b9081526020016040518091039020600201908161088c91906142cc565b503373ffffffffffffffffffffffffffffffffffffffff16846040516108b29190613f84565b6040518091039020866040516108c89190613f84565b60405180910390207fd1b268239537a25c14e2eac10da2a119aa3cf3961279b9a7a08d88ce228fae9f426040516108ff919061386c565b60405180910390a460019250505092915050565b5f815f6002826040516109269190613f84565b90815260200160405180910390206004015403610978576040517f08c379a000000000000000000000000000000000000000000000000000000000815260040161096f90613fe4565b60405180910390fd5b6002836040516109889190613f84565b90815260200160405180910390206003015f9054906101000a900460ff1660028111156109b8576109b7613637565b5b915050919050565b6109c86131cf565b815f6002826040516109da9190613f84565b90815260200160405180910390206004015403610a2c576040517f08c379a0000000000000000000000000000000000000000000000000000000008152600401610a2390613fe4565b60405180910390fd5b600283604051610a3c9190613f84565b90815260200160405180910390206040518060c00160405290815f82018054610a6490614097565b80601f0160208091040260200160405190810160405280929190818152602001828054610a9090614097565b8015610adb5780601f10610ab257610100808354040283529160200191610adb565b820191905f5260205f20905b815481529060010190602001808311610abe57829003601f168201915b5050505050815260200160018201548152602001600282018054610afe90614097565b80601f0160208091040260200160405190810160405280929190818152602001828054610b2a90614097565b8015610b755780601f10610b4c57610100808354040283529160200191610b75565b820191905f5260205f20905b815481529060010190602001808311610b5857829003601f168201915b50505050508152602001600382015f9054906101000a900460ff166002811115610ba257610ba1613637565b5b6002811115610bb457610bb3613637565b5b81526020016004820154815260200160058201805480602002602001604051908101604052809291908181526020018280548015610c4457602002820191905f5260205f20905b815f9054906101000a900473ffffffffffffffffffffffffffffffffffffffff1673ffffffffffffffffffffffffffffffffffffffff1681526020019060010190808311610bfb575b505050505081525050915050919050565b5f600580549050905090565b5f610c6d336040611ab2565b610cac576040517f08c379a0000000000000000000000000000000000000000000000000000000008152600401610ca390613f2c565b60405180910390fd5b815f600282604051610cbe9190613f84565b90815260200160405180910390206004015403610d10576040517f08c379a0000000000000000000000000000000000000000000000000000000008152600401610d0790613fe4565b60405180910390fd5b5f600284604051610d219190613f84565b90815260200160405180910390206003015f6101000a81548160ff02191690836002811115610d5357610d52613637565b5b02179055506001915050919050565b5f610d6e336080611ab2565b610dad576040517f08c379a0000000000000000000000000000000000000000000000000000000008152600401610da49061440b565b60405180910390fd5b815f600182604051610dbf9190613f84565b90815260200160405180910390206002015403610e11576040517f08c379a0000000000000000000000000000000000000000000000000000000008152600401610e089061404c565b60405180910390fd5b6003600184604051610e239190613f84565b908152602001604051809103902060010160016101000a81548160ff02191690836003811115610e5657610e55613637565b5b021790555042600184604051610e6c9190613f84565b9081526020016040518091039020600301819055506001915050919050565b6002818051602081018201805184825260208301602085012081835280955050505050505f91509050805f018054610ec290614097565b80601f0160208091040260200160405190810160405280929190818152602001828054610eee90614097565b8015610f395780601f10610f1057610100808354040283529160200191610f39565b820191905f5260205f20905b815481529060010190602001808311610f1c57829003601f168201915b505050505090806001015490806002018054610f5490614097565b80601f0160208091040260200160405190810160405280929190818152602001828054610f8090614097565b8015610fcb5780601f10610fa257610100808354040283529160200191610fcb565b820191905f5260205f20905b815481529060010190602001808311610fae57829003601f168201915b505050505090806003015f9054906101000a900460ff16908060040154905085565b5f610ff9336040611ab2565b611038576040517f08c379a000000000000000000000000000000000000000000000000000000000815260040161102f90613f2c565b60405180910390fd5b825f60018260405161104a9190613f84565b9081526020016040518091039020600201540361109c576040517f08c379a00000000000000000000000000000000000000000000000000000000081526004016110939061404c565b60405180910390fd5b600260038111156110b0576110af613637565b5b6001856040516110c09190613f84565b908152602001604051809103902060010160019054906101000a900460ff1660038111156110f1576110f0613637565b5b03611131576040517f08c379a000000000000000000000000000000000000000000000000000000000815260040161112890614473565b60405180910390fd5b60026001856040516111439190613f84565b908152602001604051809103902060010160016101000a81548160ff0219169083600381111561117657611175613637565b5b02179055504260018560405161118c9190613f84565b9081526020016040518091039020600301819055503373ffffffffffffffffffffffffffffffffffffffff16846040516111c69190613f84565b60405180910390207f0f79bf17bbb40c7f3964d874d86d8db800f84ee36d6bb1af59f1d009b8fae8a485426040516111ff929190614491565b60405180910390a3600191505092915050565b5f61121e336040611ab2565b61125d576040517f08c379a000000000000000000000000000000000000000000000000000000000815260040161125490613f2c565b60405180910390fd5b5f60028460405161126e9190613f84565b908152602001604051809103902060040154146112c0576040517f08c379a00000000000000000000000000000000000000000000000000000000081526004016112b790614509565b60405180910390fd5b5f835111611303576040517f08c379a00000000000000000000000000000000000000000000000000000000081526004016112fa90614571565b60405180910390fd5b5f8067ffffffffffffffff81111561131e5761131d61335d565b5b60405190808252806020026020018201604052801561134c5781602001602082028036833780820191505090505b5090505f6040518060c0016040528086815260200185815260200160405180602001604052805f81525081526020015f600281111561138e5761138d613637565b5b8152602001428152602001838152509050806002866040516113b09190613f84565b90815260200160405180910390205f820151815f0190816113d191906142cc565b506020820151816001015560408201518160020190816113f191906142cc565b506060820151816003015f6101000a81548160ff0219169083600281111561141c5761141b613637565b5b02179055506080820151816004015560a0820151816005019080519060200190611447929190613217565b50905050600685908060018154018082558091505060019003905f5260205f20015f90919091909150908161147c91906142cc565b508460045f3373ffffffffffffffffffffffffffffffffffffffff1673ffffffffffffffffffffffffffffffffffffffff1681526020019081526020015f2090816114c791906142cc565b503373ffffffffffffffffffffffffffffffffffffffff16856040516114ed9190613f84565b60405180910390207fb13e9e763d8d60b28baaaac2eb3689b9862490eceeb8d72e090d827285def066864260405161152692919061458f565b60405180910390a360019250505092915050565b6001818051602081018201805184825260208301602085012081835280955050505050505f91509050805f01805461157190614097565b80601f016020809104026020016040519081016040528092919081815260200182805461159d90614097565b80156115e85780601f106115bf576101008083540402835291602001916115e8565b820191905f5260205f20905b8154815290600101906020018083116115cb57829003601f168201915b505050505090806001015f9054906101000a900460ff16908060010160019054906101000a900460ff1690806002015490806003015490806004015490806005015490806006015f9054906101000a900473ffffffffffffffffffffffffffffffffffffffff16905088565b5f611660336080611ab2565b61169f576040517f08c379a00000000000000000000000000000000000000000000000000000000081526004016116969061440b565b60405180910390fd5b825f6001826040516116b19190613f84565b90815260200160405180910390206002015403611703576040517f08c379a00000000000000000000000000000000000000000000000000000000081526004016116fa9061404c565b60405180910390fd5b82196001856040516117159190613f84565b90815260200160405180910390206005015f8282541692505081905550426001856040516117439190613f84565b9081526020016040518091039020600301819055503373ffffffffffffffffffffffffffffffffffffffff168460405161177d9190613f84565b60405180910390207fea93182b272f835992ec4d598531773bc30c72c6e045d6a22b583ac43f9d20c485426040516117b69291906145b6565b60405180910390a3600191505092915050565b6117d1613080565b6117da5f613107565b565b5f8060035f8573ffffffffffffffffffffffffffffffffffffffff1673ffffffffffffffffffffffffffffffffffffffff1681526020019081526020015f20805461182690614097565b80601f016020809104026020016040519081016040528092919081815260200182805461185290614097565b801561189d5780601f106118745761010080835404028352916020019161189d565b820191905f5260205f20905b81548152906001019060200180831161188057829003601f168201915b505050505090505f8151036118b5575f915050611aac565b5f6001826040516118c69190613f84565b9081526020016040518091039020604051806101000160405290815f820180546118ef90614097565b80601f016020809104026020016040519081016040528092919081815260200182805461191b90614097565b80156119665780601f1061193d57610100808354040283529160200191611966565b820191905f5260205f20905b81548152906001019060200180831161194957829003601f168201915b50505050508152602001600182015f9054906101000a900460ff16600281111561199357611992613637565b5b60028111156119a5576119a4613637565b5b81526020016001820160019054906101000a900460ff1660038111156119ce576119cd613637565b5b60038111156119e0576119df613637565b5b815260200160028201548152602001600382015481526020016004820154815260200160058201548152602001600682015f9054906101000a900473ffffffffffffffffffffffffffffffffffffffff1673ffffffffffffffffffffffffffffffffffffffff1673ffffffffffffffffffffffffffffffffffffffff1681525050905060016003811115611a7757611a76613637565b5b81604001516003811115611a8e57611a8d613637565b5b14611a9d575f92505050611aac565b5f848260c00151161415925050505b92915050565b5f8060035f8573ffffffffffffffffffffffffffffffffffffffff1673ffffffffffffffffffffffffffffffffffffffff1681526020019081526020015f208054611afc90614097565b80601f0160208091040260200160405190810160405280929190818152602001828054611b2890614097565b8015611b735780601f10611b4a57610100808354040283529160200191611b73565b820191905f5260205f20905b815481529060010190602001808311611b5657829003601f168201915b505050505090505f815103611b8b575f915050611e42565b604051602001611b9a90614627565b6040516020818303038152906040528051906020012081604051602001611bc19190613f84565b6040516020818303038152906040528051906020012003611beb575f836040161415915050611e42565b604051602001611bfa90614685565b6040516020818303038152906040528051906020012081604051602001611c219190613f84565b6040516020818303038152906040528051906020012003611c4b575f836080161415915050611e42565b5f600182604051611c5c9190613f84565b9081526020016040518091039020604051806101000160405290815f82018054611c8590614097565b80601f0160208091040260200160405190810160405280929190818152602001828054611cb190614097565b8015611cfc5780601f10611cd357610100808354040283529160200191611cfc565b820191905f5260205f20905b815481529060010190602001808311611cdf57829003601f168201915b50505050508152602001600182015f9054906101000a900460ff166002811115611d2957611d28613637565b5b6002811115611d3b57611d3a613637565b5b81526020016001820160019054906101000a900460ff166003811115611d6457611d63613637565b5b6003811115611d7657611d75613637565b5b815260200160028201548152602001600382015481526020016004820154815260200160058201548152602001600682015f9054906101000a900473ffffffffffffffffffffffffffffffffffffffff1673ffffffffffffffffffffffffffffffffffffffff1673ffffffffffffffffffffffffffffffffffffffff1681525050905060016003811115611e0d57611e0c613637565b5b81604001516003811115611e2457611e23613637565b5b14611e33575f92505050611e42565b5f848260c00151161415925050505b92915050565b5f805f9054906101000a900473ffffffffffffffffffffffffffffffffffffffff16905090565b5f815f600182604051611e829190613f84565b90815260200160405180910390206002015403611ed4576040517f08c379a0000000000000000000000000000000000000000000000000000000008152600401611ecb9061404c565b60405180910390fd5b600183604051611ee49190613f84565b908152602001604051809103902060010160019054906101000a900460ff166003811115611f1557611f14613637565b5b915050919050565b6003602052805f5260405f205f915090508054611f3990614097565b80601f0160208091040260200160405190810160405280929190818152602001828054611f6590614097565b8015611fb05780601f10611f8757610100808354040283529160200191611fb0565b820191905f5260205f20905b815481529060010190602001808311611f9357829003601f168201915b505050505081565b60068181548110611fc7575f80fd5b905f5260205f20015f915090508054611fdf90614097565b80601f016020809104026020016040519081016040528092919081815260200182805461200b90614097565b80156120565780601f1061202d57610100808354040283529160200191612056565b820191905f5260205f20905b81548152906001019060200180831161203957829003601f168201915b505050505081565b5f600680549050905090565b5f612073611e48565b73ffffffffffffffffffffffffffffffffffffffff163373ffffffffffffffffffffffffffffffffffffffff1614806120b357506120b2336040611ab2565b5b6120f2576040517f08c379a00000000000000000000000000000000000000000000000000000000081526004016120e990613f2c565b60405180910390fd5b8160035f8573ffffffffffffffffffffffffffffffffffffffff1673ffffffffffffffffffffffffffffffffffffffff1681526020019081526020015f20908161213c91906142cc565b506001905092915050565b60058181548110612156575f80fd5b905f5260205f20015f91509050805461216e90614097565b80601f016020809104026020016040519081016040528092919081815260200182805461219a90614097565b80156121e55780601f106121bc576101008083540402835291602001916121e5565b820191905f5260205f20905b8154815290600101906020018083116121c857829003601f168201915b505050505081565b6004602052805f5260405f205f91509050805461220990614097565b80601f016020809104026020016040519081016040528092919081815260200182805461223590614097565b80156122805780601f1061225757610100808354040283529160200191612280565b820191905f5260205f20905b81548152906001019060200180831161226357829003601f168201915b505050505081565b5f612294336040611ab2565b6122d3576040517f08c379a00000000000000000000000000000000000000000000000000000000081526004016122ca90613f2c565b60405180910390fd5b5f6001876040516122e49190613f84565b90815260200160405180910390206002015414612336576040517f08c379a000000000000000000000000000000000000000000000000000000000815260040161232d906146e3565b60405180910390fd5b5f865111612379576040517f08c379a00000000000000000000000000000000000000000000000000000000081526004016123709061474b565b60405180910390fd5b5f73ffffffffffffffffffffffffffffffffffffffff168373ffffffffffffffffffffffffffffffffffffffff16036123e7576040517f08c379a00000000000000000000000000000000000000000000000000000000081526004016123de906147b3565b60405180910390fd5b5f60405180610100016040528088815260200187600281111561240d5761240c613637565b5b81526020016001600381111561242657612425613637565b5b81526020014281526020014281526020018681526020018481526020018573ffffffffffffffffffffffffffffffffffffffff168152509050806001886040516124709190613f84565b90815260200160405180910390205f820151815f01908161249191906142cc565b506020820151816001015f6101000a81548160ff021916908360028111156124bc576124bb613637565b5b021790555060408201518160010160016101000a81548160ff021916908360038111156124ec576124eb613637565b5b0217905550606082015181600201556080820151816003015560a0820151816004015560c0820151816005015560e0820151816006015f6101000a81548173ffffffffffffffffffffffffffffffffffffffff021916908373ffffffffffffffffffffffffffffffffffffffff160217905550905050600587908060018154018082558091505060019003905f5260205f20015f90919091909150908161259391906142cc565b508660035f8673ffffffffffffffffffffffffffffffffffffffff1673ffffffffffffffffffffffffffffffffffffffff1681526020019081526020015f2090816125de91906142cc565b503373ffffffffffffffffffffffffffffffffffffffff16876040516126049190613f84565b60405180910390207ffb2ee55cc7746e44f71c8e4259b4e371165b20aa33a9db5c4258ab6eb4141f65884260405161263d9291906147d1565b60405180910390a35f83146126b3573373ffffffffffffffffffffffffffffffffffffffff16876040516126719190613f84565b60405180910390207f930f876b0eafb77683945f6848f7ecb44e5a72acae7446143261ee11feb45d2885426040516126aa9291906145b6565b60405180910390a35b600191505095945050505050565b5f6126cd336040611ab2565b61270c576040517f08c379a000000000000000000000000000000000000000000000000000000000815260040161270390613f2c565b60405180910390fd5b825f60028260405161271e9190613f84565b90815260200160405180910390206004015403612770576040517f08c379a000000000000000000000000000000000000000000000000000000000815260040161276790613fe4565b60405180910390fd5b5f73ffffffffffffffffffffffffffffffffffffffff168373ffffffffffffffffffffffffffffffffffffffff16036127de576040517f08c379a00000000000000000000000000000000000000000000000000000000081526004016127d590614842565b60405180910390fd5b6002846040516127ee9190613f84565b908152602001604051809103902060050183908060018154018082558091505060019003905f5260205f20015f9091909190916101000a81548173ffffffffffffffffffffffffffffffffffffffff021916908373ffffffffffffffffffffffffffffffffffffffff1602179055508360045f8573ffffffffffffffffffffffffffffffffffffffff1673ffffffffffffffffffffffffffffffffffffffff1681526020019081526020015f2090816128a791906142cc565b50600191505092915050565b5f6128bf336080611ab2565b6128fe576040517f08c379a00000000000000000000000000000000000000000000000000000000081526004016128f59061440b565b60405180910390fd5b815f6001826040516129109190613f84565b90815260200160405180910390206002015403612962576040517f08c379a00000000000000000000000000000000000000000000000000000000081526004016129599061404c565b60405180910390fd5b5f600381111561297557612974613637565b5b6001846040516129859190613f84565b908152602001604051809103902060010160019054906101000a900460ff1660038111156129b6576129b5613637565b5b146129f6576040517f08c379a00000000000000000000000000000000000000000000000000000000081526004016129ed906148aa565b60405180910390fd5b60018084604051612a079190613f84565b908152602001604051809103902060010160016101000a81548160ff02191690836003811115612a3a57612a39613637565b5b021790555042600184604051612a509190613f84565b9081526020016040518091039020600301819055503373ffffffffffffffffffffffffffffffffffffffff1683604051612a8a9190613f84565b60405180910390207fd55f84792db67b05a3c97deae9d02dc26d461105199f24852fd5468b7e68d1f242604051612ac1919061386c565b60405180910390a36001915050919050565b5f612adf336040611ab2565b612b1e576040517f08c379a0000000000000000000000000000000000000000000000000000000008152600401612b1590613f2c565b60405180910390fd5b815f600282604051612b309190613f84565b90815260200160405180910390206004015403612b82576040517f08c379a0000000000000000000000000000000000000000000000000000000008152600401612b7990613fe4565b60405180910390fd5b60028084604051612b939190613f84565b90815260200160405180910390206003015f6101000a81548160ff02191690836002811115612bc557612bc4613637565b5b02179055506001915050919050565b612bdc613080565b5f73ffffffffffffffffffffffffffffffffffffffff168173ffffffffffffffffffffffffffffffffffffffff1603612c4c575f6040517f1e4fbdf7000000000000000000000000000000000000000000000000000000008152600401612c439190613bd8565b60405180910390fd5b612c5581613107565b50565b612c6061329e565b815f600182604051612c729190613f84565b90815260200160405180910390206002015403612cc4576040517f08c379a0000000000000000000000000000000000000000000000000000000008152600401612cbb9061404c565b60405180910390fd5b600183604051612cd49190613f84565b9081526020016040518091039020604051806101000160405290815f82018054612cfd90614097565b80601f0160208091040260200160405190810160405280929190818152602001828054612d2990614097565b8015612d745780601f10612d4b57610100808354040283529160200191612d74565b820191905f5260205f20905b815481529060010190602001808311612d5757829003601f168201915b50505050508152602001600182015f9054906101000a900460ff166002811115612da157612da0613637565b5b6002811115612db357612db2613637565b5b81526020016001820160019054906101000a900460ff166003811115612ddc57612ddb613637565b5b6003811115612dee57612ded613637565b5b815260200160028201548152602001600382015481526020016004820154815260200160058201548152602001600682015f9054906101000a900473ffffffffffffffffffffffffffffffffffffffff1673ffffffffffffffffffffffffffffffffffffffff1673ffffffffffffffffffffffffffffffffffffffff1681525050915050919050565b5f612e83336080611ab2565b612ec2576040517f08c379a0000000000000000000000000000000000000000000000000000000008152600401612eb99061440b565b60405180910390fd5b825f600182604051612ed49190613f84565b90815260200160405180910390206002015403612f26576040517f08c379a0000000000000000000000000000000000000000000000000000000008152600401612f1d9061404c565b60405180910390fd5b60016003811115612f3a57612f39613637565b5b600185604051612f4a9190613f84565b908152602001604051809103902060010160019054906101000a900460ff166003811115612f7b57612f7a613637565b5b14612fbb576040517f08c379a0000000000000000000000000000000000000000000000000000000008152600401612fb290614912565b60405180910390fd5b82600185604051612fcc9190613f84565b90815260200160405180910390206005015f828254179250508190555042600185604051612ffa9190613f84565b9081526020016040518091039020600301819055503373ffffffffffffffffffffffffffffffffffffffff16846040516130349190613f84565b60405180910390207f930f876b0eafb77683945f6848f7ecb44e5a72acae7446143261ee11feb45d28854260405161306d9291906145b6565b60405180910390a3600191505092915050565b6130886131c8565b73ffffffffffffffffffffffffffffffffffffffff166130a6611e48565b73ffffffffffffffffffffffffffffffffffffffff1614613105576130c96131c8565b6040517f118cdaa70000000000000000000000000000000000000000000000000000000081526004016130fc9190613bd8565b60405180910390fd5b565b5f805f9054906101000a900473ffffffffffffffffffffffffffffffffffffffff169050815f806101000a81548173ffffffffffffffffffffffffffffffffffffffff021916908373ffffffffffffffffffffffffffffffffffffffff1602179055508173ffffffffffffffffffffffffffffffffffffffff168173ffffffffffffffffffffffffffffffffffffffff167f8be0079c531659141344cd1fd0a4f28419497f9722a3daafe3b4186f6b6457e060405160405180910390a35050565b5f33905090565b6040518060c00160405280606081526020015f8019168152602001606081526020015f600281111561320457613203613637565b5b81526020015f8152602001606081525090565b828054828255905f5260205f2090810192821561328d579160200282015b8281111561328c578251825f6101000a81548173ffffffffffffffffffffffffffffffffffffffff021916908373ffffffffffffffffffffffffffffffffffffffff16021790555091602001919060010190613235565b5b50905061329a9190613319565b5090565b604051806101000160405280606081526020015f60028111156132c4576132c3613637565b5b81526020015f60038111156132dc576132db613637565b5b81526020015f81526020015f81526020015f80191681526020015f81526020015f73ffffffffffffffffffffffffffffffffffffffff1681525090565b5b80821115613330575f815f90555060010161331a565b5090565b5f604051905090565b5f80fd5b5f80fd5b5f80fd5b5f80fd5b5f601f19601f8301169050919050565b7f4e487b71000000000000000000000000000000000000000000000000000000005f52604160045260245ffd5b6133938261334d565b810181811067ffffffffffffffff821117156133b2576133b161335d565b5b80604052505050565b5f6133c4613334565b90506133d0828261338a565b919050565b5f67ffffffffffffffff8211156133ef576133ee61335d565b5b6133f88261334d565b9050602081019050919050565b828183375f83830152505050565b5f613425613420846133d5565b6133bb565b90508281526020810184848401111561344157613440613349565b5b61344c848285613405565b509392505050565b5f82601f83011261346857613467613345565b5b8135613478848260208601613413565b91505092915050565b5f80604083850312156134975761349661333d565b5b5f83013567ffffffffffffffff8111156134b4576134b3613341565b5b6134c085828601613454565b925050602083013567ffffffffffffffff8111156134e1576134e0613341565b5b6134ed85828601613454565b9150509250929050565b5f8115159050919050565b61350b816134f7565b82525050565b5f6020820190506135245f830184613502565b92915050565b5f6020828403121561353f5761353e61333d565b5b5f82013567ffffffffffffffff81111561355c5761355b613341565b5b61356884828501613454565b91505092915050565b5f60ff82169050919050565b61358681613571565b82525050565b5f60208201905061359f5f83018461357d565b92915050565b5f81519050919050565b5f82825260208201905092915050565b5f5b838110156135dc5780820151818401526020810190506135c1565b5f8484015250505050565b5f6135f1826135a5565b6135fb81856135af565b935061360b8185602086016135bf565b6136148161334d565b840191505092915050565b5f819050919050565b6136318161361f565b82525050565b7f4e487b71000000000000000000000000000000000000000000000000000000005f52602160045260245ffd5b6003811061367557613674613637565b5b50565b5f81905061368582613664565b919050565b5f61369482613678565b9050919050565b6136a48161368a565b82525050565b5f819050919050565b6136bc816136aa565b82525050565b5f81519050919050565b5f82825260208201905092915050565b5f819050602082019050919050565b5f73ffffffffffffffffffffffffffffffffffffffff82169050919050565b5f613714826136eb565b9050919050565b6137248161370a565b82525050565b5f613735838361371b565b60208301905092915050565b5f602082019050919050565b5f613757826136c2565b61376181856136cc565b935061376c836136dc565b805f5b8381101561379c578151613783888261372a565b975061378e83613741565b92505060018101905061376f565b5085935050505092915050565b5f60c083015f8301518482035f8601526137c382826135e7565b91505060208301516137d86020860182613628565b50604083015184820360408601526137f082826135e7565b9150506060830151613805606086018261369b565b50608083015161381860808601826136b3565b5060a083015184820360a0860152613830828261374d565b9150508091505092915050565b5f6020820190508181035f83015261385581846137a9565b905092915050565b613866816136aa565b82525050565b5f60208201905061387f5f83018461385d565b92915050565b5f82825260208201905092915050565b5f61389f826135a5565b6138a98185613885565b93506138b98185602086016135bf565b6138c28161334d565b840191505092915050565b6138d68161361f565b82525050565b6138e58161368a565b82525050565b5f60a0820190508181035f8301526139038188613895565b905061391260208301876138cd565b81810360408301526139248186613895565b905061393360608301856138dc565b613940608083018461385d565b9695505050505050565b6139538161361f565b811461395d575f80fd5b50565b5f8135905061396e8161394a565b92915050565b5f806040838503121561398a5761398961333d565b5b5f83013567ffffffffffffffff8111156139a7576139a6613341565b5b6139b385828601613454565b92505060206139c485828601613960565b9150509250929050565b600381106139df576139de613637565b5b50565b5f8190506139ef826139ce565b919050565b5f6139fe826139e2565b9050919050565b613a0e816139f4565b82525050565b60048110613a2557613a24613637565b5b50565b5f819050613a3582613a14565b919050565b5f613a4482613a28565b9050919050565b613a5481613a3a565b82525050565b613a638161370a565b82525050565b5f610100820190508181035f830152613a82818b613895565b9050613a91602083018a613a05565b613a9e6040830189613a4b565b613aab606083018861385d565b613ab8608083018761385d565b613ac560a08301866138cd565b613ad260c083018561385d565b613adf60e0830184613a5a565b9998505050505050505050565b613af5816136aa565b8114613aff575f80fd5b50565b5f81359050613b1081613aec565b92915050565b5f8060408385031215613b2c57613b2b61333d565b5b5f83013567ffffffffffffffff811115613b4957613b48613341565b5b613b5585828601613454565b9250506020613b6685828601613b02565b9150509250929050565b613b798161370a565b8114613b83575f80fd5b50565b5f81359050613b9481613b70565b92915050565b5f8060408385031215613bb057613baf61333d565b5b5f613bbd85828601613b86565b9250506020613bce85828601613b02565b9150509250929050565b5f602082019050613beb5f830184613a5a565b92915050565b5f60208284031215613c0657613c0561333d565b5b5f613c1384828501613b86565b91505092915050565b5f6020820190508181035f830152613c348184613895565b905092915050565b5f60208284031215613c5157613c5061333d565b5b5f613c5e84828501613b02565b91505092915050565b5f8060408385031215613c7d57613c7c61333d565b5b5f613c8a85828601613b86565b925050602083013567ffffffffffffffff811115613cab57613caa613341565b5b613cb785828601613454565b9150509250929050565b60038110613ccd575f80fd5b50565b5f81359050613cde81613cc1565b92915050565b5f805f805f60a08688031215613cfd57613cfc61333d565b5b5f86013567ffffffffffffffff811115613d1a57613d19613341565b5b613d2688828901613454565b9550506020613d3788828901613cd0565b9450506040613d4888828901613960565b9350506060613d5988828901613b86565b9250506080613d6a88828901613b02565b9150509295509295909350565b5f8060408385031215613d8d57613d8c61333d565b5b5f83013567ffffffffffffffff811115613daa57613da9613341565b5b613db685828601613454565b9250506020613dc785828601613b86565b9150509250929050565b613dda816139f4565b82525050565b613de981613a3a565b82525050565b5f61010083015f8301518482035f860152613e0a82826135e7565b9150506020830151613e1f6020860182613dd1565b506040830151613e326040860182613de0565b506060830151613e4560608601826136b3565b506080830151613e5860808601826136b3565b5060a0830151613e6b60a0860182613628565b5060c0830151613e7e60c08601826136b3565b5060e0830151613e9160e086018261371b565b508091505092915050565b5f6020820190508181035f830152613eb48184613def565b905092915050565b7f4e6f7420617574686f72697a65643a20504c4154464f524d20726f6c652072655f8201527f7175697265640000000000000000000000000000000000000000000000000000602082015250565b5f613f16602683613885565b9150613f2182613ebc565b604082019050919050565b5f6020820190508181035f830152613f4381613f0a565b9050919050565b5f81905092915050565b5f613f5e826135a5565b613f688185613f4a565b9350613f788185602086016135bf565b80840191505092915050565b5f613f8f8284613f54565b915081905092915050565b7f5573657220646f6573206e6f74206578697374000000000000000000000000005f82015250565b5f613fce601383613885565b9150613fd982613f9a565b602082019050919050565b5f6020820190508181035f830152613ffb81613fc2565b9050919050565b7f4d656d62657220646f6573206e6f7420657869737400000000000000000000005f82015250565b5f614036601583613885565b915061404182614002565b602082019050919050565b5f6020820190508181035f8301526140638161402a565b9050919050565b7f4e487b71000000000000000000000000000000000000000000000000000000005f52602260045260245ffd5b5f60028204905060018216806140ae57607f821691505b6020821081036140c1576140c061406a565b5b50919050565b7f5573657220616c7265616479206c696e6b6564000000000000000000000000005f82015250565b5f6140fb601383613885565b9150614106826140c7565b602082019050919050565b5f6020820190508181035f830152614128816140ef565b9050919050565b5f819050815f5260205f209050919050565b5f6020601f8301049050919050565b5f82821b905092915050565b5f6008830261418b7fffffffffffffffffffffffffffffffffffffffffffffffffffffffffffffffff82614150565b6141958683614150565b95508019841693508086168417925050509392505050565b5f819050919050565b5f6141d06141cb6141c6846136aa565b6141ad565b6136aa565b9050919050565b5f819050919050565b6141e9836141b6565b6141fd6141f5826141d7565b84845461415c565b825550505050565b5f90565b614211614205565b61421c8184846141e0565b505050565b5b8181101561423f576142345f82614209565b600181019050614222565b5050565b601f821115614284576142558161412f565b61425e84614141565b8101602085101561426d578190505b61428161427985614141565b830182614221565b50505b505050565b5f82821c905092915050565b5f6142a45f1984600802614289565b1980831691505092915050565b5f6142bc8383614295565b9150826002028217905092915050565b6142d5826135a5565b67ffffffffffffffff8111156142ee576142ed61335d565b5b6142f88254614097565b614303828285614243565b5f60209050601f831160018114614334575f8415614322578287015190505b61432c85826142b1565b865550614393565b601f1984166143428661412f565b5f5b8281101561436957848901518255600182019150602085019450602081019050614344565b868310156143865784890151614382601f891682614295565b8355505b6001600288020188555050505b505050505050565b7f4e6f7420617574686f72697a65643a20474f5645524e414e434520726f6c65205f8201527f7265717569726564000000000000000000000000000000000000000000000000602082015250565b5f6143f5602883613885565b91506144008261439b565b604082019050919050565b5f6020820190508181035f830152614422816143e9565b9050919050565b7f4d656d62657220616c72656164792073757370656e64656400000000000000005f82015250565b5f61445d601883613885565b915061446882614429565b602082019050919050565b5f6020820190508181035f83015261448a81614451565b9050919050565b5f6040820190508181035f8301526144a98185613895565b90506144b8602083018461385d565b9392505050565b7f5573657220616c726561647920657869737473000000000000000000000000005f82015250565b5f6144f3601383613885565b91506144fe826144bf565b602082019050919050565b5f6020820190508181035f830152614520816144e7565b9050919050565b7f496e76616c6964207573657220494400000000000000000000000000000000005f82015250565b5f61455b600f83613885565b915061456682614527565b602082019050919050565b5f6020820190508181035f8301526145888161454f565b9050919050565b5f6040820190506145a25f8301856138cd565b6145af602083018461385d565b9392505050565b5f6040820190506145c95f83018561385d565b6145d6602083018461385d565b9392505050565b7f504c4154464f524d0000000000000000000000000000000000000000000000005f82015250565b5f614611600883613f4a565b915061461c826145dd565b600882019050919050565b5f61463182614605565b9150819050919050565b7f474f5645524e414e4345000000000000000000000000000000000000000000005f82015250565b5f61466f600a83613f4a565b915061467a8261463b565b600a82019050919050565b5f61468f82614663565b9150819050919050565b7f4d656d62657220616c72656164792065786973747300000000000000000000005f82015250565b5f6146cd601583613885565b91506146d882614699565b602082019050919050565b5f6020820190508181035f8301526146fa816146c1565b9050919050565b7f496e76616c6964206d656d6265722047494300000000000000000000000000005f82015250565b5f614735601283613885565b915061474082614701565b602082019050919050565b5f6020820190508181035f83015261476281614729565b9050919050565b7f496e76616c6964207573657220616464726573730000000000000000000000005f82015250565b5f61479d601483613885565b91506147a882614769565b602082019050919050565b5f6020820190508181035f8301526147ca81614791565b9050919050565b5f6040820190506147e45f830185613a05565b6147f1602083018461385d565b9392505050565b7f496e76616c6964206164647265737300000000000000000000000000000000005f82015250565b5f61482c600f83613885565b9150614837826147f8565b602082019050919050565b5f6020820190508181035f83015261485981614820565b9050919050565b7f4d656d626572206e6f742070656e64696e6700000000000000000000000000005f82015250565b5f614894601283613885565b915061489f82614860565b602082019050919050565b5f6020820190508181035f8301526148c181614888565b9050919050565b7f4d656d626572206e6f74206163746976650000000000000000000000000000005f82015250565b5f6148fc601183613885565b9150614907826148c8565b602082019050919050565b5f6020820190508181035f830152614929816148f0565b905091905056fea2646970667358221220952a142602f81cd75b641948486e80f7a3f616c0dc4d00a9969d73187fedf30f64736f6c63430008180033","linkReferences":{}},"methodIdentifiers":{"activateUser(string)":"2b3fafb2","addUserAdminAddress(string,address)":"d10a9f68","addressToMemberGIC(address)":"93a02082","addressToUserId(address)":"b5ffbbcc","approveMember(string)":"d6e9f495","assignRole(string,uint256)":"ff1484ca","getMemberDetails(string)":"fe1d3fd2","getMemberStatus(string)":"8e690fc5","getMembersCount()":"09772f8f","getUserDetails(string)":"085ba074","getUserStatus(string)":"07e9c883","getUsersCount()":"a4a1e263","isMemberInRole(address,uint256)":"8cbdcead","linkAddressToMember(address,string)":"a9d23d46","linkUserToMember(string,string)":"04418790","memberList(uint256)":"b307fc6d","members(string)":"6957a0b2","owner()":"8da5cb5b","registerMember(string,uint8,bytes32,address,uint256)":"cd77022c","registerUser(string,bytes32)":"68ae5563","renounceOwnership()":"715018a6","revokeRole(string,uint256)":"6a769c29","suspendMember(string,string)":"689f2ed2","suspendUser(string)":"e106c71a","terminateMember(string)":"3b8cd7dc","transferOwnership(address)":"f2fde38b","userList(uint256)":"9f4216e8","users(string)":"689e1c03","validatePermission(address,uint256)":"7c0f8882"},"id":0}