{"abi":[{"type":"constructor","inputs":[],"stateMutability":"nonpayable"},{"type":"function","name":"activateUser","inputs":[{"name":"userId","type":"string","internalType":"string"}],"outputs":[{"name":"","type":"bool","internalType":"bool"}],"stateMutability":"nonpayable"},{"type":"function","name":"addUserAdminAddress","inputs":[{"name":"userId","type":"string","internalType":"string"},{"name":"adminAddress","type":"address","internalType":"address"}],"outputs":[{"name":"","type":"bool","internalType":"bool"}],"stateMutability":"nonpayable"},{"type":"function","name":"addressToMemberGIC","inputs":[{"name":"","type":"address","internalType":"address"}],"outputs":[{"name":"","type":"string","internalType":"string"}],"stateMutability":"view"},{"type":"function","name":"addressToUserId","inputs":[{"name":"","type":"address","internalType":"address"}],"outputs":[{"name":"","type":"string","internalType":"string"}],"stateMutability":"view"},{"type":"function","name":"approveMember","inputs":[{"name":"memberGIC","type":"string","internalType":"string"}],"outputs":[{"name":"","type":"bool","internalType":"bool"}],"stateMutability":"nonpayable"},{"type":"function","name":"assignRole","inputs":[{"name":"memberGIC","type":"string","internalType":"string"},{"name":"role","type":"uint256","internalType":"uint256"}],"outputs":[{"name":"","type":"bool","internalType":"bool"}],"stateMutability":"nonpayable"},{"type":"function","name":"getMemberDetails","inputs":[{"name":"memberGIC","type":"string","internalType":"string"}],"outputs":[{"name":"","type":"tuple","internalType":"struct MemberRegistry.Member","components":[{"name":"memberGIC","type":"string","internalType":"string"},{"name":"memberType","type":"uint8","internalType":"enum MemberRegistry.MemberType"},{"name":"status","type":"uint8","internalType":"enum MemberRegistry.MemberStatus"},{"name":"createdAt","type":"uint256","internalType":"uint256"},{"name":"updatedAt","type":"uint256","internalType":"uint256"},{"name":"memberHash","type":"bytes32","internalType":"bytes32"},{"name":"roles","type":"uint256","internalType":"uint256"},{"name":"userAddress","type":"address","internalType":"address"}]}],"stateMutability":"view"},{"type":"function","name":"getMemberStatus","inputs":[{"name":"memberGIC","type":"string","internalType":"string"}],"outputs":[{"name":"","type":"uint8","internalType":"uint8"}],"stateMutability":"view"},{"type":"function","name":"getMembersCount","inputs":[],"outputs":[{"name":"","type":"uint256","internalType":"uint256"}],"stateMutability":"view"},{"type":"function","name":"getUserDetails","inputs":[{"name":"userId","type":"string","internalType":"string"}],"outputs":[{"name":"","type":"tuple","internalType":"struct MemberRegistry.User","components":[{"name":"userId","type":"string","internalType":"string"},{"name":"userHash","type":"bytes32","internalType":"bytes32"},{"name":"linkedMemberGIC","type":"string","internalType":"string"},{"name":"status","type":"uint8","internalType":"enum MemberRegistry.UserStatus"},{"name":"createdAt","type":"uint256","internalType":"uint256"},{"name":"adminAddresses","type":"address[]","internalType":"address[]"}]}],"stateMutability":"view"},{"type":"function","name":"getUserStatus","inputs":[{"name":"userId","type":"string","internalType":"string"}],"outputs":[{"name":"","type":"uint8","internalType":"uint8"}],"stateMutability":"view"},{"type":"function","name":"getUsersCount","inputs":[],"outputs":[{"name":"","type":"uint256","internalType":"uint256"}],"stateMutability":"view"},{"type":"function","name":"isMemberInRole","inputs":[{"name":"member","type":"address","internalType":"address"},{"name":"role","type":"uint256","internalType":"uint256"}],"outputs":[{"name":"","type":"bool","internalType":"bool"}],"stateMutability":"view"},{"type":"function","name":"linkAddressToMember","inputs":[{"name":"addr","type":"address","internalType":"address"},{"name":"memberGIC","type":"string","internalType":"string"}],"outputs":[{"name":"","type":"bool","internalType":"bool"}],"stateMutability":"nonpayable"},{"type":"function","name":"linkUserToMember","inputs":[{"name":"userId","type":"string","internalType":"string"},{"name":"memberGIC","type":"string","internalType":"string"}],"outputs":[{"name":"","type":"bool","internalType":"bool"}],"stateMutability":"nonpayable"},{"type":"function","name":"memberList","inputs":[{"name":"","type":"uint256","internalType":"uint256"}],"outputs":[{"name":"","type":"string","internalType":"string"}],"stateMutability":"view"},{"type":"function","name":"members","inputs":[{"name":"","type":"string","internalType":"string"}],"outputs":[{"name":"memberGIC","type":"string","internalType":"string"},{"name":"memberType","type":"uint8","internalType":"enum MemberRegistry.MemberType"},{"name":"status","type":"uint8","internalType":"enum MemberRegistry.MemberStatus"},{"name":"createdAt","type":"uint256","internalType":"uint256"},{"name":"updatedAt","type":"uint256","internalType":"uint256"},{"name":"memberHash","type":"bytes32","internalType":"bytes32"},{"name":"roles","type":"uint256","internalType":"uint256"},{"name":"userAddress","type":"address","internalType":"address"}],"stateMutability":"view"},{"type":"function","name":"owner","inputs":[],"outputs":[{"name":"","type":"address","internalType":"address"}],"stateMutability":"view"},{"type":"function","name":"registerMember","inputs":[{"name":"memberGIC","type":"string","internalType":"string"},{"name":"memberType","type":"uint8","internalType":"enum MemberRegistry.MemberType"},{"name":"memberHash","type":"bytes32","internalType":"bytes32"},{"name":"userAddress","type":"address","internalType":"address"}],"outputs":[{"name":"","type":"bool","internalType":"bool"}],"stateMutability":"nonpayable"},{"type":"function","name":"registerUser","inputs":[{"name":"userId","type":"string","internalType":"string"},{"name":"userHash","type":"bytes32","internalType":"bytes32"}],"outputs":[{"name":"","type":"bool","internalType":"bool"}],"stateMutability":"nonpayable"},{"type":"function","name":"renounceOwnership","inputs":[],"outputs":[],"stateMutability":"nonpayable"},{"type":"function","name":"revokeRole","inputs":[{"name":"memberGIC","type":"string","internalType":"string"},{"name":"role","type":"uint256","internalType":"uint256"}],"outputs":[{"name":"","type":"bool","internalType":"bool"}],"stateMutability":"nonpayable"},{"type":"function","name":"suspendMember","inputs":[{"name":"memberGIC","type":"string","internalType":"string"},{"name":"reason","type":"string","internalType":"string"}],"outputs":[{"name":"","type":"bool","internalType":"bool"}],"stateMutability":"nonpayable"},{"type":"function","name":"suspendUser","inputs":[{"name":"userId","type":"string","internalType":"string"}],"outputs":[{"name":"","type":"bool","internalType":"bool"}],"stateMutability":"nonpayable"},{"type":"function","name":"terminateMember","inputs":[{"name":"memberGIC","type":"string","internalType":"string"}],"outputs":[{"name":"","type":"bool","internalType":"bool"}],"stateMutability":"nonpayable"},{"type":"function","name":"transferOwnership","inputs":[{"name":"newOwner","type":"address","internalType":"address"}],"outputs":[],"stateMutability":"nonpayable"},{"type":"function","name":"userList","inputs":[{"name":"","type":"uint256","internalType":"uint256"}],"outputs":[{"name":"","type":"string","internalType":"string"}],"stateMutability":"view"},{"type":"function","name":"users","inputs":[{"name":"","type":"string","internalType":"string"}],"outputs":[{"name":"userId","type":"string","internalType":"string"},{"name":"userHash","type":"bytes32","internalType":"bytes32"},{"name":"linkedMemberGIC","type":"string","internalType":"string"},{"name":"status","type":"uint8","internalType":"enum MemberRegistry.UserStatus"},{"name":"createdAt","type":"uint256","internalType":"uint256"}],"stateMutability":"view"},{"type":"function","name":"validatePermission","inputs":[{"name":"member","type":"address","internalType":"address"},{"name":"role","type":"uint256","internalType":"uint256"}],"outputs":[{"name":"","type":"bool","internalType":"bool"}],"stateMutability":"view"},{"type":"event","name":"MemberApproved","inputs":[{"name":"memberGIC","type":"string","indexed":true,"internalType":"string"},{"name":"approvedBy","type":"address","indexed":true,"internalType":"address"},{"name":"timestamp","type":"uint256","indexed":false,"internalType":"uint256"}],"anonymous":false},{"type":"event","name":"MemberRegistered","inputs":[{"name":"memberGIC","type":"string","indexed":true,"internalType":"string"},{"name":"memberType","type":"uint8","indexed":false,"internalType":"enum MemberRegistry.MemberType"},{"name":"registeredBy","type":"address","indexed":true,"internalType":"address"},{"name":"timestamp","type":"uint256","indexed":false,"internalType":"uint256"}],"anonymous":false},{"type":"event","name":"MemberSuspended","inputs":[{"name":"memberGIC","type":"string","indexed":true,"internalType":"string"},{"name":"reason","type":"string","indexed":false,"internalType":"string"},{"name":"suspendedBy","type":"address","indexed":true,"internalType":"address"},{"name":"timestamp","type":"uint256","indexed":false,"internalType":"uint256"}],"anonymous":false},{"type":"event","name":"OwnershipTransferred","inputs":[{"name":"previousOwner","type":"address","indexed":true,"internalType":"address"},{"name":"newOwner","type":"address","indexed":true,"internalType":"address"}],"anonymous":false},{"type":"event","name":"RoleAssigned","inputs":[{"name":"memberGIC","type":"string","indexed":true,"internalType":"string"},{"name":"role","type":"uint256","indexed":false,"internalType":"uint256"},{"name":"assignedBy","type":"address","indexed":true,"internalType":"address"},{"name":"timestamp","type":"uint256","indexed":false,"internalType":"uint256"}],"anonymous":false},{"type":"event","name":"RoleRevoked","inputs":[{"name":"memberGIC","type":"string","indexed":true,"internalType":"string"},{"name":"role","type":"uint256","indexed":false,"internalType":"uint256"},{"name":"revokedBy","type":"address","indexed":true,"internalType":"address"},{"name":"timestamp","type":"uint256","indexed":false,"internalType":"uint256"}],"anonymous":false},{"type":"event","name":"UserLinkedToMember","inputs":[{"name":"userId","type":"string","indexed":true,"internalType":"string"},{"name":"memberGIC","type":"string","indexed":true,"internalType":"string"},{"name":"linkedBy","type":"address","indexed":true,"internalType":"address"},{"name":"timestamp","type":"uint256","indexed":false,"internalType":"uint256"}],"anonymous":false},{"type":"event","name":"UserRegistered","inputs":[{"name":"userId","type":"string","indexed":true,"internalType":"string"},{"name":"userHash","type":"bytes32","indexed":false,"internalType":"bytes32"},{"name":"registeredBy","type":"address","indexed":true,"internalType":"address"},{"name":"timestamp","type":"uint256","indexed":false,"internalType":"uint256"}],"anonymous":false},{"type":"error","name":"OwnableInvalidOwner","inputs":[{"name":"owner","type":"address","internalType":"address"}]},{"type":"error","name":"OwnableUnauthorizedAccount","inputs":[{"name":"account","type":"address","internalType":"address"}]}],"bytecode":{"object":"0x608060405234801562000010575f80fd5b50335f73ffffffffffffffffffffffffffffffffffffffff168173ffffffffffffffffffffffffffffffffffffffff160362000085575f6040517f1e4fbdf70000000000000000000000000000000000000000000000000000000081526004016200007c91906200047e565b60405180910390fd5b62000096816200037a60201b60201c565b505f6040518061010001604052806040518060400160405280600881526020017f504c4154464f524d0000000000000000000000000000000000000000000000008152508152602001600280811115620000f557620000f462000499565b5b81526020016001600381111562000111576200011062000499565b5b81526020014281526020014281526020017f3cb058642d3f17bc460bdd6eab42c21564f6b5228beab6a905a2eb32727c49d18152602001608060406020601060086004600260011717171717171781526020013373ffffffffffffffffffffffffffffffffffffffff16815250905080600160405162000191906200051e565b90815260200160405180910390205f820151815f019081620001b4919062000798565b506020820151816001015f6101000a81548160ff02191690836002811115620001e257620001e162000499565b5b021790555060408201518160010160016101000a81548160ff0219169083600381111562000215576200021462000499565b5b0217905550606082015181600201556080820151816003015560a0820151816004015560c0820151816005015560e0820151816006015f6101000a81548173ffffffffffffffffffffffffffffffffffffffff021916908373ffffffffffffffffffffffffffffffffffffffff16021790555090505060058060018154018082558091505060019003905f5260205f20015f6040518060400160405280600881526020017f504c4154464f524d00000000000000000000000000000000000000000000000081525090919091509081620002f0919062000798565b506040518060400160405280600881526020017f504c4154464f524d00000000000000000000000000000000000000000000000081525060035f3373ffffffffffffffffffffffffffffffffffffffff1673ffffffffffffffffffffffffffffffffffffffff1681526020019081526020015f20908162000372919062000798565b50506200087c565b5f805f9054906101000a900473ffffffffffffffffffffffffffffffffffffffff169050815f806101000a81548173ffffffffffffffffffffffffffffffffffffffff021916908373ffffffffffffffffffffffffffffffffffffffff1602179055508173ffffffffffffffffffffffffffffffffffffffff168173ffffffffffffffffffffffffffffffffffffffff167f8be0079c531659141344cd1fd0a4f28419497f9722a3daafe3b4186f6b6457e060405160405180910390a35050565b5f73ffffffffffffffffffffffffffffffffffffffff82169050919050565b5f62000466826200043b565b9050919050565b62000478816200045a565b82525050565b5f602082019050620004935f8301846200046d565b92915050565b7f4e487b71000000000000000000000000000000000000000000000000000000005f52602160045260245ffd5b5f81905092915050565b7f504c4154464f524d0000000000000000000000000000000000000000000000005f82015250565b5f62000506600883620004c6565b91506200051382620004d0565b600882019050919050565b5f6200052a82620004f8565b9150819050919050565b5f81519050919050565b7f4e487b71000000000000000000000000000000000000000000000000000000005f52604160045260245ffd5b7f4e487b71000000000000000000000000000000000000000000000000000000005f52602260045260245ffd5b5f6002820490506001821680620005b057607f821691505b602082108103620005c657620005c56200056b565b5b50919050565b5f819050815f5260205f209050919050565b5f6020601f8301049050919050565b5f82821b905092915050565b5f600883026200062a7fffffffffffffffffffffffffffffffffffffffffffffffffffffffffffffffff82620005ed565b620006368683620005ed565b95508019841693508086168417925050509392505050565b5f819050919050565b5f819050919050565b5f620006806200067a62000674846200064e565b62000657565b6200064e565b9050919050565b5f819050919050565b6200069b8362000660565b620006b3620006aa8262000687565b848454620005f9565b825550505050565b5f90565b620006c9620006bb565b620006d681848462000690565b505050565b5b81811015620006fd57620006f15f82620006bf565b600181019050620006dc565b5050565b601f8211156200074c576200071681620005cc565b6200072184620005de565b8101602085101562000731578190505b620007496200074085620005de565b830182620006db565b50505b505050565b5f82821c905092915050565b5f6200076e5f198460080262000751565b1980831691505092915050565b5f6200078883836200075d565b9150826002028217905092915050565b620007a38262000534565b67ffffffffffffffff811115620007bf57620007be6200053e565b5b620007cb825462000598565b620007d882828562000701565b5f60209050601f8311600181146200080e575f8415620007f9578287015190505b6200080585826200077b565b86555062000874565b601f1984166200081e86620005cc565b5f5b82811015620008475784890151825560018201915060208501945060208101905062000820565b8683101562000867578489015162000863601f8916826200075d565b8355505b6001600288020188555050505b505050505050565b6148e4806200088a5f395ff3fe608060405234801561000f575f80fd5b50600436106101cd575f3560e01c80638cbdcead11610102578063b307fc6d116100a0578063e106c71a1161006f578063e106c71a14610630578063f2fde38b14610660578063fe1d3fd21461067c578063ff1484ca146106ac576101cd565b8063b307fc6d14610570578063b5ffbbcc146105a0578063d10a9f68146105d0578063d6e9f49514610600576101cd565b806393a02082116100dc57806393a02082146104c25780639f4216e8146104f2578063a4a1e26314610522578063a9d23d4614610540576101cd565b80638cbdcead146104445780638da5cb5b146104745780638e690fc514610492576101cd565b8063689e1c031161016f5780636957a0b2116101495780636957a0b2146103a35780636a769c29146103da578063715018a61461040a5780637c0f888214610414576101cd565b8063689e1c031461030f578063689f2ed21461034357806368ae556314610373576101cd565b806309772f8f116101ab57806309772f8f146102615780632b3fafb21461027f5780633b8cd7dc146102af5780636532be86146102df576101cd565b806304418790146101d157806307e9c88314610201578063085ba07414610231575b5f80fd5b6101eb60048036038101906101e69190613412565b6106dc565b6040516101f891906134a2565b60405180910390f35b61021b600480360381019061021691906134bb565b610913565b604051610228919061351d565b60405180910390f35b61024b600480360381019061024691906134bb565b6109c0565b60405161025891906137ce565b60405180910390f35b610269610c55565b60405161027691906137fd565b60405180910390f35b610299600480360381019061029491906134bb565b610c61565b6040516102a691906134a2565b60405180910390f35b6102c960048036038101906102c491906134bb565b610d62565b6040516102d691906134a2565b60405180910390f35b6102f960048036038101906102f4919061388d565b610e8b565b60405161030691906134a2565b60405180910390f35b610329600480360381019061032491906134bb565b611255565b60405161033a959493929190613973565b60405180910390f35b61035d60048036038101906103589190613412565b6113b7565b60405161036a91906134a2565b60405180910390f35b61038d600480360381019061038891906139d2565b6115dc565b60405161039a91906134a2565b60405180910390f35b6103bd60048036038101906103b891906134bb565b611904565b6040516103d1989796959493929190613ac7565b60405180910390f35b6103f460048036038101906103ef9190613b74565b611a1e565b60405161040191906134a2565b60405180910390f35b610412611b93565b005b61042e60048036038101906104299190613bce565b611ba6565b60405161043b91906134a2565b60405180910390f35b61045e60048036038101906104599190613bce565b611e7c565b60405161046b91906134a2565b60405180910390f35b61047c612212565b6040516104899190613c0c565b60405180910390f35b6104ac60048036038101906104a791906134bb565b612239565b6040516104b9919061351d565b60405180910390f35b6104dc60048036038101906104d79190613c25565b6122e7565b6040516104e99190613c50565b60405180910390f35b61050c60048036038101906105079190613c70565b612382565b6040516105199190613c50565b60405180910390f35b61052a612428565b60405161053791906137fd565b60405180910390f35b61055a60048036038101906105559190613c9b565b612434565b60405161056791906134a2565b60405180910390f35b61058a60048036038101906105859190613c70565b612511565b6040516105979190613c50565b60405180910390f35b6105ba60048036038101906105b59190613c25565b6125b7565b6040516105c79190613c50565b60405180910390f35b6105ea60048036038101906105e59190613cf5565b612652565b6040516105f791906134a2565b60405180910390f35b61061a600480360381019061061591906134bb565b612844565b60405161062791906134a2565b60405180910390f35b61064a600480360381019061064591906134bb565b612a64565b60405161065791906134a2565b60405180910390f35b61067a60048036038101906106759190613c25565b612b65565b005b610696600480360381019061069191906134bb565b612be9565b6040516106a39190613e1a565b60405180910390f35b6106c660048036038101906106c19190613b74565b612e08565b6040516106d391906134a2565b60405180910390f35b5f6106e8336040611e7c565b610727576040517f08c379a000000000000000000000000000000000000000000000000000000000815260040161071e90613eaa565b60405180910390fd5b825f6002826040516107399190613f02565b9081526020016040518091039020600401540361078b576040517f08c379a000000000000000000000000000000000000000000000000000000000815260040161078290613f62565b60405180910390fd5b825f60018260405161079d9190613f02565b908152602001604051809103902060020154036107ef576040517f08c379a00000000000000000000000000000000000000000000000000000000081526004016107e690613fca565b60405180910390fd5b5f6002866040516108009190613f02565b9081526020016040518091039020600201805461081c90614015565b90501461085e576040517f08c379a00000000000000000000000000000000000000000000000000000000081526004016108559061408f565b60405180910390fd5b8360028660405161086f9190613f02565b9081526020016040518091039020600201908161088c919061424a565b503373ffffffffffffffffffffffffffffffffffffffff16846040516108b29190613f02565b6040518091039020866040516108c89190613f02565b60405180910390207fd1b268239537a25c14e2eac10da2a119aa3cf3961279b9a7a08d88ce228fae9f426040516108ff91906137fd565b60405180910390a460019250505092915050565b5f815f6002826040516109269190613f02565b90815260200160405180910390206004015403610978576040517f08c379a000000000000000000000000000000000000000000000000000000000815260040161096f90613f62565b60405180910390fd5b6002836040516109889190613f02565b90815260200160405180910390206003015f9054906101000a900460ff1660028111156109b8576109b76135c8565b5b915050919050565b6109c8613160565b815f6002826040516109da9190613f02565b90815260200160405180910390206004015403610a2c576040517f08c379a0000000000000000000000000000000000000000000000000000000008152600401610a2390613f62565b60405180910390fd5b600283604051610a3c9190613f02565b90815260200160405180910390206040518060c00160405290815f82018054610a6490614015565b80601f0160208091040260200160405190810160405280929190818152602001828054610a9090614015565b8015610adb5780601f10610ab257610100808354040283529160200191610adb565b820191905f5260205f20905b815481529060010190602001808311610abe57829003601f168201915b5050505050815260200160018201548152602001600282018054610afe90614015565b80601f0160208091040260200160405190810160405280929190818152602001828054610b2a90614015565b8015610b755780601f10610b4c57610100808354040283529160200191610b75565b820191905f5260205f20905b815481529060010190602001808311610b5857829003601f168201915b50505050508152602001600382015f9054906101000a900460ff166002811115610ba257610ba16135c8565b5b6002811115610bb457610bb36135c8565b5b81526020016004820154815260200160058201805480602002602001604051908101604052809291908181526020018280548015610c4457602002820191905f5260205f20905b815f9054906101000a900473ffffffffffffffffffffffffffffffffffffffff1673ffffffffffffffffffffffffffffffffffffffff1681526020019060010190808311610bfb575b505050505081525050915050919050565b5f600580549050905090565b5f610c6d336040611e7c565b610cac576040517f08c379a0000000000000000000000000000000000000000000000000000000008152600401610ca390613eaa565b60405180910390fd5b815f600282604051610cbe9190613f02565b90815260200160405180910390206004015403610d10576040517f08c379a0000000000000000000000000000000000000000000000000000000008152600401610d0790613f62565b60405180910390fd5b5f600284604051610d219190613f02565b90815260200160405180910390206003015f6101000a81548160ff02191690836002811115610d5357610d526135c8565b5b02179055506001915050919050565b5f610d6e336080611e7c565b610dad576040517f08c379a0000000000000000000000000000000000000000000000000000000008152600401610da490614389565b60405180910390fd5b815f600182604051610dbf9190613f02565b90815260200160405180910390206002015403610e11576040517f08c379a0000000000000000000000000000000000000000000000000000000008152600401610e0890613fca565b60405180910390fd5b6003600184604051610e239190613f02565b908152602001604051809103902060010160016101000a81548160ff02191690836003811115610e5657610e556135c8565b5b021790555042600184604051610e6c9190613f02565b9081526020016040518091039020600301819055506001915050919050565b5f610e97336040611e7c565b610ed6576040517f08c379a0000000000000000000000000000000000000000000000000000000008152600401610ecd90613eaa565b60405180910390fd5b5f600186604051610ee79190613f02565b90815260200160405180910390206002015414610f39576040517f08c379a0000000000000000000000000000000000000000000000000000000008152600401610f30906143f1565b60405180910390fd5b5f855111610f7c576040517f08c379a0000000000000000000000000000000000000000000000000000000008152600401610f7390614459565b60405180910390fd5b5f73ffffffffffffffffffffffffffffffffffffffff168273ffffffffffffffffffffffffffffffffffffffff1603610fea576040517f08c379a0000000000000000000000000000000000000000000000000000000008152600401610fe1906144c1565b60405180910390fd5b5f6040518061010001604052808781526020018660028111156110105761100f6135c8565b5b815260200160016003811115611029576110286135c8565b5b81526020014281526020014281526020018581526020015f81526020018473ffffffffffffffffffffffffffffffffffffffff168152509050806001876040516110739190613f02565b90815260200160405180910390205f820151815f019081611094919061424a565b506020820151816001015f6101000a81548160ff021916908360028111156110bf576110be6135c8565b5b021790555060408201518160010160016101000a81548160ff021916908360038111156110ef576110ee6135c8565b5b0217905550606082015181600201556080820151816003015560a0820151816004015560c0820151816005015560e0820151816006015f6101000a81548173ffffffffffffffffffffffffffffffffffffffff021916908373ffffffffffffffffffffffffffffffffffffffff160217905550905050600586908060018154018082558091505060019003905f5260205f20015f909190919091509081611196919061424a565b508560035f8573ffffffffffffffffffffffffffffffffffffffff1673ffffffffffffffffffffffffffffffffffffffff1681526020019081526020015f2090816111e1919061424a565b503373ffffffffffffffffffffffffffffffffffffffff16866040516112079190613f02565b60405180910390207ffb2ee55cc7746e44f71c8e4259b4e371165b20aa33a9db5c4258ab6eb4141f6587426040516112409291906144df565b60405180910390a36001915050949350505050565b6002818051602081018201805184825260208301602085012081835280955050505050505f91509050805f01805461128c90614015565b80601f01602080910402602001604051908101604052809291908181526020018280546112b890614015565b80156113035780601f106112da57610100808354040283529160200191611303565b820191905f5260205f20905b8154815290600101906020018083116112e657829003601f168201915b50505050509080600101549080600201805461131e90614015565b80601f016020809104026020016040519081016040528092919081815260200182805461134a90614015565b80156113955780601f1061136c57610100808354040283529160200191611395565b820191905f5260205f20905b81548152906001019060200180831161137857829003601f168201915b505050505090806003015f9054906101000a900460ff16908060040154905085565b5f6113c3336040611e7c565b611402576040517f08c379a00000000000000000000000000000000000000000000000000000000081526004016113f990613eaa565b60405180910390fd5b825f6001826040516114149190613f02565b90815260200160405180910390206002015403611466576040517f08c379a000000000000000000000000000000000000000000000000000000000815260040161145d90613fca565b60405180910390fd5b6002600381111561147a576114796135c8565b5b60018560405161148a9190613f02565b908152602001604051809103902060010160019054906101000a900460ff1660038111156114bb576114ba6135c8565b5b036114fb576040517f08c379a00000000000000000000000000000000000000000000000000000000081526004016114f290614550565b60405180910390fd5b600260018560405161150d9190613f02565b908152602001604051809103902060010160016101000a81548160ff021916908360038111156115405761153f6135c8565b5b0217905550426001856040516115569190613f02565b9081526020016040518091039020600301819055503373ffffffffffffffffffffffffffffffffffffffff16846040516115909190613f02565b60405180910390207f0f79bf17bbb40c7f3964d874d86d8db800f84ee36d6bb1af59f1d009b8fae8a485426040516115c992919061456e565b60405180910390a3600191505092915050565b5f6115e8336040611e7c565b611627576040517f08c379a000000000000000000000000000000000000000000000000000000000815260040161161e90613eaa565b60405180910390fd5b5f6002846040516116389190613f02565b9081526020016040518091039020600401541461168a576040517f08c379a0000000000000000000000000000000000000000000000000000000008152600401611681906145e6565b60405180910390fd5b5f8351116116cd576040517f08c379a00000000000000000000000000000000000000000000000000000000081526004016116c49061464e565b60405180910390fd5b5f8067ffffffffffffffff8111156116e8576116e76132ee565b5b6040519080825280602002602001820160405280156117165781602001602082028036833780820191505090505b5090505f6040518060c0016040528086815260200185815260200160405180602001604052805f81525081526020015f6002811115611758576117576135c8565b5b81526020014281526020018381525090508060028660405161177a9190613f02565b90815260200160405180910390205f820151815f01908161179b919061424a565b506020820151816001015560408201518160020190816117bb919061424a565b506060820151816003015f6101000a81548160ff021916908360028111156117e6576117e56135c8565b5b02179055506080820151816004015560a08201518160050190805190602001906118119291906131a8565b50905050600685908060018154018082558091505060019003905f5260205f20015f909190919091509081611846919061424a565b508460045f3373ffffffffffffffffffffffffffffffffffffffff1673ffffffffffffffffffffffffffffffffffffffff1681526020019081526020015f209081611891919061424a565b503373ffffffffffffffffffffffffffffffffffffffff16856040516118b79190613f02565b60405180910390207fb13e9e763d8d60b28baaaac2eb3689b9862490eceeb8d72e090d827285def06686426040516118f092919061466c565b60405180910390a360019250505092915050565b6001818051602081018201805184825260208301602085012081835280955050505050505f91509050805f01805461193b90614015565b80601f016020809104026020016040519081016040528092919081815260200182805461196790614015565b80156119b25780601f10611989576101008083540402835291602001916119b2565b820191905f5260205f20905b81548152906001019060200180831161199557829003601f168201915b505050505090806001015f9054906101000a900460ff16908060010160019054906101000a900460ff1690806002015490806003015490806004015490806005015490806006015f9054906101000a900473ffffffffffffffffffffffffffffffffffffffff16905088565b5f611a2a336080611e7c565b611a69576040517f08c379a0000000000000000000000000000000000000000000000000000000008152600401611a6090614389565b60405180910390fd5b825f600182604051611a7b9190613f02565b90815260200160405180910390206002015403611acd576040517f08c379a0000000000000000000000000000000000000000000000000000000008152600401611ac490613fca565b60405180910390fd5b8219600185604051611adf9190613f02565b90815260200160405180910390206005015f828254169250508190555042600185604051611b0d9190613f02565b9081526020016040518091039020600301819055503373ffffffffffffffffffffffffffffffffffffffff1684604051611b479190613f02565b60405180910390207fea93182b272f835992ec4d598531773bc30c72c6e045d6a22b583ac43f9d20c48542604051611b80929190614693565b60405180910390a3600191505092915050565b611b9b613011565b611ba45f613098565b565b5f8060035f8573ffffffffffffffffffffffffffffffffffffffff1673ffffffffffffffffffffffffffffffffffffffff1681526020019081526020015f208054611bf090614015565b80601f0160208091040260200160405190810160405280929190818152602001828054611c1c90614015565b8015611c675780601f10611c3e57610100808354040283529160200191611c67565b820191905f5260205f20905b815481529060010190602001808311611c4a57829003601f168201915b505050505090505f815103611c7f575f915050611e76565b5f600182604051611c909190613f02565b9081526020016040518091039020604051806101000160405290815f82018054611cb990614015565b80601f0160208091040260200160405190810160405280929190818152602001828054611ce590614015565b8015611d305780601f10611d0757610100808354040283529160200191611d30565b820191905f5260205f20905b815481529060010190602001808311611d1357829003601f168201915b50505050508152602001600182015f9054906101000a900460ff166002811115611d5d57611d5c6135c8565b5b6002811115611d6f57611d6e6135c8565b5b81526020016001820160019054906101000a900460ff166003811115611d9857611d976135c8565b5b6003811115611daa57611da96135c8565b5b815260200160028201548152602001600382015481526020016004820154815260200160058201548152602001600682015f9054906101000a900473ffffffffffffffffffffffffffffffffffffffff1673ffffffffffffffffffffffffffffffffffffffff1673ffffffffffffffffffffffffffffffffffffffff1681525050905060016003811115611e4157611e406135c8565b5b81604001516003811115611e5857611e576135c8565b5b14611e67575f92505050611e76565b5f848260c00151161415925050505b92915050565b5f8060035f8573ffffffffffffffffffffffffffffffffffffffff1673ffffffffffffffffffffffffffffffffffffffff1681526020019081526020015f208054611ec690614015565b80601f0160208091040260200160405190810160405280929190818152602001828054611ef290614015565b8015611f3d5780601f10611f1457610100808354040283529160200191611f3d565b820191905f5260205f20905b815481529060010190602001808311611f2057829003601f168201915b505050505090505f815103611f55575f91505061220c565b604051602001611f6490614704565b6040516020818303038152906040528051906020012081604051602001611f8b9190613f02565b6040516020818303038152906040528051906020012003611fb5575f83604016141591505061220c565b604051602001611fc490614762565b6040516020818303038152906040528051906020012081604051602001611feb9190613f02565b6040516020818303038152906040528051906020012003612015575f83608016141591505061220c565b5f6001826040516120269190613f02565b9081526020016040518091039020604051806101000160405290815f8201805461204f90614015565b80601f016020809104026020016040519081016040528092919081815260200182805461207b90614015565b80156120c65780601f1061209d576101008083540402835291602001916120c6565b820191905f5260205f20905b8154815290600101906020018083116120a957829003601f168201915b50505050508152602001600182015f9054906101000a900460ff1660028111156120f3576120f26135c8565b5b6002811115612105576121046135c8565b5b81526020016001820160019054906101000a900460ff16600381111561212e5761212d6135c8565b5b60038111156121405761213f6135c8565b5b815260200160028201548152602001600382015481526020016004820154815260200160058201548152602001600682015f9054906101000a900473ffffffffffffffffffffffffffffffffffffffff1673ffffffffffffffffffffffffffffffffffffffff1673ffffffffffffffffffffffffffffffffffffffff16815250509050600160038111156121d7576121d66135c8565b5b816040015160038111156121ee576121ed6135c8565b5b146121fd575f9250505061220c565b5f848260c00151161415925050505b92915050565b5f805f9054906101000a900473ffffffffffffffffffffffffffffffffffffffff16905090565b5f815f60018260405161224c9190613f02565b9081526020016040518091039020600201540361229e576040517f08c379a000000000000000000000000000000000000000000000000000000000815260040161229590613fca565b60405180910390fd5b6001836040516122ae9190613f02565b908152602001604051809103902060010160019054906101000a900460ff1660038111156122df576122de6135c8565b5b915050919050565b6003602052805f5260405f205f91509050805461230390614015565b80601f016020809104026020016040519081016040528092919081815260200182805461232f90614015565b801561237a5780601f106123515761010080835404028352916020019161237a565b820191905f5260205f20905b81548152906001019060200180831161235d57829003601f168201915b505050505081565b60068181548110612391575f80fd5b905f5260205f20015f9150905080546123a990614015565b80601f01602080910402602001604051908101604052809291908181526020018280546123d590614015565b80156124205780601f106123f757610100808354040283529160200191612420565b820191905f5260205f20905b81548152906001019060200180831161240357829003601f168201915b505050505081565b5f600680549050905090565b5f61243d612212565b73ffffffffffffffffffffffffffffffffffffffff163373ffffffffffffffffffffffffffffffffffffffff16148061247d575061247c336040611e7c565b5b6124bc576040517f08c379a00000000000000000000000000000000000000000000000000000000081526004016124b390613eaa565b60405180910390fd5b8160035f8573ffffffffffffffffffffffffffffffffffffffff1673ffffffffffffffffffffffffffffffffffffffff1681526020019081526020015f209081612506919061424a565b506001905092915050565b60058181548110612520575f80fd5b905f5260205f20015f91509050805461253890614015565b80601f016020809104026020016040519081016040528092919081815260200182805461256490614015565b80156125af5780601f10612586576101008083540402835291602001916125af565b820191905f5260205f20905b81548152906001019060200180831161259257829003601f168201915b505050505081565b6004602052805f5260405f205f9150905080546125d390614015565b80601f01602080910402602001604051908101604052809291908181526020018280546125ff90614015565b801561264a5780601f106126215761010080835404028352916020019161264a565b820191905f5260205f20905b81548152906001019060200180831161262d57829003601f168201915b505050505081565b5f61265e336040611e7c565b61269d576040517f08c379a000000000000000000000000000000000000000000000000000000000815260040161269490613eaa565b60405180910390fd5b825f6002826040516126af9190613f02565b90815260200160405180910390206004015403612701576040517f08c379a00000000000000000000000000000000000000000000000000000000081526004016126f890613f62565b60405180910390fd5b5f73ffffffffffffffffffffffffffffffffffffffff168373ffffffffffffffffffffffffffffffffffffffff160361276f576040517f08c379a0000000000000000000000000000000000000000000000000000000008152600401612766906147c0565b60405180910390fd5b60028460405161277f9190613f02565b908152602001604051809103902060050183908060018154018082558091505060019003905f5260205f20015f9091909190916101000a81548173ffffffffffffffffffffffffffffffffffffffff021916908373ffffffffffffffffffffffffffffffffffffffff1602179055508360045f8573ffffffffffffffffffffffffffffffffffffffff1673ffffffffffffffffffffffffffffffffffffffff1681526020019081526020015f209081612838919061424a565b50600191505092915050565b5f612850336080611e7c565b61288f576040517f08c379a000000000000000000000000000000000000000000000000000000000815260040161288690614389565b60405180910390fd5b815f6001826040516128a19190613f02565b908152602001604051809103902060020154036128f3576040517f08c379a00000000000000000000000000000000000000000000000000000000081526004016128ea90613fca565b60405180910390fd5b5f6003811115612906576129056135c8565b5b6001846040516129169190613f02565b908152602001604051809103902060010160019054906101000a900460ff166003811115612947576129466135c8565b5b14612987576040517f08c379a000000000000000000000000000000000000000000000000000000000815260040161297e90614828565b60405180910390fd5b600180846040516129989190613f02565b908152602001604051809103902060010160016101000a81548160ff021916908360038111156129cb576129ca6135c8565b5b0217905550426001846040516129e19190613f02565b9081526020016040518091039020600301819055503373ffffffffffffffffffffffffffffffffffffffff1683604051612a1b9190613f02565b60405180910390207fd55f84792db67b05a3c97deae9d02dc26d461105199f24852fd5468b7e68d1f242604051612a5291906137fd565b60405180910390a36001915050919050565b5f612a70336040611e7c565b612aaf576040517f08c379a0000000000000000000000000000000000000000000000000000000008152600401612aa690613eaa565b60405180910390fd5b815f600282604051612ac19190613f02565b90815260200160405180910390206004015403612b13576040517f08c379a0000000000000000000000000000000000000000000000000000000008152600401612b0a90613f62565b60405180910390fd5b60028084604051612b249190613f02565b90815260200160405180910390206003015f6101000a81548160ff02191690836002811115612b5657612b556135c8565b5b02179055506001915050919050565b612b6d613011565b5f73ffffffffffffffffffffffffffffffffffffffff168173ffffffffffffffffffffffffffffffffffffffff1603612bdd575f6040517f1e4fbdf7000000000000000000000000000000000000000000000000000000008152600401612bd49190613c0c565b60405180910390fd5b612be681613098565b50565b612bf161322f565b815f600182604051612c039190613f02565b90815260200160405180910390206002015403612c55576040517f08c379a0000000000000000000000000000000000000000000000000000000008152600401612c4c90613fca565b60405180910390fd5b600183604051612c659190613f02565b9081526020016040518091039020604051806101000160405290815f82018054612c8e90614015565b80601f0160208091040260200160405190810160405280929190818152602001828054612cba90614015565b8015612d055780601f10612cdc57610100808354040283529160200191612d05565b820191905f5260205f20905b815481529060010190602001808311612ce857829003601f168201915b50505050508152602001600182015f9054906101000a900460ff166002811115612d3257612d316135c8565b5b6002811115612d4457612d436135c8565b5b81526020016001820160019054906101000a900460ff166003811115612d6d57612d6c6135c8565b5b6003811115612d7f57612d7e6135c8565b5b815260200160028201548152602001600382015481526020016004820154815260200160058201548152602001600682015f9054906101000a900473ffffffffffffffffffffffffffffffffffffffff1673ffffffffffffffffffffffffffffffffffffffff1673ffffffffffffffffffffffffffffffffffffffff1681525050915050919050565b5f612e14336080611e7c565b612e53576040517f08c379a0000000000000000000000000000000000000000000000000000000008152600401612e4a90614389565b60405180910390fd5b825f600182604051612e659190613f02565b90815260200160405180910390206002015403612eb7576040517f08c379a0000000000000000000000000000000000000000000000000000000008152600401612eae90613fca565b60405180910390fd5b60016003811115612ecb57612eca6135c8565b5b600185604051612edb9190613f02565b908152602001604051809103902060010160019054906101000a900460ff166003811115612f0c57612f0b6135c8565b5b14612f4c576040517f08c379a0000000000000000000000000000000000000000000000000000000008152600401612f4390614890565b60405180910390fd5b82600185604051612f5d9190613f02565b90815260200160405180910390206005015f828254179250508190555042600185604051612f8b9190613f02565b9081526020016040518091039020600301819055503373ffffffffffffffffffffffffffffffffffffffff1684604051612fc59190613f02565b60405180910390207f930f876b0eafb77683945f6848f7ecb44e5a72acae7446143261ee11feb45d288542604051612ffe929190614693565b60405180910390a3600191505092915050565b613019613159565b73ffffffffffffffffffffffffffffffffffffffff16613037612212565b73ffffffffffffffffffffffffffffffffffffffff16146130965761305a613159565b6040517f118cdaa700000000000000000000000000000000000000000000000000000000815260040161308d9190613c0c565b60405180910390fd5b565b5f805f9054906101000a900473ffffffffffffffffffffffffffffffffffffffff169050815f806101000a81548173ffffffffffffffffffffffffffffffffffffffff021916908373ffffffffffffffffffffffffffffffffffffffff1602179055508173ffffffffffffffffffffffffffffffffffffffff168173ffffffffffffffffffffffffffffffffffffffff167f8be0079c531659141344cd1fd0a4f28419497f9722a3daafe3b4186f6b6457e060405160405180910390a35050565b5f33905090565b6040518060c00160405280606081526020015f8019168152602001606081526020015f6002811115613195576131946135c8565b5b81526020015f8152602001606081525090565b828054828255905f5260205f2090810192821561321e579160200282015b8281111561321d578251825f6101000a81548173ffffffffffffffffffffffffffffffffffffffff021916908373ffffffffffffffffffffffffffffffffffffffff160217905550916020019190600101906131c6565b5b50905061322b91906132aa565b5090565b604051806101000160405280606081526020015f6002811115613255576132546135c8565b5b81526020015f600381111561326d5761326c6135c8565b5b81526020015f81526020015f81526020015f80191681526020015f81526020015f73ffffffffffffffffffffffffffffffffffffffff1681525090565b5b808211156132c1575f815f9055506001016132ab565b5090565b5f604051905090565b5f80fd5b5f80fd5b5f80fd5b5f80fd5b5f601f19601f8301169050919050565b7f4e487b71000000000000000000000000000000000000000000000000000000005f52604160045260245ffd5b613324826132de565b810181811067ffffffffffffffff82111715613343576133426132ee565b5b80604052505050565b5f6133556132c5565b9050613361828261331b565b919050565b5f67ffffffffffffffff8211156133805761337f6132ee565b5b613389826132de565b9050602081019050919050565b828183375f83830152505050565b5f6133b66133b184613366565b61334c565b9050828152602081018484840111156133d2576133d16132da565b5b6133dd848285613396565b509392505050565b5f82601f8301126133f9576133f86132d6565b5b81356134098482602086016133a4565b91505092915050565b5f8060408385031215613428576134276132ce565b5b5f83013567ffffffffffffffff811115613445576134446132d2565b5b613451858286016133e5565b925050602083013567ffffffffffffffff811115613472576134716132d2565b5b61347e858286016133e5565b9150509250929050565b5f8115159050919050565b61349c81613488565b82525050565b5f6020820190506134b55f830184613493565b92915050565b5f602082840312156134d0576134cf6132ce565b5b5f82013567ffffffffffffffff8111156134ed576134ec6132d2565b5b6134f9848285016133e5565b91505092915050565b5f60ff82169050919050565b61351781613502565b82525050565b5f6020820190506135305f83018461350e565b92915050565b5f81519050919050565b5f82825260208201905092915050565b5f5b8381101561356d578082015181840152602081019050613552565b5f8484015250505050565b5f61358282613536565b61358c8185613540565b935061359c818560208601613550565b6135a5816132de565b840191505092915050565b5f819050919050565b6135c2816135b0565b82525050565b7f4e487b71000000000000000000000000000000000000000000000000000000005f52602160045260245ffd5b60038110613606576136056135c8565b5b50565b5f819050613616826135f5565b919050565b5f61362582613609565b9050919050565b6136358161361b565b82525050565b5f819050919050565b61364d8161363b565b82525050565b5f81519050919050565b5f82825260208201905092915050565b5f819050602082019050919050565b5f73ffffffffffffffffffffffffffffffffffffffff82169050919050565b5f6136a58261367c565b9050919050565b6136b58161369b565b82525050565b5f6136c683836136ac565b60208301905092915050565b5f602082019050919050565b5f6136e882613653565b6136f2818561365d565b93506136fd8361366d565b805f5b8381101561372d57815161371488826136bb565b975061371f836136d2565b925050600181019050613700565b5085935050505092915050565b5f60c083015f8301518482035f8601526137548282613578565b915050602083015161376960208601826135b9565b50604083015184820360408601526137818282613578565b9150506060830151613796606086018261362c565b5060808301516137a96080860182613644565b5060a083015184820360a08601526137c182826136de565b9150508091505092915050565b5f6020820190508181035f8301526137e6818461373a565b905092915050565b6137f78161363b565b82525050565b5f6020820190506138105f8301846137ee565b92915050565b60038110613822575f80fd5b50565b5f8135905061383381613816565b92915050565b613842816135b0565b811461384c575f80fd5b50565b5f8135905061385d81613839565b92915050565b61386c8161369b565b8114613876575f80fd5b50565b5f8135905061388781613863565b92915050565b5f805f80608085870312156138a5576138a46132ce565b5b5f85013567ffffffffffffffff8111156138c2576138c16132d2565b5b6138ce878288016133e5565b94505060206138df87828801613825565b93505060406138f08782880161384f565b925050606061390187828801613879565b91505092959194509250565b5f82825260208201905092915050565b5f61392782613536565b613931818561390d565b9350613941818560208601613550565b61394a816132de565b840191505092915050565b61395e816135b0565b82525050565b61396d8161361b565b82525050565b5f60a0820190508181035f83015261398b818861391d565b905061399a6020830187613955565b81810360408301526139ac818661391d565b90506139bb6060830185613964565b6139c860808301846137ee565b9695505050505050565b5f80604083850312156139e8576139e76132ce565b5b5f83013567ffffffffffffffff811115613a0557613a046132d2565b5b613a11858286016133e5565b9250506020613a228582860161384f565b9150509250929050565b60038110613a3d57613a3c6135c8565b5b50565b5f819050613a4d82613a2c565b919050565b5f613a5c82613a40565b9050919050565b613a6c81613a52565b82525050565b60048110613a8357613a826135c8565b5b50565b5f819050613a9382613a72565b919050565b5f613aa282613a86565b9050919050565b613ab281613a98565b82525050565b613ac18161369b565b82525050565b5f610100820190508181035f830152613ae0818b61391d565b9050613aef602083018a613a63565b613afc6040830189613aa9565b613b0960608301886137ee565b613b1660808301876137ee565b613b2360a0830186613955565b613b3060c08301856137ee565b613b3d60e0830184613ab8565b9998505050505050505050565b613b538161363b565b8114613b5d575f80fd5b50565b5f81359050613b6e81613b4a565b92915050565b5f8060408385031215613b8a57613b896132ce565b5b5f83013567ffffffffffffffff811115613ba757613ba66132d2565b5b613bb3858286016133e5565b9250506020613bc485828601613b60565b9150509250929050565b5f8060408385031215613be457613be36132ce565b5b5f613bf185828601613879565b9250506020613c0285828601613b60565b9150509250929050565b5f602082019050613c1f5f830184613ab8565b92915050565b5f60208284031215613c3a57613c396132ce565b5b5f613c4784828501613879565b91505092915050565b5f6020820190508181035f830152613c68818461391d565b905092915050565b5f60208284031215613c8557613c846132ce565b5b5f613c9284828501613b60565b91505092915050565b5f8060408385031215613cb157613cb06132ce565b5b5f613cbe85828601613879565b925050602083013567ffffffffffffffff811115613cdf57613cde6132d2565b5b613ceb858286016133e5565b9150509250929050565b5f8060408385031215613d0b57613d0a6132ce565b5b5f83013567ffffffffffffffff811115613d2857613d276132d2565b5b613d34858286016133e5565b9250506020613d4585828601613879565b9150509250929050565b613d5881613a52565b82525050565b613d6781613a98565b82525050565b5f61010083015f8301518482035f860152613d888282613578565b9150506020830151613d9d6020860182613d4f565b506040830151613db06040860182613d5e565b506060830151613dc36060860182613644565b506080830151613dd66080860182613644565b5060a0830151613de960a08601826135b9565b5060c0830151613dfc60c0860182613644565b5060e0830151613e0f60e08601826136ac565b508091505092915050565b5f6020820190508181035f830152613e328184613d6d565b905092915050565b7f4e6f7420617574686f72697a65643a20504c4154464f524d20726f6c652072655f8201527f7175697265640000000000000000000000000000000000000000000000000000602082015250565b5f613e9460268361390d565b9150613e9f82613e3a565b604082019050919050565b5f6020820190508181035f830152613ec181613e88565b9050919050565b5f81905092915050565b5f613edc82613536565b613ee68185613ec8565b9350613ef6818560208601613550565b80840191505092915050565b5f613f0d8284613ed2565b915081905092915050565b7f5573657220646f6573206e6f74206578697374000000000000000000000000005f82015250565b5f613f4c60138361390d565b9150613f5782613f18565b602082019050919050565b5f6020820190508181035f830152613f7981613f40565b9050919050565b7f4d656d62657220646f6573206e6f7420657869737400000000000000000000005f82015250565b5f613fb460158361390d565b9150613fbf82613f80565b602082019050919050565b5f6020820190508181035f830152613fe181613fa8565b9050919050565b7f4e487b71000000000000000000000000000000000000000000000000000000005f52602260045260245ffd5b5f600282049050600182168061402c57607f821691505b60208210810361403f5761403e613fe8565b5b50919050565b7f5573657220616c7265616479206c696e6b6564000000000000000000000000005f82015250565b5f61407960138361390d565b915061408482614045565b602082019050919050565b5f6020820190508181035f8301526140a68161406d565b9050919050565b5f819050815f5260205f209050919050565b5f6020601f8301049050919050565b5f82821b905092915050565b5f600883026141097fffffffffffffffffffffffffffffffffffffffffffffffffffffffffffffffff826140ce565b61411386836140ce565b95508019841693508086168417925050509392505050565b5f819050919050565b5f61414e6141496141448461363b565b61412b565b61363b565b9050919050565b5f819050919050565b61416783614134565b61417b61417382614155565b8484546140da565b825550505050565b5f90565b61418f614183565b61419a81848461415e565b505050565b5b818110156141bd576141b25f82614187565b6001810190506141a0565b5050565b601f821115614202576141d3816140ad565b6141dc846140bf565b810160208510156141eb578190505b6141ff6141f7856140bf565b83018261419f565b50505b505050565b5f82821c905092915050565b5f6142225f1984600802614207565b1980831691505092915050565b5f61423a8383614213565b9150826002028217905092915050565b61425382613536565b67ffffffffffffffff81111561426c5761426b6132ee565b5b6142768254614015565b6142818282856141c1565b5f60209050601f8311600181146142b2575f84156142a0578287015190505b6142aa858261422f565b865550614311565b601f1984166142c0866140ad565b5f5b828110156142e7578489015182556001820191506020850194506020810190506142c2565b868310156143045784890151614300601f891682614213565b8355505b6001600288020188555050505b505050505050565b7f4e6f7420617574686f72697a65643a20474f5645524e414e434520726f6c65205f8201527f7265717569726564000000000000000000000000000000000000000000000000602082015250565b5f61437360288361390d565b915061437e82614319565b604082019050919050565b5f6020820190508181035f8301526143a081614367565b9050919050565b7f4d656d62657220616c72656164792065786973747300000000000000000000005f82015250565b5f6143db60158361390d565b91506143e6826143a7565b602082019050919050565b5f6020820190508181035f830152614408816143cf565b9050919050565b7f496e76616c6964206d656d6265722047494300000000000000000000000000005f82015250565b5f61444360128361390d565b915061444e8261440f565b602082019050919050565b5f6020820190508181035f83015261447081614437565b9050919050565b7f496e76616c6964207573657220616464726573730000000000000000000000005f82015250565b5f6144ab60148361390d565b91506144b682614477565b602082019050919050565b5f6020820190508181035f8301526144d88161449f565b9050919050565b5f6040820190506144f25f830185613a63565b6144ff60208301846137ee565b9392505050565b7f4d656d62657220616c72656164792073757370656e64656400000000000000005f82015250565b5f61453a60188361390d565b915061454582614506565b602082019050919050565b5f6020820190508181035f8301526145678161452e565b9050919050565b5f6040820190508181035f830152614586818561391d565b905061459560208301846137ee565b9392505050565b7f5573657220616c726561647920657869737473000000000000000000000000005f82015250565b5f6145d060138361390d565b91506145db8261459c565b602082019050919050565b5f6020820190508181035f8301526145fd816145c4565b9050919050565b7f496e76616c6964207573657220494400000000000000000000000000000000005f82015250565b5f614638600f8361390d565b915061464382614604565b602082019050919050565b5f6020820190508181035f8301526146658161462c565b9050919050565b5f60408201905061467f5f830185613955565b61468c60208301846137ee565b9392505050565b5f6040820190506146a65f8301856137ee565b6146b360208301846137ee565b9392505050565b7f504c4154464f524d0000000000000000000000000000000000000000000000005f82015250565b5f6146ee600883613ec8565b91506146f9826146ba565b600882019050919050565b5f61470e826146e2565b9150819050919050565b7f474f5645524e414e4345000000000000000000000000000000000000000000005f82015250565b5f61474c600a83613ec8565b915061475782614718565b600a82019050919050565b5f61476c82614740565b9150819050919050565b7f496e76616c6964206164647265737300000000000000000000000000000000005f82015250565b5f6147aa600f8361390d565b91506147b582614776565b602082019050919050565b5f6020820190508181035f8301526147d78161479e565b9050919050565b7f4d656d626572206e6f742070656e64696e6700000000000000000000000000005f82015250565b5f61481260128361390d565b915061481d826147de565b602082019050919050565b5f6020820190508181035f83015261483f81614806565b9050919050565b7f4d656d626572206e6f74206163746976650000000000000000000000000000005f82015250565b5f61487a60118361390d565b915061488582614846565b602082019050919050565b5f6020820190508181035f8301526148a78161486e565b905091905056fea2646970667358221220c54828831efe4e063d4ad147ae1b4e07c7030387f8098bf211802c252eb7dba264736f6c63430008180033","linkReferences":{}},"methodIdentifiers":{"activateUser(string)":"2b3fafb2","addUserAdminAddress(string,address)":"d10a9f68","addressToMemberGIC(address)":"93a02082","addressToUserId(address)":"b5ffbbcc","approveMember(string)":"d6e9f495","assignRole(string,uint256)":"ff1484ca","getMemberDetails(string)":"fe1d3fd2","getMemberStatus(string)":"8e690fc5","getMembersCount()":"09772f8f","getUserDetails(string)":"085ba074","getUserStatus(string)":"07e9c883","getUsersCount()":"a4a1e263","isMemberInRole(address,uint256)":"8cbdcead","linkAddressToMember(address,string)":"a9d23d46","linkUserToMember(string,string)":"04418790","memberList(uint256)":"b307fc6d","members(string)":"6957a0b2","owner()":"8da5cb5b","registerMember(string,uint8,bytes32,address)":"6532be86","registerUser(string,bytes32)":"68ae5563","renounceOwnership()":"715018a6","revokeRole(string,uint256)":"6a769c29","suspendMember(string,string)":"689f2ed2","suspendUser(string)":"e106c71a","terminateMember(string)":"3b8cd7dc","transferOwnership(address)":"f2fde38b","userList(uint256)":"9f4216e8","users(string)":"689e1c03","validatePermission(address,uint256)":"7c0f8882"},"id":0}