{"abi":[{"type":"constructor","inputs":[],"stateMutability":"nonpayable"},{"type":"function","name":"activateUser","inputs":[{"name":"userId","type":"string","internalType":"string"}],"outputs":[{"name":"","type":"bool","internalType":"bool"}],"stateMutability":"nonpayable"},{"type":"function","name":"addToBlacklist","inputs":[{"name":"account","type":"address","internalType":"address"}],"outputs":[{"name":"","type":"bool","internalType":"bool"}],"stateMutability":"nonpayable"},{"type":"function","name":"addUserAdminAddress","inputs":[{"name":"userId","type":"string","internalType":"string"},{"name":"adminAddress","type":"address","internalType":"address"}],"outputs":[{"name":"","type":"bool","internalType":"bool"}],"stateMutability":"nonpayable"},{"type":"function","name":"addressToMemberGIC","inputs":[{"name":"","type":"address","internalType":"address"}],"outputs":[{"name":"","type":"string","internalType":"string"}],"stateMutability":"view"},{"type":"function","name":"addressToUserId","inputs":[{"name":"","type":"address","internalType":"address"}],"outputs":[{"name":"","type":"string","internalType":"string"}],"stateMutability":"view"},{"type":"function","name":"approveMember","inputs":[{"name":"memberGIC","type":"string","internalType":"string"}],"outputs":[{"name":"","type":"bool","internalType":"bool"}],"stateMutability":"nonpayable"},{"type":"function","name":"blacklisted","inputs":[{"name":"","type":"address","internalType":"address"}],"outputs":[{"name":"","type":"bool","internalType":"bool"}],"stateMutability":"view"},{"type":"function","name":"getMemberDetails","inputs":[{"name":"memberGIC","type":"string","internalType":"string"}],"outputs":[{"name":"","type":"tuple","internalType":"struct MemberRegistry.Member","components":[{"name":"memberGIC","type":"string","internalType":"string"},{"name":"memberType","type":"uint8","internalType":"enum MemberRegistry.MemberType"},{"name":"status","type":"uint8","internalType":"enum MemberRegistry.MemberStatus"},{"name":"createdAt","type":"uint256","internalType":"uint256"},{"name":"updatedAt","type":"uint256","internalType":"uint256"},{"name":"memberHash","type":"bytes32","internalType":"bytes32"},{"name":"roles","type":"uint256","internalType":"uint256"},{"name":"userAddress","type":"address","internalType":"address"}]}],"stateMutability":"view"},{"type":"function","name":"getMemberStatus","inputs":[{"name":"memberGIC","type":"string","internalType":"string"}],"outputs":[{"name":"","type":"uint8","internalType":"uint8"}],"stateMutability":"view"},{"type":"function","name":"getMembersCount","inputs":[],"outputs":[{"name":"","type":"uint256","internalType":"uint256"}],"stateMutability":"view"},{"type":"function","name":"getMyRoles","inputs":[],"outputs":[{"name":"","type":"uint256","internalType":"uint256"}],"stateMutability":"view"},{"type":"function","name":"getUserDetails","inputs":[{"name":"userId","type":"string","internalType":"string"}],"outputs":[{"name":"","type":"tuple","internalType":"struct MemberRegistry.User","components":[{"name":"userId","type":"string","internalType":"string"},{"name":"userHash","type":"bytes32","internalType":"bytes32"},{"name":"linkedMemberGIC","type":"string","internalType":"string"},{"name":"status","type":"uint8","internalType":"enum MemberRegistry.UserStatus"},{"name":"createdAt","type":"uint256","internalType":"uint256"},{"name":"adminAddresses","type":"address[]","internalType":"address[]"}]}],"stateMutability":"view"},{"type":"function","name":"getUserStatus","inputs":[{"name":"userId","type":"string","internalType":"string"}],"outputs":[{"name":"","type":"uint8","internalType":"uint8"}],"stateMutability":"view"},{"type":"function","name":"getUsersCount","inputs":[],"outputs":[{"name":"","type":"uint256","internalType":"uint256"}],"stateMutability":"view"},{"type":"function","name":"isBlacklisted","inputs":[{"name":"account","type":"address","internalType":"address"}],"outputs":[{"name":"","type":"bool","internalType":"bool"}],"stateMutability":"view"},{"type":"function","name":"isMemberInRole","inputs":[{"name":"member","type":"address","internalType":"address"},{"name":"role","type":"uint256","internalType":"uint256"}],"outputs":[{"name":"","type":"bool","internalType":"bool"}],"stateMutability":"view"},{"type":"function","name":"linkAddressToMember","inputs":[{"name":"addr","type":"address","internalType":"address"},{"name":"memberGIC","type":"string","internalType":"string"}],"outputs":[{"name":"","type":"bool","internalType":"bool"}],"stateMutability":"nonpayable"},{"type":"function","name":"linkUserToMember","inputs":[{"name":"userId","type":"string","internalType":"string"},{"name":"memberGIC","type":"string","internalType":"string"}],"outputs":[{"name":"","type":"bool","internalType":"bool"}],"stateMutability":"nonpayable"},{"type":"function","name":"memberList","inputs":[{"name":"","type":"uint256","internalType":"uint256"}],"outputs":[{"name":"","type":"string","internalType":"string"}],"stateMutability":"view"},{"type":"function","name":"members","inputs":[{"name":"","type":"string","internalType":"string"}],"outputs":[{"name":"memberGIC","type":"string","internalType":"string"},{"name":"memberType","type":"uint8","internalType":"enum MemberRegistry.MemberType"},{"name":"status","type":"uint8","internalType":"enum MemberRegistry.MemberStatus"},{"name":"createdAt","type":"uint256","internalType":"uint256"},{"name":"updatedAt","type":"uint256","internalType":"uint256"},{"name":"memberHash","type":"bytes32","internalType":"bytes32"},{"name":"roles","type":"uint256","internalType":"uint256"},{"name":"userAddress","type":"address","internalType":"address"}],"stateMutability":"view"},{"type":"function","name":"owner","inputs":[],"outputs":[{"name":"","type":"address","internalType":"address"}],"stateMutability":"view"},{"type":"function","name":"registerMember","inputs":[{"name":"memberGIC","type":"string","internalType":"string"},{"name":"memberType","type":"uint8","internalType":"enum MemberRegistry.MemberType"},{"name":"memberHash","type":"bytes32","internalType":"bytes32"},{"name":"userAddress","type":"address","internalType":"address"},{"name":"role","type":"uint256","internalType":"uint256"}],"outputs":[{"name":"","type":"bool","internalType":"bool"}],"stateMutability":"nonpayable"},{"type":"function","name":"registerUser","inputs":[{"name":"userId","type":"string","internalType":"string"},{"name":"userHash","type":"bytes32","internalType":"bytes32"},{"name":"memberGIC","type":"string","internalType":"string"}],"outputs":[{"name":"","type":"bool","internalType":"bool"}],"stateMutability":"nonpayable"},{"type":"function","name":"registerUser","inputs":[{"name":"userId","type":"string","internalType":"string"},{"name":"userHash","type":"bytes32","internalType":"bytes32"}],"outputs":[{"name":"","type":"bool","internalType":"bool"}],"stateMutability":"nonpayable"},{"type":"function","name":"removeFromBlacklist","inputs":[{"name":"account","type":"address","internalType":"address"}],"outputs":[{"name":"","type":"bool","internalType":"bool"}],"stateMutability":"nonpayable"},{"type":"function","name":"renounceOwnership","inputs":[],"outputs":[],"stateMutability":"nonpayable"},{"type":"function","name":"setBlacklisted","inputs":[{"name":"account","type":"address","internalType":"address"},{"name":"status","type":"bool","internalType":"bool"}],"outputs":[{"name":"","type":"bool","internalType":"bool"}],"stateMutability":"nonpayable"},{"type":"function","name":"setRole","inputs":[{"name":"memberGIC","type":"string","internalType":"string"},{"name":"role","type":"uint256","internalType":"uint256"},{"name":"enabled","type":"bool","internalType":"bool"}],"outputs":[{"name":"","type":"bool","internalType":"bool"}],"stateMutability":"nonpayable"},{"type":"function","name":"suspendMember","inputs":[{"name":"memberGIC","type":"string","internalType":"string"},{"name":"reason","type":"string","internalType":"string"}],"outputs":[{"name":"","type":"bool","internalType":"bool"}],"stateMutability":"nonpayable"},{"type":"function","name":"suspendUser","inputs":[{"name":"userId","type":"string","internalType":"string"}],"outputs":[{"name":"","type":"bool","internalType":"bool"}],"stateMutability":"nonpayable"},{"type":"function","name":"terminateMember","inputs":[{"name":"memberGIC","type":"string","internalType":"string"}],"outputs":[{"name":"","type":"bool","internalType":"bool"}],"stateMutability":"nonpayable"},{"type":"function","name":"transferOwnership","inputs":[{"name":"newOwner","type":"address","internalType":"address"}],"outputs":[],"stateMutability":"nonpayable"},{"type":"function","name":"userList","inputs":[{"name":"","type":"uint256","internalType":"uint256"}],"outputs":[{"name":"","type":"string","internalType":"string"}],"stateMutability":"view"},{"type":"function","name":"users","inputs":[{"name":"","type":"string","internalType":"string"}],"outputs":[{"name":"userId","type":"string","internalType":"string"},{"name":"userHash","type":"bytes32","internalType":"bytes32"},{"name":"linkedMemberGIC","type":"string","internalType":"string"},{"name":"status","type":"uint8","internalType":"enum MemberRegistry.UserStatus"},{"name":"createdAt","type":"uint256","internalType":"uint256"}],"stateMutability":"view"},{"type":"function","name":"validatePermission","inputs":[{"name":"member","type":"address","internalType":"address"},{"name":"role","type":"uint256","internalType":"uint256"}],"outputs":[{"name":"","type":"bool","internalType":"bool"}],"stateMutability":"view"},{"type":"event","name":"BlacklistUpdated","inputs":[{"name":"account","type":"address","indexed":true,"internalType":"address"},{"name":"status","type":"bool","indexed":false,"internalType":"bool"},{"name":"updatedBy","type":"address","indexed":true,"internalType":"address"},{"name":"timestamp","type":"uint256","indexed":false,"internalType":"uint256"}],"anonymous":false},{"type":"event","name":"MemberApproved","inputs":[{"name":"memberGIC","type":"string","indexed":true,"internalType":"string"},{"name":"approvedBy","type":"address","indexed":true,"internalType":"address"},{"name":"timestamp","type":"uint256","indexed":false,"internalType":"uint256"}],"anonymous":false},{"type":"event","name":"MemberRegistered","inputs":[{"name":"memberGIC","type":"string","indexed":true,"internalType":"string"},{"name":"memberType","type":"uint8","indexed":false,"internalType":"enum MemberRegistry.MemberType"},{"name":"registeredBy","type":"address","indexed":true,"internalType":"address"},{"name":"timestamp","type":"uint256","indexed":false,"internalType":"uint256"}],"anonymous":false},{"type":"event","name":"MemberSuspended","inputs":[{"name":"memberGIC","type":"string","indexed":true,"internalType":"string"},{"name":"reason","type":"string","indexed":false,"internalType":"string"},{"name":"suspendedBy","type":"address","indexed":true,"internalType":"address"},{"name":"timestamp","type":"uint256","indexed":false,"internalType":"uint256"}],"anonymous":false},{"type":"event","name":"OwnershipTransferred","inputs":[{"name":"previousOwner","type":"address","indexed":true,"internalType":"address"},{"name":"newOwner","type":"address","indexed":true,"internalType":"address"}],"anonymous":false},{"type":"event","name":"RoleAssigned","inputs":[{"name":"memberGIC","type":"string","indexed":true,"internalType":"string"},{"name":"role","type":"uint256","indexed":false,"internalType":"uint256"},{"name":"assignedBy","type":"address","indexed":true,"internalType":"address"},{"name":"timestamp","type":"uint256","indexed":false,"internalType":"uint256"}],"anonymous":false},{"type":"event","name":"RoleRevoked","inputs":[{"name":"memberGIC","type":"string","indexed":true,"internalType":"string"},{"name":"role","type":"uint256","indexed":false,"internalType":"uint256"},{"name":"revokedBy","type":"address","indexed":true,"internalType":"address"},{"name":"timestamp","type":"uint256","indexed":false,"internalType":"uint256"}],"anonymous":false},{"type":"event","name":"UserLinkedToMember","inputs":[{"name":"userId","type":"string","indexed":true,"internalType":"string"},{"name":"memberGIC","type":"string","indexed":true,"internalType":"string"},{"name":"linkedBy","type":"address","indexed":true,"internalType":"address"},{"name":"timestamp","type":"uint256","indexed":false,"internalType":"uint256"}],"anonymous":false},{"type":"event","name":"UserRegistered","inputs":[{"name":"userId","type":"string","indexed":true,"internalType":"string"},{"name":"userHash","type":"bytes32","indexed":false,"internalType":"bytes32"},{"name":"registeredBy","type":"address","indexed":true,"internalType":"address"},{"name":"timestamp","type":"uint256","indexed":false,"internalType":"uint256"}],"anonymous":false},{"type":"error","name":"OwnableInvalidOwner","inputs":[{"name":"owner","type":"address","internalType":"address"}]},{"type":"error","name":"OwnableUnauthorizedAccount","inputs":[{"name":"account","type":"address","internalType":"address"}]}],"bytecode":{"object":"0x608060409080825234620003575733156200034257505f8054336001600160a01b0319821681178355916001600160a01b03909116907f8be0079c531659141344cd1fd0a4f28419497f9722a3daafe3b4186f6b6457e09080a380516001600160401b039190610100810183811182821017620002645761014082019080821085831117620002645760289184526008815267504c4154464f524d60c01b90816101208501528352600260208401526001848401524260608401524260808401527f3cb058642d3f17bc460bdd6eab42c21564f6b5228beab6a905a2eb32727c49d160a08401526101ff60c08401523360e084015283519081526001600882015220815193845190811162000264576200011a82546200035b565b601f811162000302575b506020601f8211600114620002985781929394955f926200028c575b50508160011b915f199060031b1c19161781555b602082015190600181016003831015620002785780549285850151936004851015620002785760ff61ff0060069660081b1692169061ffff191617179055606083015160028201556080830151600382015560a0830151600482015560c08301516005820155019060e060018060a01b039101511660018060a01b03198254161790556006546801000000000000000081101562000264576001810180600655811015620002505760065f526200022d907ff652222313e28459528d920b65115c16c04f3efc82aaedc97be59f3f377c0d3f01620003ae565b335f52600360205262000242815f20620003ae565b516128ef90816200040e8239f35b634e487b7160e01b5f52603260045260245ffd5b634e487b7160e01b5f52604160045260245ffd5b634e487b7160e01b5f52602160045260245ffd5b015190505f8062000140565b825f5260205f20905f5b601f1984168110620002e9575060019394959683601f19811610620002d0575b505050811b01815562000154565b01515f1960f88460031b161c191690555f8080620002c2565b9091602060018192858b015181550193019101620002a2565b6200033090835f5260205f20601f840160051c8101916020851062000337575b601f0160051c019062000396565b5f62000124565b909150819062000322565b631e4fbdf760e01b81525f6004820152602490fd5b5f80fd5b90600182811c921680156200038b575b60208310146200037757565b634e487b7160e01b5f52602260045260245ffd5b91607f16916200036b565b818110620003a2575050565b5f815560010162000396565b620003ba81546200035b565b601f8111620003ea575b507f504c4154464f524d0000000000000000000000000000000000000000000000109055565b6200040690825f52601f60205f20910160051c81019062000396565b5f620003c456fe604060808152600480361015610013575f80fd5b60e05f35811c918263044187901461197357826307e9c88314611901578263085ba0741461174857826309772f8f1461172a5782631ab9427a146116b05782632b3fafb21461165e5782633b8cd7dc1461159d57826344337ea1146115135782634dec2c5c14611302578263537df3b61461127c578263689e1c03146111cf578263689f2ed21461106b57826368ae556314610ff75782636957a0b214610f1a578263715018a614610ec35782637221558d14610ea05782637c0f888214610e785782638cbdcead14610e475782638da5cb5b14610e205782638e690fc514610d7557826393a0208214610d3c5782639f4216e814610ceb578263a4a1e26314610ccd578263a9d23d4614610c4b578263b307fc6d14610bfa578263b5ffbbcc14610bac578263cd77022c146107ef578263d01dd6d214610758578263d10a9f6814610649578263d6e9f495146104d6578263dbac26e9146104b1578263e106c71a1461040e578263f2fde38b14610386578263fe1d3fd2146101df57505063fe575a87146101a0575f80fd5b346101db5760203660031901126101db576020906001600160a01b036101c4611c4b565b165f526005825260ff815f20541690519015158152f35b5f80fd5b909150346101db576020806003193601126101db5781356001600160401b0381116101db576102119036908401611b4c565b83855161021d81611ad9565b606081528381015f90528681015f9052606081015f9052608081015f905260a081015f905260c081015f9052015f905281855191805192828181840195610265818389611be7565b8101600181520301902060020154151561027e90611de7565b86518093819251809261029092611be7565b810160018152030190208451936102a685611ad9565b6102af82611c99565b855260018201549060ff821694848701956102c981611c2d565b86528787019260081c60ff166102df9084612063565b60028401549060608801918252600385015490608089019182528501549060a0890191825260058601549260c08a01938452600160a01b600190036006819801541695858b019687528b519b8c9b8a8d52518c6101009b8c9101526101208d0161034891611c08565b9a519061035482611c2d565b8c01525160608b0161036591611d3b565b5160808a01525160a08901525160c088015251908601525116908301520390f35b8390346101db5760203660031901126101db576103a1611c4b565b906103aa61288e565b6001600160a01b039182169283156103f85750505f54826001600160601b0360a01b8216175f55167f8be0079c531659141344cd1fd0a4f28419497f9722a3daafe3b4186f6b6457e05f80a3005b905f6024925191631e4fbdf760e01b8352820152fd5b83346101db5760203660031901126101db5781356001600160401b0381116101db576104946020809461044660039436908301611b4c565b6104576104523361222d565b611fcf565b61048486519282519385818186019661047181838a611be7565b8101600281520301902001541515611da5565b8551938492839251928391611be7565b8101600281520301902001600260ff198254161790555160018152f35b83346101db5760203660031901126101db576020906001600160a01b036101c4611c4b565b8390346101db57602091826003193601126101db5781356001600160401b0381116101db576105089036908401611b4c565b6105146104523361222d565b81519281519061054660028785019361052e818987611be7565b87019688816001998a81520301902001541515611de7565b60ff8585518881875161055a81838a611be7565b810184815203019020015460081c1681811015610636576105fe5750906105b860036105cd9386865189818751610592818388611be7565b8101848152030190200161010061ff001982541617905585519283918551928391611be7565b82019186835287814294030190200155611f3e565b8151904282527fd55f84792db67b05a3c97deae9d02dc26d461105199f24852fd5468b7e68d1f2853393a351908152f35b835162461bcd60e51b815290810186905260126024820152714d656d626572206e6f742070656e64696e6760701b6044820152606490fd5b602182634e487b7160e01b5f525260245ffd5b8390346101db57816003193601126101db5780356001600160401b0381116101db576106789036908301611b4c565b6024356001600160a01b0381169391908490036101db5761069b6104523361222d565b8260056106d9845184516106be602098838a8095818b0195610471818389611be7565b6106c9891515612025565b8651809381928851928391611be7565b8101600281520301902001948554600160401b81101561074557600181018088558110156107325761072b9495965f52865f2001816001600160601b0360a01b8254161790555f528452825f20611e41565b5160018152f35b603283634e487b7160e01b5f525260245ffd5b604183634e487b7160e01b5f525260245ffd5b83346101db57806003193601126101db57610771611c4b565b906024358015158091036101db5760209261078e6104523361222d565b6001600160a01b03166107a2811515612025565b805f5260058452825f2060ff1981541660ff8416179055825191825242848301527f2f7bcdf291adfd1f1f04cce8125f41c59b3d5d0ac85b5493671abdd836b7298e833393a35160018152f35b9083346101db5760a03660031901126101db5782356001600160401b0381116101db5761081f9036908501611b4c565b602490813560038110156101db576001600160a01b039560643587811691908290036101db57608435946108556104523361222d565b335f5260209860058a5261086f60ff895f20541615611f8e565b835f5260058a5260ff885f205416610b74578751809960028c6108988a5180928c019586611be7565b8c019b8d8160019e8f8152030190200154610b3a57875115610b03578515610aca5790888693928b8a8f8f908c918451976108d289611ad9565b848952828901936108e281611c2d565b84528589019282845260608a019542875260808b019742895260a08c01996044358b5260c08d019b8c528c019d8e52518093819251809261092292611be7565b81018481520301902097516109379089611e41565b870191519061094582611c2d565b61094e82611c2d565b825490518c811015610ab8579060ff61ff0060069a9998979695949360081b1692169061ffff1916171790555160028501555160038401555187830155516005820155019151166001600160601b0360a01b82541617905560065491600160401b831015610aa75788830180600655831015610a96575050836109f69160065f527ff652222313e28459528d920b65115c16c04f3efc82aaedc97be59f3f377c0d3f01611e41565b5f5260038652610a0882855f20611e41565b610a1182611f3e565b845191610a1d81611c2d565b825242878301527ffb2ee55cc7746e44f71c8e4259b4e371165b20aa33a9db5c4258ab6eb4141f65853393a381610a57575b505051908152f35b610a6090611f3e565b825191825242858301527f930f876b0eafb77683945f6848f7ecb44e5a72acae7446143261ee11feb45d28833393a38380610a4f565b603290634e487b7160e01b5f52525ffd5b604190634e487b7160e01b5f52525ffd5b8b60218e634e487b7160e01b5f52525ffd5b895162461bcd60e51b81528086018d905260148186015273496e76616c69642075736572206164647265737360601b6044820152606490fd5b895162461bcd60e51b81528086018d905260128186015271496e76616c6964206d656d6265722047494360701b6044820152606490fd5b895162461bcd60e51b81528086018d9052601581860152744d656d62657220616c72656164792065786973747360581b6044820152606490fd5b875162461bcd60e51b81528084018b9052601381840152721059191c995cdcc8189b1858dadb1a5cdd1959606a1b6044820152606490fd5b83346101db5760203660031901126101db57610bf6916001600160a01b03610bd2611c4b565b165f52602052610be3815f20611c99565b9051918291602083526020830190611c08565b0390f35b8390346101db5760203660031901126101db5735906006548210156101db57610be3610bf69260065f527ff652222313e28459528d920b65115c16c04f3efc82aaedc97be59f3f377c0d3f01611c99565b83346101db57806003193601126101db57610c64611c4b565b91602435926001600160401b0384116101db57610c8961072b92602095369101611b4c565b5f5490916001600160a01b0391821633148015610cb9575b610caa90611fcf565b165f5260038452825f20611e41565b50610caa610cc63361222d565b9050610ca1565b83346101db575f3660031901126101db576020906007549051908152f35b8390346101db5760203660031901126101db5735906007548210156101db57610be3610bf69260075f527fa66cc928b5edb82af9bd49922954155ab7b0942694bea4ce44661d9a8736c68801611c99565b83346101db5760203660031901126101db57610bf6906001600160a01b03610d62611c4b565b165f526003602052610be3815f20611c99565b83346101db5760203660031901126101db5781356001600160401b0381116101db576001610deb6020610dad60ff9436908801611b4c565b855190610ddb6002825193858181860196610dc981838a611be7565b81018a81520301902001541515611de7565b8651938492839251928391611be7565b810184815203019020015460081c169082821015610e0d576020925051908152f35b602183634e487b7160e01b5f525260245ffd5b83346101db575f3660031901126101db575f5490516001600160a01b039091168152602090f35b83346101db57806003193601126101db57602090610e6f610e66611c4b565b6024359061245c565b90519015158152f35b83346101db57806003193601126101db57602090610e6f610e97611c4b565b6024359061214b565b83346101db575f3660031901126101db57602090610ebc61206f565b9051908152f35b346101db575f3660031901126101db57610edb61288e565b5f80546001600160a01b0319811682556001600160a01b03167f8be0079c531659141344cd1fd0a4f28419497f9722a3daafe3b4186f6b6457e08280a3005b909150346101db5760203660031901126101db578035926001600160401b0384116101db57610f666020610f54610fc19636908601611b4c565b81845193828580945193849201611be7565b8101600181520301902092610f7a84611c99565b93600181015460ff8116946002830154610fdc6003850154928501549360ff600587015496600660018060a01b03910154169880519c8d9c8d610100908181520190611c08565b9a610fcb81611c2d565b60208d01528b019160081c16611d3b565b6060880152608087015260a086015260c08501528301520390f35b83346101db57806003193601126101db578135916001600160401b0383116101db5761102b610e6f91602094369101611b4c565b61103c6110373361236b565b611d48565b335f526005845261105360ff845f20541615611f8e565b82519061105f82611af5565b5f825260243590612516565b83346101db5761107a36611ba1565b6110896104529392933361222d565b81519280516020956110bd6002888501936110a5818a87611be7565b880197898160019a8b81520301902001541515611de7565b60ff868651898187516110d181838a611be7565b810184815203019020015460081c16818110156106365760021461118c5750906111326003611147938787518a81875161110c818388611be7565b8101848152030190200161020061ff001982541617905586519283918551928391611be7565b82019187835288814294030190200155611f3e565b7f0f79bf17bbb40c7f3964d874d86d8db800f84ee36d6bb1af59f1d009b8fae8a461117a84519385855285850190611c08565b9242878201528033940390a351908152f35b845162461bcd60e51b8152908101879052601860248201527f4d656d62657220616c72656164792073757370656e64656400000000000000006044820152606490fd5b8390346101db5760203660031901126101db578035916001600160401b0383116101db576112086020610f546112529536908601611b4c565b810160028152030190209061126461121f83611c99565b9360018401549061123260028601611c99565b9060ff60038701541695015493805197889760a0895260a0890190611c08565b92602088015286830390870152611c08565b9161126e81611c2d565b606084015260808301520390f35b83346101db5760203660031901126101db57602090611299611c4b565b6112a56104523361222d565b6001600160a01b03166112b9811515612025565b805f5260058352815f2060ff1981541690558151905f825242848301527f2f7bcdf291adfd1f1f04cce8125f41c59b3d5d0ac85b5493671abdd836b7298e833393a35160018152f35b83346101db5760603660031901126101db5781356001600160401b0381116101db576113319036908401611b4c565b90602435916044359081151582036101db5761134f6104523361222d565b82519381519260209661138460028986019661136c818b8a611be7565b8901988a8160019b8c81520301902001541515611de7565b82156114e15760ff8787518a81885161139e81838d611be7565b810184815203019020015460081c16818110156106365787036114aa57506003929190156114495760058551888185516113d981838b611be7565b81018a815203019020018181541790556113f282611f3e565b855191825242888301527f930f876b0eafb77683945f6848f7ecb44e5a72acae7446143261ee11feb45d28863393a35b611433845193849251928391611be7565b8201918483528581429403019020015551908152f35b600585518881855161145c81838b611be7565b81018a815203019020018119815416905561147682611f3e565b855191825242888301527fea93182b272f835992ec4d598531773bc30c72c6e045d6a22b583ac43f9d20c4863393a3611422565b855162461bcd60e51b815290810188905260116024820152704d656d626572206e6f742061637469766560781b6044820152606490fd5b855162461bcd60e51b8152908101889052600c60248201526b496e76616c696420726f6c6560a01b6044820152606490fd5b83346101db5760203660031901126101db57602090611530611c4b565b61153c6104523361222d565b6001600160a01b0316611550811515612025565b805f5260058352815f20600160ff198254161790558151906001825242848301527f2f7bcdf291adfd1f1f04cce8125f41c59b3d5d0ac85b5493671abdd836b7298e833393a35160018152f35b83346101db57602091826003193601126101db578035906001600160401b0382116101db576115ce91369101611b4c565b6115da6104523361222d565b600382519161160b60028251948781818601976115f881838b611be7565b8101600181520301902001541515611de7565b600184518681845161161e81838a611be7565b8101848152030190200161030061ff0019825416179055611646845193849251928391611be7565b82019160018352848142940301902001555160018152f35b83346101db5760203660031901126101db5781356001600160401b0381116101db576116966020809461044660039436908301611b4c565b810160028152030190200160ff1981541690555160018152f35b83346101db5760603660031901126101db576001600160401b039180358381116101db576116e19036908301611b4c565b6044359384116101db576116fd610e6f92602095369101611b4c565b9061170a6110373361236b565b335f526005855261172160ff855f20541615611f8e565b60243590612516565b83346101db575f3660031901126101db576020906006549051908152f35b9083346101db57602092836003193601126101db5780356001600160401b0381116101db5790846117b581611781879536908601611b4c565b611789611f5e565b508651906117a58682519385818186019661047181838a611be7565b8751938492839251928391611be7565b81016002815203019020918451936117cc85611aaa565b6117d584611c99565b85526001936001810154968487019788526117f260028301611c99565b90808801918252600560ff6003850154169560608a019661181281611c2d565b87528401549360808a019485520193815194858882549182815201915f52885f20905f5b8181106118e55750505061188d93929161185587611872930388611b2b565b60a08b0196875282519a898c52519060c08a8d01528b0190611c08565b9951908901525197601f1998898983030160608a0152611c08565b925161189881611c2d565b60808701525160a086015251948482030160c08501528180865192838152019501915f5b8281106118c95785870386f35b83516001600160a01b03168752958101959281019284016118bc565b82546001600160a01b03168452928a0192918b01918b01611836565b83346101db5760203660031901126101db578135916001600160401b0383116101db576003611956602060ff9361193c829736908301611b4c565b610ddb87519282519385818186019661047181838a611be7565b810160028152030190200154169061196d82611c2d565b51908152f35b83346101db5761198236611ba1565b9061198f6110373361236b565b825181516020956119c181888601936119a9818787611be7565b85019489816002978881520301902001541515611da5565b6119da8387518981816115f88b83815193849201611be7565b6119ff838751898188516119ef81838a611be7565b8101848152030190200154611c61565b611a71575091611a3484611a3993611a2589611a3f978a51809381928951928391611be7565b81018481520301902001611e41565b611f3e565b91611f3e565b8251914283527fd1b268239537a25c14e2eac10da2a119aa3cf3961279b9a7a08d88ce228fae9f853394a45160018152f35b855162461bcd60e51b81529081018790526013602482015272155cd95c88185b1c9958591e481b1a5b9ad959606a1b6044820152606490fd5b60c081019081106001600160401b03821117611ac557604052565b634e487b7160e01b5f52604160045260245ffd5b61010081019081106001600160401b03821117611ac557604052565b602081019081106001600160401b03821117611ac557604052565b604081019081106001600160401b03821117611ac557604052565b90601f801991011681019081106001600160401b03821117611ac557604052565b81601f820112156101db578035906001600160401b038211611ac55760405192611b80601f8401601f191660200185611b2b565b828452602083830101116101db57815f926020809301838601378301015290565b9060406003198301126101db576001600160401b036004358181116101db5783611bcd91600401611b4c565b926024359182116101db57611be491600401611b4c565b90565b5f5b838110611bf85750505f910152565b8181015183820152602001611be9565b90602091611c2181518092818552858086019101611be7565b601f01601f1916010190565b60031115611c3757565b634e487b7160e01b5f52602160045260245ffd5b600435906001600160a01b03821682036101db57565b90600182811c92168015611c8f575b6020831014611c7b57565b634e487b7160e01b5f52602260045260245ffd5b91607f1691611c70565b9060405191825f8254611cab81611c61565b908184526020946001916001811690815f14611d195750600114611cdb575b505050611cd992500383611b2b565b565b5f90815285812095935091905b818310611d01575050611cd993508201015f8080611cca565b85548884018501529485019487945091830191611ce8565b92505050611cd994925060ff191682840152151560051b8201015f8080611cca565b906004821015611c375752565b15611d4f57565b60405162461bcd60e51b815260206004820152602860248201527f4e6f7420617574686f72697a65643a20757365722061646d696e20726f6c65206044820152671c995c5d5a5c995960c21b6064820152608490fd5b15611dac57565b60405162461bcd60e51b8152602060048201526013602482015272155cd95c88191bd95cc81b9bdd08195e1a5cdd606a1b6044820152606490fd5b15611dee57565b60405162461bcd60e51b815260206004820152601560248201527413595b58995c88191bd95cc81b9bdd08195e1a5cdd605a1b6044820152606490fd5b818110611e36575050565b5f8155600101611e2b565b91909182516001600160401b038111611ac557611e5e8254611c61565b601f8111611f03575b50602080601f8311600114611ea25750819293945f92611e97575b50508160011b915f199060031b1c1916179055565b015190505f80611e82565b90601f19831695845f5260205f20925f905b888210611eeb57505083600195969710611ed3575b505050811b019055565b01515f1960f88460031b161c191690555f8080611ec9565b80600185968294968601518155019501930190611eb4565b611f2e90835f5260205f20601f840160051c81019160208510611f34575b601f0160051c0190611e2b565b5f611e67565b9091508190611f21565b611f5690602060405192828480945193849201611be7565b810103902090565b60405190611f6b82611aaa565b606060a0838281525f60208201528260408201525f838201525f60808201520152565b15611f9557565b60405162461bcd60e51b815260206004820152601260248201527110d85b1b195c88189b1858dadb1a5cdd195960721b6044820152606490fd5b15611fd657565b60405162461bcd60e51b815260206004820152602160248201527f4e6f7420617574686f72697a65643a20474d4f20726f6c6520726571756972656044820152601960fa1b6064820152608490fd5b1561202c57565b60405162461bcd60e51b815260206004820152600f60248201526e496e76616c6964206164647265737360881b6044820152606490fd5b6004821015611c375752565b335f52600360205261208360405f20611c99565b8051801561214557602091816120a184936040518096819501611be7565b810160018152030190206040516120b781611ad9565b6120c082611c99565b815260018201549060ff82166120d581611c2d565b60208201526120ee60ff604083019360081c1683612063565b6002830154606082015260038301546080820152600483015460a082015260e060058401549360c08301948552600660018060a01b0391015416910152516004811015611c3757600103612140575190565b505f90565b50505f90565b6001600160a01b039081165f90815260036020526040902061216c90611c99565b80518015612225576020918161218a84936040518096819501611be7565b81016001815203019020906040516121a181611ad9565b6121aa83611c99565b815260e060018401549260ff84166121c181611c2d565b60208401526121da60ff604085019560081c1685612063565b6002850154606084015260038501546080840152600485015460a0840152600660058601549560c08501968752015416910152516004811015611c3757600103612145575116151590565b505050505f90565b60018060a01b038091165f52602060038152604061224c815f20611c99565b805180156123625782518481019061227b86828187019561226e818789611be7565b8101038084520182611b2b565b51902083518581019069474f5645524e414e434560b01b8252600a81526122a181611b10565b5190201461235857836122c19160e0938551938492839251928391611be7565b810160018152030190209361230b60ff8451946122dd86611ad9565b6122e688611c99565b8652600188015496828816906122fb82611c2d565b87015285019560081c1685612063565b6002850154606084015260038501546080840152600485015460a0840152600660058601549560c08501968752015416910152516004811015611c3757600103612140575160c016151590565b5050505050600190565b50505050505f90565b60018060a01b038091165f52602060038152604061238a815f20611c99565b80518015612362578251848101906123ac86828187019561226e818789611be7565b51902083518581019069474f5645524e414e434560b01b8252600a81526123d281611b10565b5190201461235857836123f29160e0938551938492839251928391611be7565b810160018152030190209361240e60ff8451946122dd86611ad9565b6002850154606084015260038501546080840152600485015460a0840152600660058601549560c08501968752015416910152516004811015611c375760010361214057516101df16151590565b60018060a01b038091165f52602060038152604061247b815f20611c99565b8051801561250c5782518481019061249d86828187019561226e818789611be7565b51902083518581019069474f5645524e414e434560b01b8252600a81526124c381611b10565b519020146124ff57836124e39160e0938551938492839251928391611be7565b81016001815203019020936121da60ff8451946122dd86611ad9565b5050505050608016151590565b5050505050505f90565b9190916040908151815160209485840191612532818585611be7565b830160028152838760049586930301902001546128555783511561282057845161255b81611af5565b5f8152612566611f5e565b5081518790156127dd575060028651888185516125868183858a01611be7565b8101600181520301902001541561279a576125d79187918751916125a983611aaa565b8783528a84840152888301525f606083015242608083015260a0820152928651809381928851928391611be7565b810160028152030190206125ec825182611e41565b60a0600560019288850151600182015561260c8886015160028301611e41565b60038101606086015161261e81611c2d565b61262781611c2d565b60ff8019835416911617905560808501518682015501920151918251906001600160401b03821161278757600160401b938483116127745788908254848455808510612759575b5001905f52875f205f5b83811061273f5750505050506007549081101561272c5760018101806007558110156127195791612706916126f5827fb13e9e763d8d60b28baaaac2eb3689b9862490eceeb8d72e090d827285def066969560075f527fa66cc928b5edb82af9bd49922954155ab7b0942694bea4ce44661d9a8736c68801611e41565b335f528552611a3481845f20611e41565b92815194855242908501523393a3600190565b603282634e487b7160e01b5f525260245ffd5b604182634e487b7160e01b5f525260245ffd5b82516001600160a01b031682820155918901918401612678565b61276e90845f5285845f209182019101611e2b565b5f61266e565b604186634e487b7160e01b5f525260245ffd5b604185634e487b7160e01b5f525260245ffd5b855162461bcd60e51b8152808501889052601c60248201527f4c696e6b6564206d656d62657220646f6573206e6f74206578697374000000006044820152606490fd5b906125d792508651906127ef82611aaa565b8682528983830152875161280281611af5565b5f8152888301525f606083015242608083015260a0820152926106c9565b845162461bcd60e51b8152808401879052600f60248201526e125b9d985b1a59081d5cd95c881251608a1b6044820152606490fd5b845162461bcd60e51b815280840187905260136024820152725573657220616c72656164792065786973747360681b6044820152606490fd5b5f546001600160a01b031633036128a157565b60405163118cdaa760e01b8152336004820152602490fdfea264697066735822122028018ac3c22eee9286fecbe45c8ecdc2c9fd94aaae8f15a627e7a4234f958a0364736f6c63430008180033","linkReferences":{}},"methodIdentifiers":{"activateUser(string)":"2b3fafb2","addToBlacklist(address)":"44337ea1","addUserAdminAddress(string,address)":"d10a9f68","addressToMemberGIC(address)":"93a02082","addressToUserId(address)":"b5ffbbcc","approveMember(string)":"d6e9f495","blacklisted(address)":"dbac26e9","getMemberDetails(string)":"fe1d3fd2","getMemberStatus(string)":"8e690fc5","getMembersCount()":"09772f8f","getMyRoles()":"7221558d","getUserDetails(string)":"085ba074","getUserStatus(string)":"07e9c883","getUsersCount()":"a4a1e263","isBlacklisted(address)":"fe575a87","isMemberInRole(address,uint256)":"8cbdcead","linkAddressToMember(address,string)":"a9d23d46","linkUserToMember(string,string)":"04418790","memberList(uint256)":"b307fc6d","members(string)":"6957a0b2","owner()":"8da5cb5b","registerMember(string,uint8,bytes32,address,uint256)":"cd77022c","registerUser(string,bytes32)":"68ae5563","registerUser(string,bytes32,string)":"1ab9427a","removeFromBlacklist(address)":"537df3b6","renounceOwnership()":"715018a6","setBlacklisted(address,bool)":"d01dd6d2","setRole(string,uint256,bool)":"4dec2c5c","suspendMember(string,string)":"689f2ed2","suspendUser(string)":"e106c71a","terminateMember(string)":"3b8cd7dc","transferOwnership(address)":"f2fde38b","userList(uint256)":"9f4216e8","users(string)":"689e1c03","validatePermission(address,uint256)":"7c0f8882"},"id":8}