{"abi":[{"type":"constructor","inputs":[],"stateMutability":"nonpayable"},{"type":"function","name":"activateUser","inputs":[{"name":"userId","type":"string","internalType":"string"}],"outputs":[{"name":"","type":"bool","internalType":"bool"}],"stateMutability":"nonpayable"},{"type":"function","name":"addUserAdminAddress","inputs":[{"name":"userId","type":"string","internalType":"string"},{"name":"adminAddress","type":"address","internalType":"address"}],"outputs":[{"name":"","type":"bool","internalType":"bool"}],"stateMutability":"nonpayable"},{"type":"function","name":"addressToMemberGIC","inputs":[{"name":"","type":"address","internalType":"address"}],"outputs":[{"name":"","type":"string","internalType":"string"}],"stateMutability":"view"},{"type":"function","name":"addressToUserId","inputs":[{"name":"","type":"address","internalType":"address"}],"outputs":[{"name":"","type":"string","internalType":"string"}],"stateMutability":"view"},{"type":"function","name":"approveMember","inputs":[{"name":"memberGIC","type":"string","internalType":"string"}],"outputs":[{"name":"","type":"bool","internalType":"bool"}],"stateMutability":"nonpayable"},{"type":"function","name":"assignRole","inputs":[{"name":"memberGIC","type":"string","internalType":"string"},{"name":"role","type":"uint256","internalType":"uint256"}],"outputs":[{"name":"","type":"bool","internalType":"bool"}],"stateMutability":"nonpayable"},{"type":"function","name":"getMemberDetails","inputs":[{"name":"memberGIC","type":"string","internalType":"string"}],"outputs":[{"name":"","type":"tuple","internalType":"struct MemberRegistry.Member","components":[{"name":"memberGIC","type":"string","internalType":"string"},{"name":"entityName","type":"string","internalType":"string"},{"name":"country","type":"string","internalType":"string"},{"name":"memberType","type":"uint8","internalType":"enum MemberRegistry.MemberType"},{"name":"status","type":"uint8","internalType":"enum MemberRegistry.MemberStatus"},{"name":"createdAt","type":"uint256","internalType":"uint256"},{"name":"updatedAt","type":"uint256","internalType":"uint256"},{"name":"memberHash","type":"bytes32","internalType":"bytes32"},{"name":"roles","type":"uint256","internalType":"uint256"}]}],"stateMutability":"view"},{"type":"function","name":"getMemberStatus","inputs":[{"name":"memberGIC","type":"string","internalType":"string"}],"outputs":[{"name":"","type":"uint8","internalType":"uint8"}],"stateMutability":"view"},{"type":"function","name":"getMembersCount","inputs":[],"outputs":[{"name":"","type":"uint256","internalType":"uint256"}],"stateMutability":"view"},{"type":"function","name":"getUserDetails","inputs":[{"name":"userId","type":"string","internalType":"string"}],"outputs":[{"name":"","type":"tuple","internalType":"struct MemberRegistry.User","components":[{"name":"userId","type":"string","internalType":"string"},{"name":"userHash","type":"bytes32","internalType":"bytes32"},{"name":"linkedMemberGIC","type":"string","internalType":"string"},{"name":"status","type":"uint8","internalType":"enum MemberRegistry.UserStatus"},{"name":"createdAt","type":"uint256","internalType":"uint256"},{"name":"adminAddresses","type":"address[]","internalType":"address[]"}]}],"stateMutability":"view"},{"type":"function","name":"getUserStatus","inputs":[{"name":"userId","type":"string","internalType":"string"}],"outputs":[{"name":"","type":"uint8","internalType":"uint8"}],"stateMutability":"view"},{"type":"function","name":"getUsersCount","inputs":[],"outputs":[{"name":"","type":"uint256","internalType":"uint256"}],"stateMutability":"view"},{"type":"function","name":"isMemberInRole","inputs":[{"name":"member","type":"address","internalType":"address"},{"name":"role","type":"uint256","internalType":"uint256"}],"outputs":[{"name":"","type":"bool","internalType":"bool"}],"stateMutability":"view"},{"type":"function","name":"linkAddressToMember","inputs":[{"name":"addr","type":"address","internalType":"address"},{"name":"memberGIC","type":"string","internalType":"string"}],"outputs":[{"name":"","type":"bool","internalType":"bool"}],"stateMutability":"nonpayable"},{"type":"function","name":"linkUserToMember","inputs":[{"name":"userId","type":"string","internalType":"string"},{"name":"memberGIC","type":"string","internalType":"string"}],"outputs":[{"name":"","type":"bool","internalType":"bool"}],"stateMutability":"nonpayable"},{"type":"function","name":"memberList","inputs":[{"name":"","type":"uint256","internalType":"uint256"}],"outputs":[{"name":"","type":"string","internalType":"string"}],"stateMutability":"view"},{"type":"function","name":"members","inputs":[{"name":"","type":"string","internalType":"string"}],"outputs":[{"name":"memberGIC","type":"string","internalType":"string"},{"name":"entityName","type":"string","internalType":"string"},{"name":"country","type":"string","internalType":"string"},{"name":"memberType","type":"uint8","internalType":"enum MemberRegistry.MemberType"},{"name":"status","type":"uint8","internalType":"enum MemberRegistry.MemberStatus"},{"name":"createdAt","type":"uint256","internalType":"uint256"},{"name":"updatedAt","type":"uint256","internalType":"uint256"},{"name":"memberHash","type":"bytes32","internalType":"bytes32"},{"name":"roles","type":"uint256","internalType":"uint256"}],"stateMutability":"view"},{"type":"function","name":"owner","inputs":[],"outputs":[{"name":"","type":"address","internalType":"address"}],"stateMutability":"view"},{"type":"function","name":"registerMember","inputs":[{"name":"memberGIC","type":"string","internalType":"string"},{"name":"entityName","type":"string","internalType":"string"},{"name":"country","type":"string","internalType":"string"},{"name":"memberType","type":"uint8","internalType":"enum MemberRegistry.MemberType"},{"name":"memberHash","type":"bytes32","internalType":"bytes32"}],"outputs":[{"name":"","type":"bool","internalType":"bool"}],"stateMutability":"nonpayable"},{"type":"function","name":"registerUser","inputs":[{"name":"userId","type":"string","internalType":"string"},{"name":"userHash","type":"bytes32","internalType":"bytes32"}],"outputs":[{"name":"","type":"bool","internalType":"bool"}],"stateMutability":"nonpayable"},{"type":"function","name":"renounceOwnership","inputs":[],"outputs":[],"stateMutability":"nonpayable"},{"type":"function","name":"revokeRole","inputs":[{"name":"memberGIC","type":"string","internalType":"string"},{"name":"role","type":"uint256","internalType":"uint256"}],"outputs":[{"name":"","type":"bool","internalType":"bool"}],"stateMutability":"nonpayable"},{"type":"function","name":"suspendMember","inputs":[{"name":"memberGIC","type":"string","internalType":"string"},{"name":"reason","type":"string","internalType":"string"}],"outputs":[{"name":"","type":"bool","internalType":"bool"}],"stateMutability":"nonpayable"},{"type":"function","name":"suspendUser","inputs":[{"name":"userId","type":"string","internalType":"string"}],"outputs":[{"name":"","type":"bool","internalType":"bool"}],"stateMutability":"nonpayable"},{"type":"function","name":"terminateMember","inputs":[{"name":"memberGIC","type":"string","internalType":"string"}],"outputs":[{"name":"","type":"bool","internalType":"bool"}],"stateMutability":"nonpayable"},{"type":"function","name":"transferOwnership","inputs":[{"name":"newOwner","type":"address","internalType":"address"}],"outputs":[],"stateMutability":"nonpayable"},{"type":"function","name":"userList","inputs":[{"name":"","type":"uint256","internalType":"uint256"}],"outputs":[{"name":"","type":"string","internalType":"string"}],"stateMutability":"view"},{"type":"function","name":"users","inputs":[{"name":"","type":"string","internalType":"string"}],"outputs":[{"name":"userId","type":"string","internalType":"string"},{"name":"userHash","type":"bytes32","internalType":"bytes32"},{"name":"linkedMemberGIC","type":"string","internalType":"string"},{"name":"status","type":"uint8","internalType":"enum MemberRegistry.UserStatus"},{"name":"createdAt","type":"uint256","internalType":"uint256"}],"stateMutability":"view"},{"type":"function","name":"validatePermission","inputs":[{"name":"member","type":"address","internalType":"address"},{"name":"role","type":"uint256","internalType":"uint256"}],"outputs":[{"name":"","type":"bool","internalType":"bool"}],"stateMutability":"view"},{"type":"event","name":"MemberApproved","inputs":[{"name":"memberGIC","type":"string","indexed":true,"internalType":"string"},{"name":"approvedBy","type":"address","indexed":true,"internalType":"address"},{"name":"timestamp","type":"uint256","indexed":false,"internalType":"uint256"}],"anonymous":false},{"type":"event","name":"MemberRegistered","inputs":[{"name":"memberGIC","type":"string","indexed":true,"internalType":"string"},{"name":"memberType","type":"uint8","indexed":false,"internalType":"enum MemberRegistry.MemberType"},{"name":"registeredBy","type":"address","indexed":true,"internalType":"address"},{"name":"timestamp","type":"uint256","indexed":false,"internalType":"uint256"}],"anonymous":false},{"type":"event","name":"MemberSuspended","inputs":[{"name":"memberGIC","type":"string","indexed":true,"internalType":"string"},{"name":"reason","type":"string","indexed":false,"internalType":"string"},{"name":"suspendedBy","type":"address","indexed":true,"internalType":"address"},{"name":"timestamp","type":"uint256","indexed":false,"internalType":"uint256"}],"anonymous":false},{"type":"event","name":"OwnershipTransferred","inputs":[{"name":"previousOwner","type":"address","indexed":true,"internalType":"address"},{"name":"newOwner","type":"address","indexed":true,"internalType":"address"}],"anonymous":false},{"type":"event","name":"RoleAssigned","inputs":[{"name":"memberGIC","type":"string","indexed":true,"internalType":"string"},{"name":"role","type":"uint256","indexed":false,"internalType":"uint256"},{"name":"assignedBy","type":"address","indexed":true,"internalType":"address"},{"name":"timestamp","type":"uint256","indexed":false,"internalType":"uint256"}],"anonymous":false},{"type":"event","name":"RoleRevoked","inputs":[{"name":"memberGIC","type":"string","indexed":true,"internalType":"string"},{"name":"role","type":"uint256","indexed":false,"internalType":"uint256"},{"name":"revokedBy","type":"address","indexed":true,"internalType":"address"},{"name":"timestamp","type":"uint256","indexed":false,"internalType":"uint256"}],"anonymous":false},{"type":"event","name":"UserLinkedToMember","inputs":[{"name":"userId","type":"string","indexed":true,"internalType":"string"},{"name":"memberGIC","type":"string","indexed":true,"internalType":"string"},{"name":"linkedBy","type":"address","indexed":true,"internalType":"address"},{"name":"timestamp","type":"uint256","indexed":false,"internalType":"uint256"}],"anonymous":false},{"type":"event","name":"UserRegistered","inputs":[{"name":"userId","type":"string","indexed":true,"internalType":"string"},{"name":"userHash","type":"bytes32","indexed":false,"internalType":"bytes32"},{"name":"registeredBy","type":"address","indexed":true,"internalType":"address"},{"name":"timestamp","type":"uint256","indexed":false,"internalType":"uint256"}],"anonymous":false},{"type":"error","name":"OwnableInvalidOwner","inputs":[{"name":"owner","type":"address","internalType":"address"}]},{"type":"error","name":"OwnableUnauthorizedAccount","inputs":[{"name":"account","type":"address","internalType":"address"}]}],"bytecode":{"object":"0x608060405234801562000010575f80fd5b50335f73ffffffffffffffffffffffffffffffffffffffff168173ffffffffffffffffffffffffffffffffffffffff160362000085575f6040517f1e4fbdf70000000000000000000000000000000000000000000000000000000081526004016200007c919062000223565b60405180910390fd5b62000096816200011f60201b60201c565b506040518060400160405280600881526020017f504c4154464f524d00000000000000000000000000000000000000000000000081525060035f3373ffffffffffffffffffffffffffffffffffffffff1673ffffffffffffffffffffffffffffffffffffffff1681526020019081526020015f209081620001189190620004a2565b5062000586565b5f805f9054906101000a900473ffffffffffffffffffffffffffffffffffffffff169050815f806101000a81548173ffffffffffffffffffffffffffffffffffffffff021916908373ffffffffffffffffffffffffffffffffffffffff1602179055508173ffffffffffffffffffffffffffffffffffffffff168173ffffffffffffffffffffffffffffffffffffffff167f8be0079c531659141344cd1fd0a4f28419497f9722a3daafe3b4186f6b6457e060405160405180910390a35050565b5f73ffffffffffffffffffffffffffffffffffffffff82169050919050565b5f6200020b82620001e0565b9050919050565b6200021d81620001ff565b82525050565b5f602082019050620002385f83018462000212565b92915050565b5f81519050919050565b7f4e487b71000000000000000000000000000000000000000000000000000000005f52604160045260245ffd5b7f4e487b71000000000000000000000000000000000000000000000000000000005f52602260045260245ffd5b5f6002820490506001821680620002ba57607f821691505b602082108103620002d057620002cf62000275565b5b50919050565b5f819050815f5260205f209050919050565b5f6020601f8301049050919050565b5f82821b905092915050565b5f60088302620003347fffffffffffffffffffffffffffffffffffffffffffffffffffffffffffffffff82620002f7565b620003408683620002f7565b95508019841693508086168417925050509392505050565b5f819050919050565b5f819050919050565b5f6200038a620003846200037e8462000358565b62000361565b62000358565b9050919050565b5f819050919050565b620003a5836200036a565b620003bd620003b48262000391565b84845462000303565b825550505050565b5f90565b620003d3620003c5565b620003e08184846200039a565b505050565b5b818110156200040757620003fb5f82620003c9565b600181019050620003e6565b5050565b601f82111562000456576200042081620002d6565b6200042b84620002e8565b810160208510156200043b578190505b620004536200044a85620002e8565b830182620003e5565b50505b505050565b5f82821c905092915050565b5f620004785f19846008026200045b565b1980831691505092915050565b5f62000492838362000467565b9150826002028217905092915050565b620004ad826200023e565b67ffffffffffffffff811115620004c957620004c862000248565b5b620004d58254620002a2565b620004e28282856200040b565b5f60209050601f83116001811462000518575f841562000503578287015190505b6200050f858262000485565b8655506200057e565b601f1984166200052886620002d6565b5f5b8281101562000551578489015182556001820191506020850194506020810190506200052a565b868310156200057157848901516200056d601f89168262000467565b8355505b6001600288020188555050505b505050505050565b614b6e80620005945f395ff3fe608060405234801561000f575f80fd5b50600436106101cd575f3560e01c80638da5cb5b11610102578063b5ffbbcc116100a0578063e106c71a1161006f578063e106c71a14610631578063f2fde38b14610661578063fe1d3fd21461067d578063ff1484ca146106ad576101cd565b8063b5ffbbcc14610571578063d10a9f68146105a1578063d6e9f495146105d1578063d98e520f14610601576101cd565b80639f4216e8116100dc5780639f4216e8146104c3578063a4a1e263146104f3578063a9d23d4614610511578063b307fc6d14610541576101cd565b80638da5cb5b146104455780638e690fc51461046357806393a0208214610493576101cd565b8063689f2ed21161016f5780636a769c29116101495780636a769c29146103ab578063715018a6146103db5780637c0f8882146103e55780638cbdcead14610415576101cd565b8063689f2ed21461031357806368ae5563146103435780636957a0b214610373576101cd565b806309772f8f116101ab57806309772f8f146102615780632b3fafb21461027f5780633b8cd7dc146102af578063689e1c03146102df576101cd565b806304418790146101d157806307e9c88314610201578063085ba07414610231575b5f80fd5b6101eb60048036038101906101e69190613679565b6106dd565b6040516101f89190613709565b60405180910390f35b61021b60048036038101906102169190613722565b610914565b6040516102289190613784565b60405180910390f35b61024b60048036038101906102469190613722565b6109c1565b6040516102589190613a35565b60405180910390f35b610269610c56565b6040516102769190613a64565b60405180910390f35b61029960048036038101906102949190613722565b610c62565b6040516102a69190613709565b60405180910390f35b6102c960048036038101906102c49190613722565b610d63565b6040516102d69190613709565b60405180910390f35b6102f960048036038101906102f49190613722565b610e8c565b60405161030a959493929190613ae3565b60405180910390f35b61032d60048036038101906103289190613679565b610fee565b60405161033a9190613709565b60405180910390f35b61035d60048036038101906103589190613b6c565b611213565b60405161036a9190613709565b60405180910390f35b61038d60048036038101906103889190613722565b61153b565b6040516103a299989796959493929190613c52565b60405180910390f35b6103c560048036038101906103c09190613d1c565b611748565b6040516103d29190613709565b60405180910390f35b6103e36118bd565b005b6103ff60048036038101906103fa9190613da0565b6118d0565b60405161040c9190613709565b60405180910390f35b61042f600480360381019061042a9190613da0565b611c72565b60405161043c9190613709565b60405180910390f35b61044d6120d4565b60405161045a9190613ded565b60405180910390f35b61047d60048036038101906104789190613722565b6120fb565b60405161048a9190613784565b60405180910390f35b6104ad60048036038101906104a89190613e06565b6121a9565b6040516104ba9190613e31565b60405180910390f35b6104dd60048036038101906104d89190613e51565b612244565b6040516104ea9190613e31565b60405180910390f35b6104fb6122ea565b6040516105089190613a64565b60405180910390f35b61052b60048036038101906105269190613e7c565b6122f6565b6040516105389190613709565b60405180910390f35b61055b60048036038101906105569190613e51565b6123d3565b6040516105689190613e31565b60405180910390f35b61058b60048036038101906105869190613e06565b612479565b6040516105989190613e31565b60405180910390f35b6105bb60048036038101906105b69190613ed6565b612514565b6040516105c89190613709565b60405180910390f35b6105eb60048036038101906105e69190613722565b612706565b6040516105f89190613709565b60405180910390f35b61061b60048036038101906106169190613f53565b612926565b6040516106289190613709565b60405180910390f35b61064b60048036038101906106469190613722565b612c0e565b6040516106589190613709565b60405180910390f35b61067b60048036038101906106769190613e06565b612d0f565b005b61069760048036038101906106929190613722565b612d93565b6040516106a4919061410c565b60405180910390f35b6106c760048036038101906106c29190613d1c565b61307d565b6040516106d49190613709565b60405180910390f35b5f6106e9336040611c72565b610728576040517f08c379a000000000000000000000000000000000000000000000000000000000815260040161071f9061419c565b60405180910390fd5b825f60028260405161073a91906141f4565b9081526020016040518091039020600401540361078c576040517f08c379a000000000000000000000000000000000000000000000000000000000815260040161078390614254565b60405180910390fd5b825f60018260405161079e91906141f4565b908152602001604051809103902060040154036107f0576040517f08c379a00000000000000000000000000000000000000000000000000000000081526004016107e7906142bc565b60405180910390fd5b5f60028660405161080191906141f4565b9081526020016040518091039020600201805461081d90614307565b90501461085f576040517f08c379a000000000000000000000000000000000000000000000000000000000815260040161085690614381565b60405180910390fd5b8360028660405161087091906141f4565b9081526020016040518091039020600201908161088d919061453c565b503373ffffffffffffffffffffffffffffffffffffffff16846040516108b391906141f4565b6040518091039020866040516108c991906141f4565b60405180910390207fd1b268239537a25c14e2eac10da2a119aa3cf3961279b9a7a08d88ce228fae9f426040516109009190613a64565b60405180910390a460019250505092915050565b5f815f60028260405161092791906141f4565b90815260200160405180910390206004015403610979576040517f08c379a000000000000000000000000000000000000000000000000000000000815260040161097090614254565b60405180910390fd5b60028360405161098991906141f4565b90815260200160405180910390206003015f9054906101000a900460ff1660028111156109b9576109b861382f565b5b915050919050565b6109c96133d5565b815f6002826040516109db91906141f4565b90815260200160405180910390206004015403610a2d576040517f08c379a0000000000000000000000000000000000000000000000000000000008152600401610a2490614254565b60405180910390fd5b600283604051610a3d91906141f4565b90815260200160405180910390206040518060c00160405290815f82018054610a6590614307565b80601f0160208091040260200160405190810160405280929190818152602001828054610a9190614307565b8015610adc5780601f10610ab357610100808354040283529160200191610adc565b820191905f5260205f20905b815481529060010190602001808311610abf57829003601f168201915b5050505050815260200160018201548152602001600282018054610aff90614307565b80601f0160208091040260200160405190810160405280929190818152602001828054610b2b90614307565b8015610b765780601f10610b4d57610100808354040283529160200191610b76565b820191905f5260205f20905b815481529060010190602001808311610b5957829003601f168201915b50505050508152602001600382015f9054906101000a900460ff166002811115610ba357610ba261382f565b5b6002811115610bb557610bb461382f565b5b81526020016004820154815260200160058201805480602002602001604051908101604052809291908181526020018280548015610c4557602002820191905f5260205f20905b815f9054906101000a900473ffffffffffffffffffffffffffffffffffffffff1673ffffffffffffffffffffffffffffffffffffffff1681526020019060010190808311610bfc575b505050505081525050915050919050565b5f600580549050905090565b5f610c6e336040611c72565b610cad576040517f08c379a0000000000000000000000000000000000000000000000000000000008152600401610ca49061419c565b60405180910390fd5b815f600282604051610cbf91906141f4565b90815260200160405180910390206004015403610d11576040517f08c379a0000000000000000000000000000000000000000000000000000000008152600401610d0890614254565b60405180910390fd5b5f600284604051610d2291906141f4565b90815260200160405180910390206003015f6101000a81548160ff02191690836002811115610d5457610d5361382f565b5b02179055506001915050919050565b5f610d6f336080611c72565b610dae576040517f08c379a0000000000000000000000000000000000000000000000000000000008152600401610da59061467b565b60405180910390fd5b815f600182604051610dc091906141f4565b90815260200160405180910390206004015403610e12576040517f08c379a0000000000000000000000000000000000000000000000000000000008152600401610e09906142bc565b60405180910390fd5b6003600184604051610e2491906141f4565b908152602001604051809103902060030160016101000a81548160ff02191690836003811115610e5757610e5661382f565b5b021790555042600184604051610e6d91906141f4565b9081526020016040518091039020600501819055506001915050919050565b6002818051602081018201805184825260208301602085012081835280955050505050505f91509050805f018054610ec390614307565b80601f0160208091040260200160405190810160405280929190818152602001828054610eef90614307565b8015610f3a5780601f10610f1157610100808354040283529160200191610f3a565b820191905f5260205f20905b815481529060010190602001808311610f1d57829003601f168201915b505050505090806001015490806002018054610f5590614307565b80601f0160208091040260200160405190810160405280929190818152602001828054610f8190614307565b8015610fcc5780601f10610fa357610100808354040283529160200191610fcc565b820191905f5260205f20905b815481529060010190602001808311610faf57829003601f168201915b505050505090806003015f9054906101000a900460ff16908060040154905085565b5f610ffa336040611c72565b611039576040517f08c379a00000000000000000000000000000000000000000000000000000000081526004016110309061419c565b60405180910390fd5b825f60018260405161104b91906141f4565b9081526020016040518091039020600401540361109d576040517f08c379a0000000000000000000000000000000000000000000000000000000008152600401611094906142bc565b60405180910390fd5b600260038111156110b1576110b061382f565b5b6001856040516110c191906141f4565b908152602001604051809103902060030160019054906101000a900460ff1660038111156110f2576110f161382f565b5b03611132576040517f08c379a0000000000000000000000000000000000000000000000000000000008152600401611129906146e3565b60405180910390fd5b600260018560405161114491906141f4565b908152602001604051809103902060030160016101000a81548160ff021916908360038111156111775761117661382f565b5b02179055504260018560405161118d91906141f4565b9081526020016040518091039020600501819055503373ffffffffffffffffffffffffffffffffffffffff16846040516111c791906141f4565b60405180910390207f0f79bf17bbb40c7f3964d874d86d8db800f84ee36d6bb1af59f1d009b8fae8a48542604051611200929190614701565b60405180910390a3600191505092915050565b5f61121f336040611c72565b61125e576040517f08c379a00000000000000000000000000000000000000000000000000000000081526004016112559061419c565b60405180910390fd5b5f60028460405161126f91906141f4565b908152602001604051809103902060040154146112c1576040517f08c379a00000000000000000000000000000000000000000000000000000000081526004016112b890614779565b60405180910390fd5b5f835111611304576040517f08c379a00000000000000000000000000000000000000000000000000000000081526004016112fb906147e1565b60405180910390fd5b5f8067ffffffffffffffff81111561131f5761131e613555565b5b60405190808252806020026020018201604052801561134d5781602001602082028036833780820191505090505b5090505f6040518060c0016040528086815260200185815260200160405180602001604052805f81525081526020015f600281111561138f5761138e61382f565b5b8152602001428152602001838152509050806002866040516113b191906141f4565b90815260200160405180910390205f820151815f0190816113d2919061453c565b506020820151816001015560408201518160020190816113f2919061453c565b506060820151816003015f6101000a81548160ff0219169083600281111561141d5761141c61382f565b5b02179055506080820151816004015560a082015181600501908051906020019061144892919061341d565b50905050600685908060018154018082558091505060019003905f5260205f20015f90919091909150908161147d919061453c565b508460045f3373ffffffffffffffffffffffffffffffffffffffff1673ffffffffffffffffffffffffffffffffffffffff1681526020019081526020015f2090816114c8919061453c565b503373ffffffffffffffffffffffffffffffffffffffff16856040516114ee91906141f4565b60405180910390207fb13e9e763d8d60b28baaaac2eb3689b9862490eceeb8d72e090d827285def06686426040516115279291906147ff565b60405180910390a360019250505092915050565b6001818051602081018201805184825260208301602085012081835280955050505050505f91509050805f01805461157290614307565b80601f016020809104026020016040519081016040528092919081815260200182805461159e90614307565b80156115e95780601f106115c0576101008083540402835291602001916115e9565b820191905f5260205f20905b8154815290600101906020018083116115cc57829003601f168201915b5050505050908060010180546115fe90614307565b80601f016020809104026020016040519081016040528092919081815260200182805461162a90614307565b80156116755780601f1061164c57610100808354040283529160200191611675565b820191905f5260205f20905b81548152906001019060200180831161165857829003601f168201915b50505050509080600201805461168a90614307565b80601f01602080910402602001604051908101604052809291908181526020018280546116b690614307565b80156117015780601f106116d857610100808354040283529160200191611701565b820191905f5260205f20905b8154815290600101906020018083116116e457829003601f168201915b505050505090806003015f9054906101000a900460ff16908060030160019054906101000a900460ff16908060040154908060050154908060060154908060070154905089565b5f611754336080611c72565b611793576040517f08c379a000000000000000000000000000000000000000000000000000000000815260040161178a9061467b565b60405180910390fd5b825f6001826040516117a591906141f4565b908152602001604051809103902060040154036117f7576040517f08c379a00000000000000000000000000000000000000000000000000000000081526004016117ee906142bc565b60405180910390fd5b821960018560405161180991906141f4565b90815260200160405180910390206007015f82825416925050819055504260018560405161183791906141f4565b9081526020016040518091039020600501819055503373ffffffffffffffffffffffffffffffffffffffff168460405161187191906141f4565b60405180910390207fea93182b272f835992ec4d598531773bc30c72c6e045d6a22b583ac43f9d20c485426040516118aa929190614826565b60405180910390a3600191505092915050565b6118c5613286565b6118ce5f61330d565b565b5f8060035f8573ffffffffffffffffffffffffffffffffffffffff1673ffffffffffffffffffffffffffffffffffffffff1681526020019081526020015f20805461191a90614307565b80601f016020809104026020016040519081016040528092919081815260200182805461194690614307565b80156119915780601f1061196857610100808354040283529160200191611991565b820191905f5260205f20905b81548152906001019060200180831161197457829003601f168201915b505050505090505f8151036119a9575f915050611c6c565b5f6001826040516119ba91906141f4565b9081526020016040518091039020604051806101200160405290815f820180546119e390614307565b80601f0160208091040260200160405190810160405280929190818152602001828054611a0f90614307565b8015611a5a5780601f10611a3157610100808354040283529160200191611a5a565b820191905f5260205f20905b815481529060010190602001808311611a3d57829003601f168201915b50505050508152602001600182018054611a7390614307565b80601f0160208091040260200160405190810160405280929190818152602001828054611a9f90614307565b8015611aea5780601f10611ac157610100808354040283529160200191611aea565b820191905f5260205f20905b815481529060010190602001808311611acd57829003601f168201915b50505050508152602001600282018054611b0390614307565b80601f0160208091040260200160405190810160405280929190818152602001828054611b2f90614307565b8015611b7a5780601f10611b5157610100808354040283529160200191611b7a565b820191905f5260205f20905b815481529060010190602001808311611b5d57829003601f168201915b50505050508152602001600382015f9054906101000a900460ff166002811115611ba757611ba661382f565b5b6002811115611bb957611bb861382f565b5b81526020016003820160019054906101000a900460ff166003811115611be257611be161382f565b5b6003811115611bf457611bf361382f565b5b8152602001600482015481526020016005820154815260200160068201548152602001600782015481525050905060016003811115611c3657611c3561382f565b5b81608001516003811115611c4d57611c4c61382f565b5b14611c5c575f92505050611c6c565b5f84826101000151161415925050505b92915050565b5f8060035f8573ffffffffffffffffffffffffffffffffffffffff1673ffffffffffffffffffffffffffffffffffffffff1681526020019081526020015f208054611cbc90614307565b80601f0160208091040260200160405190810160405280929190818152602001828054611ce890614307565b8015611d335780601f10611d0a57610100808354040283529160200191611d33565b820191905f5260205f20905b815481529060010190602001808311611d1657829003601f168201915b505050505090505f815103611d4b575f9150506120ce565b604051602001611d5a90614897565b6040516020818303038152906040528051906020012081604051602001611d8191906141f4565b6040516020818303038152906040528051906020012003611dab575f8360401614159150506120ce565b604051602001611dba906148f5565b6040516020818303038152906040528051906020012081604051602001611de191906141f4565b6040516020818303038152906040528051906020012003611e0b575f8360801614159150506120ce565b5f600182604051611e1c91906141f4565b9081526020016040518091039020604051806101200160405290815f82018054611e4590614307565b80601f0160208091040260200160405190810160405280929190818152602001828054611e7190614307565b8015611ebc5780601f10611e9357610100808354040283529160200191611ebc565b820191905f5260205f20905b815481529060010190602001808311611e9f57829003601f168201915b50505050508152602001600182018054611ed590614307565b80601f0160208091040260200160405190810160405280929190818152602001828054611f0190614307565b8015611f4c5780601f10611f2357610100808354040283529160200191611f4c565b820191905f5260205f20905b815481529060010190602001808311611f2f57829003601f168201915b50505050508152602001600282018054611f6590614307565b80601f0160208091040260200160405190810160405280929190818152602001828054611f9190614307565b8015611fdc5780601f10611fb357610100808354040283529160200191611fdc565b820191905f5260205f20905b815481529060010190602001808311611fbf57829003601f168201915b50505050508152602001600382015f9054906101000a900460ff1660028111156120095761200861382f565b5b600281111561201b5761201a61382f565b5b81526020016003820160019054906101000a900460ff1660038111156120445761204361382f565b5b60038111156120565761205561382f565b5b81526020016004820154815260200160058201548152602001600682015481526020016007820154815250509050600160038111156120985761209761382f565b5b816080015160038111156120af576120ae61382f565b5b146120be575f925050506120ce565b5f84826101000151161415925050505b92915050565b5f805f9054906101000a900473ffffffffffffffffffffffffffffffffffffffff16905090565b5f815f60018260405161210e91906141f4565b90815260200160405180910390206004015403612160576040517f08c379a0000000000000000000000000000000000000000000000000000000008152600401612157906142bc565b60405180910390fd5b60018360405161217091906141f4565b908152602001604051809103902060030160019054906101000a900460ff1660038111156121a1576121a061382f565b5b915050919050565b6003602052805f5260405f205f9150905080546121c590614307565b80601f01602080910402602001604051908101604052809291908181526020018280546121f190614307565b801561223c5780601f106122135761010080835404028352916020019161223c565b820191905f5260205f20905b81548152906001019060200180831161221f57829003601f168201915b505050505081565b60068181548110612253575f80fd5b905f5260205f20015f91509050805461226b90614307565b80601f016020809104026020016040519081016040528092919081815260200182805461229790614307565b80156122e25780601f106122b9576101008083540402835291602001916122e2565b820191905f5260205f20905b8154815290600101906020018083116122c557829003601f168201915b505050505081565b5f600680549050905090565b5f6122ff6120d4565b73ffffffffffffffffffffffffffffffffffffffff163373ffffffffffffffffffffffffffffffffffffffff16148061233f575061233e336040611c72565b5b61237e576040517f08c379a00000000000000000000000000000000000000000000000000000000081526004016123759061419c565b60405180910390fd5b8160035f8573ffffffffffffffffffffffffffffffffffffffff1673ffffffffffffffffffffffffffffffffffffffff1681526020019081526020015f2090816123c8919061453c565b506001905092915050565b600581815481106123e2575f80fd5b905f5260205f20015f9150905080546123fa90614307565b80601f016020809104026020016040519081016040528092919081815260200182805461242690614307565b80156124715780601f1061244857610100808354040283529160200191612471565b820191905f5260205f20905b81548152906001019060200180831161245457829003601f168201915b505050505081565b6004602052805f5260405f205f91509050805461249590614307565b80601f01602080910402602001604051908101604052809291908181526020018280546124c190614307565b801561250c5780601f106124e35761010080835404028352916020019161250c565b820191905f5260205f20905b8154815290600101906020018083116124ef57829003601f168201915b505050505081565b5f612520336040611c72565b61255f576040517f08c379a00000000000000000000000000000000000000000000000000000000081526004016125569061419c565b60405180910390fd5b825f60028260405161257191906141f4565b908152602001604051809103902060040154036125c3576040517f08c379a00000000000000000000000000000000000000000000000000000000081526004016125ba90614254565b60405180910390fd5b5f73ffffffffffffffffffffffffffffffffffffffff168373ffffffffffffffffffffffffffffffffffffffff1603612631576040517f08c379a000000000000000000000000000000000000000000000000000000000815260040161262890614953565b60405180910390fd5b60028460405161264191906141f4565b908152602001604051809103902060050183908060018154018082558091505060019003905f5260205f20015f9091909190916101000a81548173ffffffffffffffffffffffffffffffffffffffff021916908373ffffffffffffffffffffffffffffffffffffffff1602179055508360045f8573ffffffffffffffffffffffffffffffffffffffff1673ffffffffffffffffffffffffffffffffffffffff1681526020019081526020015f2090816126fa919061453c565b50600191505092915050565b5f612712336080611c72565b612751576040517f08c379a00000000000000000000000000000000000000000000000000000000081526004016127489061467b565b60405180910390fd5b815f60018260405161276391906141f4565b908152602001604051809103902060040154036127b5576040517f08c379a00000000000000000000000000000000000000000000000000000000081526004016127ac906142bc565b60405180910390fd5b5f60038111156127c8576127c761382f565b5b6001846040516127d891906141f4565b908152602001604051809103902060030160019054906101000a900460ff1660038111156128095761280861382f565b5b14612849576040517f08c379a0000000000000000000000000000000000000000000000000000000008152600401612840906149bb565b60405180910390fd5b6001808460405161285a91906141f4565b908152602001604051809103902060030160016101000a81548160ff0219169083600381111561288d5761288c61382f565b5b0217905550426001846040516128a391906141f4565b9081526020016040518091039020600501819055503373ffffffffffffffffffffffffffffffffffffffff16836040516128dd91906141f4565b60405180910390207fd55f84792db67b05a3c97deae9d02dc26d461105199f24852fd5468b7e68d1f2426040516129149190613a64565b60405180910390a36001915050919050565b5f612932336040611c72565b612971576040517f08c379a00000000000000000000000000000000000000000000000000000000081526004016129689061419c565b60405180910390fd5b5f60018760405161298291906141f4565b908152602001604051809103902060040154146129d4576040517f08c379a00000000000000000000000000000000000000000000000000000000081526004016129cb90614a23565b60405180910390fd5b5f865111612a17576040517f08c379a0000000000000000000000000000000000000000000000000000000008152600401612a0e90614a8b565b60405180910390fd5b5f604051806101200160405280888152602001878152602001868152602001856002811115612a4957612a4861382f565b5b81526020015f6003811115612a6157612a6061382f565b5b81526020014281526020014281526020018481526020015f815250905080600188604051612a8f91906141f4565b90815260200160405180910390205f820151815f019081612ab0919061453c565b506020820151816001019081612ac6919061453c565b506040820151816002019081612adc919061453c565b506060820151816003015f6101000a81548160ff02191690836002811115612b0757612b0661382f565b5b021790555060808201518160030160016101000a81548160ff02191690836003811115612b3757612b3661382f565b5b021790555060a0820151816004015560c0820151816005015560e082015181600601556101008201518160070155905050600587908060018154018082558091505060019003905f5260205f20015f909190919091509081612b99919061453c565b503373ffffffffffffffffffffffffffffffffffffffff1687604051612bbf91906141f4565b60405180910390207ffb2ee55cc7746e44f71c8e4259b4e371165b20aa33a9db5c4258ab6eb4141f658642604051612bf8929190614aa9565b60405180910390a3600191505095945050505050565b5f612c1a336040611c72565b612c59576040517f08c379a0000000000000000000000000000000000000000000000000000000008152600401612c509061419c565b60405180910390fd5b815f600282604051612c6b91906141f4565b90815260200160405180910390206004015403612cbd576040517f08c379a0000000000000000000000000000000000000000000000000000000008152600401612cb490614254565b60405180910390fd5b60028084604051612cce91906141f4565b90815260200160405180910390206003015f6101000a81548160ff02191690836002811115612d0057612cff61382f565b5b02179055506001915050919050565b612d17613286565b5f73ffffffffffffffffffffffffffffffffffffffff168173ffffffffffffffffffffffffffffffffffffffff1603612d87575f6040517f1e4fbdf7000000000000000000000000000000000000000000000000000000008152600401612d7e9190613ded565b60405180910390fd5b612d908161330d565b50565b612d9b6134a4565b815f600182604051612dad91906141f4565b90815260200160405180910390206004015403612dff576040517f08c379a0000000000000000000000000000000000000000000000000000000008152600401612df6906142bc565b60405180910390fd5b600183604051612e0f91906141f4565b9081526020016040518091039020604051806101200160405290815f82018054612e3890614307565b80601f0160208091040260200160405190810160405280929190818152602001828054612e6490614307565b8015612eaf5780601f10612e8657610100808354040283529160200191612eaf565b820191905f5260205f20905b815481529060010190602001808311612e9257829003601f168201915b50505050508152602001600182018054612ec890614307565b80601f0160208091040260200160405190810160405280929190818152602001828054612ef490614307565b8015612f3f5780601f10612f1657610100808354040283529160200191612f3f565b820191905f5260205f20905b815481529060010190602001808311612f2257829003601f168201915b50505050508152602001600282018054612f5890614307565b80601f0160208091040260200160405190810160405280929190818152602001828054612f8490614307565b8015612fcf5780601f10612fa657610100808354040283529160200191612fcf565b820191905f5260205f20905b815481529060010190602001808311612fb257829003601f168201915b50505050508152602001600382015f9054906101000a900460ff166002811115612ffc57612ffb61382f565b5b600281111561300e5761300d61382f565b5b81526020016003820160019054906101000a900460ff1660038111156130375761303661382f565b5b60038111156130495761304861382f565b5b8152602001600482015481526020016005820154815260200160068201548152602001600782015481525050915050919050565b5f613089336080611c72565b6130c8576040517f08c379a00000000000000000000000000000000000000000000000000000000081526004016130bf9061467b565b60405180910390fd5b825f6001826040516130da91906141f4565b9081526020016040518091039020600401540361312c576040517f08c379a0000000000000000000000000000000000000000000000000000000008152600401613123906142bc565b60405180910390fd5b600160038111156131405761313f61382f565b5b60018560405161315091906141f4565b908152602001604051809103902060030160019054906101000a900460ff1660038111156131815761318061382f565b5b146131c1576040517f08c379a00000000000000000000000000000000000000000000000000000000081526004016131b890614b1a565b60405180910390fd5b826001856040516131d291906141f4565b90815260200160405180910390206007015f82825417925050819055504260018560405161320091906141f4565b9081526020016040518091039020600501819055503373ffffffffffffffffffffffffffffffffffffffff168460405161323a91906141f4565b60405180910390207f930f876b0eafb77683945f6848f7ecb44e5a72acae7446143261ee11feb45d288542604051613273929190614826565b60405180910390a3600191505092915050565b61328e6133ce565b73ffffffffffffffffffffffffffffffffffffffff166132ac6120d4565b73ffffffffffffffffffffffffffffffffffffffff161461330b576132cf6133ce565b6040517f118cdaa70000000000000000000000000000000000000000000000000000000081526004016133029190613ded565b60405180910390fd5b565b5f805f9054906101000a900473ffffffffffffffffffffffffffffffffffffffff169050815f806101000a81548173ffffffffffffffffffffffffffffffffffffffff021916908373ffffffffffffffffffffffffffffffffffffffff1602179055508173ffffffffffffffffffffffffffffffffffffffff168173ffffffffffffffffffffffffffffffffffffffff167f8be0079c531659141344cd1fd0a4f28419497f9722a3daafe3b4186f6b6457e060405160405180910390a35050565b5f33905090565b6040518060c00160405280606081526020015f8019168152602001606081526020015f600281111561340a5761340961382f565b5b81526020015f8152602001606081525090565b828054828255905f5260205f20908101928215613493579160200282015b82811115613492578251825f6101000a81548173ffffffffffffffffffffffffffffffffffffffff021916908373ffffffffffffffffffffffffffffffffffffffff1602179055509160200191906001019061343b565b5b5090506134a09190613511565b5090565b6040518061012001604052806060815260200160608152602001606081526020015f60028111156134d8576134d761382f565b5b81526020015f60038111156134f0576134ef61382f565b5b81526020015f81526020015f81526020015f80191681526020015f81525090565b5b80821115613528575f815f905550600101613512565b5090565b5f604051905090565b5f80fd5b5f80fd5b5f80fd5b5f80fd5b5f601f19601f8301169050919050565b7f4e487b71000000000000000000000000000000000000000000000000000000005f52604160045260245ffd5b61358b82613545565b810181811067ffffffffffffffff821117156135aa576135a9613555565b5b80604052505050565b5f6135bc61352c565b90506135c88282613582565b919050565b5f67ffffffffffffffff8211156135e7576135e6613555565b5b6135f082613545565b9050602081019050919050565b828183375f83830152505050565b5f61361d613618846135cd565b6135b3565b90508281526020810184848401111561363957613638613541565b5b6136448482856135fd565b509392505050565b5f82601f8301126136605761365f61353d565b5b813561367084826020860161360b565b91505092915050565b5f806040838503121561368f5761368e613535565b5b5f83013567ffffffffffffffff8111156136ac576136ab613539565b5b6136b88582860161364c565b925050602083013567ffffffffffffffff8111156136d9576136d8613539565b5b6136e58582860161364c565b9150509250929050565b5f8115159050919050565b613703816136ef565b82525050565b5f60208201905061371c5f8301846136fa565b92915050565b5f6020828403121561373757613736613535565b5b5f82013567ffffffffffffffff81111561375457613753613539565b5b6137608482850161364c565b91505092915050565b5f60ff82169050919050565b61377e81613769565b82525050565b5f6020820190506137975f830184613775565b92915050565b5f81519050919050565b5f82825260208201905092915050565b5f5b838110156137d45780820151818401526020810190506137b9565b5f8484015250505050565b5f6137e98261379d565b6137f381856137a7565b93506138038185602086016137b7565b61380c81613545565b840191505092915050565b5f819050919050565b61382981613817565b82525050565b7f4e487b71000000000000000000000000000000000000000000000000000000005f52602160045260245ffd5b6003811061386d5761386c61382f565b5b50565b5f81905061387d8261385c565b919050565b5f61388c82613870565b9050919050565b61389c81613882565b82525050565b5f819050919050565b6138b4816138a2565b82525050565b5f81519050919050565b5f82825260208201905092915050565b5f819050602082019050919050565b5f73ffffffffffffffffffffffffffffffffffffffff82169050919050565b5f61390c826138e3565b9050919050565b61391c81613902565b82525050565b5f61392d8383613913565b60208301905092915050565b5f602082019050919050565b5f61394f826138ba565b61395981856138c4565b9350613964836138d4565b805f5b8381101561399457815161397b8882613922565b975061398683613939565b925050600181019050613967565b5085935050505092915050565b5f60c083015f8301518482035f8601526139bb82826137df565b91505060208301516139d06020860182613820565b50604083015184820360408601526139e882826137df565b91505060608301516139fd6060860182613893565b506080830151613a1060808601826138ab565b5060a083015184820360a0860152613a288282613945565b9150508091505092915050565b5f6020820190508181035f830152613a4d81846139a1565b905092915050565b613a5e816138a2565b82525050565b5f602082019050613a775f830184613a55565b92915050565b5f82825260208201905092915050565b5f613a978261379d565b613aa18185613a7d565b9350613ab18185602086016137b7565b613aba81613545565b840191505092915050565b613ace81613817565b82525050565b613add81613882565b82525050565b5f60a0820190508181035f830152613afb8188613a8d565b9050613b0a6020830187613ac5565b8181036040830152613b1c8186613a8d565b9050613b2b6060830185613ad4565b613b386080830184613a55565b9695505050505050565b613b4b81613817565b8114613b55575f80fd5b50565b5f81359050613b6681613b42565b92915050565b5f8060408385031215613b8257613b81613535565b5b5f83013567ffffffffffffffff811115613b9f57613b9e613539565b5b613bab8582860161364c565b9250506020613bbc85828601613b58565b9150509250929050565b60038110613bd757613bd661382f565b5b50565b5f819050613be782613bc6565b919050565b5f613bf682613bda565b9050919050565b613c0681613bec565b82525050565b60048110613c1d57613c1c61382f565b5b50565b5f819050613c2d82613c0c565b919050565b5f613c3c82613c20565b9050919050565b613c4c81613c32565b82525050565b5f610120820190508181035f830152613c6b818c613a8d565b90508181036020830152613c7f818b613a8d565b90508181036040830152613c93818a613a8d565b9050613ca26060830189613bfd565b613caf6080830188613c43565b613cbc60a0830187613a55565b613cc960c0830186613a55565b613cd660e0830185613ac5565b613ce4610100830184613a55565b9a9950505050505050505050565b613cfb816138a2565b8114613d05575f80fd5b50565b5f81359050613d1681613cf2565b92915050565b5f8060408385031215613d3257613d31613535565b5b5f83013567ffffffffffffffff811115613d4f57613d4e613539565b5b613d5b8582860161364c565b9250506020613d6c85828601613d08565b9150509250929050565b613d7f81613902565b8114613d89575f80fd5b50565b5f81359050613d9a81613d76565b92915050565b5f8060408385031215613db657613db5613535565b5b5f613dc385828601613d8c565b9250506020613dd485828601613d08565b9150509250929050565b613de781613902565b82525050565b5f602082019050613e005f830184613dde565b92915050565b5f60208284031215613e1b57613e1a613535565b5b5f613e2884828501613d8c565b91505092915050565b5f6020820190508181035f830152613e498184613a8d565b905092915050565b5f60208284031215613e6657613e65613535565b5b5f613e7384828501613d08565b91505092915050565b5f8060408385031215613e9257613e91613535565b5b5f613e9f85828601613d8c565b925050602083013567ffffffffffffffff811115613ec057613ebf613539565b5b613ecc8582860161364c565b9150509250929050565b5f8060408385031215613eec57613eeb613535565b5b5f83013567ffffffffffffffff811115613f0957613f08613539565b5b613f158582860161364c565b9250506020613f2685828601613d8c565b9150509250929050565b60038110613f3c575f80fd5b50565b5f81359050613f4d81613f30565b92915050565b5f805f805f60a08688031215613f6c57613f6b613535565b5b5f86013567ffffffffffffffff811115613f8957613f88613539565b5b613f958882890161364c565b955050602086013567ffffffffffffffff811115613fb657613fb5613539565b5b613fc28882890161364c565b945050604086013567ffffffffffffffff811115613fe357613fe2613539565b5b613fef8882890161364c565b935050606061400088828901613f3f565b925050608061401188828901613b58565b9150509295509295909350565b61402781613bec565b82525050565b61403681613c32565b82525050565b5f61012083015f8301518482035f86015261405782826137df565b9150506020830151848203602086015261407182826137df565b9150506040830151848203604086015261408b82826137df565b91505060608301516140a0606086018261401e565b5060808301516140b3608086018261402d565b5060a08301516140c660a08601826138ab565b5060c08301516140d960c08601826138ab565b5060e08301516140ec60e0860182613820565b506101008301516141016101008601826138ab565b508091505092915050565b5f6020820190508181035f830152614124818461403c565b905092915050565b7f4e6f7420617574686f72697a65643a20504c4154464f524d20726f6c652072655f8201527f7175697265640000000000000000000000000000000000000000000000000000602082015250565b5f614186602683613a7d565b91506141918261412c565b604082019050919050565b5f6020820190508181035f8301526141b38161417a565b9050919050565b5f81905092915050565b5f6141ce8261379d565b6141d881856141ba565b93506141e88185602086016137b7565b80840191505092915050565b5f6141ff82846141c4565b915081905092915050565b7f5573657220646f6573206e6f74206578697374000000000000000000000000005f82015250565b5f61423e601383613a7d565b91506142498261420a565b602082019050919050565b5f6020820190508181035f83015261426b81614232565b9050919050565b7f4d656d62657220646f6573206e6f7420657869737400000000000000000000005f82015250565b5f6142a6601583613a7d565b91506142b182614272565b602082019050919050565b5f6020820190508181035f8301526142d38161429a565b9050919050565b7f4e487b71000000000000000000000000000000000000000000000000000000005f52602260045260245ffd5b5f600282049050600182168061431e57607f821691505b602082108103614331576143306142da565b5b50919050565b7f5573657220616c7265616479206c696e6b6564000000000000000000000000005f82015250565b5f61436b601383613a7d565b915061437682614337565b602082019050919050565b5f6020820190508181035f8301526143988161435f565b9050919050565b5f819050815f5260205f209050919050565b5f6020601f8301049050919050565b5f82821b905092915050565b5f600883026143fb7fffffffffffffffffffffffffffffffffffffffffffffffffffffffffffffffff826143c0565b61440586836143c0565b95508019841693508086168417925050509392505050565b5f819050919050565b5f61444061443b614436846138a2565b61441d565b6138a2565b9050919050565b5f819050919050565b61445983614426565b61446d61446582614447565b8484546143cc565b825550505050565b5f90565b614481614475565b61448c818484614450565b505050565b5b818110156144af576144a45f82614479565b600181019050614492565b5050565b601f8211156144f4576144c58161439f565b6144ce846143b1565b810160208510156144dd578190505b6144f16144e9856143b1565b830182614491565b50505b505050565b5f82821c905092915050565b5f6145145f19846008026144f9565b1980831691505092915050565b5f61452c8383614505565b9150826002028217905092915050565b6145458261379d565b67ffffffffffffffff81111561455e5761455d613555565b5b6145688254614307565b6145738282856144b3565b5f60209050601f8311600181146145a4575f8415614592578287015190505b61459c8582614521565b865550614603565b601f1984166145b28661439f565b5f5b828110156145d9578489015182556001820191506020850194506020810190506145b4565b868310156145f657848901516145f2601f891682614505565b8355505b6001600288020188555050505b505050505050565b7f4e6f7420617574686f72697a65643a20474f5645524e414e434520726f6c65205f8201527f7265717569726564000000000000000000000000000000000000000000000000602082015250565b5f614665602883613a7d565b91506146708261460b565b604082019050919050565b5f6020820190508181035f83015261469281614659565b9050919050565b7f4d656d62657220616c72656164792073757370656e64656400000000000000005f82015250565b5f6146cd601883613a7d565b91506146d882614699565b602082019050919050565b5f6020820190508181035f8301526146fa816146c1565b9050919050565b5f6040820190508181035f8301526147198185613a8d565b90506147286020830184613a55565b9392505050565b7f5573657220616c726561647920657869737473000000000000000000000000005f82015250565b5f614763601383613a7d565b915061476e8261472f565b602082019050919050565b5f6020820190508181035f83015261479081614757565b9050919050565b7f496e76616c6964207573657220494400000000000000000000000000000000005f82015250565b5f6147cb600f83613a7d565b91506147d682614797565b602082019050919050565b5f6020820190508181035f8301526147f8816147bf565b9050919050565b5f6040820190506148125f830185613ac5565b61481f6020830184613a55565b9392505050565b5f6040820190506148395f830185613a55565b6148466020830184613a55565b9392505050565b7f504c4154464f524d0000000000000000000000000000000000000000000000005f82015250565b5f6148816008836141ba565b915061488c8261484d565b600882019050919050565b5f6148a182614875565b9150819050919050565b7f474f5645524e414e4345000000000000000000000000000000000000000000005f82015250565b5f6148df600a836141ba565b91506148ea826148ab565b600a82019050919050565b5f6148ff826148d3565b9150819050919050565b7f496e76616c6964206164647265737300000000000000000000000000000000005f82015250565b5f61493d600f83613a7d565b915061494882614909565b602082019050919050565b5f6020820190508181035f83015261496a81614931565b9050919050565b7f4d656d626572206e6f742070656e64696e6700000000000000000000000000005f82015250565b5f6149a5601283613a7d565b91506149b082614971565b602082019050919050565b5f6020820190508181035f8301526149d281614999565b9050919050565b7f4d656d62657220616c72656164792065786973747300000000000000000000005f82015250565b5f614a0d601583613a7d565b9150614a18826149d9565b602082019050919050565b5f6020820190508181035f830152614a3a81614a01565b9050919050565b7f496e76616c6964206d656d6265722047494300000000000000000000000000005f82015250565b5f614a75601283613a7d565b9150614a8082614a41565b602082019050919050565b5f6020820190508181035f830152614aa281614a69565b9050919050565b5f604082019050614abc5f830185613bfd565b614ac96020830184613a55565b9392505050565b7f4d656d626572206e6f74206163746976650000000000000000000000000000005f82015250565b5f614b04601183613a7d565b9150614b0f82614ad0565b602082019050919050565b5f6020820190508181035f830152614b3181614af8565b905091905056fea2646970667358221220de575e77e5bb030d775ba61a0a942dcf0a76f1e3882563409f71b5b273052e5d64736f6c63430008180033","linkReferences":{}},"methodIdentifiers":{"activateUser(string)":"2b3fafb2","addUserAdminAddress(string,address)":"d10a9f68","addressToMemberGIC(address)":"93a02082","addressToUserId(address)":"b5ffbbcc","approveMember(string)":"d6e9f495","assignRole(string,uint256)":"ff1484ca","getMemberDetails(string)":"fe1d3fd2","getMemberStatus(string)":"8e690fc5","getMembersCount()":"09772f8f","getUserDetails(string)":"085ba074","getUserStatus(string)":"07e9c883","getUsersCount()":"a4a1e263","isMemberInRole(address,uint256)":"8cbdcead","linkAddressToMember(address,string)":"a9d23d46","linkUserToMember(string,string)":"04418790","memberList(uint256)":"b307fc6d","members(string)":"6957a0b2","owner()":"8da5cb5b","registerMember(string,string,string,uint8,bytes32)":"d98e520f","registerUser(string,bytes32)":"68ae5563","renounceOwnership()":"715018a6","revokeRole(string,uint256)":"6a769c29","suspendMember(string,string)":"689f2ed2","suspendUser(string)":"e106c71a","terminateMember(string)":"3b8cd7dc","transferOwnership(address)":"f2fde38b","userList(uint256)":"9f4216e8","users(string)":"689e1c03","validatePermission(address,uint256)":"7c0f8882"},"id":1}