{"abi":[{"type":"constructor","inputs":[],"stateMutability":"nonpayable"},{"type":"function","name":"activateUser","inputs":[{"name":"userId","type":"string","internalType":"string"}],"outputs":[{"name":"","type":"bool","internalType":"bool"}],"stateMutability":"nonpayable"},{"type":"function","name":"addUserAdminAddress","inputs":[{"name":"userId","type":"string","internalType":"string"},{"name":"adminAddress","type":"address","internalType":"address"}],"outputs":[{"name":"","type":"bool","internalType":"bool"}],"stateMutability":"nonpayable"},{"type":"function","name":"addressToMemberGIC","inputs":[{"name":"","type":"address","internalType":"address"}],"outputs":[{"name":"","type":"string","internalType":"string"}],"stateMutability":"view"},{"type":"function","name":"addressToUserId","inputs":[{"name":"","type":"address","internalType":"address"}],"outputs":[{"name":"","type":"string","internalType":"string"}],"stateMutability":"view"},{"type":"function","name":"approveMember","inputs":[{"name":"memberGIC","type":"string","internalType":"string"}],"outputs":[{"name":"","type":"bool","internalType":"bool"}],"stateMutability":"nonpayable"},{"type":"function","name":"assignRole","inputs":[{"name":"memberGIC","type":"string","internalType":"string"},{"name":"role","type":"uint256","internalType":"uint256"}],"outputs":[{"name":"","type":"bool","internalType":"bool"}],"stateMutability":"nonpayable"},{"type":"function","name":"getMemberDetails","inputs":[{"name":"memberGIC","type":"string","internalType":"string"}],"outputs":[{"name":"","type":"tuple","internalType":"struct MemberRegistry.Member","components":[{"name":"memberGIC","type":"string","internalType":"string"},{"name":"memberType","type":"uint8","internalType":"enum MemberRegistry.MemberType"},{"name":"status","type":"uint8","internalType":"enum MemberRegistry.MemberStatus"},{"name":"createdAt","type":"uint256","internalType":"uint256"},{"name":"updatedAt","type":"uint256","internalType":"uint256"},{"name":"memberHash","type":"bytes32","internalType":"bytes32"},{"name":"roles","type":"uint256","internalType":"uint256"},{"name":"userAddress","type":"address","internalType":"address"}]}],"stateMutability":"view"},{"type":"function","name":"getMemberStatus","inputs":[{"name":"memberGIC","type":"string","internalType":"string"}],"outputs":[{"name":"","type":"uint8","internalType":"uint8"}],"stateMutability":"view"},{"type":"function","name":"getMembersCount","inputs":[],"outputs":[{"name":"","type":"uint256","internalType":"uint256"}],"stateMutability":"view"},{"type":"function","name":"getUserDetails","inputs":[{"name":"userId","type":"string","internalType":"string"}],"outputs":[{"name":"","type":"tuple","internalType":"struct MemberRegistry.User","components":[{"name":"userId","type":"string","internalType":"string"},{"name":"userHash","type":"bytes32","internalType":"bytes32"},{"name":"linkedMemberGIC","type":"string","internalType":"string"},{"name":"status","type":"uint8","internalType":"enum MemberRegistry.UserStatus"},{"name":"createdAt","type":"uint256","internalType":"uint256"},{"name":"adminAddresses","type":"address[]","internalType":"address[]"}]}],"stateMutability":"view"},{"type":"function","name":"getUserStatus","inputs":[{"name":"userId","type":"string","internalType":"string"}],"outputs":[{"name":"","type":"uint8","internalType":"uint8"}],"stateMutability":"view"},{"type":"function","name":"getUsersCount","inputs":[],"outputs":[{"name":"","type":"uint256","internalType":"uint256"}],"stateMutability":"view"},{"type":"function","name":"isMemberInRole","inputs":[{"name":"member","type":"address","internalType":"address"},{"name":"role","type":"uint256","internalType":"uint256"}],"outputs":[{"name":"","type":"bool","internalType":"bool"}],"stateMutability":"view"},{"type":"function","name":"linkAddressToMember","inputs":[{"name":"addr","type":"address","internalType":"address"},{"name":"memberGIC","type":"string","internalType":"string"}],"outputs":[{"name":"","type":"bool","internalType":"bool"}],"stateMutability":"nonpayable"},{"type":"function","name":"linkUserToMember","inputs":[{"name":"userId","type":"string","internalType":"string"},{"name":"memberGIC","type":"string","internalType":"string"}],"outputs":[{"name":"","type":"bool","internalType":"bool"}],"stateMutability":"nonpayable"},{"type":"function","name":"memberList","inputs":[{"name":"","type":"uint256","internalType":"uint256"}],"outputs":[{"name":"","type":"string","internalType":"string"}],"stateMutability":"view"},{"type":"function","name":"members","inputs":[{"name":"","type":"string","internalType":"string"}],"outputs":[{"name":"memberGIC","type":"string","internalType":"string"},{"name":"memberType","type":"uint8","internalType":"enum MemberRegistry.MemberType"},{"name":"status","type":"uint8","internalType":"enum MemberRegistry.MemberStatus"},{"name":"createdAt","type":"uint256","internalType":"uint256"},{"name":"updatedAt","type":"uint256","internalType":"uint256"},{"name":"memberHash","type":"bytes32","internalType":"bytes32"},{"name":"roles","type":"uint256","internalType":"uint256"},{"name":"userAddress","type":"address","internalType":"address"}],"stateMutability":"view"},{"type":"function","name":"owner","inputs":[],"outputs":[{"name":"","type":"address","internalType":"address"}],"stateMutability":"view"},{"type":"function","name":"registerMember","inputs":[{"name":"memberGIC","type":"string","internalType":"string"},{"name":"memberType","type":"uint8","internalType":"enum MemberRegistry.MemberType"},{"name":"memberHash","type":"bytes32","internalType":"bytes32"},{"name":"userAddress","type":"address","internalType":"address"},{"name":"role","type":"uint256","internalType":"uint256"}],"outputs":[{"name":"","type":"bool","internalType":"bool"}],"stateMutability":"nonpayable"},{"type":"function","name":"registerUser","inputs":[{"name":"userId","type":"string","internalType":"string"},{"name":"userHash","type":"bytes32","internalType":"bytes32"}],"outputs":[{"name":"","type":"bool","internalType":"bool"}],"stateMutability":"nonpayable"},{"type":"function","name":"renounceOwnership","inputs":[],"outputs":[],"stateMutability":"nonpayable"},{"type":"function","name":"revokeRole","inputs":[{"name":"memberGIC","type":"string","internalType":"string"},{"name":"role","type":"uint256","internalType":"uint256"}],"outputs":[{"name":"","type":"bool","internalType":"bool"}],"stateMutability":"nonpayable"},{"type":"function","name":"suspendMember","inputs":[{"name":"memberGIC","type":"string","internalType":"string"},{"name":"reason","type":"string","internalType":"string"}],"outputs":[{"name":"","type":"bool","internalType":"bool"}],"stateMutability":"nonpayable"},{"type":"function","name":"suspendUser","inputs":[{"name":"userId","type":"string","internalType":"string"}],"outputs":[{"name":"","type":"bool","internalType":"bool"}],"stateMutability":"nonpayable"},{"type":"function","name":"terminateMember","inputs":[{"name":"memberGIC","type":"string","internalType":"string"}],"outputs":[{"name":"","type":"bool","internalType":"bool"}],"stateMutability":"nonpayable"},{"type":"function","name":"transferOwnership","inputs":[{"name":"newOwner","type":"address","internalType":"address"}],"outputs":[],"stateMutability":"nonpayable"},{"type":"function","name":"userList","inputs":[{"name":"","type":"uint256","internalType":"uint256"}],"outputs":[{"name":"","type":"string","internalType":"string"}],"stateMutability":"view"},{"type":"function","name":"users","inputs":[{"name":"","type":"string","internalType":"string"}],"outputs":[{"name":"userId","type":"string","internalType":"string"},{"name":"userHash","type":"bytes32","internalType":"bytes32"},{"name":"linkedMemberGIC","type":"string","internalType":"string"},{"name":"status","type":"uint8","internalType":"enum MemberRegistry.UserStatus"},{"name":"createdAt","type":"uint256","internalType":"uint256"}],"stateMutability":"view"},{"type":"function","name":"validatePermission","inputs":[{"name":"member","type":"address","internalType":"address"},{"name":"role","type":"uint256","internalType":"uint256"}],"outputs":[{"name":"","type":"bool","internalType":"bool"}],"stateMutability":"view"},{"type":"event","name":"MemberApproved","inputs":[{"name":"memberGIC","type":"string","indexed":true,"internalType":"string"},{"name":"approvedBy","type":"address","indexed":true,"internalType":"address"},{"name":"timestamp","type":"uint256","indexed":false,"internalType":"uint256"}],"anonymous":false},{"type":"event","name":"MemberRegistered","inputs":[{"name":"memberGIC","type":"string","indexed":true,"internalType":"string"},{"name":"memberType","type":"uint8","indexed":false,"internalType":"enum MemberRegistry.MemberType"},{"name":"registeredBy","type":"address","indexed":true,"internalType":"address"},{"name":"timestamp","type":"uint256","indexed":false,"internalType":"uint256"}],"anonymous":false},{"type":"event","name":"MemberSuspended","inputs":[{"name":"memberGIC","type":"string","indexed":true,"internalType":"string"},{"name":"reason","type":"string","indexed":false,"internalType":"string"},{"name":"suspendedBy","type":"address","indexed":true,"internalType":"address"},{"name":"timestamp","type":"uint256","indexed":false,"internalType":"uint256"}],"anonymous":false},{"type":"event","name":"OwnershipTransferred","inputs":[{"name":"previousOwner","type":"address","indexed":true,"internalType":"address"},{"name":"newOwner","type":"address","indexed":true,"internalType":"address"}],"anonymous":false},{"type":"event","name":"RoleAssigned","inputs":[{"name":"memberGIC","type":"string","indexed":true,"internalType":"string"},{"name":"role","type":"uint256","indexed":false,"internalType":"uint256"},{"name":"assignedBy","type":"address","indexed":true,"internalType":"address"},{"name":"timestamp","type":"uint256","indexed":false,"internalType":"uint256"}],"anonymous":false},{"type":"event","name":"RoleRevoked","inputs":[{"name":"memberGIC","type":"string","indexed":true,"internalType":"string"},{"name":"role","type":"uint256","indexed":false,"internalType":"uint256"},{"name":"revokedBy","type":"address","indexed":true,"internalType":"address"},{"name":"timestamp","type":"uint256","indexed":false,"internalType":"uint256"}],"anonymous":false},{"type":"event","name":"UserLinkedToMember","inputs":[{"name":"userId","type":"string","indexed":true,"internalType":"string"},{"name":"memberGIC","type":"string","indexed":true,"internalType":"string"},{"name":"linkedBy","type":"address","indexed":true,"internalType":"address"},{"name":"timestamp","type":"uint256","indexed":false,"internalType":"uint256"}],"anonymous":false},{"type":"event","name":"UserRegistered","inputs":[{"name":"userId","type":"string","indexed":true,"internalType":"string"},{"name":"userHash","type":"bytes32","indexed":false,"internalType":"bytes32"},{"name":"registeredBy","type":"address","indexed":true,"internalType":"address"},{"name":"timestamp","type":"uint256","indexed":false,"internalType":"uint256"}],"anonymous":false},{"type":"error","name":"OwnableInvalidOwner","inputs":[{"name":"owner","type":"address","internalType":"address"}]},{"type":"error","name":"OwnableUnauthorizedAccount","inputs":[{"name":"account","type":"address","internalType":"address"}]}],"bytecode":{"object":"0x608060405234801562000010575f80fd5b50335f73ffffffffffffffffffffffffffffffffffffffff168173ffffffffffffffffffffffffffffffffffffffff160362000085575f6040517f1e4fbdf70000000000000000000000000000000000000000000000000000000081526004016200007c91906200047e565b60405180910390fd5b62000096816200037a60201b60201c565b505f6040518061010001604052806040518060400160405280600881526020017f504c4154464f524d0000000000000000000000000000000000000000000000008152508152602001600280811115620000f557620000f462000499565b5b81526020016001600381111562000111576200011062000499565b5b81526020014281526020014281526020017f3cb058642d3f17bc460bdd6eab42c21564f6b5228beab6a905a2eb32727c49d18152602001608060406020601060086004600260011717171717171781526020013373ffffffffffffffffffffffffffffffffffffffff16815250905080600160405162000191906200051e565b90815260200160405180910390205f820151815f019081620001b4919062000798565b506020820151816001015f6101000a81548160ff02191690836002811115620001e257620001e162000499565b5b021790555060408201518160010160016101000a81548160ff0219169083600381111562000215576200021462000499565b5b0217905550606082015181600201556080820151816003015560a0820151816004015560c0820151816005015560e0820151816006015f6101000a81548173ffffffffffffffffffffffffffffffffffffffff021916908373ffffffffffffffffffffffffffffffffffffffff16021790555090505060058060018154018082558091505060019003905f5260205f20015f6040518060400160405280600881526020017f504c4154464f524d00000000000000000000000000000000000000000000000081525090919091509081620002f0919062000798565b506040518060400160405280600881526020017f504c4154464f524d00000000000000000000000000000000000000000000000081525060035f3373ffffffffffffffffffffffffffffffffffffffff1673ffffffffffffffffffffffffffffffffffffffff1681526020019081526020015f20908162000372919062000798565b50506200087c565b5f805f9054906101000a900473ffffffffffffffffffffffffffffffffffffffff169050815f806101000a81548173ffffffffffffffffffffffffffffffffffffffff021916908373ffffffffffffffffffffffffffffffffffffffff1602179055508173ffffffffffffffffffffffffffffffffffffffff168173ffffffffffffffffffffffffffffffffffffffff167f8be0079c531659141344cd1fd0a4f28419497f9722a3daafe3b4186f6b6457e060405160405180910390a35050565b5f73ffffffffffffffffffffffffffffffffffffffff82169050919050565b5f62000466826200043b565b9050919050565b62000478816200045a565b82525050565b5f602082019050620004935f8301846200046d565b92915050565b7f4e487b71000000000000000000000000000000000000000000000000000000005f52602160045260245ffd5b5f81905092915050565b7f504c4154464f524d0000000000000000000000000000000000000000000000005f82015250565b5f62000506600883620004c6565b91506200051382620004d0565b600882019050919050565b5f6200052a82620004f8565b9150819050919050565b5f81519050919050565b7f4e487b71000000000000000000000000000000000000000000000000000000005f52604160045260245ffd5b7f4e487b71000000000000000000000000000000000000000000000000000000005f52602260045260245ffd5b5f6002820490506001821680620005b057607f821691505b602082108103620005c657620005c56200056b565b5b50919050565b5f819050815f5260205f209050919050565b5f6020601f8301049050919050565b5f82821b905092915050565b5f600883026200062a7fffffffffffffffffffffffffffffffffffffffffffffffffffffffffffffffff82620005ed565b620006368683620005ed565b95508019841693508086168417925050509392505050565b5f819050919050565b5f819050919050565b5f620006806200067a62000674846200064e565b62000657565b6200064e565b9050919050565b5f819050919050565b6200069b8362000660565b620006b3620006aa8262000687565b848454620005f9565b825550505050565b5f90565b620006c9620006bb565b620006d681848462000690565b505050565b5b81811015620006fd57620006f15f82620006bf565b600181019050620006dc565b5050565b601f8211156200074c576200071681620005cc565b6200072184620005de565b8101602085101562000731578190505b620007496200074085620005de565b830182620006db565b50505b505050565b5f82821c905092915050565b5f6200076e5f198460080262000751565b1980831691505092915050565b5f6200078883836200075d565b9150826002028217905092915050565b620007a38262000534565b67ffffffffffffffff811115620007bf57620007be6200053e565b5b620007cb825462000598565b620007d882828562000701565b5f60209050601f8311600181146200080e575f8415620007f9578287015190505b6200080585826200077b565b86555062000874565b601f1984166200081e86620005cc565b5f5b82811015620008475784890151825560018201915060208501945060208101905062000820565b8683101562000867578489015162000863601f8916826200075d565b8355505b6001600288020188555050505b505050505050565b6148a8806200088a5f395ff3fe608060405234801561000f575f80fd5b50600436106101cd575f3560e01c80638da5cb5b11610102578063b5ffbbcc116100a0578063e106c71a1161006f578063e106c71a14610630578063f2fde38b14610660578063fe1d3fd21461067c578063ff1484ca146106ac576101cd565b8063b5ffbbcc14610570578063cd77022c146105a0578063d10a9f68146105d0578063d6e9f49514610600576101cd565b80639f4216e8116100dc5780639f4216e8146104c2578063a4a1e263146104f2578063a9d23d4614610510578063b307fc6d14610540576101cd565b80638da5cb5b146104445780638e690fc51461046257806393a0208214610492576101cd565b8063689f2ed21161016f5780636a769c29116101495780636a769c29146103aa578063715018a6146103da5780637c0f8882146103e45780638cbdcead14610414576101cd565b8063689f2ed21461031357806368ae5563146103435780636957a0b214610373576101cd565b806309772f8f116101ab57806309772f8f146102615780632b3fafb21461027f5780633b8cd7dc146102af578063689e1c03146102df576101cd565b806304418790146101d157806307e9c88314610201578063085ba07414610231575b5f80fd5b6101eb60048036038101906101e69190613421565b6106dc565b6040516101f891906134b1565b60405180910390f35b61021b600480360381019061021691906134ca565b610913565b604051610228919061352c565b60405180910390f35b61024b600480360381019061024691906134ca565b6109c0565b60405161025891906137dd565b60405180910390f35b610269610c55565b604051610276919061380c565b60405180910390f35b610299600480360381019061029491906134ca565b610c61565b6040516102a691906134b1565b60405180910390f35b6102c960048036038101906102c491906134ca565b610d62565b6040516102d691906134b1565b60405180910390f35b6102f960048036038101906102f491906134ca565b610e8b565b60405161030a95949392919061388b565b60405180910390f35b61032d60048036038101906103289190613421565b610fed565b60405161033a91906134b1565b60405180910390f35b61035d60048036038101906103589190613914565b611212565b60405161036a91906134b1565b60405180910390f35b61038d600480360381019061038891906134ca565b61153a565b6040516103a1989796959493929190613a09565b60405180910390f35b6103c460048036038101906103bf9190613ab6565b611654565b6040516103d191906134b1565b60405180910390f35b6103e26117c9565b005b6103fe60048036038101906103f99190613b3a565b6117dc565b60405161040b91906134b1565b60405180910390f35b61042e60048036038101906104299190613b3a565b611ab2565b60405161043b91906134b1565b60405180910390f35b61044c611de8565b6040516104599190613b78565b60405180910390f35b61047c600480360381019061047791906134ca565b611e0f565b604051610489919061352c565b60405180910390f35b6104ac60048036038101906104a79190613b91565b611ebd565b6040516104b99190613bbc565b60405180910390f35b6104dc60048036038101906104d79190613bdc565b611f58565b6040516104e99190613bbc565b60405180910390f35b6104fa611ffe565b604051610507919061380c565b60405180910390f35b61052a60048036038101906105259190613c07565b61200a565b60405161053791906134b1565b60405180910390f35b61055a60048036038101906105559190613bdc565b6120e7565b6040516105679190613bbc565b60405180910390f35b61058a60048036038101906105859190613b91565b61218d565b6040516105979190613bbc565b60405180910390f35b6105ba60048036038101906105b59190613c84565b612228565b6040516105c791906134b1565b60405180910390f35b6105ea60048036038101906105e59190613d17565b612661565b6040516105f791906134b1565b60405180910390f35b61061a600480360381019061061591906134ca565b612853565b60405161062791906134b1565b60405180910390f35b61064a600480360381019061064591906134ca565b612a73565b60405161065791906134b1565b60405180910390f35b61067a60048036038101906106759190613b91565b612b74565b005b610696600480360381019061069191906134ca565b612bf8565b6040516106a39190613e3c565b60405180910390f35b6106c660048036038101906106c19190613ab6565b612e17565b6040516106d391906134b1565b60405180910390f35b5f6106e8336040611ab2565b610727576040517f08c379a000000000000000000000000000000000000000000000000000000000815260040161071e90613ecc565b60405180910390fd5b825f6002826040516107399190613f24565b9081526020016040518091039020600401540361078b576040517f08c379a000000000000000000000000000000000000000000000000000000000815260040161078290613f84565b60405180910390fd5b825f60018260405161079d9190613f24565b908152602001604051809103902060020154036107ef576040517f08c379a00000000000000000000000000000000000000000000000000000000081526004016107e690613fec565b60405180910390fd5b5f6002866040516108009190613f24565b9081526020016040518091039020600201805461081c90614037565b90501461085e576040517f08c379a0000000000000000000000000000000000000000000000000000000008152600401610855906140b1565b60405180910390fd5b8360028660405161086f9190613f24565b9081526020016040518091039020600201908161088c919061426c565b503373ffffffffffffffffffffffffffffffffffffffff16846040516108b29190613f24565b6040518091039020866040516108c89190613f24565b60405180910390207fd1b268239537a25c14e2eac10da2a119aa3cf3961279b9a7a08d88ce228fae9f426040516108ff919061380c565b60405180910390a460019250505092915050565b5f815f6002826040516109269190613f24565b90815260200160405180910390206004015403610978576040517f08c379a000000000000000000000000000000000000000000000000000000000815260040161096f90613f84565b60405180910390fd5b6002836040516109889190613f24565b90815260200160405180910390206003015f9054906101000a900460ff1660028111156109b8576109b76135d7565b5b915050919050565b6109c861316f565b815f6002826040516109da9190613f24565b90815260200160405180910390206004015403610a2c576040517f08c379a0000000000000000000000000000000000000000000000000000000008152600401610a2390613f84565b60405180910390fd5b600283604051610a3c9190613f24565b90815260200160405180910390206040518060c00160405290815f82018054610a6490614037565b80601f0160208091040260200160405190810160405280929190818152602001828054610a9090614037565b8015610adb5780601f10610ab257610100808354040283529160200191610adb565b820191905f5260205f20905b815481529060010190602001808311610abe57829003601f168201915b5050505050815260200160018201548152602001600282018054610afe90614037565b80601f0160208091040260200160405190810160405280929190818152602001828054610b2a90614037565b8015610b755780601f10610b4c57610100808354040283529160200191610b75565b820191905f5260205f20905b815481529060010190602001808311610b5857829003601f168201915b50505050508152602001600382015f9054906101000a900460ff166002811115610ba257610ba16135d7565b5b6002811115610bb457610bb36135d7565b5b81526020016004820154815260200160058201805480602002602001604051908101604052809291908181526020018280548015610c4457602002820191905f5260205f20905b815f9054906101000a900473ffffffffffffffffffffffffffffffffffffffff1673ffffffffffffffffffffffffffffffffffffffff1681526020019060010190808311610bfb575b505050505081525050915050919050565b5f600580549050905090565b5f610c6d336040611ab2565b610cac576040517f08c379a0000000000000000000000000000000000000000000000000000000008152600401610ca390613ecc565b60405180910390fd5b815f600282604051610cbe9190613f24565b90815260200160405180910390206004015403610d10576040517f08c379a0000000000000000000000000000000000000000000000000000000008152600401610d0790613f84565b60405180910390fd5b5f600284604051610d219190613f24565b90815260200160405180910390206003015f6101000a81548160ff02191690836002811115610d5357610d526135d7565b5b02179055506001915050919050565b5f610d6e336080611ab2565b610dad576040517f08c379a0000000000000000000000000000000000000000000000000000000008152600401610da4906143ab565b60405180910390fd5b815f600182604051610dbf9190613f24565b90815260200160405180910390206002015403610e11576040517f08c379a0000000000000000000000000000000000000000000000000000000008152600401610e0890613fec565b60405180910390fd5b6003600184604051610e239190613f24565b908152602001604051809103902060010160016101000a81548160ff02191690836003811115610e5657610e556135d7565b5b021790555042600184604051610e6c9190613f24565b9081526020016040518091039020600301819055506001915050919050565b6002818051602081018201805184825260208301602085012081835280955050505050505f91509050805f018054610ec290614037565b80601f0160208091040260200160405190810160405280929190818152602001828054610eee90614037565b8015610f395780601f10610f1057610100808354040283529160200191610f39565b820191905f5260205f20905b815481529060010190602001808311610f1c57829003601f168201915b505050505090806001015490806002018054610f5490614037565b80601f0160208091040260200160405190810160405280929190818152602001828054610f8090614037565b8015610fcb5780601f10610fa257610100808354040283529160200191610fcb565b820191905f5260205f20905b815481529060010190602001808311610fae57829003601f168201915b505050505090806003015f9054906101000a900460ff16908060040154905085565b5f610ff9336040611ab2565b611038576040517f08c379a000000000000000000000000000000000000000000000000000000000815260040161102f90613ecc565b60405180910390fd5b825f60018260405161104a9190613f24565b9081526020016040518091039020600201540361109c576040517f08c379a000000000000000000000000000000000000000000000000000000000815260040161109390613fec565b60405180910390fd5b600260038111156110b0576110af6135d7565b5b6001856040516110c09190613f24565b908152602001604051809103902060010160019054906101000a900460ff1660038111156110f1576110f06135d7565b5b03611131576040517f08c379a000000000000000000000000000000000000000000000000000000000815260040161112890614413565b60405180910390fd5b60026001856040516111439190613f24565b908152602001604051809103902060010160016101000a81548160ff02191690836003811115611176576111756135d7565b5b02179055504260018560405161118c9190613f24565b9081526020016040518091039020600301819055503373ffffffffffffffffffffffffffffffffffffffff16846040516111c69190613f24565b60405180910390207f0f79bf17bbb40c7f3964d874d86d8db800f84ee36d6bb1af59f1d009b8fae8a485426040516111ff929190614431565b60405180910390a3600191505092915050565b5f61121e336040611ab2565b61125d576040517f08c379a000000000000000000000000000000000000000000000000000000000815260040161125490613ecc565b60405180910390fd5b5f60028460405161126e9190613f24565b908152602001604051809103902060040154146112c0576040517f08c379a00000000000000000000000000000000000000000000000000000000081526004016112b7906144a9565b60405180910390fd5b5f835111611303576040517f08c379a00000000000000000000000000000000000000000000000000000000081526004016112fa90614511565b60405180910390fd5b5f8067ffffffffffffffff81111561131e5761131d6132fd565b5b60405190808252806020026020018201604052801561134c5781602001602082028036833780820191505090505b5090505f6040518060c0016040528086815260200185815260200160405180602001604052805f81525081526020015f600281111561138e5761138d6135d7565b5b8152602001428152602001838152509050806002866040516113b09190613f24565b90815260200160405180910390205f820151815f0190816113d1919061426c565b506020820151816001015560408201518160020190816113f1919061426c565b506060820151816003015f6101000a81548160ff0219169083600281111561141c5761141b6135d7565b5b02179055506080820151816004015560a08201518160050190805190602001906114479291906131b7565b50905050600685908060018154018082558091505060019003905f5260205f20015f90919091909150908161147c919061426c565b508460045f3373ffffffffffffffffffffffffffffffffffffffff1673ffffffffffffffffffffffffffffffffffffffff1681526020019081526020015f2090816114c7919061426c565b503373ffffffffffffffffffffffffffffffffffffffff16856040516114ed9190613f24565b60405180910390207fb13e9e763d8d60b28baaaac2eb3689b9862490eceeb8d72e090d827285def066864260405161152692919061452f565b60405180910390a360019250505092915050565b6001818051602081018201805184825260208301602085012081835280955050505050505f91509050805f01805461157190614037565b80601f016020809104026020016040519081016040528092919081815260200182805461159d90614037565b80156115e85780601f106115bf576101008083540402835291602001916115e8565b820191905f5260205f20905b8154815290600101906020018083116115cb57829003601f168201915b505050505090806001015f9054906101000a900460ff16908060010160019054906101000a900460ff1690806002015490806003015490806004015490806005015490806006015f9054906101000a900473ffffffffffffffffffffffffffffffffffffffff16905088565b5f611660336080611ab2565b61169f576040517f08c379a0000000000000000000000000000000000000000000000000000000008152600401611696906143ab565b60405180910390fd5b825f6001826040516116b19190613f24565b90815260200160405180910390206002015403611703576040517f08c379a00000000000000000000000000000000000000000000000000000000081526004016116fa90613fec565b60405180910390fd5b82196001856040516117159190613f24565b90815260200160405180910390206005015f8282541692505081905550426001856040516117439190613f24565b9081526020016040518091039020600301819055503373ffffffffffffffffffffffffffffffffffffffff168460405161177d9190613f24565b60405180910390207fea93182b272f835992ec4d598531773bc30c72c6e045d6a22b583ac43f9d20c485426040516117b6929190614556565b60405180910390a3600191505092915050565b6117d1613020565b6117da5f6130a7565b565b5f8060035f8573ffffffffffffffffffffffffffffffffffffffff1673ffffffffffffffffffffffffffffffffffffffff1681526020019081526020015f20805461182690614037565b80601f016020809104026020016040519081016040528092919081815260200182805461185290614037565b801561189d5780601f106118745761010080835404028352916020019161189d565b820191905f5260205f20905b81548152906001019060200180831161188057829003601f168201915b505050505090505f8151036118b5575f915050611aac565b5f6001826040516118c69190613f24565b9081526020016040518091039020604051806101000160405290815f820180546118ef90614037565b80601f016020809104026020016040519081016040528092919081815260200182805461191b90614037565b80156119665780601f1061193d57610100808354040283529160200191611966565b820191905f5260205f20905b81548152906001019060200180831161194957829003601f168201915b50505050508152602001600182015f9054906101000a900460ff166002811115611993576119926135d7565b5b60028111156119a5576119a46135d7565b5b81526020016001820160019054906101000a900460ff1660038111156119ce576119cd6135d7565b5b60038111156119e0576119df6135d7565b5b815260200160028201548152602001600382015481526020016004820154815260200160058201548152602001600682015f9054906101000a900473ffffffffffffffffffffffffffffffffffffffff1673ffffffffffffffffffffffffffffffffffffffff1673ffffffffffffffffffffffffffffffffffffffff1681525050905060016003811115611a7757611a766135d7565b5b81604001516003811115611a8e57611a8d6135d7565b5b14611a9d575f92505050611aac565b5f848260c00151161415925050505b92915050565b5f8060035f8573ffffffffffffffffffffffffffffffffffffffff1673ffffffffffffffffffffffffffffffffffffffff1681526020019081526020015f208054611afc90614037565b80601f0160208091040260200160405190810160405280929190818152602001828054611b2890614037565b8015611b735780601f10611b4a57610100808354040283529160200191611b73565b820191905f5260205f20905b815481529060010190602001808311611b5657829003601f168201915b505050505090505f815103611b8b575f915050611de2565b604051602001611b9a906145c7565b6040516020818303038152906040528051906020012081604051602001611bc19190613f24565b6040516020818303038152906040528051906020012003611beb575f836080161415915050611de2565b5f600182604051611bfc9190613f24565b9081526020016040518091039020604051806101000160405290815f82018054611c2590614037565b80601f0160208091040260200160405190810160405280929190818152602001828054611c5190614037565b8015611c9c5780601f10611c7357610100808354040283529160200191611c9c565b820191905f5260205f20905b815481529060010190602001808311611c7f57829003601f168201915b50505050508152602001600182015f9054906101000a900460ff166002811115611cc957611cc86135d7565b5b6002811115611cdb57611cda6135d7565b5b81526020016001820160019054906101000a900460ff166003811115611d0457611d036135d7565b5b6003811115611d1657611d156135d7565b5b815260200160028201548152602001600382015481526020016004820154815260200160058201548152602001600682015f9054906101000a900473ffffffffffffffffffffffffffffffffffffffff1673ffffffffffffffffffffffffffffffffffffffff1673ffffffffffffffffffffffffffffffffffffffff1681525050905060016003811115611dad57611dac6135d7565b5b81604001516003811115611dc457611dc36135d7565b5b14611dd3575f92505050611de2565b5f848260c00151161415925050505b92915050565b5f805f9054906101000a900473ffffffffffffffffffffffffffffffffffffffff16905090565b5f815f600182604051611e229190613f24565b90815260200160405180910390206002015403611e74576040517f08c379a0000000000000000000000000000000000000000000000000000000008152600401611e6b90613fec565b60405180910390fd5b600183604051611e849190613f24565b908152602001604051809103902060010160019054906101000a900460ff166003811115611eb557611eb46135d7565b5b915050919050565b6003602052805f5260405f205f915090508054611ed990614037565b80601f0160208091040260200160405190810160405280929190818152602001828054611f0590614037565b8015611f505780601f10611f2757610100808354040283529160200191611f50565b820191905f5260205f20905b815481529060010190602001808311611f3357829003601f168201915b505050505081565b60068181548110611f67575f80fd5b905f5260205f20015f915090508054611f7f90614037565b80601f0160208091040260200160405190810160405280929190818152602001828054611fab90614037565b8015611ff65780601f10611fcd57610100808354040283529160200191611ff6565b820191905f5260205f20905b815481529060010190602001808311611fd957829003601f168201915b505050505081565b5f600680549050905090565b5f612013611de8565b73ffffffffffffffffffffffffffffffffffffffff163373ffffffffffffffffffffffffffffffffffffffff1614806120535750612052336040611ab2565b5b612092576040517f08c379a000000000000000000000000000000000000000000000000000000000815260040161208990613ecc565b60405180910390fd5b8160035f8573ffffffffffffffffffffffffffffffffffffffff1673ffffffffffffffffffffffffffffffffffffffff1681526020019081526020015f2090816120dc919061426c565b506001905092915050565b600581815481106120f6575f80fd5b905f5260205f20015f91509050805461210e90614037565b80601f016020809104026020016040519081016040528092919081815260200182805461213a90614037565b80156121855780601f1061215c57610100808354040283529160200191612185565b820191905f5260205f20905b81548152906001019060200180831161216857829003601f168201915b505050505081565b6004602052805f5260405f205f9150905080546121a990614037565b80601f01602080910402602001604051908101604052809291908181526020018280546121d590614037565b80156122205780601f106121f757610100808354040283529160200191612220565b820191905f5260205f20905b81548152906001019060200180831161220357829003601f168201915b505050505081565b5f612234336040611ab2565b612273576040517f08c379a000000000000000000000000000000000000000000000000000000000815260040161226a90613ecc565b60405180910390fd5b5f6001876040516122849190613f24565b908152602001604051809103902060020154146122d6576040517f08c379a00000000000000000000000000000000000000000000000000000000081526004016122cd90614625565b60405180910390fd5b5f865111612319576040517f08c379a00000000000000000000000000000000000000000000000000000000081526004016123109061468d565b60405180910390fd5b5f73ffffffffffffffffffffffffffffffffffffffff168373ffffffffffffffffffffffffffffffffffffffff1603612387576040517f08c379a000000000000000000000000000000000000000000000000000000000815260040161237e906146f5565b60405180910390fd5b5f6040518061010001604052808881526020018760028111156123ad576123ac6135d7565b5b8152602001600160038111156123c6576123c56135d7565b5b81526020014281526020014281526020018681526020018481526020018573ffffffffffffffffffffffffffffffffffffffff168152509050806001886040516124109190613f24565b90815260200160405180910390205f820151815f019081612431919061426c565b506020820151816001015f6101000a81548160ff0219169083600281111561245c5761245b6135d7565b5b021790555060408201518160010160016101000a81548160ff0219169083600381111561248c5761248b6135d7565b5b0217905550606082015181600201556080820151816003015560a0820151816004015560c0820151816005015560e0820151816006015f6101000a81548173ffffffffffffffffffffffffffffffffffffffff021916908373ffffffffffffffffffffffffffffffffffffffff160217905550905050600587908060018154018082558091505060019003905f5260205f20015f909190919091509081612533919061426c565b508660035f8673ffffffffffffffffffffffffffffffffffffffff1673ffffffffffffffffffffffffffffffffffffffff1681526020019081526020015f20908161257e919061426c565b503373ffffffffffffffffffffffffffffffffffffffff16876040516125a49190613f24565b60405180910390207ffb2ee55cc7746e44f71c8e4259b4e371165b20aa33a9db5c4258ab6eb4141f6588426040516125dd929190614713565b60405180910390a35f8314612653573373ffffffffffffffffffffffffffffffffffffffff16876040516126119190613f24565b60405180910390207f930f876b0eafb77683945f6848f7ecb44e5a72acae7446143261ee11feb45d28854260405161264a929190614556565b60405180910390a35b600191505095945050505050565b5f61266d336040611ab2565b6126ac576040517f08c379a00000000000000000000000000000000000000000000000000000000081526004016126a390613ecc565b60405180910390fd5b825f6002826040516126be9190613f24565b90815260200160405180910390206004015403612710576040517f08c379a000000000000000000000000000000000000000000000000000000000815260040161270790613f84565b60405180910390fd5b5f73ffffffffffffffffffffffffffffffffffffffff168373ffffffffffffffffffffffffffffffffffffffff160361277e576040517f08c379a000000000000000000000000000000000000000000000000000000000815260040161277590614784565b60405180910390fd5b60028460405161278e9190613f24565b908152602001604051809103902060050183908060018154018082558091505060019003905f5260205f20015f9091909190916101000a81548173ffffffffffffffffffffffffffffffffffffffff021916908373ffffffffffffffffffffffffffffffffffffffff1602179055508360045f8573ffffffffffffffffffffffffffffffffffffffff1673ffffffffffffffffffffffffffffffffffffffff1681526020019081526020015f209081612847919061426c565b50600191505092915050565b5f61285f336080611ab2565b61289e576040517f08c379a0000000000000000000000000000000000000000000000000000000008152600401612895906143ab565b60405180910390fd5b815f6001826040516128b09190613f24565b90815260200160405180910390206002015403612902576040517f08c379a00000000000000000000000000000000000000000000000000000000081526004016128f990613fec565b60405180910390fd5b5f6003811115612915576129146135d7565b5b6001846040516129259190613f24565b908152602001604051809103902060010160019054906101000a900460ff166003811115612956576129556135d7565b5b14612996576040517f08c379a000000000000000000000000000000000000000000000000000000000815260040161298d906147ec565b60405180910390fd5b600180846040516129a79190613f24565b908152602001604051809103902060010160016101000a81548160ff021916908360038111156129da576129d96135d7565b5b0217905550426001846040516129f09190613f24565b9081526020016040518091039020600301819055503373ffffffffffffffffffffffffffffffffffffffff1683604051612a2a9190613f24565b60405180910390207fd55f84792db67b05a3c97deae9d02dc26d461105199f24852fd5468b7e68d1f242604051612a61919061380c565b60405180910390a36001915050919050565b5f612a7f336040611ab2565b612abe576040517f08c379a0000000000000000000000000000000000000000000000000000000008152600401612ab590613ecc565b60405180910390fd5b815f600282604051612ad09190613f24565b90815260200160405180910390206004015403612b22576040517f08c379a0000000000000000000000000000000000000000000000000000000008152600401612b1990613f84565b60405180910390fd5b60028084604051612b339190613f24565b90815260200160405180910390206003015f6101000a81548160ff02191690836002811115612b6557612b646135d7565b5b02179055506001915050919050565b612b7c613020565b5f73ffffffffffffffffffffffffffffffffffffffff168173ffffffffffffffffffffffffffffffffffffffff1603612bec575f6040517f1e4fbdf7000000000000000000000000000000000000000000000000000000008152600401612be39190613b78565b60405180910390fd5b612bf5816130a7565b50565b612c0061323e565b815f600182604051612c129190613f24565b90815260200160405180910390206002015403612c64576040517f08c379a0000000000000000000000000000000000000000000000000000000008152600401612c5b90613fec565b60405180910390fd5b600183604051612c749190613f24565b9081526020016040518091039020604051806101000160405290815f82018054612c9d90614037565b80601f0160208091040260200160405190810160405280929190818152602001828054612cc990614037565b8015612d145780601f10612ceb57610100808354040283529160200191612d14565b820191905f5260205f20905b815481529060010190602001808311612cf757829003601f168201915b50505050508152602001600182015f9054906101000a900460ff166002811115612d4157612d406135d7565b5b6002811115612d5357612d526135d7565b5b81526020016001820160019054906101000a900460ff166003811115612d7c57612d7b6135d7565b5b6003811115612d8e57612d8d6135d7565b5b815260200160028201548152602001600382015481526020016004820154815260200160058201548152602001600682015f9054906101000a900473ffffffffffffffffffffffffffffffffffffffff1673ffffffffffffffffffffffffffffffffffffffff1673ffffffffffffffffffffffffffffffffffffffff1681525050915050919050565b5f612e23336080611ab2565b612e62576040517f08c379a0000000000000000000000000000000000000000000000000000000008152600401612e59906143ab565b60405180910390fd5b825f600182604051612e749190613f24565b90815260200160405180910390206002015403612ec6576040517f08c379a0000000000000000000000000000000000000000000000000000000008152600401612ebd90613fec565b60405180910390fd5b60016003811115612eda57612ed96135d7565b5b600185604051612eea9190613f24565b908152602001604051809103902060010160019054906101000a900460ff166003811115612f1b57612f1a6135d7565b5b14612f5b576040517f08c379a0000000000000000000000000000000000000000000000000000000008152600401612f5290614854565b60405180910390fd5b82600185604051612f6c9190613f24565b90815260200160405180910390206005015f828254179250508190555042600185604051612f9a9190613f24565b9081526020016040518091039020600301819055503373ffffffffffffffffffffffffffffffffffffffff1684604051612fd49190613f24565b60405180910390207f930f876b0eafb77683945f6848f7ecb44e5a72acae7446143261ee11feb45d28854260405161300d929190614556565b60405180910390a3600191505092915050565b613028613168565b73ffffffffffffffffffffffffffffffffffffffff16613046611de8565b73ffffffffffffffffffffffffffffffffffffffff16146130a557613069613168565b6040517f118cdaa700000000000000000000000000000000000000000000000000000000815260040161309c9190613b78565b60405180910390fd5b565b5f805f9054906101000a900473ffffffffffffffffffffffffffffffffffffffff169050815f806101000a81548173ffffffffffffffffffffffffffffffffffffffff021916908373ffffffffffffffffffffffffffffffffffffffff1602179055508173ffffffffffffffffffffffffffffffffffffffff168173ffffffffffffffffffffffffffffffffffffffff167f8be0079c531659141344cd1fd0a4f28419497f9722a3daafe3b4186f6b6457e060405160405180910390a35050565b5f33905090565b6040518060c00160405280606081526020015f8019168152602001606081526020015f60028111156131a4576131a36135d7565b5b81526020015f8152602001606081525090565b828054828255905f5260205f2090810192821561322d579160200282015b8281111561322c578251825f6101000a81548173ffffffffffffffffffffffffffffffffffffffff021916908373ffffffffffffffffffffffffffffffffffffffff160217905550916020019190600101906131d5565b5b50905061323a91906132b9565b5090565b604051806101000160405280606081526020015f6002811115613264576132636135d7565b5b81526020015f600381111561327c5761327b6135d7565b5b81526020015f81526020015f81526020015f80191681526020015f81526020015f73ffffffffffffffffffffffffffffffffffffffff1681525090565b5b808211156132d0575f815f9055506001016132ba565b5090565b5f604051905090565b5f80fd5b5f80fd5b5f80fd5b5f80fd5b5f601f19601f8301169050919050565b7f4e487b71000000000000000000000000000000000000000000000000000000005f52604160045260245ffd5b613333826132ed565b810181811067ffffffffffffffff82111715613352576133516132fd565b5b80604052505050565b5f6133646132d4565b9050613370828261332a565b919050565b5f67ffffffffffffffff82111561338f5761338e6132fd565b5b613398826132ed565b9050602081019050919050565b828183375f83830152505050565b5f6133c56133c084613375565b61335b565b9050828152602081018484840111156133e1576133e06132e9565b5b6133ec8482856133a5565b509392505050565b5f82601f830112613408576134076132e5565b5b81356134188482602086016133b3565b91505092915050565b5f8060408385031215613437576134366132dd565b5b5f83013567ffffffffffffffff811115613454576134536132e1565b5b613460858286016133f4565b925050602083013567ffffffffffffffff811115613481576134806132e1565b5b61348d858286016133f4565b9150509250929050565b5f8115159050919050565b6134ab81613497565b82525050565b5f6020820190506134c45f8301846134a2565b92915050565b5f602082840312156134df576134de6132dd565b5b5f82013567ffffffffffffffff8111156134fc576134fb6132e1565b5b613508848285016133f4565b91505092915050565b5f60ff82169050919050565b61352681613511565b82525050565b5f60208201905061353f5f83018461351d565b92915050565b5f81519050919050565b5f82825260208201905092915050565b5f5b8381101561357c578082015181840152602081019050613561565b5f8484015250505050565b5f61359182613545565b61359b818561354f565b93506135ab81856020860161355f565b6135b4816132ed565b840191505092915050565b5f819050919050565b6135d1816135bf565b82525050565b7f4e487b71000000000000000000000000000000000000000000000000000000005f52602160045260245ffd5b60038110613615576136146135d7565b5b50565b5f81905061362582613604565b919050565b5f61363482613618565b9050919050565b6136448161362a565b82525050565b5f819050919050565b61365c8161364a565b82525050565b5f81519050919050565b5f82825260208201905092915050565b5f819050602082019050919050565b5f73ffffffffffffffffffffffffffffffffffffffff82169050919050565b5f6136b48261368b565b9050919050565b6136c4816136aa565b82525050565b5f6136d583836136bb565b60208301905092915050565b5f602082019050919050565b5f6136f782613662565b613701818561366c565b935061370c8361367c565b805f5b8381101561373c57815161372388826136ca565b975061372e836136e1565b92505060018101905061370f565b5085935050505092915050565b5f60c083015f8301518482035f8601526137638282613587565b915050602083015161377860208601826135c8565b50604083015184820360408601526137908282613587565b91505060608301516137a5606086018261363b565b5060808301516137b86080860182613653565b5060a083015184820360a08601526137d082826136ed565b9150508091505092915050565b5f6020820190508181035f8301526137f58184613749565b905092915050565b6138068161364a565b82525050565b5f60208201905061381f5f8301846137fd565b92915050565b5f82825260208201905092915050565b5f61383f82613545565b6138498185613825565b935061385981856020860161355f565b613862816132ed565b840191505092915050565b613876816135bf565b82525050565b6138858161362a565b82525050565b5f60a0820190508181035f8301526138a38188613835565b90506138b2602083018761386d565b81810360408301526138c48186613835565b90506138d3606083018561387c565b6138e060808301846137fd565b9695505050505050565b6138f3816135bf565b81146138fd575f80fd5b50565b5f8135905061390e816138ea565b92915050565b5f806040838503121561392a576139296132dd565b5b5f83013567ffffffffffffffff811115613947576139466132e1565b5b613953858286016133f4565b925050602061396485828601613900565b9150509250929050565b6003811061397f5761397e6135d7565b5b50565b5f81905061398f8261396e565b919050565b5f61399e82613982565b9050919050565b6139ae81613994565b82525050565b600481106139c5576139c46135d7565b5b50565b5f8190506139d5826139b4565b919050565b5f6139e4826139c8565b9050919050565b6139f4816139da565b82525050565b613a03816136aa565b82525050565b5f610100820190508181035f830152613a22818b613835565b9050613a31602083018a6139a5565b613a3e60408301896139eb565b613a4b60608301886137fd565b613a5860808301876137fd565b613a6560a083018661386d565b613a7260c08301856137fd565b613a7f60e08301846139fa565b9998505050505050505050565b613a958161364a565b8114613a9f575f80fd5b50565b5f81359050613ab081613a8c565b92915050565b5f8060408385031215613acc57613acb6132dd565b5b5f83013567ffffffffffffffff811115613ae957613ae86132e1565b5b613af5858286016133f4565b9250506020613b0685828601613aa2565b9150509250929050565b613b19816136aa565b8114613b23575f80fd5b50565b5f81359050613b3481613b10565b92915050565b5f8060408385031215613b5057613b4f6132dd565b5b5f613b5d85828601613b26565b9250506020613b6e85828601613aa2565b9150509250929050565b5f602082019050613b8b5f8301846139fa565b92915050565b5f60208284031215613ba657613ba56132dd565b5b5f613bb384828501613b26565b91505092915050565b5f6020820190508181035f830152613bd48184613835565b905092915050565b5f60208284031215613bf157613bf06132dd565b5b5f613bfe84828501613aa2565b91505092915050565b5f8060408385031215613c1d57613c1c6132dd565b5b5f613c2a85828601613b26565b925050602083013567ffffffffffffffff811115613c4b57613c4a6132e1565b5b613c57858286016133f4565b9150509250929050565b60038110613c6d575f80fd5b50565b5f81359050613c7e81613c61565b92915050565b5f805f805f60a08688031215613c9d57613c9c6132dd565b5b5f86013567ffffffffffffffff811115613cba57613cb96132e1565b5b613cc6888289016133f4565b9550506020613cd788828901613c70565b9450506040613ce888828901613900565b9350506060613cf988828901613b26565b9250506080613d0a88828901613aa2565b9150509295509295909350565b5f8060408385031215613d2d57613d2c6132dd565b5b5f83013567ffffffffffffffff811115613d4a57613d496132e1565b5b613d56858286016133f4565b9250506020613d6785828601613b26565b9150509250929050565b613d7a81613994565b82525050565b613d89816139da565b82525050565b5f61010083015f8301518482035f860152613daa8282613587565b9150506020830151613dbf6020860182613d71565b506040830151613dd26040860182613d80565b506060830151613de56060860182613653565b506080830151613df86080860182613653565b5060a0830151613e0b60a08601826135c8565b5060c0830151613e1e60c0860182613653565b5060e0830151613e3160e08601826136bb565b508091505092915050565b5f6020820190508181035f830152613e548184613d8f565b905092915050565b7f4e6f7420617574686f72697a65643a20504c4154464f524d20726f6c652072655f8201527f7175697265640000000000000000000000000000000000000000000000000000602082015250565b5f613eb6602683613825565b9150613ec182613e5c565b604082019050919050565b5f6020820190508181035f830152613ee381613eaa565b9050919050565b5f81905092915050565b5f613efe82613545565b613f088185613eea565b9350613f1881856020860161355f565b80840191505092915050565b5f613f2f8284613ef4565b915081905092915050565b7f5573657220646f6573206e6f74206578697374000000000000000000000000005f82015250565b5f613f6e601383613825565b9150613f7982613f3a565b602082019050919050565b5f6020820190508181035f830152613f9b81613f62565b9050919050565b7f4d656d62657220646f6573206e6f7420657869737400000000000000000000005f82015250565b5f613fd6601583613825565b9150613fe182613fa2565b602082019050919050565b5f6020820190508181035f83015261400381613fca565b9050919050565b7f4e487b71000000000000000000000000000000000000000000000000000000005f52602260045260245ffd5b5f600282049050600182168061404e57607f821691505b6020821081036140615761406061400a565b5b50919050565b7f5573657220616c7265616479206c696e6b6564000000000000000000000000005f82015250565b5f61409b601383613825565b91506140a682614067565b602082019050919050565b5f6020820190508181035f8301526140c88161408f565b9050919050565b5f819050815f5260205f209050919050565b5f6020601f8301049050919050565b5f82821b905092915050565b5f6008830261412b7fffffffffffffffffffffffffffffffffffffffffffffffffffffffffffffffff826140f0565b61413586836140f0565b95508019841693508086168417925050509392505050565b5f819050919050565b5f61417061416b6141668461364a565b61414d565b61364a565b9050919050565b5f819050919050565b61418983614156565b61419d61419582614177565b8484546140fc565b825550505050565b5f90565b6141b16141a5565b6141bc818484614180565b505050565b5b818110156141df576141d45f826141a9565b6001810190506141c2565b5050565b601f821115614224576141f5816140cf565b6141fe846140e1565b8101602085101561420d578190505b614221614219856140e1565b8301826141c1565b50505b505050565b5f82821c905092915050565b5f6142445f1984600802614229565b1980831691505092915050565b5f61425c8383614235565b9150826002028217905092915050565b61427582613545565b67ffffffffffffffff81111561428e5761428d6132fd565b5b6142988254614037565b6142a38282856141e3565b5f60209050601f8311600181146142d4575f84156142c2578287015190505b6142cc8582614251565b865550614333565b601f1984166142e2866140cf565b5f5b82811015614309578489015182556001820191506020850194506020810190506142e4565b868310156143265784890151614322601f891682614235565b8355505b6001600288020188555050505b505050505050565b7f4e6f7420617574686f72697a65643a20474f5645524e414e434520726f6c65205f8201527f7265717569726564000000000000000000000000000000000000000000000000602082015250565b5f614395602883613825565b91506143a08261433b565b604082019050919050565b5f6020820190508181035f8301526143c281614389565b9050919050565b7f4d656d62657220616c72656164792073757370656e64656400000000000000005f82015250565b5f6143fd601883613825565b9150614408826143c9565b602082019050919050565b5f6020820190508181035f83015261442a816143f1565b9050919050565b5f6040820190508181035f8301526144498185613835565b905061445860208301846137fd565b9392505050565b7f5573657220616c726561647920657869737473000000000000000000000000005f82015250565b5f614493601383613825565b915061449e8261445f565b602082019050919050565b5f6020820190508181035f8301526144c081614487565b9050919050565b7f496e76616c6964207573657220494400000000000000000000000000000000005f82015250565b5f6144fb600f83613825565b9150614506826144c7565b602082019050919050565b5f6020820190508181035f830152614528816144ef565b9050919050565b5f6040820190506145425f83018561386d565b61454f60208301846137fd565b9392505050565b5f6040820190506145695f8301856137fd565b61457660208301846137fd565b9392505050565b7f474f5645524e414e4345000000000000000000000000000000000000000000005f82015250565b5f6145b1600a83613eea565b91506145bc8261457d565b600a82019050919050565b5f6145d1826145a5565b9150819050919050565b7f4d656d62657220616c72656164792065786973747300000000000000000000005f82015250565b5f61460f601583613825565b915061461a826145db565b602082019050919050565b5f6020820190508181035f83015261463c81614603565b9050919050565b7f496e76616c6964206d656d6265722047494300000000000000000000000000005f82015250565b5f614677601283613825565b915061468282614643565b602082019050919050565b5f6020820190508181035f8301526146a48161466b565b9050919050565b7f496e76616c6964207573657220616464726573730000000000000000000000005f82015250565b5f6146df601483613825565b91506146ea826146ab565b602082019050919050565b5f6020820190508181035f83015261470c816146d3565b9050919050565b5f6040820190506147265f8301856139a5565b61473360208301846137fd565b9392505050565b7f496e76616c6964206164647265737300000000000000000000000000000000005f82015250565b5f61476e600f83613825565b91506147798261473a565b602082019050919050565b5f6020820190508181035f83015261479b81614762565b9050919050565b7f4d656d626572206e6f742070656e64696e6700000000000000000000000000005f82015250565b5f6147d6601283613825565b91506147e1826147a2565b602082019050919050565b5f6020820190508181035f830152614803816147ca565b9050919050565b7f4d656d626572206e6f74206163746976650000000000000000000000000000005f82015250565b5f61483e601183613825565b91506148498261480a565b602082019050919050565b5f6020820190508181035f83015261486b81614832565b905091905056fea26469706673582212208ae4020c9d81421cfc5d224fc70e719629bafbabf9469ebe1598c13d6008e61764736f6c63430008180033","linkReferences":{}},"methodIdentifiers":{"activateUser(string)":"2b3fafb2","addUserAdminAddress(string,address)":"d10a9f68","addressToMemberGIC(address)":"93a02082","addressToUserId(address)":"b5ffbbcc","approveMember(string)":"d6e9f495","assignRole(string,uint256)":"ff1484ca","getMemberDetails(string)":"fe1d3fd2","getMemberStatus(string)":"8e690fc5","getMembersCount()":"09772f8f","getUserDetails(string)":"085ba074","getUserStatus(string)":"07e9c883","getUsersCount()":"a4a1e263","isMemberInRole(address,uint256)":"8cbdcead","linkAddressToMember(address,string)":"a9d23d46","linkUserToMember(string,string)":"04418790","memberList(uint256)":"b307fc6d","members(string)":"6957a0b2","owner()":"8da5cb5b","registerMember(string,uint8,bytes32,address,uint256)":"cd77022c","registerUser(string,bytes32)":"68ae5563","renounceOwnership()":"715018a6","revokeRole(string,uint256)":"6a769c29","suspendMember(string,string)":"689f2ed2","suspendUser(string)":"e106c71a","terminateMember(string)":"3b8cd7dc","transferOwnership(address)":"f2fde38b","userList(uint256)":"9f4216e8","users(string)":"689e1c03","validatePermission(address,uint256)":"7c0f8882"},"id":1}