{"abi":[{"type":"constructor","inputs":[],"stateMutability":"nonpayable"},{"type":"function","name":"activateUser","inputs":[{"name":"userId","type":"string","internalType":"string"}],"outputs":[{"name":"","type":"bool","internalType":"bool"}],"stateMutability":"nonpayable"},{"type":"function","name":"addUserAdminAddress","inputs":[{"name":"userId","type":"string","internalType":"string"},{"name":"adminAddress","type":"address","internalType":"address"}],"outputs":[{"name":"","type":"bool","internalType":"bool"}],"stateMutability":"nonpayable"},{"type":"function","name":"addressToMemberGIC","inputs":[{"name":"","type":"address","internalType":"address"}],"outputs":[{"name":"","type":"string","internalType":"string"}],"stateMutability":"view"},{"type":"function","name":"addressToUserId","inputs":[{"name":"","type":"address","internalType":"address"}],"outputs":[{"name":"","type":"string","internalType":"string"}],"stateMutability":"view"},{"type":"function","name":"approveMember","inputs":[{"name":"memberGIC","type":"string","internalType":"string"}],"outputs":[{"name":"","type":"bool","internalType":"bool"}],"stateMutability":"nonpayable"},{"type":"function","name":"assignRole","inputs":[{"name":"memberGIC","type":"string","internalType":"string"},{"name":"role","type":"uint256","internalType":"uint256"}],"outputs":[{"name":"","type":"bool","internalType":"bool"}],"stateMutability":"nonpayable"},{"type":"function","name":"getMemberDetails","inputs":[{"name":"memberGIC","type":"string","internalType":"string"}],"outputs":[{"name":"","type":"tuple","internalType":"struct MemberRegistry.Member","components":[{"name":"memberGIC","type":"string","internalType":"string"},{"name":"entityName","type":"string","internalType":"string"},{"name":"country","type":"string","internalType":"string"},{"name":"memberType","type":"uint8","internalType":"enum MemberRegistry.MemberType"},{"name":"status","type":"uint8","internalType":"enum MemberRegistry.MemberStatus"},{"name":"createdAt","type":"uint256","internalType":"uint256"},{"name":"updatedAt","type":"uint256","internalType":"uint256"},{"name":"memberHash","type":"bytes32","internalType":"bytes32"},{"name":"roles","type":"uint256","internalType":"uint256"}]}],"stateMutability":"view"},{"type":"function","name":"getMemberStatus","inputs":[{"name":"memberGIC","type":"string","internalType":"string"}],"outputs":[{"name":"","type":"uint8","internalType":"uint8"}],"stateMutability":"view"},{"type":"function","name":"getMembersCount","inputs":[],"outputs":[{"name":"","type":"uint256","internalType":"uint256"}],"stateMutability":"view"},{"type":"function","name":"getUserDetails","inputs":[{"name":"userId","type":"string","internalType":"string"}],"outputs":[{"name":"","type":"tuple","internalType":"struct MemberRegistry.User","components":[{"name":"userId","type":"string","internalType":"string"},{"name":"userHash","type":"bytes32","internalType":"bytes32"},{"name":"linkedMemberGIC","type":"string","internalType":"string"},{"name":"status","type":"uint8","internalType":"enum MemberRegistry.UserStatus"},{"name":"createdAt","type":"uint256","internalType":"uint256"},{"name":"adminAddresses","type":"address[]","internalType":"address[]"}]}],"stateMutability":"view"},{"type":"function","name":"getUserStatus","inputs":[{"name":"userId","type":"string","internalType":"string"}],"outputs":[{"name":"","type":"uint8","internalType":"uint8"}],"stateMutability":"view"},{"type":"function","name":"getUsersCount","inputs":[],"outputs":[{"name":"","type":"uint256","internalType":"uint256"}],"stateMutability":"view"},{"type":"function","name":"isMemberInRole","inputs":[{"name":"member","type":"address","internalType":"address"},{"name":"role","type":"uint256","internalType":"uint256"}],"outputs":[{"name":"","type":"bool","internalType":"bool"}],"stateMutability":"view"},{"type":"function","name":"linkAddressToMember","inputs":[{"name":"addr","type":"address","internalType":"address"},{"name":"memberGIC","type":"string","internalType":"string"}],"outputs":[{"name":"","type":"bool","internalType":"bool"}],"stateMutability":"nonpayable"},{"type":"function","name":"linkUserToMember","inputs":[{"name":"userId","type":"string","internalType":"string"},{"name":"memberGIC","type":"string","internalType":"string"}],"outputs":[{"name":"","type":"bool","internalType":"bool"}],"stateMutability":"nonpayable"},{"type":"function","name":"memberList","inputs":[{"name":"","type":"uint256","internalType":"uint256"}],"outputs":[{"name":"","type":"string","internalType":"string"}],"stateMutability":"view"},{"type":"function","name":"members","inputs":[{"name":"","type":"string","internalType":"string"}],"outputs":[{"name":"memberGIC","type":"string","internalType":"string"},{"name":"entityName","type":"string","internalType":"string"},{"name":"country","type":"string","internalType":"string"},{"name":"memberType","type":"uint8","internalType":"enum MemberRegistry.MemberType"},{"name":"status","type":"uint8","internalType":"enum MemberRegistry.MemberStatus"},{"name":"createdAt","type":"uint256","internalType":"uint256"},{"name":"updatedAt","type":"uint256","internalType":"uint256"},{"name":"memberHash","type":"bytes32","internalType":"bytes32"},{"name":"roles","type":"uint256","internalType":"uint256"}],"stateMutability":"view"},{"type":"function","name":"owner","inputs":[],"outputs":[{"name":"","type":"address","internalType":"address"}],"stateMutability":"view"},{"type":"function","name":"registerMember","inputs":[{"name":"memberGIC","type":"string","internalType":"string"},{"name":"entityName","type":"string","internalType":"string"},{"name":"country","type":"string","internalType":"string"},{"name":"memberType","type":"uint8","internalType":"enum MemberRegistry.MemberType"},{"name":"memberHash","type":"bytes32","internalType":"bytes32"}],"outputs":[{"name":"","type":"bool","internalType":"bool"}],"stateMutability":"nonpayable"},{"type":"function","name":"registerUser","inputs":[{"name":"userId","type":"string","internalType":"string"},{"name":"userHash","type":"bytes32","internalType":"bytes32"}],"outputs":[{"name":"","type":"bool","internalType":"bool"}],"stateMutability":"nonpayable"},{"type":"function","name":"renounceOwnership","inputs":[],"outputs":[],"stateMutability":"nonpayable"},{"type":"function","name":"revokeRole","inputs":[{"name":"memberGIC","type":"string","internalType":"string"},{"name":"role","type":"uint256","internalType":"uint256"}],"outputs":[{"name":"","type":"bool","internalType":"bool"}],"stateMutability":"nonpayable"},{"type":"function","name":"suspendMember","inputs":[{"name":"memberGIC","type":"string","internalType":"string"},{"name":"reason","type":"string","internalType":"string"}],"outputs":[{"name":"","type":"bool","internalType":"bool"}],"stateMutability":"nonpayable"},{"type":"function","name":"suspendUser","inputs":[{"name":"userId","type":"string","internalType":"string"}],"outputs":[{"name":"","type":"bool","internalType":"bool"}],"stateMutability":"nonpayable"},{"type":"function","name":"terminateMember","inputs":[{"name":"memberGIC","type":"string","internalType":"string"}],"outputs":[{"name":"","type":"bool","internalType":"bool"}],"stateMutability":"nonpayable"},{"type":"function","name":"transferOwnership","inputs":[{"name":"newOwner","type":"address","internalType":"address"}],"outputs":[],"stateMutability":"nonpayable"},{"type":"function","name":"userList","inputs":[{"name":"","type":"uint256","internalType":"uint256"}],"outputs":[{"name":"","type":"string","internalType":"string"}],"stateMutability":"view"},{"type":"function","name":"users","inputs":[{"name":"","type":"string","internalType":"string"}],"outputs":[{"name":"userId","type":"string","internalType":"string"},{"name":"userHash","type":"bytes32","internalType":"bytes32"},{"name":"linkedMemberGIC","type":"string","internalType":"string"},{"name":"status","type":"uint8","internalType":"enum MemberRegistry.UserStatus"},{"name":"createdAt","type":"uint256","internalType":"uint256"}],"stateMutability":"view"},{"type":"function","name":"validatePermission","inputs":[{"name":"member","type":"address","internalType":"address"},{"name":"role","type":"uint256","internalType":"uint256"}],"outputs":[{"name":"","type":"bool","internalType":"bool"}],"stateMutability":"view"},{"type":"event","name":"MemberApproved","inputs":[{"name":"memberGIC","type":"string","indexed":true,"internalType":"string"},{"name":"approvedBy","type":"address","indexed":true,"internalType":"address"},{"name":"timestamp","type":"uint256","indexed":false,"internalType":"uint256"}],"anonymous":false},{"type":"event","name":"MemberRegistered","inputs":[{"name":"memberGIC","type":"string","indexed":true,"internalType":"string"},{"name":"memberType","type":"uint8","indexed":false,"internalType":"enum MemberRegistry.MemberType"},{"name":"registeredBy","type":"address","indexed":true,"internalType":"address"},{"name":"timestamp","type":"uint256","indexed":false,"internalType":"uint256"}],"anonymous":false},{"type":"event","name":"MemberSuspended","inputs":[{"name":"memberGIC","type":"string","indexed":true,"internalType":"string"},{"name":"reason","type":"string","indexed":false,"internalType":"string"},{"name":"suspendedBy","type":"address","indexed":true,"internalType":"address"},{"name":"timestamp","type":"uint256","indexed":false,"internalType":"uint256"}],"anonymous":false},{"type":"event","name":"OwnershipTransferred","inputs":[{"name":"previousOwner","type":"address","indexed":true,"internalType":"address"},{"name":"newOwner","type":"address","indexed":true,"internalType":"address"}],"anonymous":false},{"type":"event","name":"RoleAssigned","inputs":[{"name":"memberGIC","type":"string","indexed":true,"internalType":"string"},{"name":"role","type":"uint256","indexed":false,"internalType":"uint256"},{"name":"assignedBy","type":"address","indexed":true,"internalType":"address"},{"name":"timestamp","type":"uint256","indexed":false,"internalType":"uint256"}],"anonymous":false},{"type":"event","name":"RoleRevoked","inputs":[{"name":"memberGIC","type":"string","indexed":true,"internalType":"string"},{"name":"role","type":"uint256","indexed":false,"internalType":"uint256"},{"name":"revokedBy","type":"address","indexed":true,"internalType":"address"},{"name":"timestamp","type":"uint256","indexed":false,"internalType":"uint256"}],"anonymous":false},{"type":"event","name":"UserLinkedToMember","inputs":[{"name":"userId","type":"string","indexed":true,"internalType":"string"},{"name":"memberGIC","type":"string","indexed":true,"internalType":"string"},{"name":"linkedBy","type":"address","indexed":true,"internalType":"address"},{"name":"timestamp","type":"uint256","indexed":false,"internalType":"uint256"}],"anonymous":false},{"type":"event","name":"UserRegistered","inputs":[{"name":"userId","type":"string","indexed":true,"internalType":"string"},{"name":"userHash","type":"bytes32","indexed":false,"internalType":"bytes32"},{"name":"registeredBy","type":"address","indexed":true,"internalType":"address"},{"name":"timestamp","type":"uint256","indexed":false,"internalType":"uint256"}],"anonymous":false},{"type":"error","name":"OwnableInvalidOwner","inputs":[{"name":"owner","type":"address","internalType":"address"}]},{"type":"error","name":"OwnableUnauthorizedAccount","inputs":[{"name":"account","type":"address","internalType":"address"}]}],"bytecode":{"object":"0x608060405234801561000f575f5ffd5b50335f73ffffffffffffffffffffffffffffffffffffffff168173ffffffffffffffffffffffffffffffffffffffff1603610081575f6040517f1e4fbdf70000000000000000000000000000000000000000000000000000000081526004016100789190610216565b60405180910390fd5b6100908161011660201b60201c565b506040518060400160405280600881526020017f504c4154464f524d00000000000000000000000000000000000000000000000081525060035f3373ffffffffffffffffffffffffffffffffffffffff1673ffffffffffffffffffffffffffffffffffffffff1681526020019081526020015f209081610110919061046c565b5061053b565b5f5f5f9054906101000a900473ffffffffffffffffffffffffffffffffffffffff169050815f5f6101000a81548173ffffffffffffffffffffffffffffffffffffffff021916908373ffffffffffffffffffffffffffffffffffffffff1602179055508173ffffffffffffffffffffffffffffffffffffffff168173ffffffffffffffffffffffffffffffffffffffff167f8be0079c531659141344cd1fd0a4f28419497f9722a3daafe3b4186f6b6457e060405160405180910390a35050565b5f73ffffffffffffffffffffffffffffffffffffffff82169050919050565b5f610200826101d7565b9050919050565b610210816101f6565b82525050565b5f6020820190506102295f830184610207565b92915050565b5f81519050919050565b7f4e487b71000000000000000000000000000000000000000000000000000000005f52604160045260245ffd5b7f4e487b71000000000000000000000000000000000000000000000000000000005f52602260045260245ffd5b5f60028204905060018216806102aa57607f821691505b6020821081036102bd576102bc610266565b5b50919050565b5f819050815f5260205f209050919050565b5f6020601f8301049050919050565b5f82821b905092915050565b5f6008830261031f7fffffffffffffffffffffffffffffffffffffffffffffffffffffffffffffffff826102e4565b61032986836102e4565b95508019841693508086168417925050509392505050565b5f819050919050565b5f819050919050565b5f61036d61036861036384610341565b61034a565b610341565b9050919050565b5f819050919050565b61038683610353565b61039a61039282610374565b8484546102f0565b825550505050565b5f5f905090565b6103b16103a2565b6103bc81848461037d565b505050565b5b818110156103df576103d45f826103a9565b6001810190506103c2565b5050565b601f821115610424576103f5816102c3565b6103fe846102d5565b8101602085101561040d578190505b610421610419856102d5565b8301826103c1565b50505b505050565b5f82821c905092915050565b5f6104445f1984600802610429565b1980831691505092915050565b5f61045c8383610435565b9150826002028217905092915050565b6104758261022f565b67ffffffffffffffff81111561048e5761048d610239565b5b6104988254610293565b6104a38282856103e3565b5f60209050601f8311600181146104d4575f84156104c2578287015190505b6104cc8582610451565b865550610533565b601f1984166104e2866102c3565b5f5b82811015610509578489015182556001820191506020850194506020810190506104e4565b868310156105265784890151610522601f891682610435565b8355505b6001600288020188555050505b505050505050565b614b51806105485f395ff3fe608060405234801561000f575f5ffd5b50600436106101cd575f3560e01c80638da5cb5b11610102578063b5ffbbcc116100a0578063e106c71a1161006f578063e106c71a14610631578063f2fde38b14610661578063fe1d3fd21461067d578063ff1484ca146106ad576101cd565b8063b5ffbbcc14610571578063d10a9f68146105a1578063d6e9f495146105d1578063d98e520f14610601576101cd565b80639f4216e8116100dc5780639f4216e8146104c3578063a4a1e263146104f3578063a9d23d4614610511578063b307fc6d14610541576101cd565b80638da5cb5b146104455780638e690fc51461046357806393a0208214610493576101cd565b8063689f2ed21161016f5780636a769c29116101495780636a769c29146103ab578063715018a6146103db5780637c0f8882146103e55780638cbdcead14610415576101cd565b8063689f2ed21461031357806368ae5563146103435780636957a0b214610373576101cd565b806309772f8f116101ab57806309772f8f146102615780632b3fafb21461027f5780633b8cd7dc146102af578063689e1c03146102df576101cd565b806304418790146101d157806307e9c88314610201578063085ba07414610231575b5f5ffd5b6101eb60048036038101906101e69190613673565b6106dd565b6040516101f89190613703565b60405180910390f35b61021b6004803603810190610216919061371c565b610914565b604051610228919061377e565b60405180910390f35b61024b6004803603810190610246919061371c565b6109c1565b6040516102589190613a15565b60405180910390f35b610269610c56565b6040516102769190613a44565b60405180910390f35b6102996004803603810190610294919061371c565b610c62565b6040516102a69190613703565b60405180910390f35b6102c960048036038101906102c4919061371c565b610d63565b6040516102d69190613703565b60405180910390f35b6102f960048036038101906102f4919061371c565b610e8c565b60405161030a959493929190613ac3565b60405180910390f35b61032d60048036038101906103289190613673565b610fee565b60405161033a9190613703565b60405180910390f35b61035d60048036038101906103589190613b4c565b611213565b60405161036a9190613703565b60405180910390f35b61038d6004803603810190610388919061371c565b61153b565b6040516103a299989796959493929190613c32565b60405180910390f35b6103c560048036038101906103c09190613cfc565b611748565b6040516103d29190613703565b60405180910390f35b6103e36118bd565b005b6103ff60048036038101906103fa9190613d80565b6118d0565b60405161040c9190613703565b60405180910390f35b61042f600480360381019061042a9190613d80565b611c72565b60405161043c9190613703565b60405180910390f35b61044d6120d4565b60405161045a9190613dcd565b60405180910390f35b61047d6004803603810190610478919061371c565b6120fb565b60405161048a919061377e565b60405180910390f35b6104ad60048036038101906104a89190613de6565b6121a9565b6040516104ba9190613e11565b60405180910390f35b6104dd60048036038101906104d89190613e31565b612244565b6040516104ea9190613e11565b60405180910390f35b6104fb6122ea565b6040516105089190613a44565b60405180910390f35b61052b60048036038101906105269190613e5c565b6122f6565b6040516105389190613703565b60405180910390f35b61055b60048036038101906105569190613e31565b6123d3565b6040516105689190613e11565b60405180910390f35b61058b60048036038101906105869190613de6565b612479565b6040516105989190613e11565b60405180910390f35b6105bb60048036038101906105b69190613eb6565b612514565b6040516105c89190613703565b60405180910390f35b6105eb60048036038101906105e6919061371c565b612706565b6040516105f89190613703565b60405180910390f35b61061b60048036038101906106169190613f33565b612926565b6040516106289190613703565b60405180910390f35b61064b6004803603810190610646919061371c565b612c0e565b6040516106589190613703565b60405180910390f35b61067b60048036038101906106769190613de6565b612d0f565b005b6106976004803603810190610692919061371c565b612d93565b6040516106a491906140ec565b60405180910390f35b6106c760048036038101906106c29190613cfc565b61307d565b6040516106d49190613703565b60405180910390f35b5f6106e9336040611c72565b610728576040517f08c379a000000000000000000000000000000000000000000000000000000000815260040161071f9061417c565b60405180910390fd5b825f60028260405161073a91906141d4565b9081526020016040518091039020600401540361078c576040517f08c379a000000000000000000000000000000000000000000000000000000000815260040161078390614234565b60405180910390fd5b825f60018260405161079e91906141d4565b908152602001604051809103902060040154036107f0576040517f08c379a00000000000000000000000000000000000000000000000000000000081526004016107e79061429c565b60405180910390fd5b5f60028660405161080191906141d4565b9081526020016040518091039020600201805461081d906142e7565b90501461085f576040517f08c379a000000000000000000000000000000000000000000000000000000000815260040161085690614361565b60405180910390fd5b8360028660405161087091906141d4565b9081526020016040518091039020600201908161088d919061451f565b503373ffffffffffffffffffffffffffffffffffffffff16846040516108b391906141d4565b6040518091039020866040516108c991906141d4565b60405180910390207fd1b268239537a25c14e2eac10da2a119aa3cf3961279b9a7a08d88ce228fae9f426040516109009190613a44565b60405180910390a460019250505092915050565b5f815f60028260405161092791906141d4565b90815260200160405180910390206004015403610979576040517f08c379a000000000000000000000000000000000000000000000000000000000815260040161097090614234565b60405180910390fd5b60028360405161098991906141d4565b90815260200160405180910390206003015f9054906101000a900460ff1660028111156109b9576109b861380f565b5b915050919050565b6109c96133d5565b815f6002826040516109db91906141d4565b90815260200160405180910390206004015403610a2d576040517f08c379a0000000000000000000000000000000000000000000000000000000008152600401610a2490614234565b60405180910390fd5b600283604051610a3d91906141d4565b90815260200160405180910390206040518060c00160405290815f82018054610a65906142e7565b80601f0160208091040260200160405190810160405280929190818152602001828054610a91906142e7565b8015610adc5780601f10610ab357610100808354040283529160200191610adc565b820191905f5260205f20905b815481529060010190602001808311610abf57829003601f168201915b5050505050815260200160018201548152602001600282018054610aff906142e7565b80601f0160208091040260200160405190810160405280929190818152602001828054610b2b906142e7565b8015610b765780601f10610b4d57610100808354040283529160200191610b76565b820191905f5260205f20905b815481529060010190602001808311610b5957829003601f168201915b50505050508152602001600382015f9054906101000a900460ff166002811115610ba357610ba261380f565b5b6002811115610bb557610bb461380f565b5b81526020016004820154815260200160058201805480602002602001604051908101604052809291908181526020018280548015610c4557602002820191905f5260205f20905b815f9054906101000a900473ffffffffffffffffffffffffffffffffffffffff1673ffffffffffffffffffffffffffffffffffffffff1681526020019060010190808311610bfc575b505050505081525050915050919050565b5f600580549050905090565b5f610c6e336040611c72565b610cad576040517f08c379a0000000000000000000000000000000000000000000000000000000008152600401610ca49061417c565b60405180910390fd5b815f600282604051610cbf91906141d4565b90815260200160405180910390206004015403610d11576040517f08c379a0000000000000000000000000000000000000000000000000000000008152600401610d0890614234565b60405180910390fd5b5f600284604051610d2291906141d4565b90815260200160405180910390206003015f6101000a81548160ff02191690836002811115610d5457610d5361380f565b5b02179055506001915050919050565b5f610d6f336080611c72565b610dae576040517f08c379a0000000000000000000000000000000000000000000000000000000008152600401610da59061465e565b60405180910390fd5b815f600182604051610dc091906141d4565b90815260200160405180910390206004015403610e12576040517f08c379a0000000000000000000000000000000000000000000000000000000008152600401610e099061429c565b60405180910390fd5b6003600184604051610e2491906141d4565b908152602001604051809103902060030160016101000a81548160ff02191690836003811115610e5757610e5661380f565b5b021790555042600184604051610e6d91906141d4565b9081526020016040518091039020600501819055506001915050919050565b6002818051602081018201805184825260208301602085012081835280955050505050505f91509050805f018054610ec3906142e7565b80601f0160208091040260200160405190810160405280929190818152602001828054610eef906142e7565b8015610f3a5780601f10610f1157610100808354040283529160200191610f3a565b820191905f5260205f20905b815481529060010190602001808311610f1d57829003601f168201915b505050505090806001015490806002018054610f55906142e7565b80601f0160208091040260200160405190810160405280929190818152602001828054610f81906142e7565b8015610fcc5780601f10610fa357610100808354040283529160200191610fcc565b820191905f5260205f20905b815481529060010190602001808311610faf57829003601f168201915b505050505090806003015f9054906101000a900460ff16908060040154905085565b5f610ffa336040611c72565b611039576040517f08c379a00000000000000000000000000000000000000000000000000000000081526004016110309061417c565b60405180910390fd5b825f60018260405161104b91906141d4565b9081526020016040518091039020600401540361109d576040517f08c379a00000000000000000000000000000000000000000000000000000000081526004016110949061429c565b60405180910390fd5b600260038111156110b1576110b061380f565b5b6001856040516110c191906141d4565b908152602001604051809103902060030160019054906101000a900460ff1660038111156110f2576110f161380f565b5b03611132576040517f08c379a0000000000000000000000000000000000000000000000000000000008152600401611129906146c6565b60405180910390fd5b600260018560405161114491906141d4565b908152602001604051809103902060030160016101000a81548160ff021916908360038111156111775761117661380f565b5b02179055504260018560405161118d91906141d4565b9081526020016040518091039020600501819055503373ffffffffffffffffffffffffffffffffffffffff16846040516111c791906141d4565b60405180910390207f0f79bf17bbb40c7f3964d874d86d8db800f84ee36d6bb1af59f1d009b8fae8a485426040516112009291906146e4565b60405180910390a3600191505092915050565b5f61121f336040611c72565b61125e576040517f08c379a00000000000000000000000000000000000000000000000000000000081526004016112559061417c565b60405180910390fd5b5f60028460405161126f91906141d4565b908152602001604051809103902060040154146112c1576040517f08c379a00000000000000000000000000000000000000000000000000000000081526004016112b89061475c565b60405180910390fd5b5f835111611304576040517f08c379a00000000000000000000000000000000000000000000000000000000081526004016112fb906147c4565b60405180910390fd5b5f5f67ffffffffffffffff81111561131f5761131e61354f565b5b60405190808252806020026020018201604052801561134d5781602001602082028036833780820191505090505b5090505f6040518060c0016040528086815260200185815260200160405180602001604052805f81525081526020015f600281111561138f5761138e61380f565b5b8152602001428152602001838152509050806002866040516113b191906141d4565b90815260200160405180910390205f820151815f0190816113d2919061451f565b506020820151816001015560408201518160020190816113f2919061451f565b506060820151816003015f6101000a81548160ff0219169083600281111561141d5761141c61380f565b5b02179055506080820151816004015560a082015181600501908051906020019061144892919061341a565b50905050600685908060018154018082558091505060019003905f5260205f20015f90919091909150908161147d919061451f565b508460045f3373ffffffffffffffffffffffffffffffffffffffff1673ffffffffffffffffffffffffffffffffffffffff1681526020019081526020015f2090816114c8919061451f565b503373ffffffffffffffffffffffffffffffffffffffff16856040516114ee91906141d4565b60405180910390207fb13e9e763d8d60b28baaaac2eb3689b9862490eceeb8d72e090d827285def06686426040516115279291906147e2565b60405180910390a360019250505092915050565b6001818051602081018201805184825260208301602085012081835280955050505050505f91509050805f018054611572906142e7565b80601f016020809104026020016040519081016040528092919081815260200182805461159e906142e7565b80156115e95780601f106115c0576101008083540402835291602001916115e9565b820191905f5260205f20905b8154815290600101906020018083116115cc57829003601f168201915b5050505050908060010180546115fe906142e7565b80601f016020809104026020016040519081016040528092919081815260200182805461162a906142e7565b80156116755780601f1061164c57610100808354040283529160200191611675565b820191905f5260205f20905b81548152906001019060200180831161165857829003601f168201915b50505050509080600201805461168a906142e7565b80601f01602080910402602001604051908101604052809291908181526020018280546116b6906142e7565b80156117015780601f106116d857610100808354040283529160200191611701565b820191905f5260205f20905b8154815290600101906020018083116116e457829003601f168201915b505050505090806003015f9054906101000a900460ff16908060030160019054906101000a900460ff16908060040154908060050154908060060154908060070154905089565b5f611754336080611c72565b611793576040517f08c379a000000000000000000000000000000000000000000000000000000000815260040161178a9061465e565b60405180910390fd5b825f6001826040516117a591906141d4565b908152602001604051809103902060040154036117f7576040517f08c379a00000000000000000000000000000000000000000000000000000000081526004016117ee9061429c565b60405180910390fd5b821960018560405161180991906141d4565b90815260200160405180910390206007015f82825416925050819055504260018560405161183791906141d4565b9081526020016040518091039020600501819055503373ffffffffffffffffffffffffffffffffffffffff168460405161187191906141d4565b60405180910390207fea93182b272f835992ec4d598531773bc30c72c6e045d6a22b583ac43f9d20c485426040516118aa929190614809565b60405180910390a3600191505092915050565b6118c5613286565b6118ce5f61330d565b565b5f5f60035f8573ffffffffffffffffffffffffffffffffffffffff1673ffffffffffffffffffffffffffffffffffffffff1681526020019081526020015f20805461191a906142e7565b80601f0160208091040260200160405190810160405280929190818152602001828054611946906142e7565b80156119915780601f1061196857610100808354040283529160200191611991565b820191905f5260205f20905b81548152906001019060200180831161197457829003601f168201915b505050505090505f8151036119a9575f915050611c6c565b5f6001826040516119ba91906141d4565b9081526020016040518091039020604051806101200160405290815f820180546119e3906142e7565b80601f0160208091040260200160405190810160405280929190818152602001828054611a0f906142e7565b8015611a5a5780601f10611a3157610100808354040283529160200191611a5a565b820191905f5260205f20905b815481529060010190602001808311611a3d57829003601f168201915b50505050508152602001600182018054611a73906142e7565b80601f0160208091040260200160405190810160405280929190818152602001828054611a9f906142e7565b8015611aea5780601f10611ac157610100808354040283529160200191611aea565b820191905f5260205f20905b815481529060010190602001808311611acd57829003601f168201915b50505050508152602001600282018054611b03906142e7565b80601f0160208091040260200160405190810160405280929190818152602001828054611b2f906142e7565b8015611b7a5780601f10611b5157610100808354040283529160200191611b7a565b820191905f5260205f20905b815481529060010190602001808311611b5d57829003601f168201915b50505050508152602001600382015f9054906101000a900460ff166002811115611ba757611ba661380f565b5b6002811115611bb957611bb861380f565b5b81526020016003820160019054906101000a900460ff166003811115611be257611be161380f565b5b6003811115611bf457611bf361380f565b5b8152602001600482015481526020016005820154815260200160068201548152602001600782015481525050905060016003811115611c3657611c3561380f565b5b81608001516003811115611c4d57611c4c61380f565b5b14611c5c575f92505050611c6c565b5f84826101000151161415925050505b92915050565b5f5f60035f8573ffffffffffffffffffffffffffffffffffffffff1673ffffffffffffffffffffffffffffffffffffffff1681526020019081526020015f208054611cbc906142e7565b80601f0160208091040260200160405190810160405280929190818152602001828054611ce8906142e7565b8015611d335780601f10611d0a57610100808354040283529160200191611d33565b820191905f5260205f20905b815481529060010190602001808311611d1657829003601f168201915b505050505090505f815103611d4b575f9150506120ce565b604051602001611d5a9061487a565b6040516020818303038152906040528051906020012081604051602001611d8191906141d4565b6040516020818303038152906040528051906020012003611dab575f8360401614159150506120ce565b604051602001611dba906148d8565b6040516020818303038152906040528051906020012081604051602001611de191906141d4565b6040516020818303038152906040528051906020012003611e0b575f8360801614159150506120ce565b5f600182604051611e1c91906141d4565b9081526020016040518091039020604051806101200160405290815f82018054611e45906142e7565b80601f0160208091040260200160405190810160405280929190818152602001828054611e71906142e7565b8015611ebc5780601f10611e9357610100808354040283529160200191611ebc565b820191905f5260205f20905b815481529060010190602001808311611e9f57829003601f168201915b50505050508152602001600182018054611ed5906142e7565b80601f0160208091040260200160405190810160405280929190818152602001828054611f01906142e7565b8015611f4c5780601f10611f2357610100808354040283529160200191611f4c565b820191905f5260205f20905b815481529060010190602001808311611f2f57829003601f168201915b50505050508152602001600282018054611f65906142e7565b80601f0160208091040260200160405190810160405280929190818152602001828054611f91906142e7565b8015611fdc5780601f10611fb357610100808354040283529160200191611fdc565b820191905f5260205f20905b815481529060010190602001808311611fbf57829003601f168201915b50505050508152602001600382015f9054906101000a900460ff1660028111156120095761200861380f565b5b600281111561201b5761201a61380f565b5b81526020016003820160019054906101000a900460ff1660038111156120445761204361380f565b5b60038111156120565761205561380f565b5b81526020016004820154815260200160058201548152602001600682015481526020016007820154815250509050600160038111156120985761209761380f565b5b816080015160038111156120af576120ae61380f565b5b146120be575f925050506120ce565b5f84826101000151161415925050505b92915050565b5f5f5f9054906101000a900473ffffffffffffffffffffffffffffffffffffffff16905090565b5f815f60018260405161210e91906141d4565b90815260200160405180910390206004015403612160576040517f08c379a00000000000000000000000000000000000000000000000000000000081526004016121579061429c565b60405180910390fd5b60018360405161217091906141d4565b908152602001604051809103902060030160019054906101000a900460ff1660038111156121a1576121a061380f565b5b915050919050565b6003602052805f5260405f205f9150905080546121c5906142e7565b80601f01602080910402602001604051908101604052809291908181526020018280546121f1906142e7565b801561223c5780601f106122135761010080835404028352916020019161223c565b820191905f5260205f20905b81548152906001019060200180831161221f57829003601f168201915b505050505081565b60068181548110612253575f80fd5b905f5260205f20015f91509050805461226b906142e7565b80601f0160208091040260200160405190810160405280929190818152602001828054612297906142e7565b80156122e25780601f106122b9576101008083540402835291602001916122e2565b820191905f5260205f20905b8154815290600101906020018083116122c557829003601f168201915b505050505081565b5f600680549050905090565b5f6122ff6120d4565b73ffffffffffffffffffffffffffffffffffffffff163373ffffffffffffffffffffffffffffffffffffffff16148061233f575061233e336040611c72565b5b61237e576040517f08c379a00000000000000000000000000000000000000000000000000000000081526004016123759061417c565b60405180910390fd5b8160035f8573ffffffffffffffffffffffffffffffffffffffff1673ffffffffffffffffffffffffffffffffffffffff1681526020019081526020015f2090816123c8919061451f565b506001905092915050565b600581815481106123e2575f80fd5b905f5260205f20015f9150905080546123fa906142e7565b80601f0160208091040260200160405190810160405280929190818152602001828054612426906142e7565b80156124715780601f1061244857610100808354040283529160200191612471565b820191905f5260205f20905b81548152906001019060200180831161245457829003601f168201915b505050505081565b6004602052805f5260405f205f915090508054612495906142e7565b80601f01602080910402602001604051908101604052809291908181526020018280546124c1906142e7565b801561250c5780601f106124e35761010080835404028352916020019161250c565b820191905f5260205f20905b8154815290600101906020018083116124ef57829003601f168201915b505050505081565b5f612520336040611c72565b61255f576040517f08c379a00000000000000000000000000000000000000000000000000000000081526004016125569061417c565b60405180910390fd5b825f60028260405161257191906141d4565b908152602001604051809103902060040154036125c3576040517f08c379a00000000000000000000000000000000000000000000000000000000081526004016125ba90614234565b60405180910390fd5b5f73ffffffffffffffffffffffffffffffffffffffff168373ffffffffffffffffffffffffffffffffffffffff1603612631576040517f08c379a000000000000000000000000000000000000000000000000000000000815260040161262890614936565b60405180910390fd5b60028460405161264191906141d4565b908152602001604051809103902060050183908060018154018082558091505060019003905f5260205f20015f9091909190916101000a81548173ffffffffffffffffffffffffffffffffffffffff021916908373ffffffffffffffffffffffffffffffffffffffff1602179055508360045f8573ffffffffffffffffffffffffffffffffffffffff1673ffffffffffffffffffffffffffffffffffffffff1681526020019081526020015f2090816126fa919061451f565b50600191505092915050565b5f612712336080611c72565b612751576040517f08c379a00000000000000000000000000000000000000000000000000000000081526004016127489061465e565b60405180910390fd5b815f60018260405161276391906141d4565b908152602001604051809103902060040154036127b5576040517f08c379a00000000000000000000000000000000000000000000000000000000081526004016127ac9061429c565b60405180910390fd5b5f60038111156127c8576127c761380f565b5b6001846040516127d891906141d4565b908152602001604051809103902060030160019054906101000a900460ff1660038111156128095761280861380f565b5b14612849576040517f08c379a00000000000000000000000000000000000000000000000000000000081526004016128409061499e565b60405180910390fd5b6001808460405161285a91906141d4565b908152602001604051809103902060030160016101000a81548160ff0219169083600381111561288d5761288c61380f565b5b0217905550426001846040516128a391906141d4565b9081526020016040518091039020600501819055503373ffffffffffffffffffffffffffffffffffffffff16836040516128dd91906141d4565b60405180910390207fd55f84792db67b05a3c97deae9d02dc26d461105199f24852fd5468b7e68d1f2426040516129149190613a44565b60405180910390a36001915050919050565b5f612932336040611c72565b612971576040517f08c379a00000000000000000000000000000000000000000000000000000000081526004016129689061417c565b60405180910390fd5b5f60018760405161298291906141d4565b908152602001604051809103902060040154146129d4576040517f08c379a00000000000000000000000000000000000000000000000000000000081526004016129cb90614a06565b60405180910390fd5b5f865111612a17576040517f08c379a0000000000000000000000000000000000000000000000000000000008152600401612a0e90614a6e565b60405180910390fd5b5f604051806101200160405280888152602001878152602001868152602001856002811115612a4957612a4861380f565b5b81526020015f6003811115612a6157612a6061380f565b5b81526020014281526020014281526020018481526020015f815250905080600188604051612a8f91906141d4565b90815260200160405180910390205f820151815f019081612ab0919061451f565b506020820151816001019081612ac6919061451f565b506040820151816002019081612adc919061451f565b506060820151816003015f6101000a81548160ff02191690836002811115612b0757612b0661380f565b5b021790555060808201518160030160016101000a81548160ff02191690836003811115612b3757612b3661380f565b5b021790555060a0820151816004015560c0820151816005015560e082015181600601556101008201518160070155905050600587908060018154018082558091505060019003905f5260205f20015f909190919091509081612b99919061451f565b503373ffffffffffffffffffffffffffffffffffffffff1687604051612bbf91906141d4565b60405180910390207ffb2ee55cc7746e44f71c8e4259b4e371165b20aa33a9db5c4258ab6eb4141f658642604051612bf8929190614a8c565b60405180910390a3600191505095945050505050565b5f612c1a336040611c72565b612c59576040517f08c379a0000000000000000000000000000000000000000000000000000000008152600401612c509061417c565b60405180910390fd5b815f600282604051612c6b91906141d4565b90815260200160405180910390206004015403612cbd576040517f08c379a0000000000000000000000000000000000000000000000000000000008152600401612cb490614234565b60405180910390fd5b60028084604051612cce91906141d4565b90815260200160405180910390206003015f6101000a81548160ff02191690836002811115612d0057612cff61380f565b5b02179055506001915050919050565b612d17613286565b5f73ffffffffffffffffffffffffffffffffffffffff168173ffffffffffffffffffffffffffffffffffffffff1603612d87575f6040517f1e4fbdf7000000000000000000000000000000000000000000000000000000008152600401612d7e9190613dcd565b60405180910390fd5b612d908161330d565b50565b612d9b6134a1565b815f600182604051612dad91906141d4565b90815260200160405180910390206004015403612dff576040517f08c379a0000000000000000000000000000000000000000000000000000000008152600401612df69061429c565b60405180910390fd5b600183604051612e0f91906141d4565b9081526020016040518091039020604051806101200160405290815f82018054612e38906142e7565b80601f0160208091040260200160405190810160405280929190818152602001828054612e64906142e7565b8015612eaf5780601f10612e8657610100808354040283529160200191612eaf565b820191905f5260205f20905b815481529060010190602001808311612e9257829003601f168201915b50505050508152602001600182018054612ec8906142e7565b80601f0160208091040260200160405190810160405280929190818152602001828054612ef4906142e7565b8015612f3f5780601f10612f1657610100808354040283529160200191612f3f565b820191905f5260205f20905b815481529060010190602001808311612f2257829003601f168201915b50505050508152602001600282018054612f58906142e7565b80601f0160208091040260200160405190810160405280929190818152602001828054612f84906142e7565b8015612fcf5780601f10612fa657610100808354040283529160200191612fcf565b820191905f5260205f20905b815481529060010190602001808311612fb257829003601f168201915b50505050508152602001600382015f9054906101000a900460ff166002811115612ffc57612ffb61380f565b5b600281111561300e5761300d61380f565b5b81526020016003820160019054906101000a900460ff1660038111156130375761303661380f565b5b60038111156130495761304861380f565b5b8152602001600482015481526020016005820154815260200160068201548152602001600782015481525050915050919050565b5f613089336080611c72565b6130c8576040517f08c379a00000000000000000000000000000000000000000000000000000000081526004016130bf9061465e565b60405180910390fd5b825f6001826040516130da91906141d4565b9081526020016040518091039020600401540361312c576040517f08c379a00000000000000000000000000000000000000000000000000000000081526004016131239061429c565b60405180910390fd5b600160038111156131405761313f61380f565b5b60018560405161315091906141d4565b908152602001604051809103902060030160019054906101000a900460ff1660038111156131815761318061380f565b5b146131c1576040517f08c379a00000000000000000000000000000000000000000000000000000000081526004016131b890614afd565b60405180910390fd5b826001856040516131d291906141d4565b90815260200160405180910390206007015f82825417925050819055504260018560405161320091906141d4565b9081526020016040518091039020600501819055503373ffffffffffffffffffffffffffffffffffffffff168460405161323a91906141d4565b60405180910390207f930f876b0eafb77683945f6848f7ecb44e5a72acae7446143261ee11feb45d288542604051613273929190614809565b60405180910390a3600191505092915050565b61328e6133ce565b73ffffffffffffffffffffffffffffffffffffffff166132ac6120d4565b73ffffffffffffffffffffffffffffffffffffffff161461330b576132cf6133ce565b6040517f118cdaa70000000000000000000000000000000000000000000000000000000081526004016133029190613dcd565b60405180910390fd5b565b5f5f5f9054906101000a900473ffffffffffffffffffffffffffffffffffffffff169050815f5f6101000a81548173ffffffffffffffffffffffffffffffffffffffff021916908373ffffffffffffffffffffffffffffffffffffffff1602179055508173ffffffffffffffffffffffffffffffffffffffff168173ffffffffffffffffffffffffffffffffffffffff167f8be0079c531659141344cd1fd0a4f28419497f9722a3daafe3b4186f6b6457e060405160405180910390a35050565b5f33905090565b6040518060c00160405280606081526020015f8152602001606081526020015f60028111156134075761340661380f565b5b81526020015f8152602001606081525090565b828054828255905f5260205f20908101928215613490579160200282015b8281111561348f578251825f6101000a81548173ffffffffffffffffffffffffffffffffffffffff021916908373ffffffffffffffffffffffffffffffffffffffff16021790555091602001919060010190613438565b5b50905061349d919061350b565b5090565b6040518061012001604052806060815260200160608152602001606081526020015f60028111156134d5576134d461380f565b5b81526020015f60038111156134ed576134ec61380f565b5b81526020015f81526020015f81526020015f81526020015f81525090565b5b80821115613522575f815f90555060010161350c565b5090565b5f604051905090565b5f5ffd5b5f5ffd5b5f5ffd5b5f5ffd5b5f601f19601f8301169050919050565b7f4e487b71000000000000000000000000000000000000000000000000000000005f52604160045260245ffd5b6135858261353f565b810181811067ffffffffffffffff821117156135a4576135a361354f565b5b80604052505050565b5f6135b6613526565b90506135c2828261357c565b919050565b5f67ffffffffffffffff8211156135e1576135e061354f565b5b6135ea8261353f565b9050602081019050919050565b828183375f83830152505050565b5f613617613612846135c7565b6135ad565b9050828152602081018484840111156136335761363261353b565b5b61363e8482856135f7565b509392505050565b5f82601f83011261365a57613659613537565b5b813561366a848260208601613605565b91505092915050565b5f5f604083850312156136895761368861352f565b5b5f83013567ffffffffffffffff8111156136a6576136a5613533565b5b6136b285828601613646565b925050602083013567ffffffffffffffff8111156136d3576136d2613533565b5b6136df85828601613646565b9150509250929050565b5f8115159050919050565b6136fd816136e9565b82525050565b5f6020820190506137165f8301846136f4565b92915050565b5f602082840312156137315761373061352f565b5b5f82013567ffffffffffffffff81111561374e5761374d613533565b5b61375a84828501613646565b91505092915050565b5f60ff82169050919050565b61377881613763565b82525050565b5f6020820190506137915f83018461376f565b92915050565b5f81519050919050565b5f82825260208201905092915050565b8281835e5f83830152505050565b5f6137c982613797565b6137d381856137a1565b93506137e38185602086016137b1565b6137ec8161353f565b840191505092915050565b5f819050919050565b613809816137f7565b82525050565b7f4e487b71000000000000000000000000000000000000000000000000000000005f52602160045260245ffd5b6003811061384d5761384c61380f565b5b50565b5f81905061385d8261383c565b919050565b5f61386c82613850565b9050919050565b61387c81613862565b82525050565b5f819050919050565b61389481613882565b82525050565b5f81519050919050565b5f82825260208201905092915050565b5f819050602082019050919050565b5f73ffffffffffffffffffffffffffffffffffffffff82169050919050565b5f6138ec826138c3565b9050919050565b6138fc816138e2565b82525050565b5f61390d83836138f3565b60208301905092915050565b5f602082019050919050565b5f61392f8261389a565b61393981856138a4565b9350613944836138b4565b805f5b8381101561397457815161395b8882613902565b975061396683613919565b925050600181019050613947565b5085935050505092915050565b5f60c083015f8301518482035f86015261399b82826137bf565b91505060208301516139b06020860182613800565b50604083015184820360408601526139c882826137bf565b91505060608301516139dd6060860182613873565b5060808301516139f0608086018261388b565b5060a083015184820360a0860152613a088282613925565b9150508091505092915050565b5f6020820190508181035f830152613a2d8184613981565b905092915050565b613a3e81613882565b82525050565b5f602082019050613a575f830184613a35565b92915050565b5f82825260208201905092915050565b5f613a7782613797565b613a818185613a5d565b9350613a918185602086016137b1565b613a9a8161353f565b840191505092915050565b613aae816137f7565b82525050565b613abd81613862565b82525050565b5f60a0820190508181035f830152613adb8188613a6d565b9050613aea6020830187613aa5565b8181036040830152613afc8186613a6d565b9050613b0b6060830185613ab4565b613b186080830184613a35565b9695505050505050565b613b2b816137f7565b8114613b35575f5ffd5b50565b5f81359050613b4681613b22565b92915050565b5f5f60408385031215613b6257613b6161352f565b5b5f83013567ffffffffffffffff811115613b7f57613b7e613533565b5b613b8b85828601613646565b9250506020613b9c85828601613b38565b9150509250929050565b60038110613bb757613bb661380f565b5b50565b5f819050613bc782613ba6565b919050565b5f613bd682613bba565b9050919050565b613be681613bcc565b82525050565b60048110613bfd57613bfc61380f565b5b50565b5f819050613c0d82613bec565b919050565b5f613c1c82613c00565b9050919050565b613c2c81613c12565b82525050565b5f610120820190508181035f830152613c4b818c613a6d565b90508181036020830152613c5f818b613a6d565b90508181036040830152613c73818a613a6d565b9050613c826060830189613bdd565b613c8f6080830188613c23565b613c9c60a0830187613a35565b613ca960c0830186613a35565b613cb660e0830185613aa5565b613cc4610100830184613a35565b9a9950505050505050505050565b613cdb81613882565b8114613ce5575f5ffd5b50565b5f81359050613cf681613cd2565b92915050565b5f5f60408385031215613d1257613d1161352f565b5b5f83013567ffffffffffffffff811115613d2f57613d2e613533565b5b613d3b85828601613646565b9250506020613d4c85828601613ce8565b9150509250929050565b613d5f816138e2565b8114613d69575f5ffd5b50565b5f81359050613d7a81613d56565b92915050565b5f5f60408385031215613d9657613d9561352f565b5b5f613da385828601613d6c565b9250506020613db485828601613ce8565b9150509250929050565b613dc7816138e2565b82525050565b5f602082019050613de05f830184613dbe565b92915050565b5f60208284031215613dfb57613dfa61352f565b5b5f613e0884828501613d6c565b91505092915050565b5f6020820190508181035f830152613e298184613a6d565b905092915050565b5f60208284031215613e4657613e4561352f565b5b5f613e5384828501613ce8565b91505092915050565b5f5f60408385031215613e7257613e7161352f565b5b5f613e7f85828601613d6c565b925050602083013567ffffffffffffffff811115613ea057613e9f613533565b5b613eac85828601613646565b9150509250929050565b5f5f60408385031215613ecc57613ecb61352f565b5b5f83013567ffffffffffffffff811115613ee957613ee8613533565b5b613ef585828601613646565b9250506020613f0685828601613d6c565b9150509250929050565b60038110613f1c575f5ffd5b50565b5f81359050613f2d81613f10565b92915050565b5f5f5f5f5f60a08688031215613f4c57613f4b61352f565b5b5f86013567ffffffffffffffff811115613f6957613f68613533565b5b613f7588828901613646565b955050602086013567ffffffffffffffff811115613f9657613f95613533565b5b613fa288828901613646565b945050604086013567ffffffffffffffff811115613fc357613fc2613533565b5b613fcf88828901613646565b9350506060613fe088828901613f1f565b9250506080613ff188828901613b38565b9150509295509295909350565b61400781613bcc565b82525050565b61401681613c12565b82525050565b5f61012083015f8301518482035f86015261403782826137bf565b9150506020830151848203602086015261405182826137bf565b9150506040830151848203604086015261406b82826137bf565b91505060608301516140806060860182613ffe565b506080830151614093608086018261400d565b5060a08301516140a660a086018261388b565b5060c08301516140b960c086018261388b565b5060e08301516140cc60e0860182613800565b506101008301516140e161010086018261388b565b508091505092915050565b5f6020820190508181035f830152614104818461401c565b905092915050565b7f4e6f7420617574686f72697a65643a20504c4154464f524d20726f6c652072655f8201527f7175697265640000000000000000000000000000000000000000000000000000602082015250565b5f614166602683613a5d565b91506141718261410c565b604082019050919050565b5f6020820190508181035f8301526141938161415a565b9050919050565b5f81905092915050565b5f6141ae82613797565b6141b8818561419a565b93506141c88185602086016137b1565b80840191505092915050565b5f6141df82846141a4565b915081905092915050565b7f5573657220646f6573206e6f74206578697374000000000000000000000000005f82015250565b5f61421e601383613a5d565b9150614229826141ea565b602082019050919050565b5f6020820190508181035f83015261424b81614212565b9050919050565b7f4d656d62657220646f6573206e6f7420657869737400000000000000000000005f82015250565b5f614286601583613a5d565b915061429182614252565b602082019050919050565b5f6020820190508181035f8301526142b38161427a565b9050919050565b7f4e487b71000000000000000000000000000000000000000000000000000000005f52602260045260245ffd5b5f60028204905060018216806142fe57607f821691505b602082108103614311576143106142ba565b5b50919050565b7f5573657220616c7265616479206c696e6b6564000000000000000000000000005f82015250565b5f61434b601383613a5d565b915061435682614317565b602082019050919050565b5f6020820190508181035f8301526143788161433f565b9050919050565b5f819050815f5260205f209050919050565b5f6020601f8301049050919050565b5f82821b905092915050565b5f600883026143db7fffffffffffffffffffffffffffffffffffffffffffffffffffffffffffffffff826143a0565b6143e586836143a0565b95508019841693508086168417925050509392505050565b5f819050919050565b5f61442061441b61441684613882565b6143fd565b613882565b9050919050565b5f819050919050565b61443983614406565b61444d61444582614427565b8484546143ac565b825550505050565b5f5f905090565b614464614455565b61446f818484614430565b505050565b5b81811015614492576144875f8261445c565b600181019050614475565b5050565b601f8211156144d7576144a88161437f565b6144b184614391565b810160208510156144c0578190505b6144d46144cc85614391565b830182614474565b50505b505050565b5f82821c905092915050565b5f6144f75f19846008026144dc565b1980831691505092915050565b5f61450f83836144e8565b9150826002028217905092915050565b61452882613797565b67ffffffffffffffff8111156145415761454061354f565b5b61454b82546142e7565b614556828285614496565b5f60209050601f831160018114614587575f8415614575578287015190505b61457f8582614504565b8655506145e6565b601f1984166145958661437f565b5f5b828110156145bc57848901518255600182019150602085019450602081019050614597565b868310156145d957848901516145d5601f8916826144e8565b8355505b6001600288020188555050505b505050505050565b7f4e6f7420617574686f72697a65643a20474f5645524e414e434520726f6c65205f8201527f7265717569726564000000000000000000000000000000000000000000000000602082015250565b5f614648602883613a5d565b9150614653826145ee565b604082019050919050565b5f6020820190508181035f8301526146758161463c565b9050919050565b7f4d656d62657220616c72656164792073757370656e64656400000000000000005f82015250565b5f6146b0601883613a5d565b91506146bb8261467c565b602082019050919050565b5f6020820190508181035f8301526146dd816146a4565b9050919050565b5f6040820190508181035f8301526146fc8185613a6d565b905061470b6020830184613a35565b9392505050565b7f5573657220616c726561647920657869737473000000000000000000000000005f82015250565b5f614746601383613a5d565b915061475182614712565b602082019050919050565b5f6020820190508181035f8301526147738161473a565b9050919050565b7f496e76616c6964207573657220494400000000000000000000000000000000005f82015250565b5f6147ae600f83613a5d565b91506147b98261477a565b602082019050919050565b5f6020820190508181035f8301526147db816147a2565b9050919050565b5f6040820190506147f55f830185613aa5565b6148026020830184613a35565b9392505050565b5f60408201905061481c5f830185613a35565b6148296020830184613a35565b9392505050565b7f504c4154464f524d0000000000000000000000000000000000000000000000005f82015250565b5f61486460088361419a565b915061486f82614830565b600882019050919050565b5f61488482614858565b9150819050919050565b7f474f5645524e414e4345000000000000000000000000000000000000000000005f82015250565b5f6148c2600a8361419a565b91506148cd8261488e565b600a82019050919050565b5f6148e2826148b6565b9150819050919050565b7f496e76616c6964206164647265737300000000000000000000000000000000005f82015250565b5f614920600f83613a5d565b915061492b826148ec565b602082019050919050565b5f6020820190508181035f83015261494d81614914565b9050919050565b7f4d656d626572206e6f742070656e64696e6700000000000000000000000000005f82015250565b5f614988601283613a5d565b915061499382614954565b602082019050919050565b5f6020820190508181035f8301526149b58161497c565b9050919050565b7f4d656d62657220616c72656164792065786973747300000000000000000000005f82015250565b5f6149f0601583613a5d565b91506149fb826149bc565b602082019050919050565b5f6020820190508181035f830152614a1d816149e4565b9050919050565b7f496e76616c6964206d656d6265722047494300000000000000000000000000005f82015250565b5f614a58601283613a5d565b9150614a6382614a24565b602082019050919050565b5f6020820190508181035f830152614a8581614a4c565b9050919050565b5f604082019050614a9f5f830185613bdd565b614aac6020830184613a35565b9392505050565b7f4d656d626572206e6f74206163746976650000000000000000000000000000005f82015250565b5f614ae7601183613a5d565b9150614af282614ab3565b602082019050919050565b5f6020820190508181035f830152614b1481614adb565b905091905056fea2646970667358221220b0846b72f443adf50dba0ff81d815b20bf30d11917cd8e7c4283d96ee4d5f2cb64736f6c634300081e0033","linkReferences":{}},"methodIdentifiers":{"activateUser(string)":"2b3fafb2","addUserAdminAddress(string,address)":"d10a9f68","addressToMemberGIC(address)":"93a02082","addressToUserId(address)":"b5ffbbcc","approveMember(string)":"d6e9f495","assignRole(string,uint256)":"ff1484ca","getMemberDetails(string)":"fe1d3fd2","getMemberStatus(string)":"8e690fc5","getMembersCount()":"09772f8f","getUserDetails(string)":"085ba074","getUserStatus(string)":"07e9c883","getUsersCount()":"a4a1e263","isMemberInRole(address,uint256)":"8cbdcead","linkAddressToMember(address,string)":"a9d23d46","linkUserToMember(string,string)":"04418790","memberList(uint256)":"b307fc6d","members(string)":"6957a0b2","owner()":"8da5cb5b","registerMember(string,string,string,uint8,bytes32)":"d98e520f","registerUser(string,bytes32)":"68ae5563","renounceOwnership()":"715018a6","revokeRole(string,uint256)":"6a769c29","suspendMember(string,string)":"689f2ed2","suspendUser(string)":"e106c71a","terminateMember(string)":"3b8cd7dc","transferOwnership(address)":"f2fde38b","userList(uint256)":"9f4216e8","users(string)":"689e1c03","validatePermission(address,uint256)":"7c0f8882"},"id":0}