{"abi":[{"type":"constructor","inputs":[],"stateMutability":"nonpayable"},{"type":"function","name":"activateUser","inputs":[{"name":"userId","type":"string","internalType":"string"}],"outputs":[{"name":"","type":"bool","internalType":"bool"}],"stateMutability":"nonpayable"},{"type":"function","name":"addToBlacklist","inputs":[{"name":"account","type":"address","internalType":"address"}],"outputs":[{"name":"","type":"bool","internalType":"bool"}],"stateMutability":"nonpayable"},{"type":"function","name":"addUserAdminAddress","inputs":[{"name":"userId","type":"string","internalType":"string"},{"name":"adminAddress","type":"address","internalType":"address"}],"outputs":[{"name":"","type":"bool","internalType":"bool"}],"stateMutability":"nonpayable"},{"type":"function","name":"addressToMemberGIC","inputs":[{"name":"","type":"address","internalType":"address"}],"outputs":[{"name":"","type":"string","internalType":"string"}],"stateMutability":"view"},{"type":"function","name":"addressToUserId","inputs":[{"name":"","type":"address","internalType":"address"}],"outputs":[{"name":"","type":"string","internalType":"string"}],"stateMutability":"view"},{"type":"function","name":"approveMember","inputs":[{"name":"memberGIC","type":"string","internalType":"string"}],"outputs":[{"name":"","type":"bool","internalType":"bool"}],"stateMutability":"nonpayable"},{"type":"function","name":"blacklisted","inputs":[{"name":"","type":"address","internalType":"address"}],"outputs":[{"name":"","type":"bool","internalType":"bool"}],"stateMutability":"view"},{"type":"function","name":"getMemberDetails","inputs":[{"name":"memberGIC","type":"string","internalType":"string"}],"outputs":[{"name":"","type":"tuple","internalType":"struct MemberRegistry.Member","components":[{"name":"memberGIC","type":"string","internalType":"string"},{"name":"memberType","type":"uint8","internalType":"enum MemberRegistry.MemberType"},{"name":"status","type":"uint8","internalType":"enum MemberRegistry.MemberStatus"},{"name":"createdAt","type":"uint256","internalType":"uint256"},{"name":"updatedAt","type":"uint256","internalType":"uint256"},{"name":"memberHash","type":"bytes32","internalType":"bytes32"},{"name":"roles","type":"uint256","internalType":"uint256"},{"name":"userAddress","type":"address","internalType":"address"}]}],"stateMutability":"view"},{"type":"function","name":"getMemberStatus","inputs":[{"name":"memberGIC","type":"string","internalType":"string"}],"outputs":[{"name":"","type":"uint8","internalType":"uint8"}],"stateMutability":"view"},{"type":"function","name":"getMembersCount","inputs":[],"outputs":[{"name":"","type":"uint256","internalType":"uint256"}],"stateMutability":"view"},{"type":"function","name":"getMyRoles","inputs":[],"outputs":[{"name":"","type":"uint256","internalType":"uint256"}],"stateMutability":"view"},{"type":"function","name":"getUserDetails","inputs":[{"name":"userId","type":"string","internalType":"string"}],"outputs":[{"name":"","type":"tuple","internalType":"struct MemberRegistry.User","components":[{"name":"userId","type":"string","internalType":"string"},{"name":"userHash","type":"bytes32","internalType":"bytes32"},{"name":"linkedMemberGIC","type":"string","internalType":"string"},{"name":"status","type":"uint8","internalType":"enum MemberRegistry.UserStatus"},{"name":"createdAt","type":"uint256","internalType":"uint256"},{"name":"adminAddresses","type":"address[]","internalType":"address[]"}]}],"stateMutability":"view"},{"type":"function","name":"getUserStatus","inputs":[{"name":"userId","type":"string","internalType":"string"}],"outputs":[{"name":"","type":"uint8","internalType":"uint8"}],"stateMutability":"view"},{"type":"function","name":"getUsersCount","inputs":[],"outputs":[{"name":"","type":"uint256","internalType":"uint256"}],"stateMutability":"view"},{"type":"function","name":"isBlacklisted","inputs":[{"name":"account","type":"address","internalType":"address"}],"outputs":[{"name":"","type":"bool","internalType":"bool"}],"stateMutability":"view"},{"type":"function","name":"isMemberInRole","inputs":[{"name":"member","type":"address","internalType":"address"},{"name":"role","type":"uint256","internalType":"uint256"}],"outputs":[{"name":"","type":"bool","internalType":"bool"}],"stateMutability":"view"},{"type":"function","name":"linkAddressToMember","inputs":[{"name":"addr","type":"address","internalType":"address"},{"name":"memberGIC","type":"string","internalType":"string"}],"outputs":[{"name":"","type":"bool","internalType":"bool"}],"stateMutability":"nonpayable"},{"type":"function","name":"linkUserToMember","inputs":[{"name":"userId","type":"string","internalType":"string"},{"name":"memberGIC","type":"string","internalType":"string"}],"outputs":[{"name":"","type":"bool","internalType":"bool"}],"stateMutability":"nonpayable"},{"type":"function","name":"memberList","inputs":[{"name":"","type":"uint256","internalType":"uint256"}],"outputs":[{"name":"","type":"string","internalType":"string"}],"stateMutability":"view"},{"type":"function","name":"members","inputs":[{"name":"","type":"string","internalType":"string"}],"outputs":[{"name":"memberGIC","type":"string","internalType":"string"},{"name":"memberType","type":"uint8","internalType":"enum MemberRegistry.MemberType"},{"name":"status","type":"uint8","internalType":"enum MemberRegistry.MemberStatus"},{"name":"createdAt","type":"uint256","internalType":"uint256"},{"name":"updatedAt","type":"uint256","internalType":"uint256"},{"name":"memberHash","type":"bytes32","internalType":"bytes32"},{"name":"roles","type":"uint256","internalType":"uint256"},{"name":"userAddress","type":"address","internalType":"address"}],"stateMutability":"view"},{"type":"function","name":"owner","inputs":[],"outputs":[{"name":"","type":"address","internalType":"address"}],"stateMutability":"view"},{"type":"function","name":"registerMember","inputs":[{"name":"memberGIC","type":"string","internalType":"string"},{"name":"memberType","type":"uint8","internalType":"enum MemberRegistry.MemberType"},{"name":"memberHash","type":"bytes32","internalType":"bytes32"},{"name":"userAddress","type":"address","internalType":"address"},{"name":"role","type":"uint256","internalType":"uint256"}],"outputs":[{"name":"","type":"bool","internalType":"bool"}],"stateMutability":"nonpayable"},{"type":"function","name":"registerUser","inputs":[{"name":"userId","type":"string","internalType":"string"},{"name":"userHash","type":"bytes32","internalType":"bytes32"}],"outputs":[{"name":"","type":"bool","internalType":"bool"}],"stateMutability":"nonpayable"},{"type":"function","name":"removeFromBlacklist","inputs":[{"name":"account","type":"address","internalType":"address"}],"outputs":[{"name":"","type":"bool","internalType":"bool"}],"stateMutability":"nonpayable"},{"type":"function","name":"renounceOwnership","inputs":[],"outputs":[],"stateMutability":"nonpayable"},{"type":"function","name":"setBlacklisted","inputs":[{"name":"account","type":"address","internalType":"address"},{"name":"status","type":"bool","internalType":"bool"}],"outputs":[{"name":"","type":"bool","internalType":"bool"}],"stateMutability":"nonpayable"},{"type":"function","name":"setRole","inputs":[{"name":"memberGIC","type":"string","internalType":"string"},{"name":"role","type":"uint256","internalType":"uint256"},{"name":"enabled","type":"bool","internalType":"bool"}],"outputs":[{"name":"","type":"bool","internalType":"bool"}],"stateMutability":"nonpayable"},{"type":"function","name":"suspendMember","inputs":[{"name":"memberGIC","type":"string","internalType":"string"},{"name":"reason","type":"string","internalType":"string"}],"outputs":[{"name":"","type":"bool","internalType":"bool"}],"stateMutability":"nonpayable"},{"type":"function","name":"suspendUser","inputs":[{"name":"userId","type":"string","internalType":"string"}],"outputs":[{"name":"","type":"bool","internalType":"bool"}],"stateMutability":"nonpayable"},{"type":"function","name":"terminateMember","inputs":[{"name":"memberGIC","type":"string","internalType":"string"}],"outputs":[{"name":"","type":"bool","internalType":"bool"}],"stateMutability":"nonpayable"},{"type":"function","name":"transferOwnership","inputs":[{"name":"newOwner","type":"address","internalType":"address"}],"outputs":[],"stateMutability":"nonpayable"},{"type":"function","name":"userList","inputs":[{"name":"","type":"uint256","internalType":"uint256"}],"outputs":[{"name":"","type":"string","internalType":"string"}],"stateMutability":"view"},{"type":"function","name":"users","inputs":[{"name":"","type":"string","internalType":"string"}],"outputs":[{"name":"userId","type":"string","internalType":"string"},{"name":"userHash","type":"bytes32","internalType":"bytes32"},{"name":"linkedMemberGIC","type":"string","internalType":"string"},{"name":"status","type":"uint8","internalType":"enum MemberRegistry.UserStatus"},{"name":"createdAt","type":"uint256","internalType":"uint256"}],"stateMutability":"view"},{"type":"function","name":"validatePermission","inputs":[{"name":"member","type":"address","internalType":"address"},{"name":"role","type":"uint256","internalType":"uint256"}],"outputs":[{"name":"","type":"bool","internalType":"bool"}],"stateMutability":"view"},{"type":"event","name":"BlacklistUpdated","inputs":[{"name":"account","type":"address","indexed":true,"internalType":"address"},{"name":"status","type":"bool","indexed":false,"internalType":"bool"},{"name":"updatedBy","type":"address","indexed":true,"internalType":"address"},{"name":"timestamp","type":"uint256","indexed":false,"internalType":"uint256"}],"anonymous":false},{"type":"event","name":"MemberApproved","inputs":[{"name":"memberGIC","type":"string","indexed":true,"internalType":"string"},{"name":"approvedBy","type":"address","indexed":true,"internalType":"address"},{"name":"timestamp","type":"uint256","indexed":false,"internalType":"uint256"}],"anonymous":false},{"type":"event","name":"MemberRegistered","inputs":[{"name":"memberGIC","type":"string","indexed":true,"internalType":"string"},{"name":"memberType","type":"uint8","indexed":false,"internalType":"enum MemberRegistry.MemberType"},{"name":"registeredBy","type":"address","indexed":true,"internalType":"address"},{"name":"timestamp","type":"uint256","indexed":false,"internalType":"uint256"}],"anonymous":false},{"type":"event","name":"MemberSuspended","inputs":[{"name":"memberGIC","type":"string","indexed":true,"internalType":"string"},{"name":"reason","type":"string","indexed":false,"internalType":"string"},{"name":"suspendedBy","type":"address","indexed":true,"internalType":"address"},{"name":"timestamp","type":"uint256","indexed":false,"internalType":"uint256"}],"anonymous":false},{"type":"event","name":"OwnershipTransferred","inputs":[{"name":"previousOwner","type":"address","indexed":true,"internalType":"address"},{"name":"newOwner","type":"address","indexed":true,"internalType":"address"}],"anonymous":false},{"type":"event","name":"RoleAssigned","inputs":[{"name":"memberGIC","type":"string","indexed":true,"internalType":"string"},{"name":"role","type":"uint256","indexed":false,"internalType":"uint256"},{"name":"assignedBy","type":"address","indexed":true,"internalType":"address"},{"name":"timestamp","type":"uint256","indexed":false,"internalType":"uint256"}],"anonymous":false},{"type":"event","name":"RoleRevoked","inputs":[{"name":"memberGIC","type":"string","indexed":true,"internalType":"string"},{"name":"role","type":"uint256","indexed":false,"internalType":"uint256"},{"name":"revokedBy","type":"address","indexed":true,"internalType":"address"},{"name":"timestamp","type":"uint256","indexed":false,"internalType":"uint256"}],"anonymous":false},{"type":"event","name":"UserLinkedToMember","inputs":[{"name":"userId","type":"string","indexed":true,"internalType":"string"},{"name":"memberGIC","type":"string","indexed":true,"internalType":"string"},{"name":"linkedBy","type":"address","indexed":true,"internalType":"address"},{"name":"timestamp","type":"uint256","indexed":false,"internalType":"uint256"}],"anonymous":false},{"type":"event","name":"UserRegistered","inputs":[{"name":"userId","type":"string","indexed":true,"internalType":"string"},{"name":"userHash","type":"bytes32","indexed":false,"internalType":"bytes32"},{"name":"registeredBy","type":"address","indexed":true,"internalType":"address"},{"name":"timestamp","type":"uint256","indexed":false,"internalType":"uint256"}],"anonymous":false},{"type":"error","name":"OwnableInvalidOwner","inputs":[{"name":"owner","type":"address","internalType":"address"}]},{"type":"error","name":"OwnableUnauthorizedAccount","inputs":[{"name":"account","type":"address","internalType":"address"}]}],"bytecode":{"object":"0x608060409080825234620003575733156200034257505f8054336001600160a01b0319821681178355916001600160a01b03909116907f8be0079c531659141344cd1fd0a4f28419497f9722a3daafe3b4186f6b6457e09080a380516001600160401b039190610100810183811182821017620002645761014082019080821085831117620002645760289184526008815267504c4154464f524d60c01b90816101208501528352600260208401526001848401524260608401524260808401527f3cb058642d3f17bc460bdd6eab42c21564f6b5228beab6a905a2eb32727c49d160a08401526101ff60c08401523360e084015283519081526001600882015220815193845190811162000264576200011a82546200035b565b601f811162000302575b506020601f8211600114620002985781929394955f926200028c575b50508160011b915f199060031b1c19161781555b602082015190600181016003831015620002785780549285850151936004851015620002785760ff61ff0060069660081b1692169061ffff191617179055606083015160028201556080830151600382015560a0830151600482015560c08301516005820155019060e060018060a01b039101511660018060a01b03198254161790556006546801000000000000000081101562000264576001810180600655811015620002505760065f526200022d907ff652222313e28459528d920b65115c16c04f3efc82aaedc97be59f3f377c0d3f01620003ae565b335f52600360205262000242815f20620003ae565b5161276c90816200040e8239f35b634e487b7160e01b5f52603260045260245ffd5b634e487b7160e01b5f52604160045260245ffd5b634e487b7160e01b5f52602160045260245ffd5b015190505f8062000140565b825f5260205f20905f5b601f1984168110620002e9575060019394959683601f19811610620002d0575b505050811b01815562000154565b01515f1960f88460031b161c191690555f8080620002c2565b9091602060018192858b015181550193019101620002a2565b6200033090835f5260205f20601f840160051c8101916020851062000337575b601f0160051c019062000396565b5f62000124565b909150819062000322565b631e4fbdf760e01b81525f6004820152602490fd5b5f80fd5b90600182811c921680156200038b575b60208310146200037757565b634e487b7160e01b5f52602260045260245ffd5b91607f16916200036b565b818110620003a2575050565b5f815560010162000396565b620003ba81546200035b565b601f8111620003ea575b507f504c4154464f524d0000000000000000000000000000000000000000000000109055565b6200040690825f52601f60205f20910160051c81019062000396565b5f620003c456fe604060808152600480361015610013575f80fd5b60e05f35811c9182630441879014611b9d57826307e9c88314611b2b578263085ba0741461195e57826309772f8f146119405782632b3fafb2146118ee5782633b8cd7dc1461182d57826344337ea1146117a35782634dec2c5c14611592578263537df3b61461150c578263689e1c031461145f578263689f2ed2146112fb57826368ae556314610fec5782636957a0b214610f0f578263715018a614610eb85782637221558d14610e955782637c0f888214610e6d5782638cbdcead14610e3c5782638da5cb5b14610e155782638e690fc514610d6a57826393a0208214610d315782639f4216e814610ce0578263a4a1e26314610cc2578263a9d23d4614610c40578263b307fc6d14610bef578263b5ffbbcc14610ba1578263cd77022c146107e4578263d01dd6d21461074d578263d10a9f681461063e578263d6e9f495146104cb578263dbac26e9146104a6578263e106c71a14610403578263f2fde38b1461037b578263fe1d3fd2146101d457505063fe575a8714610195575f80fd5b346101d05760203660031901126101d0576020906001600160a01b036101b9611e70565b165f526005825260ff815f20541690519015158152f35b5f80fd5b909150346101d0576020806003193601126101d05781356001600160401b0381116101d0576102069036908401611d71565b83855161021281611cfe565b606081528381015f90528681015f9052606081015f9052608081015f905260a081015f905260c081015f9052015f90528185519180519282818184019561025a818389611e0c565b810160018152030190206002015415156102739061200c565b86518093819251809261028592611e0c565b8101600181520301902084519361029b85611cfe565b6102a482611ebe565b855260018201549060ff821694848701956102be81611e52565b86528787019260081c60ff166102d49084612258565b60028401549060608801918252600385015490608089019182528501549060a0890191825260058601549260c08a01938452600160a01b600190036006819801541695858b019687528b519b8c9b8a8d52518c6101009b8c9101526101208d0161033d91611e2d565b9a519061034982611e52565b8c01525160608b0161035a91611f60565b5160808a01525160a08901525160c088015251908601525116908301520390f35b8390346101d05760203660031901126101d057610396611e70565b9061039f61270b565b6001600160a01b039182169283156103ed5750505f54826001600160601b0360a01b8216175f55167f8be0079c531659141344cd1fd0a4f28419497f9722a3daafe3b4186f6b6457e05f80a3005b905f6024925191631e4fbdf760e01b8352820152fd5b83346101d05760203660031901126101d05781356001600160401b0381116101d0576104896020809461043b60039436908301611d71565b61044c61044733612422565b612183565b61047986519282519385818186019661046681838a611e0c565b8101600281520301902001541515611fca565b8551938492839251928391611e0c565b8101600281520301902001600260ff198254161790555160018152f35b83346101d05760203660031901126101d0576020906001600160a01b036101b9611e70565b8390346101d057602091826003193601126101d05781356001600160401b0381116101d0576104fd9036908401611d71565b61050961044733612422565b81519281519061053b600287850193610523818987611e0c565b87019688816001998a8152030190200154151561200c565b60ff8585518881875161054f81838a611e0c565b810184815203019020015460081c168181101561062b576105f35750906105ad60036105c29386865189818751610587818388611e0c565b8101848152030190200161010061ff001982541617905585519283918551928391611e0c565b82019186835287814294030190200155612163565b8151904282527fd55f84792db67b05a3c97deae9d02dc26d461105199f24852fd5468b7e68d1f2853393a351908152f35b835162461bcd60e51b815290810186905260126024820152714d656d626572206e6f742070656e64696e6760701b6044820152606490fd5b602182634e487b7160e01b5f525260245ffd5b8390346101d057816003193601126101d05780356001600160401b0381116101d05761066d9036908301611d71565b6024356001600160a01b0381169391908490036101d05761069061044733612422565b8260056106ce845184516106b3602098838a8095818b0195610466818389611e0c565b6106be8915156121d9565b8651809381928851928391611e0c565b8101600281520301902001948554600160401b81101561073a5760018101808855811015610727576107209495965f52865f2001816001600160601b0360a01b8254161790555f528452825f20612066565b5160018152f35b603283634e487b7160e01b5f525260245ffd5b604183634e487b7160e01b5f525260245ffd5b83346101d057806003193601126101d057610766611e70565b906024358015158091036101d05760209261078361044733612422565b6001600160a01b03166107978115156121d9565b805f5260058452825f2060ff1981541660ff8416179055825191825242848301527f2f7bcdf291adfd1f1f04cce8125f41c59b3d5d0ac85b5493671abdd836b7298e833393a35160018152f35b9083346101d05760a03660031901126101d05782356001600160401b0381116101d0576108149036908501611d71565b602490813560038110156101d0576001600160a01b039560643587811691908290036101d0576084359461084a61044733612422565b335f5260209860058a5261086460ff895f20541615612217565b835f5260058a5260ff885f205416610b69578751809960028c61088d8a5180928c019586611e0c565b8c019b8d8160019e8f8152030190200154610b2f57875115610af8578515610abf5790888693928b8a8f8f908c918451976108c789611cfe565b848952828901936108d781611e52565b84528589019282845260608a019542875260808b019742895260a08c01996044358b5260c08d019b8c528c019d8e52518093819251809261091792611e0c565b810184815203019020975161092c9089612066565b870191519061093a82611e52565b61094382611e52565b825490518c811015610aad579060ff61ff0060069a9998979695949360081b1692169061ffff1916171790555160028501555160038401555187830155516005820155019151166001600160601b0360a01b82541617905560065491600160401b831015610a9c5788830180600655831015610a8b575050836109eb9160065f527ff652222313e28459528d920b65115c16c04f3efc82aaedc97be59f3f377c0d3f01612066565b5f52600386526109fd82855f20612066565b610a0682612163565b845191610a1281611e52565b825242878301527ffb2ee55cc7746e44f71c8e4259b4e371165b20aa33a9db5c4258ab6eb4141f65853393a381610a4c575b505051908152f35b610a5590612163565b825191825242858301527f930f876b0eafb77683945f6848f7ecb44e5a72acae7446143261ee11feb45d28833393a38380610a44565b603290634e487b7160e01b5f52525ffd5b604190634e487b7160e01b5f52525ffd5b8b60218e634e487b7160e01b5f52525ffd5b895162461bcd60e51b81528086018d905260148186015273496e76616c69642075736572206164647265737360601b6044820152606490fd5b895162461bcd60e51b81528086018d905260128186015271496e76616c6964206d656d6265722047494360701b6044820152606490fd5b895162461bcd60e51b81528086018d9052601581860152744d656d62657220616c72656164792065786973747360581b6044820152606490fd5b875162461bcd60e51b81528084018b9052601381840152721059191c995cdcc8189b1858dadb1a5cdd1959606a1b6044820152606490fd5b83346101d05760203660031901126101d057610beb916001600160a01b03610bc7611e70565b165f52602052610bd8815f20611ebe565b9051918291602083526020830190611e2d565b0390f35b8390346101d05760203660031901126101d05735906006548210156101d057610bd8610beb9260065f527ff652222313e28459528d920b65115c16c04f3efc82aaedc97be59f3f377c0d3f01611ebe565b83346101d057806003193601126101d057610c59611e70565b91602435926001600160401b0384116101d057610c7e61072092602095369101611d71565b5f5490916001600160a01b0391821633148015610cae575b610c9f90612183565b165f5260038452825f20612066565b50610c9f610cbb33612422565b9050610c96565b83346101d0575f3660031901126101d0576020906007549051908152f35b8390346101d05760203660031901126101d05735906007548210156101d057610bd8610beb9260075f527fa66cc928b5edb82af9bd49922954155ab7b0942694bea4ce44661d9a8736c68801611ebe565b83346101d05760203660031901126101d057610beb906001600160a01b03610d57611e70565b165f526003602052610bd8815f20611ebe565b83346101d05760203660031901126101d05781356001600160401b0381116101d0576001610de06020610da260ff9436908801611d71565b855190610dd06002825193858181860196610dbe81838a611e0c565b81018a8152030190200154151561200c565b8651938492839251928391611e0c565b810184815203019020015460081c169082821015610e02576020925051908152f35b602183634e487b7160e01b5f525260245ffd5b83346101d0575f3660031901126101d0575f5490516001600160a01b039091168152602090f35b83346101d057806003193601126101d057602090610e64610e5b611e70565b60243590612651565b90519015158152f35b83346101d057806003193601126101d057602090610e64610e8c611e70565b60243590612340565b83346101d0575f3660031901126101d057602090610eb1612264565b9051908152f35b346101d0575f3660031901126101d057610ed061270b565b5f80546001600160a01b0319811682556001600160a01b03167f8be0079c531659141344cd1fd0a4f28419497f9722a3daafe3b4186f6b6457e08280a3005b909150346101d05760203660031901126101d0578035926001600160401b0384116101d057610f5b6020610f49610fb69636908601611d71565b81845193828580945193849201611e0c565b8101600181520301902092610f6f84611ebe565b93600181015460ff8116946002830154610fd16003850154928501549360ff600587015496600660018060a01b03910154169880519c8d9c8d610100908181520190611e2d565b9a610fc081611e52565b60208d01528b019160081c16611f60565b6060880152608087015260a086015260c08501528301520390f35b83346101d057806003193601126101d0576001600160401b0382358181116101d05761101b9036908501611d71565b60249384359261103261102d33612560565b611f6d565b335f526020956005875261104c60ff875f20541615612217565b855183855191898181890194611063818388611e0c565b8101600281520301902001546112c35784511561128f5786519261108684611d1a565b5f8452875161109481611ccf565b868152888a82019389855281516110aa81611d1a565b5f815282840190815260608401915f83528d8b608087019542875260a088019b8c5251809381925180926110dd92611e0c565b8101600281520301902093516110f39085612066565b60019551600185015551600284019061110b91612066565b60038301905161111a81611e52565b61112381611e52565b60ff198254169060ff161790555186820155600501935193845191821161127d57600160401b9485831161126b578a908254848455808510611250575b5001905f52895f205f5b838110611236575050505050600754918210156112245760018201806007558210156112125750906111c6836111dc949360075f527fa66cc928b5edb82af9bd49922954155ab7b0942694bea4ce44661d9a8736c68801612066565b335f5285526111d781855f20612066565b612163565b825191825242848301527fb13e9e763d8d60b28baaaac2eb3689b9862490eceeb8d72e090d827285def066833393a35160018152f35b634e487b7160e01b5f90815260328452fd5b634e487b7160e01b5f90815260418452fd5b82516001600160a01b031682820155918b0191840161116a565b61126590845f5285845f209182019101612050565b8c611160565b84604188634e487b7160e01b5f52525ffd5b83604187634e487b7160e01b5f52525ffd5b865162461bcd60e51b8152808501899052600f818401526e125b9d985b1a59081d5cd95c881251608a1b6044820152606490fd5b865162461bcd60e51b8152808501899052601381840152725573657220616c72656164792065786973747360681b6044820152606490fd5b83346101d05761130a36611dc6565b61131961044793929333612422565b815192805160209561134d600288850193611335818a87611e0c565b880197898160019a8b8152030190200154151561200c565b60ff8686518981875161136181838a611e0c565b810184815203019020015460081c168181101561062b5760021461141c5750906113c260036113d7938787518a81875161139c818388611e0c565b8101848152030190200161020061ff001982541617905586519283918551928391611e0c565b82019187835288814294030190200155612163565b7f0f79bf17bbb40c7f3964d874d86d8db800f84ee36d6bb1af59f1d009b8fae8a461140a84519385855285850190611e2d565b9242878201528033940390a351908152f35b845162461bcd60e51b8152908101879052601860248201527f4d656d62657220616c72656164792073757370656e64656400000000000000006044820152606490fd5b8390346101d05760203660031901126101d0578035916001600160401b0383116101d0576114986020610f496114e29536908601611d71565b81016002815203019020906114f46114af83611ebe565b936001840154906114c260028601611ebe565b9060ff60038701541695015493805197889760a0895260a0890190611e2d565b92602088015286830390870152611e2d565b916114fe81611e52565b606084015260808301520390f35b83346101d05760203660031901126101d057602090611529611e70565b61153561044733612422565b6001600160a01b03166115498115156121d9565b805f5260058352815f2060ff1981541690558151905f825242848301527f2f7bcdf291adfd1f1f04cce8125f41c59b3d5d0ac85b5493671abdd836b7298e833393a35160018152f35b83346101d05760603660031901126101d05781356001600160401b0381116101d0576115c19036908401611d71565b90602435916044359081151582036101d0576115df61044733612422565b8251938151926020966116146002898601966115fc818b8a611e0c565b8901988a8160019b8c8152030190200154151561200c565b82156117715760ff8787518a81885161162e81838d611e0c565b810184815203019020015460081c168181101561062b57870361173a57506003929190156116d957600585518881855161166981838b611e0c565b81018a8152030190200181815417905561168282612163565b855191825242888301527f930f876b0eafb77683945f6848f7ecb44e5a72acae7446143261ee11feb45d28863393a35b6116c3845193849251928391611e0c565b8201918483528581429403019020015551908152f35b60058551888185516116ec81838b611e0c565b81018a815203019020018119815416905561170682612163565b855191825242888301527fea93182b272f835992ec4d598531773bc30c72c6e045d6a22b583ac43f9d20c4863393a36116b2565b855162461bcd60e51b815290810188905260116024820152704d656d626572206e6f742061637469766560781b6044820152606490fd5b855162461bcd60e51b8152908101889052600c60248201526b496e76616c696420726f6c6560a01b6044820152606490fd5b83346101d05760203660031901126101d0576020906117c0611e70565b6117cc61044733612422565b6001600160a01b03166117e08115156121d9565b805f5260058352815f20600160ff198254161790558151906001825242848301527f2f7bcdf291adfd1f1f04cce8125f41c59b3d5d0ac85b5493671abdd836b7298e833393a35160018152f35b83346101d057602091826003193601126101d0578035906001600160401b0382116101d05761185e91369101611d71565b61186a61044733612422565b600382519161189b600282519487818186019761188881838b611e0c565b810160018152030190200154151561200c565b60018451868184516118ae81838a611e0c565b8101848152030190200161030061ff00198254161790556118d6845193849251928391611e0c565b82019160018352848142940301902001555160018152f35b83346101d05760203660031901126101d05781356001600160401b0381116101d0576119266020809461043b60039436908301611d71565b810160028152030190200160ff1981541690555160018152f35b83346101d0575f3660031901126101d0576020906006549051908152f35b9150346101d057602091826003193601126101d0578035916001600160401b0383116101d0576119dd8461199860a0979536908601611d71565b85516119a381611ccf565b606098818a8093525f8582015282898201525f838201525f60808201520152855190610dd08682519385818186019661046681838a611e0c565b810160028152030190208351936119f385611ccf565b6119fc82611ebe565b8552600194600183015491878201928352611a1960028501611ebe565b91818101928352600560ff600387015416978b830198611a3881611e52565b895286015495608083019687520195825196878b82549182815201915f528b5f20905f5b818110611b0f57505050611ab794928897969492611a818d9b9a611a9e94038a611d50565b60a0820198895260c084519d8e93818552519301528c0190611e2d565b9251908a015251601f19998a8a840301908a0152611e2d565b9251611ac281611e52565b60808701525160a086015251948482030160c08501528180865192838152019501915f5b828110611af35785870386f35b83516001600160a01b0316875295810195928101928401611ae6565b82546001600160a01b03168452928d0192918c01918c01611a5c565b83346101d05760203660031901126101d0578135916001600160401b0383116101d0576003611b80602060ff93611b66829736908301611d71565b610dd087519282519385818186019661046681838a611e0c565b8101600281520301902001541690611b9782611e52565b51908152f35b83346101d057611bac36611dc6565b90611bb961102d33612560565b82518151602095611beb8188860193611bd3818787611e0c565b85019489816002978881520301902001541515611fca565b611c048387518981816118888b83815193849201611e0c565b611c2983875189818851611c1981838a611e0c565b8101848152030190200154611e86565b611c965750916111d784611c5e93611c4f89611c64978a51809381928951928391611e0c565b81018481520301902001612066565b91612163565b8251914283527fd1b268239537a25c14e2eac10da2a119aa3cf3961279b9a7a08d88ce228fae9f853394a45160018152f35b855162461bcd60e51b81529081018790526013602482015272155cd95c88185b1c9958591e481b1a5b9ad959606a1b6044820152606490fd5b60c081019081106001600160401b03821117611cea57604052565b634e487b7160e01b5f52604160045260245ffd5b61010081019081106001600160401b03821117611cea57604052565b602081019081106001600160401b03821117611cea57604052565b604081019081106001600160401b03821117611cea57604052565b90601f801991011681019081106001600160401b03821117611cea57604052565b81601f820112156101d0578035906001600160401b038211611cea5760405192611da5601f8401601f191660200185611d50565b828452602083830101116101d057815f926020809301838601378301015290565b9060406003198301126101d0576001600160401b036004358181116101d05783611df291600401611d71565b926024359182116101d057611e0991600401611d71565b90565b5f5b838110611e1d5750505f910152565b8181015183820152602001611e0e565b90602091611e4681518092818552858086019101611e0c565b601f01601f1916010190565b60031115611e5c57565b634e487b7160e01b5f52602160045260245ffd5b600435906001600160a01b03821682036101d057565b90600182811c92168015611eb4575b6020831014611ea057565b634e487b7160e01b5f52602260045260245ffd5b91607f1691611e95565b9060405191825f8254611ed081611e86565b908184526020946001916001811690815f14611f3e5750600114611f00575b505050611efe92500383611d50565b565b5f90815285812095935091905b818310611f26575050611efe93508201015f8080611eef565b85548884018501529485019487945091830191611f0d565b92505050611efe94925060ff191682840152151560051b8201015f8080611eef565b906004821015611e5c5752565b15611f7457565b60405162461bcd60e51b815260206004820152602860248201527f4e6f7420617574686f72697a65643a20757365722061646d696e20726f6c65206044820152671c995c5d5a5c995960c21b6064820152608490fd5b15611fd157565b60405162461bcd60e51b8152602060048201526013602482015272155cd95c88191bd95cc81b9bdd08195e1a5cdd606a1b6044820152606490fd5b1561201357565b60405162461bcd60e51b815260206004820152601560248201527413595b58995c88191bd95cc81b9bdd08195e1a5cdd605a1b6044820152606490fd5b81811061205b575050565b5f8155600101612050565b91909182516001600160401b038111611cea576120838254611e86565b601f8111612128575b50602080601f83116001146120c75750819293945f926120bc575b50508160011b915f199060031b1c1916179055565b015190505f806120a7565b90601f19831695845f5260205f20925f905b888210612110575050836001959697106120f8575b505050811b019055565b01515f1960f88460031b161c191690555f80806120ee565b806001859682949686015181550195019301906120d9565b61215390835f5260205f20601f840160051c81019160208510612159575b601f0160051c0190612050565b5f61208c565b9091508190612146565b61217b90602060405192828480945193849201611e0c565b810103902090565b1561218a57565b60405162461bcd60e51b815260206004820152602160248201527f4e6f7420617574686f72697a65643a20474d4f20726f6c6520726571756972656044820152601960fa1b6064820152608490fd5b156121e057565b60405162461bcd60e51b815260206004820152600f60248201526e496e76616c6964206164647265737360881b6044820152606490fd5b1561221e57565b60405162461bcd60e51b815260206004820152601260248201527110d85b1b195c88189b1858dadb1a5cdd195960721b6044820152606490fd5b6004821015611e5c5752565b335f52600360205261227860405f20611ebe565b8051801561233a576020918161229684936040518096819501611e0c565b810160018152030190206040516122ac81611cfe565b6122b582611ebe565b815260018201549060ff82166122ca81611e52565b60208201526122e360ff604083019360081c1683612258565b6002830154606082015260038301546080820152600483015460a082015260e060058401549360c08301948552600660018060a01b0391015416910152516004811015611e5c57600103612335575190565b505f90565b50505f90565b6001600160a01b039081165f90815260036020526040902061236190611ebe565b8051801561241a576020918161237f84936040518096819501611e0c565b810160018152030190209060405161239681611cfe565b61239f83611ebe565b815260e060018401549260ff84166123b681611e52565b60208401526123cf60ff604085019560081c1685612258565b6002850154606084015260038501546080840152600485015460a0840152600660058601549560c08501968752015416910152516004811015611e5c5760010361233a575116151590565b505050505f90565b60018060a01b038091165f526020600381526040612441815f20611ebe565b8051801561255757825184810190612470868281870195612463818789611e0c565b8101038084520182611d50565b51902083518581019069474f5645524e414e434560b01b8252600a815261249681611d35565b5190201461254d57836124b69160e0938551938492839251928391611e0c565b810160018152030190209361250060ff8451946124d286611cfe565b6124db88611ebe565b8652600188015496828816906124f082611e52565b87015285019560081c1685612258565b6002850154606084015260038501546080840152600485015460a0840152600660058601549560c08501968752015416910152516004811015611e5c57600103612335575160c016151590565b5050505050600190565b50505050505f90565b60018060a01b038091165f52602060038152604061257f815f20611ebe565b80518015612557578251848101906125a1868281870195612463818789611e0c565b51902083518581019069474f5645524e414e434560b01b8252600a81526125c781611d35565b5190201461254d57836125e79160e0938551938492839251928391611e0c565b810160018152030190209361260360ff8451946124d286611cfe565b6002850154606084015260038501546080840152600485015460a0840152600660058601549560c08501968752015416910152516004811015611e5c5760010361233557516101df16151590565b60018060a01b038091165f526020600381526040612670815f20611ebe565b8051801561270157825184810190612692868281870195612463818789611e0c565b51902083518581019069474f5645524e414e434560b01b8252600a81526126b881611d35565b519020146126f457836126d89160e0938551938492839251928391611e0c565b81016001815203019020936123cf60ff8451946124d286611cfe565b5050505050608016151590565b5050505050505f90565b5f546001600160a01b0316330361271e57565b60405163118cdaa760e01b8152336004820152602490fdfea26469706673582212200b52885da70933eeb7e4e058c74fb71b62c4a93832ea26755521edbb9f21154a64736f6c63430008180033","linkReferences":{}},"methodIdentifiers":{"activateUser(string)":"2b3fafb2","addToBlacklist(address)":"44337ea1","addUserAdminAddress(string,address)":"d10a9f68","addressToMemberGIC(address)":"93a02082","addressToUserId(address)":"b5ffbbcc","approveMember(string)":"d6e9f495","blacklisted(address)":"dbac26e9","getMemberDetails(string)":"fe1d3fd2","getMemberStatus(string)":"8e690fc5","getMembersCount()":"09772f8f","getMyRoles()":"7221558d","getUserDetails(string)":"085ba074","getUserStatus(string)":"07e9c883","getUsersCount()":"a4a1e263","isBlacklisted(address)":"fe575a87","isMemberInRole(address,uint256)":"8cbdcead","linkAddressToMember(address,string)":"a9d23d46","linkUserToMember(string,string)":"04418790","memberList(uint256)":"b307fc6d","members(string)":"6957a0b2","owner()":"8da5cb5b","registerMember(string,uint8,bytes32,address,uint256)":"cd77022c","registerUser(string,bytes32)":"68ae5563","removeFromBlacklist(address)":"537df3b6","renounceOwnership()":"715018a6","setBlacklisted(address,bool)":"d01dd6d2","setRole(string,uint256,bool)":"4dec2c5c","suspendMember(string,string)":"689f2ed2","suspendUser(string)":"e106c71a","terminateMember(string)":"3b8cd7dc","transferOwnership(address)":"f2fde38b","userList(uint256)":"9f4216e8","users(string)":"689e1c03","validatePermission(address,uint256)":"7c0f8882"},"id":8}