{"abi":[{"type":"constructor","inputs":[{"name":"_memberRegistry","type":"address","internalType":"address"}],"stateMutability":"nonpayable"},{"type":"function","name":"ROLE_DOCUMENT_SET","inputs":[],"outputs":[{"name":"","type":"uint256","internalType":"uint256"}],"stateMutability":"view"},{"type":"function","name":"ROLE_DOCUMENT_UPLOAD","inputs":[],"outputs":[{"name":"","type":"uint256","internalType":"uint256"}],"stateMutability":"view"},{"type":"function","name":"ROLE_GMO","inputs":[],"outputs":[{"name":"","type":"uint256","internalType":"uint256"}],"stateMutability":"view"},{"type":"function","name":"ROLE_LSP","inputs":[],"outputs":[{"name":"","type":"uint256","internalType":"uint256"}],"stateMutability":"view"},{"type":"function","name":"ROLE_MINTER","inputs":[],"outputs":[{"name":"","type":"uint256","internalType":"uint256"}],"stateMutability":"view"},{"type":"function","name":"ROLE_REFINER","inputs":[],"outputs":[{"name":"","type":"uint256","internalType":"uint256"}],"stateMutability":"view"},{"type":"function","name":"ROLE_TRADER","inputs":[],"outputs":[{"name":"","type":"uint256","internalType":"uint256"}],"stateMutability":"view"},{"type":"function","name":"ROLE_VAULT","inputs":[],"outputs":[{"name":"","type":"uint256","internalType":"uint256"}],"stateMutability":"view"},{"type":"function","name":"getDocumentDetails","inputs":[{"name":"documentId","type":"string","internalType":"string"}],"outputs":[{"name":"","type":"tuple","internalType":"struct DocumentRegistry.Document","components":[{"name":"documentId","type":"string","internalType":"string"},{"name":"fileHash","type":"string","internalType":"string"},{"name":"offChainPath","type":"string","internalType":"string"},{"name":"documentType","type":"string","internalType":"string"},{"name":"format","type":"string","internalType":"string"},{"name":"ownerEntityType","type":"string","internalType":"string"},{"name":"ownerEntityId","type":"string","internalType":"string"},{"name":"status","type":"uint8","internalType":"enum DocumentRegistry.DocumentStatus"},{"name":"registeredAt","type":"uint256","internalType":"uint256"},{"name":"blockNumber","type":"uint256","internalType":"uint256"}]}],"stateMutability":"view"},{"type":"function","name":"getDocumentHash","inputs":[{"name":"documentId","type":"string","internalType":"string"}],"outputs":[{"name":"","type":"string","internalType":"string"}],"stateMutability":"view"},{"type":"function","name":"getDocumentSetDetails","inputs":[{"name":"setId","type":"string","internalType":"string"}],"outputs":[{"name":"","type":"tuple","internalType":"struct DocumentRegistry.DocumentSet","components":[{"name":"setId","type":"string","internalType":"string"},{"name":"rootHash","type":"bytes32","internalType":"bytes32"},{"name":"ownerEntityType","type":"string","internalType":"string"},{"name":"ownerEntityId","type":"string","internalType":"string"},{"name":"documentIds","type":"string[]","internalType":"string[]"},{"name":"status","type":"uint8","internalType":"enum DocumentRegistry.SetStatus"},{"name":"registeredAt","type":"uint256","internalType":"uint256"}]}],"stateMutability":"view"},{"type":"function","name":"getDocumentSetRootHash","inputs":[{"name":"setId","type":"string","internalType":"string"}],"outputs":[{"name":"","type":"bytes32","internalType":"bytes32"}],"stateMutability":"view"},{"type":"function","name":"memberRegistry","inputs":[],"outputs":[{"name":"","type":"address","internalType":"contract IMemberRegistry"}],"stateMutability":"view"},{"type":"function","name":"owner","inputs":[],"outputs":[{"name":"","type":"address","internalType":"address"}],"stateMutability":"view"},{"type":"function","name":"registerDocument","inputs":[{"name":"documentId","type":"string","internalType":"string"},{"name":"fileHash","type":"string","internalType":"string"},{"name":"offChainPath","type":"string","internalType":"string"},{"name":"documentType","type":"string","internalType":"string"},{"name":"format","type":"string","internalType":"string"},{"name":"ownerEntityType","type":"string","internalType":"string"},{"name":"ownerEntityId","type":"string","internalType":"string"},{"name":"setId","type":"string","internalType":"string"}],"outputs":[],"stateMutability":"nonpayable"},{"type":"function","name":"registerDocumentSet","inputs":[{"name":"setId","type":"string","internalType":"string"},{"name":"rootHash","type":"bytes32","internalType":"bytes32"},{"name":"ownerEntityType","type":"string","internalType":"string"},{"name":"ownerEntityId","type":"string","internalType":"string"},{"name":"documentIds","type":"string[]","internalType":"string[]"}],"outputs":[],"stateMutability":"nonpayable"},{"type":"function","name":"renounceOwnership","inputs":[],"outputs":[],"stateMutability":"nonpayable"},{"type":"function","name":"revokeDocument","inputs":[{"name":"documentId","type":"string","internalType":"string"},{"name":"reason","type":"string","internalType":"string"}],"outputs":[],"stateMutability":"nonpayable"},{"type":"function","name":"supersedeDocument","inputs":[{"name":"documentId","type":"string","internalType":"string"},{"name":"newDocumentId","type":"string","internalType":"string"}],"outputs":[],"stateMutability":"nonpayable"},{"type":"function","name":"transferOwnership","inputs":[{"name":"newOwner","type":"address","internalType":"address"}],"outputs":[],"stateMutability":"nonpayable"},{"type":"function","name":"uploadDocument","inputs":[{"name":"documentId","type":"string","internalType":"string"},{"name":"fileHash","type":"string","internalType":"string"},{"name":"offChainPath","type":"string","internalType":"string"},{"name":"documentType","type":"string","internalType":"string"},{"name":"format","type":"string","internalType":"string"},{"name":"ownerEntityType","type":"string","internalType":"string"},{"name":"ownerEntityId","type":"string","internalType":"string"},{"name":"setId","type":"string","internalType":"string"}],"outputs":[],"stateMutability":"nonpayable"},{"type":"function","name":"uploadDocumentBatch","inputs":[{"name":"setId","type":"string","internalType":"string"},{"name":"rootHash","type":"bytes32","internalType":"bytes32"},{"name":"ownerEntityType","type":"string","internalType":"string"},{"name":"ownerEntityId","type":"string","internalType":"string"},{"name":"documentIds","type":"string[]","internalType":"string[]"},{"name":"fileHashes","type":"string[]","internalType":"string[]"},{"name":"offChainPaths","type":"string[]","internalType":"string[]"},{"name":"documentTypes","type":"string[]","internalType":"string[]"},{"name":"formats","type":"string[]","internalType":"string[]"}],"outputs":[],"stateMutability":"nonpayable"},{"type":"function","name":"verifyDocument","inputs":[{"name":"documentId","type":"string","internalType":"string"},{"name":"fileHash","type":"string","internalType":"string"}],"outputs":[{"name":"","type":"bool","internalType":"bool"}],"stateMutability":"view"},{"type":"function","name":"verifyDocumentAndLog","inputs":[{"name":"documentId","type":"string","internalType":"string"},{"name":"fileHash","type":"string","internalType":"string"}],"outputs":[{"name":"verified","type":"bool","internalType":"bool"}],"stateMutability":"nonpayable"},{"type":"function","name":"verifyDocumentSet","inputs":[{"name":"setId","type":"string","internalType":"string"},{"name":"merkleProof","type":"bytes32[]","internalType":"bytes32[]"}],"outputs":[{"name":"","type":"bool","internalType":"bool"}],"stateMutability":"view"},{"type":"event","name":"DocumentRegistered","inputs":[{"name":"documentId","type":"string","indexed":true,"internalType":"string"},{"name":"fileHash","type":"string","indexed":true,"internalType":"string"},{"name":"offChainPath","type":"string","indexed":false,"internalType":"string"},{"name":"documentType","type":"string","indexed":false,"internalType":"string"},{"name":"format","type":"string","indexed":false,"internalType":"string"},{"name":"ownerEntityType","type":"string","indexed":false,"internalType":"string"},{"name":"ownerEntityId","type":"string","indexed":false,"internalType":"string"},{"name":"timestamp","type":"uint256","indexed":false,"internalType":"uint256"},{"name":"blockNumber","type":"uint256","indexed":false,"internalType":"uint256"}],"anonymous":false},{"type":"event","name":"DocumentRevoked","inputs":[{"name":"documentId","type":"string","indexed":true,"internalType":"string"},{"name":"reason","type":"string","indexed":false,"internalType":"string"},{"name":"timestamp","type":"uint256","indexed":false,"internalType":"uint256"}],"anonymous":false},{"type":"event","name":"DocumentSetRegistered","inputs":[{"name":"setId","type":"string","indexed":true,"internalType":"string"},{"name":"rootHash","type":"bytes32","indexed":true,"internalType":"bytes32"},{"name":"ownerEntityType","type":"string","indexed":false,"internalType":"string"},{"name":"ownerEntityId","type":"string","indexed":false,"internalType":"string"},{"name":"documentCount","type":"uint256","indexed":false,"internalType":"uint256"},{"name":"timestamp","type":"uint256","indexed":false,"internalType":"uint256"}],"anonymous":false},{"type":"event","name":"DocumentSuperseded","inputs":[{"name":"documentId","type":"string","indexed":true,"internalType":"string"},{"name":"newDocumentId","type":"string","indexed":true,"internalType":"string"},{"name":"timestamp","type":"uint256","indexed":false,"internalType":"uint256"}],"anonymous":false},{"type":"event","name":"DocumentVerified","inputs":[{"name":"documentId","type":"string","indexed":true,"internalType":"string"},{"name":"fileHash","type":"string","indexed":false,"internalType":"string"},{"name":"verified","type":"bool","indexed":false,"internalType":"bool"},{"name":"timestamp","type":"uint256","indexed":false,"internalType":"uint256"}],"anonymous":false},{"type":"event","name":"OwnershipTransferred","inputs":[{"name":"previousOwner","type":"address","indexed":true,"internalType":"address"},{"name":"newOwner","type":"address","indexed":true,"internalType":"address"}],"anonymous":false},{"type":"error","name":"OwnableInvalidOwner","inputs":[{"name":"owner","type":"address","internalType":"address"}]},{"type":"error","name":"OwnableUnauthorizedAccount","inputs":[{"name":"account","type":"address","internalType":"address"}]}],"bytecode":{"object":"0x60803461011057601f620025ac38819003918201601f19168301916001600160401b038311848410176101145780849260209460405283398101031261011057516001600160a01b03808216918290036101105733156100f8575f549060018060a01b03199133838216175f55604051913391167f8be0079c531659141344cd1fd0a4f28419497f9722a3daafe3b4186f6b6457e05f80a382156100b6575060015416176001556040516124839081620001298239f35b62461bcd60e51b815260206004820152601660248201527f496e76616c6964204d656d6265725265676973747279000000000000000000006044820152606490fd5b604051631e4fbdf760e01b81525f6004820152602490fd5b5f80fd5b634e487b7160e01b5f52604160045260245ffdfe6080604052600480361015610012575f80fd5b5f3560e01c9081630b794ee41461012f5781630e701718146110755781631c33e0071461105a57816325addaef14610ff257816345eed0db14610fd6578163478e285c14610ea3578163715018a614610e4c5781637589b7de14610e315781638aa219b114610e165781638da5cb5b14610def57816392afc33a14610dd4578163a4ca650b14610dbb578163a74d477214610d93578163b1842f1414610b50578163b3fd965114610935578163bb6ccd94146108ae578163c545268814610612578163c8bc77cd1461059c578163d0473a6514610581578163d29352db146102c5578163e19e6762146102a9578163f2fde38b1461021d578163f99a1cac14610201578163fc0e7ae114610155575063fc1a881b1461012f575f80fd5b346101515761014f6101403661127a565b969590959491949392936114e3565b005b5f80fd5b34610151576040366003190112610151576001600160401b03908035828111610151576101859036908301611225565b906024359283116101515736602384011215610151578201356101a78161134a565b926101b56040519485611204565b8184526020916024602086019160051b8301019136831161015157602401905b8282106101f25760206101e8878761179b565b6040519015158152f35b813581529083019083016101d5565b34610151575f3660031901126101515760206040516101d38152f35b34610151576020366003190112610151576001600160a01b03813581811692908390036101515761024c61235e565b821561029257505f54826bffffffffffffffffffffffff60a01b8216175f55167f8be0079c531659141344cd1fd0a4f28419497f9722a3daafe3b4186f6b6457e05f80a3005b6024905f60405191631e4fbdf760e01b8352820152fd5b34610151575f3660031901126101515760206040516101df8152f35b346101515760203660031901126101515780356001600160401b0381116101515760206102f86103849236908501611225565b5f610120604051610308816111e8565b606081526060858201526060604082015260608082015260606080820152606060a0820152606060c08201528260e082015282610100820152015260405190610373600882519385818186019661036081838a611423565b81016002815203019020015415156115c7565b604051938492839251928391611423565b81016002815203019020906040519161039c836111e8565b6040516103b4816103ad818561170a565b0382611204565b83526040516103ca816103ad816001860161170a565b60208401526040516103e3816103ad816002860161170a565b60408401526040516103fc816103ad816003860161170a565b6060840152604051610414816103ad8186860161170a565b608084015260405161042d816103ad816005860161170a565b60a0840152604051610446816103ad816006860161170a565b60c084015260ff600782015416600381101561056e579060099160e085015260088101546101008501520154610120830152604051906020825261052861049b84516101406020860152610160850190611444565b6105136104ff6104eb6104d76104c360208a015195601f1996878b83030160408c0152611444565b60408a0151868a83030160608b0152611444565b6060890151858983030160808a0152611444565b6080880151848883030160a0890152611444565b60a0870151838783030160c0880152611444565b9060c0860151908583030160e0860152611444565b9060e084015190600382101561055b57508293610120916101008501526101008101518285015201516101408301520390f35b602190634e487b7160e01b5f525260245ffd5b602183634e487b7160e01b5f525260245ffd5b34610151575f36600319011261015157602060405160018152f35b346101515760206105ac366113e0565b7f05310affd9dae8b496acdecf70131ad2572fb701888a89c0346ce89ea04952526105f86105e36105dd8486612389565b94611608565b92604051918291606083526060830190611444565b9415159485878301524260408301520390a2604051908152f35b3461015157602090816003193601126101515780356001600160401b038111610151576106429036908301611225565b6106aa8360405192610653846111b9565b5f60c0606095868152828582015286604082015286808201528660808201528260a0820152015260405190610373600682519385818186019661069781838a611423565b810160038152030190200154151561158b565b81016003815203019020604051906106c1826111b9565b6040516106d2816103ad818561170a565b825260018082015495808401968752604051906106fd826106f6816002880161170a565b0383611204565b604085019182526040519761072089610719816003890161170a565b038a611204565b8686019889528785019283546107358161134a565b946107436040519687611204565b8186525f908152848120878688015b8785851061088b575050505050506080870193845260ff6005870154169560a0880196600281101561087857879b9392989a9b999695949952600601549660c08a0197885260405199898b5251898b0160e090526101008b016107b491611444565b915160408b01525190601f1995868b830301908b01526107d391611444565b905190848982030160808a01526107e991611444565b905195838883030160a089015286519182815281810182808560051b8401019901955f925b858410610849578c8c8c8c8c5160028110156108365783945060c08401525160e08301520390f35b602185634e487b7160e01b5f525260245ffd5b90919293949585806108668d8b9e9b8787879e0301895251611444565b9c01940194019296959493919061080e565b60218b634e487b7160e01b5f525260245ffd5b829160405161089e816103ad818961170a565b8152019201920191908890610752565b34610151576020806003193601126101515781356001600160401b038111610151576001610906836108e96106f69661091d95369101611225565b60405190610373600882519385818186019661036081838a611423565b81016002815203019020016040519384809261170a565b610931604051928284938452830190611444565b0390f35b3461015157610943366113e0565b600154604051638cbdcead60e01b815233818601526101df6024820152602094929392918590829060449082906001600160a01b03165afa8015610b4557610992915f91610b18575b50611481565b6007604051858185516109a88183858a01611423565b810160028152030190206109c1600882015415156115c7565b019081549060ff82166003811015610ac8576109dd9015611690565b60405160088651918881818a01946109f6818388611423565b81016002815203019020015415610adb576007610a218860ff93604051809381928c51928391611423565b810160028152030190200154166003811015610ac857610a84575060ff191660011790557f68294722ade585e1ed87a7868b1a05f0696bdc912c102fc4078e5fa127891fcd90610a7a90610a7490611608565b92611608565b92604051428152a3005b60405162461bcd60e51b8152908101869052601760248201527f4e657720646f63756d656e74206e6f74206163746976650000000000000000006044820152606490fd5b602182634e487b7160e01b5f525260245ffd5b60405162461bcd60e51b8152808301889052601660248201527513995dc8191bd8dd5b595b9d081b9bdd08199bdd5b9960521b6044820152606490fd5b610b389150863d8811610b3e575b610b308183611204565b810190611469565b8661098c565b503d610b26565b6040513d5f823e3d90fd5b3461015157610120366003190112610151576001600160401b03813581811161015157610b809036908401611225565b9160443582811161015157610b989036908301611225565b60643583811161015157610baf9036908401611225565b9160843584811161015157610bc79036908301611361565b9360a43581811161015157610bdf9036908401611361565b9060c43581811161015157610bf79036908501611361565b9060e43581811161015157610c0f9036908601611361565b906101043590811161015157610c289036908601611361565b916001946044602060018060a01b036001541660405192838092638cbdcead60e01b825233878301526101df60248301525afa8015610b4557610c71915f91610d745750611481565b610c7d89511515611628565b8851855181149081610d69575b81610d5e575b81610d53575b5015610d1757505f855b610cb4575b61014f8989896024358e611f73565b8851811015610d1257908582610d078a8a610cd3859a9998978f611668565b51610cde858b611668565b51610ce98689611668565b51610cf4878b611668565b5191610d00888d611668565b5193611a97565b019091929394610ca0565b610ca5565b60649060206040519162461bcd60e51b83528201526015602482015274082e4e4c2f240d8cadccee8d040dad2e6dac2e8c6d605b1b6044820152fd5b90508451148b610c96565b845181149150610c90565b835181149150610c8a565b610d8d915060203d602011610b3e57610b308183611204565b8c61098c565b34610151575f366003190112610151576001546040516001600160a01b039091168152602090f35b346101515760206101e8610dce366113e0565b90612389565b34610151575f36600319011261015157602060405160028152f35b34610151575f366003190112610151575f546040516001600160a01b039091168152602090f35b34610151575f36600319011261015157602060405160108152f35b34610151575f36600319011261015157602060405160c08152f35b34610151575f36600319011261015157610e6461235e565b5f80546001600160a01b0319811682556001600160a01b03167f8be0079c531659141344cd1fd0a4f28419497f9722a3daafe3b4186f6b6457e08280a3005b3461015157610eb1366113e0565b600154604051638cbdcead60e01b815233818601526101df6024820152602094929392918590829060449082906001600160a01b03165afa8015610b4557610eff915f91610b185750611481565b600760405185818551610f158183858a01611423565b81016002815203019020610f2e600882015415156115c7565b019081549060ff82166003811015610ac857600214610fa0575060ff191660021790557f958cbf24e56260e1d344afe76e241d30f1f74711b2582ab62ac865764c407ba491610f9591610f8090611608565b93604051928392604084526040840190611444565b9042908301520390a2005b60405162461bcd60e51b8152908101869052600f60248201526e105b1c9958591e481c995d9bdad959608a1b6044820152606490fd5b34610151575f3660031901126101515760206040516101008152f35b34610151576020366003190112610151578035906001600160401b0382116101515761104660206110296001938295369101611225565b60405190610373600682519385818186019661069781838a611423565b810160038152030190200154604051908152f35b34610151575f366003190112610151576020604051600c8152f35b346101515760a0366003190112610151576001600160401b038135818111610151576110a49036908401611225565b90604435818111610151576110bc9036908501611225565b606435828111610151576110d39036908601611225565b91608435908111610151576110eb9036908601611361565b600154604051638cbdcead60e01b815233878201526101d3602482015291949190602090829060449082906001600160a01b03165afa908115610b45575f9161119a575b50156111435761014f945060243590611f73565b60405162461bcd60e51b8152602081870152602a60248201527f4e6f7420617574686f72697a65643a20646f63756d656e742073657420726f6c60448201526919481c995c5d5a5c995960b21b6064820152608490fd5b6111b3915060203d602011610b3e57610b308183611204565b8661112f565b60e081019081106001600160401b038211176111d457604052565b634e487b7160e01b5f52604160045260245ffd5b61014081019081106001600160401b038211176111d457604052565b90601f801991011681019081106001600160401b038211176111d457604052565b81601f82011215610151578035906001600160401b0382116111d45760405192611259601f8401601f191660200185611204565b8284526020838301011161015157815f926020809301838601378301015290565b610100600319820112610151576004916001600160401b0390833582811161015157836112a8918601611225565b9360243583811161015157846112bf918301611225565b9360443584811161015157816112d6918401611225565b9360643581811161015157826112ed918501611225565b936084358281116101515783611304918601611225565b9360a435838111610151578461131b918301611225565b9360c4358481116101515781611332918401611225565b9360e435908111610151576113479201611225565b90565b6001600160401b0381116111d45760051b60200190565b81601f820112156101515780359160209161137b8461134a565b936113896040519586611204565b808552838086019160051b8301019280841161015157848301915b8483106113b45750505050505090565b82356001600160401b0381116101515786916113d584848094890101611225565b8152019201916113a4565b906040600319830112610151576001600160401b03600435818111610151578361140c91600401611225565b926024359182116101515761134791600401611225565b5f5b8381106114345750505f910152565b8181015183820152602001611425565b9060209161145d81518092818552858086019101611423565b601f01601f1916010190565b90816020910312610151575180151581036101515790565b1561148857565b60405162461bcd60e51b815260206004820152602d60248201527f4e6f7420617574686f72697a65643a20646f63756d656e742075706c6f61642060448201526c1c9bdb19481c995c5d5a5c9959609a1b6064820152608490fd5b95926044979592949194602060018060a01b03600154166040519a8b8092638cbdcead60e01b82523360048301526101df60248301525afa958615610b455761153961153f976115449b5f916115465750611481565b88611a97565b611de3565b565b61155f915060203d602011610b3e57610b308183611204565b5f61098c565b602061157e918160405193828580945193849201611423565b8101600481520301902090565b1561159257565b60405162461bcd60e51b815260206004820152600d60248201526c14d95d081b9bdd08199bdd5b99609a1b6044820152606490fd5b156115ce57565b60405162461bcd60e51b8152602060048201526012602482015271111bd8dd5b595b9d081b9bdd08199bdd5b9960721b6044820152606490fd5b61162090602060405192828480945193849201611423565b810103902090565b1561162f57565b60405162461bcd60e51b8152602060048201526011602482015270456d70747920646f63756d656e7449647360781b6044820152606490fd5b805182101561167c5760209160051b010190565b634e487b7160e01b5f52603260045260245ffd5b1561169757565b60405162461bcd60e51b8152602060048201526013602482015272446f63756d656e74206e6f742061637469766560681b6044820152606490fd5b90600182811c92168015611700575b60208310146116ec57565b634e487b7160e01b5f52602260045260245ffd5b91607f16916116e1565b80545f9392611718826116d2565b918282526020936001916001811690815f1461177c575060011461173e575b5050505050565b90939495505f92919252835f2092845f945b83861061176857505050500101905f80808080611737565b805485870183015294019385908201611750565b60ff19168685015250505090151560051b010191505f80808080611737565b91909160409260405182818094516117b98160209788809601611423565b81016003815203019020926006840154156118d75760ff60058501541660028110156118e0576118d75781519485156118cd5783830151915f1994858801978811611860576118078861134a565b97611815604051998a611204565b808952611824601f199161134a565b0136828a013760015b8551811015611874576118408187611668565b519087810191818311611860576118596001938c611668565b520161182d565b634e487b7160e01b5f52601160045260245ffd5b50600190960154959194505f935090915b86518410156118c3576118988488611668565b5190818110156118b4575f5282526001845f205b930192611885565b905f5282526001845f206118ac565b9350945050501490565b5093505050505f90565b93505050505f90565b634e487b7160e01b5f52602160045260245ffd5b156118fb57565b60405162461bcd60e51b815260206004820152601760248201527f496e76616c6964206f776e6572456e74697479547970650000000000000000006044820152606490fd5b1561194757565b60405162461bcd60e51b8152602060048201526015602482015274125b9d985b1a59081bdddb995c915b9d1a5d1e5259605a1b6044820152606490fd5b81811061198f575050565b5f8155600101611984565b91909182516001600160401b0381116111d4576119b782546116d2565b601f8111611a5c575b50602080601f83116001146119fb5750819293945f926119f0575b50508160011b915f199060031b1c1916179055565b015190505f806119db565b90601f19831695845f5260205f20925f905b888210611a4457505083600195969710611a2c575b505050811b019055565b01515f1960f88460031b161c191690555f8080611a22565b80600185968294968601518155019501930190611a0d565b611a8790835f5260205f20601f840160051c81019160208510611a8d575b601f0160051c0190611984565b5f6119c0565b9091508190611a7a565b90949295815115611d9457855115611d5c57865115611d2057845115611cea57611ac3845115156118f4565b611acf81511515611940565b60405194600883519660208181870199611aea81838d611423565b810160028152030190200154611ca55760405194611b07866111e8565b838652602086019188835260408701868152606088018b81526080890183815260a08a019185835260c08b019388855260e08c015f9052426101008d01526101208c019c8d4390526040518080928d518092611b6292611423565b810160028152036020019020978c51611b7b908a61199a565b51611b899060018a0161199a565b51611b97906002890161199a565b51611ba5906003880161199a565b51611bb3906004870161199a565b51611bc1906005860161199a565b51611bcf906006850161199a565b600783019060e08801519860038a10156118e057611c47611c41611c9498611c86976009611c6a957fb4e471b9ffc40c135fc75f9ee80244eec10af301fd104613da2c9277ed25910b9f611c5c9f611c789a6101009260ff801983541691161790550151600884015551910155611608565b9b611608565b9b604051998a9960e08b5260e08b0190611444565b9089820360208b0152611444565b908782036040890152611444565b908582036060870152611444565b908382036080850152611444565b4260a08301524360c08301520390a3565b60405162461bcd60e51b815260206004820152601760248201527f446f63756d656e7420616c7265616479206578697374730000000000000000006044820152606490fd5b60405162461bcd60e51b815260206004820152600e60248201526d125b9d985b1a5908199bdc9b585d60921b6044820152606490fd5b60405162461bcd60e51b8152602060048201526014602482015273496e76616c696420646f63756d656e745479706560601b6044820152606490fd5b60405162461bcd60e51b815260206004820152601060248201526f092dcecc2d8d2c840ccd2d8ca90c2e6d60831b6044820152606490fd5b60405162461bcd60e51b8152602060048201526012602482015271125b9d985b1a5908191bd8dd5b595b9d125960721b6044820152606490fd5b805482101561167c575f5260205f2001905f90565b919091604051928051602091611e1683820192611e01818986611423565b87019684816004998a815203019020546116d2565b611f285783518015611e5b578360405182611e35829483858b01611423565b81016003815203019020600681015415611eeb578601611e5582826123fa565b15611e64575b50505050509050565b805490600160401b821015611ed85790611e8391600182018155611dce565b611ec6579581611e9c611ead959493611ebb989961199a565b604051948593849251928391611423565b82019081520301902061199a565b805f80808080611e5b565b5f87634e487b7160e01b82525260245ffd5b604188634e487b7160e01b5f525260245ffd5b60405162461bcd60e51b81528088018590526016602482015275111bd8dd5b595b9d081cd95d081b9bdd08199bdd5b9960521b6044820152606490fd5b611f6f8660405191829162461bcd60e51b83528201606090602081526017602082015276111bd8dd5b595b9d08185b1c9958591e481a5b881cd95d604a1b60408201520190565b0390fd5b9094939291938151156123295785156122f157611f92855115156118f4565b611f9e83511515611940565b611faa84511515611628565b604095865193835196602094600686820199611fc7818a8d611423565b880197878160039a600381520301902001546122ad575f5b88518110156120e15761200a878c81611ff8858e611668565b51915193828580945193849201611423565b8101600281520301902060088101541561209d576007015460ff16888110156118e0576120379015611690565b61205361204d612047838c611668565b51611565565b546116d2565b61205f57600101611fdf565b8a5162461bcd60e51b8152602060048201526017602482015276111bd8dd5b595b9d08185b1c9958591e481a5b881cd95d604a1b6044820152606490fd5b8b5162461bcd60e51b815260048101899052601760248201527f446f63756d656e7420646f6573206e6f742065786973740000000000000000006044820152606490fd5b509398946121019196508093989792978651809381928851928391611423565b81016003815203019020612115848261199a565b600190888282015561212a876002830161199a565b612137886003830161199a565b825160048201600160401b82116111d457805482825580831061223c575b505f908152858120848688015b88858510612221575050505060058301805460ff191690555050426006909101555f815b6121f3575b5050916121e46121d794926121c37fd805bfbe44d4ce36f16f07845af8816280e9dcfb166737361ececda408999db097955193611608565b978451968796608088526080880190611444565b9186830390870152611444565b918301524260608301520390a3565b825181101561221c57818161221587612210612047859689611668565b61199a565b0190612186565b61218b565b8161222e8493518661199a565b019201920191908590612162565b815f528483885f2092830192015b828110612258575050612155565b61226281546116d2565b80612271575b5001859061224a565b601f9081811160011461228a5750505f81555b5f612268565b6122a45f928484528c8420920160051c8201858301611984565b81835555612284565b895162461bcd60e51b815260048101879052601b60248201527f446f63756d656e742073657420616c72656164792065786973747300000000006044820152606490fd5b60405162461bcd60e51b815260206004820152601060248201526f092dcecc2d8d2c840e4dedee890c2e6d60831b6044820152606490fd5b60405162461bcd60e51b815260206004820152600d60248201526c125b9d985b1a59081cd95d1259609a1b6044820152606490fd5b5f546001600160a01b0316330361237157565b60405163118cdaa760e01b8152336004820152602490fd5b60206123a2918160405193828580945193849201611423565b810160028152030190206008810154156123f45760ff60078201541660038110156118e0576123f4576123e16001916103ad604051809481930161170a565b6020815191012090602081519101201490565b50505f90565b5f5b8154811015612446576103ad6124226124158385611dce565b506040519283809261170a565b8051602080920120908451908501201461243e576001016123fc565b505050600190565b5050505f9056fea26469706673582212209c3a1edfb55a42e3e5984712eea636fb80e5a16e4a3604c6797a41cd6e702c7064736f6c63430008180033","linkReferences":{}},"methodIdentifiers":{"ROLE_DOCUMENT_SET()":"f99a1cac","ROLE_DOCUMENT_UPLOAD()":"e19e6762","ROLE_GMO()":"7589b7de","ROLE_LSP()":"8aa219b1","ROLE_MINTER()":"92afc33a","ROLE_REFINER()":"d0473a65","ROLE_TRADER()":"45eed0db","ROLE_VAULT()":"1c33e007","getDocumentDetails(string)":"d29352db","getDocumentHash(string)":"bb6ccd94","getDocumentSetDetails(string)":"c5452688","getDocumentSetRootHash(string)":"25addaef","memberRegistry()":"a74d4772","owner()":"8da5cb5b","registerDocument(string,string,string,string,string,string,string,string)":"0b794ee4","registerDocumentSet(string,bytes32,string,string,string[])":"0e701718","renounceOwnership()":"715018a6","revokeDocument(string,string)":"478e285c","supersedeDocument(string,string)":"b3fd9651","transferOwnership(address)":"f2fde38b","uploadDocument(string,string,string,string,string,string,string,string)":"fc1a881b","uploadDocumentBatch(string,bytes32,string,string,string[],string[],string[],string[],string[])":"b1842f14","verifyDocument(string,string)":"a4ca650b","verifyDocumentAndLog(string,string)":"c8bc77cd","verifyDocumentSet(string,bytes32[])":"fc0e7ae1"},"id":0}