{"abi":[{"type":"constructor","inputs":[{"name":"_memberRegistry","type":"address","internalType":"address"},{"name":"_accountLedger","type":"address","internalType":"address"}],"stateMutability":"nonpayable"},{"type":"function","name":"accountLedger","inputs":[],"outputs":[{"name":"","type":"address","internalType":"contract IGoldAccountLedger"}],"stateMutability":"view"},{"type":"function","name":"addToBlacklist","inputs":[{"name":"account","type":"address","internalType":"address"}],"outputs":[],"stateMutability":"nonpayable"},{"type":"function","name":"assetOwner","inputs":[{"name":"","type":"uint256","internalType":"uint256"}],"outputs":[{"name":"","type":"address","internalType":"address"}],"stateMutability":"view"},{"type":"function","name":"assets","inputs":[{"name":"","type":"uint256","internalType":"uint256"}],"outputs":[{"name":"tokenId","type":"string","internalType":"string"},{"name":"serialNumber","type":"string","internalType":"string"},{"name":"refinerName","type":"string","internalType":"string"},{"name":"weightGrams","type":"uint256","internalType":"uint256"},{"name":"fineness","type":"uint256","internalType":"uint256"},{"name":"fineWeightGrams","type":"uint256","internalType":"uint256"},{"name":"productType","type":"string","internalType":"string"},{"name":"certificateHash","type":"bytes32","internalType":"bytes32"},{"name":"traceabilityGIC","type":"string","internalType":"string"},{"name":"status","type":"uint8","internalType":"enum GoldAssetToken.AssetStatus"},{"name":"mintedAt","type":"uint256","internalType":"uint256"},{"name":"certified","type":"bool","internalType":"bool"},{"name":"igan","type":"string","internalType":"string"}],"stateMutability":"view"},{"type":"function","name":"balanceOf","inputs":[{"name":"account","type":"address","internalType":"address"},{"name":"id","type":"uint256","internalType":"uint256"}],"outputs":[{"name":"","type":"uint256","internalType":"uint256"}],"stateMutability":"view"},{"type":"function","name":"balanceOfBatch","inputs":[{"name":"accounts","type":"address[]","internalType":"address[]"},{"name":"ids","type":"uint256[]","internalType":"uint256[]"}],"outputs":[{"name":"","type":"uint256[]","internalType":"uint256[]"}],"stateMutability":"view"},{"type":"function","name":"burn","inputs":[{"name":"tokenId","type":"uint256","internalType":"uint256"},{"name":"accountId","type":"string","internalType":"string"},{"name":"burnReason","type":"string","internalType":"string"}],"outputs":[],"stateMutability":"nonpayable"},{"type":"function","name":"forceTransfer","inputs":[{"name":"tokenId","type":"uint256","internalType":"uint256"},{"name":"from","type":"address","internalType":"address"},{"name":"to","type":"address","internalType":"address"},{"name":"reason","type":"string","internalType":"string"}],"outputs":[],"stateMutability":"nonpayable"},{"type":"function","name":"getAssetDetails","inputs":[{"name":"tokenId","type":"uint256","internalType":"uint256"}],"outputs":[{"name":"","type":"tuple","internalType":"struct GoldAssetToken.GoldAsset","components":[{"name":"tokenId","type":"string","internalType":"string"},{"name":"serialNumber","type":"string","internalType":"string"},{"name":"refinerName","type":"string","internalType":"string"},{"name":"weightGrams","type":"uint256","internalType":"uint256"},{"name":"fineness","type":"uint256","internalType":"uint256"},{"name":"fineWeightGrams","type":"uint256","internalType":"uint256"},{"name":"productType","type":"string","internalType":"string"},{"name":"certificateHash","type":"bytes32","internalType":"bytes32"},{"name":"traceabilityGIC","type":"string","internalType":"string"},{"name":"status","type":"uint8","internalType":"enum GoldAssetToken.AssetStatus"},{"name":"mintedAt","type":"uint256","internalType":"uint256"},{"name":"certified","type":"bool","internalType":"bool"},{"name":"igan","type":"string","internalType":"string"}]}],"stateMutability":"view"},{"type":"function","name":"getAssetStatus","inputs":[{"name":"tokenId","type":"uint256","internalType":"uint256"}],"outputs":[{"name":"","type":"uint8","internalType":"enum GoldAssetToken.AssetStatus"}],"stateMutability":"view"},{"type":"function","name":"getAssetsByOwner","inputs":[{"name":"owner","type":"address","internalType":"address"}],"outputs":[{"name":"","type":"uint256[]","internalType":"uint256[]"}],"stateMutability":"view"},{"type":"function","name":"getTokenByWarrant","inputs":[{"name":"warrantId","type":"string","internalType":"string"}],"outputs":[{"name":"","type":"uint256","internalType":"uint256"}],"stateMutability":"view"},{"type":"function","name":"isApprovedForAll","inputs":[{"name":"account","type":"address","internalType":"address"},{"name":"operator","type":"address","internalType":"address"}],"outputs":[{"name":"","type":"bool","internalType":"bool"}],"stateMutability":"view"},{"type":"function","name":"isAssetLocked","inputs":[{"name":"tokenId","type":"uint256","internalType":"uint256"}],"outputs":[{"name":"","type":"bool","internalType":"bool"}],"stateMutability":"view"},{"type":"function","name":"isWarrantUsed","inputs":[{"name":"warrantId","type":"string","internalType":"string"}],"outputs":[{"name":"","type":"bool","internalType":"bool"}],"stateMutability":"view"},{"type":"function","name":"memberRegistry","inputs":[],"outputs":[{"name":"","type":"address","internalType":"contract IMemberRegistry"}],"stateMutability":"view"},{"type":"function","name":"mint","inputs":[{"name":"to","type":"address","internalType":"address"},{"name":"accountId","type":"string","internalType":"string"},{"name":"serialNumber","type":"string","internalType":"string"},{"name":"refinerName","type":"string","internalType":"string"},{"name":"weightGrams","type":"uint256","internalType":"uint256"},{"name":"fineness","type":"uint256","internalType":"uint256"},{"name":"productType","type":"string","internalType":"string"},{"name":"certificateHash","type":"bytes32","internalType":"bytes32"},{"name":"traceabilityGIC","type":"string","internalType":"string"},{"name":"certified","type":"bool","internalType":"bool"},{"name":"warrantId","type":"string","internalType":"string"}],"outputs":[{"name":"","type":"uint256","internalType":"uint256"}],"stateMutability":"nonpayable"},{"type":"function","name":"owner","inputs":[],"outputs":[{"name":"","type":"address","internalType":"address"}],"stateMutability":"view"},{"type":"function","name":"removeFromBlacklist","inputs":[{"name":"account","type":"address","internalType":"address"}],"outputs":[],"stateMutability":"nonpayable"},{"type":"function","name":"renounceOwnership","inputs":[],"outputs":[],"stateMutability":"nonpayable"},{"type":"function","name":"safeBatchTransferFrom","inputs":[{"name":"from","type":"address","internalType":"address"},{"name":"to","type":"address","internalType":"address"},{"name":"ids","type":"uint256[]","internalType":"uint256[]"},{"name":"values","type":"uint256[]","internalType":"uint256[]"},{"name":"data","type":"bytes","internalType":"bytes"}],"outputs":[],"stateMutability":"nonpayable"},{"type":"function","name":"safeTransferFrom","inputs":[{"name":"from","type":"address","internalType":"address"},{"name":"to","type":"address","internalType":"address"},{"name":"id","type":"uint256","internalType":"uint256"},{"name":"value","type":"uint256","internalType":"uint256"},{"name":"data","type":"bytes","internalType":"bytes"}],"outputs":[],"stateMutability":"nonpayable"},{"type":"function","name":"setAccountLedger","inputs":[{"name":"_accountLedger","type":"address","internalType":"address"}],"outputs":[],"stateMutability":"nonpayable"},{"type":"function","name":"setApprovalForAll","inputs":[{"name":"operator","type":"address","internalType":"address"},{"name":"approved","type":"bool","internalType":"bool"}],"outputs":[],"stateMutability":"nonpayable"},{"type":"function","name":"setMemberRegistry","inputs":[{"name":"_memberRegistry","type":"address","internalType":"address"}],"outputs":[],"stateMutability":"nonpayable"},{"type":"function","name":"supportsInterface","inputs":[{"name":"interfaceId","type":"bytes4","internalType":"bytes4"}],"outputs":[{"name":"","type":"bool","internalType":"bool"}],"stateMutability":"view"},{"type":"function","name":"transferAsset","inputs":[{"name":"tokenId","type":"uint256","internalType":"uint256"},{"name":"to","type":"address","internalType":"address"}],"outputs":[{"name":"","type":"bool","internalType":"bool"}],"stateMutability":"nonpayable"},{"type":"function","name":"transferOwnership","inputs":[{"name":"newOwner","type":"address","internalType":"address"}],"outputs":[],"stateMutability":"nonpayable"},{"type":"function","name":"updateCustody","inputs":[{"name":"tokenId","type":"uint256","internalType":"uint256"},{"name":"toParty","type":"address","internalType":"address"},{"name":"custodyType","type":"string","internalType":"string"}],"outputs":[],"stateMutability":"nonpayable"},{"type":"function","name":"updateCustodyBatch","inputs":[{"name":"tokenIds","type":"uint256[]","internalType":"uint256[]"},{"name":"toParty","type":"address","internalType":"address"},{"name":"custodyType","type":"string","internalType":"string"}],"outputs":[],"stateMutability":"nonpayable"},{"type":"function","name":"updateStatus","inputs":[{"name":"tokenId","type":"uint256","internalType":"uint256"},{"name":"newStatus","type":"uint8","internalType":"enum GoldAssetToken.AssetStatus"},{"name":"reason","type":"string","internalType":"string"}],"outputs":[],"stateMutability":"nonpayable"},{"type":"function","name":"uri","inputs":[{"name":"tokenId","type":"uint256","internalType":"uint256"}],"outputs":[{"name":"","type":"string","internalType":"string"}],"stateMutability":"view"},{"type":"function","name":"verifyCertificate","inputs":[{"name":"tokenId","type":"uint256","internalType":"uint256"},{"name":"certificateHash","type":"bytes32","internalType":"bytes32"}],"outputs":[{"name":"","type":"bool","internalType":"bool"}],"stateMutability":"view"},{"type":"function","name":"warrantToToken","inputs":[{"name":"","type":"string","internalType":"string"}],"outputs":[{"name":"","type":"uint256","internalType":"uint256"}],"stateMutability":"view"},{"type":"event","name":"ApprovalForAll","inputs":[{"name":"account","type":"address","indexed":true,"internalType":"address"},{"name":"operator","type":"address","indexed":true,"internalType":"address"},{"name":"approved","type":"bool","indexed":false,"internalType":"bool"}],"anonymous":false},{"type":"event","name":"AssetBurned","inputs":[{"name":"tokenId","type":"uint256","indexed":true,"internalType":"uint256"},{"name":"burnReason","type":"string","indexed":false,"internalType":"string"},{"name":"finalOwner","type":"address","indexed":true,"internalType":"address"},{"name":"authorizedBy","type":"address","indexed":true,"internalType":"address"},{"name":"timestamp","type":"uint256","indexed":false,"internalType":"uint256"}],"anonymous":false},{"type":"event","name":"AssetMinted","inputs":[{"name":"tokenId","type":"uint256","indexed":true,"internalType":"uint256"},{"name":"serialNumber","type":"string","indexed":false,"internalType":"string"},{"name":"refinerName","type":"string","indexed":false,"internalType":"string"},{"name":"weightGrams","type":"uint256","indexed":false,"internalType":"uint256"},{"name":"fineness","type":"uint256","indexed":false,"internalType":"uint256"},{"name":"owner","type":"address","indexed":true,"internalType":"address"},{"name":"timestamp","type":"uint256","indexed":false,"internalType":"uint256"}],"anonymous":false},{"type":"event","name":"AssetStatusChanged","inputs":[{"name":"tokenId","type":"uint256","indexed":true,"internalType":"uint256"},{"name":"previousStatus","type":"uint8","indexed":false,"internalType":"enum GoldAssetToken.AssetStatus"},{"name":"newStatus","type":"uint8","indexed":false,"internalType":"enum GoldAssetToken.AssetStatus"},{"name":"reason","type":"string","indexed":false,"internalType":"string"},{"name":"changedBy","type":"address","indexed":true,"internalType":"address"},{"name":"timestamp","type":"uint256","indexed":false,"internalType":"uint256"}],"anonymous":false},{"type":"event","name":"AssetTransferred","inputs":[{"name":"tokenId","type":"uint256","indexed":true,"internalType":"uint256"},{"name":"fromIGAN","type":"address","indexed":true,"internalType":"address"},{"name":"toIGAN","type":"address","indexed":true,"internalType":"address"},{"name":"timestamp","type":"uint256","indexed":false,"internalType":"uint256"}],"anonymous":false},{"type":"event","name":"CustodyChanged","inputs":[{"name":"tokenId","type":"uint256","indexed":true,"internalType":"uint256"},{"name":"fromParty","type":"address","indexed":true,"internalType":"address"},{"name":"toParty","type":"address","indexed":true,"internalType":"address"},{"name":"custodyType","type":"string","indexed":false,"internalType":"string"},{"name":"timestamp","type":"uint256","indexed":false,"internalType":"uint256"}],"anonymous":false},{"type":"event","name":"OwnershipTransferred","inputs":[{"name":"previousOwner","type":"address","indexed":true,"internalType":"address"},{"name":"newOwner","type":"address","indexed":true,"internalType":"address"}],"anonymous":false},{"type":"event","name":"OwnershipUpdated","inputs":[{"name":"tokenId","type":"uint256","indexed":true,"internalType":"uint256"},{"name":"from","type":"address","indexed":true,"internalType":"address"},{"name":"to","type":"address","indexed":true,"internalType":"address"},{"name":"reason","type":"string","indexed":false,"internalType":"string"},{"name":"timestamp","type":"uint256","indexed":false,"internalType":"uint256"}],"anonymous":false},{"type":"event","name":"TransferBatch","inputs":[{"name":"operator","type":"address","indexed":true,"internalType":"address"},{"name":"from","type":"address","indexed":true,"internalType":"address"},{"name":"to","type":"address","indexed":true,"internalType":"address"},{"name":"ids","type":"uint256[]","indexed":false,"internalType":"uint256[]"},{"name":"values","type":"uint256[]","indexed":false,"internalType":"uint256[]"}],"anonymous":false},{"type":"event","name":"TransferSingle","inputs":[{"name":"operator","type":"address","indexed":true,"internalType":"address"},{"name":"from","type":"address","indexed":true,"internalType":"address"},{"name":"to","type":"address","indexed":true,"internalType":"address"},{"name":"id","type":"uint256","indexed":false,"internalType":"uint256"},{"name":"value","type":"uint256","indexed":false,"internalType":"uint256"}],"anonymous":false},{"type":"event","name":"URI","inputs":[{"name":"value","type":"string","indexed":false,"internalType":"string"},{"name":"id","type":"uint256","indexed":true,"internalType":"uint256"}],"anonymous":false},{"type":"event","name":"WarrantLinked","inputs":[{"name":"warrantId","type":"string","indexed":true,"internalType":"string"},{"name":"tokenId","type":"uint256","indexed":true,"internalType":"uint256"},{"name":"owner","type":"address","indexed":true,"internalType":"address"},{"name":"timestamp","type":"uint256","indexed":false,"internalType":"uint256"}],"anonymous":false},{"type":"error","name":"ERC1155InsufficientBalance","inputs":[{"name":"sender","type":"address","internalType":"address"},{"name":"balance","type":"uint256","internalType":"uint256"},{"name":"needed","type":"uint256","internalType":"uint256"},{"name":"tokenId","type":"uint256","internalType":"uint256"}]},{"type":"error","name":"ERC1155InvalidApprover","inputs":[{"name":"approver","type":"address","internalType":"address"}]},{"type":"error","name":"ERC1155InvalidArrayLength","inputs":[{"name":"idsLength","type":"uint256","internalType":"uint256"},{"name":"valuesLength","type":"uint256","internalType":"uint256"}]},{"type":"error","name":"ERC1155InvalidOperator","inputs":[{"name":"operator","type":"address","internalType":"address"}]},{"type":"error","name":"ERC1155InvalidReceiver","inputs":[{"name":"receiver","type":"address","internalType":"address"}]},{"type":"error","name":"ERC1155InvalidSender","inputs":[{"name":"sender","type":"address","internalType":"address"}]},{"type":"error","name":"ERC1155MissingApprovalForAll","inputs":[{"name":"operator","type":"address","internalType":"address"},{"name":"owner","type":"address","internalType":"address"}]},{"type":"error","name":"OwnableInvalidOwner","inputs":[{"name":"owner","type":"address","internalType":"address"}]},{"type":"error","name":"OwnableUnauthorizedAccount","inputs":[{"name":"account","type":"address","internalType":"address"}]}],"bytecode":{"object":"0x608034620001b5576001600160401b0390620041ce90601f38839003908101601f191682019084821183831017620001a15780839160409586948552833981010312620001b5576200005f60206200005783620001b9565b9201620001b9565b928251602081019181831090831117620001a1575f91845252600254600190600181811c9116801562000196575b60208210146200018257601f811162000138575b50505f60025533156200012157600380546001600160a01b0319808216339081179093559351946001600160a01b03939092849283167f8be0079c531659141344cd1fd0a4f28419497f9722a3daafe3b4186f6b6457e05f80a316836004541617600455169060055416176005556001600655613fff9081620001cf8239f35b8151631e4fbdf760e01b81525f6004820152602490fd5b60025f52601f0160051c7f405787fa12a823e0f2b7631cc41b3ba8828b3321ca811111fa75cd3aa3bb5ace908101905b818110620001775750620000a1565b5f8155820162000168565b634e487b7160e01b5f52602260045260245ffd5b90607f16906200008d565b634e487b7160e01b5f52604160045260245ffd5b5f80fd5b51906001600160a01b0382168203620001b55756fe60806040526004361015610011575f80fd5b5f3560e01c8062fdd58e1461023357806301ffc9a71461022e5780630e89341c14610229578063264716511461022457806327329eb71461021f578063276f09341461021a5780632a0ee644146102155780632eb2c2d61461021057806344337ea11461020b5780634873124d146102065780634e1273f414610201578063537df3b6146101fc57806359317b7a146101f75780635defa55e146101f2578063698d49ab146101ed5780636fd7c34c146101e8578063715018a6146101e3578063781f0b72146101de578063823a65f5146101d95780638b27ebf4146101d45780638da5cb5b146101cf578063a1f24b3d146101ca578063a22cb465146101c5578063a74d4772146101c0578063ba211db0146101bb578063c19b8c66146101b6578063c3b451a2146101b1578063cf35bdd0146101ac578063e7e55295146101a7578063e985e9c5146101a2578063f242432a1461019d578063f2fde38b14610198578063f5dca3ca146101935763fa62ee8d1461018e575f80fd5b611c63565b611c4b565b611b5c565b611aa5565b611a55565b6119ef565b611946565b611776565b6116c7565b61146a565b611442565b61138b565b6112dc565b6111bd565b611059565b611008565b610f03565b610ea8565b610e24565b610d3e565b610cfe565b610cb1565b610c49565b610b8f565b610b2c565b610a8f565b61096a565b6108c1565b61077c565b6105ff565b6105d9565b6103b4565b6102ec565b610292565b600435906001600160a01b038216820361024e57565b5f80fd5b602435906001600160a01b038216820361024e57565b604435906001600160a01b038216820361024e57565b35906001600160a01b038216820361024e57565b3461024e57604036600319011261024e5760206102d16102b0610238565b6024355f525f835260405f209060018060a01b03165f5260205260405f2090565b54604051908152f35b6001600160e01b031981160361024e57565b3461024e57602036600319011261024e57602060043561030b816102da565b63ffffffff60e01b16636cdb3d1360e11b8114908115610349575b8115610338575b506040519015158152f35b6301ffc9a760e01b1490505f61032d565b6303a24d0760e21b81149150610326565b5f5b83811061036b5750505f910152565b818101518382015260200161035c565b906020916103948151809281855285808601910161035a565b601f01601f1916010190565b9060206103b192818152019061037b565b90565b3461024e5760208060031936011261024e57600435805f52600882526103e2600a60405f2001541515611cdd565b5f526008815260405f206040519066697066733a2f2f60c81b838301526027925f93825461040f816117c1565b9360019180831690811561048f575060011461044d575b6104498661043d818a03601f19810183528261051e565b604051918291826103a0565b0390f35b9091929395505f52825f205f905b86821061047c57505050505061043d81602761044994820101935f80610426565b805486830185015290840190820161045b565b91505061044996508593506027925061043d94915060ff19168284015280151502820101935f80610426565b634e487b7160e01b5f52604160045260245ffd5b6101a081019081106001600160401b038211176104eb57604052565b6104bb565b6001600160401b0381116104eb57604052565b602081019081106001600160401b038211176104eb57604052565b90601f801991011681019081106001600160401b038211176104eb57604052565b6040519061054c826104cf565b565b6001600160401b0381116104eb57601f01601f191660200190565b81601f8201121561024e578035906105808261054e565b9261058e604051948561051e565b8284526020838301011161024e57815f926020809301838601378301015290565b602060031982011261024e57600435906001600160401b03821161024e576103b191600401610569565b3461024e57602060ff6105f36105ee366105af565b611bff565b54166040519015158152f35b3461024e57606036600319011261024e5760043561061b610252565b6044356001600160401b03811161024e5761063a903690600401610569565b61064383612c19565b825f52600860205261065d600a60405f2001541515611cdd565b5f838152600a602052604090205483907f7d8bbf09e5d2c4c9326e18403c0d0edc90bf13eb1854d3cab844ac9476b12ffe906001600160a01b03166040516001600160a01b03958616959091169381906106b990429083611d20565b0390a46106db60096106d3835f52600860205260405f2090565b015460ff1690565b9061070160096106f3835f52600860205260405f2090565b01805460ff19166002179055565b7f4a7f36090e241cfd69682f6a164350c2cb00366213fcca9c8a43c15e8168f94c604051806107333395429083611d54565b0390a3005b9081518082526020808093019301915f5b828110610757575050505090565b835185529381019392810192600101610749565b9060206103b1928181520190610738565b3461024e57602036600319011261024e57610795610238565b6006546001600160a01b03918216915f60015b83811061085757506107b990611dc3565b925f9160015b8481106107d45760405180610449888261076b565b82826107f86107eb845f52600a60205260405f2090565b546001600160a01b031690565b16148061082d575b61080d575b6001016107bf565b92610825818561081f6001948a611df5565b52611db0565b939050610805565b50600461084760096106d3845f52600860205260405f2090565b61085081610fdd565b1415610800565b848361086e6107eb845f52600a60205260405f2090565b161480610897575b610883575b6001016107a8565b9061088f600191611db0565b91905061087b565b5060046108b160096106d3845f52600860205260405f2090565b6108ba81610fdd565b1415610876565b3461024e57602036600319011261024e576004355f52600a602052602060018060a01b0360405f205416604051908152f35b6001600160401b0381116104eb5760051b60200190565b9080601f8301121561024e576020908235610924816108f3565b93610932604051958661051e565b81855260208086019260051b82010192831161024e57602001905b82821061095b575050505090565b8135815290830190830161094d565b3461024e5760a036600319011261024e57610983610238565b61098b610252565b90604435916001600160401b039081841161024e576109af6004943690860161090a565b9060643583811161024e576109c7903690870161090a565b9260843590811161024e576109df9036908701610569565b936001600160a01b03808216903382141580610a6c575b610a3f57831615610a285715610a1257610a1095506132e4565b005b604051626a0d4560e21b81525f81880152602490fd5b604051632bfa23e760e11b81525f81890152602490fd5b6040805163711bec9160e11b815233818b019081526001600160a01b038616602082015290918291010390fd5b505f82815260016020908152604080832033845290915290205460ff16156109f6565b3461024e57602036600319011261024e576044610aaa610238565b602060018060a01b036004541660405193848092638cbdcead60e01b825233600483015260c060248301525afa918215610b2757610a1092610af3915f91610af8575b50611e3d565b611e93565b610b1a915060203d602011610b20575b610b12818361051e565b810190611e1d565b5f610aed565b503d610b08565b611e32565b3461024e57610b3a366105af565b60ff610b4582611bff565b541615610b57576102d1602091611c25565b60405162461bcd60e51b815260206004820152601060248201526f15d85c9c985b9d081b9bdd081d5cd95960821b6044820152606490fd5b3461024e57604036600319011261024e576004356001600160401b0380821161024e573660238301121561024e578160040135610bcb816108f3565b92610bd9604051948561051e565b8184526020916024602086019160051b8301019136831161024e57602401905b828210610c32578560243586811161024e5761044991610c20610c2692369060040161090a565b90611ef2565b6040519182918261076b565b838091610c3e8461027e565b815201910190610bf9565b3461024e57602036600319011261024e576044610c64610238565b602060018060a01b036004541660405193848092638cbdcead60e01b825233600483015260c060248301525afa918215610b2757610a1092610cac915f91610af85750611e3d565b611f88565b3461024e57602036600319011261024e57610cca610238565b610cd2612cf4565b600580546001600160a01b0319166001600160a01b0392909216919091179055005b5f91031261024e57565b3461024e575f36600319011261024e576005546040516001600160a01b039091168152602090f35b8015150361024e57565b610124359061054c82610d26565b3461024e5761016036600319011261024e57610d58610238565b6024356001600160401b039182821161024e57610d7a60049236908401610569565b9060443584811161024e57610d929036908501610569565b9160643585811161024e57610daa9036908601610569565b9260c43586811161024e57610dc29036908701610569565b6101043587811161024e57610dda9036908801610569565b92610de3610d30565b946101443598891161024e57610e02610e14986104499a369101610569565b9660e4359460a435936084359361204c565b6040519081529081906020820190565b3461024e57602036600319011261024e57610e3d610238565b610e45612cf4565b6001600160a01b03168015610e70576bffffffffffffffffffffffff60a01b60045416176004555f80f35b60405162461bcd60e51b815260206004820152601060248201526f496e76616c696420726567697374727960801b6044820152606490fd5b3461024e575f36600319011261024e57610ec0612cf4565b600380546001600160a01b031981169091555f906001600160a01b03167f8be0079c531659141344cd1fd0a4f28419497f9722a3daafe3b4186f6b6457e08280a3005b3461024e57606036600319011261024e57602435600435600782101561024e576044356001600160401b03811161024e57610f637f4a7f36090e241cfd69682f6a164350c2cb00366213fcca9c8a43c15e8168f94c913690600401610569565b610f6c83612c19565b825f526008602052610f94600460ff600960405f20015416610f8d81610fdd565b14156126b8565b610fab60096106d3855f52600860205260405f2090565b90610fca856009610fc4875f52600860205260405f2090565b01611d3c565b6107336040519283923397429285612704565b60071115610fe757565b634e487b7160e01b5f52602160045260245ffd5b906007821015610fe75752565b3461024e57602036600319011261024e57600435805f526008602052611036600a60405f2001541515611cdd565b5f526008602052602060ff600960405f200154166110576040518092610ffb565bf35b3461024e57606036600319011261024e576001600160401b0360043581811161024e5761108a90369060040161090a565b90611093610252565b9060443590811161024e576110ac903690600401610569565b6110b883511515612735565b6001600160a01b03918216915f5b8451811015610a1057806110dc60019287611df5565b516110fd600a6110f4835f52600860205260405f2090565b01541515611cdd565b61110681612c19565b8361111c6107eb835f52600a60205260405f2090565b169086604092827f7d8bbf09e5d2c4c9326e18403c0d0edc90bf13eb1854d3cab844ac9476b12ffe855180611152428d83611d20565b0390a47f4a7f36090e241cfd69682f6a164350c2cb00366213fcca9c8a43c15e8168f94c6009926111a5611192856106d3865f52600860205260405f2090565b946106f3855f52600860205260405f2090565b51806111b43395429083611d54565b0390a3016110c6565b3461024e575f36600319011261024e576003546040516001600160a01b039091168152602090f35b906103b191602081528151906112096101a0928360208401526101c083019061037b565b9161127261124061122c602087015195601f19968787830301604088015261037b565b60408701518686830301606087015261037b565b60608601516080850152608086015160a085015260a086015160c085015260c0860151858583030160e086015261037b565b9361129960e08201516101009081860152820151956101209686868303018887015261037b565b948101516112ad6101409182860190610ffb565b8101516101609081850152810151906112cd610180928386019015159052565b0151928285030191015261037b565b3461024e57602036600319011261024e5761044961137f61137a600435604051611305816104cf565b6101806060918281528260208201528260408201525f838201525f60808201525f60a08201528260c08201525f60e0820152826101008201525f6101208201525f6101408201525f610160820152015261136c600a6110f4835f52600860205260405f2090565b5f52600860205260405f2090565b612774565b604051918291826111e5565b3461024e57604036600319011261024e576113a4610238565b6024356113b081610d26565b6001600160a01b03821691821561142b57816113ea6113fb92335f52600160205260405f209060018060a01b03165f5260205260405f2090565b9060ff801983541691151516179055565b60405190151581527f17307eab39ab6107e8899845ad3d59bd9653f200f220920489ca2b5937696c3160203392a3005b60405162ced3e160e81b81525f6004820152602490fd5b3461024e575f36600319011261024e576004546040516001600160a01b039091168152602090f35b3461024e57606036600319011261024e57600480356001600160401b0360243581811161024e5761149e9036908501610569565b5060443590811161024e576114b69036908401610569565b825460408051638cbdcead60e01b81523381870190815260036020828101919091526001600160a01b03979596959492939092849290891691839182910103915afa8015610b275761150f915f916116a8575b50611fe8565b611526600a6110f4845f52600860205260405f2090565b6115518161154160096106d3865f52600860205260405f2090565b61154a81610fdd565b1415612844565b6115666107eb835f52600a60205260405f2090565b9361158c600961157e855f52600860205260405f2090565b01805460ff19166004179055565b6115a9600c6115a3855f52600860205260405f2090565b016117f9565b6005546115c6906001600160a01b03165b6001600160a01b031690565b92828416611619575b50507fd0360773ac0050786178ca762143b27b7e9b2d0b663ee86cf9e7f114b350087191506116149061160284876130a8565b60405191829133971695429083611d20565b0390a4005b61162582511515612887565b833b1561024e5784935f928388936116516040519889968795869463303a694160e11b865285016128cc565b03925af1908115610b27577fd0360773ac0050786178ca762143b27b7e9b2d0b663ee86cf9e7f114b3500871926116149261168f575b8192506115cf565b8061169c6116a2926104f0565b80610cf4565b5f611687565b6116c1915060203d602011610b2057610b12818361051e565b5f611509565b3461024e57608036600319011261024e576116e0610252565b6116e8610268565b90606435916001600160401b03831161024e5761170b6024933690600401610569565b91602060018060a01b03600454166040519586809263fe575a8760e01b82523360048301525afa938415610b2757610a109461174f915f91611757575b50156128fc565b60043561293d565b611770915060203d602011610b2057610b12818361051e565b5f611748565b3461024e57604036600319011261024e57600435805f5260086020526117a4600a60405f2001541515611cdd565b5f5260086020526020602435600760405f20015414604051908152f35b90600182811c921680156117ef575b60208310146117db57565b634e487b7160e01b5f52602260045260245ffd5b91607f16916117d0565b9060405191825f825461180b816117c1565b908184526020946001916001811690815f146118775750600114611839575b50505061054c9250038361051e565b5f90815285812095935091905b81831061185f57505061054c93508201015f808061182a565b85548884018501529485019487945091830191611846565b9250505061054c94925060ff191682840152151560051b8201015f808061182a565b999b9793966119289661191c966103b19f9d9960606118ee8f96986119389f99611908996118d26118e0926101a0808d528c019061037b565b908a820360208c015261037b565b9088820360408a015261037b565b95015260808d015260a08c01528a820360c08c015261037b565b9160e089015287820361010089015261037b565b96610120860190610ffb565b6101408401521515610160830152565b61018081840391015261037b565b3461024e57602036600319011261024e576004355f52600860205260405f2061196e816117f9565b61044961197d600184016117f9565b9261198a600282016117f9565b906003810154600482015460058301546119a6600685016117f9565b6007850154906119b8600887016117f9565b9260ff60098801541694600a880154966119e2600c6119db600b8c015460ff1690565b9a016117f9565b996040519d8e9d8e611899565b3461024e57602036600319011261024e576004355f52600860205260ff600960405f200154166007811015610fe7578060036104499214908115611a41575b5060405190151581529081906020820190565b60029150611a4e81610fdd565b145f611a2e565b3461024e57604036600319011261024e57602060ff6105f3611a75610238565b611a7d610252565b6001600160a01b039182165f9081526001865260408082209290931681526020919091522090565b3461024e5760a036600319011261024e57611abe610238565b611ac6610252565b6084356001600160401b03811161024e57611ae5903690600401610569565b906001600160a01b038316338114159081611b38575b50611b1157610a109260643591604435916132a2565b60405163711bec9160e11b81523360048201526001600160a01b0384166024820152604490fd5b5f90815260016020908152604080832033845290915281205460ff16159150611afb565b3461024e57602036600319011261024e57611b75610238565b611b7d612cf4565b6001600160a01b03908116908115611bd057600354826bffffffffffffffffffffffff60a01b821617600355167f8be0079c531659141344cd1fd0a4f28419497f9722a3daafe3b4186f6b6457e05f80a3005b604051631e4fbdf760e01b81525f6004820152602490fd5b90611bfb6020928281519485920161035a565b0190565b6020611c1891816040519382858094519384920161035a565b8101600b81520301902090565b6020611c3e91816040519382858094519384920161035a565b8101600c81520301902090565b3461024e5760206102d1611c5e366105af565b611c25565b3461024e57604036600319011261024e576024611c7e610252565b602060018060a01b03600454166040519384809263fe575a8760e01b82523360048301525afa908115610b2757611cc3611ccb92610449945f916117575750156128fc565b600435612b4c565b60405190151581529081906020820190565b15611ce457565b60405162461bcd60e51b8152602060048201526014602482015273105cdcd95d08191bd95cc81b9bdd08195e1a5cdd60621b6044820152606490fd5b929190611d3760209160408652604086019061037b565b930152565b906007811015610fe75760ff80198354169116179055565b92919083611d6191610ffb565b6002602084015260806040840152601260808401527110d554d513d11657d25397d514905394d25560721b60a0840152606060c08401930152565b634e487b7160e01b5f52601160045260245ffd5b5f198114611dbe5760010190565b611d9c565b90611dcd826108f3565b611dda604051918261051e565b8281528092611deb601f19916108f3565b0190602036910137565b8051821015611e095760209160051b010190565b634e487b7160e01b5f52603260045260245ffd5b9081602091031261024e57516103b181610d26565b6040513d5f823e3d90fd5b15611e4457565b60405162461bcd60e51b815260206004820152602160248201527f4e6f7420617574686f72697a65643a20474d4f20726f6c6520726571756972656044820152601960fa1b6064820152608490fd5b602060018060a01b036024816004541693604051948593849263fe575a8760e01b84521660048301525afa908115610b27575f91611ed3575b5061054c57565b611eec915060203d602011610b2057610b12818361051e565b5f611ecc565b91909180518351808203611f66575050611f0c8151611dc3565b905f5b8151811015611f5f5780611f4d60019260051b5f602080808489010151938b01015182525260405f209060018060a01b03165f5260205260405f2090565b54611f588286611df5565b5201611f0f565b5090925050565b604051635b05999160e01b815260048101919091526024810191909152604490fd5b602060018060a01b036024816004541693604051948593849263fe575a8760e01b84521660048301525afa908115610b27575f91611fc9575b501561054c57565b611fe2915060203d602011610b2057610b12818361051e565b5f611fc1565b15611fef57565b60405162461bcd60e51b815260206004820152602f60248201527f4e6f7420617574686f72697a65643a20524546494e4552206f72204d494e544560448201526e14881c9bdb19481c995c5d5a5c9959608a1b6064820152608490fd5b60048054604051638cbdcead60e01b8152339281019290925260036024830152989b9499979894979693946001600160a01b039291906020908290604490829087165afa8015610b27576120a6915f916116a85750611fe8565b898282169b8c988915156120b99061233c565b855115156120c690612378565b6120cf8b611bff565b5460ff16156120dd906123b8565b6120e68b611bff565b805460ff191660011790556006549e8f9c6121008e611db0565b6006558d61210e8a8d6123fb565b61271090049061211d90612d48565b6040516a474946542d41535345542d60a81b602082015296908790602b820161214591611be8565b03601f1981018852612157908861051e565b61215f61053f565b968752602087018c90526040870152606086018c9052608086018a905260a086015260c085015260e08401526101008301525f610120830152426101408301521515610160820152836101808201526121c08a5f52600860205260405f2090565b906121ca91612538565b806121dd8a5f52600a60205260405f2090565b80546001600160a01b0319166001600160a01b039092169190911790558861220489611c25565b558861220e61260e565b9061221892612e8a565b6005546001600160a01b03166001600160a01b03169081166122a9575b50509185966122727f932fb8f9d495becdde3eacf21ebe2745661a8fa6948a458f8eb2bd242bcda69d9361227a989560405194859442938661265e565b0390a3612698565b6040514281527f668955a820819a04e294e0bebb8424dbb3fc596648f7d09ad40153fe8d0ab02090602090a490565b91939650919350803b1561024e57885f916122db938360405180968195829463303a694160e11b845260048401612620565b03925af1948515610b27578896612272899589957f932fb8f9d495becdde3eacf21ebe2745661a8fa6948a458f8eb2bd242bcda69d9561227a9a612329575b50939550935081989750612235565b8061169c612336926104f0565b5f61231a565b1561234357565b60405162461bcd60e51b815260206004820152600d60248201526c24b73b30b634b21037bbb732b960991b6044820152606490fd5b1561237f57565b60405162461bcd60e51b8152602060048201526011602482015270125b9d985b1a59081858d8dbdd5b9d1259607a1b6044820152606490fd5b156123bf57565b60405162461bcd60e51b815260206004820152601460248201527315d85c9c985b9d08185b1c9958591e481d5cd95960621b6044820152606490fd5b81810292918115918404141715611dbe57565b6007821015610fe75752565b601f821161242757505050565b5f5260205f20906020601f840160051c8301931061245f575b601f0160051c01905b818110612454575050565b5f8155600101612449565b9091508190612440565b91909182516001600160401b0381116104eb576124908161248a84546117c1565b8461241a565b602080601f83116001146124d1575081906124c29394955f926124c6575b50508160011b915f199060031b1c19161790565b9055565b015190505f806124ae565b90601f198316956124e5855f5260205f2090565b925f905b88821061252057505083600195969710612508575b505050811b019055565b01515f1960f88460031b161c191690555f80806124fe565b806001859682949686015181550195019301906124e9565b600c61018061054c9361254c815185612469565b61255d602082015160018601612469565b61256e604082015160028601612469565b606081015160038501556080810151600485015560a0810151600585015561259d60c082015160068601612469565b60e081015160078501556125b961010082015160088601612469565b6125d46101208201516125cb81610fdd565b60098601611d3c565b610140810151600a8501556126056125f0610160830151151590565b600b86019060ff801983541691151516179055565b01519101612469565b6040519061261b82610503565b5f8252565b929190604061263960609260808752608087019061037b565b600160208701528581038287015260048152631352539560e21b602082015201930152565b916126899061267b6080959897969360a0865260a086019061037b565b90848203602086015261037b565b95604083015260608201520152565b6126b09060206040519282848094519384920161035a565b810103902090565b156126bf57565b60405162461bcd60e51b815260206004820152601a60248201527f43616e6e6f7420757064617465206275726e65642061737365740000000000006044820152606490fd5b94939261272460609361271a88611d3795610ffb565b6020880190610ffb565b60806040870152608086019061037b565b1561273c57565b60405162461bcd60e51b815260206004820152601060248201526f4d697373696e6720746f6b656e49647360801b6044820152606490fd5b9061283c600c61278261053f565b9361278c816117f9565b855261279a600182016117f9565b60208601526127ab600282016117f9565b60408601526003810154606086015260048101546080860152600581015460a08601526127da600682016117f9565b60c0860152600781015460e08601526127f5600882016117f9565b61010086015261281661280c600983015460ff1690565b610120870161240e565b600a8101546101408601526115a3612832600b83015460ff1690565b1515610160870152565b610180830152565b1561284b57565b60405162461bcd60e51b8152602060048201526014602482015273105cdcd95d08185b1c9958591e48189d5c9b995960621b6044820152606490fd5b1561288e57565b60405162461bcd60e51b8152602060048201526016602482015275135a5cdcda5b99c81251d05388199bdc88185cdcd95d60521b6044820152606490fd5b939291611d37906128e760609360808852608088019061037b565b5f19602088015286810360408801529061037b565b1561290357565b60405162461bcd60e51b815260206004820152601260248201527110d85b1b195c88189b1858dadb1a5cdd195960721b6044820152606490fd5b9092919260018060a01b039060446020836004541660405192838092638cbdcead60e01b825233600483015260c060248301525afa8015610b2757612988915f91610af85750611e3d565b61299f600a6110f4855f52600860205260405f2090565b816129b2845f52600a60205260405f2090565b541693828216809503612a5257612a30612a4d92855f80516020613faa833981519152958916986129e48a1515612a8e565b612a106004612a0060096106d3865f52600860205260405f2090565b612a0981610fdd565b1415612acf565b612a22600160ff196007541617600755565b612a2a61260e565b92613252565b612a3f60ff1960075416600755565b604051918291429083611d20565b0390a4565b60405162461bcd60e51b8152602060048201526014602482015273496e76616c69642066726f6d206164647265737360601b6044820152606490fd5b15612a9557565b60405162461bcd60e51b8152602060048201526012602482015271496e76616c696420746f206164647265737360701b6044820152606490fd5b15612ad657565b60405162461bcd60e51b815260206004820152600c60248201526b105cdcd95d08189d5c9b995960a21b6044820152606490fd5b15612b1157565b60405162461bcd60e51b81526020600482015260136024820152721059191c995cdcc8189b1858dadb1a5cdd1959606a1b6044820152606490fd5b9060018060a01b036024602082600454166040519283809263fe575a8760e01b825286881660048301525afa8015610b2757612b90915f91612bfa575b5015612b0a565b825f52600a60205260405f2054163303612bc357612bbe9160405191612bb583610503565b5f835233613252565b600190565b60405162461bcd60e51b815260206004820152600f60248201526e2737ba103a37b5b2b71037bbb732b960891b6044820152606490fd5b612c13915060203d602011610b2057610b12818361051e565b5f612b89565b5f908152600a602052604090206001600160a01b0390819054163314612cf15760206044916004541660405192838092638cbdcead60e01b8252336004830152601f60248301525afa908115610b27575f91612cd2575b5015612c7857565b60405162461bcd60e51b815260206004820152602c60248201527f4e6f7420617574686f72697a65643a206173736574206f70657261746f72207260448201526b1bdb19481c995c5d5a5c995960a21b6064820152608490fd5b612ceb915060203d602011610b2057610b12818361051e565b5f612c70565b50565b6003546001600160a01b03163303612d0857565b60405163118cdaa760e01b8152336004820152602490fd5b90612d2a8261054e565b612d37604051918261051e565b8281528092611deb601f199161054e565b805f917a184f03e93ff9f4daa797ed6e38ed64bf6a1f01000000000000000080821015612e7c575b506d04ee2d6d415b85acef810000000080831015612e6d575b50662386f26fc1000080831015612e5e575b506305f5e10080831015612e4f575b5061271080831015612e40575b506064821015612e30575b600a80921015612e26575b600190816021612ddf60018701612d20565b95860101905b612df1575b5050505090565b5f19019083906f181899199a1a9b1b9c1cb0b131b232b360811b8282061a835304918215612e2157919082612de5565b612dea565b9160010191612dcd565b9190606460029104910191612dc2565b6004919392049101915f612db7565b6008919392049101915f612daa565b6010919392049101915f612d9b565b6020919392049101915f612d89565b60409350810491505f612d70565b6001600160a01b03808216949092851561309057612ec7604051916001835260208301526040820190600182526001606084015260808301604052565b959093612ed48551611dc3565b612ede8651611dc3565b935f5b8751811015612fcc57600480549091908890612f05906001600160a01b03166115ba565b60405163fe575a8760e01b81526001600160a01b039092169382019384529092602091829185919082908190850103915afa8015610b2757600193612f53925f92612faf575b505015612b0a565b81612f5e828d611df5565b5114612f6b575b01612ee1565b612faa88612f8b612f7c848d611df5565b515f52600a60205260405f2090565b80546001600160a01b0319166001600160a01b03909216919091179055565b612f65565b612fc59250803d10610b2057610b12818361051e565b5f80612f4b565b50919490939796959295612fe1888584613b86565b5f5b845181101561305c5780613002612ffc6001938d611df5565b51151590565b61300d575b01612fe3565b886130188288611df5565b51613033613026848b611df5565b516001600160a01b031690565b905f80516020613faa8339815191528b60405193169280613054428261380a565b0390a4613007565b5095509593509550905060018151145f14613086579060208061054c959301519101519133613ae8565b61054c93336138f3565b604051632bfa23e760e11b81525f6004820152602490fd5b6001600160a01b03918183161561323b576130e2604051916001835260208301526040820190600182526001606084015260808301604052565b90916040945f6040516130f481610503565b526130ff8451611dc3565b6131098551611dc3565b955f5b86518110156131b957600480549091908690613130906001600160a01b03166115ba565b8b5163fe575a8760e01b81526001600160a01b039092169382019384529092602091829185919082908190850103915afa8015610b275760019361317c925f92612faf57505015612b0a565b816131878289611df5565b5114613194575b0161310c565b6131b46131a4612f7c838b611df5565b80546001600160a01b0319169055565b61318e565b509293856131cb929695979397613cae565b5f5b835181101561323257806131e6612ffc60019385611df5565b6131f1575b016131cd565b5f6131fc8287611df5565b5161320a613026848a611df5565b905f80516020613faa833981519152878c519316928061322a428261380a565b0390a46131eb565b50505050509050565b604051626a0d4560e21b81525f6004820152602490fd5b9192916001600160a01b03828116156130905781161561323b5761329a61054c9490604051916001835260208301526040820190600182526001606084015260808301604052565b9290916132e4565b939291906001600160a01b03808216156130905785161561323b5761054c94604051926001845260208401526040830193600185526060840152608083016040525b90926001600160a01b03821615159290918390816137bc575b5f92919085613671575b6133118351611dc3565b9461331c8451611dc3565b995f5b8551811015613591578b908561354e575b8a8a8a6001600160a01b0383166134d1575b836001958b87613352848c611df5565b5114613365575b5050505050500161331f565b613370838692611df5565b5194613482575b60a088901b8890038b161580613472575b156133b3575050505090612f8b6133a7925f52600a60205260405f2090565b8a8a8a8f84908b613359565b8b80969293949690613463575b156133e557505050506133e091506131a4905f52600a60205260405f2090565b6133a7565b6133f4575b50505050506133a7565b61341f90612f8b6134106107eb875f52600a60205260405f2090565b955f52600a60205260405f2090565b8b1561342c575b8e6133ea565b61344f613454936134408461345a97611df5565b6001600160a01b039091169052565b611df5565b60019052565b885f828f613426565b50878060a01b038216156133c0565b50878060a01b0386161515613388565b6134b761349c60096106d3885f52600860205260405f2090565b6134a581610fdd565b600381141590816134bc575b506137cf565b613377565b600291506134c981610fdd565b14155f6134b1565b505060048054613520945060209291906134f3906001600160a01b03166115ba565b60405163fe575a8760e01b81526001600160a01b0390931691830191825291948592918391829160200190565b03915afa918215610b27578a8a8f84908f94600197613546915f91612bfa575015612b0a565b955050613342565b6004805461356e935060209187916134f3906001600160a01b03166115ba565b03915afa918215610b27578d9261358c915f91612bfa575015612b0a565b613330565b509450979295509050969294966135aa87868a84613e0c565b5f5b855181101561361d57806135c5612ffc60019388611df5565b6135d0575b016135ac565b6135da8188611df5565b516135e8613026838b611df5565b60405160a085901b859003808e1693921691905f80516020613faa8339815191529080613615428261380a565b0390a46135ca565b509395925093509460018060a01b03811661363a575b5050505050565b8451600103613660576020806136569601519201519233613b1d565b5f80808080613633565b61366c949192336139ec565b613656565b600454909350613689906001600160a01b03166115ba565b604051638cbdcead60e01b815233600482015260c0602482015293906020908186604481845afa958615610b27575f9661379d575b5085156136cd575b5050613307565b60405163fe575a8760e01b8082526001600160a01b038516600483015292908181602481865afa8015610b27578b915f91613780575b50159283613720575b5050506137199150612b0a565b5f806136c6565b6040519485526001600160a01b03919091166004850152909291508290829060249082905afa908115610b2757613719925f92613763575b5050155f898161370c565b6137799250803d10610b2057610b12818361051e565b5f80613758565b6137979150833d8511610b2057610b12818361051e565b5f613703565b6137b5919650823d8411610b2057610b12818361051e565b945f6136be565b6001600160a01b038616151594506132fd565b156137d657565b60405162461bcd60e51b815260206004820152600c60248201526b105cdcd95d081b1bd8dad95960a21b6044820152606490fd5b91906040835260086040840152672a2920a729a322a960c11b6060840152602060808401930152565b9081602091031261024e57516103b1816102da565b926138766103b195936138849360018060a01b031686525f602087015260a0604087015260a0860190610738565b908482036060860152610738565b91608081840391015261037b565b93906103b19593613876916138849460018060a01b03809216885216602087015260a0604087015260a0860190610738565b3d156138ee573d906138d58261054e565b916138e3604051938461051e565b82523d5f602084013e565b606090565b9293919093843b613905575050505050565b602091613928604051948593849363bc197c8160e01b9889865260048601613848565b03815f6001600160a01b0388165af15f91816139bb575b5061397e578261394d6138c4565b805191908261397757604051632bfa23e760e11b81526001600160a01b0383166004820152602490fd5b6020915001fd5b6001600160e01b0319160361399857505f80808080613633565b604051632bfa23e760e11b81526001600160a01b03919091166004820152602490fd5b6139de91925060203d6020116139e5575b6139d6818361051e565b810190613833565b905f61393f565b503d6139cc565b939290949194853b613a01575b505050505050565b613a24602093604051958694859463bc197c8160e01b998a875260048701613892565b03815f6001600160a01b0388165af15f9181613a64575b50613a49578261394d6138c4565b6001600160e01b0319160361399857505f80808080806139f9565b613a7e91925060203d6020116139e5576139d6818361051e565b905f613a3b565b909260a0926103b19594600180861b031683525f602084015260408301526060820152816080820152019061037b565b91926103b195949160a094600180871b03809216855216602084015260408301526060820152816080820152019061037b565b9293919093843b613afa575050505050565b602091613928604051948593849363f23a6e6160e01b9889865260048601613a85565b939290949194853b613b3157505050505050565b613a24602093604051958694859463f23a6e6160e01b998a875260048701613ab5565b91908201809211611dbe57565b9091613b786103b193604084526040840190610738565b916020818403910152610738565b9190918251825190818103611f665750505f5b8351811015613c1257600581901b84810160209081015191850101516001929184906001600160a01b038216613bd3575b50505001613b99565b613c0891613beb613c00925f525f60205260405f2090565b9060018060a01b03165f5260205260405f2090565b918254613b54565b90555f8381613bca565b509160018151145f14613c70576020908101519181015160408051938452918301526001600160a01b03909216915f9133917fc3d58168c5ae7397731d063d5bbf3d657854427343f4c083240f7aacaa2d0f62919081908101612a4d565b7f4a39dc06d4c0dbc64b70af90fd698a233a518aa5d07e595d983b8c0526c8f7fb612a4d5f939460405191829160018060a01b031696339583613b61565b9291908051825190818103611f665750505f5b8151811015613d6e57600581901b82810160209081015191850101516001600160a01b038716613cf6575b5050600101613cc1565b613d0b87613beb845f525f60205260405f2090565b54818110613d375787613beb6001959493613d2f9303935f525f60205260405f2090565b55905f613cec565b6040516303dee4c560e01b81526001600160a01b038916600482015260248101919091526044810182905260648101839052608490fd5b50905f92939160018151148414613dcd576020908101519181015160408051938452918301526001600160a01b039092169133917fc3d58168c5ae7397731d063d5bbf3d657854427343f4c083240f7aacaa2d0f629181908101612a4d565b6040516001600160a01b039093169233927f4a39dc06d4c0dbc64b70af90fd698a233a518aa5d07e595d983b8c0526c8f7fb928291612a4d9183613b61565b9392918051835190818103611f665750505f5b8151811015613f0457600581901b82810160209081015191860101516001600160a01b0392918590898516613e84575b6001948216613e62575b50505001613e1f565b613e7a91613beb613c00925f525f60205260405f2090565b90555f8481613e59565b9192939050613e9e89613beb845f525f60205260405f2090565b54838110613ecd5791869184600196959403613ec58c613beb855f525f60205260405f2090565b559450613e4f565b6040516303dee4c560e01b81526001600160a01b038b16600482015260248101919091526044810184905260648101839052608490fd5b508051939493919291600103613f66576020908101519181015160408051938452918301526001600160a01b03928316939092169133917fc3d58168c5ae7397731d063d5bbf3d657854427343f4c083240f7aacaa2d0f629181908101612a4d565b6040516001600160a01b03938416949093169233927f4a39dc06d4c0dbc64b70af90fd698a233a518aa5d07e595d983b8c0526c8f7fb928291612a4d9183613b6156fe8ec725dd8a48772a420e3a3a551add447b24fe29b5093e41922437ab8f905854a2646970667358221220c27e9dbb6451a1b8cec998614ac2d5ee6a739f1e901aedeea1259c4e768e097264736f6c63430008180033","linkReferences":{}},"methodIdentifiers":{"accountLedger()":"5defa55e","addToBlacklist(address)":"44337ea1","assetOwner(uint256)":"2a0ee644","assets(uint256)":"cf35bdd0","balanceOf(address,uint256)":"00fdd58e","balanceOfBatch(address[],uint256[])":"4e1273f4","burn(uint256,string,string)":"ba211db0","forceTransfer(uint256,address,address,string)":"c19b8c66","getAssetDetails(uint256)":"a1f24b3d","getAssetStatus(uint256)":"823a65f5","getAssetsByOwner(address)":"276f0934","getTokenByWarrant(string)":"4873124d","isApprovedForAll(address,address)":"e985e9c5","isAssetLocked(uint256)":"e7e55295","isWarrantUsed(string)":"26471651","memberRegistry()":"a74d4772","mint(address,string,string,string,uint256,uint256,string,bytes32,string,bool,string)":"698d49ab","owner()":"8da5cb5b","removeFromBlacklist(address)":"537df3b6","renounceOwnership()":"715018a6","safeBatchTransferFrom(address,address,uint256[],uint256[],bytes)":"2eb2c2d6","safeTransferFrom(address,address,uint256,uint256,bytes)":"f242432a","setAccountLedger(address)":"59317b7a","setApprovalForAll(address,bool)":"a22cb465","setMemberRegistry(address)":"6fd7c34c","supportsInterface(bytes4)":"01ffc9a7","transferAsset(uint256,address)":"fa62ee8d","transferOwnership(address)":"f2fde38b","updateCustody(uint256,address,string)":"27329eb7","updateCustodyBatch(uint256[],address,string)":"8b27ebf4","updateStatus(uint256,uint8,string)":"781f0b72","uri(uint256)":"0e89341c","verifyCertificate(uint256,bytes32)":"c3b451a2","warrantToToken(string)":"f5dca3ca"},"id":2}