{"abi":[{"type":"constructor","inputs":[{"name":"_memberRegistry","type":"address","internalType":"address"}],"stateMutability":"nonpayable"},{"type":"function","name":"MEMBER_ACTIVE","inputs":[],"outputs":[{"name":"","type":"uint8","internalType":"uint8"}],"stateMutability":"view"},{"type":"function","name":"ROLE_GMO","inputs":[],"outputs":[{"name":"","type":"uint256","internalType":"uint256"}],"stateMutability":"view"},{"type":"function","name":"ROLE_MINTER","inputs":[],"outputs":[{"name":"","type":"uint256","internalType":"uint256"}],"stateMutability":"view"},{"type":"function","name":"ROLE_ORDER_CREATOR","inputs":[],"outputs":[{"name":"","type":"uint256","internalType":"uint256"}],"stateMutability":"view"},{"type":"function","name":"ROLE_REFINER","inputs":[],"outputs":[{"name":"","type":"uint256","internalType":"uint256"}],"stateMutability":"view"},{"type":"function","name":"ROLE_TRADER","inputs":[],"outputs":[{"name":"","type":"uint256","internalType":"uint256"}],"stateMutability":"view"},{"type":"function","name":"accountLedger","inputs":[],"outputs":[{"name":"","type":"address","internalType":"contract IGoldAccountLedger"}],"stateMutability":"view"},{"type":"function","name":"cancelOrder","inputs":[{"name":"txRef","type":"string","internalType":"string"},{"name":"reason","type":"string","internalType":"string"}],"outputs":[],"stateMutability":"nonpayable"},{"type":"function","name":"counterparty","inputs":[],"outputs":[{"name":"","type":"string","internalType":"string"}],"stateMutability":"view"},{"type":"function","name":"createOrder","inputs":[{"name":"transactionRef","type":"string","internalType":"string"},{"name":"transactionId","type":"string","internalType":"string"},{"name":"txType","type":"uint8","internalType":"enum TransactionOrderBook.TransactionType"},{"name":"initiatorGIC","type":"string","internalType":"string"},{"name":"counterpartyGIC","type":"string","internalType":"string"},{"name":"tokenIds","type":"uint256[]","internalType":"uint256[]"},{"name":"requestedAssets","type":"tuple[]","internalType":"struct TransactionOrderBook.RequestedAsset[]","components":[{"name":"goldProductTypeId","type":"string","internalType":"string"},{"name":"quantityGrams","type":"uint256","internalType":"uint256"}]},{"name":"valuationDate","type":"string","internalType":"string"},{"name":"valuationCurrency","type":"string","internalType":"string"},{"name":"transactionValue","type":"uint256","internalType":"uint256"},{"name":"expiresAt","type":"uint256","internalType":"uint256"},{"name":"senderIGAN","type":"string","internalType":"string"},{"name":"receiverIGAN","type":"string","internalType":"string"}],"outputs":[{"name":"txRef","type":"string","internalType":"string"}],"stateMutability":"nonpayable"},{"type":"function","name":"executeOrder","inputs":[{"name":"txRef","type":"string","internalType":"string"}],"outputs":[],"stateMutability":"nonpayable"},{"type":"function","name":"failOrder","inputs":[{"name":"txRef","type":"string","internalType":"string"},{"name":"reason","type":"string","internalType":"string"}],"outputs":[],"stateMutability":"nonpayable"},{"type":"function","name":"getOrderDetails","inputs":[{"name":"txRef","type":"string","internalType":"string"}],"outputs":[{"name":"order","type":"tuple","internalType":"struct TransactionOrderBook.TransactionOrder","components":[{"name":"transactionRef","type":"string","internalType":"string"},{"name":"transactionId","type":"string","internalType":"string"},{"name":"txType","type":"uint8","internalType":"enum TransactionOrderBook.TransactionType"},{"name":"status","type":"uint8","internalType":"enum TransactionOrderBook.TransactionStatus"},{"name":"initiatorGIC","type":"string","internalType":"string"},{"name":"counterpartyGIC","type":"string","internalType":"string"},{"name":"senderIGAN","type":"string","internalType":"string"},{"name":"receiverIGAN","type":"string","internalType":"string"},{"name":"tokenIds","type":"uint256[]","internalType":"uint256[]"},{"name":"requestedAssets","type":"tuple[]","internalType":"struct TransactionOrderBook.RequestedAsset[]","components":[{"name":"goldProductTypeId","type":"string","internalType":"string"},{"name":"quantityGrams","type":"uint256","internalType":"uint256"}]},{"name":"valuationDate","type":"string","internalType":"string"},{"name":"valuationCurrency","type":"string","internalType":"string"},{"name":"transactionValue","type":"uint256","internalType":"uint256"},{"name":"createdAt","type":"uint256","internalType":"uint256"},{"name":"expiresAt","type":"uint256","internalType":"uint256"},{"name":"executedAt","type":"uint256","internalType":"uint256"},{"name":"createdBy","type":"address","internalType":"address"}]}],"stateMutability":"view"},{"type":"function","name":"getOrderSignatures","inputs":[{"name":"txRef","type":"string","internalType":"string"}],"outputs":[{"name":"","type":"tuple[]","internalType":"struct TransactionOrderBook.Signature[]","components":[{"name":"signer","type":"address","internalType":"address"},{"name":"signerUserId","type":"string","internalType":"string"},{"name":"signerRole","type":"string","internalType":"string"},{"name":"signature","type":"bytes","internalType":"bytes"},{"name":"signedAt","type":"uint256","internalType":"uint256"}]}],"stateMutability":"view"},{"type":"function","name":"getOrderStatus","inputs":[{"name":"txRef","type":"string","internalType":"string"}],"outputs":[{"name":"","type":"uint8","internalType":"enum TransactionOrderBook.TransactionStatus"}],"stateMutability":"view"},{"type":"function","name":"goldAssetToken","inputs":[],"outputs":[{"name":"","type":"address","internalType":"contract IGoldAssetToken"}],"stateMutability":"view"},{"type":"function","name":"initiator","inputs":[],"outputs":[{"name":"","type":"string","internalType":"string"}],"stateMutability":"view"},{"type":"function","name":"memberRegistry","inputs":[],"outputs":[{"name":"","type":"address","internalType":"contract IMemberRegistryExtended"}],"stateMutability":"view"},{"type":"function","name":"minSignatures","inputs":[],"outputs":[{"name":"","type":"uint256","internalType":"uint256"}],"stateMutability":"view"},{"type":"function","name":"owner","inputs":[],"outputs":[{"name":"","type":"address","internalType":"address"}],"stateMutability":"view"},{"type":"function","name":"prepareOrder","inputs":[{"name":"transactionRef","type":"string","internalType":"string"},{"name":"transactionId","type":"string","internalType":"string"},{"name":"txType","type":"uint8","internalType":"enum TransactionOrderBook.TransactionType"},{"name":"initiatorGIC","type":"string","internalType":"string"},{"name":"counterpartyGIC","type":"string","internalType":"string"},{"name":"senderIGAN","type":"string","internalType":"string"},{"name":"receiverIGAN","type":"string","internalType":"string"},{"name":"tokenIds","type":"uint256[]","internalType":"uint256[]"},{"name":"requestedAssets","type":"tuple[]","internalType":"struct TransactionOrderBook.RequestedAsset[]","components":[{"name":"goldProductTypeId","type":"string","internalType":"string"},{"name":"quantityGrams","type":"uint256","internalType":"uint256"}]},{"name":"valuationDate","type":"string","internalType":"string"},{"name":"valuationCurrency","type":"string","internalType":"string"},{"name":"transactionValue","type":"uint256","internalType":"uint256"},{"name":"expiresAt","type":"uint256","internalType":"uint256"},{"name":"signature","type":"bytes","internalType":"bytes"}],"outputs":[{"name":"txRef","type":"string","internalType":"string"}],"stateMutability":"nonpayable"},{"type":"function","name":"renounceOwnership","inputs":[],"outputs":[],"stateMutability":"nonpayable"},{"type":"function","name":"setExecutionOptions","inputs":[{"name":"_transferAssetsOnExecute","type":"bool","internalType":"bool"},{"name":"_updateLedgerOnExecute","type":"bool","internalType":"bool"}],"outputs":[],"stateMutability":"nonpayable"},{"type":"function","name":"setGoldAccountLedger","inputs":[{"name":"_accountLedger","type":"address","internalType":"address"}],"outputs":[],"stateMutability":"nonpayable"},{"type":"function","name":"setGoldAssetToken","inputs":[{"name":"_goldAssetToken","type":"address","internalType":"address"}],"outputs":[],"stateMutability":"nonpayable"},{"type":"function","name":"setMemberRegistry","inputs":[{"name":"_memberRegistry","type":"address","internalType":"address"}],"outputs":[],"stateMutability":"nonpayable"},{"type":"function","name":"setMinSignatures","inputs":[{"name":"_minSignatures","type":"uint256","internalType":"uint256"}],"outputs":[],"stateMutability":"nonpayable"},{"type":"function","name":"signOrder","inputs":[{"name":"txRef","type":"string","internalType":"string"},{"name":"signature","type":"bytes","internalType":"bytes"},{"name":"signerRole","type":"string","internalType":"string"}],"outputs":[],"stateMutability":"nonpayable"},{"type":"function","name":"transferAssetsOnExecute","inputs":[],"outputs":[{"name":"","type":"bool","internalType":"bool"}],"stateMutability":"view"},{"type":"function","name":"transferOwnership","inputs":[{"name":"newOwner","type":"address","internalType":"address"}],"outputs":[],"stateMutability":"nonpayable"},{"type":"function","name":"updateLedgerOnExecute","inputs":[],"outputs":[{"name":"","type":"bool","internalType":"bool"}],"stateMutability":"view"},{"type":"function","name":"updateOrderStatus","inputs":[{"name":"txRef","type":"string","internalType":"string"},{"name":"newStatus","type":"uint8","internalType":"enum TransactionOrderBook.TransactionStatus"},{"name":"reason","type":"string","internalType":"string"}],"outputs":[],"stateMutability":"nonpayable"},{"type":"event","name":"OrderCancelled","inputs":[{"name":"transactionRef","type":"string","indexed":true,"internalType":"string"},{"name":"reason","type":"string","indexed":false,"internalType":"string"},{"name":"timestamp","type":"uint256","indexed":false,"internalType":"uint256"}],"anonymous":false},{"type":"event","name":"OrderCreated","inputs":[{"name":"transactionRef","type":"string","indexed":true,"internalType":"string"},{"name":"transactionId","type":"string","indexed":false,"internalType":"string"},{"name":"txType","type":"uint8","indexed":false,"internalType":"enum TransactionOrderBook.TransactionType"},{"name":"initiatorGIC","type":"string","indexed":false,"internalType":"string"},{"name":"counterpartyGIC","type":"string","indexed":false,"internalType":"string"},{"name":"requestedAssetCount","type":"uint256","indexed":false,"internalType":"uint256"},{"name":"valuationCurrency","type":"string","indexed":false,"internalType":"string"},{"name":"transactionValue","type":"uint256","indexed":false,"internalType":"uint256"},{"name":"status","type":"uint8","indexed":false,"internalType":"enum TransactionOrderBook.TransactionStatus"},{"name":"timestamp","type":"uint256","indexed":false,"internalType":"uint256"},{"name":"expiresAt","type":"uint256","indexed":false,"internalType":"uint256"}],"anonymous":false},{"type":"event","name":"OrderExecuted","inputs":[{"name":"transactionRef","type":"string","indexed":true,"internalType":"string"},{"name":"tokenCount","type":"uint256","indexed":false,"internalType":"uint256"},{"name":"timestamp","type":"uint256","indexed":false,"internalType":"uint256"}],"anonymous":false},{"type":"event","name":"OrderFailed","inputs":[{"name":"transactionRef","type":"string","indexed":true,"internalType":"string"},{"name":"reason","type":"string","indexed":false,"internalType":"string"},{"name":"timestamp","type":"uint256","indexed":false,"internalType":"uint256"}],"anonymous":false},{"type":"event","name":"OrderPrepared","inputs":[{"name":"transactionRef","type":"string","indexed":true,"internalType":"string"},{"name":"tokenCount","type":"uint256","indexed":false,"internalType":"uint256"},{"name":"timestamp","type":"uint256","indexed":false,"internalType":"uint256"}],"anonymous":false},{"type":"event","name":"OrderSigned","inputs":[{"name":"transactionRef","type":"string","indexed":true,"internalType":"string"},{"name":"signer","type":"address","indexed":true,"internalType":"address"},{"name":"signerUserId","type":"string","indexed":false,"internalType":"string"},{"name":"signerRole","type":"string","indexed":false,"internalType":"string"},{"name":"signaturesCollected","type":"uint256","indexed":false,"internalType":"uint256"},{"name":"signaturesRequired","type":"uint256","indexed":false,"internalType":"uint256"},{"name":"timestamp","type":"uint256","indexed":false,"internalType":"uint256"}],"anonymous":false},{"type":"event","name":"OwnershipTransferred","inputs":[{"name":"previousOwner","type":"address","indexed":true,"internalType":"address"},{"name":"newOwner","type":"address","indexed":true,"internalType":"address"}],"anonymous":false},{"type":"error","name":"OwnableInvalidOwner","inputs":[{"name":"owner","type":"address","internalType":"address"}]},{"type":"error","name":"OwnableUnauthorizedAccount","inputs":[{"name":"account","type":"address","internalType":"address"}]}],"bytecode":{"object":"0x6080346200012657601f62004dea38819003918201601f19168301916001600160401b038311848410176200012a578084926020946040528339810103126200012657516001600160a01b0380821691829003620001265733156200010e575f549060018060a01b03199133838216175f55604051913391167f8be0079c531659141344cd1fd0a4f28419497f9722a3daafe3b4186f6b6457e05f80a3600260045561ffff19600554166005558215620000cc57506001541617600155604051614cab90816200013f8239f35b62461bcd60e51b815260206004820152601660248201527f496e76616c6964204d656d6265725265676973747279000000000000000000006044820152606490fd5b604051631e4fbdf760e01b81525f6004820152602490fd5b5f80fd5b634e487b7160e01b5f52604160045260245ffdfe60806040526004361015610011575f80fd5b5f3560e01c806304b5bf4f1461258657806308c17f3014611da7578063238acaa214611d8a5780632f7554ac14611ca25780632fdee1f31461194b57806345eed0db1461192f5780634a680b4214610bba5780634b4555b1146114235780634fbb487c14610f845780634fe5043d14610f3f57806351d80ef314610f1a5780635a54609814610eb45780635c39fcc114610e995780635defa55e14610e715780636fd7c34c14610de85780636fe5479214610dcc578063715018a614610d755780637589b7de14610d5a5780638486bdc414610d385780638da5cb5b14610d1157806392afc33a14610cf657806394ae772f14610cb1578063a74d477214610c89578063aedfb5d314610c30578063c3df654614610bfd578063ca698bc814610bd5578063d0473a6514610bba578063d8224ea8146105cc578063db413d9e1461057b578063e9e32947146103e0578063ea9dc25d146102045763f2fde38b14610179575f80fd5b34610200576020366003190112610200576004356001600160a01b0381811691829003610200576101a861464d565b81156101e8575f54826001600160601b0360a01b8216175f55167f8be0079c531659141344cd1fd0a4f28419497f9722a3daafe3b4186f6b6457e05f80a3005b604051631e4fbdf760e01b81525f6004820152602490fd5b5f80fd5b3461020057602080600319360112610200576004356001600160401b038111610200578161023961027a923690600401612760565b60405190610269600c82519385818186019661025681838a612918565b8101600681520301902001541515612fb9565b604051938492839251928391612918565b8101600781520301902090815491610291836127ec565b9261029f6040519485612724565b80845282840180925f52835f205f915b8383106103655750505050604051918083019381845251809452604083019360408160051b85010192915f955b8287106102e95785850386f35b909192938280600192603f1989820301855287519061034b61033861032660a0888060a01b03865116855286860151908088870152850190612939565b60408501518482036040860152612939565b6060808501519084830390850152612939565b9160808091015191015296019201960195929190926102dc565b60058660019260409998995161037a816126bf565b848060a01b038654168152610390858701612ff7565b838201526103a060028701612ff7565b60408201526040516103c0816103b98160038b01613118565b0382612724565b6060820152600486015460808201528152019201920191909594956102af565b34610200576103ee366127a6565b60015460405163fe575a8760e01b8152336004820152602093918490829060249082906001600160a01b03165afa8015610570575f9061053a575b6104349150156129d2565b60026040518481845161044a8183858901612918565b81016006815203019020610463600c8201541515612fb9565b61046c81614678565b8015610526575b61047c906130a3565b01805461048e60ff8260081c16614a7c565b8351156104ef5761ff0019166105001790557f02e9305cecf09be907ffd0503eb73fcbe81d21bca8403188cbcc53e4387d9dc9916104e4916104cf90612f99565b93604051928392604084526040840190612939565b9042908301520390a2005b60405162461bcd60e51b815260048101869052600f60248201526e1499585cdbdb881c995c5d5a5c9959608a1b6044820152606490fd5b5061047c61053333613377565b9050610473565b508381813d8311610569575b6105508183612724565b8101031261020057610564610434916129c5565b610429565b503d610546565b6040513d5f823e3d90fd5b346102005760403660031901126102005760043580151580910361020057602435801515809103610200576105ae61464d565b60ff61ff006005549260081b1692169061ffff191617176005555f80f35b34610200576020366003190112610200576004356001600160401b038111610200576105fc903690600401612760565b60015460405163fe575a8760e01b815233600482015290602090829060249082906001600160a01b03165afa8015610570575f90610b7f575b6106409150156129d2565b60405160208183516106558183858801612918565b810160068152030190209061066f600c8301541515612fb9565b61068061067b83614678565b6130a3565b60ff600283015460081c166006811015610b6b5760026106a091146130e0565b600582016106ae8154612c03565b15610b31576106c06006840154612c03565b15610af5576106d460078401541515612a73565b60ff60055416610754575b5090604061073760077ff236a289260b80b8f670f639c87bc95b2efa9286807681fea2d11b9959b1f0df9360ff60055460081c16610746575b60028101805461ff00191661030017905542600e820155015493612f99565b928151908152426020820152a2005b61074f816147b1565b610718565b6003546001600160a01b031615610ab7576107a3925f60018060a01b036002541692610781841515614750565b604051809681926302f8780d60e31b8352602060048401526024830190613118565b0381855afa938415610570575f94610a9b575b505f60405180936302f8780d60e31b82526020600483015281806107e06024820160068801613118565b03915afa918215610570575f92610a77575b5060408401516001600160a01b031615610a395760408201516001600160a01b0316156109f4575f5b60078201548110156109e857610834816007840161479c565b90549060031b1c9060018060a01b03600354166040519063823a65f560e01b8252836004830152602082602481845afa918215610570575f926109b7575b50600260ff831614610945575b5060ff1660031461091157600354604087810151908601516001600160a01b03918216929082169116803b15610200575f928360c4926040519788958694637921219560e11b86526004860152602485015260448401526001606484015260a060848401528160a48401525af191821561057057600192610902575b500161081b565b61090b90612711565b866108fb565b60405162461bcd60e51b815260206004820152600c60248201526b105cdcd95d081b1bd8dad95960a21b6044820152606490fd5b8091503b15610200575f809160a460405180948193633c0f85b960e11b83528860048401526001602484015260606044840152600960648401526811115312559154915160ba1b60848401525af18015610570576109a8575b50600160ff61087f565b6109b190612711565b8661099e565b6109da91925060203d6020116109e1575b6109d28183612724565b8101906136b5565b9088610872565b503d6109c8565b509250604090506106df565b60405162461bcd60e51b815260206004820152601860248201527f496e76616c6964207265636569766572206164647265737300000000000000006044820152606490fd5b60405162461bcd60e51b8152602060048201526016602482015275496e76616c69642073656e646572206164647265737360501b6044820152606490fd5b610a949192503d805f833e610a8c8183612724565b8101906133f1565b90846107f2565b610ab09194503d805f833e610a8c8183612724565b92846107b6565b60405162461bcd60e51b815260206004820152601660248201527511dbdb19105cdcd95d151bdad95b881b9bdd081cd95d60521b6044820152606490fd5b60405162461bcd60e51b815260206004820152601460248201527326b4b9b9b4b733903932b1b2b4bb32b924a3a0a760611b6044820152606490fd5b60405162461bcd60e51b815260206004820152601260248201527126b4b9b9b4b7339039b2b73232b924a3a0a760711b6044820152606490fd5b634e487b7160e01b5f52602160045260245ffd5b506020813d602011610bb2575b81610b9960209383612724565b8101031261020057610bad610640916129c5565b610635565b3d9150610b8c565b34610200575f36600319011261020057602060405160018152f35b34610200575f366003190112610200576003546040516001600160a01b039091168152602090f35b34610200575f36600319011261020057610c2c610c1861299d565b604051918291602083526020830190612939565b0390f35b34610200576020366003190112610200576004356001600160401b0381116102005760ff6002610c6a602061023981953690600401612760565b81016006815203019020015460081c16610c87604051809261296b565bf35b34610200575f366003190112610200576001546040516001600160a01b039091168152602090f35b34610200576020366003190112610200576004356001600160a01b0381169081900361020057610cdf61464d565b6001600160601b0360a01b60025416176002555f80f35b34610200575f36600319011261020057602060405160028152f35b34610200575f366003190112610200575f546040516001600160a01b039091168152602090f35b34610200575f36600319011261020057602060ff600554166040519015158152f35b34610200575f36600319011261020057602060405160c08152f35b34610200575f36600319011261020057610d8d61464d565b5f80546001600160a01b0319811682556001600160a01b03167f8be0079c531659141344cd1fd0a4f28419497f9722a3daafe3b4186f6b6457e08280a3005b34610200575f3660031901126102005760206040516101c38152f35b34610200576020366003190112610200576004356001600160a01b0381169081900361020057610e1661464d565b8015610e33576001600160601b0360a01b60015416176001555f80f35b60405162461bcd60e51b8152602060048201526016602482015275496e76616c6964204d656d626572526567697374727960501b6044820152606490fd5b34610200575f366003190112610200576002546040516001600160a01b039091168152602090f35b34610200575f36600319011261020057610c2c610c18612978565b3461020057602036600319011261020057600435610ed061464d565b60028103610edd57600455005b60405162461bcd60e51b8152602060048201526015602482015274496e76616c6964206d696e5369676e61747572657360581b6044820152606490fd5b34610200575f36600319011261020057602060ff60055460081c166040519015158152f35b34610200576020366003190112610200576004356001600160a01b0381169081900361020057610f6d61464d565b6001600160601b0360a01b60035416176003555f80f35b34610200576020366003190112610200576004356001600160401b038111610200576020610fb9611056923690600401612760565b5f610200604051610fc9816126da565b6060815260608582015282604082015282606082015260606080820152606060a0820152606060c0820152606060e0820152606061010082015260606101208201526060610140820152606061016082015282610180820152826101a0820152826101c0820152826101e0820152015260405190610269600c82519385818186019661025681838a612918565b810160068152030190206040519061106d826126da565b61107681612ff7565b825261108460018201612ff7565b6020830152600281015461109e60ff821660408501613097565b600660ff8260081c161015610b6b5760081c60ff1660608301526110c460038201612ff7565b60808301526110d560048201612ff7565b60a08301526110e660058201612ff7565b60c08301526110f760068201612ff7565b60e083015260078101604051808260208294549384815201905f5260205f20925f5b81811061140a57505061112e92500382612724565b6101008301526008810154611142816127ec565b906111506040519283612724565b80825260208201600884015f5260205f205f915b8383106113d6575050505061012083015261118160098201612ff7565b610140830152611193600a8201612ff7565b610160830152600b810154610180830152600c8101546101a0830152600d8101546101c0830152600e8101546101e0830152600f60018060a01b03910154166102008201526040516020815261129961128261126c61125661121c61120687516102206020890152610240880190612939565b6020880151878203601f19016040890152612939565b61122e6040880151606088019061295e565b6112406060880151608088019061296b565b6080870151868203601f190160a0880152612939565b60a0860151858203601f190160c0870152612939565b60c0850151848203601f190160e0860152612939565b60e0840151838203601f1901610100850152612939565b9161010081015192601f1983820301610120840152602080855192838152019401905f5b8181106113c05750505061012081015192601f1983820301610140840152835180825260208201916020808360051b8301019601925f915b83831061137f5786808761133661131e8c610140840151601f1986830301610160870152612939565b610160830151848203601f1901610180860152612939565b906101808101516101a08401526101a08101516101c08401526101c08101516101e08401526101e081015161020084015261020060018060a01b03910151166102208301520390f35b9091929396602080600192601f198582030186528a519082806113ab8451604085526040850190612939565b930151910152990193019301919392906112f5565b82518652602095860195909201916001016112bd565b600260206001926040516113e9816126f6565b6113f286612ff7565b81528486015483820152815201920192019190611164565b8454835260019485019486945060209093019201611119565b34610200576060366003190112610200576001600160401b0360043581811161020057611454903690600401612760565b602480358381116102005761146d903690600401612760565b9260443590811161020057611486903690600401612760565b60015460405163fe575a8760e01b8152336004820152602095929492916001600160a01b039081169187818781865afa8015610570575f906118f9575b6114ce9150156129d2565b604051958451968881818801996114e681838d612918565b8101600681520301902090611500600c8301541515612fb9565b61150c61067b83614678565b61151533613377565b156118b55761152685511515612ab2565b88815191012061153461299d565b8981519101200361187c57600281019260ff845460081c16600681101561186957879161156460015f93146130e0565b6040516349d0104160e11b815233600482015292839182905afa908115610570576004916115b7915f9161184f575b506115a0815115156130a3565b8a8151910120926103b96040518094819301613118565b888151910120036118185760ff6115f26040518981806115db8c8b51928391612918565b810160088152030190206115ed612978565b612bdd565b5416156117dd5761162f60ff6116276040518a81806116158d8c51928391612918565b810160088152030190206115ed61299d565b541615612c96565b6116446040518881875161161581838d612918565b600160ff198254161790556040518781865161166181838c612918565b8101600781520301902091816001541692604051905f828981632d7feef360e21b988982523360048301525afa908115610570575f966116d49388936117c1575b506116ab61299d565b604051936116b8856126bf565b3385528d85015260408401526060830152426080830152612cd3565b61020061ff001982541617905560015416936040518095819382523360048301525afa908115610570577febb434060d28d0e0f2447a93bd6a9c5fef02b4595969aefc0f03687a12bb084a925f9261179d575b506117846117498661173761299d565b96604051809381928751928391612918565b81016007815203019020549561176160045493612f99565b956117776040519560a0875260a0870190612939565b9185830390860152612939565b94604083015260608201524260808201528033940390a3005b6117ba9192503d805f833e6117b28183612724565b810190612b34565b9085611727565b6117d69193503d808a833e6117b28183612724565b918c6116a2565b60405162461bcd60e51b81526004810188905260148187015273125b9a5d1a585d1bdc881b9bdd081cda59db995960621b6044820152606490fd5b60405162461bcd60e51b8152600481018890526010818701526f4e6f7420636f756e746572706172747960801b6044820152606490fd5b61186391503d805f833e6117b28183612724565b8b611593565b87634e487b7160e01b5f5260216004525ffd5b60405162461bcd60e51b81526004810189905260128188015271496e76616c6964207369676e6572526f6c6560701b6044820152606490fd5b60405162461bcd60e51b8152600481018a9052601c818901527f4e6f7420617574686f72697a65643a20474d4f207265717569726564000000006044820152606490fd5b508781813d8311611928575b61190f8183612724565b81010312610200576119236114ce916129c5565b6114c3565b503d611905565b34610200575f3660031901126102005760206040516101008152f35b34610200576101a0366003190112610200576001600160401b036004358181116102005761197d903690600401612760565b9060243581811161020057611996903690600401612760565b6004604435101561020057606435828111610200576119b9903690600401612760565b91608435818111610200576119d2903690600401612760565b9360a435828111610200576119eb903690600401612803565b9260c43583811161020057611a04903690600401612863565b60e43584811161020057611a1c903690600401612760565b6101043585811161020057611a35903690600401612760565b916101643586811161020057611a4f903690600401612760565b956101843590811161020057611a69903690600401612760565b9660018060a01b036001541660405163fe575a8760e01b8152336004820152602081602481855afa8015610570575f90611c67575b611aa99150156129d2565b604051638cbdcead60e01b81523360048201526101c36024820152602081604481855afa908115610570575f91611c23575b50602491611ae95f92612a13565b6040516349d0104160e11b815233600482015292839182905afa908115610570575f91611c09575b50611b1b33613377565b908115611bdd575b5015611ba8578051611b6c57610c2c99610c1899611b4389511515612b59565b611b4f8a511515612b9a565b611b598a8a613526565b61014435976101243597604435916136ce565b60405162461bcd60e51b81526020600482015260146024820152731d1bdad95b92591cc81b9bdd08185b1b1bddd95960621b6044820152606490fd5b60405162461bcd60e51b815260206004820152600d60248201526c2737ba1034b734ba34b0ba37b960991b6044820152606490fd5b809150518015159182611bf3575b50508b611b23565b60209192500120895160208b0120148b80611beb565b611c1d91503d805f833e6117b28183612724565b8b611b11565b90506020813d602011611c5f575b81611c3e60209383612724565b8101031261020057602491611ae9611c565f936129c5565b92505091611adb565b3d9150611c31565b506020813d602011611c9a575b81611c8160209383612724565b8101031261020057611c95611aa9916129c5565b611a9e565b3d9150611c74565b34610200576060366003190112610200576001600160401b0360043581811161020057611cd3903690600401612760565b60243560068110156102005760443592831161020057611cf96024933690600401612760565b60015460405163fe575a8760e01b81523360048201529491939160209186919082906001600160a01b03165afa938415610570575f94611d49575b50611d42611d4794156129d2565b6131a9565b005b93506020843d602011611d82575b81611d6460209383612724565b8101031261020057611d42611d7b611d47956129c5565b9450611d34565b3d9150611d57565b34610200575f366003190112610200576020600454604051908152f35b34610200576101c0366003190112610200576004356001600160401b03811161020057611dd8903690600401612760565b6024356001600160401b03811161020057611df7903690600401612760565b9060046044351015610200576064356001600160401b03811161020057611e22903690600401612760565b916084356001600160401b03811161020057611e42903690600401612760565b9160a4356001600160401b03811161020057611e62903690600401612760565b9060c4356001600160401b03811161020057611e82903690600401612760565b9260e4356001600160401b03811161020057611ea2903690600401612803565b610104356001600160401b03811161020057611ec2903690600401612863565b610124356001600160401b03811161020057611ee2903690600401612760565b90610144356001600160401b03811161020057611f03903690600401612760565b926101a4356001600160401b03811161020057611f24903690600401612760565b9860018060a01b036001541660405163fe575a8760e01b8152336004820152602081602481855afa8015610570575f9061254b575b611f649150156129d2565b604051638cbdcead60e01b81523360048201526101c36024820152602081604481855afa908115610570575f91612507575b50602491611fa45f92612a13565b611fb085511515612a73565b611fbc8d511515612ab2565b6040516349d0104160e11b815233600482015292839182905afa908115610570575f916124ed575b50805180151591826124d7575b505080156124c8575b156124705761200b88511515612b59565b61201789511515612b9a565b6120218989613526565b604051602081816120388b83815193849201612918565b810160068152030190209a600c8c0154155f146121d7576120689a9b5061018435976101643597604435916136ce565b604051602081835161207d8183858801612918565b81016006815203019020915b6120de60206040516120ad60ff6116278751938581818b01966115db81838a612918565b6120c2604051838188516115db818388612918565b600160ff19825416179055604051809381928751928391612918565b810160078152030190209260245f60018060a01b036001541660405192838092632d7feef360e21b82523360048301525afa801561057057610c2c9560079461215b935f936121bb575b50612131612978565b6040519361213e856126bf565b338552602085015260408401526060830152426080830152612cd3565b60028101805461ff00191661010017905501547ff606eb498f9a8bbf794e211a74a20fba192f8ad17ef6f358423d0f4a42bbaebf604061219a84612f99565b928151908152426020820152a2604051918291602083526020830190612939565b6121d09193503d805f833e6117b28183612724565b9188612128565b505095979694935050505060ff600287015460081c166006811015610b6b5761243a57938051906001600160401b038211612334576122268261221d60058a0154612c03565b60058a01612c51565b602090601f83116001146123cc5761225592915f91836123c1575b50508160011b915f199060031b1c19161790565b60058601555b8051906001600160401b038211612334576122868261227d6006890154612c03565b60068901612c51565b602090601f8311600114612353576122b492915f91836123485750508160011b915f199060031b1c19161790565b60068501555b600784018151916001600160401b03831161233457600160401b8311612334576020908254848455808510612319575b5001905f5260205f205f5b8381106123055750505050612089565b6001906020845194019381840155016122f5565b61232e90845f5285845f209182019101612c3b565b876122ea565b634e487b7160e01b5f52604160045260245ffd5b015190508780612241565b9190600687015f5260205f20905f935b601f19841685106123a6576001945083601f1981161061238e575b505050811b0160068501556122ba565b01515f1960f88460031b161c1916905586808061237e565b81810151835560209485019460019093019290910190612363565b015190508880612241565b9190600588015f5260205f20905f935b601f198416851061241f576001945083601f19811610612407575b505050811b01600586015561225b565b01515f1960f88460031b161c191690558780806123f7565b818101518355602094850194600190930192909101906123dc565b60405162461bcd60e51b815260206004820152600e60248201526d496e76616c69642073746174757360901b6044820152606490fd5b60405162461bcd60e51b815260206004820152602a60248201527f4f6e6c7920474d4f206f7220696e69746961746f722063616e20707265706172604482015269329030b71037b93232b960b11b6064820152608490fd5b506124d233613377565b611ffa565b602091925001208b5160208d0120148c80611ff1565b61250191503d805f833e6117b28183612724565b8c611fe4565b90506020813d602011612543575b8161252260209383612724565b8101031261020057602491611fa461253a5f936129c5565b92505091611f96565b3d9150612515565b506020813d60201161257e575b8161256560209383612724565b8101031261020057612579611f64916129c5565b611f59565b3d9150612558565b3461020057612594366127a6565b60015460405163fe575a8760e01b8152336004820152602093918490829060249082906001600160a01b03165afa8015610570575f90612689575b6125da9150156129d2565b6002604051848184516125f08183858901612918565b81016006815203019020612609600c8201541515612fb9565b61261281614678565b8015612675575b612622906130a3565b01805461263460ff8260081c166149bc565b8351156104ef5761ff0019166104001790557f97a94f0cddc66a7e07e262bdc7528eb7b2b3428993c96bf38277a092b0d2ff59916104e4916104cf90612f99565b5061262261268233613377565b9050612619565b508381813d83116126b8575b61269f8183612724565b81010312610200576126b36125da916129c5565b6125cf565b503d612695565b60a081019081106001600160401b0382111761233457604052565b61022081019081106001600160401b0382111761233457604052565b604081019081106001600160401b0382111761233457604052565b6001600160401b03811161233457604052565b90601f801991011681019081106001600160401b0382111761233457604052565b6001600160401b03811161233457601f01601f191660200190565b81601f820112156102005780359061277782612745565b926127856040519485612724565b8284526020838301011161020057815f926020809301838601378301015290565b906040600319830112610200576001600160401b0360043581811161020057836127d291600401612760565b92602435918211610200576127e991600401612760565b90565b6001600160401b0381116123345760051b60200190565b9080601f8301121561020057602090823561281d816127ec565b9361282b6040519586612724565b81855260208086019260051b82010192831161020057602001905b828210612854575050505090565b81358152908301908301612846565b9080601f830112156102005781359160209161287e846127ec565b9360409261288f6040519687612724565b818652848087019260051b8201019383851161020057858201925b8584106128bb575050505050505090565b6001600160401b039084358281116102005784019083601f1983890301126102005783516128e8816126f6565b898301359384116102005784836129058a8d809881980101612760565b83520135838201528152019301926128aa565b5f5b8381106129295750505f910152565b818101518382015260200161291a565b9060209161295281518092818552858086019101612918565b601f01601f1916010190565b906004821015610b6b5752565b906006821015610b6b5752565b60405190612985826126f6565b600982526834b734ba34b0ba37b960b91b6020830152565b604051906129aa826126f6565b600c82526b636f756e746572706172747960a01b6020830152565b5190811515820361020057565b156129d957565b60405162461bcd60e51b815260206004820152601260248201527110d85b1b195c88189b1858dadb1a5cdd195960721b6044820152606490fd5b15612a1a57565b60405162461bcd60e51b815260206004820152602b60248201527f4e6f7420617574686f72697a65643a206f726465722063726561746f7220726f60448201526a1b19481c995c5d5a5c995960aa1b6064820152608490fd5b15612a7a57565b60405162461bcd60e51b815260206004820152601060248201526f4d697373696e6720746f6b656e49647360801b6044820152606490fd5b15612ab957565b60405162461bcd60e51b8152602060048201526011602482015270496e76616c6964207369676e617475726560781b6044820152606490fd5b81601f82011215610200578051612b0881612745565b92612b166040519485612724565b81845260208284010111610200576127e99160208085019101612918565b906020828203126102005781516001600160401b038111610200576127e99201612af2565b15612b6057565b60405162461bcd60e51b815260206004820152601260248201527124b73b30b634b21039b2b73232b924a3a0a760711b6044820152606490fd5b15612ba157565b60405162461bcd60e51b815260206004820152601460248201527324b73b30b634b2103932b1b2b4bb32b924a3a0a760611b6044820152606490fd5b602090612bf7928260405194838680955193849201612918565b82019081520301902090565b90600182811c92168015612c31575b6020831014612c1d57565b634e487b7160e01b5f52602260045260245ffd5b91607f1691612c12565b818110612c46575050565b5f8155600101612c3b565b9190601f8111612c6057505050565b612c8a925f5260205f20906020601f840160051c83019310612c8c575b601f0160051c0190612c3b565b565b9091508190612c7d565b15612c9d57565b60405162461bcd60e51b815260206004820152600e60248201526d105b1c9958591e481cda59db995960921b6044820152606490fd5b90815491600160401b83101561233457600190818401808255841015612f66575f526020926005845f209102019260018060a01b038351166001600160601b0360a01b85541617845581840190808401519182516001600160401b039384821161233457612d4b82612d458554612c03565b85612c51565b8390601f8311600114612f0857612d7892915f9183612e335750508160011b915f199060031b1c19161790565b90555b60028501604085015180519084821161233457612d9c82612d458554612c03565b8390601f8311600114612eaa57612dc992915f9183612e335750508160011b915f199060031b1c19161790565b90555b6003850192606085015190815193841161233457612df484612dee8754612c03565b87612c51565b82601f8511600114612e3e575050826004959360809593612e29935f92612e335750508160011b915f199060031b1c19161790565b90555b0151910155565b015190505f80612241565b91601f94939194198416865f52835f20935f905b828210612e935750509160049795939185608098969410612e7b575b505050811b019055612e2c565b01515f1960f88460031b161c191690555f8080612e6e565b808886978294978701518155019601940190612e52565b869291601f19831691855f52865f20925f5b88828210612ef25750508411612eda575b505050811b019055612dcc565b01515f1960f88460031b161c191690555f8080612ecd565b8385015186558b97909501949384019301612ebc565b869291601f19831691855f52865f20925f5b88828210612f505750508411612f38575b505050811b019055612d7b565b01515f1960f88460031b161c191690555f8080612f2b565b8385015186558b97909501949384019301612f1a565b634e487b7160e01b5f52603260045260245ffd5b906006811015610b6b5761ff0082549160081b169061ff001916179055565b612fb190602060405192828480945193849201612918565b810103902090565b15612fc057565b60405162461bcd60e51b815260206004820152600f60248201526e13dc99195c881b9bdd08199bdd5b99608a1b6044820152606490fd5b9060405191825f825461300981612c03565b908184526020946001916001811690815f146130755750600114613037575b505050612c8a92500383612724565b5f90815285812095935091905b81831061305d575050612c8a93508201015f8080613028565b85548884018501529485019487945091830191613044565b92505050612c8a94925060ff191682840152151560051b8201015f8080613028565b6004821015610b6b5752565b156130aa57565b60405162461bcd60e51b815260206004820152600e60248201526d139bdd08185d5d1a1bdc9a5e995960921b6044820152606490fd5b156130e757565b60405162461bcd60e51b81526020600482015260096024820152684e6f7420726561647960b81b6044820152606490fd5b80545f939261312682612c03565b918282526020936001916001811690815f1461318a575060011461314c575b5050505050565b90939495505f92919252835f2092845f945b83861061317657505050500101905f80808080613145565b80548587018301529401938590820161315e565b60ff19168685015250505090151560051b010191505f80808080613145565b90916040805193848451602096816131c5899383858b01612918565b810160068152030190206131de600c8201541515612fb9565b6131e781614678565b8015613363575b6131f7906130a3565b600281019061320d8360ff845460081c16614b04565b600683101580610b6b57600484149284848015613353575b61330f575b61323391612f7a565b610b6b57600383146132c5575061329a576005146132515750505050565b61327b7f02e9305cecf09be907ffd0503eb73fcbe81d21bca8403188cbcc53e4387d9dc993612f99565b9361328f8251938385948552840190612939565b9042908301520390a2565b5061327b7f97a94f0cddc66a7e07e262bdc7528eb7b2b3428993c96bf38277a092b0d2ff5993612f99565b7ff236a289260b80b8f670f639c87bc95b2efa9286807681fea2d11b9959b1f0df9593945061330192506007915042600e820155015491612f99565b9382519182524290820152a2565b5086511561331d578461322a565b855162461bcd60e51b8152600481018a9052600f60248201526e1499585cdbdb881c995c5d5a5c9959608a1b6044820152606490fd5b505090505f908460058114613225565b506131f761337033613377565b90506131ee565b600154604051638cbdcead60e01b81526001600160a01b03928316600482015260c060248201529160209183916044918391165afa908115610570575f916133bd575090565b90506020813d6020116133e9575b816133d860209383612724565b81010312610200576127e9906129c5565b3d91506133cb565b6020818303126102005780516001600160401b039182821161020057019061016092838382031261020057604051938401848110838211176123345760405282518281116102005781613445918501612af2565b84526020830151828111610200578161345f918501612af2565b602085015260408301516001600160a01b038116810361020057604085015260608301518281116102005781613496918501612af2565b6060850152608083015182811161020057816134b3918501612af2565b608085015260a083015182811161020057816134d0918501612af2565b60a085015260c083015160c085015260e0830151918211610200576134f6918301612af2565b60e08301526101008082015190830152610120808201519083015261351f6101408092016129c5565b9082015290565b6002546001600160a01b031691821561369c576040928351925f84806135626302f8780d60e31b94858352602060048401526024830190612939565b0381855afa938415613692575f9461366c575b50915f916135989386518095819482938352602060048401526024830190612939565b03915afa908115613662575f91613648575b506101408092015115613604570151156135c15750565b5162461bcd60e51b815260206004820152601960248201527f5265636569766572206163636f756e7420696e616374697665000000000000006044820152606490fd5b825162461bcd60e51b815260206004820152601760248201527f53656e646572206163636f756e7420696e6163746976650000000000000000006044820152606490fd5b61365c91503d805f833e610a8c8183612724565b5f6135aa565b83513d5f823e3d90fd5b61359893919450916136885f933d8086833e610a8c8183612724565b9491935091613575565b85513d5f823e3d90fd5b505050565b8051821015612f665760209160051b010190565b90816020910312610200575160ff811681036102005790565b99959c9a94989690979392988a511561460f57600c6136fc60208d8160405193828580945193849201612918565b8101600681520301902001546145db5789511561459f5783511561455a578d5115614515578151156144d8578451156144a0575f9c8d8f5b5111156137e3576137468f8f906136a1565b515151156137a75760208f8f61375b916136a1565b5101511561376f5760018f9e01809e613734565b60405162461bcd60e51b815260206004820152601060248201526f496e76616c6964207175616e7469747960801b6044820152606490fd5b60405162461bcd60e51b8152602060048201526014602482015273496e76616c69642070726f64756374207479706560601b6044820152606490fd5b9091929496989a9c509c929496989a9c60018060a01b03600154168c60405160208180613825638e690fc560e01b958683528460048401526024830190612939565b0381865afa9081156105705760019160ff915f91614481575b5016036144455760209060405192839182528260048301528180613865602482018d612939565b03915afa9081156105705760019160ff915f91614426575b5016036143e157886143a1575b8a5115614399575b6040519761389f896126da565b8d89528b60208a01526138b58660408b01613097565b5f60608a01528c60808a01528660a08a015260c089015260e0880152610100870152816101208701526101408601528361016086015286610180860152426101a0860152856101c08601525f6101e08601523361020086015261392760208b8160405193828580945193849201612918565b810160068152030190209480518051906001600160401b03821161233457613959826139538a54612c03565b8a612c51565b602090601f83116001146143315761398792915f9183612e335750508160011b915f199060031b1c19161790565b86555b60208101518051906001600160401b038211612334576139ba826139b160018b0154612c03565b60018b01612c51565b602090601f83116001146142c3576139e892915f9183612e335750508160011b915f199060031b1c19161790565b60018701555b60408101516004811015610b6b5760ff8019600289015416911617600287015560608101516006811015610b6b57613a299060028801612f7a565b60808101518051906001600160401b03821161233457613a5982613a5060038b0154612c03565b60038b01612c51565b602090601f831160011461425557613a8792915f9183612e335750508160011b915f199060031b1c19161790565b60038701555b60a08101518051906001600160401b03821161233457613abd82613ab460048b0154612c03565b60048b01612c51565b602090601f83116001146141e757613aeb92915f9183612e335750508160011b915f199060031b1c19161790565b60048701555b60c08101518051906001600160401b03821161233457613b2182613b1860058b0154612c03565b60058b01612c51565b602090601f831160011461417957613b4f92915f9183612e335750508160011b915f199060031b1c19161790565b60058701555b60e08101518051906001600160401b03821161233457613b8582613b7c60068b0154612c03565b60068b01612c51565b602090601f831160011461410b57613bb392915f9183612e335750508160011b915f199060031b1c19161790565b60068701555b6101008101518051906001600160401b03821161233457600160401b82116123345760209060078901548360078b01558084106140ed575b5001600788015f5260205f205f5b8381106140d95750505050610120810151805190600160401b82116123345760088801548260088a015580831061402b575b5060200190600888015f5260205f205f925b828410613f4c57505050506101408101518051906001600160401b03821161233457613c7f82613c7660098b0154612c03565b60098b01612c51565b602090601f8311600114613ede57613cad92915f9183612e335750508160011b915f199060031b1c19161790565b60098701555b6101608101519586516001600160401b038111612334578c97613ce682613cdd600a860154612c03565b600a8601612c51565b602090601f8311600114613e1d576101409a9895613deb95600f7f5dc77ee73a49d59f8fc5273aea5b470ff7bd538af410d595b968cfe3d0df4d009f9e9c999496613d5287613ddd98613dfe9e9a613dac985f92612e335750508160011b915f199060031b1c19161790565b600a8201555b610180830151600b8201556101a0830151600c8201556101c0830151600d8201556101e0830151600e820155019061020060018060a01b03910151166001600160601b0360a01b8254161790555196612f99565b9c613dd0613dc56040519d8d8f9e8f9081520190612939565b9260208d019061295e565b8a820360408c0152612939565b9088820360608a0152612939565b91608087015285820360a0870152612939565b9160c08401525f60e0840152426101008401526101208301520390a290565b90600a84015f5260205f20915f5b601f1985168110613eaf575095613deb95600f7f5dc77ee73a49d59f8fc5273aea5b470ff7bd538af410d595b968cfe3d0df4d009f9e9c99949660016101409f9d9a97613dfe9d99613dac97613ddd9a83601f19811610613e97575b505050811b01600a820155613d58565b01515f1960f88460031b161c191690555f8080613e87565b92829495969798999a9b5060016020929391839285015181550194019201908f9a999897969594939291613e2b565b9190600989015f5260205f20905f935b601f1984168510613f31576001945083601f19811610613f19575b505050811b016009870155613cb3565b01515f1960f88460031b161c191690555f8080613f09565b81810151835560209485019460019093019290910190613eee565b805180518051906001600160401b03821161233457613f6f82612dee8754612c03565b602090601f8311600114613fbc57600293613fa7846020956001989587955f92612e335750508160011b915f199060031b1c19161790565b87555b01518486015501920193019290613c43565b90855f5260205f20915f5b601f1985168110614013575093600184819794602096946002988896601f19811610613ffb575b505050811b018755613faa565b01515f1960f88460031b161c191690555f8080613fee565b91926020600181928685015181550194019201613fc7565b6001600160ff1b0381811682036140c557831683036140c557600889015f5260205f208360011b81015b8260011b82018110614068575050613c31565b8061407560029254612c03565b80614088575b505f600182015501614055565b601f811160011461409e57505f81555b5f61407b565b5f908282526140bc601f60208420920160051c820160018301612c3b565b81835555614098565b634e487b7160e01b5f52601160045260245ffd5b600190602084519401938184015501613bff565b6141059060078b015f5284845f209182019101612c3b565b5f613bf1565b9190600689015f5260205f20905f935b601f198416851061415e576001945083601f19811610614146575b505050811b016006870155613bb9565b01515f1960f88460031b161c191690555f8080614136565b8181015183556020948501946001909301929091019061411b565b9190600589015f5260205f20905f935b601f19841685106141cc576001945083601f198116106141b4575b505050811b016005870155613b55565b01515f1960f88460031b161c191690555f80806141a4565b81810151835560209485019460019093019290910190614189565b9190600489015f5260205f20905f935b601f198416851061423a576001945083601f19811610614222575b505050811b016004870155613af1565b01515f1960f88460031b161c191690555f8080614212565b818101518355602094850194600190930192909101906141f7565b9190600389015f5260205f20905f935b601f19841685106142a8576001945083601f19811610614290575b505050811b016003870155613a8d565b01515f1960f88460031b161c191690555f8080614280565b81810151835560209485019460019093019290910190614265565b9190600189015f5260205f20905f935b601f1984168510614316576001945083601f198116106142fe575b505050811b0160018701556139ee565b01515f1960f88460031b161c191690555f80806142ee565b818101518355602094850194600190930192909101906142d3565b9190885f5260205f20905f935b601f198416851061437e576001945083601f19811610614366575b505050811b01865561398a565b01515f1960f88460031b161c191690555f8080614359565b8181015183556020948501946001909301929091019061433e565b8c9a50613892565b42891161388a5760405162461bcd60e51b8152602060048201526011602482015270125b9d985b1a5908195e1c1a5c995cd05d607a1b6044820152606490fd5b60405162461bcd60e51b815260206004820152601760248201527f436f756e7465727061727479206e6f74206163746976650000000000000000006044820152606490fd5b61443f915060203d6020116109e1576109d28183612724565b5f61387d565b60405162461bcd60e51b8152602060048201526014602482015273496e69746961746f72206e6f742061637469766560601b6044820152606490fd5b61449a915060203d6020116109e1576109d28183612724565b5f61383e565b60405162461bcd60e51b815260206004820152601060248201526f496e76616c69642063757272656e637960801b6044820152606490fd5b60405162461bcd60e51b8152602060048201526015602482015274496e76616c69642076616c756174696f6e4461746560581b6044820152606490fd5b60405162461bcd60e51b815260206004820152601860248201527f4d697373696e67207265717565737465642061737365747300000000000000006044820152606490fd5b60405162461bcd60e51b815260206004820152601760248201527f496e76616c696420636f756e74657270617274794749430000000000000000006044820152606490fd5b60405162461bcd60e51b8152602060048201526014602482015273496e76616c696420696e69746961746f7247494360601b6044820152606490fd5b60405162461bcd60e51b815260206004820152600c60248201526b4f726465722065786973747360a01b6044820152606490fd5b60405162461bcd60e51b815260206004820152601660248201527524b73b30b634b2103a3930b739b0b1ba34b7b72932b360511b6044820152606490fd5b5f546001600160a01b0316330361466057565b60405163118cdaa760e01b8152336004820152602490fd5b61468133613377565b61474a576001546040516349d0104160e11b815233600482015291905f90839060249082906001600160a01b03165afa918215610570575f9261472e575b508151801561472757602083019081206040516146e3816103b98160038801613118565b60208151910120149283156146f9575b50505090565b60049293509061471791519020926103b96040518094819301613118565b60208151910120145f80806146f3565b5050505f90565b6147439192503d805f833e6117b28183612724565b905f6146bf565b50600190565b1561475757565b60405162461bcd60e51b815260206004820152601960248201527f476f6c644163636f756e744c6564676572206e6f7420736574000000000000006044820152606490fd5b8054821015612f66575f5260205f2001905f90565b6002546147c8906001600160a01b03161515614750565b60058101916040516147de816103b98187613118565b602081519101209060068301916040516147fc816103b98187613118565b6020815191012014614962575f5b60078401805482101561495a57816148219161479c565b905460025460039290921b1c91906001600160a01b0316803b15610200575f604051809263303a694160e11b825260806004830152818360406148688d6084850190613118565b821960248501526b1514905394d1915497d3d55560a21b60208583039260031984016044880152600c8152015289606485015201925af180156105705761494b575b506002546001600160a01b0316803b15610200576040805163303a694160e11b815260806004820152935f9285929091839185916148eb608485018c613118565b90600160248601526a2a2920a729a322a92fa4a760a91b60208684039360031985016044890152600b81520152606485015201925af19081156105705760079260019261493c575b5001905061480a565b61494590612711565b5f614933565b61495490612711565b5f6148aa565b505092505050565b92505050565b606090602081526015602082015274496e76616c696420737461747573206368616e676560581b60408201520190565b1561499f57565b60405162461bcd60e51b8152806149b860048201614968565b0390fd5b6006811015610b6b5760048114614a0b5760038114614a445760058114614a0e578015614a0b5760018114614a0b57600214612c8a5760405162461bcd60e51b8152806149b860048201614968565b50565b60405162461bcd60e51b815260206004820152600e60248201526d105b1c9958591e4819985a5b195960921b6044820152606490fd5b60405162461bcd60e51b815260206004820152601060248201526f105b1c9958591e48195e1958dd5d195960821b6044820152606490fd5b6006811015610b6b5760058114614a0b5760038114614a445760048114614acb578015614a0b5760018114614a0b57600214612c8a5760405162461bcd60e51b8152806149b860048201614968565b60405162461bcd60e51b8152602060048201526011602482015270105b1c9958591e4818d85b98d95b1b1959607a1b6044820152606490fd5b90600681101580610b6b576006831015610b6b5781831461369c5760038314614a4457600492838114614c3d5760058114614c08578015614be65760018114614bc157600214614b665760405162461bcd60e51b8152806149b8818601614968565b909181614ba25760038314918215614bb5575b8215614b8c575b5050612c8a9150614998565b909150614ba257506005612c8a91145f80614b80565b602190634e487b7160e01b5f525260245ffd5b5082811491505f614b79565b50909181614ba25760028314918215614bb5578215614b8c575050612c8a9150614998565b5050905f9060018314918215614bb5578215614b8c575050612c8a9150614998565b60405162461bcd60e51b8152602081860152600e60248201526d105b1c9958591e4819985a5b195960921b6044820152606490fd5b60405162461bcd60e51b81526020818601526011602482015270105b1c9958591e4818d85b98d95b1b1959607a1b6044820152606490fdfea264697066735822122097f09b3991919e9aba99fef89d322d684831cfef8583bfbf3fa478e740121e7c64736f6c63430008180033","linkReferences":{}},"methodIdentifiers":{"MEMBER_ACTIVE()":"4a680b42","ROLE_GMO()":"7589b7de","ROLE_MINTER()":"92afc33a","ROLE_ORDER_CREATOR()":"6fe54792","ROLE_REFINER()":"d0473a65","ROLE_TRADER()":"45eed0db","accountLedger()":"5defa55e","cancelOrder(string,string)":"04b5bf4f","counterparty()":"c3df6546","createOrder(string,string,uint8,string,string,uint256[],(string,uint256)[],string,string,uint256,uint256,string,string)":"2fdee1f3","executeOrder(string)":"d8224ea8","failOrder(string,string)":"e9e32947","getOrderDetails(string)":"4fbb487c","getOrderSignatures(string)":"ea9dc25d","getOrderStatus(string)":"aedfb5d3","goldAssetToken()":"ca698bc8","initiator()":"5c39fcc1","memberRegistry()":"a74d4772","minSignatures()":"238acaa2","owner()":"8da5cb5b","prepareOrder(string,string,uint8,string,string,string,string,uint256[],(string,uint256)[],string,string,uint256,uint256,bytes)":"08c17f30","renounceOwnership()":"715018a6","setExecutionOptions(bool,bool)":"db413d9e","setGoldAccountLedger(address)":"94ae772f","setGoldAssetToken(address)":"4fe5043d","setMemberRegistry(address)":"6fd7c34c","setMinSignatures(uint256)":"5a546098","signOrder(string,bytes,string)":"4b4555b1","transferAssetsOnExecute()":"8486bdc4","transferOwnership(address)":"f2fde38b","updateLedgerOnExecute()":"51d80ef3","updateOrderStatus(string,uint8,string)":"2f7554ac"},"id":5}