{"abi":[{"type":"constructor","inputs":[{"name":"_memberRegistry","type":"address","internalType":"address"}],"stateMutability":"nonpayable"},{"type":"function","name":"MEMBER_ACTIVE","inputs":[],"outputs":[{"name":"","type":"uint8","internalType":"uint8"}],"stateMutability":"view"},{"type":"function","name":"ROLE_GMO","inputs":[],"outputs":[{"name":"","type":"uint256","internalType":"uint256"}],"stateMutability":"view"},{"type":"function","name":"ROLE_MINTER","inputs":[],"outputs":[{"name":"","type":"uint256","internalType":"uint256"}],"stateMutability":"view"},{"type":"function","name":"ROLE_ORDER_CREATOR","inputs":[],"outputs":[{"name":"","type":"uint256","internalType":"uint256"}],"stateMutability":"view"},{"type":"function","name":"ROLE_REFINER","inputs":[],"outputs":[{"name":"","type":"uint256","internalType":"uint256"}],"stateMutability":"view"},{"type":"function","name":"ROLE_TRADER","inputs":[],"outputs":[{"name":"","type":"uint256","internalType":"uint256"}],"stateMutability":"view"},{"type":"function","name":"ROLE_VAULT_OP","inputs":[],"outputs":[{"name":"","type":"uint256","internalType":"uint256"}],"stateMutability":"view"},{"type":"function","name":"accountLedger","inputs":[],"outputs":[{"name":"","type":"address","internalType":"contract IGoldAccountLedger"}],"stateMutability":"view"},{"type":"function","name":"cancelOrder","inputs":[{"name":"txRef","type":"string","internalType":"string"},{"name":"reason","type":"string","internalType":"string"}],"outputs":[],"stateMutability":"nonpayable"},{"type":"function","name":"counterparty","inputs":[],"outputs":[{"name":"","type":"string","internalType":"string"}],"stateMutability":"view"},{"type":"function","name":"createOrder","inputs":[{"name":"transactionRef","type":"string","internalType":"string"},{"name":"transactionId","type":"string","internalType":"string"},{"name":"txType","type":"uint8","internalType":"enum TransactionOrderBook.TransactionType"},{"name":"initiatorGIC","type":"string","internalType":"string"},{"name":"counterpartyGIC","type":"string","internalType":"string"},{"name":"tokenIds","type":"uint256[]","internalType":"uint256[]"},{"name":"requestedAssets","type":"tuple[]","internalType":"struct TransactionOrderBook.RequestedAsset[]","components":[{"name":"goldProductTypeId","type":"string","internalType":"string"},{"name":"quantityGrams","type":"uint256","internalType":"uint256"}]},{"name":"valuationDate","type":"string","internalType":"string"},{"name":"valuationCurrency","type":"string","internalType":"string"},{"name":"transactionValue","type":"uint256","internalType":"uint256"},{"name":"expiresAt","type":"uint256","internalType":"uint256"},{"name":"senderIGAN","type":"string","internalType":"string"},{"name":"receiverIGAN","type":"string","internalType":"string"}],"outputs":[{"name":"txRef","type":"string","internalType":"string"}],"stateMutability":"nonpayable"},{"type":"function","name":"executeOrder","inputs":[{"name":"txRef","type":"string","internalType":"string"}],"outputs":[],"stateMutability":"nonpayable"},{"type":"function","name":"failOrder","inputs":[{"name":"txRef","type":"string","internalType":"string"},{"name":"reason","type":"string","internalType":"string"}],"outputs":[],"stateMutability":"nonpayable"},{"type":"function","name":"getOrderDetails","inputs":[{"name":"txRef","type":"string","internalType":"string"}],"outputs":[{"name":"order","type":"tuple","internalType":"struct TransactionOrderBook.TransactionOrder","components":[{"name":"transactionRef","type":"string","internalType":"string"},{"name":"transactionId","type":"string","internalType":"string"},{"name":"txType","type":"uint8","internalType":"enum TransactionOrderBook.TransactionType"},{"name":"status","type":"uint8","internalType":"enum TransactionOrderBook.TransactionStatus"},{"name":"initiatorGIC","type":"string","internalType":"string"},{"name":"counterpartyGIC","type":"string","internalType":"string"},{"name":"senderIGAN","type":"string","internalType":"string"},{"name":"receiverIGAN","type":"string","internalType":"string"},{"name":"tokenIds","type":"uint256[]","internalType":"uint256[]"},{"name":"requestedAssets","type":"tuple[]","internalType":"struct TransactionOrderBook.RequestedAsset[]","components":[{"name":"goldProductTypeId","type":"string","internalType":"string"},{"name":"quantityGrams","type":"uint256","internalType":"uint256"}]},{"name":"valuationDate","type":"string","internalType":"string"},{"name":"valuationCurrency","type":"string","internalType":"string"},{"name":"transactionValue","type":"uint256","internalType":"uint256"},{"name":"createdAt","type":"uint256","internalType":"uint256"},{"name":"expiresAt","type":"uint256","internalType":"uint256"},{"name":"executedAt","type":"uint256","internalType":"uint256"},{"name":"createdBy","type":"address","internalType":"address"}]}],"stateMutability":"view"},{"type":"function","name":"getOrderSignatures","inputs":[{"name":"txRef","type":"string","internalType":"string"}],"outputs":[{"name":"","type":"tuple[]","internalType":"struct TransactionOrderBook.Signature[]","components":[{"name":"signer","type":"address","internalType":"address"},{"name":"signerUserId","type":"string","internalType":"string"},{"name":"signerRole","type":"string","internalType":"string"},{"name":"signature","type":"bytes","internalType":"bytes"},{"name":"signedAt","type":"uint256","internalType":"uint256"}]}],"stateMutability":"view"},{"type":"function","name":"getOrderStatus","inputs":[{"name":"txRef","type":"string","internalType":"string"}],"outputs":[{"name":"","type":"uint8","internalType":"enum TransactionOrderBook.TransactionStatus"}],"stateMutability":"view"},{"type":"function","name":"goldAssetToken","inputs":[],"outputs":[{"name":"","type":"address","internalType":"contract IGoldAssetToken"}],"stateMutability":"view"},{"type":"function","name":"initiator","inputs":[],"outputs":[{"name":"","type":"string","internalType":"string"}],"stateMutability":"view"},{"type":"function","name":"memberRegistry","inputs":[],"outputs":[{"name":"","type":"address","internalType":"contract IMemberRegistryExtended"}],"stateMutability":"view"},{"type":"function","name":"minSignatures","inputs":[],"outputs":[{"name":"","type":"uint256","internalType":"uint256"}],"stateMutability":"view"},{"type":"function","name":"owner","inputs":[],"outputs":[{"name":"","type":"address","internalType":"address"}],"stateMutability":"view"},{"type":"function","name":"prepareOrder","inputs":[{"name":"transactionRef","type":"string","internalType":"string"},{"name":"transactionId","type":"string","internalType":"string"},{"name":"txType","type":"uint8","internalType":"enum TransactionOrderBook.TransactionType"},{"name":"initiatorGIC","type":"string","internalType":"string"},{"name":"counterpartyGIC","type":"string","internalType":"string"},{"name":"senderIGAN","type":"string","internalType":"string"},{"name":"receiverIGAN","type":"string","internalType":"string"},{"name":"tokenIds","type":"uint256[]","internalType":"uint256[]"},{"name":"requestedAssets","type":"tuple[]","internalType":"struct TransactionOrderBook.RequestedAsset[]","components":[{"name":"goldProductTypeId","type":"string","internalType":"string"},{"name":"quantityGrams","type":"uint256","internalType":"uint256"}]},{"name":"valuationDate","type":"string","internalType":"string"},{"name":"valuationCurrency","type":"string","internalType":"string"},{"name":"transactionValue","type":"uint256","internalType":"uint256"},{"name":"expiresAt","type":"uint256","internalType":"uint256"},{"name":"signerUserId","type":"string","internalType":"string"},{"name":"signature","type":"bytes","internalType":"bytes"}],"outputs":[{"name":"txRef","type":"string","internalType":"string"}],"stateMutability":"nonpayable"},{"type":"function","name":"renounceOwnership","inputs":[],"outputs":[],"stateMutability":"nonpayable"},{"type":"function","name":"setExecutionOptions","inputs":[{"name":"_transferAssetsOnExecute","type":"bool","internalType":"bool"},{"name":"_updateLedgerOnExecute","type":"bool","internalType":"bool"}],"outputs":[],"stateMutability":"nonpayable"},{"type":"function","name":"setGoldAccountLedger","inputs":[{"name":"_accountLedger","type":"address","internalType":"address"}],"outputs":[],"stateMutability":"nonpayable"},{"type":"function","name":"setGoldAssetToken","inputs":[{"name":"_goldAssetToken","type":"address","internalType":"address"}],"outputs":[],"stateMutability":"nonpayable"},{"type":"function","name":"setMemberRegistry","inputs":[{"name":"_memberRegistry","type":"address","internalType":"address"}],"outputs":[],"stateMutability":"nonpayable"},{"type":"function","name":"setMinSignatures","inputs":[{"name":"_minSignatures","type":"uint256","internalType":"uint256"}],"outputs":[],"stateMutability":"nonpayable"},{"type":"function","name":"signOrder","inputs":[{"name":"txRef","type":"string","internalType":"string"},{"name":"signature","type":"bytes","internalType":"bytes"},{"name":"signerRole","type":"string","internalType":"string"}],"outputs":[],"stateMutability":"nonpayable"},{"type":"function","name":"transferAssetsOnExecute","inputs":[],"outputs":[{"name":"","type":"bool","internalType":"bool"}],"stateMutability":"view"},{"type":"function","name":"transferOwnership","inputs":[{"name":"newOwner","type":"address","internalType":"address"}],"outputs":[],"stateMutability":"nonpayable"},{"type":"function","name":"updateLedgerOnExecute","inputs":[],"outputs":[{"name":"","type":"bool","internalType":"bool"}],"stateMutability":"view"},{"type":"function","name":"updateOrderStatus","inputs":[{"name":"txRef","type":"string","internalType":"string"},{"name":"newStatus","type":"uint8","internalType":"enum TransactionOrderBook.TransactionStatus"},{"name":"reason","type":"string","internalType":"string"}],"outputs":[],"stateMutability":"nonpayable"},{"type":"event","name":"OrderCancelled","inputs":[{"name":"transactionRef","type":"string","indexed":true,"internalType":"string"},{"name":"reason","type":"string","indexed":false,"internalType":"string"},{"name":"timestamp","type":"uint256","indexed":false,"internalType":"uint256"}],"anonymous":false},{"type":"event","name":"OrderCreated","inputs":[{"name":"transactionRef","type":"string","indexed":true,"internalType":"string"},{"name":"transactionId","type":"string","indexed":false,"internalType":"string"},{"name":"txType","type":"uint8","indexed":false,"internalType":"enum TransactionOrderBook.TransactionType"},{"name":"initiatorGIC","type":"string","indexed":false,"internalType":"string"},{"name":"counterpartyGIC","type":"string","indexed":false,"internalType":"string"},{"name":"requestedAssetCount","type":"uint256","indexed":false,"internalType":"uint256"},{"name":"valuationCurrency","type":"string","indexed":false,"internalType":"string"},{"name":"transactionValue","type":"uint256","indexed":false,"internalType":"uint256"},{"name":"status","type":"uint8","indexed":false,"internalType":"enum TransactionOrderBook.TransactionStatus"},{"name":"timestamp","type":"uint256","indexed":false,"internalType":"uint256"},{"name":"expiresAt","type":"uint256","indexed":false,"internalType":"uint256"}],"anonymous":false},{"type":"event","name":"OrderExecuted","inputs":[{"name":"transactionRef","type":"string","indexed":true,"internalType":"string"},{"name":"tokenCount","type":"uint256","indexed":false,"internalType":"uint256"},{"name":"timestamp","type":"uint256","indexed":false,"internalType":"uint256"}],"anonymous":false},{"type":"event","name":"OrderFailed","inputs":[{"name":"transactionRef","type":"string","indexed":true,"internalType":"string"},{"name":"reason","type":"string","indexed":false,"internalType":"string"},{"name":"timestamp","type":"uint256","indexed":false,"internalType":"uint256"}],"anonymous":false},{"type":"event","name":"OrderPrepared","inputs":[{"name":"transactionRef","type":"string","indexed":true,"internalType":"string"},{"name":"tokenCount","type":"uint256","indexed":false,"internalType":"uint256"},{"name":"timestamp","type":"uint256","indexed":false,"internalType":"uint256"}],"anonymous":false},{"type":"event","name":"OrderSigned","inputs":[{"name":"transactionRef","type":"string","indexed":true,"internalType":"string"},{"name":"signer","type":"address","indexed":true,"internalType":"address"},{"name":"signerUserId","type":"string","indexed":false,"internalType":"string"},{"name":"signerRole","type":"string","indexed":false,"internalType":"string"},{"name":"signaturesCollected","type":"uint256","indexed":false,"internalType":"uint256"},{"name":"signaturesRequired","type":"uint256","indexed":false,"internalType":"uint256"},{"name":"timestamp","type":"uint256","indexed":false,"internalType":"uint256"}],"anonymous":false},{"type":"event","name":"OwnershipTransferred","inputs":[{"name":"previousOwner","type":"address","indexed":true,"internalType":"address"},{"name":"newOwner","type":"address","indexed":true,"internalType":"address"}],"anonymous":false},{"type":"error","name":"OwnableInvalidOwner","inputs":[{"name":"owner","type":"address","internalType":"address"}]},{"type":"error","name":"OwnableUnauthorizedAccount","inputs":[{"name":"account","type":"address","internalType":"address"}]}],"bytecode":{"object":"0x6080346200012657601f62004f6e38819003918201601f19168301916001600160401b038311848410176200012a578084926020946040528339810103126200012657516001600160a01b0380821691829003620001265733156200010e575f549060018060a01b03199133838216175f55604051913391167f8be0079c531659141344cd1fd0a4f28419497f9722a3daafe3b4186f6b6457e05f80a3600260045561ffff19600554166005558215620000cc57506001541617600155604051614e2f90816200013f8239f35b62461bcd60e51b815260206004820152601660248201527f496e76616c6964204d656d6265725265676973747279000000000000000000006044820152606490fd5b604051631e4fbdf760e01b81525f6004820152602490fd5b5f80fd5b634e487b7160e01b5f52604160045260245ffdfe60e06040526004361015610011575f80fd5b5f3560e01c806304b5bf4f14612691578063088aec0114611e41578063238acaa214611e245780632f7554ac14611d3e5780632fdee1f31461199357806345eed0db146119775780634a680b4214610baf5780634b4555b1146114475780634fbb487c14610f945780634fe5043d14610f4f57806351d80ef314610f2a5780635a54609814610ec45780635c39fcc114610ea95780635defa55e14610e815780636fd7c34c14610df85780636fe5479214610ddc578063715018a614610d855780637589b7de14610d6a5780638486bdc414610d485780638da5cb5b14610d2157806392afc33a14610d0657806394ae772f14610cc1578063a74d477214610c99578063aedfb5d314610c40578063bf75fda414610c25578063c3df654614610bf2578063ca698bc814610bca578063d0473a6514610baf578063d8224ea8146105d7578063db413d9e14610586578063e9e32947146103eb578063ea9dc25d1461020f5763f2fde38b14610184575f80fd5b3461020b57602036600319011261020b576004356001600160a01b038181169182900361020b576101b36147d1565b81156101f3575f54826001600160601b0360a01b8216175f55167f8be0079c531659141344cd1fd0a4f28419497f9722a3daafe3b4186f6b6457e05f80a3005b604051631e4fbdf760e01b81525f6004820152602490fd5b5f80fd5b3461020b5760208060031936011261020b576004356001600160401b03811161020b5781610244610285923690600401612887565b60405190610274600c82519385818186019661026181838a612a3f565b8101600681520301902001541515613112565b604051938492839251928391612a3f565b810160078152030190209081549161029c83612913565b926102aa604051948561284b565b80845282840180925f52835f205f915b8383106103705750505050604051918083019381845251809452604083019360408160051b85010192915f955b8287106102f45785850386f35b909192938280600192603f1989820301855287519061035661034361033160a0888060a01b03865116855286860151908088870152850190612a60565b60408501518482036040860152612a60565b6060808501519084830390850152612a60565b9160808091015191015296019201960195929190926102e7565b600586600192604099989951610385816127e6565b848060a01b03865416815261039b858701613150565b838201526103ab60028701613150565b60408201526040516103cb816103c48160038b01613265565b038261284b565b6060820152600486015460808201528152019201920191909594956102ba565b3461020b576103f9366128cd565b60015460405163fe575a8760e01b8152336004820152602093918490829060249082906001600160a01b03165afa801561057b575f90610545575b61043f915015612af9565b6002604051848184516104558183858901612a3f565b8101600681520301902061046e600c8201541515613112565b610477816147fc565b8015610531575b610487906131f0565b01805461049960ff8260081c16614c00565b8351156104fa5761ff0019166105001790557f02e9305cecf09be907ffd0503eb73fcbe81d21bca8403188cbcc53e4387d9dc9916104ef916104da906130f2565b93604051928392604084526040840190612a60565b9042908301520390a2005b60405162461bcd60e51b815260048101869052600f60248201526e1499585cdbdb881c995c5d5a5c9959608a1b6044820152606490fd5b5061048761053e336134c4565b905061047e565b508381813d8311610574575b61055b818361284b565b8101031261020b5761056f61043f91612aec565b610434565b503d610551565b6040513d5f823e3d90fd5b3461020b57604036600319011261020b5760043580151580910361020b5760243580151580910361020b576105b96147d1565b60ff61ff006005549260081b1692169061ffff191617176005555f80f35b3461020b5760208060031936011261020b576004356001600160401b03811161020b5761060982913690600401612887565b6001805460405163fe575a8760e01b815233600482015260249492936001600160a01b0393909282908790829087165afa801561057b575f90610b79575b610652915015612af9565b604051858183516106668183858801612a3f565b8101600681520301902093600c90610683600c8701541515613112565b61069461068f876147fc565b6131f0565b600291600287019788549160ff9460ff8460081c166006811015610b665760026106be911461322d565b60058a01936106cd8554612d50565b15610b2d5760068b01976106e18954612d50565b15610af25760078c019c8d54928315156106fa90612b9a565b61ff00191661030017905542600e8d0155610714906130f2565b90604051908152428582015260407ff236a289260b80b8f670f639c87bc95b2efa9286807681fea2d11b9959b1f0df91a260055460ff16610775575b505050505050505050905060ff60055460081c1661076a57005b61077390614935565b005b600393886003541615610ab55788600254166107928115156148d4565b604051985f8a806107b76302f8780d60e31b968783528a60048401528c830190613265565b0381855afa91821561057b576107ec9a5f93610a99575b505f9293604051809c8194829383528a60048401528c830190613265565b03915afa97881561057b575f98610a72575b50604001968888511615610a3557604001608052876080515116156109f15788999a5f995b610831575b508a9950610750565b80548a10156109ec576108448a82614920565b905490861b1c8986541660405163823a65f560e01b815282600482015286818a81855afa801561057b5788928b925f926109bd575b50868383161461094b575b50161461091a57898654168a8a5116918b608051511660c052813b1561020b575f9260405160a052637921219560e11b60a05152600460a051015260c0518960a0510152604460a05101528c606460a051015260a06084815101528160a460a051015260c460a051918360a051915af1801561057b578b9a8b9161090a575b0199610823565b61091560a051612838565b610903565b60648585896040519262461bcd60e51b845260048401528201526b105cdcd95d081b1bd8dad95960a21b6044820152fd5b92505050803b1561020b575f8d60a48a836040519586948593633c0f85b960e11b855289600486015284015260606044840152600960648401526811115312559154915160ba1b60848401525af1801561057b576109ae575b5085888d5f610884565b6109b790612838565b8d6109a4565b6109de919250893d8b116109e5575b6109d6818361284b565b810190613821565b905f610879565b503d6109cc565b610828565b60405162461bcd60e51b8152600481018490526018818701527f496e76616c6964207265636569766572206164647265737300000000000000006044820152606490fd5b60405162461bcd60e51b81526004810185905260168188015275496e76616c69642073656e646572206164647265737360501b6044820152606490fd5b6040919850610a92903d805f833e610a8a818361284b565b810190613552565b97906107fe565b5f9350610aaf903d8086833e610a8a818361284b565b926107ce565b60405162461bcd60e51b8152600481018590526016818801527511dbdb19105cdcd95d151bdad95b881b9bdd081cd95d60521b6044820152606490fd5b60405162461bcd60e51b8152600481018690526014818901527326b4b9b9b4b733903932b1b2b4bb32b924a3a0a760611b6044820152606490fd5b60405162461bcd60e51b8152600481018590526012818801527126b4b9b9b4b7339039b2b73232b924a3a0a760711b6044820152606490fd5b85634e487b7160e01b5f5260216004525ffd5b508581813d8311610ba8575b610b8f818361284b565b8101031261020b57610ba361065291612aec565b610647565b503d610b85565b3461020b575f36600319011261020b57602060405160018152f35b3461020b575f36600319011261020b576003546040516001600160a01b039091168152602090f35b3461020b575f36600319011261020b57610c21610c0d612ac4565b604051918291602083526020830190612a60565b0390f35b3461020b575f36600319011261020b57602060405160088152f35b3461020b57602036600319011261020b576004356001600160401b03811161020b5760ff6002610c7a602061024481953690600401612887565b81016006815203019020015460081c16610c976040518092612a92565bf35b3461020b575f36600319011261020b576001546040516001600160a01b039091168152602090f35b3461020b57602036600319011261020b576004356001600160a01b0381169081900361020b57610cef6147d1565b6001600160601b0360a01b60025416176002555f80f35b3461020b575f36600319011261020b57602060405160028152f35b3461020b575f36600319011261020b575f546040516001600160a01b039091168152602090f35b3461020b575f36600319011261020b57602060ff600554166040519015158152f35b3461020b575f36600319011261020b57602060405160c08152f35b3461020b575f36600319011261020b57610d9d6147d1565b5f80546001600160a01b0319811682556001600160a01b03167f8be0079c531659141344cd1fd0a4f28419497f9722a3daafe3b4186f6b6457e08280a3005b3461020b575f36600319011261020b5760206040516101cb8152f35b3461020b57602036600319011261020b576004356001600160a01b0381169081900361020b57610e266147d1565b8015610e43576001600160601b0360a01b60015416176001555f80f35b60405162461bcd60e51b8152602060048201526016602482015275496e76616c6964204d656d626572526567697374727960501b6044820152606490fd5b3461020b575f36600319011261020b576002546040516001600160a01b039091168152602090f35b3461020b575f36600319011261020b57610c21610c0d612a9f565b3461020b57602036600319011261020b57600435610ee06147d1565b60028103610eed57600455005b60405162461bcd60e51b8152602060048201526015602482015274496e76616c6964206d696e5369676e61747572657360581b6044820152606490fd5b3461020b575f36600319011261020b57602060ff60055460081c166040519015158152f35b3461020b57602036600319011261020b576004356001600160a01b0381169081900361020b57610f7d6147d1565b6001600160601b0360a01b60035416176003555f80f35b3461020b57602036600319011261020b576004356001600160401b03811161020b576020610fc9611066923690600401612887565b5f610200604051610fd981612801565b6060815260608582015282604082015282606082015260606080820152606060a0820152606060c0820152606060e0820152606061010082015260606101208201526060610140820152606061016082015282610180820152826101a0820152826101c0820152826101e0820152015260405190610274600c82519385818186019661026181838a612a3f565b810160068152030190206040519061107d82612801565b61108681613150565b825261109460018201613150565b602083015260028101546110ae60ff821660408501612de3565b600660ff8260081c1610156114335760081c60ff1660608301526110d460038201613150565b60808301526110e560048201613150565b60a08301526110f660058201613150565b60c083015261110760068201613150565b60e083015260078101604051808260208294549384815201905f5260205f20925f5b81811061141a57505061113e9250038261284b565b610100830152600881015461115281612913565b90611160604051928361284b565b80825260208201600884015f5260205f205f915b8383106113e6575050505061012083015261119160098201613150565b6101408301526111a3600a8201613150565b610160830152600b810154610180830152600c8101546101a0830152600d8101546101c0830152600e8101546101e0830152600f60018060a01b0391015416610200820152604051602081526112a961129261127c61126661122c61121687516102206020890152610240880190612a60565b6020880151878203601f19016040890152612a60565b61123e60408801516060880190612a85565b61125060608801516080880190612a92565b6080870151868203601f190160a0880152612a60565b60a0860151858203601f190160c0870152612a60565b60c0850151848203601f190160e0860152612a60565b60e0840151838203601f1901610100850152612a60565b9161010081015192601f1983820301610120840152602080855192838152019401905f5b8181106113d05750505061012081015192601f1983820301610140840152835180825260208201916020808360051b8301019601925f915b83831061138f5786808761134661132e8c610140840151601f1986830301610160870152612a60565b610160830151848203601f1901610180860152612a60565b906101808101516101a08401526101a08101516101c08401526101c08101516101e08401526101e081015161020084015261020060018060a01b03910151166102208301520390f35b9091929396602080600192601f198582030186528a519082806113bb8451604085526040850190612a60565b93015191015299019301930191939290611305565b82518652602095860195909201916001016112cd565b600260206001926040516113f98161281d565b61140286613150565b81528486015483820152815201920192019190611174565b8454835260019485019486945060209093019201611129565b634e487b7160e01b5f52602160045260245ffd5b3461020b57606036600319011261020b576001600160401b0360043581811161020b57611478903690600401612887565b6024803583811161020b57611491903690600401612887565b9260443590811161020b576114aa903690600401612887565b60015460405163fe575a8760e01b8152336004820152602095929492916001600160a01b039081169187818781865afa801561057b575f90611941575b6114f2915015612af9565b6040519584519688818188019961150a81838d612a3f565b8101600681520301902090611524600c8301541515613112565b61153061068f836147fc565b611539336134c4565b156118fd5761154a85511515612bd9565b888151910120611558612ac4565b898151910120036118c457600281019260ff845460081c1660068110156118b157879161158860015f931461322d565b6040516349d0104160e11b815233600482015292839182905afa90811561057b576004916115db915f91611897575b506115c4815115156131f0565b8a8151910120926103c46040518094819301613265565b888151910120148015611888575b156118445760ff61161e6040518981806116078c8b51928391612a3f565b81016008815203019020611619612a9f565b612d2a565b5416156118095761165b60ff6116536040518a81806116418d8c51928391612a3f565b81016008815203019020611619612ac4565b541615612def565b6116706040518881875161164181838d612a3f565b600160ff198254161790556040518781865161168d81838c612a3f565b8101600781520301902091816001541692604051905f828981632d7feef360e21b988982523360048301525afa90811561057b575f966117009388936117ed575b506116d7612ac4565b604051936116e4856127e6565b3385528d85015260408401526060830152426080830152612e2c565b61020061ff001982541617905560015416936040518095819382523360048301525afa90811561057b577febb434060d28d0e0f2447a93bd6a9c5fef02b4595969aefc0f03687a12bb084a925f926117c9575b506117b061177586611763612ac4565b96604051809381928751928391612a3f565b81016007815203019020549561178d600454936130f2565b956117a36040519560a0875260a0870190612a60565b9185830390860152612a60565b94604083015260608201524260808201528033940390a3005b6117e69192503d805f833e6117de818361284b565b810190612c5b565b9085611753565b6118029193503d808a833e6117de818361284b565b918c6116ce565b60405162461bcd60e51b81526004810188905260148187015273125b9a5d1a585d1bdc881b9bdd081cda59db995960621b6044820152606490fd5b60405162461bcd60e51b815260048101889052601b818701527f4e6f7420636f756e7465727061727479206f72206e6f7420474d4f00000000006044820152606490fd5b50611892336134c4565b6115e9565b6118ab91503d805f833e6117de818361284b565b8b6115b7565b87634e487b7160e01b5f5260216004525ffd5b60405162461bcd60e51b81526004810189905260128188015271496e76616c6964207369676e6572526f6c6560701b6044820152606490fd5b60405162461bcd60e51b8152600481018a9052601c818901527f4e6f7420617574686f72697a65643a20474d4f207265717569726564000000006044820152606490fd5b508781813d8311611970575b611957818361284b565b8101031261020b5761196b6114f291612aec565b6114e7565b503d61194d565b3461020b575f36600319011261020b5760206040516101008152f35b3461020b576101a036600319011261020b576001600160401b0360043581811161020b576119c5903690600401612887565b60243582811161020b576119dd903690600401612887565b906004604435101561020b5760643583811161020b57611a01903690600401612887565b9260843581811161020b57611a1a903690600401612887565b9060a43581811161020b57611a3390369060040161292a565b60c43582811161020b57611a4b90369060040161298a565b60e43583811161020b57611a63903690600401612887565b906101043584811161020b57611a7d903690600401612887565b926101643585811161020b57611a97903690600401612887565b946101843590811161020b57611ab1903690600401612887565b9560018060a01b036001541660405163fe575a8760e01b8152336004820152602081602481855afa801561057b575f90611d03575b611af1915015612af9565b604051638cbdcead60e01b81523360048201526101cb6024820152602081604481855afa90811561057b575f91611cbf575b50602491611b315f92612b3a565b6040516349d0104160e11b815233600482015292839182905afa90811561057b575f91611ca5575b50611b63336134c4565b908115611c79575b5015611c44578151611c0857610c2199610c0d99611b8b88511515612c80565b611b9789511515612cc1565b611ba18989613692565b60405199611bae8b6127ca565b8a5260208a0152611bc460443560408b01612de3565b6060890152608088015260a087015260c086015260e0850152610100840152610124356101208401526101443561014084015261016083015261018082015261383a565b60405162461bcd60e51b81526020600482015260146024820152731d1bdad95b92591cc81b9bdd08185b1b1bddd95960621b6044820152606490fd5b60405162461bcd60e51b815260206004820152600d60248201526c2737ba1034b734ba34b0ba37b960991b6044820152606490fd5b809150518015159182611c8f575b50508b611b6b565b602091925001208a5160208c0120148b80611c87565b611cb991503d805f833e6117de818361284b565b8b611b59565b90506020813d602011611cfb575b81611cda6020938361284b565b8101031261020b57602491611b31611cf25f93612aec565b92505091611b23565b3d9150611ccd565b506020813d602011611d36575b81611d1d6020938361284b565b8101031261020b57611d31611af191612aec565b611ae6565b3d9150611d10565b3461020b57606036600319011261020b576001600160401b0360043581811161020b57611d6f903690600401612887565b602435600681101561020b5760443592831161020b57611d956024933690600401612887565b60015460405163fe575a8760e01b81523360048201529491939160209186919082906001600160a01b03165afa93841561057b575f94611de3575b50611dde6107739415612af9565b6132f6565b93506020843d602011611e1c575b81611dfe6020938361284b565b8101031261020b57611dde611e1561077395612aec565b9450611dd0565b3d9150611df1565b3461020b575f36600319011261020b576020600454604051908152f35b3461020b576101e036600319011261020b576004356001600160401b03811161020b57611e72903690600401612887565b6024356001600160401b03811161020b57611e91903690600401612887565b6004604435101561020b576064356001600160401b03811161020b57611ebb903690600401612887565b906084356001600160401b03811161020b57611edb903690600401612887565b9260a4356001600160401b03811161020b57611efb903690600401612887565b60c4356001600160401b03811161020b57611f1a903690600401612887565b9060e4356001600160401b03811161020b57611f3a90369060040161292a565b95610104356001600160401b03811161020b57611f5b90369060040161298a565b610124356001600160401b03811161020b57611f7b903690600401612887565b90610144356001600160401b03811161020b57611f9c903690600401612887565b926001600160401b036101a4351161020b57611fbe366101a435600401612887565b986001600160401b036101c4351161020b57611fe0366101c435600401612887565b9860018060a01b036001541660405163fe575a8760e01b8152336004820152602081602481855afa801561057b575f90612656575b612020915015612af9565b604051638cbdcead60e01b81523360048201526101cb6024820152602081604481855afa801561057b575f9061261b575b61205b9150612b3a565b6120678d511515612b9a565b8b51156125df575f60249161207e8d511515612bd9565b6040516349d0104160e11b815233600482015292839182905afa90811561057b575f916125c5575b50805180151591826125af575b505080156125a0575b15612548576120cd87511515612c80565b6120d988511515612cc1565b6120e38888613692565b604051602081816120fa8d83815193849201612a3f565b81016006815203019020600c810154155f146122a1575092610c219b60079a99969361224199969361218e9996604051996121348b6127ca565b8a5260208a015261214a60443560408b01612de3565b6060890152608088015260a087015260c086015260e0850152610100840152610164356101208401526101843561014084015261016083015261018082015261383a565b9360405160208187516121a48183858c01612a3f565b81016006815203019020925b6122056020876121d460ff611653604051858181875197019661160781838a612a3f565b6121e960405183818c51611607818388612a3f565b600160ff19825416179055604051809381928b51928391612a3f565b81018881520301902090612217612a9f565b60405193612224856127e6565b338552602085015260408401526060830152426080830152612e2c565b60028101805461ff00191661010017905501547ff606eb498f9a8bbf794e211a74a20fba192f8ad17ef6f358423d0f4a42bbaebf6040612280846130f2565b928151908152426020820152a2604051918291602083526020830190612a60565b9997969a989550505050505060ff600286015460081c1660068110156114335761251257948051906001600160401b03821161240c576122f1826122e86005890154612d50565b60058901612d9e565b602090601f83116001146124a45761232092915f9183612499575b50508160011b915f199060031b1c19161790565b60058501555b8051906001600160401b03821161240c57612351826123486006880154612d50565b60068801612d9e565b602090601f831160011461242b5761237f92915f91836124205750508160011b915f199060031b1c19161790565b60068401555b845160078401956001600160401b03821161240c57600160401b821161240c5760209087548389558084106123f1575b5001955f5260205f20955f5b8281106123dd57505050610c21945060079291612241916121b0565b60019060208351930192818a0155016123c1565b61240690895f5284845f209182019101612d88565b886123b5565b634e487b7160e01b5f52604160045260245ffd5b01519050888061230c565b9190600686015f5260205f20905f935b601f198416851061247e576001945083601f19811610612466575b505050811b016006840155612385565b01515f1960f88460031b161c19169055878080612456565b8181015183556020948501946001909301929091019061243b565b01519050898061230c565b9190600587015f5260205f20905f935b601f19841685106124f7576001945083601f198116106124df575b505050811b016005850155612326565b01515f1960f88460031b161c191690558880806124cf565b818101518355602094850194600190930192909101906124b4565b60405162461bcd60e51b815260206004820152600e60248201526d496e76616c69642073746174757360901b6044820152606490fd5b60405162461bcd60e51b815260206004820152602a60248201527f4f6e6c7920474d4f206f7220696e69746961746f722063616e20707265706172604482015269329030b71037b93232b960b11b6064820152608490fd5b506125aa336134c4565b6120bc565b6020919250012082516020840120148d806120b3565b6125d991503d805f833e6117de818361284b565b8d6120a6565b60405162461bcd60e51b8152602060048201526014602482015273125b9d985b1a59081cda59db995c955cd95c925960621b6044820152606490fd5b506020813d60201161264e575b816126356020938361284b565b8101031261020b5761264961205b91612aec565b612051565b3d9150612628565b506020813d602011612689575b816126706020938361284b565b8101031261020b5761268461202091612aec565b612015565b3d9150612663565b3461020b5761269f366128cd565b60015460405163fe575a8760e01b8152336004820152602093918490829060249082906001600160a01b03165afa801561057b575f90612794575b6126e5915015612af9565b6002604051848184516126fb8183858901612a3f565b81016006815203019020612714600c8201541515613112565b61271d816147fc565b8015612780575b61272d906131f0565b01805461273f60ff8260081c16614b40565b8351156104fa5761ff0019166104001790557f97a94f0cddc66a7e07e262bdc7528eb7b2b3428993c96bf38277a092b0d2ff59916104ef916104da906130f2565b5061272d61278d336134c4565b9050612724565b508381813d83116127c3575b6127aa818361284b565b8101031261020b576127be6126e591612aec565b6126da565b503d6127a0565b6101a081019081106001600160401b0382111761240c57604052565b60a081019081106001600160401b0382111761240c57604052565b61022081019081106001600160401b0382111761240c57604052565b604081019081106001600160401b0382111761240c57604052565b6001600160401b03811161240c57604052565b90601f801991011681019081106001600160401b0382111761240c57604052565b6001600160401b03811161240c57601f01601f191660200190565b81601f8201121561020b5780359061289e8261286c565b926128ac604051948561284b565b8284526020838301011161020b57815f926020809301838601378301015290565b90604060031983011261020b576001600160401b0360043581811161020b57836128f991600401612887565b9260243591821161020b5761291091600401612887565b90565b6001600160401b03811161240c5760051b60200190565b9080601f8301121561020b57602090823561294481612913565b93612952604051958661284b565b81855260208086019260051b82010192831161020b57602001905b82821061297b575050505090565b8135815290830190830161296d565b9080601f8301121561020b578135916020916129a584612913565b936040926129b6604051968761284b565b818652848087019260051b8201019383851161020b57858201925b8584106129e2575050505050505090565b6001600160401b0390843582811161020b5784019083601f19838903011261020b578351612a0f8161281d565b8983013593841161020b578483612a2c8a8d809881980101612887565b83520135838201528152019301926129d1565b5f5b838110612a505750505f910152565b8181015183820152602001612a41565b90602091612a7981518092818552858086019101612a3f565b601f01601f1916010190565b9060048210156114335752565b9060068210156114335752565b60405190612aac8261281d565b600982526834b734ba34b0ba37b960b91b6020830152565b60405190612ad18261281d565b600c82526b636f756e746572706172747960a01b6020830152565b5190811515820361020b57565b15612b0057565b60405162461bcd60e51b815260206004820152601260248201527110d85b1b195c88189b1858dadb1a5cdd195960721b6044820152606490fd5b15612b4157565b60405162461bcd60e51b815260206004820152602b60248201527f4e6f7420617574686f72697a65643a206f726465722063726561746f7220726f60448201526a1b19481c995c5d5a5c995960aa1b6064820152608490fd5b15612ba157565b60405162461bcd60e51b815260206004820152601060248201526f4d697373696e6720746f6b656e49647360801b6044820152606490fd5b15612be057565b60405162461bcd60e51b8152602060048201526011602482015270496e76616c6964207369676e617475726560781b6044820152606490fd5b81601f8201121561020b578051612c2f8161286c565b92612c3d604051948561284b565b8184526020828401011161020b576129109160208085019101612a3f565b9060208282031261020b5781516001600160401b03811161020b576129109201612c19565b15612c8757565b60405162461bcd60e51b815260206004820152601260248201527124b73b30b634b21039b2b73232b924a3a0a760711b6044820152606490fd5b15612cc857565b60405162461bcd60e51b815260206004820152601460248201527324b73b30b634b2103932b1b2b4bb32b924a3a0a760611b6044820152606490fd5b6020612d1d918160405193828580945193849201612a3f565b8101600681520301902090565b602090612d44928260405194838680955193849201612a3f565b82019081520301902090565b90600182811c92168015612d7e575b6020831014612d6a57565b634e487b7160e01b5f52602260045260245ffd5b91607f1691612d5f565b818110612d93575050565b5f8155600101612d88565b9190601f8111612dad57505050565b612dd7925f5260205f20906020601f840160051c83019310612dd9575b601f0160051c0190612d88565b565b9091508190612dca565b60048210156114335752565b15612df657565b60405162461bcd60e51b815260206004820152600e60248201526d105b1c9958591e481cda59db995960921b6044820152606490fd5b90815491600160401b83101561240c576001908184018082558410156130bf575f526020926005845f209102019260018060a01b038351166001600160601b0360a01b85541617845581840190808401519182516001600160401b039384821161240c57612ea482612e9e8554612d50565b85612d9e565b8390601f831160011461306157612ed192915f9183612f8c5750508160011b915f199060031b1c19161790565b90555b60028501604085015180519084821161240c57612ef582612e9e8554612d50565b8390601f831160011461300357612f2292915f9183612f8c5750508160011b915f199060031b1c19161790565b90555b6003850192606085015190815193841161240c57612f4d84612f478754612d50565b87612d9e565b82601f8511600114612f97575050826004959360809593612f82935f92612f8c5750508160011b915f199060031b1c19161790565b90555b0151910155565b015190505f8061230c565b91601f94939194198416865f52835f20935f905b828210612fec5750509160049795939185608098969410612fd4575b505050811b019055612f85565b01515f1960f88460031b161c191690555f8080612fc7565b808886978294978701518155019601940190612fab565b869291601f19831691855f52865f20925f5b8882821061304b5750508411613033575b505050811b019055612f25565b01515f1960f88460031b161c191690555f8080613026565b8385015186558b97909501949384019301613015565b869291601f19831691855f52865f20925f5b888282106130a95750508411613091575b505050811b019055612ed4565b01515f1960f88460031b161c191690555f8080613084565b8385015186558b97909501949384019301613073565b634e487b7160e01b5f52603260045260245ffd5b9060068110156114335761ff0082549160081b169061ff001916179055565b61310a90602060405192828480945193849201612a3f565b810103902090565b1561311957565b60405162461bcd60e51b815260206004820152600f60248201526e13dc99195c881b9bdd08199bdd5b99608a1b6044820152606490fd5b9060405191825f825461316281612d50565b908184526020946001916001811690815f146131ce5750600114613190575b505050612dd79250038361284b565b5f90815285812095935091905b8183106131b6575050612dd793508201015f8080613181565b8554888401850152948501948794509183019161319d565b92505050612dd794925060ff191682840152151560051b8201015f8080613181565b156131f757565b60405162461bcd60e51b815260206004820152600e60248201526d139bdd08185d5d1a1bdc9a5e995960921b6044820152606490fd5b1561323457565b60405162461bcd60e51b81526020600482015260096024820152684e6f7420726561647960b81b6044820152606490fd5b80545f939261327382612d50565b918282526020936001916001811690815f146132d75750600114613299575b5050505050565b90939495505f92919252835f2092845f945b8386106132c357505050500101905f80808080613292565b8054858701830152940193859082016132ab565b60ff19168685015250505090151560051b010191505f80808080613292565b9091604080519384845160209681613312899383858b01612a3f565b8101600681520301902061332b600c8201541515613112565b613334816147fc565b80156134b0575b613344906131f0565b600281019061335a8360ff845460081c16614c88565b600683101580611433576004841492848480156134a0575b61345c575b613380916130d3565b611433576003831461341257506133e75760051461339e5750505050565b6133c87f02e9305cecf09be907ffd0503eb73fcbe81d21bca8403188cbcc53e4387d9dc9936130f2565b936133dc8251938385948552840190612a60565b9042908301520390a2565b506133c87f97a94f0cddc66a7e07e262bdc7528eb7b2b3428993c96bf38277a092b0d2ff59936130f2565b7ff236a289260b80b8f670f639c87bc95b2efa9286807681fea2d11b9959b1f0df9593945061344e92506007915042600e8201550154916130f2565b9382519182524290820152a2565b5086511561346a5784613377565b855162461bcd60e51b8152600481018a9052600f60248201526e1499585cdbdb881c995c5d5a5c9959608a1b6044820152606490fd5b505090505f908460058114613372565b506133446134bd336134c4565b905061333b565b600154604051638cbdcead60e01b81526001600160a01b03928316600482015260c060248201529160209183916044918391165afa90811561057b575f9161350a575090565b90506020813d602011613536575b816135256020938361284b565b8101031261020b5761291090612aec565b3d9150613518565b51906001600160a01b038216820361020b57565b9060208282031261020b5781516001600160401b039283821161020b57019061018092838383031261020b576040519384018481108282111761240c57604052825181811161020b57826135a7918501612c19565b8452602083015181811161020b57826135c1918501612c19565b60208501526135d26040840161353e565b60408501526135e36060840161353e565b6060850152608083015181811161020b5782613600918501612c19565b608085015260a083015181811161020b578261361d918501612c19565b60a085015260c083015181811161020b578261363a918501612c19565b60c085015260e083015160e0850152610100918284015191821161020b57613663918401612c19565b908301526101208082015190830152610140808201519083015261368b610160809201612aec565b9082015290565b6002546001600160a01b0316918215613808576040928351925f84806136ce6302f8780d60e31b94858352602060048401526024830190612a60565b0381855afa9384156137fe575f946137d8575b50915f916137049386518095819482938352602060048401526024830190612a60565b03915afa9081156137ce575f916137b4575b5061016080920151156137705701511561372d5750565b5162461bcd60e51b815260206004820152601960248201527f5265636569766572206163636f756e7420696e616374697665000000000000006044820152606490fd5b825162461bcd60e51b815260206004820152601760248201527f53656e646572206163636f756e7420696e6163746976650000000000000000006044820152606490fd5b6137c891503d805f833e610a8a818361284b565b5f613716565b83513d5f823e3d90fd5b61370493919450916137f45f933d8086833e610a8a818361284b565b94919350916136e1565b85513d5f823e3d90fd5b505050565b80518210156130bf5760209160051b010190565b9081602091031261020b575160ff8116810361020b5790565b8051511561479357600c61384e8251612d04565b015461475f576060810151511561472357608081015151156146de5760c081015151156146995760e0810151511561465c576101008101515115614624575f5b60c0820151805182101561394357816138a69161380d565b51515115613907576020806138bf8360c086015161380d565b510151156138d0575060010161388e565b6064906040519062461bcd60e51b82526004820152601060248201526f496e76616c6964207175616e7469747960801b6044820152fd5b60405162461bcd60e51b8152602060048201526014602482015273496e76616c69642070726f64756374207479706560601b6044820152606490fd5b50506001546060820151604051638e690fc560e01b80825260206004830181905290936001600160a01b03169282908190613982906024830190612a60565b0381855afa90811561057b5760019160ff915f91614605575b5016036145c9576139ca9160209160808501519160405180958194829383528660048401526024830190612a60565b03915afa90811561057b5760019160ff915f916145aa575b501603614565576101408101518061451f575b5060208101515115614513575b80516020820151604083015160048110156114335783906060820151608083015161016084015161018085015160a08601519160c08701519360e088015195613a766101008a0151986101406101208c01519b01519b60206040519e8f90613a6982612801565b8152015260408d01612de3565b5f60608c015260808b015260a08a015260c089015260e0880152610100870152610120860152610140850152610160840152610180830152426101a08301526101c08201525f6101e082015233610200820152613ad38251612d04565b81518051906001600160401b03821161240c57613af482612e9e8554612d50565b602090601f83116001146144ab57613b2292915f9183612f8c5750508160011b915f199060031b1c19161790565b81555b60208201518051906001600160401b03821161240c57613b5582613b4c6001860154612d50565b60018601612d9e565b602090601f831160011461443d57613b8392915f9183612f8c5750508160011b915f199060031b1c19161790565b60018201555b604082015160048110156114335760ff801960028401541691161760028201556060820151600681101561143357613bc490600283016130d3565b60808201518051906001600160401b03821161240c57613bf482613beb6003860154612d50565b60038601612d9e565b602090601f83116001146143cf57613c2292915f9183612f8c5750508160011b915f199060031b1c19161790565b60038201555b60a08201518051906001600160401b03821161240c57613c5882613c4f6004860154612d50565b60048601612d9e565b602090601f831160011461436157613c8692915f9183612f8c5750508160011b915f199060031b1c19161790565b60048201555b60c08201518051906001600160401b03821161240c57613cbc82613cb36005860154612d50565b60058601612d9e565b602090601f83116001146142f357613cea92915f9183612f8c5750508160011b915f199060031b1c19161790565b60058201555b60e08201518051906001600160401b03821161240c57613d2082613d176006860154612d50565b60068601612d9e565b602090601f831160011461428557613d4e92915f9183612f8c5750508160011b915f199060031b1c19161790565b60068201555b6101008201518051906001600160401b03821161240c57600160401b821161240c576020906007840154836007860155808410614267575b5001600783015f5260205f205f5b8381106142535750505050610120820151805190600160401b821161240c5760088301548260088501558083106141a5575b5060200190600883015f5260205f205f925b8284106140c657505050506101408201518051906001600160401b03821161240c57613e1a82613e116009860154612d50565b60098601612d9e565b602090601f831160011461405857613e4892915f9183612f8c5750508160011b915f199060031b1c19161790565b60098201555b6101608201518051906001600160401b03821161240c57613e7f82613e76600a860154612d50565b600a8601612d9e565b602090601f8311600114613fe9579180613eb192600f95945f92612f8c5750508160011b915f199060031b1c19161790565b600a8201555b610180830151600b8201556101a0830151600c8201556101c0830151600d8201556101e0830151600e820155019061020060018060a01b03910151166001600160601b0360a01b8254161790558051602082015190604083015191600483101561143357610140847f5dc77ee73a49d59f8fc5273aea5b470ff7bd538af410d595b968cfe3d0df4d0093613fc9606083015196608084015190613fb660c08601515192613fa861010088015193613f778a6101208b01519a0151986130f2565b9c613f9b613f906040519d8d8f9e8f9081520190612a60565b9260208d0190612a85565b8a820360408c0152612a60565b9088820360608a0152612a60565b91608087015285820360a0870152612a60565b9160c08401525f60e0840152426101008401526101208301520390a25190565b90600a84015f5260205f20915f5b601f19851681106140405750918391600193600f9695601f19811610614028575b505050811b01600a820155613eb7565b01515f1960f88460031b161c191690555f8080614018565b91926020600181928685015181550194019201613ff7565b9190600984015f5260205f20905f935b601f19841685106140ab576001945083601f19811610614093575b505050811b016009820155613e4e565b01515f1960f88460031b161c191690555f8080614083565b81810151835560209485019460019093019290910190614068565b805180518051906001600160401b03821161240c576140e982612f478754612d50565b602090601f831160011461413657600293614121846020956001989587955f92612f8c5750508160011b915f199060031b1c19161790565b87555b01518486015501920193019290613dde565b90855f5260205f20915f5b601f198516811061418d575093600184819794602096946002988896601f19811610614175575b505050811b018755614124565b01515f1960f88460031b161c191690555f8080614168565b91926020600181928685015181550194019201614141565b6001600160ff1b03818116820361423f578316830361423f57600884015f5260205f208360011b81015b8260011b820181106141e2575050613dcc565b806141ef60029254612d50565b80614202575b505f6001820155016141cf565b601f811160011461421857505f81555b5f6141f5565b5f90828252614236601f60208420920160051c820160018301612d88565b81835555614212565b634e487b7160e01b5f52601160045260245ffd5b600190602084519401938184015501613d9a565b61427f90600786015f5284845f209182019101612d88565b5f613d8c565b9190600684015f5260205f20905f935b601f19841685106142d8576001945083601f198116106142c0575b505050811b016006820155613d54565b01515f1960f88460031b161c191690555f80806142b0565b81810151835560209485019460019093019290910190614295565b9190600584015f5260205f20905f935b601f1984168510614346576001945083601f1981161061432e575b505050811b016005820155613cf0565b01515f1960f88460031b161c191690555f808061431e565b81810151835560209485019460019093019290910190614303565b9190600484015f5260205f20905f935b601f19841685106143b4576001945083601f1981161061439c575b505050811b016004820155613c8c565b01515f1960f88460031b161c191690555f808061438c565b81810151835560209485019460019093019290910190614371565b9190600384015f5260205f20905f935b601f1984168510614422576001945083601f1981161061440a575b505050811b016003820155613c28565b01515f1960f88460031b161c191690555f80806143fa565b818101518355602094850194600190930192909101906143df565b9190600184015f5260205f20905f935b601f1984168510614490576001945083601f19811610614478575b505050811b016001820155613b89565b01515f1960f88460031b161c191690555f8080614468565b8181015183556020948501946001909301929091019061444d565b9190835f5260205f20905f935b601f19841685106144f8576001945083601f198116106144e0575b505050811b018155613b25565b01515f1960f88460031b161c191690555f80806144d3565b818101518355602094850194600190930192909101906144b8565b80516020820152613a02565b42101561452c575f6139f5565b60405162461bcd60e51b8152602060048201526011602482015270125b9d985b1a5908195e1c1a5c995cd05d607a1b6044820152606490fd5b60405162461bcd60e51b815260206004820152601760248201527f436f756e7465727061727479206e6f74206163746976650000000000000000006044820152606490fd5b6145c3915060203d6020116109e5576109d6818361284b565b5f6139e2565b60405162461bcd60e51b8152602060048201526014602482015273496e69746961746f72206e6f742061637469766560601b6044820152606490fd5b61461e915060203d6020116109e5576109d6818361284b565b5f61399b565b60405162461bcd60e51b815260206004820152601060248201526f496e76616c69642063757272656e637960801b6044820152606490fd5b60405162461bcd60e51b8152602060048201526015602482015274496e76616c69642076616c756174696f6e4461746560581b6044820152606490fd5b60405162461bcd60e51b815260206004820152601860248201527f4d697373696e67207265717565737465642061737365747300000000000000006044820152606490fd5b60405162461bcd60e51b815260206004820152601760248201527f496e76616c696420636f756e74657270617274794749430000000000000000006044820152606490fd5b60405162461bcd60e51b8152602060048201526014602482015273496e76616c696420696e69746961746f7247494360601b6044820152606490fd5b60405162461bcd60e51b815260206004820152600c60248201526b4f726465722065786973747360a01b6044820152606490fd5b60405162461bcd60e51b815260206004820152601660248201527524b73b30b634b2103a3930b739b0b1ba34b7b72932b360511b6044820152606490fd5b5f546001600160a01b031633036147e457565b60405163118cdaa760e01b8152336004820152602490fd5b614805336134c4565b6148ce576001546040516349d0104160e11b815233600482015291905f90839060249082906001600160a01b03165afa91821561057b575f926148b2575b50815180156148ab5760208301908120604051614867816103c48160038801613265565b602081519101201492831561487d575b50505090565b60049293509061489b91519020926103c46040518094819301613265565b60208151910120145f8080614877565b5050505f90565b6148c79192503d805f833e6117de818361284b565b905f614843565b50600190565b156148db57565b60405162461bcd60e51b815260206004820152601960248201527f476f6c644163636f756e744c6564676572206e6f7420736574000000000000006044820152606490fd5b80548210156130bf575f5260205f2001905f90565b60025461494c906001600160a01b031615156148d4565b6005810191604051614962816103c48187613265565b60208151910120906006830191604051614980816103c48187613265565b6020815191012014614ae6575f5b600784018054821015614ade57816149a591614920565b905460025460039290921b1c91906001600160a01b0316803b1561020b575f604051809263303a694160e11b825260806004830152818360406149ec8d6084850190613265565b821960248501526b1514905394d1915497d3d55560a21b60208583039260031984016044880152600c8152015289606485015201925af1801561057b57614acf575b506002546001600160a01b0316803b1561020b576040805163303a694160e11b815260806004820152935f928592909183918591614a6f608485018c613265565b90600160248601526a2a2920a729a322a92fa4a760a91b60208684039360031985016044890152600b81520152606485015201925af190811561057b57600792600192614ac0575b5001905061498e565b614ac990612838565b5f614ab7565b614ad890612838565b5f614a2e565b505092505050565b92505050565b606090602081526015602082015274496e76616c696420737461747573206368616e676560581b60408201520190565b15614b2357565b60405162461bcd60e51b815280614b3c60048201614aec565b0390fd5b60068110156114335760048114614b8f5760038114614bc85760058114614b92578015614b8f5760018114614b8f57600214612dd75760405162461bcd60e51b815280614b3c60048201614aec565b50565b60405162461bcd60e51b815260206004820152600e60248201526d105b1c9958591e4819985a5b195960921b6044820152606490fd5b60405162461bcd60e51b815260206004820152601060248201526f105b1c9958591e48195e1958dd5d195960821b6044820152606490fd5b60068110156114335760058114614b8f5760038114614bc85760048114614c4f578015614b8f5760018114614b8f57600214612dd75760405162461bcd60e51b815280614b3c60048201614aec565b60405162461bcd60e51b8152602060048201526011602482015270105b1c9958591e4818d85b98d95b1b1959607a1b6044820152606490fd5b90600681101580611433576006831015611433578183146138085760038314614bc857600492838114614dc15760058114614d8c578015614d6a5760018114614d4557600214614cea5760405162461bcd60e51b815280614b3c818601614aec565b909181614d265760038314918215614d39575b8215614d10575b5050612dd79150614b1c565b909150614d2657506005612dd791145f80614d04565b602190634e487b7160e01b5f525260245ffd5b5082811491505f614cfd565b50909181614d265760028314918215614d39578215614d10575050612dd79150614b1c565b5050905f9060018314918215614d39578215614d10575050612dd79150614b1c565b60405162461bcd60e51b8152602081860152600e60248201526d105b1c9958591e4819985a5b195960921b6044820152606490fd5b60405162461bcd60e51b81526020818601526011602482015270105b1c9958591e4818d85b98d95b1b1959607a1b6044820152606490fdfea264697066735822122015044f09e0fd22a23bd23dd254c57af02c1d4bc466f8b7a5c9487f55e3a0d45064736f6c63430008180033","linkReferences":{}},"methodIdentifiers":{"MEMBER_ACTIVE()":"4a680b42","ROLE_GMO()":"7589b7de","ROLE_MINTER()":"92afc33a","ROLE_ORDER_CREATOR()":"6fe54792","ROLE_REFINER()":"d0473a65","ROLE_TRADER()":"45eed0db","ROLE_VAULT_OP()":"bf75fda4","accountLedger()":"5defa55e","cancelOrder(string,string)":"04b5bf4f","counterparty()":"c3df6546","createOrder(string,string,uint8,string,string,uint256[],(string,uint256)[],string,string,uint256,uint256,string,string)":"2fdee1f3","executeOrder(string)":"d8224ea8","failOrder(string,string)":"e9e32947","getOrderDetails(string)":"4fbb487c","getOrderSignatures(string)":"ea9dc25d","getOrderStatus(string)":"aedfb5d3","goldAssetToken()":"ca698bc8","initiator()":"5c39fcc1","memberRegistry()":"a74d4772","minSignatures()":"238acaa2","owner()":"8da5cb5b","prepareOrder(string,string,uint8,string,string,string,string,uint256[],(string,uint256)[],string,string,uint256,uint256,string,bytes)":"088aec01","renounceOwnership()":"715018a6","setExecutionOptions(bool,bool)":"db413d9e","setGoldAccountLedger(address)":"94ae772f","setGoldAssetToken(address)":"4fe5043d","setMemberRegistry(address)":"6fd7c34c","setMinSignatures(uint256)":"5a546098","signOrder(string,bytes,string)":"4b4555b1","transferAssetsOnExecute()":"8486bdc4","transferOwnership(address)":"f2fde38b","updateLedgerOnExecute()":"51d80ef3","updateOrderStatus(string,uint8,string)":"2f7554ac"},"id":9}