{"abi":[{"type":"constructor","inputs":[{"name":"_memberRegistry","type":"address","internalType":"address"}],"stateMutability":"nonpayable"},{"type":"function","name":"MEMBER_ACTIVE","inputs":[],"outputs":[{"name":"","type":"uint8","internalType":"uint8"}],"stateMutability":"view"},{"type":"function","name":"ROLE_GMO","inputs":[],"outputs":[{"name":"","type":"uint256","internalType":"uint256"}],"stateMutability":"view"},{"type":"function","name":"ROLE_MINTER","inputs":[],"outputs":[{"name":"","type":"uint256","internalType":"uint256"}],"stateMutability":"view"},{"type":"function","name":"ROLE_ORDER_CREATOR","inputs":[],"outputs":[{"name":"","type":"uint256","internalType":"uint256"}],"stateMutability":"view"},{"type":"function","name":"ROLE_REFINER","inputs":[],"outputs":[{"name":"","type":"uint256","internalType":"uint256"}],"stateMutability":"view"},{"type":"function","name":"ROLE_TRADER","inputs":[],"outputs":[{"name":"","type":"uint256","internalType":"uint256"}],"stateMutability":"view"},{"type":"function","name":"accountLedger","inputs":[],"outputs":[{"name":"","type":"address","internalType":"contract IGoldAccountLedger"}],"stateMutability":"view"},{"type":"function","name":"cancelOrder","inputs":[{"name":"txRef","type":"string","internalType":"string"},{"name":"reason","type":"string","internalType":"string"}],"outputs":[],"stateMutability":"nonpayable"},{"type":"function","name":"counterparty","inputs":[],"outputs":[{"name":"","type":"string","internalType":"string"}],"stateMutability":"view"},{"type":"function","name":"createOrder","inputs":[{"name":"transactionRef","type":"string","internalType":"string"},{"name":"transactionId","type":"string","internalType":"string"},{"name":"txType","type":"uint8","internalType":"enum TransactionOrderBook.TransactionType"},{"name":"initiatorGIC","type":"string","internalType":"string"},{"name":"counterpartyGIC","type":"string","internalType":"string"},{"name":"tokenIds","type":"uint256[]","internalType":"uint256[]"},{"name":"requestedAssets","type":"tuple[]","internalType":"struct TransactionOrderBook.RequestedAsset[]","components":[{"name":"goldProductTypeId","type":"string","internalType":"string"},{"name":"quantityGrams","type":"uint256","internalType":"uint256"}]},{"name":"valuationDate","type":"string","internalType":"string"},{"name":"valuationCurrency","type":"string","internalType":"string"},{"name":"transactionValue","type":"uint256","internalType":"uint256"},{"name":"expiresAt","type":"uint256","internalType":"uint256"},{"name":"senderIGAN","type":"string","internalType":"string"},{"name":"receiverIGAN","type":"string","internalType":"string"}],"outputs":[{"name":"txRef","type":"string","internalType":"string"}],"stateMutability":"nonpayable"},{"type":"function","name":"executeOrder","inputs":[{"name":"txRef","type":"string","internalType":"string"}],"outputs":[],"stateMutability":"nonpayable"},{"type":"function","name":"failOrder","inputs":[{"name":"txRef","type":"string","internalType":"string"},{"name":"reason","type":"string","internalType":"string"}],"outputs":[],"stateMutability":"nonpayable"},{"type":"function","name":"getOrderDetails","inputs":[{"name":"txRef","type":"string","internalType":"string"}],"outputs":[{"name":"order","type":"tuple","internalType":"struct TransactionOrderBook.TransactionOrder","components":[{"name":"transactionRef","type":"string","internalType":"string"},{"name":"transactionId","type":"string","internalType":"string"},{"name":"txType","type":"uint8","internalType":"enum TransactionOrderBook.TransactionType"},{"name":"status","type":"uint8","internalType":"enum TransactionOrderBook.TransactionStatus"},{"name":"initiatorGIC","type":"string","internalType":"string"},{"name":"counterpartyGIC","type":"string","internalType":"string"},{"name":"senderIGAN","type":"string","internalType":"string"},{"name":"receiverIGAN","type":"string","internalType":"string"},{"name":"tokenIds","type":"uint256[]","internalType":"uint256[]"},{"name":"requestedAssets","type":"tuple[]","internalType":"struct TransactionOrderBook.RequestedAsset[]","components":[{"name":"goldProductTypeId","type":"string","internalType":"string"},{"name":"quantityGrams","type":"uint256","internalType":"uint256"}]},{"name":"valuationDate","type":"string","internalType":"string"},{"name":"valuationCurrency","type":"string","internalType":"string"},{"name":"transactionValue","type":"uint256","internalType":"uint256"},{"name":"createdAt","type":"uint256","internalType":"uint256"},{"name":"expiresAt","type":"uint256","internalType":"uint256"},{"name":"executedAt","type":"uint256","internalType":"uint256"},{"name":"createdBy","type":"address","internalType":"address"}]}],"stateMutability":"view"},{"type":"function","name":"getOrderSignatures","inputs":[{"name":"txRef","type":"string","internalType":"string"}],"outputs":[{"name":"","type":"tuple[]","internalType":"struct TransactionOrderBook.Signature[]","components":[{"name":"signer","type":"address","internalType":"address"},{"name":"signerUserId","type":"string","internalType":"string"},{"name":"signerRole","type":"string","internalType":"string"},{"name":"signature","type":"bytes","internalType":"bytes"},{"name":"signedAt","type":"uint256","internalType":"uint256"}]}],"stateMutability":"view"},{"type":"function","name":"getOrderStatus","inputs":[{"name":"txRef","type":"string","internalType":"string"}],"outputs":[{"name":"","type":"uint8","internalType":"enum TransactionOrderBook.TransactionStatus"}],"stateMutability":"view"},{"type":"function","name":"goldAssetToken","inputs":[],"outputs":[{"name":"","type":"address","internalType":"contract IGoldAssetToken"}],"stateMutability":"view"},{"type":"function","name":"initiator","inputs":[],"outputs":[{"name":"","type":"string","internalType":"string"}],"stateMutability":"view"},{"type":"function","name":"memberRegistry","inputs":[],"outputs":[{"name":"","type":"address","internalType":"contract IMemberRegistryExtended"}],"stateMutability":"view"},{"type":"function","name":"minSignatures","inputs":[],"outputs":[{"name":"","type":"uint256","internalType":"uint256"}],"stateMutability":"view"},{"type":"function","name":"owner","inputs":[],"outputs":[{"name":"","type":"address","internalType":"address"}],"stateMutability":"view"},{"type":"function","name":"prepareOrder","inputs":[{"name":"transactionRef","type":"string","internalType":"string"},{"name":"transactionId","type":"string","internalType":"string"},{"name":"txType","type":"uint8","internalType":"enum TransactionOrderBook.TransactionType"},{"name":"initiatorGIC","type":"string","internalType":"string"},{"name":"counterpartyGIC","type":"string","internalType":"string"},{"name":"senderIGAN","type":"string","internalType":"string"},{"name":"receiverIGAN","type":"string","internalType":"string"},{"name":"tokenIds","type":"uint256[]","internalType":"uint256[]"},{"name":"requestedAssets","type":"tuple[]","internalType":"struct TransactionOrderBook.RequestedAsset[]","components":[{"name":"goldProductTypeId","type":"string","internalType":"string"},{"name":"quantityGrams","type":"uint256","internalType":"uint256"}]},{"name":"valuationDate","type":"string","internalType":"string"},{"name":"valuationCurrency","type":"string","internalType":"string"},{"name":"transactionValue","type":"uint256","internalType":"uint256"},{"name":"expiresAt","type":"uint256","internalType":"uint256"},{"name":"signature","type":"bytes","internalType":"bytes"}],"outputs":[{"name":"txRef","type":"string","internalType":"string"}],"stateMutability":"nonpayable"},{"type":"function","name":"renounceOwnership","inputs":[],"outputs":[],"stateMutability":"nonpayable"},{"type":"function","name":"setExecutionOptions","inputs":[{"name":"_transferAssetsOnExecute","type":"bool","internalType":"bool"},{"name":"_updateLedgerOnExecute","type":"bool","internalType":"bool"}],"outputs":[],"stateMutability":"nonpayable"},{"type":"function","name":"setGoldAccountLedger","inputs":[{"name":"_accountLedger","type":"address","internalType":"address"}],"outputs":[],"stateMutability":"nonpayable"},{"type":"function","name":"setGoldAssetToken","inputs":[{"name":"_goldAssetToken","type":"address","internalType":"address"}],"outputs":[],"stateMutability":"nonpayable"},{"type":"function","name":"setMemberRegistry","inputs":[{"name":"_memberRegistry","type":"address","internalType":"address"}],"outputs":[],"stateMutability":"nonpayable"},{"type":"function","name":"setMinSignatures","inputs":[{"name":"_minSignatures","type":"uint256","internalType":"uint256"}],"outputs":[],"stateMutability":"nonpayable"},{"type":"function","name":"signOrder","inputs":[{"name":"txRef","type":"string","internalType":"string"},{"name":"signature","type":"bytes","internalType":"bytes"},{"name":"signerRole","type":"string","internalType":"string"}],"outputs":[],"stateMutability":"nonpayable"},{"type":"function","name":"transferAssetsOnExecute","inputs":[],"outputs":[{"name":"","type":"bool","internalType":"bool"}],"stateMutability":"view"},{"type":"function","name":"transferOwnership","inputs":[{"name":"newOwner","type":"address","internalType":"address"}],"outputs":[],"stateMutability":"nonpayable"},{"type":"function","name":"updateLedgerOnExecute","inputs":[],"outputs":[{"name":"","type":"bool","internalType":"bool"}],"stateMutability":"view"},{"type":"function","name":"updateOrderStatus","inputs":[{"name":"txRef","type":"string","internalType":"string"},{"name":"newStatus","type":"uint8","internalType":"enum TransactionOrderBook.TransactionStatus"},{"name":"reason","type":"string","internalType":"string"}],"outputs":[],"stateMutability":"nonpayable"},{"type":"event","name":"OrderCancelled","inputs":[{"name":"transactionRef","type":"string","indexed":true,"internalType":"string"},{"name":"reason","type":"string","indexed":false,"internalType":"string"},{"name":"timestamp","type":"uint256","indexed":false,"internalType":"uint256"}],"anonymous":false},{"type":"event","name":"OrderCreated","inputs":[{"name":"transactionRef","type":"string","indexed":true,"internalType":"string"},{"name":"transactionId","type":"string","indexed":false,"internalType":"string"},{"name":"txType","type":"uint8","indexed":false,"internalType":"enum TransactionOrderBook.TransactionType"},{"name":"initiatorGIC","type":"string","indexed":false,"internalType":"string"},{"name":"counterpartyGIC","type":"string","indexed":false,"internalType":"string"},{"name":"requestedAssetCount","type":"uint256","indexed":false,"internalType":"uint256"},{"name":"valuationCurrency","type":"string","indexed":false,"internalType":"string"},{"name":"transactionValue","type":"uint256","indexed":false,"internalType":"uint256"},{"name":"status","type":"uint8","indexed":false,"internalType":"enum TransactionOrderBook.TransactionStatus"},{"name":"timestamp","type":"uint256","indexed":false,"internalType":"uint256"},{"name":"expiresAt","type":"uint256","indexed":false,"internalType":"uint256"}],"anonymous":false},{"type":"event","name":"OrderExecuted","inputs":[{"name":"transactionRef","type":"string","indexed":true,"internalType":"string"},{"name":"tokenCount","type":"uint256","indexed":false,"internalType":"uint256"},{"name":"timestamp","type":"uint256","indexed":false,"internalType":"uint256"}],"anonymous":false},{"type":"event","name":"OrderFailed","inputs":[{"name":"transactionRef","type":"string","indexed":true,"internalType":"string"},{"name":"reason","type":"string","indexed":false,"internalType":"string"},{"name":"timestamp","type":"uint256","indexed":false,"internalType":"uint256"}],"anonymous":false},{"type":"event","name":"OrderPrepared","inputs":[{"name":"transactionRef","type":"string","indexed":true,"internalType":"string"},{"name":"tokenCount","type":"uint256","indexed":false,"internalType":"uint256"},{"name":"timestamp","type":"uint256","indexed":false,"internalType":"uint256"}],"anonymous":false},{"type":"event","name":"OrderSigned","inputs":[{"name":"transactionRef","type":"string","indexed":true,"internalType":"string"},{"name":"signer","type":"address","indexed":true,"internalType":"address"},{"name":"signerUserId","type":"string","indexed":false,"internalType":"string"},{"name":"signerRole","type":"string","indexed":false,"internalType":"string"},{"name":"signaturesCollected","type":"uint256","indexed":false,"internalType":"uint256"},{"name":"signaturesRequired","type":"uint256","indexed":false,"internalType":"uint256"},{"name":"timestamp","type":"uint256","indexed":false,"internalType":"uint256"}],"anonymous":false},{"type":"event","name":"OwnershipTransferred","inputs":[{"name":"previousOwner","type":"address","indexed":true,"internalType":"address"},{"name":"newOwner","type":"address","indexed":true,"internalType":"address"}],"anonymous":false},{"type":"error","name":"OwnableInvalidOwner","inputs":[{"name":"owner","type":"address","internalType":"address"}]},{"type":"error","name":"OwnableUnauthorizedAccount","inputs":[{"name":"account","type":"address","internalType":"address"}]}],"bytecode":{"object":"0x6080346200012657601f62004da138819003918201601f19168301916001600160401b038311848410176200012a578084926020946040528339810103126200012657516001600160a01b0380821691829003620001265733156200010e575f549060018060a01b03199133838216175f55604051913391167f8be0079c531659141344cd1fd0a4f28419497f9722a3daafe3b4186f6b6457e05f80a3600260045561ffff19600554166005558215620000cc57506001541617600155604051614c6290816200013f8239f35b62461bcd60e51b815260206004820152601660248201527f496e76616c6964204d656d6265725265676973747279000000000000000000006044820152606490fd5b604051631e4fbdf760e01b81525f6004820152602490fd5b5f80fd5b634e487b7160e01b5f52604160045260245ffdfe60806040526004361015610011575f80fd5b5f3560e01c806304b5bf4f146124b557806308c17f3014611d34578063238acaa214611d175780632f7554ac14611c2f5780632fdee1f31461190a57806345eed0db146118ee5780634a680b4214610bba5780634b4555b1146114235780634fbb487c14610f845780634fe5043d14610f3f57806351d80ef314610f1a5780635a54609814610eb45780635c39fcc114610e995780635defa55e14610e715780636fd7c34c14610de85780636fe5479214610dcc578063715018a614610d755780637589b7de14610d5a5780638486bdc414610d385780638da5cb5b14610d1157806392afc33a14610cf657806394ae772f14610cb1578063a74d477214610c89578063aedfb5d314610c30578063c3df654614610bfd578063ca698bc814610bd5578063d0473a6514610bba578063d8224ea8146105cc578063db413d9e1461057b578063e9e32947146103e0578063ea9dc25d146102045763f2fde38b14610179575f80fd5b34610200576020366003190112610200576004356001600160a01b0381811691829003610200576101a8614604565b81156101e8575f54826001600160601b0360a01b8216175f55167f8be0079c531659141344cd1fd0a4f28419497f9722a3daafe3b4186f6b6457e05f80a3005b604051631e4fbdf760e01b81525f6004820152602490fd5b5f80fd5b3461020057602080600319360112610200576004356001600160401b038111610200578161023961027a92369060040161268f565b60405190610269600c82519385818186019661025681838a612847565b8101600681520301902001541515612f70565b604051938492839251928391612847565b81016007815203019020908154916102918361271b565b9261029f6040519485612653565b80845282840180925f52835f205f915b8383106103655750505050604051918083019381845251809452604083019360408160051b85010192915f955b8287106102e95785850386f35b909192938280600192603f1989820301855287519061034b61033861032660a0888060a01b03865116855286860151908088870152850190612868565b60408501518482036040860152612868565b6060808501519084830390850152612868565b9160808091015191015296019201960195929190926102dc565b60058660019260409998995161037a816125ee565b848060a01b038654168152610390858701612fae565b838201526103a060028701612fae565b60408201526040516103c0816103b98160038b016130cf565b0382612653565b6060820152600486015460808201528152019201920191909594956102af565b34610200576103ee366126d5565b60015460405163fe575a8760e01b8152336004820152602093918490829060249082906001600160a01b03165afa8015610570575f9061053a575b610434915015612901565b60026040518481845161044a8183858901612847565b81016006815203019020610463600c8201541515612f70565b61046c8161462f565b8015610526575b61047c9061305a565b01805461048e60ff8260081c16614a33565b8351156104ef5761ff0019166105001790557f02e9305cecf09be907ffd0503eb73fcbe81d21bca8403188cbcc53e4387d9dc9916104e4916104cf90612f50565b93604051928392604084526040840190612868565b9042908301520390a2005b60405162461bcd60e51b815260048101869052600f60248201526e1499585cdbdb881c995c5d5a5c9959608a1b6044820152606490fd5b5061047c6105333361332e565b9050610473565b508381813d8311610569575b6105508183612653565b8101031261020057610564610434916128f4565b610429565b503d610546565b6040513d5f823e3d90fd5b346102005760403660031901126102005760043580151580910361020057602435801515809103610200576105ae614604565b60ff61ff006005549260081b1692169061ffff191617176005555f80f35b34610200576020366003190112610200576004356001600160401b038111610200576105fc90369060040161268f565b60015460405163fe575a8760e01b815233600482015290602090829060249082906001600160a01b03165afa8015610570575f90610b7f575b610640915015612901565b60405160208183516106558183858801612847565b810160068152030190209061066f600c8301541515612f70565b61068061067b8361462f565b61305a565b60ff600283015460081c166006811015610b6b5760026106a09114613097565b600582016106ae8154612bba565b15610b31576106c06006840154612bba565b15610af5576106d4600784015415156129ee565b60ff60055416610754575b5090604061073760077ff236a289260b80b8f670f639c87bc95b2efa9286807681fea2d11b9959b1f0df9360ff60055460081c16610746575b60028101805461ff00191661030017905542600e820155015493612f50565b928151908152426020820152a2005b61074f81614768565b610718565b6003546001600160a01b031615610ab7576107a3925f60018060a01b036002541692610781841515614707565b604051809681926302f8780d60e31b83526020600484015260248301906130cf565b0381855afa938415610570575f94610a9b575b505f60405180936302f8780d60e31b82526020600483015281806107e060248201600688016130cf565b03915afa918215610570575f92610a77575b5060408401516001600160a01b031615610a395760408201516001600160a01b0316156109f4575f5b60078201548110156109e8576108348160078401614753565b90549060031b1c9060018060a01b03600354166040519063823a65f560e01b8252836004830152602082602481845afa918215610570575f926109b7575b50600260ff831614610945575b5060ff1660031461091157600354604087810151908601516001600160a01b03918216929082169116803b15610200575f928360c4926040519788958694637921219560e11b86526004860152602485015260448401526001606484015260a060848401528160a48401525af191821561057057600192610902575b500161081b565b61090b90612640565b866108fb565b60405162461bcd60e51b815260206004820152600c60248201526b105cdcd95d081b1bd8dad95960a21b6044820152606490fd5b8091503b15610200575f809160a460405180948193633c0f85b960e11b83528860048401526001602484015260606044840152600960648401526811115312559154915160ba1b60848401525af18015610570576109a8575b50600160ff61087f565b6109b190612640565b8661099e565b6109da91925060203d6020116109e1575b6109d28183612653565b81019061366c565b9088610872565b503d6109c8565b509250604090506106df565b60405162461bcd60e51b815260206004820152601860248201527f496e76616c6964207265636569766572206164647265737300000000000000006044820152606490fd5b60405162461bcd60e51b8152602060048201526016602482015275496e76616c69642073656e646572206164647265737360501b6044820152606490fd5b610a949192503d805f833e610a8c8183612653565b8101906133a8565b90846107f2565b610ab09194503d805f833e610a8c8183612653565b92846107b6565b60405162461bcd60e51b815260206004820152601660248201527511dbdb19105cdcd95d151bdad95b881b9bdd081cd95d60521b6044820152606490fd5b60405162461bcd60e51b815260206004820152601460248201527326b4b9b9b4b733903932b1b2b4bb32b924a3a0a760611b6044820152606490fd5b60405162461bcd60e51b815260206004820152601260248201527126b4b9b9b4b7339039b2b73232b924a3a0a760711b6044820152606490fd5b634e487b7160e01b5f52602160045260245ffd5b506020813d602011610bb2575b81610b9960209383612653565b8101031261020057610bad610640916128f4565b610635565b3d9150610b8c565b34610200575f36600319011261020057602060405160018152f35b34610200575f366003190112610200576003546040516001600160a01b039091168152602090f35b34610200575f36600319011261020057610c2c610c186128cc565b604051918291602083526020830190612868565b0390f35b34610200576020366003190112610200576004356001600160401b0381116102005760ff6002610c6a60206102398195369060040161268f565b81016006815203019020015460081c16610c87604051809261289a565bf35b34610200575f366003190112610200576001546040516001600160a01b039091168152602090f35b34610200576020366003190112610200576004356001600160a01b0381169081900361020057610cdf614604565b6001600160601b0360a01b60025416176002555f80f35b34610200575f36600319011261020057602060405160028152f35b34610200575f366003190112610200575f546040516001600160a01b039091168152602090f35b34610200575f36600319011261020057602060ff600554166040519015158152f35b34610200575f36600319011261020057602060405160c08152f35b34610200575f36600319011261020057610d8d614604565b5f80546001600160a01b0319811682556001600160a01b03167f8be0079c531659141344cd1fd0a4f28419497f9722a3daafe3b4186f6b6457e08280a3005b34610200575f3660031901126102005760206040516101c38152f35b34610200576020366003190112610200576004356001600160a01b0381169081900361020057610e16614604565b8015610e33576001600160601b0360a01b60015416176001555f80f35b60405162461bcd60e51b8152602060048201526016602482015275496e76616c6964204d656d626572526567697374727960501b6044820152606490fd5b34610200575f366003190112610200576002546040516001600160a01b039091168152602090f35b34610200575f36600319011261020057610c2c610c186128a7565b3461020057602036600319011261020057600435610ed0614604565b60028103610edd57600455005b60405162461bcd60e51b8152602060048201526015602482015274496e76616c6964206d696e5369676e61747572657360581b6044820152606490fd5b34610200575f36600319011261020057602060ff60055460081c166040519015158152f35b34610200576020366003190112610200576004356001600160a01b0381169081900361020057610f6d614604565b6001600160601b0360a01b60035416176003555f80f35b34610200576020366003190112610200576004356001600160401b038111610200576020610fb961105692369060040161268f565b5f610200604051610fc981612609565b6060815260608582015282604082015282606082015260606080820152606060a0820152606060c0820152606060e0820152606061010082015260606101208201526060610140820152606061016082015282610180820152826101a0820152826101c0820152826101e0820152015260405190610269600c82519385818186019661025681838a612847565b810160068152030190206040519061106d82612609565b61107681612fae565b825261108460018201612fae565b6020830152600281015461109e60ff82166040850161304e565b600660ff8260081c161015610b6b5760081c60ff1660608301526110c460038201612fae565b60808301526110d560048201612fae565b60a08301526110e660058201612fae565b60c08301526110f760068201612fae565b60e083015260078101604051808260208294549384815201905f5260205f20925f5b81811061140a57505061112e92500382612653565b61010083015260088101546111428161271b565b906111506040519283612653565b80825260208201600884015f5260205f205f915b8383106113d6575050505061012083015261118160098201612fae565b610140830152611193600a8201612fae565b610160830152600b810154610180830152600c8101546101a0830152600d8101546101c0830152600e8101546101e0830152600f60018060a01b03910154166102008201526040516020815261129961128261126c61125661121c61120687516102206020890152610240880190612868565b6020880151878203601f19016040890152612868565b61122e6040880151606088019061288d565b6112406060880151608088019061289a565b6080870151868203601f190160a0880152612868565b60a0860151858203601f190160c0870152612868565b60c0850151848203601f190160e0860152612868565b60e0840151838203601f1901610100850152612868565b9161010081015192601f1983820301610120840152602080855192838152019401905f5b8181106113c05750505061012081015192601f1983820301610140840152835180825260208201916020808360051b8301019601925f915b83831061137f5786808761133661131e8c610140840151601f1986830301610160870152612868565b610160830151848203601f1901610180860152612868565b906101808101516101a08401526101a08101516101c08401526101c08101516101e08401526101e081015161020084015261020060018060a01b03910151166102208301520390f35b9091929396602080600192601f198582030186528a519082806113ab8451604085526040850190612868565b930151910152990193019301919392906112f5565b82518652602095860195909201916001016112bd565b600260206001926040516113e981612625565b6113f286612fae565b81528486015483820152815201920192019190611164565b8454835260019485019486945060209093019201611119565b34610200576060366003190112610200576001600160401b036004358181116102005761145490369060040161268f565b602480358381116102005761146d90369060040161268f565b926044359081116102005761148690369060040161268f565b60015460405163fe575a8760e01b8152336004820152602095929492916001600160a01b039081169187818781865afa8015610570575f906118b8575b6114ce915015612901565b604051958451968881818801996114e681838d612847565b8101600681520301902090611500600c8301541515612f70565b61150c61067b8361462f565b61151d6115183361332e565b6129a2565b61152985511515612a2d565b8881519101206115376128cc565b8981519101200361187f57600281019260ff845460081c16600681101561186c57879161156760015f9314613097565b6040516349d0104160e11b815233600482015292839182905afa908115610570576004916115ba915f91611852575b506115a38151151561305a565b8a8151910120926103b960405180948193016130cf565b8881519101200361181b5760ff6115f56040518981806115de8c8b51928391612847565b810160088152030190206115f06128a7565b612b94565b5416156117e05761163260ff61162a6040518a81806116188d8c51928391612847565b810160088152030190206115f06128cc565b541615612c4d565b6116476040518881875161161881838d612847565b600160ff198254161790556040518781865161166481838c612847565b8101600781520301902091816001541692604051905f828981632d7feef360e21b988982523360048301525afa908115610570575f966116d79388936117c4575b506116ae6128cc565b604051936116bb856125ee565b3385528d85015260408401526060830152426080830152612c8a565b61020061ff001982541617905560015416936040518095819382523360048301525afa908115610570577febb434060d28d0e0f2447a93bd6a9c5fef02b4595969aefc0f03687a12bb084a925f926117a0575b5061178761174c8661173a6128cc565b96604051809381928751928391612847565b81016007815203019020549561176460045493612f50565b9561177a6040519560a0875260a0870190612868565b9185830390860152612868565b94604083015260608201524260808201528033940390a3005b6117bd9192503d805f833e6117b58183612653565b810190612aaf565b908561172a565b6117d99193503d808a833e6117b58183612653565b918c6116a5565b60405162461bcd60e51b81526004810188905260148187015273125b9a5d1a585d1bdc881b9bdd081cda59db995960621b6044820152606490fd5b60405162461bcd60e51b8152600481018890526010818701526f4e6f7420636f756e746572706172747960801b6044820152606490fd5b61186691503d805f833e6117b58183612653565b8b611596565b87634e487b7160e01b5f5260216004525ffd5b60405162461bcd60e51b81526004810189905260128188015271496e76616c6964207369676e6572526f6c6560701b6044820152606490fd5b508781813d83116118e7575b6118ce8183612653565b81010312610200576118e26114ce916128f4565b6114c3565b503d6118c4565b34610200575f3660031901126102005760206040516101008152f35b34610200576101a0366003190112610200576001600160401b036004358181116102005761193c90369060040161268f565b906024358181116102005761195590369060040161268f565b60046044351015610200576064358281116102005761197890369060040161268f565b916084358181116102005761199190369060040161268f565b9360a435828111610200576119aa903690600401612732565b9260c435838111610200576119c3903690600401612792565b60e435848111610200576119db90369060040161268f565b61010435858111610200576119f490369060040161268f565b916101643586811161020057611a0e90369060040161268f565b956101843590811161020057611a2890369060040161268f565b9660018060a01b036001541660405163fe575a8760e01b8152336004820152602081602481855afa8015610570575f90611bf4575b611a68915015612901565b604051638cbdcead60e01b81523360048201526101c36024820152602081604481855afa908115610570575f91611bb0575b50602491611aa85f92612942565b6040516349d0104160e11b815233600482015292839182905afa801561057057611aeb915f91611b96575b50611add3361332e565b908115611b6a575b50612ad4565b8051611b2e57610c2c99610c1899611b0589511515612b10565b611b118a511515612b51565b611b1b8a8a6134dd565b6101443597610124359760443591613685565b60405162461bcd60e51b81526020600482015260146024820152731d1bdad95b92591cc81b9bdd08185b1b1bddd95960621b6044820152606490fd5b809150518015159182611b80575b50508c611ae5565b602091925001208a5160208c0120148c80611b78565b611baa91503d805f833e6117b58183612653565b8c611ad3565b90506020813d602011611bec575b81611bcb60209383612653565b8101031261020057602491611aa8611be35f936128f4565b92505091611a9a565b3d9150611bbe565b506020813d602011611c27575b81611c0e60209383612653565b8101031261020057611c22611a68916128f4565b611a5d565b3d9150611c01565b34610200576060366003190112610200576001600160401b0360043581811161020057611c6090369060040161268f565b60243560068110156102005760443592831161020057611c86602493369060040161268f565b60015460405163fe575a8760e01b81523360048201529491939160209186919082906001600160a01b03165afa938415610570575f94611cd6575b50611ccf611cd49415612901565b613160565b005b93506020843d602011611d0f575b81611cf160209383612653565b8101031261020057611ccf611d08611cd4956128f4565b9450611cc1565b3d9150611ce4565b34610200575f366003190112610200576020600454604051908152f35b34610200576101c0366003190112610200576004356001600160401b03811161020057611d6590369060040161268f565b6024356001600160401b03811161020057611d8490369060040161268f565b9060046044351015610200576064356001600160401b03811161020057611daf90369060040161268f565b916084356001600160401b03811161020057611dcf90369060040161268f565b9160a4356001600160401b03811161020057611def90369060040161268f565b9060c4356001600160401b03811161020057611e0f90369060040161268f565b9260e4356001600160401b03811161020057611e2f903690600401612732565b610104356001600160401b03811161020057611e4f903690600401612792565b610124356001600160401b03811161020057611e6f90369060040161268f565b90610144356001600160401b03811161020057611e9090369060040161268f565b926101a4356001600160401b03811161020057611eb190369060040161268f565b9860018060a01b036001541660405163fe575a8760e01b8152336004820152602081602481855afa8015610570575f9061247a575b611ef1915015612901565b604051638cbdcead60e01b81523360048201526101c36024820152602081604481855afa908115610570575f91612436575b50602491611f315f92612942565b611f3d6115183361332e565b611f49855115156129ee565b611f558d511515612a2d565b6040516349d0104160e11b815233600482015292839182905afa801561057057611f94915f9161241c575b5080518015159182612405575b5050612ad4565b611fa088511515612b10565b611fac89511515612b51565b611fb689896134dd565b60405160208181611fcd8b83815193849201612847565b810160068152030190209a600c8c0154155f1461216c57611ffd9a9b506101843597610164359760443591613685565b60405160208183516120128183858801612847565b81016006815203019020915b612073602060405161204260ff61162a8751938581818b01966115de81838a612847565b612057604051838188516115de818388612847565b600160ff19825416179055604051809381928751928391612847565b810160078152030190209260245f60018060a01b036001541660405192838092632d7feef360e21b82523360048301525afa801561057057610c2c956007946120f0935f93612150575b506120c66128a7565b604051936120d3856125ee565b338552602085015260408401526060830152426080830152612c8a565b60028101805461ff00191661010017905501547ff606eb498f9a8bbf794e211a74a20fba192f8ad17ef6f358423d0f4a42bbaebf604061212f84612f50565b928151908152426020820152a2604051918291602083526020830190612868565b6121659193503d805f833e6117b58183612653565b91886120bd565b505095979694935050505060ff600287015460081c166006811015610b6b576123cf57938051906001600160401b0382116122c9576121bb826121b260058a0154612bba565b60058a01612c08565b602090601f8311600114612361576121ea92915f9183612356575b50508160011b915f199060031b1c19161790565b60058601555b8051906001600160401b0382116122c95761221b826122126006890154612bba565b60068901612c08565b602090601f83116001146122e85761224992915f91836122dd5750508160011b915f199060031b1c19161790565b60068501555b600784018151916001600160401b0383116122c957600160401b83116122c95760209082548484558085106122ae575b5001905f5260205f205f5b83811061229a575050505061201e565b60019060208451940193818401550161228a565b6122c390845f5285845f209182019101612bf2565b8761227f565b634e487b7160e01b5f52604160045260245ffd5b0151905087806121d6565b9190600687015f5260205f20905f935b601f198416851061233b576001945083601f19811610612323575b505050811b01600685015561224f565b01515f1960f88460031b161c19169055868080612313565b818101518355602094850194600190930192909101906122f8565b0151905088806121d6565b9190600588015f5260205f20905f935b601f19841685106123b4576001945083601f1981161061239c575b505050811b0160058601556121f0565b01515f1960f88460031b161c1916905587808061238c565b81810151835560209485019460019093019290910190612371565b60405162461bcd60e51b815260206004820152600e60248201526d496e76616c69642073746174757360901b6044820152606490fd5b602091925001208c60208151910120148d80611f8d565b61243091503d805f833e6117b58183612653565b8d611f80565b90506020813d602011612472575b8161245160209383612653565b8101031261020057602491611f316124695f936128f4565b92505091611f23565b3d9150612444565b506020813d6020116124ad575b8161249460209383612653565b81010312610200576124a8611ef1916128f4565b611ee6565b3d9150612487565b34610200576124c3366126d5565b60015460405163fe575a8760e01b8152336004820152602093918490829060249082906001600160a01b03165afa8015610570575f906125b8575b612509915015612901565b60026040518481845161251f8183858901612847565b81016006815203019020612538600c8201541515612f70565b6125418161462f565b80156125a4575b6125519061305a565b01805461256360ff8260081c16614973565b8351156104ef5761ff0019166104001790557f97a94f0cddc66a7e07e262bdc7528eb7b2b3428993c96bf38277a092b0d2ff59916104e4916104cf90612f50565b506125516125b13361332e565b9050612548565b508381813d83116125e7575b6125ce8183612653565b81010312610200576125e2612509916128f4565b6124fe565b503d6125c4565b60a081019081106001600160401b038211176122c957604052565b61022081019081106001600160401b038211176122c957604052565b604081019081106001600160401b038211176122c957604052565b6001600160401b0381116122c957604052565b90601f801991011681019081106001600160401b038211176122c957604052565b6001600160401b0381116122c957601f01601f191660200190565b81601f82011215610200578035906126a682612674565b926126b46040519485612653565b8284526020838301011161020057815f926020809301838601378301015290565b906040600319830112610200576001600160401b0360043581811161020057836127019160040161268f565b92602435918211610200576127189160040161268f565b90565b6001600160401b0381116122c95760051b60200190565b9080601f8301121561020057602090823561274c8161271b565b9361275a6040519586612653565b81855260208086019260051b82010192831161020057602001905b828210612783575050505090565b81358152908301908301612775565b9080601f83011215610200578135916020916127ad8461271b565b936040926127be6040519687612653565b818652848087019260051b8201019383851161020057858201925b8584106127ea575050505050505090565b6001600160401b039084358281116102005784019083601f19838903011261020057835161281781612625565b898301359384116102005784836128348a8d80988198010161268f565b83520135838201528152019301926127d9565b5f5b8381106128585750505f910152565b8181015183820152602001612849565b9060209161288181518092818552858086019101612847565b601f01601f1916010190565b906004821015610b6b5752565b906006821015610b6b5752565b604051906128b482612625565b600982526834b734ba34b0ba37b960b91b6020830152565b604051906128d982612625565b600c82526b636f756e746572706172747960a01b6020830152565b5190811515820361020057565b1561290857565b60405162461bcd60e51b815260206004820152601260248201527110d85b1b195c88189b1858dadb1a5cdd195960721b6044820152606490fd5b1561294957565b60405162461bcd60e51b815260206004820152602b60248201527f4e6f7420617574686f72697a65643a206f726465722063726561746f7220726f60448201526a1b19481c995c5d5a5c995960aa1b6064820152608490fd5b156129a957565b60405162461bcd60e51b815260206004820152601c60248201527f4e6f7420617574686f72697a65643a20474d4f207265717569726564000000006044820152606490fd5b156129f557565b60405162461bcd60e51b815260206004820152601060248201526f4d697373696e6720746f6b656e49647360801b6044820152606490fd5b15612a3457565b60405162461bcd60e51b8152602060048201526011602482015270496e76616c6964207369676e617475726560781b6044820152606490fd5b81601f82011215610200578051612a8381612674565b92612a916040519485612653565b81845260208284010111610200576127189160208085019101612847565b906020828203126102005781516001600160401b038111610200576127189201612a6d565b15612adb57565b60405162461bcd60e51b815260206004820152600d60248201526c2737ba1034b734ba34b0ba37b960991b6044820152606490fd5b15612b1757565b60405162461bcd60e51b815260206004820152601260248201527124b73b30b634b21039b2b73232b924a3a0a760711b6044820152606490fd5b15612b5857565b60405162461bcd60e51b815260206004820152601460248201527324b73b30b634b2103932b1b2b4bb32b924a3a0a760611b6044820152606490fd5b602090612bae928260405194838680955193849201612847565b82019081520301902090565b90600182811c92168015612be8575b6020831014612bd457565b634e487b7160e01b5f52602260045260245ffd5b91607f1691612bc9565b818110612bfd575050565b5f8155600101612bf2565b9190601f8111612c1757505050565b612c41925f5260205f20906020601f840160051c83019310612c43575b601f0160051c0190612bf2565b565b9091508190612c34565b15612c5457565b60405162461bcd60e51b815260206004820152600e60248201526d105b1c9958591e481cda59db995960921b6044820152606490fd5b90815491600160401b8310156122c957600190818401808255841015612f1d575f526020926005845f209102019260018060a01b038351166001600160601b0360a01b85541617845581840190808401519182516001600160401b03938482116122c957612d0282612cfc8554612bba565b85612c08565b8390601f8311600114612ebf57612d2f92915f9183612dea5750508160011b915f199060031b1c19161790565b90555b6002850160408501518051908482116122c957612d5382612cfc8554612bba565b8390601f8311600114612e6157612d8092915f9183612dea5750508160011b915f199060031b1c19161790565b90555b600385019260608501519081519384116122c957612dab84612da58754612bba565b87612c08565b82601f8511600114612df5575050826004959360809593612de0935f92612dea5750508160011b915f199060031b1c19161790565b90555b0151910155565b015190505f806121d6565b91601f94939194198416865f52835f20935f905b828210612e4a5750509160049795939185608098969410612e32575b505050811b019055612de3565b01515f1960f88460031b161c191690555f8080612e25565b808886978294978701518155019601940190612e09565b869291601f19831691855f52865f20925f5b88828210612ea95750508411612e91575b505050811b019055612d83565b01515f1960f88460031b161c191690555f8080612e84565b8385015186558b97909501949384019301612e73565b869291601f19831691855f52865f20925f5b88828210612f075750508411612eef575b505050811b019055612d32565b01515f1960f88460031b161c191690555f8080612ee2565b8385015186558b97909501949384019301612ed1565b634e487b7160e01b5f52603260045260245ffd5b906006811015610b6b5761ff0082549160081b169061ff001916179055565b612f6890602060405192828480945193849201612847565b810103902090565b15612f7757565b60405162461bcd60e51b815260206004820152600f60248201526e13dc99195c881b9bdd08199bdd5b99608a1b6044820152606490fd5b9060405191825f8254612fc081612bba565b908184526020946001916001811690815f1461302c5750600114612fee575b505050612c4192500383612653565b5f90815285812095935091905b818310613014575050612c4193508201015f8080612fdf565b85548884018501529485019487945091830191612ffb565b92505050612c4194925060ff191682840152151560051b8201015f8080612fdf565b6004821015610b6b5752565b1561306157565b60405162461bcd60e51b815260206004820152600e60248201526d139bdd08185d5d1a1bdc9a5e995960921b6044820152606490fd5b1561309e57565b60405162461bcd60e51b81526020600482015260096024820152684e6f7420726561647960b81b6044820152606490fd5b80545f93926130dd82612bba565b918282526020936001916001811690815f146131415750600114613103575b5050505050565b90939495505f92919252835f2092845f945b83861061312d57505050500101905f808080806130fc565b805485870183015294019385908201613115565b60ff19168685015250505090151560051b010191505f808080806130fc565b909160408051938484516020968161317c899383858b01612847565b81016006815203019020613195600c8201541515612f70565b61319e8161462f565b801561331a575b6131ae9061305a565b60028101906131c48360ff845460081c16614abb565b600683101580610b6b5760048414928484801561330a575b6132c6575b6131ea91612f31565b610b6b576003831461327c5750613251576005146132085750505050565b6132327f02e9305cecf09be907ffd0503eb73fcbe81d21bca8403188cbcc53e4387d9dc993612f50565b936132468251938385948552840190612868565b9042908301520390a2565b506132327f97a94f0cddc66a7e07e262bdc7528eb7b2b3428993c96bf38277a092b0d2ff5993612f50565b7ff236a289260b80b8f670f639c87bc95b2efa9286807681fea2d11b9959b1f0df959394506132b892506007915042600e820155015491612f50565b9382519182524290820152a2565b508651156132d457846131e1565b855162461bcd60e51b8152600481018a9052600f60248201526e1499585cdbdb881c995c5d5a5c9959608a1b6044820152606490fd5b505090505f9084600581146131dc565b506131ae6133273361332e565b90506131a5565b600154604051638cbdcead60e01b81526001600160a01b03928316600482015260c060248201529160209183916044918391165afa908115610570575f91613374575090565b90506020813d6020116133a0575b8161338f60209383612653565b8101031261020057612718906128f4565b3d9150613382565b6020818303126102005780516001600160401b039182821161020057019061016092838382031261020057604051938401848110838211176122c957604052825182811161020057816133fc918501612a6d565b845260208301518281116102005781613416918501612a6d565b602085015260408301516001600160a01b03811681036102005760408501526060830151828111610200578161344d918501612a6d565b60608501526080830151828111610200578161346a918501612a6d565b608085015260a08301518281116102005781613487918501612a6d565b60a085015260c083015160c085015260e0830151918211610200576134ad918301612a6d565b60e0830152610100808201519083015261012080820151908301526134d66101408092016128f4565b9082015290565b6002546001600160a01b0316918215613653576040928351925f84806135196302f8780d60e31b94858352602060048401526024830190612868565b0381855afa938415613649575f94613623575b50915f9161354f9386518095819482938352602060048401526024830190612868565b03915afa908115613619575f916135ff575b5061014080920151156135bb570151156135785750565b5162461bcd60e51b815260206004820152601960248201527f5265636569766572206163636f756e7420696e616374697665000000000000006044820152606490fd5b825162461bcd60e51b815260206004820152601760248201527f53656e646572206163636f756e7420696e6163746976650000000000000000006044820152606490fd5b61361391503d805f833e610a8c8183612653565b5f613561565b83513d5f823e3d90fd5b61354f939194509161363f5f933d8086833e610a8c8183612653565b949193509161352c565b85513d5f823e3d90fd5b505050565b8051821015612f1d5760209160051b010190565b90816020910312610200575160ff811681036102005790565b99959c9a94989690979392988a51156145c657600c6136b360208d8160405193828580945193849201612847565b8101600681520301902001546145925789511561455657835115614511578d51156144cc5781511561448f57845115614457575f9c8d8f5b51111561379a576136fd8f8f90613658565b5151511561375e5760208f8f61371291613658565b510151156137265760018f9e01809e6136eb565b60405162461bcd60e51b815260206004820152601060248201526f496e76616c6964207175616e7469747960801b6044820152606490fd5b60405162461bcd60e51b8152602060048201526014602482015273496e76616c69642070726f64756374207479706560601b6044820152606490fd5b9091929496989a9c509c929496989a9c60018060a01b03600154168c604051602081806137dc638e690fc560e01b958683528460048401526024830190612868565b0381865afa9081156105705760019160ff915f91614438575b5016036143fc576020906040519283918252826004830152818061381c602482018d612868565b03915afa9081156105705760019160ff915f916143dd575b5016036143985788614358575b8a5115614350575b6040519761385689612609565b8d89528b60208a015261386c8660408b0161304e565b5f60608a01528c60808a01528660a08a015260c089015260e0880152610100870152816101208701526101408601528361016086015286610180860152426101a0860152856101c08601525f6101e0860152336102008601526138de60208b8160405193828580945193849201612847565b810160068152030190209480518051906001600160401b0382116122c9576139108261390a8a54612bba565b8a612c08565b602090601f83116001146142e85761393e92915f9183612dea5750508160011b915f199060031b1c19161790565b86555b60208101518051906001600160401b0382116122c9576139718261396860018b0154612bba565b60018b01612c08565b602090601f831160011461427a5761399f92915f9183612dea5750508160011b915f199060031b1c19161790565b60018701555b60408101516004811015610b6b5760ff8019600289015416911617600287015560608101516006811015610b6b576139e09060028801612f31565b60808101518051906001600160401b0382116122c957613a1082613a0760038b0154612bba565b60038b01612c08565b602090601f831160011461420c57613a3e92915f9183612dea5750508160011b915f199060031b1c19161790565b60038701555b60a08101518051906001600160401b0382116122c957613a7482613a6b60048b0154612bba565b60048b01612c08565b602090601f831160011461419e57613aa292915f9183612dea5750508160011b915f199060031b1c19161790565b60048701555b60c08101518051906001600160401b0382116122c957613ad882613acf60058b0154612bba565b60058b01612c08565b602090601f831160011461413057613b0692915f9183612dea5750508160011b915f199060031b1c19161790565b60058701555b60e08101518051906001600160401b0382116122c957613b3c82613b3360068b0154612bba565b60068b01612c08565b602090601f83116001146140c257613b6a92915f9183612dea5750508160011b915f199060031b1c19161790565b60068701555b6101008101518051906001600160401b0382116122c957600160401b82116122c95760209060078901548360078b01558084106140a4575b5001600788015f5260205f205f5b8381106140905750505050610120810151805190600160401b82116122c95760088801548260088a0155808310613fe2575b5060200190600888015f5260205f205f925b828410613f0357505050506101408101518051906001600160401b0382116122c957613c3682613c2d60098b0154612bba565b60098b01612c08565b602090601f8311600114613e9557613c6492915f9183612dea5750508160011b915f199060031b1c19161790565b60098701555b6101608101519586516001600160401b0381116122c9578c97613c9d82613c94600a860154612bba565b600a8601612c08565b602090601f8311600114613dd4576101409a9895613da295600f7f5dc77ee73a49d59f8fc5273aea5b470ff7bd538af410d595b968cfe3d0df4d009f9e9c999496613d0987613d9498613db59e9a613d63985f92612dea5750508160011b915f199060031b1c19161790565b600a8201555b610180830151600b8201556101a0830151600c8201556101c0830151600d8201556101e0830151600e820155019061020060018060a01b03910151166001600160601b0360a01b8254161790555196612f50565b9c613d87613d7c6040519d8d8f9e8f9081520190612868565b9260208d019061288d565b8a820360408c0152612868565b9088820360608a0152612868565b91608087015285820360a0870152612868565b9160c08401525f60e0840152426101008401526101208301520390a290565b90600a84015f5260205f20915f5b601f1985168110613e66575095613da295600f7f5dc77ee73a49d59f8fc5273aea5b470ff7bd538af410d595b968cfe3d0df4d009f9e9c99949660016101409f9d9a97613db59d99613d6397613d949a83601f19811610613e4e575b505050811b01600a820155613d0f565b01515f1960f88460031b161c191690555f8080613e3e565b92829495969798999a9b5060016020929391839285015181550194019201908f9a999897969594939291613de2565b9190600989015f5260205f20905f935b601f1984168510613ee8576001945083601f19811610613ed0575b505050811b016009870155613c6a565b01515f1960f88460031b161c191690555f8080613ec0565b81810151835560209485019460019093019290910190613ea5565b805180518051906001600160401b0382116122c957613f2682612da58754612bba565b602090601f8311600114613f7357600293613f5e846020956001989587955f92612dea5750508160011b915f199060031b1c19161790565b87555b01518486015501920193019290613bfa565b90855f5260205f20915f5b601f1985168110613fca575093600184819794602096946002988896601f19811610613fb2575b505050811b018755613f61565b01515f1960f88460031b161c191690555f8080613fa5565b91926020600181928685015181550194019201613f7e565b6001600160ff1b03818116820361407c578316830361407c57600889015f5260205f208360011b81015b8260011b8201811061401f575050613be8565b8061402c60029254612bba565b8061403f575b505f60018201550161400c565b601f811160011461405557505f81555b5f614032565b5f90828252614073601f60208420920160051c820160018301612bf2565b8183555561404f565b634e487b7160e01b5f52601160045260245ffd5b600190602084519401938184015501613bb6565b6140bc9060078b015f5284845f209182019101612bf2565b5f613ba8565b9190600689015f5260205f20905f935b601f1984168510614115576001945083601f198116106140fd575b505050811b016006870155613b70565b01515f1960f88460031b161c191690555f80806140ed565b818101518355602094850194600190930192909101906140d2565b9190600589015f5260205f20905f935b601f1984168510614183576001945083601f1981161061416b575b505050811b016005870155613b0c565b01515f1960f88460031b161c191690555f808061415b565b81810151835560209485019460019093019290910190614140565b9190600489015f5260205f20905f935b601f19841685106141f1576001945083601f198116106141d9575b505050811b016004870155613aa8565b01515f1960f88460031b161c191690555f80806141c9565b818101518355602094850194600190930192909101906141ae565b9190600389015f5260205f20905f935b601f198416851061425f576001945083601f19811610614247575b505050811b016003870155613a44565b01515f1960f88460031b161c191690555f8080614237565b8181015183556020948501946001909301929091019061421c565b9190600189015f5260205f20905f935b601f19841685106142cd576001945083601f198116106142b5575b505050811b0160018701556139a5565b01515f1960f88460031b161c191690555f80806142a5565b8181015183556020948501946001909301929091019061428a565b9190885f5260205f20905f935b601f1984168510614335576001945083601f1981161061431d575b505050811b018655613941565b01515f1960f88460031b161c191690555f8080614310565b818101518355602094850194600190930192909101906142f5565b8c9a50613849565b4289116138415760405162461bcd60e51b8152602060048201526011602482015270125b9d985b1a5908195e1c1a5c995cd05d607a1b6044820152606490fd5b60405162461bcd60e51b815260206004820152601760248201527f436f756e7465727061727479206e6f74206163746976650000000000000000006044820152606490fd5b6143f6915060203d6020116109e1576109d28183612653565b5f613834565b60405162461bcd60e51b8152602060048201526014602482015273496e69746961746f72206e6f742061637469766560601b6044820152606490fd5b614451915060203d6020116109e1576109d28183612653565b5f6137f5565b60405162461bcd60e51b815260206004820152601060248201526f496e76616c69642063757272656e637960801b6044820152606490fd5b60405162461bcd60e51b8152602060048201526015602482015274496e76616c69642076616c756174696f6e4461746560581b6044820152606490fd5b60405162461bcd60e51b815260206004820152601860248201527f4d697373696e67207265717565737465642061737365747300000000000000006044820152606490fd5b60405162461bcd60e51b815260206004820152601760248201527f496e76616c696420636f756e74657270617274794749430000000000000000006044820152606490fd5b60405162461bcd60e51b8152602060048201526014602482015273496e76616c696420696e69746961746f7247494360601b6044820152606490fd5b60405162461bcd60e51b815260206004820152600c60248201526b4f726465722065786973747360a01b6044820152606490fd5b60405162461bcd60e51b815260206004820152601660248201527524b73b30b634b2103a3930b739b0b1ba34b7b72932b360511b6044820152606490fd5b5f546001600160a01b0316330361461757565b60405163118cdaa760e01b8152336004820152602490fd5b6146383361332e565b614701576001546040516349d0104160e11b815233600482015291905f90839060249082906001600160a01b03165afa918215610570575f926146e5575b50815180156146de576020830190812060405161469a816103b981600388016130cf565b60208151910120149283156146b0575b50505090565b6004929350906146ce91519020926103b960405180948193016130cf565b60208151910120145f80806146aa565b5050505f90565b6146fa9192503d805f833e6117b58183612653565b905f614676565b50600190565b1561470e57565b60405162461bcd60e51b815260206004820152601960248201527f476f6c644163636f756e744c6564676572206e6f7420736574000000000000006044820152606490fd5b8054821015612f1d575f5260205f2001905f90565b60025461477f906001600160a01b03161515614707565b6005810191604051614795816103b981876130cf565b602081519101209060068301916040516147b3816103b981876130cf565b6020815191012014614919575f5b60078401805482101561491157816147d891614753565b905460025460039290921b1c91906001600160a01b0316803b15610200575f604051809263303a694160e11b8252608060048301528183604061481f8d60848501906130cf565b821960248501526b1514905394d1915497d3d55560a21b60208583039260031984016044880152600c8152015289606485015201925af1801561057057614902575b506002546001600160a01b0316803b15610200576040805163303a694160e11b815260806004820152935f9285929091839185916148a2608485018c6130cf565b90600160248601526a2a2920a729a322a92fa4a760a91b60208684039360031985016044890152600b81520152606485015201925af1908115610570576007926001926148f3575b500190506147c1565b6148fc90612640565b5f6148ea565b61490b90612640565b5f614861565b505092505050565b92505050565b606090602081526015602082015274496e76616c696420737461747573206368616e676560581b60408201520190565b1561495657565b60405162461bcd60e51b81528061496f6004820161491f565b0390fd5b6006811015610b6b57600481146149c257600381146149fb57600581146149c55780156149c257600181146149c257600214612c415760405162461bcd60e51b81528061496f6004820161491f565b50565b60405162461bcd60e51b815260206004820152600e60248201526d105b1c9958591e4819985a5b195960921b6044820152606490fd5b60405162461bcd60e51b815260206004820152601060248201526f105b1c9958591e48195e1958dd5d195960821b6044820152606490fd5b6006811015610b6b57600581146149c257600381146149fb5760048114614a825780156149c257600181146149c257600214612c415760405162461bcd60e51b81528061496f6004820161491f565b60405162461bcd60e51b8152602060048201526011602482015270105b1c9958591e4818d85b98d95b1b1959607a1b6044820152606490fd5b90600681101580610b6b576006831015610b6b5781831461365357600383146149fb57600492838114614bf45760058114614bbf578015614b9d5760018114614b7857600214614b1d5760405162461bcd60e51b81528061496f81860161491f565b909181614b595760038314918215614b6c575b8215614b43575b5050612c41915061494f565b909150614b5957506005612c4191145f80614b37565b602190634e487b7160e01b5f525260245ffd5b5082811491505f614b30565b50909181614b595760028314918215614b6c578215614b43575050612c41915061494f565b5050905f9060018314918215614b6c578215614b43575050612c41915061494f565b60405162461bcd60e51b8152602081860152600e60248201526d105b1c9958591e4819985a5b195960921b6044820152606490fd5b60405162461bcd60e51b81526020818601526011602482015270105b1c9958591e4818d85b98d95b1b1959607a1b6044820152606490fdfea2646970667358221220a008017f16ac241cd6775701f745ec25a4f2a1d3dda181ca5799bd19b69d401a64736f6c63430008180033","linkReferences":{}},"methodIdentifiers":{"MEMBER_ACTIVE()":"4a680b42","ROLE_GMO()":"7589b7de","ROLE_MINTER()":"92afc33a","ROLE_ORDER_CREATOR()":"6fe54792","ROLE_REFINER()":"d0473a65","ROLE_TRADER()":"45eed0db","accountLedger()":"5defa55e","cancelOrder(string,string)":"04b5bf4f","counterparty()":"c3df6546","createOrder(string,string,uint8,string,string,uint256[],(string,uint256)[],string,string,uint256,uint256,string,string)":"2fdee1f3","executeOrder(string)":"d8224ea8","failOrder(string,string)":"e9e32947","getOrderDetails(string)":"4fbb487c","getOrderSignatures(string)":"ea9dc25d","getOrderStatus(string)":"aedfb5d3","goldAssetToken()":"ca698bc8","initiator()":"5c39fcc1","memberRegistry()":"a74d4772","minSignatures()":"238acaa2","owner()":"8da5cb5b","prepareOrder(string,string,uint8,string,string,string,string,uint256[],(string,uint256)[],string,string,uint256,uint256,bytes)":"08c17f30","renounceOwnership()":"715018a6","setExecutionOptions(bool,bool)":"db413d9e","setGoldAccountLedger(address)":"94ae772f","setGoldAssetToken(address)":"4fe5043d","setMemberRegistry(address)":"6fd7c34c","setMinSignatures(uint256)":"5a546098","signOrder(string,bytes,string)":"4b4555b1","transferAssetsOnExecute()":"8486bdc4","transferOwnership(address)":"f2fde38b","updateLedgerOnExecute()":"51d80ef3","updateOrderStatus(string,uint8,string)":"2f7554ac"},"id":8}