{"abi":[{"type":"constructor","inputs":[{"name":"_memberRegistry","type":"address","internalType":"address"}],"stateMutability":"nonpayable"},{"type":"function","name":"MEMBER_ACTIVE","inputs":[],"outputs":[{"name":"","type":"uint8","internalType":"uint8"}],"stateMutability":"view"},{"type":"function","name":"ROLE_GMO","inputs":[],"outputs":[{"name":"","type":"uint256","internalType":"uint256"}],"stateMutability":"view"},{"type":"function","name":"ROLE_MINTER","inputs":[],"outputs":[{"name":"","type":"uint256","internalType":"uint256"}],"stateMutability":"view"},{"type":"function","name":"ROLE_ORDER_CREATOR","inputs":[],"outputs":[{"name":"","type":"uint256","internalType":"uint256"}],"stateMutability":"view"},{"type":"function","name":"ROLE_REFINER","inputs":[],"outputs":[{"name":"","type":"uint256","internalType":"uint256"}],"stateMutability":"view"},{"type":"function","name":"ROLE_TRADER","inputs":[],"outputs":[{"name":"","type":"uint256","internalType":"uint256"}],"stateMutability":"view"},{"type":"function","name":"accountLedger","inputs":[],"outputs":[{"name":"","type":"address","internalType":"contract IGoldAccountLedger"}],"stateMutability":"view"},{"type":"function","name":"cancelOrder","inputs":[{"name":"txRef","type":"string","internalType":"string"},{"name":"reason","type":"string","internalType":"string"}],"outputs":[],"stateMutability":"nonpayable"},{"type":"function","name":"counterparty","inputs":[],"outputs":[{"name":"","type":"string","internalType":"string"}],"stateMutability":"view"},{"type":"function","name":"createOrder","inputs":[{"name":"transactionRef","type":"string","internalType":"string"},{"name":"transactionId","type":"string","internalType":"string"},{"name":"txType","type":"uint8","internalType":"enum TransactionOrderBook.TransactionType"},{"name":"initiatorGIC","type":"string","internalType":"string"},{"name":"counterpartyGIC","type":"string","internalType":"string"},{"name":"tokenIds","type":"uint256[]","internalType":"uint256[]"},{"name":"requestedAssets","type":"tuple[]","internalType":"struct TransactionOrderBook.RequestedAsset[]","components":[{"name":"goldProductTypeId","type":"string","internalType":"string"},{"name":"quantityGrams","type":"uint256","internalType":"uint256"}]},{"name":"valuationDate","type":"string","internalType":"string"},{"name":"valuationCurrency","type":"string","internalType":"string"},{"name":"transactionValue","type":"uint256","internalType":"uint256"},{"name":"expiresAt","type":"uint256","internalType":"uint256"},{"name":"senderIGAN","type":"string","internalType":"string"},{"name":"receiverIGAN","type":"string","internalType":"string"}],"outputs":[{"name":"txRef","type":"string","internalType":"string"}],"stateMutability":"nonpayable"},{"type":"function","name":"executeOrder","inputs":[{"name":"txRef","type":"string","internalType":"string"}],"outputs":[],"stateMutability":"nonpayable"},{"type":"function","name":"failOrder","inputs":[{"name":"txRef","type":"string","internalType":"string"},{"name":"reason","type":"string","internalType":"string"}],"outputs":[],"stateMutability":"nonpayable"},{"type":"function","name":"getOrderDetails","inputs":[{"name":"txRef","type":"string","internalType":"string"}],"outputs":[{"name":"order","type":"tuple","internalType":"struct TransactionOrderBook.TransactionOrder","components":[{"name":"transactionRef","type":"string","internalType":"string"},{"name":"transactionId","type":"string","internalType":"string"},{"name":"txType","type":"uint8","internalType":"enum TransactionOrderBook.TransactionType"},{"name":"status","type":"uint8","internalType":"enum TransactionOrderBook.TransactionStatus"},{"name":"initiatorGIC","type":"string","internalType":"string"},{"name":"counterpartyGIC","type":"string","internalType":"string"},{"name":"senderIGAN","type":"string","internalType":"string"},{"name":"receiverIGAN","type":"string","internalType":"string"},{"name":"tokenIds","type":"uint256[]","internalType":"uint256[]"},{"name":"requestedAssets","type":"tuple[]","internalType":"struct TransactionOrderBook.RequestedAsset[]","components":[{"name":"goldProductTypeId","type":"string","internalType":"string"},{"name":"quantityGrams","type":"uint256","internalType":"uint256"}]},{"name":"valuationDate","type":"string","internalType":"string"},{"name":"valuationCurrency","type":"string","internalType":"string"},{"name":"transactionValue","type":"uint256","internalType":"uint256"},{"name":"createdAt","type":"uint256","internalType":"uint256"},{"name":"expiresAt","type":"uint256","internalType":"uint256"},{"name":"executedAt","type":"uint256","internalType":"uint256"},{"name":"createdBy","type":"address","internalType":"address"}]}],"stateMutability":"view"},{"type":"function","name":"getOrderSignatures","inputs":[{"name":"txRef","type":"string","internalType":"string"}],"outputs":[{"name":"","type":"tuple[]","internalType":"struct TransactionOrderBook.Signature[]","components":[{"name":"signer","type":"address","internalType":"address"},{"name":"signerUserId","type":"string","internalType":"string"},{"name":"signerRole","type":"string","internalType":"string"},{"name":"signature","type":"bytes","internalType":"bytes"},{"name":"signedAt","type":"uint256","internalType":"uint256"}]}],"stateMutability":"view"},{"type":"function","name":"getOrderStatus","inputs":[{"name":"txRef","type":"string","internalType":"string"}],"outputs":[{"name":"","type":"uint8","internalType":"enum TransactionOrderBook.TransactionStatus"}],"stateMutability":"view"},{"type":"function","name":"goldAssetToken","inputs":[],"outputs":[{"name":"","type":"address","internalType":"contract IGoldAssetToken"}],"stateMutability":"view"},{"type":"function","name":"initiator","inputs":[],"outputs":[{"name":"","type":"string","internalType":"string"}],"stateMutability":"view"},{"type":"function","name":"memberRegistry","inputs":[],"outputs":[{"name":"","type":"address","internalType":"contract IMemberRegistryExtended"}],"stateMutability":"view"},{"type":"function","name":"minSignatures","inputs":[],"outputs":[{"name":"","type":"uint256","internalType":"uint256"}],"stateMutability":"view"},{"type":"function","name":"owner","inputs":[],"outputs":[{"name":"","type":"address","internalType":"address"}],"stateMutability":"view"},{"type":"function","name":"prepareOrder","inputs":[{"name":"txRef","type":"string","internalType":"string"},{"name":"senderIGAN","type":"string","internalType":"string"},{"name":"receiverIGAN","type":"string","internalType":"string"},{"name":"tokenIds","type":"uint256[]","internalType":"uint256[]"}],"outputs":[],"stateMutability":"nonpayable"},{"type":"function","name":"renounceOwnership","inputs":[],"outputs":[],"stateMutability":"nonpayable"},{"type":"function","name":"setExecutionOptions","inputs":[{"name":"_transferAssetsOnExecute","type":"bool","internalType":"bool"},{"name":"_updateLedgerOnExecute","type":"bool","internalType":"bool"}],"outputs":[],"stateMutability":"nonpayable"},{"type":"function","name":"setGoldAccountLedger","inputs":[{"name":"_accountLedger","type":"address","internalType":"address"}],"outputs":[],"stateMutability":"nonpayable"},{"type":"function","name":"setGoldAssetToken","inputs":[{"name":"_goldAssetToken","type":"address","internalType":"address"}],"outputs":[],"stateMutability":"nonpayable"},{"type":"function","name":"setMemberRegistry","inputs":[{"name":"_memberRegistry","type":"address","internalType":"address"}],"outputs":[],"stateMutability":"nonpayable"},{"type":"function","name":"setMinSignatures","inputs":[{"name":"_minSignatures","type":"uint256","internalType":"uint256"}],"outputs":[],"stateMutability":"nonpayable"},{"type":"function","name":"signOrder","inputs":[{"name":"txRef","type":"string","internalType":"string"},{"name":"signature","type":"bytes","internalType":"bytes"},{"name":"signerRole","type":"string","internalType":"string"}],"outputs":[],"stateMutability":"nonpayable"},{"type":"function","name":"transferAssetsOnExecute","inputs":[],"outputs":[{"name":"","type":"bool","internalType":"bool"}],"stateMutability":"view"},{"type":"function","name":"transferOwnership","inputs":[{"name":"newOwner","type":"address","internalType":"address"}],"outputs":[],"stateMutability":"nonpayable"},{"type":"function","name":"updateLedgerOnExecute","inputs":[],"outputs":[{"name":"","type":"bool","internalType":"bool"}],"stateMutability":"view"},{"type":"function","name":"updateOrderStatus","inputs":[{"name":"txRef","type":"string","internalType":"string"},{"name":"newStatus","type":"uint8","internalType":"enum TransactionOrderBook.TransactionStatus"},{"name":"reason","type":"string","internalType":"string"}],"outputs":[],"stateMutability":"nonpayable"},{"type":"event","name":"OrderCancelled","inputs":[{"name":"transactionRef","type":"string","indexed":true,"internalType":"string"},{"name":"reason","type":"string","indexed":false,"internalType":"string"},{"name":"timestamp","type":"uint256","indexed":false,"internalType":"uint256"}],"anonymous":false},{"type":"event","name":"OrderCreated","inputs":[{"name":"transactionRef","type":"string","indexed":true,"internalType":"string"},{"name":"transactionId","type":"string","indexed":false,"internalType":"string"},{"name":"txType","type":"uint8","indexed":false,"internalType":"enum TransactionOrderBook.TransactionType"},{"name":"initiatorGIC","type":"string","indexed":false,"internalType":"string"},{"name":"counterpartyGIC","type":"string","indexed":false,"internalType":"string"},{"name":"requestedAssetCount","type":"uint256","indexed":false,"internalType":"uint256"},{"name":"valuationCurrency","type":"string","indexed":false,"internalType":"string"},{"name":"transactionValue","type":"uint256","indexed":false,"internalType":"uint256"},{"name":"status","type":"uint8","indexed":false,"internalType":"enum TransactionOrderBook.TransactionStatus"},{"name":"timestamp","type":"uint256","indexed":false,"internalType":"uint256"},{"name":"expiresAt","type":"uint256","indexed":false,"internalType":"uint256"}],"anonymous":false},{"type":"event","name":"OrderExecuted","inputs":[{"name":"transactionRef","type":"string","indexed":true,"internalType":"string"},{"name":"tokenCount","type":"uint256","indexed":false,"internalType":"uint256"},{"name":"timestamp","type":"uint256","indexed":false,"internalType":"uint256"}],"anonymous":false},{"type":"event","name":"OrderExpired","inputs":[{"name":"transactionRef","type":"string","indexed":true,"internalType":"string"},{"name":"timestamp","type":"uint256","indexed":false,"internalType":"uint256"}],"anonymous":false},{"type":"event","name":"OrderFailed","inputs":[{"name":"transactionRef","type":"string","indexed":true,"internalType":"string"},{"name":"reason","type":"string","indexed":false,"internalType":"string"},{"name":"timestamp","type":"uint256","indexed":false,"internalType":"uint256"}],"anonymous":false},{"type":"event","name":"OrderPrepared","inputs":[{"name":"transactionRef","type":"string","indexed":true,"internalType":"string"},{"name":"tokenCount","type":"uint256","indexed":false,"internalType":"uint256"},{"name":"timestamp","type":"uint256","indexed":false,"internalType":"uint256"}],"anonymous":false},{"type":"event","name":"OrderSigned","inputs":[{"name":"transactionRef","type":"string","indexed":true,"internalType":"string"},{"name":"signer","type":"address","indexed":true,"internalType":"address"},{"name":"signerUserId","type":"string","indexed":false,"internalType":"string"},{"name":"signerRole","type":"string","indexed":false,"internalType":"string"},{"name":"signaturesCollected","type":"uint256","indexed":false,"internalType":"uint256"},{"name":"signaturesRequired","type":"uint256","indexed":false,"internalType":"uint256"},{"name":"timestamp","type":"uint256","indexed":false,"internalType":"uint256"}],"anonymous":false},{"type":"event","name":"OwnershipTransferred","inputs":[{"name":"previousOwner","type":"address","indexed":true,"internalType":"address"},{"name":"newOwner","type":"address","indexed":true,"internalType":"address"}],"anonymous":false},{"type":"error","name":"OwnableInvalidOwner","inputs":[{"name":"owner","type":"address","internalType":"address"}]},{"type":"error","name":"OwnableUnauthorizedAccount","inputs":[{"name":"account","type":"address","internalType":"address"}]}],"bytecode":{"object":"0x6080346200012657601f62004ddc38819003918201601f19168301916001600160401b038311848410176200012a578084926020946040528339810103126200012657516001600160a01b0380821691829003620001265733156200010e575f549060018060a01b03199133838216175f55604051913391167f8be0079c531659141344cd1fd0a4f28419497f9722a3daafe3b4186f6b6457e05f80a3600260045561ffff19600554166005558215620000cc57506001541617600155604051614c9d90816200013f8239f35b62461bcd60e51b815260206004820152601660248201527f496e76616c6964204d656d6265725265676973747279000000000000000000006044820152606490fd5b604051631e4fbdf760e01b81525f6004820152602490fd5b5f80fd5b634e487b7160e01b5f52604160045260245ffdfe60806040526004361015610011575f80fd5b5f3560e01c806304b5bf4f1461259f578063169502f614612494578063238acaa2146124775780632f7554ac146123915780632fdee1f314610f8e57806345eed0db14610f725780634a680b42146105ab5780634b4555b114610e6f5780634fbb487c146109755780634fe5043d1461093057806351d80ef31461090b5780635a546098146108a55780635c39fcc11461088a5780635defa55e146108625780636fd7c34c146107d95780636fe54792146107bd578063715018a6146107665780637589b7de1461074b5780638486bdc4146107295780638da5cb5b1461070257806392afc33a146106e757806394ae772f146106a2578063a74d47721461067a578063aedfb5d314610621578063c3df6546146105ee578063ca698bc8146105c6578063d0473a65146105ab578063d8224ea8146104ed578063db413d9e1461049c578063e9e32947146103f0578063ea9dc25d146102045763f2fde38b14610179575f80fd5b34610200576020366003190112610200576004356001600160a01b0381811691829003610200576101a86145f4565b81156101e8575f54826001600160601b0360a01b8216175f55167f8be0079c531659141344cd1fd0a4f28419497f9722a3daafe3b4186f6b6457e05f80a3005b604051631e4fbdf760e01b81525f6004820152602490fd5b5f80fd5b3461020057602080600319360112610200576004356001600160401b038111610200578161023961027a923690600401612715565b60405190610269600c82519385818186019661025681838a6127ed565b810160068152030190200154151561290e565b6040519384928392519283916127ed565b810160078152030190209081549161029183612776565b9261029f60405194856126a3565b80845282840180925f52835f205f915b8383106103655750505050604051918083019381845251809452604083019360408160051b85010192915f955b8287106102e95785850386f35b909192938280600192603f1989820301855287519061034b61033861032660a0888060a01b0386511685528686015190808887015285019061280e565b6040850151848203604086015261280e565b606080850151908483039085015261280e565b9160808091015191015296019201960195929190926102dc565b60058660019260409998995161037a81612675565b848060a01b03865416815260405161039f8161039881898b01612f2e565b03826126a3565b838201526040516103b7816103988160028b01612f2e565b60408201526040516103d0816103988160038b01612f2e565b6060820152600486015460808201528152019201920191909594956102af565b3461020057602461040036612733565b60015460405163fe575a8760e01b81523360048201529391929160209185919082906001600160a01b03165afa928315610491575f93610450575b5061044961044e93156128a7565b6135d3565b005b92506020833d602011610489575b8161046b602093836126a3565b810103126102005761044961048261044e9461289a565b935061043b565b3d915061045e565b6040513d5f823e3d90fd5b346102005760403660031901126102005760043580151580910361020057602435801515809103610200576104cf6145f4565b60ff61ff006005549260081b1692169061ffff191617176005555f80f35b34610200576020366003190112610200576004356001600160401b0381116102005761051f6024913690600401612715565b60015460405163fe575a8760e01b81523360048201529260209184919082906001600160a01b03165afa918215610491575f9261056a575b5061056561044e92156128a7565b612fcb565b91506020823d6020116105a3575b81610585602093836126a3565b810103126102005761056561059c61044e9361289a565b9250610557565b3d9150610578565b34610200575f36600319011261020057602060405160018152f35b34610200575f366003190112610200576003546040516001600160a01b039091168152602090f35b34610200575f3660031901126102005761061d610609612872565b60405191829160208352602083019061280e565b0390f35b34610200576020366003190112610200576004356001600160401b0381116102005760ff600261065b602061023981953690600401612715565b81016006815203019020015460081c166106786040518092612840565bf35b34610200575f366003190112610200576001546040516001600160a01b039091168152602090f35b34610200576020366003190112610200576004356001600160a01b03811690819003610200576106d06145f4565b6001600160601b0360a01b60025416176002555f80f35b34610200575f36600319011261020057602060405160028152f35b34610200575f366003190112610200575f546040516001600160a01b039091168152602090f35b34610200575f36600319011261020057602060ff600554166040519015158152f35b34610200575f36600319011261020057602060405160c08152f35b34610200575f3660031901126102005761077e6145f4565b5f80546001600160a01b0319811682556001600160a01b03167f8be0079c531659141344cd1fd0a4f28419497f9722a3daafe3b4186f6b6457e08280a3005b34610200575f3660031901126102005760206040516101c38152f35b34610200576020366003190112610200576004356001600160a01b03811690819003610200576108076145f4565b8015610824576001600160601b0360a01b60015416176001555f80f35b60405162461bcd60e51b8152602060048201526016602482015275496e76616c6964204d656d626572526567697374727960501b6044820152606490fd5b34610200575f366003190112610200576002546040516001600160a01b039091168152602090f35b34610200575f3660031901126102005761061d61060961284d565b34610200576020366003190112610200576004356108c16145f4565b600281036108ce57600455005b60405162461bcd60e51b8152602060048201526015602482015274496e76616c6964206d696e5369676e61747572657360581b6044820152606490fd5b34610200575f36600319011261020057602060ff60055460081c166040519015158152f35b34610200576020366003190112610200576004356001600160a01b038116908190036102005761095e6145f4565b6001600160601b0360a01b60035416176003555f80f35b34610200576020366003190112610200576004356001600160401b0381116102005760206109aa610a47923690600401612715565b5f6102006040516109ba81612659565b6060815260608582015282604082015282606082015260606080820152606060a0820152606060c0820152606060e0820152606061010082015260606101208201526060610140820152606061016082015282610180820152826101a0820152826101c0820152826101e0820152015260405190610269600c82519385818186019661025681838a6127ed565b8101600681520301902060405190610a5e82612659565b604051610a6f816103988185612f2e565b8252604051610a85816103988160018601612f2e565b60208301526002810154610a9f60ff821660408501612fbf565b600860ff82821c161015610e5b5760081c60ff166060830152604051610acc816103988160038601612f2e565b6080830152604051610ae5816103988160048601612f2e565b60a0830152604051610afe816103988160058601612f2e565b60c0830152604051610b17816103988160068601612f2e565b60e083015260078101604051808260208294549384815201905f5260205f20925f5b818110610e42575050610b4e925003826126a3565b6101008301526008810154610b6281612776565b90610b7060405192836126a3565b80825260208201600884015f5260205f205f915b838310610e065750505050610120830152604051610ba9816103988160098601612f2e565b610140830152604051610bc38161039881600a8601612f2e565b610160830152600b810154610180830152600c8101546101a0830152600d8101546101c0830152600e8101546101e0830152600f60018060a01b039101541661020082015260405160208152610cc9610cb2610c9c610c86610c4c610c368751610220602089015261024088019061280e565b6020880151878203601f1901604089015261280e565b610c5e60408801516060880190612833565b610c7060608801516080880190612840565b6080870151868203601f190160a088015261280e565b60a0860151858203601f190160c087015261280e565b60c0850151848203601f190160e086015261280e565b60e0840151838203601f190161010085015261280e565b9161010081015192601f1983820301610120840152602080855192838152019401905f5b818110610df05750505061012081015192601f1983820301610140840152835180825260208201916020808360051b8301019601925f915b838310610daf57868087610d66610d4e8c610140840151601f198683030161016087015261280e565b610160830151848203601f190161018086015261280e565b906101808101516101a08401526101a08101516101c08401526101c08101516101e08401526101e081015161020084015261020060018060a01b03910151166102208301520390f35b9091929396602080600192601f198582030186528a51908280610ddb845160408552604085019061280e565b93015191015299019301930191939290610d25565b8251865260209586019590920191600101610ced565b60026020600192604051610e198161263e565b604051610e2a81610398818a612f2e565b81528486015483820152815201920192019190610b84565b8454835260019485019486945060209093019201610b39565b634e487b7160e01b5f52602160045260245ffd5b34610200576060366003190112610200576001600160401b0360043581811161020057610ea0903690600401612715565b602435828111610200573660238201121561020057610ec99036906024816004013591016126df565b60443592831161020057610ee36024933690600401612715565b60015460405163fe575a8760e01b81523360048201529491939160209186919082906001600160a01b03165afa938415610491575f94610f31575b50610f2c61044e94156128a7565b613e28565b93506020843d602011610f6a575b81610f4c602093836126a3565b8101031261020057610f2c610f6361044e9561289a565b9450610f1e565b3d9150610f3f565b34610200575f3660031901126102005760206040516101008152f35b34610200576101a0366003190112610200576004356001600160401b03811161020057610fbf903690600401612715565b6024356001600160401b03811161020057610fde903690600401612715565b60046044351015610200576064356001600160401b03811161020057611008903690600401612715565b916084356001600160401b03811161020057611028903690600401612715565b9060a4356001600160401b0381116102005761104890369060040161278d565b936001600160401b0360c435116102005736602360c4350112156102005760c435600401359361107785612776565b9461108560405196876126a3565b80865260208601903660248260051b60c43501011161020057602460c43501915b60248260051b60c4350101831061231f5750505060e4356001600160401b038111610200576110d9903690600401612715565b6001600160401b036101043511610200576110fa3661010435600401612715565b90610164356001600160401b0381116102005761111b903690600401612715565b90610184356001600160401b0381116102005761113c903690600401612715565b60015460405163fe575a8760e01b81523360048201526001600160a01b039091169a91906020816024818f5afa8015610491575f906122e4575b6111819150156128a7565b604051638cbdcead60e01b81523360048201526101c360248201526020816044818f5afa908115610491575f916122aa575b5015612251576040516349d0104160e11b81523360048201525f816024818f5afa908115610491575f9161222f575b506111ec33613988565b908115612203575b50156121ce5761120684511515612989565b611212815115156129ca565b61121e82511515612aa0565b6112288185613c71565b8588511561219057600c61124b60208b81604051938285809451938492016127ed565b81016006815203019020015461215c57875115612120578951156120db578a51156120965783511561205957855115612021575f5b8b5181101561132b57611293818d613de7565b515151156112ef5760206112a7828e613de7565b510151156112b757600101611280565b60405162461bcd60e51b815260206004820152601060248201526f496e76616c6964207175616e7469747960801b6044820152606490fd5b60405162461bcd60e51b8152602060048201526014602482015273496e76616c69642070726f64756374207479706560601b6044820152606490fd5b50604051638e690fc560e01b81526020600482018190528c9695949392918e91818061135a602482018f61280e565b0381855afa9081156104915760019160ff915f91612002575b501603611fc65760208c6113a3926040518080958194638e690fc560e01b8352866004840152602483019061280e565b03915afa9081156104915760019160ff915f91611f97575b501603611f525761014435611f0f575b5115611f07575b604051936113df85612659565b8985528760208601526113f760443560408701612fbf565b600160608601528860808601528a60a086015260c085015260e0840152610100830152826101208301526101408201528261016082015261012435610180820152426101a0820152610144356101c08201525f6101e082015233610200820152604051602081885161146c8183858d016127ed565b8101600681520301902081518051906001600160401b038211611a275761149d826114978554612a0d565b85612a5b565b602090601f8311600114611e9f576114cc92915f9183611a3b575b50508160011b915f199060031b1c19161790565b81555b60208201518051906001600160401b038211611a27576114ff826114f66001860154612a0d565b60018601612a5b565b602090601f8311600114611e315761152d92915f9183611a3b5750508160011b915f199060031b1c19161790565b60018201555b60408201516004811015610e5b5760ff8019600284015416911617600282015560608201516008811015610e5b5761156e9060028301612adf565b60808201518051906001600160401b038211611a275761159e826115956003860154612a0d565b60038601612a5b565b602090601f8311600114611dc3576115cc92915f9183611a3b5750508160011b915f199060031b1c19161790565b60038201555b60a08201518051906001600160401b038211611a2757611602826115f96004860154612a0d565b60048601612a5b565b602090601f8311600114611d555761163092915f9183611a3b5750508160011b915f199060031b1c19161790565b60048201555b60c08201518051906001600160401b038211611a27576116668261165d6005860154612a0d565b60058601612a5b565b602090601f8311600114611ce75761169492915f9183611a3b5750508160011b915f199060031b1c19161790565b60058201555b60e08201518051906001600160401b038211611a27576116ca826116c16006860154612a0d565b60068601612a5b565b602090601f8311600114611c79576116f892915f9183611a3b5750508160011b915f199060031b1c19161790565b60068201555b6101008201518051906001600160401b038211611a2757600160401b8211611a27576020906007840154836007860155808410611c5b575b5001600783015f5260205f205f5b838110611c475750505050610120820151805190600160401b8211611a27576008830154826008850155808310611b99575b5060200190600883015f5260205f205f925b828410611ab457505050506101408201518051906001600160401b038211611a27576117c4826117bb6009860154612a0d565b60098601612a5b565b602090601f8311600114611a46576117f292915f9183611a3b5750508160011b915f199060031b1c19161790565b60098201555b6101608201518051906001600160401b038211611a275761182982611820600a860154612a0d565b600a8601612a5b565b602090601f8311600114611986579461194394600f61061d9c9561188d866119059b97611930977f5dc77ee73a49d59f8fc5273aea5b470ff7bd538af410d595b968cfe3d0df4d009e9c5f9261197b5750508160011b915f199060031b1c19161790565b600a8201555b610180830151600b8201556101a0830151600c8201556101c0830151600d8201556101e0830151600e820155019061020060018060a01b03910151166001600160601b0360a01b82541617905551926119226118ee8b612afe565b996040519889986101408a526101408a019061280e565b9061191560208a01604435612833565b88820360408a015261280e565b90868203606088015261280e565b91608085015283820360a085015261280e565b6101243560c0830152600160e083015242610100830152610144356101208301520390a260405191829160208352602083019061280e565b015190505f806114b8565b90600a84015f5260205f20915f5b601f1985168110611a0f575094600f61061d9c95600186611930967f5dc77ee73a49d59f8fc5273aea5b470ff7bd538af410d595b968cfe3d0df4d009d9b966119439b6119059e9a601f198116106119f7575b505050811b01600a820155611893565b01515f1960f88460031b161c191690555f80806119e7565b91926020600181928685015181550194019201611994565b634e487b7160e01b5f52604160045260245ffd5b015190508b806114b8565b9190600984015f5260205f20905f935b601f1984168510611a99576001945083601f19811610611a81575b505050811b0160098201556117f8565b01515f1960f88460031b161c191690558a8080611a71565b81810151835560209485019460019093019290910190611a56565b805180518051906001600160401b038211611a2757611add82611ad78754612a0d565b87612a5b565b602090601f8311600114611b2a57600293611b15846020956001989587955f9261197b5750508160011b915f199060031b1c19161790565b87555b01518486015501920193019290611788565b90855f5260205f20915f5b601f1985168110611b81575093600184819794602096946002988896601f19811610611b69575b505050811b018755611b18565b01515f1960f88460031b161c191690555f8080611b5c565b91926020600181928685015181550194019201611b35565b6001600160ff1b038181168203611c335783168303611c3357600884015f5260205f208360011b81015b8260011b82018110611bd6575050611776565b80611be360029254612a0d565b80611bf6575b505f600182015501611bc3565b601f8111600114611c0c57505f81555b8e611be9565b5f90828252611c2a601f60208420920160051c820160018301612a45565b81835555611c06565b634e487b7160e01b5f52601160045260245ffd5b600190602084519401938184015501611744565b611c7390600786015f5284845f209182019101612a45565b8b611736565b9190600684015f5260205f20905f935b601f1984168510611ccc576001945083601f19811610611cb4575b505050811b0160068201556116fe565b01515f1960f88460031b161c191690558a8080611ca4565b81810151835560209485019460019093019290910190611c89565b9190600584015f5260205f20905f935b601f1984168510611d3a576001945083601f19811610611d22575b505050811b01600582015561169a565b01515f1960f88460031b161c191690558a8080611d12565b81810151835560209485019460019093019290910190611cf7565b9190600484015f5260205f20905f935b601f1984168510611da8576001945083601f19811610611d90575b505050811b016004820155611636565b01515f1960f88460031b161c191690558a8080611d80565b81810151835560209485019460019093019290910190611d65565b9190600384015f5260205f20905f935b601f1984168510611e16576001945083601f19811610611dfe575b505050811b0160038201556115d2565b01515f1960f88460031b161c191690558a8080611dee565b81810151835560209485019460019093019290910190611dd3565b9190600184015f5260205f20905f935b601f1984168510611e84576001945083601f19811610611e6c575b505050811b016001820155611533565b01515f1960f88460031b161c191690558a8080611e5c565b81810151835560209485019460019093019290910190611e41565b9190835f5260205f20905f935b601f1984168510611eec576001945083601f19811610611ed4575b505050811b0181556114cf565b01515f1960f88460031b161c191690558a8080611ec7565b81810151835560209485019460019093019290910190611eac565b8896506113d2565b4261014435116113cb5760405162461bcd60e51b8152602060048201526011602482015270125b9d985b1a5908195e1c1a5c995cd05d607a1b6044820152606490fd5b60405162461bcd60e51b815260206004820152601760248201527f436f756e7465727061727479206e6f74206163746976650000000000000000006044820152606490fd5b611fb9915060203d602011611fbf575b611fb181836126a3565b810190613e0f565b8e6113bb565b503d611fa7565b60405162461bcd60e51b8152602060048201526014602482015273496e69746961746f72206e6f742061637469766560601b6044820152606490fd5b61201b915060203d602011611fbf57611fb181836126a3565b8f611373565b60405162461bcd60e51b815260206004820152601060248201526f496e76616c69642063757272656e637960801b6044820152606490fd5b60405162461bcd60e51b8152602060048201526015602482015274496e76616c69642076616c756174696f6e4461746560581b6044820152606490fd5b60405162461bcd60e51b815260206004820152601860248201527f4d697373696e67207265717565737465642061737365747300000000000000006044820152606490fd5b60405162461bcd60e51b815260206004820152601760248201527f496e76616c696420636f756e74657270617274794749430000000000000000006044820152606490fd5b60405162461bcd60e51b8152602060048201526014602482015273496e76616c696420696e69746961746f7247494360601b6044820152606490fd5b60405162461bcd60e51b815260206004820152600c60248201526b4f726465722065786973747360a01b6044820152606490fd5b60405162461bcd60e51b815260206004820152601660248201527524b73b30b634b2103a3930b739b0b1ba34b7b72932b360511b6044820152606490fd5b60405162461bcd60e51b815260206004820152600d60248201526c2737ba1034b734ba34b0ba37b960991b6044820152606490fd5b809150518015159182612219575b50508c6111f4565b6020919250012087516020890120148c80612211565b61224b91503d805f833e61224381836126a3565b810190612f09565b8c6111e2565b60405162461bcd60e51b815260206004820152602b60248201527f4e6f7420617574686f72697a65643a206f726465722063726561746f7220726f60448201526a1b19481c995c5d5a5c995960aa1b6064820152608490fd5b90506020813d6020116122dc575b816122c5602093836126a3565b81010312610200576122d69061289a565b8c6111b3565b3d91506122b8565b506020813d602011612317575b816122fe602093836126a3565b81010312610200576123126111819161289a565b611176565b3d91506122f1565b82356001600160401b0381116102005760c435019060406023198336030112610200576040519161234f8361263e565b6024810135916001600160401b0383116102005760249360446020949361237c8695883691840101612715565b835201358382015281520193019290506110a6565b34610200576060366003190112610200576001600160401b03600435818111610200576123c2903690600401612715565b602435600881101561020057604435928311610200576123e86024933690600401612715565b60015460405163fe575a8760e01b81523360048201529491939160209186919082906001600160a01b03165afa938415610491575f94612436575b5061243161044e94156128a7565b613690565b93506020843d60201161246f575b81612451602093836126a3565b810103126102005761243161246861044e9561289a565b9450612423565b3d9150612444565b34610200575f366003190112610200576020600454604051908152f35b34610200576080366003190112610200576001600160401b03600435818111610200576124c5903690600401612715565b602435828111610200576124dd903690600401612715565b604435838111610200576124f5903690600401612715565b9060643593841161020057612510602494369060040161278d565b60015460405163fe575a8760e01b81523360048201529591949160209187919082906001600160a01b03165afa948515610491575f9561255e575b5061255961044e95156128a7565b612b1e565b94506020853d602011612597575b81612579602093836126a3565b810103126102005761255961259061044e9661289a565b955061254b565b3d915061256c565b346102005760246125af36612733565b60015460405163fe575a8760e01b81523360048201529391929160209185919082906001600160a01b03165afa928315610491575f936125fd575b506125f861044e93156128a7565b6134b3565b92506020833d602011612636575b81612618602093836126a3565b81010312610200576125f861262f61044e9461289a565b93506125ea565b3d915061260b565b604081019081106001600160401b03821117611a2757604052565b61022081019081106001600160401b03821117611a2757604052565b60a081019081106001600160401b03821117611a2757604052565b6001600160401b038111611a2757604052565b90601f801991011681019081106001600160401b03821117611a2757604052565b6001600160401b038111611a2757601f01601f191660200190565b9291926126eb826126c4565b916126f960405193846126a3565b829481845281830111610200578281602093845f960137010152565b9080601f8301121561020057816020612730933591016126df565b90565b906040600319830112610200576001600160401b03600435818111610200578361275f91600401612715565b926024359182116102005761273091600401612715565b6001600160401b038111611a275760051b60200190565b9080601f830112156102005760209082356127a781612776565b936127b560405195866126a3565b81855260208086019260051b82010192831161020057602001905b8282106127de575050505090565b813581529083019083016127d0565b5f5b8381106127fe5750505f910152565b81810151838201526020016127ef565b90602091612827815180928185528580860191016127ed565b601f01601f1916010190565b906004821015610e5b5752565b906008821015610e5b5752565b6040519061285a8261263e565b600982526834b734ba34b0ba37b960b91b6020830152565b6040519061287f8261263e565b600c82526b636f756e746572706172747960a01b6020830152565b5190811515820361020057565b156128ae57565b60405162461bcd60e51b815260206004820152601260248201527110d85b1b195c88189b1858dadb1a5cdd195960721b6044820152606490fd5b6020906129029282604051948386809551938492016127ed565b82019081520301902090565b1561291557565b60405162461bcd60e51b815260206004820152600f60248201526e13dc99195c881b9bdd08199bdd5b99608a1b6044820152606490fd5b1561295357565b60405162461bcd60e51b815260206004820152600e60248201526d139bdd08185d5d1a1bdc9a5e995960921b6044820152606490fd5b1561299057565b60405162461bcd60e51b815260206004820152601260248201527124b73b30b634b21039b2b73232b924a3a0a760711b6044820152606490fd5b156129d157565b60405162461bcd60e51b815260206004820152601460248201527324b73b30b634b2103932b1b2b4bb32b924a3a0a760611b6044820152606490fd5b90600182811c92168015612a3b575b6020831014612a2757565b634e487b7160e01b5f52602260045260245ffd5b91607f1691612a1c565b818110612a50575050565b5f8155600101612a45565b9190601f8111612a6a57505050565b612a94925f5260205f20906020601f840160051c83019310612a96575b601f0160051c0190612a45565b565b9091508190612a87565b15612aa757565b60405162461bcd60e51b815260206004820152601060248201526f4d697373696e6720746f6b656e49647360801b6044820152606490fd5b906008811015610e5b5761ff0082549160081b169061ff001916179055565b612b16906020604051928284809451938492016127ed565b810103902090565b919290926040519384845160209681612b3b899383858b016127ed565b8101600681520301902092612b55600c850154151561290e565b612b66612b61856138b0565b61294c565b612b6f33613988565b15612e8257612b7d84613a02565b612e7357600284019260ff845460081c166008811015610e5b57612e3d57612ba783511515612989565b612bb3815115156129ca565b60058501928051936001600160401b0394858111611a2757612bdf81612bd98454612a0d565b84612a5b565b89601f8211600114612ddd579080612c0b925f91612dd2575b508160011b915f199060031b1c19161790565b90555b600686018251858111611a2757612c2981612bd98454612a0d565b89601f8211600114612d6c5781612c6195949392612c5a925f91612d6157508160011b915f199060031b1c19161790565b9055613c71565b805115612d215760078401908051928311611a2757600160401b8311611a275786908254848455808510612d06575b5001905f52855f205f5b838110612cf4575050505091612ce660076040937ff606eb498f9a8bbf794e211a74a20fba192f8ad17ef6f358423d0f4a42bbaebf955b805461ff001916610100179055015491612afe565b9382519182524290820152a2565b82518282015591870191600101612c9a565b612d1b90845f5285845f209182019101612a45565b5f612c90565b505091612ce66007837ff606eb498f9a8bbf794e211a74a20fba192f8ad17ef6f358423d0f4a42bbaebf95612d5c8360409701541515612aa0565b612cd1565b90508501515f612bf8565b601f19821690835f528b5f20915f5b8d828210612dbc575050918391612c619796959460019410612da4575b5050811b019055613c71565b8601515f1960f88460031b161c191690555f80612d98565b600184958293958b015181550194019201612d7b565b90508401515f612bf8565b601f19821690835f528b5f20915f5b8d828210612e275750509083600194939210612e0f575b5050811b019055612c0e565b8501515f1960f88460031b161c191690555f80612e03565b600184958293958a015181550194019201612dec565b60405162461bcd60e51b815260048101889052600e60248201526d496e76616c69642073746174757360901b6044820152606490fd5b5050509050612a949150613a16565b60405162461bcd60e51b815260048101879052601c60248201527f4e6f7420617574686f72697a65643a20474d4f207265717569726564000000006044820152606490fd5b81601f82011215610200578051612edd816126c4565b92612eeb60405194856126a3565b818452602082840101116102005761273091602080850191016127ed565b906020828203126102005781516001600160401b038111610200576127309201612ec7565b80545f9392612f3c82612a0d565b918282526020936001916001811690815f14612fa05750600114612f62575b5050505050565b90939495505f92919252835f2092845f945b838610612f8c57505050500101905f80808080612f5b565b805485870183015294019385908201612f74565b60ff19168685015250505090151560051b010191505f80808080612f5b565b6004821015610e5b5752565b6040516020818351612fe081838588016127ed565b81016006815203019020612ff9600c820154151561290e565b613005612b61826138b0565b61300e81613a02565b6134a95760ff600282015460081c166008811015610e5b57600203613478576005810161303b8154612a0d565b1561343e5761304d6006830154612a0d565b156134025761306160078301541515612aa0565b60ff600554166130e0575b5060406130c360077ff236a289260b80b8f670f639c87bc95b2efa9286807681fea2d11b9959b1f0df9360ff60055460081c166130d2575b60028101805461ff00191661040017905542600e820155015493612afe565b928151908152426020820152a2565b6130db81614680565b6130a4565b6003549091906001600160a01b0316156133c457613132935f60018060a01b03600254169361311085151561461f565b604051809781926302f8780d60e31b8352602060048401526024830190612f2e565b0381865afa948515610491575f956133a8575b505f60405180946302f8780d60e31b825260206004830152818061316f6024820160068901612f2e565b03915afa928315610491575f93613384575b5060408501516001600160a01b0316156133465760408301516001600160a01b031615613301575f5b60078301548110156132f5576131c3816007850161466b565b90549060031b1c9060018060a01b036003541660405163e7e5529560e01b8152836004820152602081602481855afa908115610491575f916132bb575b5061328757604088810151908701516001600160a01b0391821692911690803b15610200575f928360c4926040519788958694637921219560e11b86526004860152602485015260448401526001606484015260a060848401528160a48401525af191821561049157600192613278575b50016131aa565b61328190612690565b5f613271565b60405162461bcd60e51b815260206004820152600c60248201526b105cdcd95d081b1bd8dad95960a21b6044820152606490fd5b90506020813d6020116132ed575b816132d6602093836126a3565b81010312610200576132e79061289a565b5f613200565b3d91506132c9565b5093509050604061306c565b60405162461bcd60e51b815260206004820152601860248201527f496e76616c6964207265636569766572206164647265737300000000000000006044820152606490fd5b60405162461bcd60e51b8152602060048201526016602482015275496e76616c69642073656e646572206164647265737360501b6044820152606490fd5b6133a19193503d805f833e61339981836126a3565b810190613b3c565b915f613181565b6133bd9195503d805f833e61339981836126a3565b935f613145565b60405162461bcd60e51b815260206004820152601660248201527511dbdb19105cdcd95d151bdad95b881b9bdd081cd95d60521b6044820152606490fd5b60405162461bcd60e51b815260206004820152601460248201527326b4b9b9b4b733903932b1b2b4bb32b924a3a0a760611b6044820152606490fd5b60405162461bcd60e51b815260206004820152601260248201527126b4b9b9b4b7339039b2b73232b924a3a0a760711b6044820152606490fd5b60405162461bcd60e51b81526020600482015260096024820152684e6f7420726561647960b81b6044820152606490fd5b612a949150613a16565b60405160208183516134c881838588016127ed565b810160068152030190206134e1600c820154151561290e565b6134ea816138b0565b80156135bf575b6134fa9061294c565b61350381613a02565b6135b357600201805461351b60ff8260081c1661488b565b83511561357c5761ff0019166105001790557f97a94f0cddc66a7e07e262bdc7528eb7b2b3428993c96bf38277a092b0d2ff59906135719061355c90612afe565b9260405191829160408352604083019061280e565b4260208301520390a2565b60405162461bcd60e51b815260206004820152600f60248201526e1499585cdbdb881c995c5d5a5c9959608a1b6044820152606490fd5b9050612a949150613a16565b506134fa6135cc33613988565b90506134f1565b60405160208183516135e881838588016127ed565b81016006815203019020613601600c820154151561290e565b61360a816138b0565b801561367c575b61361a9061294c565b61362381613a02565b6135b357600201805461363b60ff8260081c16614992565b83511561357c5761ff0019166106001790557f02e9305cecf09be907ffd0503eb73fcbe81d21bca8403188cbcc53e4387d9dc9906135719061355c90612afe565b5061361a61368933613988565b9050613611565b9091604092835191828451602094816136ad879383858b016127ed565b810160068152030190206136c6600c820154151561290e565b6136cf816138b0565b801561389c575b6136df9061294c565b6136e881613a02565b61388d5760028101906137028460ff845460081c16614a2a565b600884101580610e5b5760058514928584801561387d575b613839575b61372891612adf565b610e5b57600484146137fb57506137cd5760068214613780575060071461374e57505050565b6137787f5da0b3b746494475793fa5c0dd54bda0289c9a77fff226ccdc1848e862cd42d592612afe565b9251428152a2565b919390506137ae7f02e9305cecf09be907ffd0503eb73fcbe81d21bca8403188cbcc53e4387d9dc993612afe565b936137c2825193838594855284019061280e565b9042908301520390a2565b919390506137ae7f97a94f0cddc66a7e07e262bdc7528eb7b2b3428993c96bf38277a092b0d2ff5993612afe565b7ff236a289260b80b8f670f639c87bc95b2efa9286807681fea2d11b9959b1f0df959350612ce692506007915095939542600e820155015491612afe565b50845115613847578561371f565b885162461bcd60e51b815260048101889052600f60248201526e1499585cdbdb881c995c5d5a5c9959608a1b6044820152606490fd5b505090505f90856006811461371a565b9350505050612a949150613a16565b506136df6138a933613988565b90506136d6565b6138b933613988565b613982576001546040516349d0104160e11b815233600482015291905f90839060249082906001600160a01b03165afa918215610491575f92613966575b508151801561395f576020830190812060405161391b816103988160038801612f2e565b6020815191012014928315613931575b50505090565b60049293509061394f91519020926103986040518094819301612f2e565b60208151910120145f808061392b565b5050505f90565b61397b9192503d805f833e61224381836126a3565b905f6138f7565b50600190565b600154604051638cbdcead60e01b81526001600160a01b03928316600482015260c060248201529160209183916044918391165afa908115610491575f916139ce575090565b90506020813d6020116139fa575b816139e9602093836126a3565b81010312610200576127309061289a565b3d91506139dc565b600d01548015613a1157421190565b505f90565b60028101805460ff8160081c1660088110159081610e5b5760078114918215613b2f575b8215613b1e575b8215613b0d575b5050613b08576107009061ff00191617905560405180915f908054613a6c81612a0d565b91600191808316908115613aef5750600114613ab5575b5050500390207f5da0b3b746494475793fa5c0dd54bda0289c9a77fff226ccdc1848e862cd42d56020604051428152a2565b909192505f5260209060205f20905f915b848310613adb575050505081015f8080613a83565b805487840152869550918301918101613ac6565b60ff1916865250505080151502820190505f8080613a83565b505050565b909150610e5b576006145f80613a48565b809250610e5b576005811491613a41565b506004811491505f613a3a565b6020818303126102005780516001600160401b03918282116102005701906101609283838203126102005760405193840184811083821117611a275760405282518281116102005781613b90918501612ec7565b845260208301518281116102005781613baa918501612ec7565b602085015260408301516001600160a01b038116810361020057604085015260608301518281116102005781613be1918501612ec7565b606085015260808301518281116102005781613bfe918501612ec7565b608085015260a08301518281116102005781613c1b918501612ec7565b60a085015260c083015160c085015260e083015191821161020057613c41918301612ec7565b60e083015261010080820151908301526101208082015190830152613c6a61014080920161289a565b9082015290565b6002546001600160a01b0316918215613b08576040928351925f8480613cad6302f8780d60e31b9485835260206004840152602483019061280e565b0381855afa938415613ddd575f94613db7575b50915f91613ce3938651809581948293835260206004840152602483019061280e565b03915afa908115613dad575f91613d93575b506101408092015115613d4f57015115613d0c5750565b5162461bcd60e51b815260206004820152601960248201527f5265636569766572206163636f756e7420696e616374697665000000000000006044820152606490fd5b825162461bcd60e51b815260206004820152601760248201527f53656e646572206163636f756e7420696e6163746976650000000000000000006044820152606490fd5b613da791503d805f833e61339981836126a3565b5f613cf5565b83513d5f823e3d90fd5b613ce39391945091613dd35f933d8086833e61339981836126a3565b9491935091613cc0565b85513d5f823e3d90fd5b8051821015613dfb5760209160051b010190565b634e487b7160e01b5f52603260045260245ffd5b90816020910312610200575160ff811681036102005790565b90929160409182519080519160208181840194613e468183886127ed565b81016006815203019020613e5f600c820154151561290e565b613e6b612b61826138b0565b613e7481613a02565b6145e4578651156145ac5783519660208501978820613e9161284d565b60208151910120149785519020613ea6612872565b6020815191012014889089156145a4575b501561456b57871561450c5760ff600283015460081c166008811015610e5b576001036144c8575b60018060a01b0360015416918651986349d0104160e11b8a52895f81600496338883015260249d8e915afa9081156144be5790613f26915f916144a4575b5051151561294c565b60ff613f4f895160208180613f3f8c8c519283916127ed565b81016008815203019020896128e8565b541661447157613f7a88516020818851613f6a81838d6127ed565b81016008815203019020886128e8565b600160ff1982541617905587516020818751613f9781838c6127ed565b6007908201908152030190206001548951632d7feef360e21b81523387820152905f9082908e9082906001600160a01b03165afa908115614467575f9161444d575b50895194613fe686612675565b338652602086019182528a8601908a82526060870152426080870152825492600160401b8410156143b1576001840180825584101561443b575f90815260209020865160058502820180546001600160a01b0319166001600160a01b039290921691909117905591518051906001600160401b038211614327576140848261407660016005890288010154612a0d565b600160058902880101612a5b565b602090601f83116001146143c3576140b292915f918361197b5750508160011b915f199060031b1c19161790565b600160058502840101555b518051906001600160401b0382116143b1576140f3826140e560026005880287010154612a0d565b600260058802870101612a5b565b602090601f83116001146143395761412192915f918361197b5750508160011b915f199060031b1c19161790565b600260058402830101555b60036005830282010160608601518051906001600160401b0382116143275790829161415e826114978c979654612a0d565b602090601f83116001146142b557926141958360809460029c946005975f9261197b5750508160011b915f199060031b1c19161790565b90555b01519302010155156142a25701805461ff0019166103001790555b6001548551632d7feef360e21b81523383820152975f9189919082906001600160a01b03165afa928315613ddd577febb434060d28d0e0f2447a93bd6a9c5fef02b4595969aefc0f03687a12bb084a949596975f94614277575b5061423d61422a6020614260938a518093819289519283916127ed565b8101600781520301902054925493612afe565b9561425288519560a0875260a087019061280e565b90858203602087015261280e565b9583015260608201524260808201528033940390a3565b61426091945061422a602061429861423d933d805f833e61224381836126a3565b969350505061420d565b01805461ff0019166102001790556141b3565b98929190601f19821699835f5260205f209a5f5b81811061430c57509260029b608095936001938360059997106142f4575b505050811b019055614198565b01515f1960f88460031b161c191690555f80806142e7565b838301518d556001909c019b8d9850602093840193016142c9565b8e60418a634e487b7160e01b5f52525ffd5b91906002600586028501015f5260205f20905f935b601f1984168510614396576001945083601f1981161061437e575b505050811b016002600584028301015561412c565b01515f1960f88460031b161c191690555f8080614369565b8181015183556020948501946001909301929091019061434e565b8d604189634e487b7160e01b5f52525ffd5b91906001600587028601015f5260205f20905f935b601f1984168510614420576001945083601f19811610614408575b505050811b01600160058502840101556140bd565b01515f1960f88460031b161c191690555f80806143f3565b818101518355602094850194600190930192909101906143d8565b8d603289634e487b7160e01b5f52525ffd5b61446191503d805f833e61224381836126a3565b5f613fd9565b8a513d5f823e3d90fd5b875162461bcd60e51b8152602081860152600e818c01526d105b1c9958591e481cda59db995960921b6044820152606490fd5b6144b891503d805f833e61224381836126a3565b5f613f1d565b89513d5f823e3d90fd5b855162461bcd60e51b815260206004820152601960248201527f496e69746961746f72206d757374207369676e206669727374000000000000006044820152606490fd5b60ff600283015460081c166008811015610e5b57600314613edf57855162461bcd60e51b815260206004820152601c60248201527f4177616974696e6720696e69746961746f72207369676e6174757265000000006044820152606490fd5b855162461bcd60e51b8152602060048201526012602482015271496e76616c6964207369676e6572526f6c6560701b6044820152606490fd5b90505f613eb7565b845162461bcd60e51b8152602060048201526011602482015270496e76616c6964207369676e617475726560781b6044820152606490fd5b9350505050612a94919250613a16565b5f546001600160a01b0316330361460757565b60405163118cdaa760e01b8152336004820152602490fd5b1561462657565b60405162461bcd60e51b815260206004820152601960248201527f476f6c644163636f756e744c6564676572206e6f7420736574000000000000006044820152606490fd5b8054821015613dfb575f5260205f2001905f90565b600254614697906001600160a01b0316151561461f565b60058101916040516146ad816103988187612f2e565b602081519101209060068301916040516146cb816103988187612f2e565b6020815191012014614831575f5b60078401805482101561482957816146f09161466b565b905460025460039290921b1c91906001600160a01b0316803b15610200575f604051809263303a694160e11b825260806004830152818360406147378d6084850190612f2e565b821960248501526b1514905394d1915497d3d55560a21b60208583039260031984016044880152600c8152015289606485015201925af180156104915761481a575b506002546001600160a01b0316803b15610200576040805163303a694160e11b815260806004820152935f9285929091839185916147ba608485018c612f2e565b90600160248601526a2a2920a729a322a92fa4a760a91b60208684039360031985016044890152600b81520152606485015201925af19081156104915760079260019261480b575b500190506146d9565b61481490612690565b5f614802565b61482390612690565b5f614779565b505092505050565b92505050565b606090602081526015602082015274496e76616c696420737461747573206368616e676560581b60408201520190565b1561486e57565b60405162461bcd60e51b81528061488760048201614837565b0390fd5b6008811015610e5b57600581146148ea576004811461495a576006811461492457600781146148ed5780156148ea57600181146148ea57600381146148ea57600214612a945760405162461bcd60e51b81528061488760048201614837565b50565b60405162461bcd60e51b815260206004820152600f60248201526e105b1c9958591e48195e1c1a5c9959608a1b6044820152606490fd5b60405162461bcd60e51b815260206004820152600e60248201526d105b1c9958591e4819985a5b195960921b6044820152606490fd5b60405162461bcd60e51b815260206004820152601060248201526f105b1c9958591e48195e1958dd5d195960821b6044820152606490fd5b6008811015610e5b57600681146148ea576004811461495a57600581146149f157600781146148ed5780156148ea57600181146148ea57600381146148ea57600214612a945760405162461bcd60e51b81528061488760048201614837565b60405162461bcd60e51b8152602060048201526011602482015270105b1c9958591e4818d85b98d95b1b1959607a1b6044820152606490fd5b90600881101580610e5b576008831015610e5b57818314613b0857600492838114614c305760058114614bf85760068114614bc35760078114614b8d578015614b655760018114614b3a5760038114614b0f57600214614a9c5760405162461bcd60e51b815280614887818601614837565b909181614ade57808314918215614b02575b8215614af1575b8215614ac8575b5050612a949150614867565b909150614ade57506007612a9491145f80614abc565b602190634e487b7160e01b5f525260245ffd5b809250614ade576006831491614ab5565b506005831491505f614aae565b50909181614ade5760028314918215614b02578215614af1578215614ac8575050612a949150614867565b50909181614ade5760038314918215614b02578215614af1578215614ac8575050612a949150614867565b5050905f9060018314918215614b02578215614af1578215614ac8575050612a949150614867565b60405162461bcd60e51b8152602081860152600f60248201526e105b1c9958591e48195e1c1a5c9959608a1b6044820152606490fd5b60405162461bcd60e51b8152602081860152600e60248201526d105b1c9958591e4819985a5b195960921b6044820152606490fd5b60405162461bcd60e51b81526020818601526011602482015270105b1c9958591e4818d85b98d95b1b1959607a1b6044820152606490fd5b60405162461bcd60e51b8152602081860152601060248201526f105b1c9958591e48195e1958dd5d195960821b6044820152606490fdfea26469706673582212203bc2a18fa697e787e9f7a8e33587140b9f6c7c8da4c1cf3f21092d40e19a91b964736f6c63430008180033","linkReferences":{}},"methodIdentifiers":{"MEMBER_ACTIVE()":"4a680b42","ROLE_GMO()":"7589b7de","ROLE_MINTER()":"92afc33a","ROLE_ORDER_CREATOR()":"6fe54792","ROLE_REFINER()":"d0473a65","ROLE_TRADER()":"45eed0db","accountLedger()":"5defa55e","cancelOrder(string,string)":"04b5bf4f","counterparty()":"c3df6546","createOrder(string,string,uint8,string,string,uint256[],(string,uint256)[],string,string,uint256,uint256,string,string)":"2fdee1f3","executeOrder(string)":"d8224ea8","failOrder(string,string)":"e9e32947","getOrderDetails(string)":"4fbb487c","getOrderSignatures(string)":"ea9dc25d","getOrderStatus(string)":"aedfb5d3","goldAssetToken()":"ca698bc8","initiator()":"5c39fcc1","memberRegistry()":"a74d4772","minSignatures()":"238acaa2","owner()":"8da5cb5b","prepareOrder(string,string,string,uint256[])":"169502f6","renounceOwnership()":"715018a6","setExecutionOptions(bool,bool)":"db413d9e","setGoldAccountLedger(address)":"94ae772f","setGoldAssetToken(address)":"4fe5043d","setMemberRegistry(address)":"6fd7c34c","setMinSignatures(uint256)":"5a546098","signOrder(string,bytes,string)":"4b4555b1","transferAssetsOnExecute()":"8486bdc4","transferOwnership(address)":"f2fde38b","updateLedgerOnExecute()":"51d80ef3","updateOrderStatus(string,uint8,string)":"2f7554ac"},"id":9}