{"abi":[{"type":"constructor","inputs":[{"name":"_memberRegistry","type":"address","internalType":"address"}],"stateMutability":"nonpayable"},{"type":"function","name":"MEMBER_ACTIVE","inputs":[],"outputs":[{"name":"","type":"uint8","internalType":"uint8"}],"stateMutability":"view"},{"type":"function","name":"ROLE_GMO","inputs":[],"outputs":[{"name":"","type":"uint256","internalType":"uint256"}],"stateMutability":"view"},{"type":"function","name":"ROLE_MINTER","inputs":[],"outputs":[{"name":"","type":"uint256","internalType":"uint256"}],"stateMutability":"view"},{"type":"function","name":"ROLE_ORDER_CREATOR","inputs":[],"outputs":[{"name":"","type":"uint256","internalType":"uint256"}],"stateMutability":"view"},{"type":"function","name":"ROLE_REFINER","inputs":[],"outputs":[{"name":"","type":"uint256","internalType":"uint256"}],"stateMutability":"view"},{"type":"function","name":"ROLE_TRADER","inputs":[],"outputs":[{"name":"","type":"uint256","internalType":"uint256"}],"stateMutability":"view"},{"type":"function","name":"accountLedger","inputs":[],"outputs":[{"name":"","type":"address","internalType":"contract IGoldAccountLedger"}],"stateMutability":"view"},{"type":"function","name":"cancelOrder","inputs":[{"name":"txRef","type":"string","internalType":"string"},{"name":"reason","type":"string","internalType":"string"}],"outputs":[],"stateMutability":"nonpayable"},{"type":"function","name":"counterparty","inputs":[],"outputs":[{"name":"","type":"string","internalType":"string"}],"stateMutability":"view"},{"type":"function","name":"createOrder","inputs":[{"name":"transactionRef","type":"string","internalType":"string"},{"name":"transactionId","type":"string","internalType":"string"},{"name":"txType","type":"uint8","internalType":"enum TransactionOrderBook.TransactionType"},{"name":"initiatorGIC","type":"string","internalType":"string"},{"name":"counterpartyGIC","type":"string","internalType":"string"},{"name":"tokenIds","type":"uint256[]","internalType":"uint256[]"},{"name":"requestedAssets","type":"tuple[]","internalType":"struct TransactionOrderBook.RequestedAsset[]","components":[{"name":"goldProductTypeId","type":"string","internalType":"string"},{"name":"quantityGrams","type":"uint256","internalType":"uint256"}]},{"name":"valuationDate","type":"string","internalType":"string"},{"name":"valuationCurrency","type":"string","internalType":"string"},{"name":"transactionValue","type":"uint256","internalType":"uint256"},{"name":"expiresAt","type":"uint256","internalType":"uint256"},{"name":"senderIGAN","type":"string","internalType":"string"},{"name":"receiverIGAN","type":"string","internalType":"string"}],"outputs":[{"name":"txRef","type":"string","internalType":"string"}],"stateMutability":"nonpayable"},{"type":"function","name":"executeOrder","inputs":[{"name":"txRef","type":"string","internalType":"string"}],"outputs":[],"stateMutability":"nonpayable"},{"type":"function","name":"failOrder","inputs":[{"name":"txRef","type":"string","internalType":"string"},{"name":"reason","type":"string","internalType":"string"}],"outputs":[],"stateMutability":"nonpayable"},{"type":"function","name":"getOrderDetails","inputs":[{"name":"txRef","type":"string","internalType":"string"}],"outputs":[{"name":"order","type":"tuple","internalType":"struct TransactionOrderBook.TransactionOrder","components":[{"name":"transactionRef","type":"string","internalType":"string"},{"name":"transactionId","type":"string","internalType":"string"},{"name":"txType","type":"uint8","internalType":"enum TransactionOrderBook.TransactionType"},{"name":"status","type":"uint8","internalType":"enum TransactionOrderBook.TransactionStatus"},{"name":"initiatorGIC","type":"string","internalType":"string"},{"name":"counterpartyGIC","type":"string","internalType":"string"},{"name":"senderIGAN","type":"string","internalType":"string"},{"name":"receiverIGAN","type":"string","internalType":"string"},{"name":"tokenIds","type":"uint256[]","internalType":"uint256[]"},{"name":"requestedAssets","type":"tuple[]","internalType":"struct TransactionOrderBook.RequestedAsset[]","components":[{"name":"goldProductTypeId","type":"string","internalType":"string"},{"name":"quantityGrams","type":"uint256","internalType":"uint256"}]},{"name":"valuationDate","type":"string","internalType":"string"},{"name":"valuationCurrency","type":"string","internalType":"string"},{"name":"transactionValue","type":"uint256","internalType":"uint256"},{"name":"createdAt","type":"uint256","internalType":"uint256"},{"name":"expiresAt","type":"uint256","internalType":"uint256"},{"name":"executedAt","type":"uint256","internalType":"uint256"},{"name":"createdBy","type":"address","internalType":"address"}]}],"stateMutability":"view"},{"type":"function","name":"getOrderSignatures","inputs":[{"name":"txRef","type":"string","internalType":"string"}],"outputs":[{"name":"","type":"tuple[]","internalType":"struct TransactionOrderBook.Signature[]","components":[{"name":"signer","type":"address","internalType":"address"},{"name":"signerUserId","type":"string","internalType":"string"},{"name":"signerRole","type":"string","internalType":"string"},{"name":"signature","type":"bytes","internalType":"bytes"},{"name":"signedAt","type":"uint256","internalType":"uint256"}]}],"stateMutability":"view"},{"type":"function","name":"getOrderStatus","inputs":[{"name":"txRef","type":"string","internalType":"string"}],"outputs":[{"name":"","type":"uint8","internalType":"enum TransactionOrderBook.TransactionStatus"}],"stateMutability":"view"},{"type":"function","name":"goldAssetToken","inputs":[],"outputs":[{"name":"","type":"address","internalType":"contract IGoldAssetToken"}],"stateMutability":"view"},{"type":"function","name":"initiator","inputs":[],"outputs":[{"name":"","type":"string","internalType":"string"}],"stateMutability":"view"},{"type":"function","name":"memberRegistry","inputs":[],"outputs":[{"name":"","type":"address","internalType":"contract IMemberRegistryExtended"}],"stateMutability":"view"},{"type":"function","name":"minSignatures","inputs":[],"outputs":[{"name":"","type":"uint256","internalType":"uint256"}],"stateMutability":"view"},{"type":"function","name":"owner","inputs":[],"outputs":[{"name":"","type":"address","internalType":"address"}],"stateMutability":"view"},{"type":"function","name":"prepareOrder","inputs":[{"name":"txRef","type":"string","internalType":"string"},{"name":"senderIGAN","type":"string","internalType":"string"},{"name":"receiverIGAN","type":"string","internalType":"string"},{"name":"tokenIds","type":"uint256[]","internalType":"uint256[]"}],"outputs":[],"stateMutability":"nonpayable"},{"type":"function","name":"renounceOwnership","inputs":[],"outputs":[],"stateMutability":"nonpayable"},{"type":"function","name":"setExecutionOptions","inputs":[{"name":"_transferAssetsOnExecute","type":"bool","internalType":"bool"},{"name":"_updateLedgerOnExecute","type":"bool","internalType":"bool"}],"outputs":[],"stateMutability":"nonpayable"},{"type":"function","name":"setGoldAccountLedger","inputs":[{"name":"_accountLedger","type":"address","internalType":"address"}],"outputs":[],"stateMutability":"nonpayable"},{"type":"function","name":"setGoldAssetToken","inputs":[{"name":"_goldAssetToken","type":"address","internalType":"address"}],"outputs":[],"stateMutability":"nonpayable"},{"type":"function","name":"setMemberRegistry","inputs":[{"name":"_memberRegistry","type":"address","internalType":"address"}],"outputs":[],"stateMutability":"nonpayable"},{"type":"function","name":"setMinSignatures","inputs":[{"name":"_minSignatures","type":"uint256","internalType":"uint256"}],"outputs":[],"stateMutability":"nonpayable"},{"type":"function","name":"signOrder","inputs":[{"name":"txRef","type":"string","internalType":"string"},{"name":"signature","type":"bytes","internalType":"bytes"},{"name":"signerRole","type":"string","internalType":"string"}],"outputs":[],"stateMutability":"nonpayable"},{"type":"function","name":"transferAssetsOnExecute","inputs":[],"outputs":[{"name":"","type":"bool","internalType":"bool"}],"stateMutability":"view"},{"type":"function","name":"transferOwnership","inputs":[{"name":"newOwner","type":"address","internalType":"address"}],"outputs":[],"stateMutability":"nonpayable"},{"type":"function","name":"updateLedgerOnExecute","inputs":[],"outputs":[{"name":"","type":"bool","internalType":"bool"}],"stateMutability":"view"},{"type":"function","name":"updateOrderStatus","inputs":[{"name":"txRef","type":"string","internalType":"string"},{"name":"newStatus","type":"uint8","internalType":"enum TransactionOrderBook.TransactionStatus"},{"name":"reason","type":"string","internalType":"string"}],"outputs":[],"stateMutability":"nonpayable"},{"type":"event","name":"OrderCancelled","inputs":[{"name":"transactionRef","type":"string","indexed":true,"internalType":"string"},{"name":"reason","type":"string","indexed":false,"internalType":"string"},{"name":"timestamp","type":"uint256","indexed":false,"internalType":"uint256"}],"anonymous":false},{"type":"event","name":"OrderCreated","inputs":[{"name":"transactionRef","type":"string","indexed":true,"internalType":"string"},{"name":"transactionId","type":"string","indexed":false,"internalType":"string"},{"name":"txType","type":"uint8","indexed":false,"internalType":"enum TransactionOrderBook.TransactionType"},{"name":"initiatorGIC","type":"string","indexed":false,"internalType":"string"},{"name":"counterpartyGIC","type":"string","indexed":false,"internalType":"string"},{"name":"requestedAssetCount","type":"uint256","indexed":false,"internalType":"uint256"},{"name":"valuationCurrency","type":"string","indexed":false,"internalType":"string"},{"name":"transactionValue","type":"uint256","indexed":false,"internalType":"uint256"},{"name":"status","type":"uint8","indexed":false,"internalType":"enum TransactionOrderBook.TransactionStatus"},{"name":"timestamp","type":"uint256","indexed":false,"internalType":"uint256"},{"name":"expiresAt","type":"uint256","indexed":false,"internalType":"uint256"}],"anonymous":false},{"type":"event","name":"OrderExecuted","inputs":[{"name":"transactionRef","type":"string","indexed":true,"internalType":"string"},{"name":"tokenCount","type":"uint256","indexed":false,"internalType":"uint256"},{"name":"timestamp","type":"uint256","indexed":false,"internalType":"uint256"}],"anonymous":false},{"type":"event","name":"OrderFailed","inputs":[{"name":"transactionRef","type":"string","indexed":true,"internalType":"string"},{"name":"reason","type":"string","indexed":false,"internalType":"string"},{"name":"timestamp","type":"uint256","indexed":false,"internalType":"uint256"}],"anonymous":false},{"type":"event","name":"OrderPrepared","inputs":[{"name":"transactionRef","type":"string","indexed":true,"internalType":"string"},{"name":"tokenCount","type":"uint256","indexed":false,"internalType":"uint256"},{"name":"timestamp","type":"uint256","indexed":false,"internalType":"uint256"}],"anonymous":false},{"type":"event","name":"OrderSigned","inputs":[{"name":"transactionRef","type":"string","indexed":true,"internalType":"string"},{"name":"signer","type":"address","indexed":true,"internalType":"address"},{"name":"signerUserId","type":"string","indexed":false,"internalType":"string"},{"name":"signerRole","type":"string","indexed":false,"internalType":"string"},{"name":"signaturesCollected","type":"uint256","indexed":false,"internalType":"uint256"},{"name":"signaturesRequired","type":"uint256","indexed":false,"internalType":"uint256"},{"name":"timestamp","type":"uint256","indexed":false,"internalType":"uint256"}],"anonymous":false},{"type":"event","name":"OwnershipTransferred","inputs":[{"name":"previousOwner","type":"address","indexed":true,"internalType":"address"},{"name":"newOwner","type":"address","indexed":true,"internalType":"address"}],"anonymous":false},{"type":"error","name":"OwnableInvalidOwner","inputs":[{"name":"owner","type":"address","internalType":"address"}]},{"type":"error","name":"OwnableUnauthorizedAccount","inputs":[{"name":"account","type":"address","internalType":"address"}]}],"bytecode":{"object":"0x6080346200012657601f62004adc38819003918201601f19168301916001600160401b038311848410176200012a578084926020946040528339810103126200012657516001600160a01b0380821691829003620001265733156200010e575f549060018060a01b03199133838216175f55604051913391167f8be0079c531659141344cd1fd0a4f28419497f9722a3daafe3b4186f6b6457e05f80a3600260045561ffff19600554166005558215620000cc5750600154161760015560405161499d90816200013f8239f35b62461bcd60e51b815260206004820152601660248201527f496e76616c6964204d656d6265725265676973747279000000000000000000006044820152606490fd5b604051631e4fbdf760e01b81525f6004820152602490fd5b5f80fd5b634e487b7160e01b5f52604160045260245ffdfe60806040526004361015610011575f80fd5b5f3560e01c806304b5bf4f14613689578063169502f6146131df578063238acaa2146131c25780632f7554ac146130da5780632fdee1f314611cf457806345eed0db14611cd85780634a680b4214610b835780634b4555b1146114345780634fbb487c14610f4d5780634fe5043d14610f0857806351d80ef314610ee35780635a54609814610e7d5780635c39fcc114610e625780635defa55e14610e3a5780636fd7c34c14610db15780636fe5479214610d95578063715018a614610d3e5780637589b7de14610d235780638486bdc414610d015780638da5cb5b14610cda57806392afc33a14610cbf57806394ae772f14610c7a578063a74d477214610c52578063aedfb5d314610bf9578063c3df654614610bc6578063ca698bc814610b9e578063d0473a6514610b83578063d8224ea8146105dc578063db413d9e1461058b578063e9e32947146103f0578063ea9dc25d146102045763f2fde38b14610179575f80fd5b34610200576020366003190112610200576004356001600160a01b0381811691829003610200576101a86143a3565b81156101e8575f54826001600160601b0360a01b8216175f55167f8be0079c531659141344cd1fd0a4f28419497f9722a3daafe3b4186f6b6457e05f80a3005b604051631e4fbdf760e01b81525f6004820152602490fd5b5f80fd5b3461020057602080600319360112610200576004356001600160401b038111610200578161023961027a923690600401613899565b60405190610269600c82519385818186019661025681838a613971565b8101600681520301902001541515613a92565b604051938492839251928391613971565b8101600781520301902090815491610291836138fa565b9261029f6040519485613827565b80845282840180925f52835f205f915b8383106103655750505050604051918083019381845251809452604083019360408160051b85010192915f955b8287106102e95785850386f35b909192938280600192603f1989820301855287519061034b61033861032660a0888060a01b03865116855286860151908088870152850190613992565b60408501518482036040860152613992565b6060808501519084830390850152613992565b9160808091015191015296019201960195929190926102dc565b60058660019260409998995161037a816137f9565b848060a01b03865416815260405161039f8161039881898b01613d09565b0382613827565b838201526040516103b7816103988160028b01613d09565b60408201526040516103d0816103988160038b01613d09565b6060820152600486015460808201528152019201920191909594956102af565b34610200576103fe366138b7565b60015460405163fe575a8760e01b8152336004820152602093918490829060249082906001600160a01b03165afa8015610580575f9061054a575b610444915015613a2b565b60026040518481845161045a8183858901613971565b81016006815203019020610473600c8201541515613a92565b61047c81613f74565b8015610536575b61048c90613ad0565b01805461049e60ff8260081c16614702565b8351156104ff5761ff0019166106001790557f02e9305cecf09be907ffd0503eb73fcbe81d21bca8403188cbcc53e4387d9dc9916104f4916104df90613c82565b93604051928392604084526040840190613992565b9042908301520390a2005b60405162461bcd60e51b815260048101869052600f60248201526e1499585cdbdb881c995c5d5a5c9959608a1b6044820152606490fd5b5061048c6105433361404c565b9050610483565b508381813d8311610579575b6105608183613827565b810103126102005761057461044491613a1e565b610439565b503d610556565b6040513d5f823e3d90fd5b346102005760403660031901126102005760043580151580910361020057602435801515809103610200576105be6143a3565b60ff61ff006005549260081b1692169061ffff191617176005555f80f35b34610200576020366003190112610200576004356001600160401b0381116102005761060c903690600401613899565b60015460405163fe575a8760e01b815233600482015290602090829060249082906001600160a01b03165afa8015610580575f90610b48575b610650915015613a2b565b60405160208183516106658183858801613971565b810160068152030190209061067f600c8301541515613a92565b61069061068b83613f74565b613ad0565b60ff600283015460081c166007811015610b3457600203610b035760058201916106ba8354613b91565b15610ac957600681016106cd8154613b91565b15610a8d576106e160078301541515613c24565b60ff60055416610763575b507ff236a289260b80b8f670f639c87bc95b2efa9286807681fea2d11b9959b1f0df919250610746600760409260ff60055460081c16610755575b60028101805461ff00191661040017905542600e820155015493613c82565b928151908152426020820152a2005b61075e8161442f565b610727565b6003546001600160a01b031615610a4f576002546001600160a01b031661078b8115156143ce565b604051945f86806107b26302f8780d60e31b94858352602060048401526024830190613d09565b0381855afa958615610580575f96610a27575b50915f916107ea94936040518096819482938352602060048401526024830190613d09565b03915afa918215610580575f92610a03575b5060408401516001600160a01b0316156109c55760408201516001600160a01b031615610980575f5b60078201548110156109705761083e816007840161441a565b90549060031b1c9060018060a01b036003541660405163e7e5529560e01b8152836004820152602081602481855afa908115610580575f91610936575b5061090257604087810151908601516001600160a01b0391821692911690803b15610200575f928360c4926040519788958694637921219560e11b86526004860152602485015260448401526001606484015260a060848401528160a48401525af1918215610580576001926108f3575b5001610825565b6108fc90613814565b866108ec565b60405162461bcd60e51b815260206004820152600c60248201526b105cdcd95d081b1bd8dad95960a21b6044820152606490fd5b90506020813d602011610968575b8161095160209383613827565b810103126102005761096290613a1e565b8861087b565b3d9150610944565b50919250829190506107466106ec565b60405162461bcd60e51b815260206004820152601860248201527f496e76616c6964207265636569766572206164647265737300000000000000006044820152606490fd5b60405162461bcd60e51b8152602060048201526016602482015275496e76616c69642073656e646572206164647265737360501b6044820152606490fd5b610a209192503d805f833e610a188183613827565b8101906140c6565b90846107fc565b6107ea949391965091610a445f933d8086833e610a188183613827565b9691939450916107c5565b60405162461bcd60e51b815260206004820152601660248201527511dbdb19105cdcd95d151bdad95b881b9bdd081cd95d60521b6044820152606490fd5b60405162461bcd60e51b815260206004820152601460248201527326b4b9b9b4b733903932b1b2b4bb32b924a3a0a760611b6044820152606490fd5b60405162461bcd60e51b815260206004820152601260248201527126b4b9b9b4b7339039b2b73232b924a3a0a760711b6044820152606490fd5b60405162461bcd60e51b81526020600482015260096024820152684e6f7420726561647960b81b6044820152606490fd5b634e487b7160e01b5f52602160045260245ffd5b506020813d602011610b7b575b81610b6260209383613827565b8101031261020057610b7661065091613a1e565b610645565b3d9150610b55565b34610200575f36600319011261020057602060405160018152f35b34610200575f366003190112610200576003546040516001600160a01b039091168152602090f35b34610200575f36600319011261020057610bf5610be16139f6565b604051918291602083526020830190613992565b0390f35b34610200576020366003190112610200576004356001600160401b0381116102005760ff6002610c33602061023981953690600401613899565b81016006815203019020015460081c16610c5060405180926139c4565bf35b34610200575f366003190112610200576001546040516001600160a01b039091168152602090f35b34610200576020366003190112610200576004356001600160a01b0381169081900361020057610ca86143a3565b6001600160601b0360a01b60025416176002555f80f35b34610200575f36600319011261020057602060405160028152f35b34610200575f366003190112610200575f546040516001600160a01b039091168152602090f35b34610200575f36600319011261020057602060ff600554166040519015158152f35b34610200575f36600319011261020057602060405160c08152f35b34610200575f36600319011261020057610d566143a3565b5f80546001600160a01b0319811682556001600160a01b03167f8be0079c531659141344cd1fd0a4f28419497f9722a3daafe3b4186f6b6457e08280a3005b34610200575f3660031901126102005760206040516101c38152f35b34610200576020366003190112610200576004356001600160a01b0381169081900361020057610ddf6143a3565b8015610dfc576001600160601b0360a01b60015416176001555f80f35b60405162461bcd60e51b8152602060048201526016602482015275496e76616c6964204d656d626572526567697374727960501b6044820152606490fd5b34610200575f366003190112610200576002546040516001600160a01b039091168152602090f35b34610200575f36600319011261020057610bf5610be16139d1565b3461020057602036600319011261020057600435610e996143a3565b60028103610ea657600455005b60405162461bcd60e51b8152602060048201526015602482015274496e76616c6964206d696e5369676e61747572657360581b6044820152606490fd5b34610200575f36600319011261020057602060ff60055460081c166040519015158152f35b34610200576020366003190112610200576004356001600160a01b0381169081900361020057610f366143a3565b6001600160601b0360a01b60035416176003555f80f35b34610200576020366003190112610200576004356001600160401b038111610200576020610f8261101f923690600401613899565b5f610200604051610f92816137dd565b6060815260608582015282604082015282606082015260606080820152606060a0820152606060c0820152606060e0820152606061010082015260606101208201526060610140820152606061016082015282610180820152826101a0820152826101c0820152826101e0820152015260405190610269600c82519385818186019661025681838a613971565b8101600681520301902060405190611036826137dd565b604051611047816103988185613d09565b825260405161105d816103988160018601613d09565b6020830152600281015461107760ff821660408501613d9a565b600760ff8260081c161015610b345760081c60ff1660608301526040516110a5816103988160038601613d09565b60808301526040516110be816103988160048601613d09565b60a08301526040516110d7816103988160058601613d09565b60c08301526040516110f0816103988160068601613d09565b60e083015260078101604051808260208294549384815201905f5260205f20925f5b81811061141b57505061112792500382613827565b610100830152600881015461113b816138fa565b906111496040519283613827565b80825260208201600884015f5260205f205f915b8383106113df5750505050610120830152604051611182816103988160098601613d09565b61014083015260405161119c8161039881600a8601613d09565b610160830152600b810154610180830152600c8101546101a0830152600d8101546101c0830152600e8101546101e0830152600f60018060a01b0391015416610200820152604051602081526112a261128b61127561125f61122561120f87516102206020890152610240880190613992565b6020880151878203601f19016040890152613992565b611237604088015160608801906139b7565b611249606088015160808801906139c4565b6080870151868203601f190160a0880152613992565b60a0860151858203601f190160c0870152613992565b60c0850151848203601f190160e0860152613992565b60e0840151838203601f1901610100850152613992565b9161010081015192601f1983820301610120840152602080855192838152019401905f5b8181106113c95750505061012081015192601f1983820301610140840152835180825260208201916020808360051b8301019601925f915b8383106113885786808761133f6113278c610140840151601f1986830301610160870152613992565b610160830151848203601f1901610180860152613992565b906101808101516101a08401526101a08101516101c08401526101c08101516101e08401526101e081015161020084015261020060018060a01b03910151166102208301520390f35b9091929396602080600192601f198582030186528a519082806113b48451604085526040850190613992565b930151910152990193019301919392906112fe565b82518652602095860195909201916001016112c6565b600260206001926040516113f2816137c2565b60405161140381610398818a613d09565b8152848601548382015281520192019201919061115d565b8454835260019485019486945060209093019201611112565b34610200576060366003190112610200576004356001600160401b03811161020057611464903690600401613899565b6024356001600160401b038111610200573660238201121561020057611494903690602481600401359101613863565b90604480356001600160401b038111610200576114b5903690600401613899565b9060018060a01b036001541660405163fe575a8760e01b8152336004820152602081602481855afa8015610580575f90611c9d575b6114f5915015613a2b565b604051602081865161150a8183858b01613971565b8101600681520301902091611524600c8401541515613a92565b61153061068b84613f74565b855115611c6557835191602085019283206115496139d1565b6020815191012014928551902061155e6139f6565b602081519101201483908415611c5d575b5015611c24578215611bbc5760ff600285015460081c166007811015610b3457600103611b78575f6024915b6040516349d0104160e11b815233600482015292839182905afa8015610580576115cf915f91611b5e575b50511515613ad0565b60ff6115fb604051602081816115eb8b83815193849201613971565b8101600881520301902086613a6c565b5416611b29575061162a604051602081875161161a8183858c01613971565b8101600881520301902084613a6c565b600160ff19825416179055604051602081865161164a8183858b01613971565b600790820190815203019020600154604051632d7feef360e21b8152336004820152905f90829060249082906001600160a01b03165afa908115610580575f91611b0f575b506040519661169d886137f9565b338852602088019182528560408901526060880152426080880152815491600160401b8310156119ec5760018301808255831015611afb575f90815260209020875160058402820180546001600160a01b0319166001600160a01b039290921691909117905590518051906001600160401b0382116119ec5761173a8261172c60016005880287010154613b91565b600160058802870101613bdf565b602090601f8311600114611a835761176992915f9183611a00575b50508160011b915f199060031b1c19161790565b600160058402830101555b60408701518051906001600160401b0382116119ec576117ae826117a060026005880287010154613b91565b600260058802870101613bdf565b602090601f8311600114611a0b576117dc92915f9183611a005750508160011b915f199060031b1c19161790565b600260058402830101555b6003600583028201019660608101519788516001600160401b0381116119ec5761181b816118158454613b91565b84613bdf565b6020601f821160011461197c5792600592611856836080946004989760029d9e9f5f926119715750508160011b915f199060031b1c19161790565b90555b015193020101551561195e5701805461ff0019166103001790555b600154604051632d7feef360e21b8152336004820152905f90829060249082906001600160a01b03165afa8015610580577febb434060d28d0e0f2447a93bd6a9c5fef02b4595969aefc0f03687a12bb084a915f9161193c575b5060405160208186516118e48183858b01613971565b8101600781520301902054936119236118ff60045492613c82565b946119156040519460a0865260a0860190613992565b908482036020860152613992565b94604083015260608201524260808201528033940390a3005b61195891503d805f833e6119508183613827565b810190613ce4565b846118ce565b01805461ff001916610200179055611874565b015190508f80611755565b601f1982169a835f5260205f209b5f5b8181106119d457508360029b9c9d600498979460059794608097600195106119bc575b505050811b019055611859565b01515f1960f88460031b161c191690558e80806119af565b838301518e556001909d019c6020938401930161198c565b634e487b7160e01b5f52604160045260245ffd5b015190508a80611755565b91906002600586028501015f5260205f20905f935b601f1984168510611a68576001945083601f19811610611a50575b505050811b01600260058402830101556117e7565b01515f1960f88460031b161c19169055898080611a3b565b81810151835560209485019460019093019290910190611a20565b91906001600586028501015f5260205f20905f935b601f1984168510611ae0576001945083601f19811610611ac8575b505050811b0160016005840283010155611774565b01515f1960f88460031b161c19169055898080611ab3565b81810151835560209485019460019093019290910190611a98565b634e487b7160e01b5f52603260045260245ffd5b611b2391503d805f833e6119508183613827565b8761168f565b6064906d105b1c9958591e481cda59db995960921b6040519162461bcd60e51b835260206004840152600e6024840152820152fd5b611b7291503d805f833e6119508183613827565b886115c6565b60405162461bcd60e51b815260206004820152601960248201527f496e69746961746f72206d757374207369676e2066697273740000000000000081840152606490fd5b60ff600285015460081c166007811015610b3457600303611be0575f60249161159b565b60405162461bcd60e51b815260206004820152601c60248201527f4177616974696e6720696e69746961746f72207369676e61747572650000000081840152606490fd5b60405162461bcd60e51b8152602060048201526012602482015271496e76616c6964207369676e6572526f6c6560701b81840152606490fd5b90508861156f565b60649070496e76616c6964207369676e617475726560781b6040519162461bcd60e51b83526020600484015260116024840152820152fd5b506020813d602011611cd0575b81611cb760209383613827565b8101031261020057611ccb6114f591613a1e565b6114ea565b3d9150611caa565b34610200575f3660031901126102005760206040516101008152f35b34610200576101a0366003190112610200576004356001600160401b03811161020057611d25903690600401613899565b6024356001600160401b03811161020057611d44903690600401613899565b60046044351015610200576064356001600160401b03811161020057611d6e903690600401613899565b916084356001600160401b03811161020057611d8e903690600401613899565b9060a4356001600160401b03811161020057611dae903690600401613911565b936001600160401b0360c435116102005736602360c4350112156102005760c4356004013593611ddd856138fa565b94611deb6040519687613827565b80865260208601903660248260051b60c43501011161020057602460c43501915b60248260051b60c435010183106130685750505060e4356001600160401b03811161020057611e3f903690600401613899565b6001600160401b03610104351161020057611e603661010435600401613899565b90610164356001600160401b03811161020057611e81903690600401613899565b90610184356001600160401b03811161020057611ea2903690600401613899565b60015460405163fe575a8760e01b81523360048201526001600160a01b039091169a91906020816024818f5afa8015610580575f9061302d575b611ee7915015613a2b565b604051638cbdcead60e01b81523360048201526101c360248201526020816044818f5afa908115610580575f91612ff3575b5015612f9a576040516349d0104160e11b81523360048201525f816024818f5afa908115610580575f91612f80575b50611f523361404c565b908115612f54575b5015612f1f57611f6c84511515613b0d565b611f7881511515613b4e565b611f8482511515613c24565b611f8e81856141fb565b85885115612ee157600c611fb160208b8160405193828580945193849201613971565b810160068152030190200154612ead57875115612e7157895115612e2c578a5115612de757835115612daa57855115612d72575f5b8b5181101561209157611ff9818d614376565b5151511561205557602061200d828e614376565b5101511561201d57600101611fe6565b60405162461bcd60e51b815260206004820152601060248201526f496e76616c6964207175616e7469747960801b6044820152606490fd5b60405162461bcd60e51b8152602060048201526014602482015273496e76616c69642070726f64756374207479706560601b6044820152606490fd5b50604051638e690fc560e01b81526020600482018190528c9695949392918e9181806120c0602482018f613992565b0381855afa9081156105805760019160ff915f91612d53575b501603612d175760208c612109926040518080958194638e690fc560e01b83528660048401526024830190613992565b03915afa9081156105805760019160ff915f91612ce8575b501603612ca35761014435612c60575b5115612c58575b60405193612145856137dd565b89855287602086015261215d60443560408701613d9a565b600160608601528860808601528a60a086015260c085015260e0840152610100830152826101208301526101408201528261016082015261012435610180820152426101a0820152610144356101c08201525f6101e08201523361020082015260405160208188516121d28183858d01613971565b8101600681520301902081518051906001600160401b0382116119ec57612203826121fd8554613b91565b85613bdf565b602090601f8311600114612bf05761223192915f918361278c5750508160011b915f199060031b1c19161790565b81555b60208201518051906001600160401b0382116119ec576122648261225b6001860154613b91565b60018601613bdf565b602090601f8311600114612b825761229292915f918361278c5750508160011b915f199060031b1c19161790565b60018201555b60408201516004811015610b345760ff8019600284015416911617600282015560608201516007811015610b34576122d39060028301613c63565b60808201518051906001600160401b0382116119ec57612303826122fa6003860154613b91565b60038601613bdf565b602090601f8311600114612b145761233192915f918361278c5750508160011b915f199060031b1c19161790565b60038201555b60a08201518051906001600160401b0382116119ec576123678261235e6004860154613b91565b60048601613bdf565b602090601f8311600114612aa65761239592915f918361278c5750508160011b915f199060031b1c19161790565b60048201555b60c08201518051906001600160401b0382116119ec576123cb826123c26005860154613b91565b60058601613bdf565b602090601f8311600114612a38576123f992915f918361278c5750508160011b915f199060031b1c19161790565b60058201555b60e08201518051906001600160401b0382116119ec5761242f826124266006860154613b91565b60068601613bdf565b602090601f83116001146129ca5761245d92915f918361278c5750508160011b915f199060031b1c19161790565b60068201555b6101008201518051906001600160401b0382116119ec57600160401b82116119ec5760209060078401548360078601558084106129ac575b5001600783015f5260205f205f5b8381106129985750505050610120820151805190600160401b82116119ec5760088301548260088501558083106128ea575b5060200190600883015f5260205f205f925b82841061280557505050506101408201518051906001600160401b0382116119ec57612529826125206009860154613b91565b60098601613bdf565b602090601f83116001146127975761255792915f918361278c5750508160011b915f199060031b1c19161790565b60098201555b6101608201518051906001600160401b0382116119ec5761258e82612585600a860154613b91565b600a8601613bdf565b602090601f83116001146126eb57946126a894600f610bf59c956125f28661266a9b97612695977f5dc77ee73a49d59f8fc5273aea5b470ff7bd538af410d595b968cfe3d0df4d009e9c5f926126e05750508160011b915f199060031b1c19161790565b600a8201555b610180830151600b8201556101a0830151600c8201556101c0830151600d8201556101e0830151600e820155019061020060018060a01b03910151166001600160601b0360a01b82541617905551926126876126538b613c82565b996040519889986101408a526101408a0190613992565b9061267a60208a016044356139b7565b88820360408a0152613992565b908682036060880152613992565b91608085015283820360a0850152613992565b6101243560c0830152600160e083015242610100830152610144356101208301520390a2604051918291602083526020830190613992565b015190505f80611755565b90600a84015f5260205f20915f5b601f1985168110612774575094600f610bf59c95600186612695967f5dc77ee73a49d59f8fc5273aea5b470ff7bd538af410d595b968cfe3d0df4d009d9b966126a89b61266a9e9a601f1981161061275c575b505050811b01600a8201556125f8565b01515f1960f88460031b161c191690555f808061274c565b919260206001819286850151815501940192016126f9565b015190508b80611755565b9190600984015f5260205f20905f935b601f19841685106127ea576001945083601f198116106127d2575b505050811b01600982015561255d565b01515f1960f88460031b161c191690558a80806127c2565b818101518355602094850194600190930192909101906127a7565b805180518051906001600160401b0382116119ec5761282e826128288754613b91565b87613bdf565b602090601f831160011461287b57600293612866846020956001989587955f926126e05750508160011b915f199060031b1c19161790565b87555b015184860155019201930192906124ed565b90855f5260205f20915f5b601f19851681106128d2575093600184819794602096946002988896601f198116106128ba575b505050811b018755612869565b01515f1960f88460031b161c191690555f80806128ad565b91926020600181928685015181550194019201612886565b6001600160ff1b038181168203612984578316830361298457600884015f5260205f208360011b81015b8260011b820181106129275750506124db565b8061293460029254613b91565b80612947575b505f600182015501612914565b601f811160011461295d57505f81555b8e61293a565b5f9082825261297b601f60208420920160051c820160018301613bc9565b81835555612957565b634e487b7160e01b5f52601160045260245ffd5b6001906020845194019381840155016124a9565b6129c490600786015f5284845f209182019101613bc9565b8b61249b565b9190600684015f5260205f20905f935b601f1984168510612a1d576001945083601f19811610612a05575b505050811b016006820155612463565b01515f1960f88460031b161c191690558a80806129f5565b818101518355602094850194600190930192909101906129da565b9190600584015f5260205f20905f935b601f1984168510612a8b576001945083601f19811610612a73575b505050811b0160058201556123ff565b01515f1960f88460031b161c191690558a8080612a63565b81810151835560209485019460019093019290910190612a48565b9190600484015f5260205f20905f935b601f1984168510612af9576001945083601f19811610612ae1575b505050811b01600482015561239b565b01515f1960f88460031b161c191690558a8080612ad1565b81810151835560209485019460019093019290910190612ab6565b9190600384015f5260205f20905f935b601f1984168510612b67576001945083601f19811610612b4f575b505050811b016003820155612337565b01515f1960f88460031b161c191690558a8080612b3f565b81810151835560209485019460019093019290910190612b24565b9190600184015f5260205f20905f935b601f1984168510612bd5576001945083601f19811610612bbd575b505050811b016001820155612298565b01515f1960f88460031b161c191690558a8080612bad565b81810151835560209485019460019093019290910190612b92565b9190835f5260205f20905f935b601f1984168510612c3d576001945083601f19811610612c25575b505050811b018155612234565b01515f1960f88460031b161c191690558a8080612c18565b81810151835560209485019460019093019290910190612bfd565b889650612138565b4261014435116121315760405162461bcd60e51b8152602060048201526011602482015270125b9d985b1a5908195e1c1a5c995cd05d607a1b6044820152606490fd5b60405162461bcd60e51b815260206004820152601760248201527f436f756e7465727061727479206e6f74206163746976650000000000000000006044820152606490fd5b612d0a915060203d602011612d10575b612d028183613827565b81019061438a565b8e612121565b503d612cf8565b60405162461bcd60e51b8152602060048201526014602482015273496e69746961746f72206e6f742061637469766560601b6044820152606490fd5b612d6c915060203d602011612d1057612d028183613827565b8f6120d9565b60405162461bcd60e51b815260206004820152601060248201526f496e76616c69642063757272656e637960801b6044820152606490fd5b60405162461bcd60e51b8152602060048201526015602482015274496e76616c69642076616c756174696f6e4461746560581b6044820152606490fd5b60405162461bcd60e51b815260206004820152601860248201527f4d697373696e67207265717565737465642061737365747300000000000000006044820152606490fd5b60405162461bcd60e51b815260206004820152601760248201527f496e76616c696420636f756e74657270617274794749430000000000000000006044820152606490fd5b60405162461bcd60e51b8152602060048201526014602482015273496e76616c696420696e69746961746f7247494360601b6044820152606490fd5b60405162461bcd60e51b815260206004820152600c60248201526b4f726465722065786973747360a01b6044820152606490fd5b60405162461bcd60e51b815260206004820152601660248201527524b73b30b634b2103a3930b739b0b1ba34b7b72932b360511b6044820152606490fd5b60405162461bcd60e51b815260206004820152600d60248201526c2737ba1034b734ba34b0ba37b960991b6044820152606490fd5b809150518015159182612f6a575b50508c611f5a565b6020919250012087516020890120148c80612f62565b612f9491503d805f833e6119508183613827565b8c611f48565b60405162461bcd60e51b815260206004820152602b60248201527f4e6f7420617574686f72697a65643a206f726465722063726561746f7220726f60448201526a1b19481c995c5d5a5c995960aa1b6064820152608490fd5b90506020813d602011613025575b8161300e60209383613827565b810103126102005761301f90613a1e565b8c611f19565b3d9150613001565b506020813d602011613060575b8161304760209383613827565b810103126102005761305b611ee791613a1e565b611edc565b3d915061303a565b82356001600160401b0381116102005760c4350190604060231983360301126102005760405191613098836137c2565b6024810135916001600160401b038311610200576024936044602094936130c58695883691840101613899565b83520135838201528152019301929050611e0c565b34610200576060366003190112610200576001600160401b036004358181116102005761310b903690600401613899565b602435600781101561020057604435928311610200576131316024933690600401613899565b60015460405163fe575a8760e01b81523360048201529491939160209186919082906001600160a01b03165afa938415610580575f94613181575b5061317a61317f9415613a2b565b613da6565b005b93506020843d6020116131ba575b8161319c60209383613827565b810103126102005761317a6131b361317f95613a1e565b945061316c565b3d915061318f565b34610200575f366003190112610200576020600454604051908152f35b34610200576080366003190112610200576001600160401b0360043581811161020057613210903690600401613899565b6024803583811161020057613229903690600401613899565b60443584811161020057613241903690600401613899565b916064358581116102005761325a903690600401613911565b6001805460405163fe575a8760e01b8152336004820152602098929492939189908290859082906001600160a01b03165afa8015610580575f90613653575b6132a4915015613a2b565b6040518881816132ba8b83815193849201613971565b81016006815203019020956132d4600c8801541515613a92565b6132e061068b88613f74565b6132e93361404c565b1561360f57600287019560ff875460081c1660078110156135fc576135c75761331481511515613b0d565b61332082511515613b4e565b60058801815186811161354a5761333b816118158454613b91565b8b8c601f831160011461356857509080613369925f9161355d575b508160011b915f199060031b1c19161790565b90555b60068801825186811161354a57613387816118158454613b91565b8b8c601f83116001146134e25750816133c1959493926133ba925f916134d757508160011b915f199060031b1c19161790565b90556141fb565b805115613495576007860191815193841161348257600160401b8411613482575087908254848455808510613467575b5001905f52865f205f5b8381106134565750505050509161344860076040937ff606eb498f9a8bbf794e211a74a20fba192f8ad17ef6f358423d0f4a42bbaebf955b805461ff001916610100179055015491613c82565b9382519182524290820152a2005b8251828201559188019184016133fb565b61347c90845f5285845f209182019101613bc9565b896133f1565b634e487b7160e01b5f9081526041600452fd5b50505050916134486007837ff606eb498f9a8bbf794e211a74a20fba192f8ad17ef6f358423d0f4a42bbaebf956134d28360409701541515613c24565b613433565b90508501518f613356565b91899195949392601f19821696845f52815f20915f905b898210613531575050826133c19810613519575b5050811b0190556141fb565b8601515f1960f88460031b161c191690558e8061350d565b8289015184558d959093019291820191908101906134f9565b85634e487b7160e01b5f5260416004525ffd5b90508401518e613356565b899291601f198316855f52825f20925f905b8282106135ae5750508311613596575b5050811b01905561336c565b8501515f1960f88460031b161c191690558d8061358a565b8389015185558d9690940193928301929081019061357a565b60405162461bcd60e51b8152600481018b9052600e818601526d496e76616c69642073746174757360901b6044820152606490fd5b84634e487b7160e01b5f5260216004525ffd5b60405162461bcd60e51b8152600481018a9052601c818501527f4e6f7420617574686f72697a65643a20474d4f207265717569726564000000006044820152606490fd5b508881813d8311613682575b6136698183613827565b810103126102005761367d6132a491613a1e565b613299565b503d61365f565b3461020057613697366138b7565b60015460405163fe575a8760e01b8152336004820152602093918490829060249082906001600160a01b03165afa8015610580575f9061378c575b6136dd915015613a2b565b6002604051848184516136f38183858901613971565b8101600681520301902061370c600c8201541515613a92565b61371581613f74565b8015613778575b61372590613ad0565b01805461373760ff8260081c1661463a565b8351156104ff5761ff0019166105001790557f97a94f0cddc66a7e07e262bdc7528eb7b2b3428993c96bf38277a092b0d2ff59916104f4916104df90613c82565b506137256137853361404c565b905061371c565b508381813d83116137bb575b6137a28183613827565b81010312610200576137b66136dd91613a1e565b6136d2565b503d613798565b604081019081106001600160401b038211176119ec57604052565b61022081019081106001600160401b038211176119ec57604052565b60a081019081106001600160401b038211176119ec57604052565b6001600160401b0381116119ec57604052565b90601f801991011681019081106001600160401b038211176119ec57604052565b6001600160401b0381116119ec57601f01601f191660200190565b92919261386f82613848565b9161387d6040519384613827565b829481845281830111610200578281602093845f960137010152565b9080601f83011215610200578160206138b493359101613863565b90565b906040600319830112610200576001600160401b0360043581811161020057836138e391600401613899565b92602435918211610200576138b491600401613899565b6001600160401b0381116119ec5760051b60200190565b9080601f8301121561020057602090823561392b816138fa565b936139396040519586613827565b81855260208086019260051b82010192831161020057602001905b828210613962575050505090565b81358152908301908301613954565b5f5b8381106139825750505f910152565b8181015183820152602001613973565b906020916139ab81518092818552858086019101613971565b601f01601f1916010190565b906004821015610b345752565b906007821015610b345752565b604051906139de826137c2565b600982526834b734ba34b0ba37b960b91b6020830152565b60405190613a03826137c2565b600c82526b636f756e746572706172747960a01b6020830152565b5190811515820361020057565b15613a3257565b60405162461bcd60e51b815260206004820152601260248201527110d85b1b195c88189b1858dadb1a5cdd195960721b6044820152606490fd5b602090613a86928260405194838680955193849201613971565b82019081520301902090565b15613a9957565b60405162461bcd60e51b815260206004820152600f60248201526e13dc99195c881b9bdd08199bdd5b99608a1b6044820152606490fd5b15613ad757565b60405162461bcd60e51b815260206004820152600e60248201526d139bdd08185d5d1a1bdc9a5e995960921b6044820152606490fd5b15613b1457565b60405162461bcd60e51b815260206004820152601260248201527124b73b30b634b21039b2b73232b924a3a0a760711b6044820152606490fd5b15613b5557565b60405162461bcd60e51b815260206004820152601460248201527324b73b30b634b2103932b1b2b4bb32b924a3a0a760611b6044820152606490fd5b90600182811c92168015613bbf575b6020831014613bab57565b634e487b7160e01b5f52602260045260245ffd5b91607f1691613ba0565b818110613bd4575050565b5f8155600101613bc9565b9190601f8111613bee57505050565b613c18925f5260205f20906020601f840160051c83019310613c1a575b601f0160051c0190613bc9565b565b9091508190613c0b565b15613c2b57565b60405162461bcd60e51b815260206004820152601060248201526f4d697373696e6720746f6b656e49647360801b6044820152606490fd5b906007811015610b345761ff0082549160081b169061ff001916179055565b613c9a90602060405192828480945193849201613971565b810103902090565b81601f82011215610200578051613cb881613848565b92613cc66040519485613827565b81845260208284010111610200576138b49160208085019101613971565b906020828203126102005781516001600160401b038111610200576138b49201613ca2565b80545f9392613d1782613b91565b918282526020936001916001811690815f14613d7b5750600114613d3d575b5050505050565b90939495505f92919252835f2092845f945b838610613d6757505050500101905f80808080613d36565b805485870183015294019385908201613d4f565b60ff19168685015250505090151560051b010191505f80808080613d36565b6004821015610b345752565b9091604080519384845160209681613dc2899383858b01613971565b81016006815203019020613ddb600c8201541515613a92565b613de481613f74565b8015613f60575b613df490613ad0565b6002810190613e0a8360ff845460081c16614792565b600783101580610b3457600584149284848015613f50575b613f0c575b613e3091613c63565b610b345760048314613ec25750613e9757600614613e4e5750505050565b613e787f02e9305cecf09be907ffd0503eb73fcbe81d21bca8403188cbcc53e4387d9dc993613c82565b93613e8c8251938385948552840190613992565b9042908301520390a2565b50613e787f97a94f0cddc66a7e07e262bdc7528eb7b2b3428993c96bf38277a092b0d2ff5993613c82565b7ff236a289260b80b8f670f639c87bc95b2efa9286807681fea2d11b9959b1f0df95939450613efe92506007915042600e820155015491613c82565b9382519182524290820152a2565b50865115613f1a5784613e27565b855162461bcd60e51b8152600481018a9052600f60248201526e1499585cdbdb881c995c5d5a5c9959608a1b6044820152606490fd5b505090505f908460068114613e22565b50613df4613f6d3361404c565b9050613deb565b613f7d3361404c565b614046576001546040516349d0104160e11b815233600482015291905f90839060249082906001600160a01b03165afa918215610580575f9261402a575b50815180156140235760208301908120604051613fdf816103988160038801613d09565b6020815191012014928315613ff5575b50505090565b60049293509061401391519020926103986040518094819301613d09565b60208151910120145f8080613fef565b5050505f90565b61403f9192503d805f833e6119508183613827565b905f613fbb565b50600190565b600154604051638cbdcead60e01b81526001600160a01b03928316600482015260c060248201529160209183916044918391165afa908115610580575f91614092575090565b90506020813d6020116140be575b816140ad60209383613827565b81010312610200576138b490613a1e565b3d91506140a0565b6020818303126102005780516001600160401b039182821161020057019061016092838382031261020057604051938401848110838211176119ec576040528251828111610200578161411a918501613ca2565b845260208301518281116102005781614134918501613ca2565b602085015260408301516001600160a01b03811681036102005760408501526060830151828111610200578161416b918501613ca2565b606085015260808301518281116102005781614188918501613ca2565b608085015260a083015182811161020057816141a5918501613ca2565b60a085015260c083015160c085015260e0830151918211610200576141cb918301613ca2565b60e0830152610100808201519083015261012080820151908301526141f4610140809201613a1e565b9082015290565b6002546001600160a01b0316918215614371576040928351925f84806142376302f8780d60e31b94858352602060048401526024830190613992565b0381855afa938415614367575f94614341575b50915f9161426d9386518095819482938352602060048401526024830190613992565b03915afa908115614337575f9161431d575b5061014080920151156142d9570151156142965750565b5162461bcd60e51b815260206004820152601960248201527f5265636569766572206163636f756e7420696e616374697665000000000000006044820152606490fd5b825162461bcd60e51b815260206004820152601760248201527f53656e646572206163636f756e7420696e6163746976650000000000000000006044820152606490fd5b61433191503d805f833e610a188183613827565b5f61427f565b83513d5f823e3d90fd5b61426d939194509161435d5f933d8086833e610a188183613827565b949193509161424a565b85513d5f823e3d90fd5b505050565b8051821015611afb5760209160051b010190565b90816020910312610200575160ff811681036102005790565b5f546001600160a01b031633036143b657565b60405163118cdaa760e01b8152336004820152602490fd5b156143d557565b60405162461bcd60e51b815260206004820152601960248201527f476f6c644163636f756e744c6564676572206e6f7420736574000000000000006044820152606490fd5b8054821015611afb575f5260205f2001905f90565b600254614446906001600160a01b031615156143ce565b600581019160405161445c816103988187613d09565b6020815191012090600683019160405161447a816103988187613d09565b60208151910120146145e0575f5b6007840180548210156145d8578161449f9161441a565b905460025460039290921b1c91906001600160a01b0316803b15610200575f604051809263303a694160e11b825260806004830152818360406144e68d6084850190613d09565b821960248501526b1514905394d1915497d3d55560a21b60208583039260031984016044880152600c8152015289606485015201925af18015610580576145c9575b506002546001600160a01b0316803b15610200576040805163303a694160e11b815260806004820152935f928592909183918591614569608485018c613d09565b90600160248601526a2a2920a729a322a92fa4a760a91b60208684039360031985016044890152600b81520152606485015201925af1908115610580576007926001926145ba575b50019050614488565b6145c390613814565b5f6145b1565b6145d290613814565b5f614528565b505092505050565b92505050565b606090602081526015602082015274496e76616c696420737461747573206368616e676560581b60408201520190565b1561461d57565b60405162461bcd60e51b815280614636600482016145e6565b0390fd5b6007811015610b34576005811461469157600481146146ca57600681146146945780156146915760018114614691576003811461469157600214613c185760405162461bcd60e51b815280614636600482016145e6565b50565b60405162461bcd60e51b815260206004820152600e60248201526d105b1c9958591e4819985a5b195960921b6044820152606490fd5b60405162461bcd60e51b815260206004820152601060248201526f105b1c9958591e48195e1958dd5d195960821b6044820152606490fd5b6007811015610b34576006811461469157600481146146ca57600581146147595780156146915760018114614691576003811461469157600214613c185760405162461bcd60e51b815280614636600482016145e6565b60405162461bcd60e51b8152602060048201526011602482015270105b1c9958591e4818d85b98d95b1b1959607a1b6044820152606490fd5b90600781101580610b34576007831015610b34578183146143715760049283811461493057600581146148f857600681146148c35780156148a1576001811461487c5760038114614857576002146147fc5760405162461bcd60e51b8152806146368186016145e6565b9091816148375780831491821561484a575b8215614821575b5050613c189150614616565b90915061483757506006613c1891145f80614815565b602190634e487b7160e01b5f525260245ffd5b506005831491505f61480e565b50909181614837576002831491821561484a578215614821575050613c189150614616565b50909181614837576003831491821561484a578215614821575050613c189150614616565b5050905f906001831491821561484a578215614821575050613c189150614616565b60405162461bcd60e51b8152602081860152600e60248201526d105b1c9958591e4819985a5b195960921b6044820152606490fd5b60405162461bcd60e51b81526020818601526011602482015270105b1c9958591e4818d85b98d95b1b1959607a1b6044820152606490fd5b60405162461bcd60e51b8152602081860152601060248201526f105b1c9958591e48195e1958dd5d195960821b6044820152606490fdfea264697066735822122039f7987ac2b51c9b99aa11bbb1ab415d7f3a7b48bc3ba776ce7bf0a46eb2906464736f6c63430008180033","linkReferences":{}},"methodIdentifiers":{"MEMBER_ACTIVE()":"4a680b42","ROLE_GMO()":"7589b7de","ROLE_MINTER()":"92afc33a","ROLE_ORDER_CREATOR()":"6fe54792","ROLE_REFINER()":"d0473a65","ROLE_TRADER()":"45eed0db","accountLedger()":"5defa55e","cancelOrder(string,string)":"04b5bf4f","counterparty()":"c3df6546","createOrder(string,string,uint8,string,string,uint256[],(string,uint256)[],string,string,uint256,uint256,string,string)":"2fdee1f3","executeOrder(string)":"d8224ea8","failOrder(string,string)":"e9e32947","getOrderDetails(string)":"4fbb487c","getOrderSignatures(string)":"ea9dc25d","getOrderStatus(string)":"aedfb5d3","goldAssetToken()":"ca698bc8","initiator()":"5c39fcc1","memberRegistry()":"a74d4772","minSignatures()":"238acaa2","owner()":"8da5cb5b","prepareOrder(string,string,string,uint256[])":"169502f6","renounceOwnership()":"715018a6","setExecutionOptions(bool,bool)":"db413d9e","setGoldAccountLedger(address)":"94ae772f","setGoldAssetToken(address)":"4fe5043d","setMemberRegistry(address)":"6fd7c34c","setMinSignatures(uint256)":"5a546098","signOrder(string,bytes,string)":"4b4555b1","transferAssetsOnExecute()":"8486bdc4","transferOwnership(address)":"f2fde38b","updateLedgerOnExecute()":"51d80ef3","updateOrderStatus(string,uint8,string)":"2f7554ac"},"id":7}