{"abi":[{"type":"constructor","inputs":[{"name":"_memberRegistry","type":"address","internalType":"address"}],"stateMutability":"nonpayable"},{"type":"function","name":"MEMBER_ACTIVE","inputs":[],"outputs":[{"name":"","type":"uint8","internalType":"uint8"}],"stateMutability":"view"},{"type":"function","name":"ROLE_GMO","inputs":[],"outputs":[{"name":"","type":"uint256","internalType":"uint256"}],"stateMutability":"view"},{"type":"function","name":"ROLE_MINTER","inputs":[],"outputs":[{"name":"","type":"uint256","internalType":"uint256"}],"stateMutability":"view"},{"type":"function","name":"ROLE_ORDER_CREATOR","inputs":[],"outputs":[{"name":"","type":"uint256","internalType":"uint256"}],"stateMutability":"view"},{"type":"function","name":"ROLE_REFINER","inputs":[],"outputs":[{"name":"","type":"uint256","internalType":"uint256"}],"stateMutability":"view"},{"type":"function","name":"ROLE_TRADER","inputs":[],"outputs":[{"name":"","type":"uint256","internalType":"uint256"}],"stateMutability":"view"},{"type":"function","name":"ROLE_VAULT_OP","inputs":[],"outputs":[{"name":"","type":"uint256","internalType":"uint256"}],"stateMutability":"view"},{"type":"function","name":"accountLedger","inputs":[],"outputs":[{"name":"","type":"address","internalType":"contract IGoldAccountLedger"}],"stateMutability":"view"},{"type":"function","name":"cancelOrder","inputs":[{"name":"txRef","type":"string","internalType":"string"},{"name":"reason","type":"string","internalType":"string"}],"outputs":[],"stateMutability":"nonpayable"},{"type":"function","name":"counterparty","inputs":[],"outputs":[{"name":"","type":"string","internalType":"string"}],"stateMutability":"view"},{"type":"function","name":"createOrder","inputs":[{"name":"transactionRef","type":"string","internalType":"string"},{"name":"transactionId","type":"string","internalType":"string"},{"name":"txType","type":"uint8","internalType":"enum TransactionOrderBook.TransactionType"},{"name":"initiatorGIC","type":"string","internalType":"string"},{"name":"counterpartyGIC","type":"string","internalType":"string"},{"name":"tokenIds","type":"uint256[]","internalType":"uint256[]"},{"name":"requestedAssets","type":"tuple[]","internalType":"struct TransactionOrderBook.RequestedAsset[]","components":[{"name":"goldProductTypeId","type":"string","internalType":"string"},{"name":"quantityGrams","type":"uint256","internalType":"uint256"}]},{"name":"valuationDate","type":"string","internalType":"string"},{"name":"valuationCurrency","type":"string","internalType":"string"},{"name":"transactionValue","type":"uint256","internalType":"uint256"},{"name":"expiresAt","type":"uint256","internalType":"uint256"},{"name":"senderIGAN","type":"string","internalType":"string"},{"name":"receiverIGAN","type":"string","internalType":"string"}],"outputs":[{"name":"txRef","type":"string","internalType":"string"}],"stateMutability":"nonpayable"},{"type":"function","name":"executeOrder","inputs":[{"name":"txRef","type":"string","internalType":"string"}],"outputs":[],"stateMutability":"nonpayable"},{"type":"function","name":"failOrder","inputs":[{"name":"txRef","type":"string","internalType":"string"},{"name":"reason","type":"string","internalType":"string"}],"outputs":[],"stateMutability":"nonpayable"},{"type":"function","name":"getOrderDetails","inputs":[{"name":"txRef","type":"string","internalType":"string"}],"outputs":[{"name":"order","type":"tuple","internalType":"struct TransactionOrderBook.TransactionOrder","components":[{"name":"transactionRef","type":"string","internalType":"string"},{"name":"transactionId","type":"string","internalType":"string"},{"name":"txType","type":"uint8","internalType":"enum TransactionOrderBook.TransactionType"},{"name":"status","type":"uint8","internalType":"enum TransactionOrderBook.TransactionStatus"},{"name":"initiatorGIC","type":"string","internalType":"string"},{"name":"counterpartyGIC","type":"string","internalType":"string"},{"name":"senderIGAN","type":"string","internalType":"string"},{"name":"receiverIGAN","type":"string","internalType":"string"},{"name":"tokenIds","type":"uint256[]","internalType":"uint256[]"},{"name":"requestedAssets","type":"tuple[]","internalType":"struct TransactionOrderBook.RequestedAsset[]","components":[{"name":"goldProductTypeId","type":"string","internalType":"string"},{"name":"quantityGrams","type":"uint256","internalType":"uint256"}]},{"name":"valuationDate","type":"string","internalType":"string"},{"name":"valuationCurrency","type":"string","internalType":"string"},{"name":"transactionValue","type":"uint256","internalType":"uint256"},{"name":"createdAt","type":"uint256","internalType":"uint256"},{"name":"expiresAt","type":"uint256","internalType":"uint256"},{"name":"executedAt","type":"uint256","internalType":"uint256"},{"name":"createdBy","type":"address","internalType":"address"}]}],"stateMutability":"view"},{"type":"function","name":"getOrderSignatures","inputs":[{"name":"txRef","type":"string","internalType":"string"}],"outputs":[{"name":"","type":"tuple[]","internalType":"struct TransactionOrderBook.Signature[]","components":[{"name":"signer","type":"address","internalType":"address"},{"name":"signerUserId","type":"string","internalType":"string"},{"name":"signerRole","type":"string","internalType":"string"},{"name":"signature","type":"bytes","internalType":"bytes"},{"name":"signedAt","type":"uint256","internalType":"uint256"}]}],"stateMutability":"view"},{"type":"function","name":"getOrderStatus","inputs":[{"name":"txRef","type":"string","internalType":"string"}],"outputs":[{"name":"","type":"uint8","internalType":"enum TransactionOrderBook.TransactionStatus"}],"stateMutability":"view"},{"type":"function","name":"goldAssetToken","inputs":[],"outputs":[{"name":"","type":"address","internalType":"contract IGoldAssetToken"}],"stateMutability":"view"},{"type":"function","name":"initiator","inputs":[],"outputs":[{"name":"","type":"string","internalType":"string"}],"stateMutability":"view"},{"type":"function","name":"memberRegistry","inputs":[],"outputs":[{"name":"","type":"address","internalType":"contract IMemberRegistryExtended"}],"stateMutability":"view"},{"type":"function","name":"minSignatures","inputs":[],"outputs":[{"name":"","type":"uint256","internalType":"uint256"}],"stateMutability":"view"},{"type":"function","name":"owner","inputs":[],"outputs":[{"name":"","type":"address","internalType":"address"}],"stateMutability":"view"},{"type":"function","name":"prepareOrder","inputs":[{"name":"transactionRef","type":"string","internalType":"string"},{"name":"transactionId","type":"string","internalType":"string"},{"name":"txType","type":"uint8","internalType":"enum TransactionOrderBook.TransactionType"},{"name":"initiatorGIC","type":"string","internalType":"string"},{"name":"counterpartyGIC","type":"string","internalType":"string"},{"name":"senderIGAN","type":"string","internalType":"string"},{"name":"receiverIGAN","type":"string","internalType":"string"},{"name":"tokenIds","type":"uint256[]","internalType":"uint256[]"},{"name":"requestedAssets","type":"tuple[]","internalType":"struct TransactionOrderBook.RequestedAsset[]","components":[{"name":"goldProductTypeId","type":"string","internalType":"string"},{"name":"quantityGrams","type":"uint256","internalType":"uint256"}]},{"name":"valuationDate","type":"string","internalType":"string"},{"name":"valuationCurrency","type":"string","internalType":"string"},{"name":"transactionValue","type":"uint256","internalType":"uint256"},{"name":"expiresAt","type":"uint256","internalType":"uint256"},{"name":"signerUserId","type":"string","internalType":"string"},{"name":"signature","type":"bytes","internalType":"bytes"}],"outputs":[{"name":"txRef","type":"string","internalType":"string"}],"stateMutability":"nonpayable"},{"type":"function","name":"renounceOwnership","inputs":[],"outputs":[],"stateMutability":"nonpayable"},{"type":"function","name":"setExecutionOptions","inputs":[{"name":"_transferAssetsOnExecute","type":"bool","internalType":"bool"},{"name":"_updateLedgerOnExecute","type":"bool","internalType":"bool"}],"outputs":[],"stateMutability":"nonpayable"},{"type":"function","name":"setGoldAccountLedger","inputs":[{"name":"_accountLedger","type":"address","internalType":"address"}],"outputs":[],"stateMutability":"nonpayable"},{"type":"function","name":"setGoldAssetToken","inputs":[{"name":"_goldAssetToken","type":"address","internalType":"address"}],"outputs":[],"stateMutability":"nonpayable"},{"type":"function","name":"setMemberRegistry","inputs":[{"name":"_memberRegistry","type":"address","internalType":"address"}],"outputs":[],"stateMutability":"nonpayable"},{"type":"function","name":"setMinSignatures","inputs":[{"name":"_minSignatures","type":"uint256","internalType":"uint256"}],"outputs":[],"stateMutability":"nonpayable"},{"type":"function","name":"signOrder","inputs":[{"name":"txRef","type":"string","internalType":"string"},{"name":"signature","type":"bytes","internalType":"bytes"},{"name":"signerRole","type":"string","internalType":"string"}],"outputs":[],"stateMutability":"nonpayable"},{"type":"function","name":"transferAssetsOnExecute","inputs":[],"outputs":[{"name":"","type":"bool","internalType":"bool"}],"stateMutability":"view"},{"type":"function","name":"transferOwnership","inputs":[{"name":"newOwner","type":"address","internalType":"address"}],"outputs":[],"stateMutability":"nonpayable"},{"type":"function","name":"updateLedgerOnExecute","inputs":[],"outputs":[{"name":"","type":"bool","internalType":"bool"}],"stateMutability":"view"},{"type":"function","name":"updateOrderStatus","inputs":[{"name":"txRef","type":"string","internalType":"string"},{"name":"newStatus","type":"uint8","internalType":"enum TransactionOrderBook.TransactionStatus"},{"name":"reason","type":"string","internalType":"string"}],"outputs":[],"stateMutability":"nonpayable"},{"type":"event","name":"OrderCancelled","inputs":[{"name":"transactionRef","type":"string","indexed":true,"internalType":"string"},{"name":"reason","type":"string","indexed":false,"internalType":"string"},{"name":"timestamp","type":"uint256","indexed":false,"internalType":"uint256"}],"anonymous":false},{"type":"event","name":"OrderCreated","inputs":[{"name":"transactionRef","type":"string","indexed":true,"internalType":"string"},{"name":"transactionId","type":"string","indexed":false,"internalType":"string"},{"name":"txType","type":"uint8","indexed":false,"internalType":"enum TransactionOrderBook.TransactionType"},{"name":"initiatorGIC","type":"string","indexed":false,"internalType":"string"},{"name":"counterpartyGIC","type":"string","indexed":false,"internalType":"string"},{"name":"requestedAssetCount","type":"uint256","indexed":false,"internalType":"uint256"},{"name":"valuationCurrency","type":"string","indexed":false,"internalType":"string"},{"name":"transactionValue","type":"uint256","indexed":false,"internalType":"uint256"},{"name":"status","type":"uint8","indexed":false,"internalType":"enum TransactionOrderBook.TransactionStatus"},{"name":"timestamp","type":"uint256","indexed":false,"internalType":"uint256"},{"name":"expiresAt","type":"uint256","indexed":false,"internalType":"uint256"}],"anonymous":false},{"type":"event","name":"OrderExecuted","inputs":[{"name":"transactionRef","type":"string","indexed":true,"internalType":"string"},{"name":"tokenCount","type":"uint256","indexed":false,"internalType":"uint256"},{"name":"timestamp","type":"uint256","indexed":false,"internalType":"uint256"}],"anonymous":false},{"type":"event","name":"OrderFailed","inputs":[{"name":"transactionRef","type":"string","indexed":true,"internalType":"string"},{"name":"reason","type":"string","indexed":false,"internalType":"string"},{"name":"timestamp","type":"uint256","indexed":false,"internalType":"uint256"}],"anonymous":false},{"type":"event","name":"OrderPrepared","inputs":[{"name":"transactionRef","type":"string","indexed":true,"internalType":"string"},{"name":"tokenCount","type":"uint256","indexed":false,"internalType":"uint256"},{"name":"timestamp","type":"uint256","indexed":false,"internalType":"uint256"}],"anonymous":false},{"type":"event","name":"OrderSigned","inputs":[{"name":"transactionRef","type":"string","indexed":true,"internalType":"string"},{"name":"signer","type":"address","indexed":true,"internalType":"address"},{"name":"signerUserId","type":"string","indexed":false,"internalType":"string"},{"name":"signerRole","type":"string","indexed":false,"internalType":"string"},{"name":"signaturesCollected","type":"uint256","indexed":false,"internalType":"uint256"},{"name":"signaturesRequired","type":"uint256","indexed":false,"internalType":"uint256"},{"name":"timestamp","type":"uint256","indexed":false,"internalType":"uint256"}],"anonymous":false},{"type":"event","name":"OwnershipTransferred","inputs":[{"name":"previousOwner","type":"address","indexed":true,"internalType":"address"},{"name":"newOwner","type":"address","indexed":true,"internalType":"address"}],"anonymous":false},{"type":"error","name":"OwnableInvalidOwner","inputs":[{"name":"owner","type":"address","internalType":"address"}]},{"type":"error","name":"OwnableUnauthorizedAccount","inputs":[{"name":"account","type":"address","internalType":"address"}]}],"bytecode":{"object":"0x6080346200012657601f62004f5338819003918201601f19168301916001600160401b038311848410176200012a578084926020946040528339810103126200012657516001600160a01b0380821691829003620001265733156200010e575f549060018060a01b03199133838216175f55604051913391167f8be0079c531659141344cd1fd0a4f28419497f9722a3daafe3b4186f6b6457e05f80a3600260045561ffff19600554166005558215620000cc57506001541617600155604051614e1490816200013f8239f35b62461bcd60e51b815260206004820152601660248201527f496e76616c6964204d656d6265725265676973747279000000000000000000006044820152606490fd5b604051631e4fbdf760e01b81525f6004820152602490fd5b5f80fd5b634e487b7160e01b5f52604160045260245ffdfe60806040526004361015610011575f80fd5b5f3560e01c806304b5bf4f14612695578063088aec0114611e45578063238acaa214611e285780632f7554ac14611d405780632fdee1f31461199557806345eed0db146119795780634a680b4214610bc55780634b4555b1146114495780634fbb487c14610faa5780634fe5043d14610f6557806351d80ef314610f405780635a54609814610eda5780635c39fcc114610ebf5780635defa55e14610e975780636fd7c34c14610e0e5780636fe5479214610df2578063715018a614610d9b5780637589b7de14610d805780638486bdc414610d5e5780638da5cb5b14610d3757806392afc33a14610d1c57806394ae772f14610cd7578063a74d477214610caf578063aedfb5d314610c56578063bf75fda414610c3b578063c3df654614610c08578063ca698bc814610be0578063d0473a6514610bc5578063d8224ea8146105d7578063db413d9e14610586578063e9e32947146103eb578063ea9dc25d1461020f5763f2fde38b14610184575f80fd5b3461020b57602036600319011261020b576004356001600160a01b038181169182900361020b576101b36147b6565b81156101f3575f54826001600160601b0360a01b8216175f55167f8be0079c531659141344cd1fd0a4f28419497f9722a3daafe3b4186f6b6457e05f80a3005b604051631e4fbdf760e01b81525f6004820152602490fd5b5f80fd5b3461020b5760208060031936011261020b576004356001600160401b03811161020b578161024461028592369060040161288b565b60405190610274600c82519385818186019661026181838a612a43565b8101600681520301902001541515613116565b604051938492839251928391612a43565b810160078152030190209081549161029c83612917565b926102aa604051948561284f565b80845282840180925f52835f205f915b8383106103705750505050604051918083019381845251809452604083019360408160051b85010192915f955b8287106102f45785850386f35b909192938280600192603f1989820301855287519061035661034361033160a0888060a01b03865116855286860151908088870152850190612a64565b60408501518482036040860152612a64565b6060808501519084830390850152612a64565b9160808091015191015296019201960195929190926102e7565b600586600192604099989951610385816127ea565b848060a01b03865416815261039b858701613154565b838201526103ab60028701613154565b60408201526040516103cb816103c48160038b01613269565b038261284f565b6060820152600486015460808201528152019201920191909594956102ba565b3461020b576103f9366128d1565b60015460405163fe575a8760e01b8152336004820152602093918490829060249082906001600160a01b03165afa801561057b575f90610545575b61043f915015612afd565b6002604051848184516104558183858901612a43565b8101600681520301902061046e600c8201541515613116565b610477816147e1565b8015610531575b610487906131f4565b01805461049960ff8260081c16614be5565b8351156104fa5761ff0019166105001790557f02e9305cecf09be907ffd0503eb73fcbe81d21bca8403188cbcc53e4387d9dc9916104ef916104da906130f6565b93604051928392604084526040840190612a64565b9042908301520390a2005b60405162461bcd60e51b815260048101869052600f60248201526e1499585cdbdb881c995c5d5a5c9959608a1b6044820152606490fd5b5061048761053e336134c8565b905061047e565b508381813d8311610574575b61055b818361284f565b8101031261020b5761056f61043f91612af0565b610434565b503d610551565b6040513d5f823e3d90fd5b3461020b57604036600319011261020b5760043580151580910361020b5760243580151580910361020b576105b96147b6565b60ff61ff006005549260081b1692169061ffff191617176005555f80f35b3461020b57602036600319011261020b576004356001600160401b03811161020b5761060790369060040161288b565b60015460405163fe575a8760e01b815233600482015290602090829060249082906001600160a01b03165afa801561057b575f90610b8a575b61064b915015612afd565b60405160208183516106608183858801612a43565b810160068152030190209061067a600c8301541515613116565b61068b610686836147e1565b6131f4565b60ff600283015460081c166006811015610b765760026106ab9114613231565b600582016106b98154612d54565b15610b3c576106cb6006840154612d54565b15610b00576106df60078401541515612b9e565b60ff6005541661075f575b5090604061074260077ff236a289260b80b8f670f639c87bc95b2efa9286807681fea2d11b9959b1f0df9360ff60055460081c16610751575b60028101805461ff00191661030017905542600e8201550154936130f6565b928151908152426020820152a2005b61075a8161491a565b610723565b6003546001600160a01b031615610ac2576107ae925f60018060a01b03600254169261078c8415156148b9565b604051809681926302f8780d60e31b8352602060048401526024830190613269565b0381855afa93841561057b575f94610aa6575b505f60405180936302f8780d60e31b82526020600483015281806107eb6024820160068801613269565b03915afa91821561057b575f92610a82575b5060408401516001600160a01b031615610a445760408201516001600160a01b0316156109ff575f5b60078201548110156109f35761083f8160078401614905565b90549060031b1c9060018060a01b03600354166040519063823a65f560e01b8252836004830152602082602481845afa91821561057b575f926109c2575b50600260ff831614610950575b5060ff1660031461091c57600354604087810151908601516001600160a01b03918216929082169116803b1561020b575f928360c4926040519788958694637921219560e11b86526004860152602485015260448401526001606484015260a060848401528160a48401525af191821561057b5760019261090d575b5001610826565b6109169061283c565b86610906565b60405162461bcd60e51b815260206004820152600c60248201526b105cdcd95d081b1bd8dad95960a21b6044820152606490fd5b8091503b1561020b575f809160a460405180948193633c0f85b960e11b83528860048401526001602484015260606044840152600960648401526811115312559154915160ba1b60848401525af1801561057b576109b3575b50600160ff61088a565b6109bc9061283c565b866109a9565b6109e591925060203d6020116109ec575b6109dd818361284f565b810190613806565b908861087d565b503d6109d3565b509250604090506106ea565b60405162461bcd60e51b815260206004820152601860248201527f496e76616c6964207265636569766572206164647265737300000000000000006044820152606490fd5b60405162461bcd60e51b8152602060048201526016602482015275496e76616c69642073656e646572206164647265737360501b6044820152606490fd5b610a9f9192503d805f833e610a97818361284f565b810190613542565b90846107fd565b610abb9194503d805f833e610a97818361284f565b92846107c1565b60405162461bcd60e51b815260206004820152601660248201527511dbdb19105cdcd95d151bdad95b881b9bdd081cd95d60521b6044820152606490fd5b60405162461bcd60e51b815260206004820152601460248201527326b4b9b9b4b733903932b1b2b4bb32b924a3a0a760611b6044820152606490fd5b60405162461bcd60e51b815260206004820152601260248201527126b4b9b9b4b7339039b2b73232b924a3a0a760711b6044820152606490fd5b634e487b7160e01b5f52602160045260245ffd5b506020813d602011610bbd575b81610ba46020938361284f565b8101031261020b57610bb861064b91612af0565b610640565b3d9150610b97565b3461020b575f36600319011261020b57602060405160018152f35b3461020b575f36600319011261020b576003546040516001600160a01b039091168152602090f35b3461020b575f36600319011261020b57610c37610c23612ac8565b604051918291602083526020830190612a64565b0390f35b3461020b575f36600319011261020b57602060405160088152f35b3461020b57602036600319011261020b576004356001600160401b03811161020b5760ff6002610c9060206102448195369060040161288b565b81016006815203019020015460081c16610cad6040518092612a96565bf35b3461020b575f36600319011261020b576001546040516001600160a01b039091168152602090f35b3461020b57602036600319011261020b576004356001600160a01b0381169081900361020b57610d056147b6565b6001600160601b0360a01b60025416176002555f80f35b3461020b575f36600319011261020b57602060405160028152f35b3461020b575f36600319011261020b575f546040516001600160a01b039091168152602090f35b3461020b575f36600319011261020b57602060ff600554166040519015158152f35b3461020b575f36600319011261020b57602060405160c08152f35b3461020b575f36600319011261020b57610db36147b6565b5f80546001600160a01b0319811682556001600160a01b03167f8be0079c531659141344cd1fd0a4f28419497f9722a3daafe3b4186f6b6457e08280a3005b3461020b575f36600319011261020b5760206040516101cb8152f35b3461020b57602036600319011261020b576004356001600160a01b0381169081900361020b57610e3c6147b6565b8015610e59576001600160601b0360a01b60015416176001555f80f35b60405162461bcd60e51b8152602060048201526016602482015275496e76616c6964204d656d626572526567697374727960501b6044820152606490fd5b3461020b575f36600319011261020b576002546040516001600160a01b039091168152602090f35b3461020b575f36600319011261020b57610c37610c23612aa3565b3461020b57602036600319011261020b57600435610ef66147b6565b60028103610f0357600455005b60405162461bcd60e51b8152602060048201526015602482015274496e76616c6964206d696e5369676e61747572657360581b6044820152606490fd5b3461020b575f36600319011261020b57602060ff60055460081c166040519015158152f35b3461020b57602036600319011261020b576004356001600160a01b0381169081900361020b57610f936147b6565b6001600160601b0360a01b60035416176003555f80f35b3461020b57602036600319011261020b576004356001600160401b03811161020b576020610fdf61107c92369060040161288b565b5f610200604051610fef81612805565b6060815260608582015282604082015282606082015260606080820152606060a0820152606060c0820152606060e0820152606061010082015260606101208201526060610140820152606061016082015282610180820152826101a0820152826101c0820152826101e0820152015260405190610274600c82519385818186019661026181838a612a43565b810160068152030190206040519061109382612805565b61109c81613154565b82526110aa60018201613154565b602083015260028101546110c460ff821660408501612de7565b600660ff8260081c161015610b765760081c60ff1660608301526110ea60038201613154565b60808301526110fb60048201613154565b60a083015261110c60058201613154565b60c083015261111d60068201613154565b60e083015260078101604051808260208294549384815201905f5260205f20925f5b8181106114305750506111549250038261284f565b610100830152600881015461116881612917565b90611176604051928361284f565b80825260208201600884015f5260205f205f915b8383106113fc57505050506101208301526111a760098201613154565b6101408301526111b9600a8201613154565b610160830152600b810154610180830152600c8101546101a0830152600d8101546101c0830152600e8101546101e0830152600f60018060a01b0391015416610200820152604051602081526112bf6112a861129261127c61124261122c87516102206020890152610240880190612a64565b6020880151878203601f19016040890152612a64565b61125460408801516060880190612a89565b61126660608801516080880190612a96565b6080870151868203601f190160a0880152612a64565b60a0860151858203601f190160c0870152612a64565b60c0850151848203601f190160e0860152612a64565b60e0840151838203601f1901610100850152612a64565b9161010081015192601f1983820301610120840152602080855192838152019401905f5b8181106113e65750505061012081015192601f1983820301610140840152835180825260208201916020808360051b8301019601925f915b8383106113a55786808761135c6113448c610140840151601f1986830301610160870152612a64565b610160830151848203601f1901610180860152612a64565b906101808101516101a08401526101a08101516101c08401526101c08101516101e08401526101e081015161020084015261020060018060a01b03910151166102208301520390f35b9091929396602080600192601f198582030186528a519082806113d18451604085526040850190612a64565b9301519101529901930193019193929061131b565b82518652602095860195909201916001016112e3565b6002602060019260405161140f81612821565b61141886613154565b8152848601548382015281520192019201919061118a565b845483526001948501948694506020909301920161113f565b3461020b57606036600319011261020b576001600160401b0360043581811161020b5761147a90369060040161288b565b6024803583811161020b5761149390369060040161288b565b9260443590811161020b576114ac90369060040161288b565b60015460405163fe575a8760e01b8152336004820152602095929492916001600160a01b039081169187818781865afa801561057b575f90611943575b6114f4915015612afd565b6040519584519688818188019961150c81838d612a43565b8101600681520301902090611526600c8301541515613116565b611532610686836147e1565b61153b336134c8565b156118ff5761154c85511515612bdd565b88815191012061155a612ac8565b898151910120036118c657600281019260ff845460081c1660068110156118b357879161158a60015f9314613231565b6040516349d0104160e11b815233600482015292839182905afa90811561057b576004916115dd915f91611899575b506115c6815115156131f4565b8a8151910120926103c46040518094819301613269565b88815191012014801561188a575b156118465760ff6116206040518981806116098c8b51928391612a43565b8101600881520301902061161b612aa3565b612d2e565b54161561180b5761165d60ff6116556040518a81806116438d8c51928391612a43565b8101600881520301902061161b612ac8565b541615612df3565b6116726040518881875161164381838d612a43565b600160ff198254161790556040518781865161168f81838c612a43565b8101600781520301902091816001541692604051905f828981632d7feef360e21b988982523360048301525afa90811561057b575f966117029388936117ef575b506116d9612ac8565b604051936116e6856127ea565b3385528d85015260408401526060830152426080830152612e30565b61020061ff001982541617905560015416936040518095819382523360048301525afa90811561057b577febb434060d28d0e0f2447a93bd6a9c5fef02b4595969aefc0f03687a12bb084a925f926117cb575b506117b261177786611765612ac8565b96604051809381928751928391612a43565b81016007815203019020549561178f600454936130f6565b956117a56040519560a0875260a0870190612a64565b9185830390860152612a64565b94604083015260608201524260808201528033940390a3005b6117e89192503d805f833e6117e0818361284f565b810190612c5f565b9085611755565b6118049193503d808a833e6117e0818361284f565b918c6116d0565b60405162461bcd60e51b81526004810188905260148187015273125b9a5d1a585d1bdc881b9bdd081cda59db995960621b6044820152606490fd5b60405162461bcd60e51b815260048101889052601b818701527f4e6f7420636f756e7465727061727479206f72206e6f7420474d4f00000000006044820152606490fd5b50611894336134c8565b6115eb565b6118ad91503d805f833e6117e0818361284f565b8b6115b9565b87634e487b7160e01b5f5260216004525ffd5b60405162461bcd60e51b81526004810189905260128188015271496e76616c6964207369676e6572526f6c6560701b6044820152606490fd5b60405162461bcd60e51b8152600481018a9052601c818901527f4e6f7420617574686f72697a65643a20474d4f207265717569726564000000006044820152606490fd5b508781813d8311611972575b611959818361284f565b8101031261020b5761196d6114f491612af0565b6114e9565b503d61194f565b3461020b575f36600319011261020b5760206040516101008152f35b3461020b576101a036600319011261020b576001600160401b0360043581811161020b576119c790369060040161288b565b60243582811161020b576119df90369060040161288b565b906004604435101561020b5760643583811161020b57611a0390369060040161288b565b9260843581811161020b57611a1c90369060040161288b565b9060a43581811161020b57611a3590369060040161292e565b60c43582811161020b57611a4d90369060040161298e565b60e43583811161020b57611a6590369060040161288b565b906101043584811161020b57611a7f90369060040161288b565b926101643585811161020b57611a9990369060040161288b565b946101843590811161020b57611ab390369060040161288b565b9560018060a01b036001541660405163fe575a8760e01b8152336004820152602081602481855afa801561057b575f90611d05575b611af3915015612afd565b604051638cbdcead60e01b81523360048201526101cb6024820152602081604481855afa90811561057b575f91611cc1575b50602491611b335f92612b3e565b6040516349d0104160e11b815233600482015292839182905afa90811561057b575f91611ca7575b50611b65336134c8565b908115611c7b575b5015611c46578151611c0a57610c3799610c2399611b8d88511515612c84565b611b9989511515612cc5565b611ba38989613677565b60405199611bb08b6127ce565b8a5260208a0152611bc660443560408b01612de7565b6060890152608088015260a087015260c086015260e0850152610100840152610124356101208401526101443561014084015261016083015261018082015261381f565b60405162461bcd60e51b81526020600482015260146024820152731d1bdad95b92591cc81b9bdd08185b1b1bddd95960621b6044820152606490fd5b60405162461bcd60e51b815260206004820152600d60248201526c2737ba1034b734ba34b0ba37b960991b6044820152606490fd5b809150518015159182611c91575b50508b611b6d565b602091925001208a5160208c0120148b80611c89565b611cbb91503d805f833e6117e0818361284f565b8b611b5b565b90506020813d602011611cfd575b81611cdc6020938361284f565b8101031261020b57602491611b33611cf45f93612af0565b92505091611b25565b3d9150611ccf565b506020813d602011611d38575b81611d1f6020938361284f565b8101031261020b57611d33611af391612af0565b611ae8565b3d9150611d12565b3461020b57606036600319011261020b576001600160401b0360043581811161020b57611d7190369060040161288b565b602435600681101561020b5760443592831161020b57611d97602493369060040161288b565b60015460405163fe575a8760e01b81523360048201529491939160209186919082906001600160a01b03165afa93841561057b575f94611de7575b50611de0611de59415612afd565b6132fa565b005b93506020843d602011611e20575b81611e026020938361284f565b8101031261020b57611de0611e19611de595612af0565b9450611dd2565b3d9150611df5565b3461020b575f36600319011261020b576020600454604051908152f35b3461020b576101e036600319011261020b576004356001600160401b03811161020b57611e7690369060040161288b565b6024356001600160401b03811161020b57611e9590369060040161288b565b6004604435101561020b576064356001600160401b03811161020b57611ebf90369060040161288b565b906084356001600160401b03811161020b57611edf90369060040161288b565b9260a4356001600160401b03811161020b57611eff90369060040161288b565b60c4356001600160401b03811161020b57611f1e90369060040161288b565b9060e4356001600160401b03811161020b57611f3e90369060040161292e565b95610104356001600160401b03811161020b57611f5f90369060040161298e565b610124356001600160401b03811161020b57611f7f90369060040161288b565b90610144356001600160401b03811161020b57611fa090369060040161288b565b926001600160401b036101a4351161020b57611fc2366101a43560040161288b565b986001600160401b036101c4351161020b57611fe4366101c43560040161288b565b9860018060a01b036001541660405163fe575a8760e01b8152336004820152602081602481855afa801561057b575f9061265a575b612024915015612afd565b604051638cbdcead60e01b81523360048201526101cb6024820152602081604481855afa801561057b575f9061261f575b61205f9150612b3e565b61206b8d511515612b9e565b8b51156125e3575f6024916120828d511515612bdd565b6040516349d0104160e11b815233600482015292839182905afa90811561057b575f916125c9575b50805180151591826125b3575b505080156125a4575b1561254c576120d187511515612c84565b6120dd88511515612cc5565b6120e78888613677565b604051602081816120fe8d83815193849201612a43565b81016006815203019020600c810154155f146122a5575092610c379b60079a9996936122459996936121929996604051996121388b6127ce565b8a5260208a015261214e60443560408b01612de7565b6060890152608088015260a087015260c086015260e0850152610100840152610164356101208401526101843561014084015261016083015261018082015261381f565b9360405160208187516121a88183858c01612a43565b81016006815203019020925b6122096020876121d860ff611655604051858181875197019661160981838a612a43565b6121ed60405183818c51611609818388612a43565b600160ff19825416179055604051809381928b51928391612a43565b8101888152030190209061221b612aa3565b60405193612228856127ea565b338552602085015260408401526060830152426080830152612e30565b60028101805461ff00191661010017905501547ff606eb498f9a8bbf794e211a74a20fba192f8ad17ef6f358423d0f4a42bbaebf6040612284846130f6565b928151908152426020820152a2604051918291602083526020830190612a64565b9997969a989550505050505060ff600286015460081c166006811015610b765761251657948051906001600160401b038211612410576122f5826122ec6005890154612d54565b60058901612da2565b602090601f83116001146124a85761232492915f918361249d575b50508160011b915f199060031b1c19161790565b60058501555b8051906001600160401b038211612410576123558261234c6006880154612d54565b60068801612da2565b602090601f831160011461242f5761238392915f91836124245750508160011b915f199060031b1c19161790565b60068401555b845160078401956001600160401b03821161241057600160401b82116124105760209087548389558084106123f5575b5001955f5260205f20955f5b8281106123e157505050610c37945060079291612245916121b4565b60019060208351930192818a0155016123c5565b61240a90895f5284845f209182019101612d8c565b886123b9565b634e487b7160e01b5f52604160045260245ffd5b015190508880612310565b9190600686015f5260205f20905f935b601f1984168510612482576001945083601f1981161061246a575b505050811b016006840155612389565b01515f1960f88460031b161c1916905587808061245a565b8181015183556020948501946001909301929091019061243f565b015190508980612310565b9190600587015f5260205f20905f935b601f19841685106124fb576001945083601f198116106124e3575b505050811b01600585015561232a565b01515f1960f88460031b161c191690558880806124d3565b818101518355602094850194600190930192909101906124b8565b60405162461bcd60e51b815260206004820152600e60248201526d496e76616c69642073746174757360901b6044820152606490fd5b60405162461bcd60e51b815260206004820152602a60248201527f4f6e6c7920474d4f206f7220696e69746961746f722063616e20707265706172604482015269329030b71037b93232b960b11b6064820152608490fd5b506125ae336134c8565b6120c0565b6020919250012082516020840120148d806120b7565b6125dd91503d805f833e6117e0818361284f565b8d6120aa565b60405162461bcd60e51b8152602060048201526014602482015273125b9d985b1a59081cda59db995c955cd95c925960621b6044820152606490fd5b506020813d602011612652575b816126396020938361284f565b8101031261020b5761264d61205f91612af0565b612055565b3d915061262c565b506020813d60201161268d575b816126746020938361284f565b8101031261020b5761268861202491612af0565b612019565b3d9150612667565b3461020b576126a3366128d1565b60015460405163fe575a8760e01b8152336004820152602093918490829060249082906001600160a01b03165afa801561057b575f90612798575b6126e9915015612afd565b6002604051848184516126ff8183858901612a43565b81016006815203019020612718600c8201541515613116565b612721816147e1565b8015612784575b612731906131f4565b01805461274360ff8260081c16614b25565b8351156104fa5761ff0019166104001790557f97a94f0cddc66a7e07e262bdc7528eb7b2b3428993c96bf38277a092b0d2ff59916104ef916104da906130f6565b50612731612791336134c8565b9050612728565b508381813d83116127c7575b6127ae818361284f565b8101031261020b576127c26126e991612af0565b6126de565b503d6127a4565b6101a081019081106001600160401b0382111761241057604052565b60a081019081106001600160401b0382111761241057604052565b61022081019081106001600160401b0382111761241057604052565b604081019081106001600160401b0382111761241057604052565b6001600160401b03811161241057604052565b90601f801991011681019081106001600160401b0382111761241057604052565b6001600160401b03811161241057601f01601f191660200190565b81601f8201121561020b578035906128a282612870565b926128b0604051948561284f565b8284526020838301011161020b57815f926020809301838601378301015290565b90604060031983011261020b576001600160401b0360043581811161020b57836128fd9160040161288b565b9260243591821161020b576129149160040161288b565b90565b6001600160401b0381116124105760051b60200190565b9080601f8301121561020b57602090823561294881612917565b93612956604051958661284f565b81855260208086019260051b82010192831161020b57602001905b82821061297f575050505090565b81358152908301908301612971565b9080601f8301121561020b578135916020916129a984612917565b936040926129ba604051968761284f565b818652848087019260051b8201019383851161020b57858201925b8584106129e6575050505050505090565b6001600160401b0390843582811161020b5784019083601f19838903011261020b578351612a1381612821565b8983013593841161020b578483612a308a8d80988198010161288b565b83520135838201528152019301926129d5565b5f5b838110612a545750505f910152565b8181015183820152602001612a45565b90602091612a7d81518092818552858086019101612a43565b601f01601f1916010190565b906004821015610b765752565b906006821015610b765752565b60405190612ab082612821565b600982526834b734ba34b0ba37b960b91b6020830152565b60405190612ad582612821565b600c82526b636f756e746572706172747960a01b6020830152565b5190811515820361020b57565b15612b0457565b60405162461bcd60e51b815260206004820152601260248201527110d85b1b195c88189b1858dadb1a5cdd195960721b6044820152606490fd5b15612b4557565b60405162461bcd60e51b815260206004820152602b60248201527f4e6f7420617574686f72697a65643a206f726465722063726561746f7220726f60448201526a1b19481c995c5d5a5c995960aa1b6064820152608490fd5b15612ba557565b60405162461bcd60e51b815260206004820152601060248201526f4d697373696e6720746f6b656e49647360801b6044820152606490fd5b15612be457565b60405162461bcd60e51b8152602060048201526011602482015270496e76616c6964207369676e617475726560781b6044820152606490fd5b81601f8201121561020b578051612c3381612870565b92612c41604051948561284f565b8184526020828401011161020b576129149160208085019101612a43565b9060208282031261020b5781516001600160401b03811161020b576129149201612c1d565b15612c8b57565b60405162461bcd60e51b815260206004820152601260248201527124b73b30b634b21039b2b73232b924a3a0a760711b6044820152606490fd5b15612ccc57565b60405162461bcd60e51b815260206004820152601460248201527324b73b30b634b2103932b1b2b4bb32b924a3a0a760611b6044820152606490fd5b6020612d21918160405193828580945193849201612a43565b8101600681520301902090565b602090612d48928260405194838680955193849201612a43565b82019081520301902090565b90600182811c92168015612d82575b6020831014612d6e57565b634e487b7160e01b5f52602260045260245ffd5b91607f1691612d63565b818110612d97575050565b5f8155600101612d8c565b9190601f8111612db157505050565b612ddb925f5260205f20906020601f840160051c83019310612ddd575b601f0160051c0190612d8c565b565b9091508190612dce565b6004821015610b765752565b15612dfa57565b60405162461bcd60e51b815260206004820152600e60248201526d105b1c9958591e481cda59db995960921b6044820152606490fd5b90815491600160401b831015612410576001908184018082558410156130c3575f526020926005845f209102019260018060a01b038351166001600160601b0360a01b85541617845581840190808401519182516001600160401b039384821161241057612ea882612ea28554612d54565b85612da2565b8390601f831160011461306557612ed592915f9183612f905750508160011b915f199060031b1c19161790565b90555b60028501604085015180519084821161241057612ef982612ea28554612d54565b8390601f831160011461300757612f2692915f9183612f905750508160011b915f199060031b1c19161790565b90555b6003850192606085015190815193841161241057612f5184612f4b8754612d54565b87612da2565b82601f8511600114612f9b575050826004959360809593612f86935f92612f905750508160011b915f199060031b1c19161790565b90555b0151910155565b015190505f80612310565b91601f94939194198416865f52835f20935f905b828210612ff05750509160049795939185608098969410612fd8575b505050811b019055612f89565b01515f1960f88460031b161c191690555f8080612fcb565b808886978294978701518155019601940190612faf565b869291601f19831691855f52865f20925f5b8882821061304f5750508411613037575b505050811b019055612f29565b01515f1960f88460031b161c191690555f808061302a565b8385015186558b97909501949384019301613019565b869291601f19831691855f52865f20925f5b888282106130ad5750508411613095575b505050811b019055612ed8565b01515f1960f88460031b161c191690555f8080613088565b8385015186558b97909501949384019301613077565b634e487b7160e01b5f52603260045260245ffd5b906006811015610b765761ff0082549160081b169061ff001916179055565b61310e90602060405192828480945193849201612a43565b810103902090565b1561311d57565b60405162461bcd60e51b815260206004820152600f60248201526e13dc99195c881b9bdd08199bdd5b99608a1b6044820152606490fd5b9060405191825f825461316681612d54565b908184526020946001916001811690815f146131d25750600114613194575b505050612ddb9250038361284f565b5f90815285812095935091905b8183106131ba575050612ddb93508201015f8080613185565b855488840185015294850194879450918301916131a1565b92505050612ddb94925060ff191682840152151560051b8201015f8080613185565b156131fb57565b60405162461bcd60e51b815260206004820152600e60248201526d139bdd08185d5d1a1bdc9a5e995960921b6044820152606490fd5b1561323857565b60405162461bcd60e51b81526020600482015260096024820152684e6f7420726561647960b81b6044820152606490fd5b80545f939261327782612d54565b918282526020936001916001811690815f146132db575060011461329d575b5050505050565b90939495505f92919252835f2092845f945b8386106132c757505050500101905f80808080613296565b8054858701830152940193859082016132af565b60ff19168685015250505090151560051b010191505f80808080613296565b9091604080519384845160209681613316899383858b01612a43565b8101600681520301902061332f600c8201541515613116565b613338816147e1565b80156134b4575b613348906131f4565b600281019061335e8360ff845460081c16614c6d565b600683101580610b76576004841492848480156134a4575b613460575b613384916130d7565b610b76576003831461341657506133eb576005146133a25750505050565b6133cc7f02e9305cecf09be907ffd0503eb73fcbe81d21bca8403188cbcc53e4387d9dc9936130f6565b936133e08251938385948552840190612a64565b9042908301520390a2565b506133cc7f97a94f0cddc66a7e07e262bdc7528eb7b2b3428993c96bf38277a092b0d2ff59936130f6565b7ff236a289260b80b8f670f639c87bc95b2efa9286807681fea2d11b9959b1f0df9593945061345292506007915042600e8201550154916130f6565b9382519182524290820152a2565b5086511561346e578461337b565b855162461bcd60e51b8152600481018a9052600f60248201526e1499585cdbdb881c995c5d5a5c9959608a1b6044820152606490fd5b505090505f908460058114613376565b506133486134c1336134c8565b905061333f565b600154604051638cbdcead60e01b81526001600160a01b03928316600482015260c060248201529160209183916044918391165afa90811561057b575f9161350e575090565b90506020813d60201161353a575b816135296020938361284f565b8101031261020b5761291490612af0565b3d915061351c565b60208183031261020b5780516001600160401b039182821161020b57019061016092838382031261020b576040519384018481108382111761241057604052825182811161020b5781613596918501612c1d565b8452602083015182811161020b57816135b0918501612c1d565b602085015260408301516001600160a01b038116810361020b576040850152606083015182811161020b57816135e7918501612c1d565b6060850152608083015182811161020b5781613604918501612c1d565b608085015260a083015182811161020b5781613621918501612c1d565b60a085015260c083015160c085015260e083015191821161020b57613647918301612c1d565b60e083015261010080820151908301526101208082015190830152613670610140809201612af0565b9082015290565b6002546001600160a01b03169182156137ed576040928351925f84806136b36302f8780d60e31b94858352602060048401526024830190612a64565b0381855afa9384156137e3575f946137bd575b50915f916136e99386518095819482938352602060048401526024830190612a64565b03915afa9081156137b3575f91613799575b506101408092015115613755570151156137125750565b5162461bcd60e51b815260206004820152601960248201527f5265636569766572206163636f756e7420696e616374697665000000000000006044820152606490fd5b825162461bcd60e51b815260206004820152601760248201527f53656e646572206163636f756e7420696e6163746976650000000000000000006044820152606490fd5b6137ad91503d805f833e610a97818361284f565b5f6136fb565b83513d5f823e3d90fd5b6136e993919450916137d95f933d8086833e610a97818361284f565b94919350916136c6565b85513d5f823e3d90fd5b505050565b80518210156130c35760209160051b010190565b9081602091031261020b575160ff8116810361020b5790565b8051511561477857600c6138338251612d08565b0154614744576060810151511561470857608081015151156146c35760c0810151511561467e5760e08101515115614641576101008101515115614609575f5b60c08201518051821015613928578161388b916137f2565b515151156138ec576020806138a48360c08601516137f2565b510151156138b55750600101613873565b6064906040519062461bcd60e51b82526004820152601060248201526f496e76616c6964207175616e7469747960801b6044820152fd5b60405162461bcd60e51b8152602060048201526014602482015273496e76616c69642070726f64756374207479706560601b6044820152606490fd5b50506001546060820151604051638e690fc560e01b80825260206004830181905290936001600160a01b03169282908190613967906024830190612a64565b0381855afa90811561057b5760019160ff915f916145ea575b5016036145ae576139af9160209160808501519160405180958194829383528660048401526024830190612a64565b03915afa90811561057b5760019160ff915f9161458f575b50160361454a5761014081015180614504575b50602081015151156144f8575b8051602082015160408301516004811015610b765783906060820151608083015161016084015161018085015160a08601519160c08701519360e088015195613a5b6101008a0151986101406101208c01519b01519b60206040519e8f90613a4e82612805565b8152015260408d01612de7565b5f60608c015260808b015260a08a015260c089015260e0880152610100870152610120860152610140850152610160840152610180830152426101a08301526101c08201525f6101e082015233610200820152613ab88251612d08565b81518051906001600160401b03821161241057613ad982612ea28554612d54565b602090601f831160011461449057613b0792915f9183612f905750508160011b915f199060031b1c19161790565b81555b60208201518051906001600160401b03821161241057613b3a82613b316001860154612d54565b60018601612da2565b602090601f831160011461442257613b6892915f9183612f905750508160011b915f199060031b1c19161790565b60018201555b60408201516004811015610b765760ff8019600284015416911617600282015560608201516006811015610b7657613ba990600283016130d7565b60808201518051906001600160401b03821161241057613bd982613bd06003860154612d54565b60038601612da2565b602090601f83116001146143b457613c0792915f9183612f905750508160011b915f199060031b1c19161790565b60038201555b60a08201518051906001600160401b03821161241057613c3d82613c346004860154612d54565b60048601612da2565b602090601f831160011461434657613c6b92915f9183612f905750508160011b915f199060031b1c19161790565b60048201555b60c08201518051906001600160401b03821161241057613ca182613c986005860154612d54565b60058601612da2565b602090601f83116001146142d857613ccf92915f9183612f905750508160011b915f199060031b1c19161790565b60058201555b60e08201518051906001600160401b03821161241057613d0582613cfc6006860154612d54565b60068601612da2565b602090601f831160011461426a57613d3392915f9183612f905750508160011b915f199060031b1c19161790565b60068201555b6101008201518051906001600160401b03821161241057600160401b821161241057602090600784015483600786015580841061424c575b5001600783015f5260205f205f5b8381106142385750505050610120820151805190600160401b821161241057600883015482600885015580831061418a575b5060200190600883015f5260205f205f925b8284106140ab57505050506101408201518051906001600160401b03821161241057613dff82613df66009860154612d54565b60098601612da2565b602090601f831160011461403d57613e2d92915f9183612f905750508160011b915f199060031b1c19161790565b60098201555b6101608201518051906001600160401b03821161241057613e6482613e5b600a860154612d54565b600a8601612da2565b602090601f8311600114613fce579180613e9692600f95945f92612f905750508160011b915f199060031b1c19161790565b600a8201555b610180830151600b8201556101a0830151600c8201556101c0830151600d8201556101e0830151600e820155019061020060018060a01b03910151166001600160601b0360a01b82541617905580516020820151906040830151916004831015610b7657610140847f5dc77ee73a49d59f8fc5273aea5b470ff7bd538af410d595b968cfe3d0df4d0093613fae606083015196608084015190613f9b60c08601515192613f8d61010088015193613f5c8a6101208b01519a0151986130f6565b9c613f80613f756040519d8d8f9e8f9081520190612a64565b9260208d0190612a89565b8a820360408c0152612a64565b9088820360608a0152612a64565b91608087015285820360a0870152612a64565b9160c08401525f60e0840152426101008401526101208301520390a25190565b90600a84015f5260205f20915f5b601f19851681106140255750918391600193600f9695601f1981161061400d575b505050811b01600a820155613e9c565b01515f1960f88460031b161c191690555f8080613ffd565b91926020600181928685015181550194019201613fdc565b9190600984015f5260205f20905f935b601f1984168510614090576001945083601f19811610614078575b505050811b016009820155613e33565b01515f1960f88460031b161c191690555f8080614068565b8181015183556020948501946001909301929091019061404d565b805180518051906001600160401b038211612410576140ce82612f4b8754612d54565b602090601f831160011461411b57600293614106846020956001989587955f92612f905750508160011b915f199060031b1c19161790565b87555b01518486015501920193019290613dc3565b90855f5260205f20915f5b601f1985168110614172575093600184819794602096946002988896601f1981161061415a575b505050811b018755614109565b01515f1960f88460031b161c191690555f808061414d565b91926020600181928685015181550194019201614126565b6001600160ff1b038181168203614224578316830361422457600884015f5260205f208360011b81015b8260011b820181106141c7575050613db1565b806141d460029254612d54565b806141e7575b505f6001820155016141b4565b601f81116001146141fd57505f81555b5f6141da565b5f9082825261421b601f60208420920160051c820160018301612d8c565b818355556141f7565b634e487b7160e01b5f52601160045260245ffd5b600190602084519401938184015501613d7f565b61426490600786015f5284845f209182019101612d8c565b5f613d71565b9190600684015f5260205f20905f935b601f19841685106142bd576001945083601f198116106142a5575b505050811b016006820155613d39565b01515f1960f88460031b161c191690555f8080614295565b8181015183556020948501946001909301929091019061427a565b9190600584015f5260205f20905f935b601f198416851061432b576001945083601f19811610614313575b505050811b016005820155613cd5565b01515f1960f88460031b161c191690555f8080614303565b818101518355602094850194600190930192909101906142e8565b9190600484015f5260205f20905f935b601f1984168510614399576001945083601f19811610614381575b505050811b016004820155613c71565b01515f1960f88460031b161c191690555f8080614371565b81810151835560209485019460019093019290910190614356565b9190600384015f5260205f20905f935b601f1984168510614407576001945083601f198116106143ef575b505050811b016003820155613c0d565b01515f1960f88460031b161c191690555f80806143df565b818101518355602094850194600190930192909101906143c4565b9190600184015f5260205f20905f935b601f1984168510614475576001945083601f1981161061445d575b505050811b016001820155613b6e565b01515f1960f88460031b161c191690555f808061444d565b81810151835560209485019460019093019290910190614432565b9190835f5260205f20905f935b601f19841685106144dd576001945083601f198116106144c5575b505050811b018155613b0a565b01515f1960f88460031b161c191690555f80806144b8565b8181015183556020948501946001909301929091019061449d565b805160208201526139e7565b421015614511575f6139da565b60405162461bcd60e51b8152602060048201526011602482015270125b9d985b1a5908195e1c1a5c995cd05d607a1b6044820152606490fd5b60405162461bcd60e51b815260206004820152601760248201527f436f756e7465727061727479206e6f74206163746976650000000000000000006044820152606490fd5b6145a8915060203d6020116109ec576109dd818361284f565b5f6139c7565b60405162461bcd60e51b8152602060048201526014602482015273496e69746961746f72206e6f742061637469766560601b6044820152606490fd5b614603915060203d6020116109ec576109dd818361284f565b5f613980565b60405162461bcd60e51b815260206004820152601060248201526f496e76616c69642063757272656e637960801b6044820152606490fd5b60405162461bcd60e51b8152602060048201526015602482015274496e76616c69642076616c756174696f6e4461746560581b6044820152606490fd5b60405162461bcd60e51b815260206004820152601860248201527f4d697373696e67207265717565737465642061737365747300000000000000006044820152606490fd5b60405162461bcd60e51b815260206004820152601760248201527f496e76616c696420636f756e74657270617274794749430000000000000000006044820152606490fd5b60405162461bcd60e51b8152602060048201526014602482015273496e76616c696420696e69746961746f7247494360601b6044820152606490fd5b60405162461bcd60e51b815260206004820152600c60248201526b4f726465722065786973747360a01b6044820152606490fd5b60405162461bcd60e51b815260206004820152601660248201527524b73b30b634b2103a3930b739b0b1ba34b7b72932b360511b6044820152606490fd5b5f546001600160a01b031633036147c957565b60405163118cdaa760e01b8152336004820152602490fd5b6147ea336134c8565b6148b3576001546040516349d0104160e11b815233600482015291905f90839060249082906001600160a01b03165afa91821561057b575f92614897575b5081518015614890576020830190812060405161484c816103c48160038801613269565b6020815191012014928315614862575b50505090565b60049293509061488091519020926103c46040518094819301613269565b60208151910120145f808061485c565b5050505f90565b6148ac9192503d805f833e6117e0818361284f565b905f614828565b50600190565b156148c057565b60405162461bcd60e51b815260206004820152601960248201527f476f6c644163636f756e744c6564676572206e6f7420736574000000000000006044820152606490fd5b80548210156130c3575f5260205f2001905f90565b600254614931906001600160a01b031615156148b9565b6005810191604051614947816103c48187613269565b60208151910120906006830191604051614965816103c48187613269565b6020815191012014614acb575f5b600784018054821015614ac3578161498a91614905565b905460025460039290921b1c91906001600160a01b0316803b1561020b575f604051809263303a694160e11b825260806004830152818360406149d18d6084850190613269565b821960248501526b1514905394d1915497d3d55560a21b60208583039260031984016044880152600c8152015289606485015201925af1801561057b57614ab4575b506002546001600160a01b0316803b1561020b576040805163303a694160e11b815260806004820152935f928592909183918591614a54608485018c613269565b90600160248601526a2a2920a729a322a92fa4a760a91b60208684039360031985016044890152600b81520152606485015201925af190811561057b57600792600192614aa5575b50019050614973565b614aae9061283c565b5f614a9c565b614abd9061283c565b5f614a13565b505092505050565b92505050565b606090602081526015602082015274496e76616c696420737461747573206368616e676560581b60408201520190565b15614b0857565b60405162461bcd60e51b815280614b2160048201614ad1565b0390fd5b6006811015610b765760048114614b745760038114614bad5760058114614b77578015614b745760018114614b7457600214612ddb5760405162461bcd60e51b815280614b2160048201614ad1565b50565b60405162461bcd60e51b815260206004820152600e60248201526d105b1c9958591e4819985a5b195960921b6044820152606490fd5b60405162461bcd60e51b815260206004820152601060248201526f105b1c9958591e48195e1958dd5d195960821b6044820152606490fd5b6006811015610b765760058114614b745760038114614bad5760048114614c34578015614b745760018114614b7457600214612ddb5760405162461bcd60e51b815280614b2160048201614ad1565b60405162461bcd60e51b8152602060048201526011602482015270105b1c9958591e4818d85b98d95b1b1959607a1b6044820152606490fd5b90600681101580610b76576006831015610b76578183146137ed5760038314614bad57600492838114614da65760058114614d71578015614d4f5760018114614d2a57600214614ccf5760405162461bcd60e51b815280614b21818601614ad1565b909181614d0b5760038314918215614d1e575b8215614cf5575b5050612ddb9150614b01565b909150614d0b57506005612ddb91145f80614ce9565b602190634e487b7160e01b5f525260245ffd5b5082811491505f614ce2565b50909181614d0b5760028314918215614d1e578215614cf5575050612ddb9150614b01565b5050905f9060018314918215614d1e578215614cf5575050612ddb9150614b01565b60405162461bcd60e51b8152602081860152600e60248201526d105b1c9958591e4819985a5b195960921b6044820152606490fd5b60405162461bcd60e51b81526020818601526011602482015270105b1c9958591e4818d85b98d95b1b1959607a1b6044820152606490fdfea2646970667358221220c03a645caa3ffdeb2eed9f07ac5732a4f8e7c9f2cec01af1f9a2453a04465bdb64736f6c63430008180033","linkReferences":{}},"methodIdentifiers":{"MEMBER_ACTIVE()":"4a680b42","ROLE_GMO()":"7589b7de","ROLE_MINTER()":"92afc33a","ROLE_ORDER_CREATOR()":"6fe54792","ROLE_REFINER()":"d0473a65","ROLE_TRADER()":"45eed0db","ROLE_VAULT_OP()":"bf75fda4","accountLedger()":"5defa55e","cancelOrder(string,string)":"04b5bf4f","counterparty()":"c3df6546","createOrder(string,string,uint8,string,string,uint256[],(string,uint256)[],string,string,uint256,uint256,string,string)":"2fdee1f3","executeOrder(string)":"d8224ea8","failOrder(string,string)":"e9e32947","getOrderDetails(string)":"4fbb487c","getOrderSignatures(string)":"ea9dc25d","getOrderStatus(string)":"aedfb5d3","goldAssetToken()":"ca698bc8","initiator()":"5c39fcc1","memberRegistry()":"a74d4772","minSignatures()":"238acaa2","owner()":"8da5cb5b","prepareOrder(string,string,uint8,string,string,string,string,uint256[],(string,uint256)[],string,string,uint256,uint256,string,bytes)":"088aec01","renounceOwnership()":"715018a6","setExecutionOptions(bool,bool)":"db413d9e","setGoldAccountLedger(address)":"94ae772f","setGoldAssetToken(address)":"4fe5043d","setMemberRegistry(address)":"6fd7c34c","setMinSignatures(uint256)":"5a546098","signOrder(string,bytes,string)":"4b4555b1","transferAssetsOnExecute()":"8486bdc4","transferOwnership(address)":"f2fde38b","updateLedgerOnExecute()":"51d80ef3","updateOrderStatus(string,uint8,string)":"2f7554ac"},"id":6}