{"abi":[{"type":"constructor","inputs":[{"name":"_memberRegistry","type":"address","internalType":"address"}],"stateMutability":"nonpayable"},{"type":"function","name":"accounts","inputs":[{"name":"","type":"string","internalType":"string"}],"outputs":[{"name":"igan","type":"string","internalType":"string"},{"name":"memberGIC","type":"string","internalType":"string"},{"name":"ownerAddress","type":"address","internalType":"address"},{"name":"balance","type":"uint256","internalType":"uint256"},{"name":"createdAt","type":"uint256","internalType":"uint256"},{"name":"active","type":"bool","internalType":"bool"}],"stateMutability":"view"},{"type":"function","name":"addressAccounts","inputs":[{"name":"","type":"address","internalType":"address"},{"name":"","type":"uint256","internalType":"uint256"}],"outputs":[{"name":"","type":"string","internalType":"string"}],"stateMutability":"view"},{"type":"function","name":"balanceUpdaters","inputs":[{"name":"","type":"address","internalType":"address"}],"outputs":[{"name":"","type":"bool","internalType":"bool"}],"stateMutability":"view"},{"type":"function","name":"createAccount","inputs":[{"name":"memberGIC","type":"string","internalType":"string"},{"name":"ownerAddress","type":"address","internalType":"address"}],"outputs":[{"name":"","type":"string","internalType":"string"}],"stateMutability":"nonpayable"},{"type":"function","name":"getAccountBalance","inputs":[{"name":"igan","type":"string","internalType":"string"}],"outputs":[{"name":"","type":"uint256","internalType":"uint256"}],"stateMutability":"view"},{"type":"function","name":"getAccountDetails","inputs":[{"name":"igan","type":"string","internalType":"string"}],"outputs":[{"name":"","type":"tuple","internalType":"struct GoldAccountLedger.Account","components":[{"name":"igan","type":"string","internalType":"string"},{"name":"memberGIC","type":"string","internalType":"string"},{"name":"ownerAddress","type":"address","internalType":"address"},{"name":"balance","type":"uint256","internalType":"uint256"},{"name":"createdAt","type":"uint256","internalType":"uint256"},{"name":"active","type":"bool","internalType":"bool"}]}],"stateMutability":"view"},{"type":"function","name":"getAccountsByAddress","inputs":[{"name":"addr","type":"address","internalType":"address"}],"outputs":[{"name":"","type":"string[]","internalType":"string[]"}],"stateMutability":"view"},{"type":"function","name":"getAccountsByMember","inputs":[{"name":"memberGIC","type":"string","internalType":"string"}],"outputs":[{"name":"","type":"string[]","internalType":"string[]"}],"stateMutability":"view"},{"type":"function","name":"memberAccounts","inputs":[{"name":"","type":"string","internalType":"string"},{"name":"","type":"uint256","internalType":"uint256"}],"outputs":[{"name":"","type":"string","internalType":"string"}],"stateMutability":"view"},{"type":"function","name":"memberRegistry","inputs":[],"outputs":[{"name":"","type":"address","internalType":"contract IMemberRegistry"}],"stateMutability":"view"},{"type":"function","name":"owner","inputs":[],"outputs":[{"name":"","type":"address","internalType":"address"}],"stateMutability":"view"},{"type":"function","name":"renounceOwnership","inputs":[],"outputs":[],"stateMutability":"nonpayable"},{"type":"function","name":"setBalanceUpdater","inputs":[{"name":"updater","type":"address","internalType":"address"},{"name":"allowed","type":"bool","internalType":"bool"}],"outputs":[],"stateMutability":"nonpayable"},{"type":"function","name":"transferOwnership","inputs":[{"name":"newOwner","type":"address","internalType":"address"}],"outputs":[],"stateMutability":"nonpayable"},{"type":"function","name":"updateBalance","inputs":[{"name":"igan","type":"string","internalType":"string"},{"name":"delta","type":"int256","internalType":"int256"},{"name":"reason","type":"string","internalType":"string"},{"name":"tokenId","type":"uint256","internalType":"uint256"}],"outputs":[],"stateMutability":"nonpayable"},{"type":"function","name":"updateBalanceFromContract","inputs":[{"name":"igan","type":"string","internalType":"string"},{"name":"delta","type":"int256","internalType":"int256"},{"name":"reason","type":"string","internalType":"string"},{"name":"tokenId","type":"uint256","internalType":"uint256"}],"outputs":[],"stateMutability":"nonpayable"},{"type":"event","name":"AccountCreated","inputs":[{"name":"igan","type":"string","indexed":true,"internalType":"string"},{"name":"memberGIC","type":"string","indexed":true,"internalType":"string"},{"name":"ownerAddress","type":"address","indexed":true,"internalType":"address"},{"name":"timestamp","type":"uint256","indexed":false,"internalType":"uint256"}],"anonymous":false},{"type":"event","name":"BalanceUpdated","inputs":[{"name":"igan","type":"string","indexed":true,"internalType":"string"},{"name":"delta","type":"int256","indexed":false,"internalType":"int256"},{"name":"newBalance","type":"uint256","indexed":false,"internalType":"uint256"},{"name":"reason","type":"string","indexed":false,"internalType":"string"},{"name":"tokenId","type":"uint256","indexed":false,"internalType":"uint256"},{"name":"timestamp","type":"uint256","indexed":false,"internalType":"uint256"}],"anonymous":false},{"type":"event","name":"BalanceUpdaterSet","inputs":[{"name":"updater","type":"address","indexed":true,"internalType":"address"},{"name":"allowed","type":"bool","indexed":false,"internalType":"bool"},{"name":"timestamp","type":"uint256","indexed":false,"internalType":"uint256"}],"anonymous":false},{"type":"event","name":"OwnershipTransferred","inputs":[{"name":"previousOwner","type":"address","indexed":true,"internalType":"address"},{"name":"newOwner","type":"address","indexed":true,"internalType":"address"}],"anonymous":false},{"type":"error","name":"OwnableInvalidOwner","inputs":[{"name":"owner","type":"address","internalType":"address"}]},{"type":"error","name":"OwnableUnauthorizedAccount","inputs":[{"name":"account","type":"address","internalType":"address"}]}],"bytecode":{"object":"0x608060405234801562000010575f80fd5b506040516200310c3803806200310c833981810160405281019062000036919062000232565b335f73ffffffffffffffffffffffffffffffffffffffff168173ffffffffffffffffffffffffffffffffffffffff1603620000aa575f6040517f1e4fbdf7000000000000000000000000000000000000000000000000000000008152600401620000a1919062000273565b60405180910390fd5b620000bb816200010c60201b60201c565b508060015f6101000a81548173ffffffffffffffffffffffffffffffffffffffff021916908373ffffffffffffffffffffffffffffffffffffffff1602179055506103e8600281905550506200028e565b5f805f9054906101000a900473ffffffffffffffffffffffffffffffffffffffff169050815f806101000a81548173ffffffffffffffffffffffffffffffffffffffff021916908373ffffffffffffffffffffffffffffffffffffffff1602179055508173ffffffffffffffffffffffffffffffffffffffff168173ffffffffffffffffffffffffffffffffffffffff167f8be0079c531659141344cd1fd0a4f28419497f9722a3daafe3b4186f6b6457e060405160405180910390a35050565b5f80fd5b5f73ffffffffffffffffffffffffffffffffffffffff82169050919050565b5f620001fc82620001d1565b9050919050565b6200020e81620001f0565b811462000219575f80fd5b50565b5f815190506200022c8162000203565b92915050565b5f602082840312156200024a5762000249620001cd565b5b5f62000259848285016200021c565b91505092915050565b6200026d81620001f0565b82525050565b5f602082019050620002885f83018462000262565b92915050565b612e70806200029c5f395ff3fe608060405234801561000f575f80fd5b50600436106100fe575f3560e01c80638da5cb5b11610095578063c82b4dbb11610064578063c82b4dbb146102c1578063f0d33399146102f1578063f2b42f9f14610321578063f2fde38b14610351576100fe565b80638da5cb5b14610239578063a74d477214610257578063bb119a6e14610275578063c10533be14610291576100fe565b8063380e78af116100d1578063380e78af146101b35780636074d282146101e3578063715018a6146101ff57806373b1e6d814610209576100fe565b80630c3006cc1461010257806317c3c0681461011e5780631f6792231461014e578063303904141461017e575b5f80fd5b61011c60048036038101906101179190611b45565b61036d565b005b61013860048036038101906101339190611cbf565b61055d565b6040516101459190611e43565b60405180910390f35b61016860048036038101906101639190611e63565b61079a565b6040516101759190611e9d565b60405180910390f35b61019860048036038101906101939190611cbf565b6107b7565b6040516101aa96959493929190611f1c565b60405180910390f35b6101cd60048036038101906101c89190611e63565b61093e565b6040516101da9190612044565b60405180910390f35b6101fd60048036038101906101f891906120c1565b610a4f565b005b610207610aea565b005b610223600480360381019061021e919061215d565b610afd565b60405161023091906121b7565b60405180910390f35b610241610ffd565b60405161024e91906121d7565b60405180910390f35b61025f611024565b60405161026c919061224b565b60405180910390f35b61028f600480360381019061028a91906120c1565b611049565b005b6102ab60048036038101906102a69190612264565b6111d8565b6040516102b891906121b7565b60405180910390f35b6102db60048036038101906102d69190611cbf565b611289565b6040516102e891906122a2565b60405180910390f35b61030b60048036038101906103069190611cbf565b611316565b6040516103189190612044565b60405180910390f35b61033b600480360381019061033691906122bb565b611408565b60405161034891906121b7565b60405180910390f35b61036b60048036038101906103669190611e63565b6114d1565b005b60015f9054906101000a900473ffffffffffffffffffffffffffffffffffffffff1673ffffffffffffffffffffffffffffffffffffffff16638cbdcead33604080518363ffffffff1660e01b81526004016103c9929190612315565b602060405180830381865afa1580156103e4573d5f803e3d5ffd5b505050506040513d601f19601f820116820180604052508101906104089190612350565b610447576040517f08c379a000000000000000000000000000000000000000000000000000000000815260040161043e906123eb565b60405180910390fd5b5f73ffffffffffffffffffffffffffffffffffffffff168273ffffffffffffffffffffffffffffffffffffffff16036104b5576040517f08c379a00000000000000000000000000000000000000000000000000000000081526004016104ac90612453565b60405180910390fd5b8060065f8473ffffffffffffffffffffffffffffffffffffffff1673ffffffffffffffffffffffffffffffffffffffff1681526020019081526020015f205f6101000a81548160ff0219169083151502179055508173ffffffffffffffffffffffffffffffffffffffff167fb565f0960a8981c0365b6313b09fc72a32789a356aa4065068173e9c034537008242604051610551929190612471565b60405180910390a25050565b610565611a5b565b5f60038360405161057691906124d2565b908152602001604051809103902060040154036105c8576040517f08c379a00000000000000000000000000000000000000000000000000000000081526004016105bf90612532565b60405180910390fd5b6003826040516105d891906124d2565b90815260200160405180910390206040518060c00160405290815f820180546106009061257d565b80601f016020809104026020016040519081016040528092919081815260200182805461062c9061257d565b80156106775780601f1061064e57610100808354040283529160200191610677565b820191905f5260205f20905b81548152906001019060200180831161065a57829003601f168201915b505050505081526020016001820180546106909061257d565b80601f01602080910402602001604051908101604052809291908181526020018280546106bc9061257d565b80156107075780601f106106de57610100808354040283529160200191610707565b820191905f5260205f20905b8154815290600101906020018083116106ea57829003601f168201915b50505050508152602001600282015f9054906101000a900473ffffffffffffffffffffffffffffffffffffffff1673ffffffffffffffffffffffffffffffffffffffff1673ffffffffffffffffffffffffffffffffffffffff1681526020016003820154815260200160048201548152602001600582015f9054906101000a900460ff1615151515815250509050919050565b6006602052805f5260405f205f915054906101000a900460ff1681565b6003818051602081018201805184825260208301602085012081835280955050505050505f91509050805f0180546107ee9061257d565b80601f016020809104026020016040519081016040528092919081815260200182805461081a9061257d565b80156108655780601f1061083c57610100808354040283529160200191610865565b820191905f5260205f20905b81548152906001019060200180831161084857829003601f168201915b50505050509080600101805461087a9061257d565b80601f01602080910402602001604051908101604052809291908181526020018280546108a69061257d565b80156108f15780601f106108c8576101008083540402835291602001916108f1565b820191905f5260205f20905b8154815290600101906020018083116108d457829003601f168201915b505050505090806002015f9054906101000a900473ffffffffffffffffffffffffffffffffffffffff1690806003015490806004015490806005015f9054906101000a900460ff16905086565b606060055f8373ffffffffffffffffffffffffffffffffffffffff1673ffffffffffffffffffffffffffffffffffffffff1681526020019081526020015f20805480602002602001604051908101604052809291908181526020015f905b82821015610a44578382905f5260205f200180546109b99061257d565b80601f01602080910402602001604051908101604052809291908181526020018280546109e59061257d565b8015610a305780601f10610a0757610100808354040283529160200191610a30565b820191905f5260205f20905b815481529060010190602001808311610a1357829003601f168201915b50505050508152602001906001019061099c565b505050509050919050565b60065f3373ffffffffffffffffffffffffffffffffffffffff1673ffffffffffffffffffffffffffffffffffffffff1681526020019081526020015f205f9054906101000a900460ff16610ad8576040517f08c379a0000000000000000000000000000000000000000000000000000000008152600401610acf906125f7565b60405180910390fd5b610ae484848484611555565b50505050565b610af2611793565b610afb5f61181a565b565b606060015f9054906101000a900473ffffffffffffffffffffffffffffffffffffffff1673ffffffffffffffffffffffffffffffffffffffff16638cbdcead33604080518363ffffffff1660e01b8152600401610b5b929190612315565b602060405180830381865afa158015610b76573d5f803e3d5ffd5b505050506040513d601f19601f82011682018060405250810190610b9a9190612350565b610bd9576040517f08c379a0000000000000000000000000000000000000000000000000000000008152600401610bd0906123eb565b60405180910390fd5b5f835111610c1c576040517f08c379a0000000000000000000000000000000000000000000000000000000008152600401610c139061265f565b60405180910390fd5b5f73ffffffffffffffffffffffffffffffffffffffff168273ffffffffffffffffffffffffffffffffffffffff1603610c8a576040517f08c379a0000000000000000000000000000000000000000000000000000000008152600401610c81906126c7565b60405180910390fd5b600160ff1660015f9054906101000a900473ffffffffffffffffffffffffffffffffffffffff1673ffffffffffffffffffffffffffffffffffffffff16638e690fc5856040518263ffffffff1660e01b8152600401610ce991906121b7565b602060405180830381865afa158015610d04573d5f803e3d5ffd5b505050506040513d601f19601f82011682018060405250810190610d28919061271b565b60ff1614610d6b576040517f08c379a0000000000000000000000000000000000000000000000000000000008152600401610d6290612790565b60405180910390fd5b5f610d776002546118db565b604051602001610d8791906127f8565b604051602081830303815290604052905060025f815480929190610daa90612846565b91905055505f6040518060c001604052808381526020018681526020018573ffffffffffffffffffffffffffffffffffffffff1681526020015f815260200142815260200160011515815250905080600383604051610e0991906124d2565b90815260200160405180910390205f820151815f019081610e2a9190612a21565b506020820151816001019081610e409190612a21565b506040820151816002015f6101000a81548173ffffffffffffffffffffffffffffffffffffffff021916908373ffffffffffffffffffffffffffffffffffffffff160217905550606082015181600301556080820151816004015560a0820151816005015f6101000a81548160ff021916908315150217905550905050600485604051610ecd91906124d2565b908152602001604051809103902082908060018154018082558091505060019003905f5260205f20015f909190919091509081610f0a9190612a21565b5060055f8573ffffffffffffffffffffffffffffffffffffffff1673ffffffffffffffffffffffffffffffffffffffff1681526020019081526020015f2082908060018154018082558091505060019003905f5260205f20015f909190919091509081610f779190612a21565b508373ffffffffffffffffffffffffffffffffffffffff1685604051610f9d91906124d2565b604051809103902083604051610fb391906124d2565b60405180910390207f0551d2f2441b9886d067ff5108c58b08be7ccd2e54db6c06b11a6eb8dad0d4b042604051610fea91906122a2565b60405180910390a4819250505092915050565b5f805f9054906101000a900473ffffffffffffffffffffffffffffffffffffffff16905090565b60015f9054906101000a900473ffffffffffffffffffffffffffffffffffffffff1681565b60015f9054906101000a900473ffffffffffffffffffffffffffffffffffffffff1673ffffffffffffffffffffffffffffffffffffffff16638cbdcead33604080518363ffffffff1660e01b81526004016110a5929190612315565b602060405180830381865afa1580156110c0573d5f803e3d5ffd5b505050506040513d601f19601f820116820180604052508101906110e49190612350565b80611187575060015f9054906101000a900473ffffffffffffffffffffffffffffffffffffffff1673ffffffffffffffffffffffffffffffffffffffff16638cbdcead3360046040518363ffffffff1660e01b8152600401611147929190612315565b602060405180830381865afa158015611162573d5f803e3d5ffd5b505050506040513d601f19601f820116820180604052508101906111869190612350565b5b6111c6576040517f08c379a00000000000000000000000000000000000000000000000000000000081526004016111bd90612b3a565b60405180910390fd5b6111d284848484611555565b50505050565b6005602052815f5260405f2081815481106111f1575f80fd5b905f5260205f20015f9150915050805461120a9061257d565b80601f01602080910402602001604051908101604052809291908181526020018280546112369061257d565b80156112815780601f1061125857610100808354040283529160200191611281565b820191905f5260205f20905b81548152906001019060200180831161126457829003601f168201915b505050505081565b5f8060038360405161129b91906124d2565b908152602001604051809103902060040154036112ed576040517f08c379a00000000000000000000000000000000000000000000000000000000081526004016112e490612532565b60405180910390fd5b6003826040516112fd91906124d2565b9081526020016040518091039020600301549050919050565b606060048260405161132891906124d2565b9081526020016040518091039020805480602002602001604051908101604052809291908181526020015f905b828210156113fd578382905f5260205f200180546113729061257d565b80601f016020809104026020016040519081016040528092919081815260200182805461139e9061257d565b80156113e95780601f106113c0576101008083540402835291602001916113e9565b820191905f5260205f20905b8154815290600101906020018083116113cc57829003601f168201915b505050505081526020019060010190611355565b505050509050919050565b6004828051602081018201805184825260208301602085012081835280955050505050508181548110611439575f80fd5b905f5260205f20015f915091505080546114529061257d565b80601f016020809104026020016040519081016040528092919081815260200182805461147e9061257d565b80156114c95780601f106114a0576101008083540402835291602001916114c9565b820191905f5260205f20905b8154815290600101906020018083116114ac57829003601f168201915b505050505081565b6114d9611793565b5f73ffffffffffffffffffffffffffffffffffffffff168173ffffffffffffffffffffffffffffffffffffffff1603611549575f6040517f1e4fbdf700000000000000000000000000000000000000000000000000000000815260040161154091906121d7565b60405180910390fd5b6115528161181a565b50565b5f60038560405161156691906124d2565b908152602001604051809103902060040154036115b8576040517f08c379a00000000000000000000000000000000000000000000000000000000081526004016115af90612532565b60405180910390fd5b6003846040516115c891906124d2565b90815260200160405180910390206005015f9054906101000a900460ff16611625576040517f08c379a000000000000000000000000000000000000000000000000000000000815260040161161c90612ba2565b60405180910390fd5b5f8312156116df578261163790612bc0565b60038560405161164791906124d2565b908152602001604051809103902060030154101561169a576040517f08c379a000000000000000000000000000000000000000000000000000000000815260040161169190612c50565b60405180910390fd5b826116a490612bc0565b6003856040516116b491906124d2565b90815260200160405180910390206003015f8282546116d39190612c6e565b92505081905550611717565b826003856040516116f091906124d2565b90815260200160405180910390206003015f82825461170f9190612ca1565b925050819055505b8360405161172591906124d2565b60405180910390207f218efa32e36e5dc1971edc148c88be33438f4d640370391b453450e439ba49018460038760405161175f91906124d2565b908152602001604051809103902060030154858542604051611785959493929190612ce3565b60405180910390a250505050565b61179b611a54565b73ffffffffffffffffffffffffffffffffffffffff166117b9610ffd565b73ffffffffffffffffffffffffffffffffffffffff1614611818576117dc611a54565b6040517f118cdaa700000000000000000000000000000000000000000000000000000000815260040161180f91906121d7565b60405180910390fd5b565b5f805f9054906101000a900473ffffffffffffffffffffffffffffffffffffffff169050815f806101000a81548173ffffffffffffffffffffffffffffffffffffffff021916908373ffffffffffffffffffffffffffffffffffffffff1602179055508173ffffffffffffffffffffffffffffffffffffffff168173ffffffffffffffffffffffffffffffffffffffff167f8be0079c531659141344cd1fd0a4f28419497f9722a3daafe3b4186f6b6457e060405160405180910390a35050565b60605f8203611921576040518060400160405280600181526020017f30000000000000000000000000000000000000000000000000000000000000008152509050611a4f565b5f8290505f5b5f821461195057808061193990612846565b915050600a826119499190612d68565b9150611927565b5f8167ffffffffffffffff81111561196b5761196a611b9b565b5b6040519080825280601f01601f19166020018201604052801561199d5781602001600182028036833780820191505090505b5090505f8290505b5f8614611a47576001816119b99190612c6e565b90505f600a80886119ca9190612d68565b6119d49190612d98565b876119df9190612c6e565b60306119eb9190612dd9565b90508060f81b838381518110611a0457611a03612e0d565b5b60200101907effffffffffffffffffffffffffffffffffffffffffffffffffffffffffffff191690815f1a905350600a87611a3f9190612d68565b9650506119a5565b819450505050505b919050565b5f33905090565b6040518060c0016040528060608152602001606081526020015f73ffffffffffffffffffffffffffffffffffffffff1681526020015f81526020015f81526020015f151581525090565b5f604051905090565b5f80fd5b5f80fd5b5f73ffffffffffffffffffffffffffffffffffffffff82169050919050565b5f611adf82611ab6565b9050919050565b611aef81611ad5565b8114611af9575f80fd5b50565b5f81359050611b0a81611ae6565b92915050565b5f8115159050919050565b611b2481611b10565b8114611b2e575f80fd5b50565b5f81359050611b3f81611b1b565b92915050565b5f8060408385031215611b5b57611b5a611aae565b5b5f611b6885828601611afc565b9250506020611b7985828601611b31565b9150509250929050565b5f80fd5b5f80fd5b5f601f19601f8301169050919050565b7f4e487b71000000000000000000000000000000000000000000000000000000005f52604160045260245ffd5b611bd182611b8b565b810181811067ffffffffffffffff82111715611bf057611bef611b9b565b5b80604052505050565b5f611c02611aa5565b9050611c0e8282611bc8565b919050565b5f67ffffffffffffffff821115611c2d57611c2c611b9b565b5b611c3682611b8b565b9050602081019050919050565b828183375f83830152505050565b5f611c63611c5e84611c13565b611bf9565b905082815260208101848484011115611c7f57611c7e611b87565b5b611c8a848285611c43565b509392505050565b5f82601f830112611ca657611ca5611b83565b5b8135611cb6848260208601611c51565b91505092915050565b5f60208284031215611cd457611cd3611aae565b5b5f82013567ffffffffffffffff811115611cf157611cf0611ab2565b5b611cfd84828501611c92565b91505092915050565b5f81519050919050565b5f82825260208201905092915050565b5f5b83811015611d3d578082015181840152602081019050611d22565b5f8484015250505050565b5f611d5282611d06565b611d5c8185611d10565b9350611d6c818560208601611d20565b611d7581611b8b565b840191505092915050565b611d8981611ad5565b82525050565b5f819050919050565b611da181611d8f565b82525050565b611db081611b10565b82525050565b5f60c083015f8301518482035f860152611dd08282611d48565b91505060208301518482036020860152611dea8282611d48565b9150506040830151611dff6040860182611d80565b506060830151611e126060860182611d98565b506080830151611e256080860182611d98565b5060a0830151611e3860a0860182611da7565b508091505092915050565b5f6020820190508181035f830152611e5b8184611db6565b905092915050565b5f60208284031215611e7857611e77611aae565b5b5f611e8584828501611afc565b91505092915050565b611e9781611b10565b82525050565b5f602082019050611eb05f830184611e8e565b92915050565b5f82825260208201905092915050565b5f611ed082611d06565b611eda8185611eb6565b9350611eea818560208601611d20565b611ef381611b8b565b840191505092915050565b611f0781611ad5565b82525050565b611f1681611d8f565b82525050565b5f60c0820190508181035f830152611f348189611ec6565b90508181036020830152611f488188611ec6565b9050611f576040830187611efe565b611f646060830186611f0d565b611f716080830185611f0d565b611f7e60a0830184611e8e565b979650505050505050565b5f81519050919050565b5f82825260208201905092915050565b5f819050602082019050919050565b5f611fbd8383611d48565b905092915050565b5f602082019050919050565b5f611fdb82611f89565b611fe58185611f93565b935083602082028501611ff785611fa3565b805f5b8581101561203257848403895281516120138582611fb2565b945061201e83611fc5565b925060208a01995050600181019050611ffa565b50829750879550505050505092915050565b5f6020820190508181035f83015261205c8184611fd1565b905092915050565b5f819050919050565b61207681612064565b8114612080575f80fd5b50565b5f813590506120918161206d565b92915050565b6120a081611d8f565b81146120aa575f80fd5b50565b5f813590506120bb81612097565b92915050565b5f805f80608085870312156120d9576120d8611aae565b5b5f85013567ffffffffffffffff8111156120f6576120f5611ab2565b5b61210287828801611c92565b945050602061211387828801612083565b935050604085013567ffffffffffffffff81111561213457612133611ab2565b5b61214087828801611c92565b9250506060612151878288016120ad565b91505092959194509250565b5f806040838503121561217357612172611aae565b5b5f83013567ffffffffffffffff8111156121905761218f611ab2565b5b61219c85828601611c92565b92505060206121ad85828601611afc565b9150509250929050565b5f6020820190508181035f8301526121cf8184611ec6565b905092915050565b5f6020820190506121ea5f830184611efe565b92915050565b5f819050919050565b5f61221361220e61220984611ab6565b6121f0565b611ab6565b9050919050565b5f612224826121f9565b9050919050565b5f6122358261221a565b9050919050565b6122458161222b565b82525050565b5f60208201905061225e5f83018461223c565b92915050565b5f806040838503121561227a57612279611aae565b5b5f61228785828601611afc565b9250506020612298858286016120ad565b9150509250929050565b5f6020820190506122b55f830184611f0d565b92915050565b5f80604083850312156122d1576122d0611aae565b5b5f83013567ffffffffffffffff8111156122ee576122ed611ab2565b5b6122fa85828601611c92565b925050602061230b858286016120ad565b9150509250929050565b5f6040820190506123285f830185611efe565b6123356020830184611f0d565b9392505050565b5f8151905061234a81611b1b565b92915050565b5f6020828403121561236557612364611aae565b5b5f6123728482850161233c565b91505092915050565b7f4e6f7420617574686f72697a65643a20504c4154464f524d20726f6c652072655f8201527f7175697265640000000000000000000000000000000000000000000000000000602082015250565b5f6123d5602683611eb6565b91506123e08261237b565b604082019050919050565b5f6020820190508181035f830152612402816123c9565b9050919050565b7f496e76616c6964207570646174657200000000000000000000000000000000005f82015250565b5f61243d600f83611eb6565b915061244882612409565b602082019050919050565b5f6020820190508181035f83015261246a81612431565b9050919050565b5f6040820190506124845f830185611e8e565b6124916020830184611f0d565b9392505050565b5f81905092915050565b5f6124ac82611d06565b6124b68185612498565b93506124c6818560208601611d20565b80840191505092915050565b5f6124dd82846124a2565b915081905092915050565b7f4163636f756e7420646f6573206e6f74206578697374000000000000000000005f82015250565b5f61251c601683611eb6565b9150612527826124e8565b602082019050919050565b5f6020820190508181035f83015261254981612510565b9050919050565b7f4e487b71000000000000000000000000000000000000000000000000000000005f52602260045260245ffd5b5f600282049050600182168061259457607f821691505b6020821081036125a7576125a6612550565b5b50919050565b7f4e6f7420617574686f72697a65643a20757064617465720000000000000000005f82015250565b5f6125e1601783611eb6565b91506125ec826125ad565b602082019050919050565b5f6020820190508181035f83015261260e816125d5565b9050919050565b7f496e76616c6964206d656d6265724749430000000000000000000000000000005f82015250565b5f612649601183611eb6565b915061265482612615565b602082019050919050565b5f6020820190508181035f8301526126768161263d565b9050919050565b7f496e76616c6964206164647265737300000000000000000000000000000000005f82015250565b5f6126b1600f83611eb6565b91506126bc8261267d565b602082019050919050565b5f6020820190508181035f8301526126de816126a5565b9050919050565b5f60ff82169050919050565b6126fa816126e5565b8114612704575f80fd5b50565b5f81519050612715816126f1565b92915050565b5f602082840312156127305761272f611aae565b5b5f61273d84828501612707565b91505092915050565b7f4d656d626572206e6f74206163746976650000000000000000000000000000005f82015250565b5f61277a601183611eb6565b915061278582612746565b602082019050919050565b5f6020820190508181035f8301526127a78161276e565b9050919050565b7f4947414e2d0000000000000000000000000000000000000000000000000000005f82015250565b5f6127e2600583612498565b91506127ed826127ae565b600582019050919050565b5f612802826127d6565b915061280e82846124a2565b915081905092915050565b7f4e487b71000000000000000000000000000000000000000000000000000000005f52601160045260245ffd5b5f61285082611d8f565b91507fffffffffffffffffffffffffffffffffffffffffffffffffffffffffffffffff820361288257612881612819565b5b600182019050919050565b5f819050815f5260205f209050919050565b5f6020601f8301049050919050565b5f82821b905092915050565b5f600883026128e97fffffffffffffffffffffffffffffffffffffffffffffffffffffffffffffffff826128ae565b6128f386836128ae565b95508019841693508086168417925050509392505050565b5f61292561292061291b84611d8f565b6121f0565b611d8f565b9050919050565b5f819050919050565b61293e8361290b565b61295261294a8261292c565b8484546128ba565b825550505050565b5f90565b61296661295a565b612971818484612935565b505050565b5b81811015612994576129895f8261295e565b600181019050612977565b5050565b601f8211156129d9576129aa8161288d565b6129b38461289f565b810160208510156129c2578190505b6129d66129ce8561289f565b830182612976565b50505b505050565b5f82821c905092915050565b5f6129f95f19846008026129de565b1980831691505092915050565b5f612a1183836129ea565b9150826002028217905092915050565b612a2a82611d06565b67ffffffffffffffff811115612a4357612a42611b9b565b5b612a4d825461257d565b612a58828285612998565b5f60209050601f831160018114612a89575f8415612a77578287015190505b612a818582612a06565b865550612ae8565b601f198416612a978661288d565b5f5b82811015612abe57848901518255600182019150602085019450602081019050612a99565b86831015612adb5784890151612ad7601f8916826129ea565b8355505b6001600288020188555050505b505050505050565b7f4e6f7420617574686f72697a65640000000000000000000000000000000000005f82015250565b5f612b24600e83611eb6565b9150612b2f82612af0565b602082019050919050565b5f6020820190508181035f830152612b5181612b18565b9050919050565b7f4163636f756e74206e6f742061637469766500000000000000000000000000005f82015250565b5f612b8c601283611eb6565b9150612b9782612b58565b602082019050919050565b5f6020820190508181035f830152612bb981612b80565b9050919050565b5f612bca82612064565b91507f80000000000000000000000000000000000000000000000000000000000000008203612bfc57612bfb612819565b5b815f039050919050565b7f496e73756666696369656e742062616c616e63650000000000000000000000005f82015250565b5f612c3a601483611eb6565b9150612c4582612c06565b602082019050919050565b5f6020820190508181035f830152612c6781612c2e565b9050919050565b5f612c7882611d8f565b9150612c8383611d8f565b9250828203905081811115612c9b57612c9a612819565b5b92915050565b5f612cab82611d8f565b9150612cb683611d8f565b9250828201905080821115612cce57612ccd612819565b5b92915050565b612cdd81612064565b82525050565b5f60a082019050612cf65f830188612cd4565b612d036020830187611f0d565b8181036040830152612d158186611ec6565b9050612d246060830185611f0d565b612d316080830184611f0d565b9695505050505050565b7f4e487b71000000000000000000000000000000000000000000000000000000005f52601260045260245ffd5b5f612d7282611d8f565b9150612d7d83611d8f565b925082612d8d57612d8c612d3b565b5b828204905092915050565b5f612da282611d8f565b9150612dad83611d8f565b9250828202612dbb81611d8f565b91508282048414831517612dd257612dd1612819565b5b5092915050565b5f612de3826126e5565b9150612dee836126e5565b9250828201905060ff811115612e0757612e06612819565b5b92915050565b7f4e487b71000000000000000000000000000000000000000000000000000000005f52603260045260245ffdfea2646970667358221220e3881db4607357f7420f8ad9c31b9b6c809108544675238f86bfeaf6c92edc6264736f6c63430008180033","linkReferences":{}},"methodIdentifiers":{"accounts(string)":"30390414","addressAccounts(address,uint256)":"c10533be","balanceUpdaters(address)":"1f679223","createAccount(string,address)":"73b1e6d8","getAccountBalance(string)":"c82b4dbb","getAccountDetails(string)":"17c3c068","getAccountsByAddress(address)":"380e78af","getAccountsByMember(string)":"f0d33399","memberAccounts(string,uint256)":"f2b42f9f","memberRegistry()":"a74d4772","owner()":"8da5cb5b","renounceOwnership()":"715018a6","setBalanceUpdater(address,bool)":"0c3006cc","transferOwnership(address)":"f2fde38b","updateBalance(string,int256,string,uint256)":"bb119a6e","updateBalanceFromContract(string,int256,string,uint256)":"6074d282"},"id":0}