{"abi":[{"type":"constructor","inputs":[{"name":"_memberRegistry","type":"address","internalType":"address"}],"stateMutability":"nonpayable"},{"type":"function","name":"MEMBER_ACTIVE","inputs":[],"outputs":[{"name":"","type":"uint8","internalType":"uint8"}],"stateMutability":"view"},{"type":"function","name":"ROLE_ACCOUNT_CREATOR","inputs":[],"outputs":[{"name":"","type":"uint256","internalType":"uint256"}],"stateMutability":"view"},{"type":"function","name":"ROLE_GMO","inputs":[],"outputs":[{"name":"","type":"uint256","internalType":"uint256"}],"stateMutability":"view"},{"type":"function","name":"ROLE_MINTER","inputs":[],"outputs":[{"name":"","type":"uint256","internalType":"uint256"}],"stateMutability":"view"},{"type":"function","name":"ROLE_REFINER","inputs":[],"outputs":[{"name":"","type":"uint256","internalType":"uint256"}],"stateMutability":"view"},{"type":"function","name":"ROLE_TRADER","inputs":[],"outputs":[{"name":"","type":"uint256","internalType":"uint256"}],"stateMutability":"view"},{"type":"function","name":"ROLE_VAULT","inputs":[],"outputs":[{"name":"","type":"uint256","internalType":"uint256"}],"stateMutability":"view"},{"type":"function","name":"accounts","inputs":[{"name":"","type":"string","internalType":"string"}],"outputs":[{"name":"igan","type":"string","internalType":"string"},{"name":"memberGIC","type":"string","internalType":"string"},{"name":"ownerAddress","type":"address","internalType":"address"},{"name":"vaultSiteId","type":"string","internalType":"string"},{"name":"guaranteeDepositAccount","type":"string","internalType":"string"},{"name":"goldAccountPurpose","type":"string","internalType":"string"},{"name":"initialDeposit","type":"uint256","internalType":"uint256"},{"name":"certificateAbsenceReason","type":"string","internalType":"string"},{"name":"balance","type":"uint256","internalType":"uint256"},{"name":"createdAt","type":"uint256","internalType":"uint256"},{"name":"active","type":"bool","internalType":"bool"}],"stateMutability":"view"},{"type":"function","name":"addressAccounts","inputs":[{"name":"","type":"address","internalType":"address"},{"name":"","type":"uint256","internalType":"uint256"}],"outputs":[{"name":"","type":"string","internalType":"string"}],"stateMutability":"view"},{"type":"function","name":"balanceUpdaters","inputs":[{"name":"","type":"address","internalType":"address"}],"outputs":[{"name":"","type":"bool","internalType":"bool"}],"stateMutability":"view"},{"type":"function","name":"createAccount","inputs":[{"name":"igan","type":"string","internalType":"string"},{"name":"memberGIC","type":"string","internalType":"string"},{"name":"vaultSiteId","type":"string","internalType":"string"},{"name":"guaranteeDepositAccount","type":"string","internalType":"string"},{"name":"goldAccountPurpose","type":"string","internalType":"string"},{"name":"initialDeposit","type":"uint256","internalType":"uint256"},{"name":"certificateAbsenceReason","type":"string","internalType":"string"},{"name":"ownerAddress","type":"address","internalType":"address"}],"outputs":[{"name":"","type":"string","internalType":"string"}],"stateMutability":"nonpayable"},{"type":"function","name":"getAccountBalance","inputs":[{"name":"igan","type":"string","internalType":"string"}],"outputs":[{"name":"balance","type":"uint256","internalType":"uint256"}],"stateMutability":"view"},{"type":"function","name":"getAccountDetails","inputs":[{"name":"igan","type":"string","internalType":"string"}],"outputs":[{"name":"account","type":"tuple","internalType":"struct GoldAccountLedger.Account","components":[{"name":"igan","type":"string","internalType":"string"},{"name":"memberGIC","type":"string","internalType":"string"},{"name":"ownerAddress","type":"address","internalType":"address"},{"name":"vaultSiteId","type":"string","internalType":"string"},{"name":"guaranteeDepositAccount","type":"string","internalType":"string"},{"name":"goldAccountPurpose","type":"string","internalType":"string"},{"name":"initialDeposit","type":"uint256","internalType":"uint256"},{"name":"certificateAbsenceReason","type":"string","internalType":"string"},{"name":"balance","type":"uint256","internalType":"uint256"},{"name":"createdAt","type":"uint256","internalType":"uint256"},{"name":"active","type":"bool","internalType":"bool"}]}],"stateMutability":"view"},{"type":"function","name":"getAccountsByAddress","inputs":[{"name":"addr","type":"address","internalType":"address"}],"outputs":[{"name":"list","type":"string[]","internalType":"string[]"}],"stateMutability":"view"},{"type":"function","name":"getAccountsByMember","inputs":[{"name":"memberGIC","type":"string","internalType":"string"}],"outputs":[{"name":"list","type":"string[]","internalType":"string[]"}],"stateMutability":"view"},{"type":"function","name":"memberAccounts","inputs":[{"name":"","type":"string","internalType":"string"},{"name":"","type":"uint256","internalType":"uint256"}],"outputs":[{"name":"","type":"string","internalType":"string"}],"stateMutability":"view"},{"type":"function","name":"memberRegistry","inputs":[],"outputs":[{"name":"","type":"address","internalType":"contract IMemberRegistry"}],"stateMutability":"view"},{"type":"function","name":"owner","inputs":[],"outputs":[{"name":"","type":"address","internalType":"address"}],"stateMutability":"view"},{"type":"function","name":"renounceOwnership","inputs":[],"outputs":[],"stateMutability":"nonpayable"},{"type":"function","name":"setBalanceUpdater","inputs":[{"name":"updater","type":"address","internalType":"address"},{"name":"allowed","type":"bool","internalType":"bool"}],"outputs":[],"stateMutability":"nonpayable"},{"type":"function","name":"transferOwnership","inputs":[{"name":"newOwner","type":"address","internalType":"address"}],"outputs":[],"stateMutability":"nonpayable"},{"type":"function","name":"updateBalance","inputs":[{"name":"igan","type":"string","internalType":"string"},{"name":"delta","type":"int256","internalType":"int256"},{"name":"reason","type":"string","internalType":"string"},{"name":"tokenId","type":"uint256","internalType":"uint256"}],"outputs":[],"stateMutability":"nonpayable"},{"type":"function","name":"updateBalanceFromContract","inputs":[{"name":"igan","type":"string","internalType":"string"},{"name":"delta","type":"int256","internalType":"int256"},{"name":"reason","type":"string","internalType":"string"},{"name":"tokenId","type":"uint256","internalType":"uint256"}],"outputs":[],"stateMutability":"nonpayable"},{"type":"event","name":"AccountCreated","inputs":[{"name":"igan","type":"string","indexed":true,"internalType":"string"},{"name":"memberGIC","type":"string","indexed":true,"internalType":"string"},{"name":"ownerAddress","type":"address","indexed":true,"internalType":"address"},{"name":"vaultSiteId","type":"string","indexed":false,"internalType":"string"},{"name":"guaranteeDepositAccount","type":"string","indexed":false,"internalType":"string"},{"name":"goldAccountPurpose","type":"string","indexed":false,"internalType":"string"},{"name":"initialDeposit","type":"uint256","indexed":false,"internalType":"uint256"},{"name":"certificateAbsenceReason","type":"string","indexed":false,"internalType":"string"},{"name":"timestamp","type":"uint256","indexed":false,"internalType":"uint256"}],"anonymous":false},{"type":"event","name":"BalanceUpdated","inputs":[{"name":"igan","type":"string","indexed":true,"internalType":"string"},{"name":"delta","type":"int256","indexed":false,"internalType":"int256"},{"name":"newBalance","type":"uint256","indexed":false,"internalType":"uint256"},{"name":"reason","type":"string","indexed":false,"internalType":"string"},{"name":"tokenId","type":"uint256","indexed":false,"internalType":"uint256"},{"name":"timestamp","type":"uint256","indexed":false,"internalType":"uint256"}],"anonymous":false},{"type":"event","name":"BalanceUpdaterSet","inputs":[{"name":"updater","type":"address","indexed":true,"internalType":"address"},{"name":"allowed","type":"bool","indexed":false,"internalType":"bool"},{"name":"timestamp","type":"uint256","indexed":false,"internalType":"uint256"}],"anonymous":false},{"type":"event","name":"OwnershipTransferred","inputs":[{"name":"previousOwner","type":"address","indexed":true,"internalType":"address"},{"name":"newOwner","type":"address","indexed":true,"internalType":"address"}],"anonymous":false},{"type":"error","name":"OwnableInvalidOwner","inputs":[{"name":"owner","type":"address","internalType":"address"}]},{"type":"error","name":"OwnableUnauthorizedAccount","inputs":[{"name":"account","type":"address","internalType":"address"}]}],"bytecode":{"object":"0x60803461010757601f611c2938819003918201601f19168301916001600160401b0383118484101761010b5780849260209460405283398101031261010757516001600160a01b03808216918290036101075733156100ef575f549060018060a01b03199133838216175f55604051913391167f8be0079c531659141344cd1fd0a4f28419497f9722a3daafe3b4186f6b6457e05f80a382156100ba575060015416176001556103e8600255604051611b0990816101208239f35b62461bcd60e51b815260206004820152601060248201526f496e76616c696420726567697374727960801b6044820152606490fd5b604051631e4fbdf760e01b81525f6004820152602490fd5b5f80fd5b634e487b7160e01b5f52604160045260245ffdfe6080806040526004361015610012575f80fd5b5f3560e01c9081630c3006cc1461149b5750806317c3c0681461125c5780631c33e007146112415780631f6792231461120457806330390414146110ad578063380e78af1461101957806345eed0db14610ffd5780634a680b42146109995780636074d28214610e40578063715018a614610de95780637589b7de14610dce5780638da5cb5b14610da757806392afc33a14610d8c578063a74d477214610d64578063bb119a6e14610aaa578063c10533be14610a5e578063c35de06914610a42578063c82b4dbb146109b4578063d0473a6514610999578063e0f2f067146102fe578063f0d3339914610236578063f2b42f9f146101a75763f2fde38b14610119575f80fd5b346101a35760203660031901126101a357610132611607565b61013a611a88565b6001600160a01b0390811690811561018b575f54826bffffffffffffffffffffffff60a01b8216175f55167f8be0079c531659141344cd1fd0a4f28419497f9722a3daafe3b4186f6b6457e05f80a3005b604051631e4fbdf760e01b81525f6004820152602490fd5b5f80fd5b346101a35760403660031901126101a35760043567ffffffffffffffff81116101a3576101d890369060040161165c565b6101f460206024359281604051938285809451938492016116b2565b810160048152030190209081548110156101a35761021861021e9161023293611884565b906118ad565b6040519182916020835260208301906116d3565b0390f35b346101a3576020806003193601126101a35767ffffffffffffffff906004358281116101a3578161026e61028192369060040161165c565b81604051938285809451938492016116b2565b810160048152030190209182549081116102ea578290604051916102aa848360051b018461163a565b8183525f908152838120938084015b8383106102ce576040518061023287826117d2565b60018281926102dc89611730565b8152019601920191946102b9565b634e487b7160e01b5f52604160045260245ffd5b346101a3576101003660031901126101a35767ffffffffffffffff6004358181116101a35761033190369060040161165c565b906024358181116101a35761034a90369060040161165c565b906044358181116101a35761036390369060040161165c565b916064358281116101a35761037c90369060040161165c565b6084358381116101a35761039490369060040161165c565b9260c4359081116101a3576103ad90369060040161165c565b60e43594906001600160a01b03861686036101a357600154604051638cbdcead60e01b81523360048201526101cf60248201526001600160a01b0390911690602081604481855afa908115610792575f9161096a575b501561090f578751156108db578451156108a25782511561086857835115610819578551156107d4576001600160a01b0387161561079d5760206040518092638e690fc560e01b82528260048301528180610461602482018b6116d3565b03915afa908115610792575f91610755575b5060ff600191160361071c576009604051602081816104988c838151938492016116b2565b8101600381520301902001546106de576040516104b48161161d565b878152876020820186815260408301600160a01b600190038a168152606084018681526080850188815260a086018b815260c087019160a435835260e08801938985526101008901955f87526101208a01974289526101408b019960018b52604051818180935160208193019161052a926116b2565b8101600381520360200190209a51610542908c61192e565b516105509060018c0161192e565b5160028a0180546001600160a01b0319166001600160a01b0392909216919091179055516105819060038a0161192e565b5161058f906004890161192e565b5161059d906005880161192e565b516006860155516105b1906007860161192e565b51600884015551600983015551151590600a01906105da919060ff801983541691151516179055565b86604051808651818160208a01916105f1926116b2565b8101600481520360200190209061060791611a36565b6001600160a01b0386165f908152600560205260409020610629908890611a36565b61063287611a68565b9361063c90611a68565b9460405193849360c0855260c08501610654916116d3565b8481036020860152610665916116d3565b8381036040850152610676916116d3565b60a4356060840152828103608084015261068f916116d3565b4260a08301526001600160a01b03909516947f2dba4bd74adcfffb68388653a17f41077c757fdfe716ff77ddf2294931626f419291900390a460405180916020825260208201610232916116d3565b60405162461bcd60e51b81526020600482015260166024820152754163636f756e7420616c72656164792065786973747360501b6044820152606490fd5b60405162461bcd60e51b81526020600482015260116024820152704d656d626572206e6f742061637469766560781b6044820152606490fd5b90506020813d60201161078a575b816107706020938361163a565b810103126101a3575160ff811681036101a35760ff610473565b3d9150610763565b6040513d5f823e3d90fd5b60405162461bcd60e51b815260206004820152600f60248201526e496e76616c6964206164647265737360881b6044820152606490fd5b60405162461bcd60e51b815260206004820152601760248201527f496e76616c6964206163636f756e7420707572706f73650000000000000000006044820152606490fd5b60405162461bcd60e51b815260206004820152602160248201527f496e76616c69642067756172616e746565206465706f736974206163636f756e6044820152601d60fa1b6064820152608490fd5b60405162461bcd60e51b8152602060048201526012602482015271496e76616c6964207661756c74207369746560701b6044820152606490fd5b60405162461bcd60e51b8152602060048201526011602482015270496e76616c6964206d656d62657247494360781b6044820152606490fd5b60405162461bcd60e51b815260206004820152600c60248201526b24b73b30b634b21024a3a0a760a11b6044820152606490fd5b60405162461bcd60e51b815260206004820152602d60248201527f4e6f7420617574686f72697a65643a206163636f756e742063726561746f722060448201526c1c9bdb19481c995c5d5a5c9959609a1b6064820152608490fd5b61098c915060203d602011610992575b610984818361163a565b8101906118d1565b89610403565b503d61097a565b346101a3575f3660031901126101a357602060405160018152f35b346101a35760203660031901126101a35760043567ffffffffffffffff81116101a3576008610a2e60206109ed8194369060040161165c565b60405190610a1d6009825193858181860196610a0a81838a6116b2565b81016003815203019020015415156118e9565b6040519384928392519283916116b2565b810160038152030190200154604051908152f35b346101a3575f3660031901126101a35760206040516101cf8152f35b346101a35760403660031901126101a357610a77611607565b6001600160a01b03165f9081526005602052604090208054602435908110156101a35761021861021e9161023293611884565b346101a357610ab836611835565b90929160018060a01b03600154169160405192638cbdcead60e01b80855233600486015260249160c0838701526020958681604481855afa9283156107925787915f94610d45575b508315610cf4575b50505015610c9e5760405184818751610b248183858c016116b2565b8101600381520301902090610b3e600983015415156118e9565b60ff600a8301541615610c66575f841215610c1957600160ff1b8414610bcc5760088201805491855f038310610bdf57858301928311610bcc57506008610bbb935f80516020611ab4833981519152989993610b9e93555b015497611a68565b96604051958695865285015260a0604085015260a08401906116d3565b9060608301524260808301520390a2005b634e487b7160e01b5f9081526011600452fd5b8660146064926040519262461bcd60e51b8452600484015282015273496e73756666696369656e742062616c616e636560601b6044820152fd5b5f8413610c40575b505f80516020611ab48339815191529495610b9e6008610bbb93610b96565b60088201805491858301809311610bcc5750555f80516020611ab4833981519152610c21565b8460126064926040519262461bcd60e51b84526004840152820152714163636f756e74206e6f742061637469766560701b6044820152fd5b83602a6084926040519262461bcd60e51b845260048401528201527f4e6f7420617574686f72697a65643a20474d4f206f72205641554c5420726f6c60448201526919481c995c5d5a5c995960b21b6064820152fd5b909192506044604051809481938252336004830152600c878301525afa908115610792575f91610d28575b50878581610b08565b610d3f9150853d871161099257610984818361163a565b87610d1f565b610d5d919450823d841161099257610984818361163a565b928a610b00565b346101a3575f3660031901126101a3576001546040516001600160a01b039091168152602090f35b346101a3575f3660031901126101a357602060405160028152f35b346101a3575f3660031901126101a3575f546040516001600160a01b039091168152602090f35b346101a3575f3660031901126101a357602060405160c08152f35b346101a3575f3660031901126101a357610e01611a88565b5f80546001600160a01b0319811682556001600160a01b03167f8be0079c531659141344cd1fd0a4f28419497f9722a3daafe3b4186f6b6457e08280a3005b346101a357610e4e36611835565b9091335f526020916006835260ff60405f20541615610fb85760405183818751610e7b8183858c016116b2565b81016003815203019020610e94600982015415156118e9565b60ff600a8201541615610f7e575f831215610f4057600160ff1b8314610ef05760088101948554845f038110610f0457848101908111610ef0576008610bbb93610b9e925f80516020611ab48339815191529955015497611a68565b634e487b7160e01b5f52601160045260245ffd5b60405162461bcd60e51b8152600481018790526014602482015273496e73756666696369656e742062616c616e636560601b6044820152606490fd5b5f8313610f65575b5f80516020611ab483398151915294610b9e6008610bbb93610b96565b60088101948554848101809111610ef057909555610f48565b60405162461bcd60e51b81526004810185905260126024820152714163636f756e74206e6f742061637469766560701b6044820152606490fd5b60405162461bcd60e51b815260048101849052601760248201527f4e6f7420617574686f72697a65643a20757064617465720000000000000000006044820152606490fd5b346101a3575f3660031901126101a35760206040516101008152f35b346101a3576020806003193601126101a3576001600160a01b0361103b611607565b165f526005815260405f2090815467ffffffffffffffff81116102ea5782906040519161106d848360051b018461163a565b8183525f908152838120938084015b838310611091576040518061023287826117d2565b600182819261109f89611730565b81520196019201919461107c565b346101a35760203660031901126101a35760043567ffffffffffffffff81116101a3576110de90369060040161165c565b60405181818093516020819301916110f5926116b2565b81016003815203602001902061110a81611730565b61111660018301611730565b60028301549092906001600160a01b031661113360038301611730565b9161114060048201611730565b61114c60058301611730565b60068301549061115e60078501611730565b92600885015496600986015495600a015460ff16966040519a8b9a610160808d528c0161118a916116d3565b8b810360208d015261119b916116d3565b9060408b015289810360608b01526111b2916116d3565b88810360808a01526111c3916116d3565b87810360a08901526111d4916116d3565b9060c087015285810360e08701526111eb916116d3565b9261010085015261012084015215156101408301520390f35b346101a35760203660031901126101a3576001600160a01b03611225611607565b165f526006602052602060ff60405f2054166040519015158152f35b346101a3575f3660031901126101a3576020604051600c8152f35b346101a35760203660031901126101a35760043567ffffffffffffffff81116101a357602061129261130092369060040161165c565b5f6101406040516112a28161161d565b6060815260608582015282604082015260608082015260606080820152606060a08201528260c0820152606060e08201528261010082015282610120820152015260405190610a1d6009825193858181860196610a0a81838a6116b2565b8101600381520301902060ff600a6040519261131b8461161d565b61132481611730565b845261133260018201611730565b602085015260028101546001600160a01b0316604085015261135660038201611730565b606085015261136760048201611730565b608085015261137860058201611730565b60a0850152600681015460c085015261139360078201611730565b60e08501526008810154610100850152600981015461012085015201541615156101408201526040518091602082526101406114766113e0835161016060208701526101808601906116d3565b61145661144261142e611405602088015194601f1995868b83030160408c01526116d3565b60408801516001600160a01b031660608a810191909152880151898203860160808b01526116d3565b6080870151848983030160a08a01526116d3565b60a0860151838883030160c08901526116d3565b9060c085015160e087015260e085015190868303016101008701526116d3565b9161010081015161012085015261012081015182850152015115156101608301520390f35b346101a35760403660031901126101a3576114b4611607565b60243591821515918284036101a357600154638cbdcead60e01b835233600484015260c060248401526020926001600160a01b03929184908290604490829087165afa908115610792575f916115ea575b501561159b571692831561156457916040916115577fb565f0960a8981c0365b6313b09fc72a32789a356aa4065068173e9c0345370094865f5260068352845f209060ff801983541691151516179055565b82519182524290820152a2005b60405162461bcd60e51b815260048101839052600f60248201526e24b73b30b634b2103ab83230ba32b960891b6044820152606490fd5b60405162461bcd60e51b815260048101849052602160248201527f4e6f7420617574686f72697a65643a20474d4f20726f6c6520726571756972656044820152601960fa1b6064820152608490fd5b6116019150843d861161099257610984818361163a565b86611505565b600435906001600160a01b03821682036101a357565b610160810190811067ffffffffffffffff8211176102ea57604052565b90601f8019910116810190811067ffffffffffffffff8211176102ea57604052565b81601f820112156101a35780359067ffffffffffffffff82116102ea5760405192611691601f8401601f19166020018561163a565b828452602083830101116101a357815f926020809301838601378301015290565b5f5b8381106116c35750505f910152565b81810151838201526020016116b4565b906020916116ec815180928185528580860191016116b2565b601f01601f1916010190565b90600182811c92168015611726575b602083101461171257565b634e487b7160e01b5f52602260045260245ffd5b91607f1691611707565b9060405191825f8254611742816116f8565b908184526020946001916001811690815f146117b05750600114611772575b5050506117709250038361163a565b565b5f90815285812095935091905b81831061179857505061177093508201015f8080611761565b8554888401850152948501948794509183019161177f565b9250505061177094925060ff191682840152151560051b8201015f8080611761565b6020808201906020835283518092526040830192602060408460051b8301019501935f915b8483106118075750505050505090565b9091929394958480611825600193603f198682030187528a516116d3565b98019301930191949392906117f7565b60806003198201126101a35767ffffffffffffffff916004358381116101a357826118629160040161165c565b92602435926044359182116101a35761187d9160040161165c565b9060643590565b8054821015611899575f5260205f2001905f90565b634e487b7160e01b5f52603260045260245ffd5b906118be576118bb90611730565b90565b634e487b7160e01b5f525f60045260245ffd5b908160209103126101a3575180151581036101a35790565b156118f057565b60405162461bcd60e51b81526020600482015260166024820152751058d8dbdd5b9d08191bd95cc81b9bdd08195e1a5cdd60521b6044820152606490fd5b919091825167ffffffffffffffff81116102ea5761194c82546116f8565b601f81116119f1575b50602080601f83116001146119905750819293945f92611985575b50508160011b915f199060031b1c1916179055565b015190505f80611970565b90601f19831695845f5260205f20925f905b8882106119d9575050836001959697106119c1575b505050811b019055565b01515f1960f88460031b161c191690555f80806119b7565b806001859682949686015181550195019301906119a2565b825f5260205f20601f830160051c81019160208410611a2c575b601f0160051c01905b818110611a215750611955565b5f8155600101611a14565b9091508190611a0b565b8054680100000000000000008110156102ea57611a5891600182018155611884565b9190916118be576117709161192e565b611a80906020604051928284809451938492016116b2565b810103902090565b5f546001600160a01b03163303611a9b57565b60405163118cdaa760e01b8152336004820152602490fdfe218efa32e36e5dc1971edc148c88be33438f4d640370391b453450e439ba4901a264697066735822122073a8635d7147590c341930a3b5b8530ef03f9a34d935c4539afaa5508c076b3964736f6c63430008180033","linkReferences":{}},"methodIdentifiers":{"MEMBER_ACTIVE()":"4a680b42","ROLE_ACCOUNT_CREATOR()":"c35de069","ROLE_GMO()":"7589b7de","ROLE_MINTER()":"92afc33a","ROLE_REFINER()":"d0473a65","ROLE_TRADER()":"45eed0db","ROLE_VAULT()":"1c33e007","accounts(string)":"30390414","addressAccounts(address,uint256)":"c10533be","balanceUpdaters(address)":"1f679223","createAccount(string,string,string,string,string,uint256,string,address)":"e0f2f067","getAccountBalance(string)":"c82b4dbb","getAccountDetails(string)":"17c3c068","getAccountsByAddress(address)":"380e78af","getAccountsByMember(string)":"f0d33399","memberAccounts(string,uint256)":"f2b42f9f","memberRegistry()":"a74d4772","owner()":"8da5cb5b","renounceOwnership()":"715018a6","setBalanceUpdater(address,bool)":"0c3006cc","transferOwnership(address)":"f2fde38b","updateBalance(string,int256,string,uint256)":"bb119a6e","updateBalanceFromContract(string,int256,string,uint256)":"6074d282"},"id":1}