{"abi":[{"type":"constructor","inputs":[{"name":"_memberRegistry","type":"address","internalType":"address"}],"stateMutability":"nonpayable"},{"type":"function","name":"MEMBER_ACTIVE","inputs":[],"outputs":[{"name":"","type":"uint8","internalType":"uint8"}],"stateMutability":"view"},{"type":"function","name":"ROLE_ACCOUNT_CREATOR","inputs":[],"outputs":[{"name":"","type":"uint256","internalType":"uint256"}],"stateMutability":"view"},{"type":"function","name":"ROLE_CUSTODIAN","inputs":[],"outputs":[{"name":"","type":"uint256","internalType":"uint256"}],"stateMutability":"view"},{"type":"function","name":"ROLE_GMO","inputs":[],"outputs":[{"name":"","type":"uint256","internalType":"uint256"}],"stateMutability":"view"},{"type":"function","name":"ROLE_MINTER","inputs":[],"outputs":[{"name":"","type":"uint256","internalType":"uint256"}],"stateMutability":"view"},{"type":"function","name":"ROLE_REFINER","inputs":[],"outputs":[{"name":"","type":"uint256","internalType":"uint256"}],"stateMutability":"view"},{"type":"function","name":"ROLE_TRADER","inputs":[],"outputs":[{"name":"","type":"uint256","internalType":"uint256"}],"stateMutability":"view"},{"type":"function","name":"ROLE_VAULT","inputs":[],"outputs":[{"name":"","type":"uint256","internalType":"uint256"}],"stateMutability":"view"},{"type":"function","name":"ROLE_VAULT_OP","inputs":[],"outputs":[{"name":"","type":"uint256","internalType":"uint256"}],"stateMutability":"view"},{"type":"function","name":"accounts","inputs":[{"name":"","type":"string","internalType":"string"}],"outputs":[{"name":"igan","type":"string","internalType":"string"},{"name":"memberGIC","type":"string","internalType":"string"},{"name":"ownerAddress","type":"address","internalType":"address"},{"name":"vaultSiteId","type":"string","internalType":"string"},{"name":"guaranteeDepositAccount","type":"string","internalType":"string"},{"name":"goldAccountPurpose","type":"string","internalType":"string"},{"name":"initialDeposit","type":"uint256","internalType":"uint256"},{"name":"certificateAbsenceReason","type":"string","internalType":"string"},{"name":"balance","type":"uint256","internalType":"uint256"},{"name":"createdAt","type":"uint256","internalType":"uint256"},{"name":"active","type":"bool","internalType":"bool"}],"stateMutability":"view"},{"type":"function","name":"addressAccounts","inputs":[{"name":"","type":"address","internalType":"address"},{"name":"","type":"uint256","internalType":"uint256"}],"outputs":[{"name":"","type":"string","internalType":"string"}],"stateMutability":"view"},{"type":"function","name":"balanceUpdaters","inputs":[{"name":"","type":"address","internalType":"address"}],"outputs":[{"name":"","type":"bool","internalType":"bool"}],"stateMutability":"view"},{"type":"function","name":"createAccount","inputs":[{"name":"igan","type":"string","internalType":"string"},{"name":"memberGIC","type":"string","internalType":"string"},{"name":"vaultSiteId","type":"string","internalType":"string"},{"name":"guaranteeDepositAccount","type":"string","internalType":"string"},{"name":"goldAccountPurpose","type":"string","internalType":"string"},{"name":"initialDeposit","type":"uint256","internalType":"uint256"},{"name":"certificateAbsenceReason","type":"string","internalType":"string"},{"name":"ownerAddress","type":"address","internalType":"address"}],"outputs":[{"name":"","type":"string","internalType":"string"}],"stateMutability":"nonpayable"},{"type":"function","name":"getAccountBalance","inputs":[{"name":"igan","type":"string","internalType":"string"}],"outputs":[{"name":"balance","type":"uint256","internalType":"uint256"}],"stateMutability":"view"},{"type":"function","name":"getAccountDetails","inputs":[{"name":"igan","type":"string","internalType":"string"}],"outputs":[{"name":"account","type":"tuple","internalType":"struct GoldAccountLedger.Account","components":[{"name":"igan","type":"string","internalType":"string"},{"name":"memberGIC","type":"string","internalType":"string"},{"name":"ownerAddress","type":"address","internalType":"address"},{"name":"vaultSiteId","type":"string","internalType":"string"},{"name":"guaranteeDepositAccount","type":"string","internalType":"string"},{"name":"goldAccountPurpose","type":"string","internalType":"string"},{"name":"initialDeposit","type":"uint256","internalType":"uint256"},{"name":"certificateAbsenceReason","type":"string","internalType":"string"},{"name":"balance","type":"uint256","internalType":"uint256"},{"name":"createdAt","type":"uint256","internalType":"uint256"},{"name":"active","type":"bool","internalType":"bool"}]}],"stateMutability":"view"},{"type":"function","name":"getAccountsByAddress","inputs":[{"name":"addr","type":"address","internalType":"address"}],"outputs":[{"name":"list","type":"string[]","internalType":"string[]"}],"stateMutability":"view"},{"type":"function","name":"getAccountsByMember","inputs":[{"name":"memberGIC","type":"string","internalType":"string"}],"outputs":[{"name":"list","type":"string[]","internalType":"string[]"}],"stateMutability":"view"},{"type":"function","name":"memberAccounts","inputs":[{"name":"","type":"string","internalType":"string"},{"name":"","type":"uint256","internalType":"uint256"}],"outputs":[{"name":"","type":"string","internalType":"string"}],"stateMutability":"view"},{"type":"function","name":"memberRegistry","inputs":[],"outputs":[{"name":"","type":"address","internalType":"contract IMemberRegistry"}],"stateMutability":"view"},{"type":"function","name":"owner","inputs":[],"outputs":[{"name":"","type":"address","internalType":"address"}],"stateMutability":"view"},{"type":"function","name":"renounceOwnership","inputs":[],"outputs":[],"stateMutability":"nonpayable"},{"type":"function","name":"setBalanceUpdater","inputs":[{"name":"updater","type":"address","internalType":"address"},{"name":"allowed","type":"bool","internalType":"bool"}],"outputs":[],"stateMutability":"nonpayable"},{"type":"function","name":"transferOwnership","inputs":[{"name":"newOwner","type":"address","internalType":"address"}],"outputs":[],"stateMutability":"nonpayable"},{"type":"function","name":"updateBalance","inputs":[{"name":"igan","type":"string","internalType":"string"},{"name":"delta","type":"int256","internalType":"int256"},{"name":"reason","type":"string","internalType":"string"},{"name":"tokenId","type":"uint256","internalType":"uint256"}],"outputs":[],"stateMutability":"nonpayable"},{"type":"function","name":"updateBalanceFromContract","inputs":[{"name":"igan","type":"string","internalType":"string"},{"name":"delta","type":"int256","internalType":"int256"},{"name":"reason","type":"string","internalType":"string"},{"name":"tokenId","type":"uint256","internalType":"uint256"}],"outputs":[],"stateMutability":"nonpayable"},{"type":"event","name":"AccountCreated","inputs":[{"name":"igan","type":"string","indexed":true,"internalType":"string"},{"name":"memberGIC","type":"string","indexed":true,"internalType":"string"},{"name":"ownerAddress","type":"address","indexed":true,"internalType":"address"},{"name":"vaultSiteId","type":"string","indexed":false,"internalType":"string"},{"name":"guaranteeDepositAccount","type":"string","indexed":false,"internalType":"string"},{"name":"goldAccountPurpose","type":"string","indexed":false,"internalType":"string"},{"name":"initialDeposit","type":"uint256","indexed":false,"internalType":"uint256"},{"name":"certificateAbsenceReason","type":"string","indexed":false,"internalType":"string"},{"name":"timestamp","type":"uint256","indexed":false,"internalType":"uint256"}],"anonymous":false},{"type":"event","name":"BalanceUpdated","inputs":[{"name":"igan","type":"string","indexed":true,"internalType":"string"},{"name":"delta","type":"int256","indexed":false,"internalType":"int256"},{"name":"newBalance","type":"uint256","indexed":false,"internalType":"uint256"},{"name":"reason","type":"string","indexed":false,"internalType":"string"},{"name":"tokenId","type":"uint256","indexed":false,"internalType":"uint256"},{"name":"timestamp","type":"uint256","indexed":false,"internalType":"uint256"}],"anonymous":false},{"type":"event","name":"BalanceUpdaterSet","inputs":[{"name":"updater","type":"address","indexed":true,"internalType":"address"},{"name":"allowed","type":"bool","indexed":false,"internalType":"bool"},{"name":"timestamp","type":"uint256","indexed":false,"internalType":"uint256"}],"anonymous":false},{"type":"event","name":"OwnershipTransferred","inputs":[{"name":"previousOwner","type":"address","indexed":true,"internalType":"address"},{"name":"newOwner","type":"address","indexed":true,"internalType":"address"}],"anonymous":false},{"type":"error","name":"OwnableInvalidOwner","inputs":[{"name":"owner","type":"address","internalType":"address"}]},{"type":"error","name":"OwnableUnauthorizedAccount","inputs":[{"name":"account","type":"address","internalType":"address"}]}],"bytecode":{"object":"0x60803461010757601f611c7538819003918201601f19168301916001600160401b0383118484101761010b5780849260209460405283398101031261010757516001600160a01b03808216918290036101075733156100ef575f549060018060a01b03199133838216175f55604051913391167f8be0079c531659141344cd1fd0a4f28419497f9722a3daafe3b4186f6b6457e05f80a382156100ba575060015416176001556103e8600255604051611b5590816101208239f35b62461bcd60e51b815260206004820152601060248201526f496e76616c696420726567697374727960801b6044820152606490fd5b604051631e4fbdf760e01b81525f6004820152602490fd5b5f80fd5b634e487b7160e01b5f52604160045260245ffdfe6080806040526004361015610012575f80fd5b5f3560e01c9081630c3006cc146114e75750806317c3c068146112a85780631c33e0071461128d5780631f6792231461125057806330390414146110f9578063380e78af1461106557806345eed0db146110495780634a680b42146109af5780636074d28214610e8c578063715018a614610e355780637589b7de14610e1a5780638da5cb5b14610df357806392afc33a14610dd8578063a74d477214610db0578063aeede42314610d95578063bb119a6e14610adb578063bf75fda414610ac0578063c10533be14610a74578063c35de06914610a58578063c82b4dbb146109ca578063d0473a65146109af578063e0f2f06714610314578063f0d333991461024c578063f2b42f9f146101bd5763f2fde38b1461012f575f80fd5b346101b95760203660031901126101b957610148611653565b610150611ad4565b6001600160a01b039081169081156101a1575f54826bffffffffffffffffffffffff60a01b8216175f55167f8be0079c531659141344cd1fd0a4f28419497f9722a3daafe3b4186f6b6457e05f80a3005b604051631e4fbdf760e01b81525f6004820152602490fd5b5f80fd5b346101b95760403660031901126101b95760043567ffffffffffffffff81116101b9576101ee9036906004016116a8565b61020a60206024359281604051938285809451938492016116fe565b810160048152030190209081548110156101b95761022e61023491610248936118d0565b906118f9565b60405191829160208352602083019061171f565b0390f35b346101b9576020806003193601126101b95767ffffffffffffffff906004358281116101b957816102846102979236906004016116a8565b81604051938285809451938492016116fe565b81016004815203019020918254908111610300578290604051916102c0848360051b0184611686565b8183525f908152838120938084015b8383106102e45760405180610248878261181e565b60018281926102f28961177c565b8152019601920191946102cf565b634e487b7160e01b5f52604160045260245ffd5b346101b9576101003660031901126101b95767ffffffffffffffff6004358181116101b9576103479036906004016116a8565b906024358181116101b9576103609036906004016116a8565b906044358181116101b9576103799036906004016116a8565b916064358281116101b9576103929036906004016116a8565b6084358381116101b9576103aa9036906004016116a8565b9260c4359081116101b9576103c39036906004016116a8565b60e43594906001600160a01b03861686036101b957600154604051638cbdcead60e01b81523360048201526101cf60248201526001600160a01b0390911690602081604481855afa9081156107a8575f91610980575b5015610925578751156108f1578451156108b85782511561087e5783511561082f578551156107ea576001600160a01b038716156107b35760206040518092638e690fc560e01b82528260048301528180610477602482018b61171f565b03915afa9081156107a8575f9161076b575b5060ff6001911603610732576009604051602081816104ae8c838151938492016116fe565b8101600381520301902001546106f4576040516104ca81611669565b878152876020820186815260408301600160a01b600190038a168152606084018681526080850188815260a086018b815260c087019160a435835260e08801938985526101008901955f87526101208a01974289526101408b019960018b526040518181809351602081930191610540926116fe565b8101600381520360200190209a51610558908c61197a565b516105669060018c0161197a565b5160028a0180546001600160a01b0319166001600160a01b0392909216919091179055516105979060038a0161197a565b516105a5906004890161197a565b516105b3906005880161197a565b516006860155516105c7906007860161197a565b51600884015551600983015551151590600a01906105f0919060ff801983541691151516179055565b86604051808651818160208a0191610607926116fe565b8101600481520360200190209061061d91611a82565b6001600160a01b0386165f90815260056020526040902061063f908890611a82565b61064887611ab4565b9361065290611ab4565b9460405193849360c0855260c0850161066a9161171f565b848103602086015261067b9161171f565b838103604085015261068c9161171f565b60a435606084015282810360808401526106a59161171f565b4260a08301526001600160a01b03909516947f2dba4bd74adcfffb68388653a17f41077c757fdfe716ff77ddf2294931626f419291900390a4604051809160208252602082016102489161171f565b60405162461bcd60e51b81526020600482015260166024820152754163636f756e7420616c72656164792065786973747360501b6044820152606490fd5b60405162461bcd60e51b81526020600482015260116024820152704d656d626572206e6f742061637469766560781b6044820152606490fd5b90506020813d6020116107a0575b8161078660209383611686565b810103126101b9575160ff811681036101b95760ff610489565b3d9150610779565b6040513d5f823e3d90fd5b60405162461bcd60e51b815260206004820152600f60248201526e496e76616c6964206164647265737360881b6044820152606490fd5b60405162461bcd60e51b815260206004820152601760248201527f496e76616c6964206163636f756e7420707572706f73650000000000000000006044820152606490fd5b60405162461bcd60e51b815260206004820152602160248201527f496e76616c69642067756172616e746565206465706f736974206163636f756e6044820152601d60fa1b6064820152608490fd5b60405162461bcd60e51b8152602060048201526012602482015271496e76616c6964207661756c74207369746560701b6044820152606490fd5b60405162461bcd60e51b8152602060048201526011602482015270496e76616c6964206d656d62657247494360781b6044820152606490fd5b60405162461bcd60e51b815260206004820152600c60248201526b24b73b30b634b21024a3a0a760a11b6044820152606490fd5b60405162461bcd60e51b815260206004820152602d60248201527f4e6f7420617574686f72697a65643a206163636f756e742063726561746f722060448201526c1c9bdb19481c995c5d5a5c9959609a1b6064820152608490fd5b6109a2915060203d6020116109a8575b61099a8183611686565b81019061191d565b89610419565b503d610990565b346101b9575f3660031901126101b957602060405160018152f35b346101b95760203660031901126101b95760043567ffffffffffffffff81116101b9576008610a446020610a03819436906004016116a8565b60405190610a336009825193858181860196610a2081838a6116fe565b8101600381520301902001541515611935565b6040519384928392519283916116fe565b810160038152030190200154604051908152f35b346101b9575f3660031901126101b95760206040516101cf8152f35b346101b95760403660031901126101b957610a8d611653565b6001600160a01b03165f9081526005602052604090208054602435908110156101b95761022e61023491610248936118d0565b346101b9575f3660031901126101b957602060405160088152f35b346101b957610ae936611881565b90929160018060a01b03600154169160405192638cbdcead60e01b80855233600486015260249160c0838701526020958681604481855afa9283156107a85787915f94610d76575b508315610d25575b50505015610ccf5760405184818751610b558183858c016116fe565b8101600381520301902090610b6f60098301541515611935565b60ff600a8301541615610c97575f841215610c4a57600160ff1b8414610bfd5760088201805491855f038310610c1057858301928311610bfd57506008610bec935f80516020611b00833981519152989993610bcf93555b015497611ab4565b96604051958695865285015260a0604085015260a084019061171f565b9060608301524260808301520390a2005b634e487b7160e01b5f9081526011600452fd5b8660146064926040519262461bcd60e51b8452600484015282015273496e73756666696369656e742062616c616e636560601b6044820152fd5b5f8413610c71575b505f80516020611b008339815191529495610bcf6008610bec93610bc7565b60088201805491858301809311610bfd5750555f80516020611b00833981519152610c52565b8460126064926040519262461bcd60e51b84526004840152820152714163636f756e74206e6f742061637469766560701b6044820152fd5b83602a6084926040519262461bcd60e51b845260048401528201527f4e6f7420617574686f72697a65643a20474d4f206f72205641554c5420726f6c60448201526919481c995c5d5a5c995960b21b6064820152fd5b909192506044604051809481938252336004830152600c878301525afa9081156107a8575f91610d59575b50878581610b39565b610d709150853d87116109a85761099a8183611686565b87610d50565b610d8e919450823d84116109a85761099a8183611686565b928a610b31565b346101b9575f3660031901126101b957602060405160048152f35b346101b9575f3660031901126101b9576001546040516001600160a01b039091168152602090f35b346101b9575f3660031901126101b957602060405160028152f35b346101b9575f3660031901126101b9575f546040516001600160a01b039091168152602090f35b346101b9575f3660031901126101b957602060405160c08152f35b346101b9575f3660031901126101b957610e4d611ad4565b5f80546001600160a01b0319811682556001600160a01b03167f8be0079c531659141344cd1fd0a4f28419497f9722a3daafe3b4186f6b6457e08280a3005b346101b957610e9a36611881565b9091335f526020916006835260ff60405f205416156110045760405183818751610ec78183858c016116fe565b81016003815203019020610ee060098201541515611935565b60ff600a8201541615610fca575f831215610f8c57600160ff1b8314610f3c5760088101948554845f038110610f5057848101908111610f3c576008610bec93610bcf925f80516020611b008339815191529955015497611ab4565b634e487b7160e01b5f52601160045260245ffd5b60405162461bcd60e51b8152600481018790526014602482015273496e73756666696369656e742062616c616e636560601b6044820152606490fd5b5f8313610fb1575b5f80516020611b0083398151915294610bcf6008610bec93610bc7565b60088101948554848101809111610f3c57909555610f94565b60405162461bcd60e51b81526004810185905260126024820152714163636f756e74206e6f742061637469766560701b6044820152606490fd5b60405162461bcd60e51b815260048101849052601760248201527f4e6f7420617574686f72697a65643a20757064617465720000000000000000006044820152606490fd5b346101b9575f3660031901126101b95760206040516101008152f35b346101b9576020806003193601126101b9576001600160a01b03611087611653565b165f526005815260405f2090815467ffffffffffffffff8111610300578290604051916110b9848360051b0184611686565b8183525f908152838120938084015b8383106110dd5760405180610248878261181e565b60018281926110eb8961177c565b8152019601920191946110c8565b346101b95760203660031901126101b95760043567ffffffffffffffff81116101b95761112a9036906004016116a8565b6040518181809351602081930191611141926116fe565b8101600381520360200190206111568161177c565b6111626001830161177c565b60028301549092906001600160a01b031661117f6003830161177c565b9161118c6004820161177c565b6111986005830161177c565b6006830154906111aa6007850161177c565b92600885015496600986015495600a015460ff16966040519a8b9a610160808d528c016111d69161171f565b8b810360208d01526111e79161171f565b9060408b015289810360608b01526111fe9161171f565b88810360808a015261120f9161171f565b87810360a08901526112209161171f565b9060c087015285810360e08701526112379161171f565b9261010085015261012084015215156101408301520390f35b346101b95760203660031901126101b9576001600160a01b03611271611653565b165f526006602052602060ff60405f2054166040519015158152f35b346101b9575f3660031901126101b9576020604051600c8152f35b346101b95760203660031901126101b95760043567ffffffffffffffff81116101b95760206112de61134c9236906004016116a8565b5f6101406040516112ee81611669565b6060815260608582015282604082015260608082015260606080820152606060a08201528260c0820152606060e08201528261010082015282610120820152015260405190610a336009825193858181860196610a2081838a6116fe565b8101600381520301902060ff600a6040519261136784611669565b6113708161177c565b845261137e6001820161177c565b602085015260028101546001600160a01b031660408501526113a26003820161177c565b60608501526113b36004820161177c565b60808501526113c46005820161177c565b60a0850152600681015460c08501526113df6007820161177c565b60e08501526008810154610100850152600981015461012085015201541615156101408201526040518091602082526101406114c261142c8351610160602087015261018086019061171f565b6114a261148e61147a611451602088015194601f1995868b83030160408c015261171f565b60408801516001600160a01b031660608a810191909152880151898203860160808b015261171f565b6080870151848983030160a08a015261171f565b60a0860151838883030160c089015261171f565b9060c085015160e087015260e0850151908683030161010087015261171f565b9161010081015161012085015261012081015182850152015115156101608301520390f35b346101b95760403660031901126101b957611500611653565b60243591821515918284036101b957600154638cbdcead60e01b835233600484015260c060248401526020926001600160a01b03929184908290604490829087165afa9081156107a8575f91611636575b50156115e757169283156115b057916040916115a37fb565f0960a8981c0365b6313b09fc72a32789a356aa4065068173e9c0345370094865f5260068352845f209060ff801983541691151516179055565b82519182524290820152a2005b60405162461bcd60e51b815260048101839052600f60248201526e24b73b30b634b2103ab83230ba32b960891b6044820152606490fd5b60405162461bcd60e51b815260048101849052602160248201527f4e6f7420617574686f72697a65643a20474d4f20726f6c6520726571756972656044820152601960fa1b6064820152608490fd5b61164d9150843d86116109a85761099a8183611686565b86611551565b600435906001600160a01b03821682036101b957565b610160810190811067ffffffffffffffff82111761030057604052565b90601f8019910116810190811067ffffffffffffffff82111761030057604052565b81601f820112156101b95780359067ffffffffffffffff821161030057604051926116dd601f8401601f191660200185611686565b828452602083830101116101b957815f926020809301838601378301015290565b5f5b83811061170f5750505f910152565b8181015183820152602001611700565b90602091611738815180928185528580860191016116fe565b601f01601f1916010190565b90600182811c92168015611772575b602083101461175e57565b634e487b7160e01b5f52602260045260245ffd5b91607f1691611753565b9060405191825f825461178e81611744565b908184526020946001916001811690815f146117fc57506001146117be575b5050506117bc92500383611686565b565b5f90815285812095935091905b8183106117e45750506117bc93508201015f80806117ad565b855488840185015294850194879450918301916117cb565b925050506117bc94925060ff191682840152151560051b8201015f80806117ad565b6020808201906020835283518092526040830192602060408460051b8301019501935f915b8483106118535750505050505090565b9091929394958480611871600193603f198682030187528a5161171f565b9801930193019194939290611843565b60806003198201126101b95767ffffffffffffffff916004358381116101b957826118ae916004016116a8565b92602435926044359182116101b9576118c9916004016116a8565b9060643590565b80548210156118e5575f5260205f2001905f90565b634e487b7160e01b5f52603260045260245ffd5b9061190a576119079061177c565b90565b634e487b7160e01b5f525f60045260245ffd5b908160209103126101b9575180151581036101b95790565b1561193c57565b60405162461bcd60e51b81526020600482015260166024820152751058d8dbdd5b9d08191bd95cc81b9bdd08195e1a5cdd60521b6044820152606490fd5b919091825167ffffffffffffffff8111610300576119988254611744565b601f8111611a3d575b50602080601f83116001146119dc5750819293945f926119d1575b50508160011b915f199060031b1c1916179055565b015190505f806119bc565b90601f19831695845f5260205f20925f905b888210611a2557505083600195969710611a0d575b505050811b019055565b01515f1960f88460031b161c191690555f8080611a03565b806001859682949686015181550195019301906119ee565b825f5260205f20601f830160051c81019160208410611a78575b601f0160051c01905b818110611a6d57506119a1565b5f8155600101611a60565b9091508190611a57565b80546801000000000000000081101561030057611aa4916001820181556118d0565b91909161190a576117bc9161197a565b611acc906020604051928284809451938492016116fe565b810103902090565b5f546001600160a01b03163303611ae757565b60405163118cdaa760e01b8152336004820152602490fdfe218efa32e36e5dc1971edc148c88be33438f4d640370391b453450e439ba4901a2646970667358221220a08befdc6d1b81da306813956abbdbe821d31a95e24598ff957d6201e5df3bb864736f6c63430008180033","linkReferences":{}},"methodIdentifiers":{"MEMBER_ACTIVE()":"4a680b42","ROLE_ACCOUNT_CREATOR()":"c35de069","ROLE_CUSTODIAN()":"aeede423","ROLE_GMO()":"7589b7de","ROLE_MINTER()":"92afc33a","ROLE_REFINER()":"d0473a65","ROLE_TRADER()":"45eed0db","ROLE_VAULT()":"1c33e007","ROLE_VAULT_OP()":"bf75fda4","accounts(string)":"30390414","addressAccounts(address,uint256)":"c10533be","balanceUpdaters(address)":"1f679223","createAccount(string,string,string,string,string,uint256,string,address)":"e0f2f067","getAccountBalance(string)":"c82b4dbb","getAccountDetails(string)":"17c3c068","getAccountsByAddress(address)":"380e78af","getAccountsByMember(string)":"f0d33399","memberAccounts(string,uint256)":"f2b42f9f","memberRegistry()":"a74d4772","owner()":"8da5cb5b","renounceOwnership()":"715018a6","setBalanceUpdater(address,bool)":"0c3006cc","transferOwnership(address)":"f2fde38b","updateBalance(string,int256,string,uint256)":"bb119a6e","updateBalanceFromContract(string,int256,string,uint256)":"6074d282"},"id":0}