{"abi":[{"type":"constructor","inputs":[{"name":"_memberRegistry","type":"address","internalType":"address"}],"stateMutability":"nonpayable"},{"type":"function","name":"accounts","inputs":[{"name":"","type":"string","internalType":"string"}],"outputs":[{"name":"igan","type":"string","internalType":"string"},{"name":"memberGIC","type":"string","internalType":"string"},{"name":"ownerAddress","type":"address","internalType":"address"},{"name":"vaultSiteId","type":"string","internalType":"string"},{"name":"guaranteeDepositAccount","type":"string","internalType":"string"},{"name":"goldAccountPurpose","type":"string","internalType":"string"},{"name":"initialDeposit","type":"uint256","internalType":"uint256"},{"name":"certificateAbsenceReason","type":"string","internalType":"string"},{"name":"balance","type":"uint256","internalType":"uint256"},{"name":"createdAt","type":"uint256","internalType":"uint256"},{"name":"active","type":"bool","internalType":"bool"}],"stateMutability":"view"},{"type":"function","name":"addressAccounts","inputs":[{"name":"","type":"address","internalType":"address"},{"name":"","type":"uint256","internalType":"uint256"}],"outputs":[{"name":"","type":"string","internalType":"string"}],"stateMutability":"view"},{"type":"function","name":"balanceUpdaters","inputs":[{"name":"","type":"address","internalType":"address"}],"outputs":[{"name":"","type":"bool","internalType":"bool"}],"stateMutability":"view"},{"type":"function","name":"createAccount","inputs":[{"name":"igan","type":"string","internalType":"string"},{"name":"memberGIC","type":"string","internalType":"string"},{"name":"vaultSiteId","type":"string","internalType":"string"},{"name":"guaranteeDepositAccount","type":"string","internalType":"string"},{"name":"goldAccountPurpose","type":"string","internalType":"string"},{"name":"initialDeposit","type":"uint256","internalType":"uint256"},{"name":"certificateAbsenceReason","type":"string","internalType":"string"},{"name":"ownerAddress","type":"address","internalType":"address"}],"outputs":[{"name":"","type":"string","internalType":"string"}],"stateMutability":"nonpayable"},{"type":"function","name":"getAccountBalance","inputs":[{"name":"igan","type":"string","internalType":"string"}],"outputs":[{"name":"","type":"uint256","internalType":"uint256"}],"stateMutability":"view"},{"type":"function","name":"getAccountDetails","inputs":[{"name":"igan","type":"string","internalType":"string"}],"outputs":[{"name":"","type":"tuple","internalType":"struct GoldAccountLedger.Account","components":[{"name":"igan","type":"string","internalType":"string"},{"name":"memberGIC","type":"string","internalType":"string"},{"name":"ownerAddress","type":"address","internalType":"address"},{"name":"vaultSiteId","type":"string","internalType":"string"},{"name":"guaranteeDepositAccount","type":"string","internalType":"string"},{"name":"goldAccountPurpose","type":"string","internalType":"string"},{"name":"initialDeposit","type":"uint256","internalType":"uint256"},{"name":"certificateAbsenceReason","type":"string","internalType":"string"},{"name":"balance","type":"uint256","internalType":"uint256"},{"name":"createdAt","type":"uint256","internalType":"uint256"},{"name":"active","type":"bool","internalType":"bool"}]}],"stateMutability":"view"},{"type":"function","name":"getAccountsByAddress","inputs":[{"name":"addr","type":"address","internalType":"address"}],"outputs":[{"name":"","type":"string[]","internalType":"string[]"}],"stateMutability":"view"},{"type":"function","name":"getAccountsByMember","inputs":[{"name":"memberGIC","type":"string","internalType":"string"}],"outputs":[{"name":"","type":"string[]","internalType":"string[]"}],"stateMutability":"view"},{"type":"function","name":"memberAccounts","inputs":[{"name":"","type":"string","internalType":"string"},{"name":"","type":"uint256","internalType":"uint256"}],"outputs":[{"name":"","type":"string","internalType":"string"}],"stateMutability":"view"},{"type":"function","name":"memberRegistry","inputs":[],"outputs":[{"name":"","type":"address","internalType":"contract IMemberRegistry"}],"stateMutability":"view"},{"type":"function","name":"owner","inputs":[],"outputs":[{"name":"","type":"address","internalType":"address"}],"stateMutability":"view"},{"type":"function","name":"renounceOwnership","inputs":[],"outputs":[],"stateMutability":"nonpayable"},{"type":"function","name":"setBalanceUpdater","inputs":[{"name":"updater","type":"address","internalType":"address"},{"name":"allowed","type":"bool","internalType":"bool"}],"outputs":[],"stateMutability":"nonpayable"},{"type":"function","name":"transferOwnership","inputs":[{"name":"newOwner","type":"address","internalType":"address"}],"outputs":[],"stateMutability":"nonpayable"},{"type":"function","name":"updateBalance","inputs":[{"name":"igan","type":"string","internalType":"string"},{"name":"delta","type":"int256","internalType":"int256"},{"name":"reason","type":"string","internalType":"string"},{"name":"tokenId","type":"uint256","internalType":"uint256"}],"outputs":[],"stateMutability":"nonpayable"},{"type":"function","name":"updateBalanceFromContract","inputs":[{"name":"igan","type":"string","internalType":"string"},{"name":"delta","type":"int256","internalType":"int256"},{"name":"reason","type":"string","internalType":"string"},{"name":"tokenId","type":"uint256","internalType":"uint256"}],"outputs":[],"stateMutability":"nonpayable"},{"type":"event","name":"AccountCreated","inputs":[{"name":"igan","type":"string","indexed":true,"internalType":"string"},{"name":"memberGIC","type":"string","indexed":true,"internalType":"string"},{"name":"ownerAddress","type":"address","indexed":true,"internalType":"address"},{"name":"vaultSiteId","type":"string","indexed":false,"internalType":"string"},{"name":"guaranteeDepositAccount","type":"string","indexed":false,"internalType":"string"},{"name":"goldAccountPurpose","type":"string","indexed":false,"internalType":"string"},{"name":"initialDeposit","type":"uint256","indexed":false,"internalType":"uint256"},{"name":"certificateAbsenceReason","type":"string","indexed":false,"internalType":"string"},{"name":"timestamp","type":"uint256","indexed":false,"internalType":"uint256"}],"anonymous":false},{"type":"event","name":"BalanceUpdated","inputs":[{"name":"igan","type":"string","indexed":true,"internalType":"string"},{"name":"delta","type":"int256","indexed":false,"internalType":"int256"},{"name":"newBalance","type":"uint256","indexed":false,"internalType":"uint256"},{"name":"reason","type":"string","indexed":false,"internalType":"string"},{"name":"tokenId","type":"uint256","indexed":false,"internalType":"uint256"},{"name":"timestamp","type":"uint256","indexed":false,"internalType":"uint256"}],"anonymous":false},{"type":"event","name":"BalanceUpdaterSet","inputs":[{"name":"updater","type":"address","indexed":true,"internalType":"address"},{"name":"allowed","type":"bool","indexed":false,"internalType":"bool"},{"name":"timestamp","type":"uint256","indexed":false,"internalType":"uint256"}],"anonymous":false},{"type":"event","name":"OwnershipTransferred","inputs":[{"name":"previousOwner","type":"address","indexed":true,"internalType":"address"},{"name":"newOwner","type":"address","indexed":true,"internalType":"address"}],"anonymous":false},{"type":"error","name":"OwnableInvalidOwner","inputs":[{"name":"owner","type":"address","internalType":"address"}]},{"type":"error","name":"OwnableUnauthorizedAccount","inputs":[{"name":"account","type":"address","internalType":"address"}]}],"bytecode":{"object":"0x6080346100c857601f611b9c38819003918201601f19168301916001600160401b038311848410176100cc578084926020946040528339810103126100c857516001600160a01b0390818116908190036100c85733156100b0575f5460018060a01b03199033828216175f55604051933391167f8be0079c531659141344cd1fd0a4f28419497f9722a3daafe3b4186f6b6457e05f80a360015416176001556103e8600255611abb90816100e18239f35b604051631e4fbdf760e01b81525f6004820152602490fd5b5f80fd5b634e487b7160e01b5f52604160045260245ffdfe6080806040526004361015610012575f80fd5b5f3560e01c9081630c3006cc1461142f5750806317c3c068146111f05780631f679223146111b3578063303904141461105c578063380e78af14610fc85780636074d28214610d87578063715018a614610d305780638da5cb5b14610d09578063a74d477214610ce1578063bb119a6e146109c9578063c10533be1461097d578063c82b4dbb146108ef578063e0f2f067146102b1578063f0d33399146101e9578063f2b42f9f1461015a5763f2fde38b146100cc575f80fd5b34610156576020366003190112610156576100e561154e565b6100ed611a3a565b6001600160a01b0390811690811561013e575f54826bffffffffffffffffffffffff60a01b8216175f55167f8be0079c531659141344cd1fd0a4f28419497f9722a3daafe3b4186f6b6457e05f80a3005b604051631e4fbdf760e01b81525f6004820152602490fd5b5f80fd5b346101565760403660031901126101565760043567ffffffffffffffff81116101565761018b9036906004016115a3565b6101a760206024359281604051938285809451938492016115f9565b81016004815203019020908154811015610156576101cb6101d1916101e5936117cb565b906117f4565b60405191829160208352602083019061161a565b0390f35b34610156576020806003193601126101565767ffffffffffffffff9060043582811161015657816102216102349236906004016115a3565b81604051938285809451938492016115f9565b8101600481520301902091825490811161029d5782906040519161025d848360051b0184611581565b8183525f908152838120938084015b83831061028157604051806101e58782611719565b600182819261028f89611677565b81520196019201919461026c565b634e487b7160e01b5f52604160045260245ffd5b34610156576101003660031901126101565767ffffffffffffffff600435818111610156576102e49036906004016115a3565b90602435818111610156576102fd9036906004016115a3565b90604435818111610156576103169036906004016115a3565b916064358281116101565761032f9036906004016115a3565b608435838111610156576103479036906004016115a3565b9260c435908111610156576103609036906004016115a3565b60e43594906001600160a01b03861686036101565760018060a01b0360015416604051638cbdcead60e01b815233600482015260406024820152602081604481855afa8015610848576103ba915f916108c0575b50611830565b87511561088c578451156108535760206040518092638e690fc560e01b825282600483015281806103ee602482018b61161a565b03915afa908115610848575f9161080b575b5060ff60019116036107d2578151156107985782511561074957845115610704576001600160a01b038616156106cd576009604051602081816104498c838151938492016115f9565b81016003815203019020015461068f5760405161046581611564565b878152876020820186815260408301600160a01b600190038a168152606084018681526080850188815260a086018b815260c087019160a435835260e08801938985526101008901955f87526101208a01974289526101408b019960018b5260405181818093516020819301916104db926115f9565b8101600381520360200190209a516104f3908c6118d0565b516105019060018c016118d0565b5160028a0180546001600160a01b0319166001600160a01b0392909216919091179055516105329060038a016118d0565b5161054090600489016118d0565b5161054e90600588016118d0565b5160068601555161056290600786016118d0565b51600884015551600983015551151590600a019061058b919060ff801983541691151516179055565b86604051808651818160208a01916105a2926115f9565b810160048152036020019020906105b8916119d8565b6001600160a01b0386165f9081526005602052604090206105da9088906119d8565b6105e387611a0a565b936105ed90611a0a565b9460405193849360c0855260c085016106059161161a565b84810360208601526106169161161a565b83810360408501526106279161161a565b60a435606084015282810360808401526106409161161a565b4260a08301526001600160a01b03909516947f2dba4bd74adcfffb68388653a17f41077c757fdfe716ff77ddf2294931626f419291900390a4604051809160208252602082016101e59161161a565b60405162461bcd60e51b81526020600482015260166024820152754163636f756e7420616c72656164792065786973747360501b6044820152606490fd5b60405162461bcd60e51b815260206004820152600f60248201526e496e76616c6964206164647265737360881b6044820152606490fd5b60405162461bcd60e51b815260206004820152601760248201527f496e76616c6964206163636f756e7420707572706f73650000000000000000006044820152606490fd5b60405162461bcd60e51b815260206004820152602160248201527f496e76616c69642067756172616e746565206465706f736974206163636f756e6044820152601d60fa1b6064820152608490fd5b60405162461bcd60e51b8152602060048201526012602482015271496e76616c6964207661756c74207369746560701b6044820152606490fd5b60405162461bcd60e51b81526020600482015260116024820152704d656d626572206e6f742061637469766560781b6044820152606490fd5b90506020813d602011610840575b8161082660209383611581565b81010312610156575160ff811681036101565760ff610400565b3d9150610819565b6040513d5f823e3d90fd5b60405162461bcd60e51b8152602060048201526011602482015270496e76616c6964206d656d62657247494360781b6044820152606490fd5b60405162461bcd60e51b815260206004820152600c60248201526b24b73b30b634b21024a3a0a760a11b6044820152606490fd5b6108e2915060203d6020116108e8575b6108da8183611581565b810190611818565b8a6103b4565b503d6108d0565b346101565760203660031901126101565760043567ffffffffffffffff81116101565760086109696020610928819436906004016115a3565b60405190610958600982519385818186019661094581838a6115f9565b810160038152030190200154151561188b565b6040519384928392519283916115f9565b810160038152030190200154604051908152f35b346101565760403660031901126101565761099661154e565b6001600160a01b03165f908152600560205260409020805460243590811015610156576101cb6101d1916101e5936117cb565b34610156576109d73661177c565b90929160018060a01b03600154169160405192638cbdcead60e01b8085523360048601526024916040838701526020958681604481855afa9283156108485787915f94610cc2575b508315610c71575b50505015610c3d57604051855191610a61600987890194610a498186886115f9565b8401938881600396878152030190200154151561188b565b60ff600a60405188818b51610a7781838b6115f9565b81018781520301902001541615610c05575f851215610bb357600860405187818a51610aa481838a6115f9565b8101868152030190200154610ab886611a2a565b11610b7957610ac685611a2a565b90600860405188818b51610adb81838b6115f9565b81018781520301902001908154928303928311610b665750610b2787610b55955f80516020611a668339815191529a9b95610b3895600895555b8c6040519485938492519283916115f9565b820190815203019020015497611a0a565b96604051958695865285015260a0604085015260a084019061161a565b9060608301524260808301520390a2005b634e487b7160e01b5f9081526011600452fd5b8560146064926040519262461bcd60e51b8452600484015282015273496e73756666696369656e742062616c616e636560601b6044820152fd5b600860405187818a51610bc781838a6115f9565b81018681520301902001805491868301809311610b665750610b2787610b55955f80516020611a668339815191529a9b95610b389560089555610b15565b8560126064926040519262461bcd60e51b84526004840152820152714163636f756e74206e6f742061637469766560701b6044820152fd5b83600e6064926040519262461bcd60e51b845260048401528201526d139bdd08185d5d1a1bdc9a5e995960921b6044820152fd5b9091925060446040518094819382523360048301526004878301525afa908115610848575f91610ca5575b50878581610a27565b610cbc9150853d87116108e8576108da8183611581565b87610c9c565b610cda919450823d84116108e8576108da8183611581565b928a610a1f565b34610156575f366003190112610156576001546040516001600160a01b039091168152602090f35b34610156575f366003190112610156575f546040516001600160a01b039091168152602090f35b34610156575f36600319011261015657610d48611a3a565b5f80546001600160a01b0319811682556001600160a01b03167f8be0079c531659141344cd1fd0a4f28419497f9722a3daafe3b4186f6b6457e08280a3005b3461015657610d953661177c565b9091335f526020916006835260ff60405f20541615610f8357604051855194610de0600986890197610dc881868b6115f9565b8401938781600396878152030190200154151561188b565b604051875160ff91600a9188908290610dfa81838e6115f9565b81018781520301902001541615610f49575f841215610ef657600860405186818a51610e2781838d6115f9565b8101868152030190200154610e3b85611a2a565b11610eba57610e4984611a2a565b95600860405187818b51610e5e8183886115f9565b81018781520301902001928354978803978811610ea657610b2787610b38936008935f80516020611a668339815191529b610b5598558c6040519485938492519283916115f9565b634e487b7160e01b5f52601160045260245ffd5b60405162461bcd60e51b8152600481018690526014602482015273496e73756666696369656e742062616c616e636560601b6044820152606490fd5b600860409692965186818a51610f0d8183896115f9565b81018a8152030190200191825496858801809811610ea657610b2787610b38936008935f80516020611a668339815191529b610b559855610b15565b60405162461bcd60e51b81526004810186905260126024820152714163636f756e74206e6f742061637469766560701b6044820152606490fd5b60405162461bcd60e51b815260048101849052601760248201527f4e6f7420617574686f72697a65643a20757064617465720000000000000000006044820152606490fd5b3461015657602080600319360112610156576001600160a01b03610fea61154e565b165f526005815260405f2090815467ffffffffffffffff811161029d5782906040519161101c848360051b0184611581565b8183525f908152838120938084015b83831061104057604051806101e58782611719565b600182819261104e89611677565b81520196019201919461102b565b346101565760203660031901126101565760043567ffffffffffffffff81116101565761108d9036906004016115a3565b60405181818093516020819301916110a4926115f9565b8101600381520360200190206110b981611677565b6110c560018301611677565b60028301549092906001600160a01b03166110e260038301611677565b916110ef60048201611677565b6110fb60058301611677565b60068301549061110d60078501611677565b92600885015496600986015495600a015460ff16966040519a8b9a610160808d528c016111399161161a565b8b810360208d015261114a9161161a565b9060408b015289810360608b01526111619161161a565b88810360808a01526111729161161a565b87810360a08901526111839161161a565b9060c087015285810360e087015261119a9161161a565b9261010085015261012084015215156101408301520390f35b34610156576020366003190112610156576001600160a01b036111d461154e565b165f526006602052602060ff60405f2054166040519015158152f35b346101565760203660031901126101565760043567ffffffffffffffff81116101565760206112266112949236906004016115a3565b5f61014060405161123681611564565b6060815260608582015282604082015260608082015260606080820152606060a08201528260c0820152606060e08201528261010082015282610120820152015260405190610958600982519385818186019661094581838a6115f9565b8101600381520301902060ff600a604051926112af84611564565b6112b881611677565b84526112c660018201611677565b602085015260028101546001600160a01b031660408501526112ea60038201611677565b60608501526112fb60048201611677565b608085015261130c60058201611677565b60a0850152600681015460c085015261132760078201611677565b60e085015260088101546101008501526009810154610120850152015416151561014082015260405180916020825261014061140a6113748351610160602087015261018086019061161a565b6113ea6113d66113c2611399602088015194601f1995868b83030160408c015261161a565b60408801516001600160a01b031660608a810191909152880151898203860160808b015261161a565b6080870151848983030160a08a015261161a565b60a0860151838883030160c089015261161a565b9060c085015160e087015260e0850151908683030161010087015261161a565b9161010081015161012085015261012081015182850152015115156101608301520390f35b346101565760403660031901126101565761144861154e565b602435918215159182840361015657600154638cbdcead60e01b8352336004840152604060248401526020926001600160a01b03929184908290604490829087165afa8015610848576114a1915f916115315750611830565b169283156114fa57916040916114ed7fb565f0960a8981c0365b6313b09fc72a32789a356aa4065068173e9c0345370094865f5260068352845f209060ff801983541691151516179055565b82519182524290820152a2005b60405162461bcd60e51b815260048101839052600f60248201526e24b73b30b634b2103ab83230ba32b960891b6044820152606490fd5b6115489150853d87116108e8576108da8183611581565b876103b4565b600435906001600160a01b038216820361015657565b610160810190811067ffffffffffffffff82111761029d57604052565b90601f8019910116810190811067ffffffffffffffff82111761029d57604052565b81601f820112156101565780359067ffffffffffffffff821161029d57604051926115d8601f8401601f191660200185611581565b8284526020838301011161015657815f926020809301838601378301015290565b5f5b83811061160a5750505f910152565b81810151838201526020016115fb565b90602091611633815180928185528580860191016115f9565b601f01601f1916010190565b90600182811c9216801561166d575b602083101461165957565b634e487b7160e01b5f52602260045260245ffd5b91607f169161164e565b9060405191825f82546116898161163f565b908184526020946001916001811690815f146116f757506001146116b9575b5050506116b792500383611581565b565b5f90815285812095935091905b8183106116df5750506116b793508201015f80806116a8565b855488840185015294850194879450918301916116c6565b925050506116b794925060ff191682840152151560051b8201015f80806116a8565b6020808201906020835283518092526040830192602060408460051b8301019501935f915b84831061174e5750505050505090565b909192939495848061176c600193603f198682030187528a5161161a565b980193019301919493929061173e565b60806003198201126101565767ffffffffffffffff9160043583811161015657826117a9916004016115a3565b9260243592604435918211610156576117c4916004016115a3565b9060643590565b80548210156117e0575f5260205f2001905f90565b634e487b7160e01b5f52603260045260245ffd5b906118055761180290611677565b90565b634e487b7160e01b5f525f60045260245ffd5b90816020910312610156575180151581036101565790565b1561183757565b60405162461bcd60e51b815260206004820152602660248201527f4e6f7420617574686f72697a65643a20504c4154464f524d20726f6c652072656044820152651c5d5a5c995960d21b6064820152608490fd5b1561189257565b60405162461bcd60e51b81526020600482015260166024820152751058d8dbdd5b9d08191bd95cc81b9bdd08195e1a5cdd60521b6044820152606490fd5b919091825167ffffffffffffffff811161029d576118ee825461163f565b601f8111611993575b50602080601f83116001146119325750819293945f92611927575b50508160011b915f199060031b1c1916179055565b015190505f80611912565b90601f19831695845f5260205f20925f905b88821061197b57505083600195969710611963575b505050811b019055565b01515f1960f88460031b161c191690555f8080611959565b80600185968294968601518155019501930190611944565b825f5260205f20601f830160051c810191602084106119ce575b601f0160051c01905b8181106119c357506118f7565b5f81556001016119b6565b90915081906119ad565b80546801000000000000000081101561029d576119fa916001820181556117cb565b919091611805576116b7916118d0565b611a22906020604051928284809451938492016115f9565b810103902090565b600160ff1b8114610ea6575f0390565b5f546001600160a01b03163303611a4d57565b60405163118cdaa760e01b8152336004820152602490fdfe218efa32e36e5dc1971edc148c88be33438f4d640370391b453450e439ba4901a2646970667358221220dd7fd5f63e16c4b830b5fdccfcc9c8b747abff678751380e478569badc697d3e64736f6c63430008180033","linkReferences":{}},"methodIdentifiers":{"accounts(string)":"30390414","addressAccounts(address,uint256)":"c10533be","balanceUpdaters(address)":"1f679223","createAccount(string,string,string,string,string,uint256,string,address)":"e0f2f067","getAccountBalance(string)":"c82b4dbb","getAccountDetails(string)":"17c3c068","getAccountsByAddress(address)":"380e78af","getAccountsByMember(string)":"f0d33399","memberAccounts(string,uint256)":"f2b42f9f","memberRegistry()":"a74d4772","owner()":"8da5cb5b","renounceOwnership()":"715018a6","setBalanceUpdater(address,bool)":"0c3006cc","transferOwnership(address)":"f2fde38b","updateBalance(string,int256,string,uint256)":"bb119a6e","updateBalanceFromContract(string,int256,string,uint256)":"6074d282"},"id":0}