{"abi":[{"type":"constructor","inputs":[{"name":"_memberRegistry","type":"address","internalType":"address"}],"stateMutability":"nonpayable"},{"type":"function","name":"accounts","inputs":[{"name":"","type":"string","internalType":"string"}],"outputs":[{"name":"igan","type":"string","internalType":"string"},{"name":"memberGIC","type":"string","internalType":"string"},{"name":"ownerAddress","type":"address","internalType":"address"},{"name":"balance","type":"uint256","internalType":"uint256"},{"name":"createdAt","type":"uint256","internalType":"uint256"},{"name":"active","type":"bool","internalType":"bool"}],"stateMutability":"view"},{"type":"function","name":"addressAccounts","inputs":[{"name":"","type":"address","internalType":"address"},{"name":"","type":"uint256","internalType":"uint256"}],"outputs":[{"name":"","type":"string","internalType":"string"}],"stateMutability":"view"},{"type":"function","name":"createAccount","inputs":[{"name":"memberGIC","type":"string","internalType":"string"},{"name":"ownerAddress","type":"address","internalType":"address"}],"outputs":[{"name":"","type":"string","internalType":"string"}],"stateMutability":"nonpayable"},{"type":"function","name":"getAccountBalance","inputs":[{"name":"igan","type":"string","internalType":"string"}],"outputs":[{"name":"","type":"uint256","internalType":"uint256"}],"stateMutability":"view"},{"type":"function","name":"getAccountDetails","inputs":[{"name":"igan","type":"string","internalType":"string"}],"outputs":[{"name":"","type":"tuple","internalType":"struct GoldAccountLedger.Account","components":[{"name":"igan","type":"string","internalType":"string"},{"name":"memberGIC","type":"string","internalType":"string"},{"name":"ownerAddress","type":"address","internalType":"address"},{"name":"balance","type":"uint256","internalType":"uint256"},{"name":"createdAt","type":"uint256","internalType":"uint256"},{"name":"active","type":"bool","internalType":"bool"}]}],"stateMutability":"view"},{"type":"function","name":"getAccountsByAddress","inputs":[{"name":"addr","type":"address","internalType":"address"}],"outputs":[{"name":"","type":"string[]","internalType":"string[]"}],"stateMutability":"view"},{"type":"function","name":"getAccountsByMember","inputs":[{"name":"memberGIC","type":"string","internalType":"string"}],"outputs":[{"name":"","type":"string[]","internalType":"string[]"}],"stateMutability":"view"},{"type":"function","name":"memberAccounts","inputs":[{"name":"","type":"string","internalType":"string"},{"name":"","type":"uint256","internalType":"uint256"}],"outputs":[{"name":"","type":"string","internalType":"string"}],"stateMutability":"view"},{"type":"function","name":"memberRegistry","inputs":[],"outputs":[{"name":"","type":"address","internalType":"contract IMemberRegistry"}],"stateMutability":"view"},{"type":"function","name":"owner","inputs":[],"outputs":[{"name":"","type":"address","internalType":"address"}],"stateMutability":"view"},{"type":"function","name":"renounceOwnership","inputs":[],"outputs":[],"stateMutability":"nonpayable"},{"type":"function","name":"transferOwnership","inputs":[{"name":"newOwner","type":"address","internalType":"address"}],"outputs":[],"stateMutability":"nonpayable"},{"type":"function","name":"updateBalance","inputs":[{"name":"igan","type":"string","internalType":"string"},{"name":"delta","type":"int256","internalType":"int256"},{"name":"reason","type":"string","internalType":"string"},{"name":"tokenId","type":"uint256","internalType":"uint256"}],"outputs":[],"stateMutability":"nonpayable"},{"type":"event","name":"AccountCreated","inputs":[{"name":"igan","type":"string","indexed":true,"internalType":"string"},{"name":"memberGIC","type":"string","indexed":true,"internalType":"string"},{"name":"ownerAddress","type":"address","indexed":true,"internalType":"address"},{"name":"timestamp","type":"uint256","indexed":false,"internalType":"uint256"}],"anonymous":false},{"type":"event","name":"BalanceUpdated","inputs":[{"name":"igan","type":"string","indexed":true,"internalType":"string"},{"name":"delta","type":"int256","indexed":false,"internalType":"int256"},{"name":"newBalance","type":"uint256","indexed":false,"internalType":"uint256"},{"name":"reason","type":"string","indexed":false,"internalType":"string"},{"name":"tokenId","type":"uint256","indexed":false,"internalType":"uint256"},{"name":"timestamp","type":"uint256","indexed":false,"internalType":"uint256"}],"anonymous":false},{"type":"event","name":"OwnershipTransferred","inputs":[{"name":"previousOwner","type":"address","indexed":true,"internalType":"address"},{"name":"newOwner","type":"address","indexed":true,"internalType":"address"}],"anonymous":false},{"type":"error","name":"OwnableInvalidOwner","inputs":[{"name":"owner","type":"address","internalType":"address"}]},{"type":"error","name":"OwnableUnauthorizedAccount","inputs":[{"name":"account","type":"address","internalType":"address"}]}],"bytecode":{"object":"0x608060405234801562000010575f80fd5b50604051620029f8380380620029f8833981810160405281019062000036919062000232565b335f73ffffffffffffffffffffffffffffffffffffffff168173ffffffffffffffffffffffffffffffffffffffff1603620000aa575f6040517f1e4fbdf7000000000000000000000000000000000000000000000000000000008152600401620000a1919062000273565b60405180910390fd5b620000bb816200010c60201b60201c565b508060015f6101000a81548173ffffffffffffffffffffffffffffffffffffffff021916908373ffffffffffffffffffffffffffffffffffffffff1602179055506103e8600281905550506200028e565b5f805f9054906101000a900473ffffffffffffffffffffffffffffffffffffffff169050815f806101000a81548173ffffffffffffffffffffffffffffffffffffffff021916908373ffffffffffffffffffffffffffffffffffffffff1602179055508173ffffffffffffffffffffffffffffffffffffffff168173ffffffffffffffffffffffffffffffffffffffff167f8be0079c531659141344cd1fd0a4f28419497f9722a3daafe3b4186f6b6457e060405160405180910390a35050565b5f80fd5b5f73ffffffffffffffffffffffffffffffffffffffff82169050919050565b5f620001fc82620001d1565b9050919050565b6200020e81620001f0565b811462000219575f80fd5b50565b5f815190506200022c8162000203565b92915050565b5f602082840312156200024a5762000249620001cd565b5b5f62000259848285016200021c565b91505092915050565b6200026d81620001f0565b82525050565b5f602082019050620002885f83018462000262565b92915050565b61275c806200029c5f395ff3fe608060405234801561000f575f80fd5b50600436106100cd575f3560e01c8063a74d47721161008a578063c82b4dbb11610064578063c82b4dbb14610228578063f0d3339914610258578063f2b42f9f14610288578063f2fde38b146102b8576100cd565b8063a74d4772146101be578063bb119a6e146101dc578063c10533be146101f8576100cd565b806317c3c068146100d15780633039041414610101578063380e78af14610136578063715018a61461016657806373b1e6d8146101705780638da5cb5b146101a0575b5f80fd5b6100eb60048036038101906100e691906116fd565b6102d4565b6040516100f891906118bc565b60405180910390f35b61011b600480360381019061011691906116fd565b610511565b60405161012d96959493929190611951565b60405180910390f35b610150600480360381019061014b91906119e8565b610698565b60405161015d9190611ace565b60405180910390f35b61016e6107a9565b005b61018a60048036038101906101859190611aee565b6107bc565b6040516101979190611b48565b60405180910390f35b6101a8610bdb565b6040516101b59190611b68565b60405180910390f35b6101c6610c02565b6040516101d39190611bdc565b60405180910390f35b6101f660048036038101906101f19190611c52565b610c27565b005b610212600480360381019061020d9190611cee565b610f7f565b60405161021f9190611b48565b60405180910390f35b610242600480360381019061023d91906116fd565b611030565b60405161024f9190611d2c565b60405180910390f35b610272600480360381019061026d91906116fd565b61105a565b60405161027f9190611ace565b60405180910390f35b6102a2600480360381019061029d9190611d45565b61114c565b6040516102af9190611b48565b60405180910390f35b6102d260048036038101906102cd91906119e8565b611215565b005b6102dc611566565b5f6003836040516102ed9190611dd9565b9081526020016040518091039020600401540361033f576040517f08c379a000000000000000000000000000000000000000000000000000000000815260040161033690611e39565b60405180910390fd5b60038260405161034f9190611dd9565b90815260200160405180910390206040518060c00160405290815f8201805461037790611e84565b80601f01602080910402602001604051908101604052809291908181526020018280546103a390611e84565b80156103ee5780601f106103c5576101008083540402835291602001916103ee565b820191905f5260205f20905b8154815290600101906020018083116103d157829003601f168201915b5050505050815260200160018201805461040790611e84565b80601f016020809104026020016040519081016040528092919081815260200182805461043390611e84565b801561047e5780601f106104555761010080835404028352916020019161047e565b820191905f5260205f20905b81548152906001019060200180831161046157829003601f168201915b50505050508152602001600282015f9054906101000a900473ffffffffffffffffffffffffffffffffffffffff1673ffffffffffffffffffffffffffffffffffffffff1673ffffffffffffffffffffffffffffffffffffffff1681526020016003820154815260200160048201548152602001600582015f9054906101000a900460ff1615151515815250509050919050565b6003818051602081018201805184825260208301602085012081835280955050505050505f91509050805f01805461054890611e84565b80601f016020809104026020016040519081016040528092919081815260200182805461057490611e84565b80156105bf5780601f10610596576101008083540402835291602001916105bf565b820191905f5260205f20905b8154815290600101906020018083116105a257829003601f168201915b5050505050908060010180546105d490611e84565b80601f016020809104026020016040519081016040528092919081815260200182805461060090611e84565b801561064b5780601f106106225761010080835404028352916020019161064b565b820191905f5260205f20905b81548152906001019060200180831161062e57829003601f168201915b505050505090806002015f9054906101000a900473ffffffffffffffffffffffffffffffffffffffff1690806003015490806004015490806005015f9054906101000a900460ff16905086565b606060055f8373ffffffffffffffffffffffffffffffffffffffff1673ffffffffffffffffffffffffffffffffffffffff1681526020019081526020015f20805480602002602001604051908101604052809291908181526020015f905b8282101561079e578382905f5260205f2001805461071390611e84565b80601f016020809104026020016040519081016040528092919081815260200182805461073f90611e84565b801561078a5780601f106107615761010080835404028352916020019161078a565b820191905f5260205f20905b81548152906001019060200180831161076d57829003601f168201915b5050505050815260200190600101906106f6565b505050509050919050565b6107b1611299565b6107ba5f611320565b565b606060015f9054906101000a900473ffffffffffffffffffffffffffffffffffffffff1673ffffffffffffffffffffffffffffffffffffffff16638cbdcead33604080518363ffffffff1660e01b815260040161081a929190611eb4565b602060405180830381865afa158015610835573d5f803e3d5ffd5b505050506040513d601f19601f820116820180604052508101906108599190611f05565b610898576040517f08c379a000000000000000000000000000000000000000000000000000000000815260040161088f90611fa0565b60405180910390fd5b5f8351116108db576040517f08c379a00000000000000000000000000000000000000000000000000000000081526004016108d290612008565b60405180910390fd5b5f73ffffffffffffffffffffffffffffffffffffffff168273ffffffffffffffffffffffffffffffffffffffff1603610949576040517f08c379a000000000000000000000000000000000000000000000000000000000815260040161094090612070565b60405180910390fd5b5f6109556002546113e1565b60405160200161096591906120d8565b604051602081830303815290604052905060025f81548092919061098890612126565b91905055505f6040518060c001604052808381526020018681526020018573ffffffffffffffffffffffffffffffffffffffff1681526020015f8152602001428152602001600115158152509050806003836040516109e79190611dd9565b90815260200160405180910390205f820151815f019081610a089190612301565b506020820151816001019081610a1e9190612301565b506040820151816002015f6101000a81548173ffffffffffffffffffffffffffffffffffffffff021916908373ffffffffffffffffffffffffffffffffffffffff160217905550606082015181600301556080820151816004015560a0820151816005015f6101000a81548160ff021916908315150217905550905050600485604051610aab9190611dd9565b908152602001604051809103902082908060018154018082558091505060019003905f5260205f20015f909190919091509081610ae89190612301565b5060055f8573ffffffffffffffffffffffffffffffffffffffff1673ffffffffffffffffffffffffffffffffffffffff1681526020019081526020015f2082908060018154018082558091505060019003905f5260205f20015f909190919091509081610b559190612301565b508373ffffffffffffffffffffffffffffffffffffffff1685604051610b7b9190611dd9565b604051809103902083604051610b919190611dd9565b60405180910390207f0551d2f2441b9886d067ff5108c58b08be7ccd2e54db6c06b11a6eb8dad0d4b042604051610bc89190611d2c565b60405180910390a4819250505092915050565b5f805f9054906101000a900473ffffffffffffffffffffffffffffffffffffffff16905090565b60015f9054906101000a900473ffffffffffffffffffffffffffffffffffffffff1681565b60015f9054906101000a900473ffffffffffffffffffffffffffffffffffffffff1673ffffffffffffffffffffffffffffffffffffffff16638cbdcead33604080518363ffffffff1660e01b8152600401610c83929190611eb4565b602060405180830381865afa158015610c9e573d5f803e3d5ffd5b505050506040513d601f19601f82011682018060405250810190610cc29190611f05565b80610d65575060015f9054906101000a900473ffffffffffffffffffffffffffffffffffffffff1673ffffffffffffffffffffffffffffffffffffffff16638cbdcead3360046040518363ffffffff1660e01b8152600401610d25929190611eb4565b602060405180830381865afa158015610d40573d5f803e3d5ffd5b505050506040513d601f19601f82011682018060405250810190610d649190611f05565b5b610da4576040517f08c379a0000000000000000000000000000000000000000000000000000000008152600401610d9b9061241a565b60405180910390fd5b600384604051610db49190611dd9565b90815260200160405180910390206005015f9054906101000a900460ff16610e11576040517f08c379a0000000000000000000000000000000000000000000000000000000008152600401610e0890612482565b60405180910390fd5b5f831215610ecb5782610e23906124a0565b600385604051610e339190611dd9565b9081526020016040518091039020600301541015610e86576040517f08c379a0000000000000000000000000000000000000000000000000000000008152600401610e7d90612530565b60405180910390fd5b82610e90906124a0565b600385604051610ea09190611dd9565b90815260200160405180910390206003015f828254610ebf919061254e565b92505081905550610f03565b82600385604051610edc9190611dd9565b90815260200160405180910390206003015f828254610efb9190612581565b925050819055505b83604051610f119190611dd9565b60405180910390207f218efa32e36e5dc1971edc148c88be33438f4d640370391b453450e439ba490184600387604051610f4b9190611dd9565b908152602001604051809103902060030154858542604051610f719594939291906125c3565b60405180910390a250505050565b6005602052815f5260405f208181548110610f98575f80fd5b905f5260205f20015f91509150508054610fb190611e84565b80601f0160208091040260200160405190810160405280929190818152602001828054610fdd90611e84565b80156110285780601f10610fff57610100808354040283529160200191611028565b820191905f5260205f20905b81548152906001019060200180831161100b57829003601f168201915b505050505081565b5f6003826040516110419190611dd9565b9081526020016040518091039020600301549050919050565b606060048260405161106c9190611dd9565b9081526020016040518091039020805480602002602001604051908101604052809291908181526020015f905b82821015611141578382905f5260205f200180546110b690611e84565b80601f01602080910402602001604051908101604052809291908181526020018280546110e290611e84565b801561112d5780601f106111045761010080835404028352916020019161112d565b820191905f5260205f20905b81548152906001019060200180831161111057829003601f168201915b505050505081526020019060010190611099565b505050509050919050565b600482805160208101820180518482526020830160208501208183528095505050505050818154811061117d575f80fd5b905f5260205f20015f9150915050805461119690611e84565b80601f01602080910402602001604051908101604052809291908181526020018280546111c290611e84565b801561120d5780601f106111e45761010080835404028352916020019161120d565b820191905f5260205f20905b8154815290600101906020018083116111f057829003601f168201915b505050505081565b61121d611299565b5f73ffffffffffffffffffffffffffffffffffffffff168173ffffffffffffffffffffffffffffffffffffffff160361128d575f6040517f1e4fbdf70000000000000000000000000000000000000000000000000000000081526004016112849190611b68565b60405180910390fd5b61129681611320565b50565b6112a161155f565b73ffffffffffffffffffffffffffffffffffffffff166112bf610bdb565b73ffffffffffffffffffffffffffffffffffffffff161461131e576112e261155f565b6040517f118cdaa70000000000000000000000000000000000000000000000000000000081526004016113159190611b68565b60405180910390fd5b565b5f805f9054906101000a900473ffffffffffffffffffffffffffffffffffffffff169050815f806101000a81548173ffffffffffffffffffffffffffffffffffffffff021916908373ffffffffffffffffffffffffffffffffffffffff1602179055508173ffffffffffffffffffffffffffffffffffffffff168173ffffffffffffffffffffffffffffffffffffffff167f8be0079c531659141344cd1fd0a4f28419497f9722a3daafe3b4186f6b6457e060405160405180910390a35050565b60605f8203611427576040518060400160405280600181526020017f3000000000000000000000000000000000000000000000000000000000000000815250905061155a565b5f8290505f5b5f821461145657808061143f90612126565b915050600a8261144f9190612648565b915061142d565b5f8167ffffffffffffffff811115611471576114706115d9565b5b6040519080825280601f01601f1916602001820160405280156114a35781602001600182028036833780820191505090505b5090505f8290505b5f8614611552576001816114bf919061254e565b90505f600a80886114d09190612648565b6114da9190612678565b876114e5919061254e565b60306114f191906126c5565b90505f8160f81b90508084848151811061150e5761150d6126f9565b5b60200101907effffffffffffffffffffffffffffffffffffffffffffffffffffffffffffff191690815f1a905350600a886115499190612648565b975050506114ab565b819450505050505b919050565b5f33905090565b6040518060c0016040528060608152602001606081526020015f73ffffffffffffffffffffffffffffffffffffffff1681526020015f81526020015f81526020015f151581525090565b5f604051905090565b5f80fd5b5f80fd5b5f80fd5b5f80fd5b5f601f19601f8301169050919050565b7f4e487b71000000000000000000000000000000000000000000000000000000005f52604160045260245ffd5b61160f826115c9565b810181811067ffffffffffffffff8211171561162e5761162d6115d9565b5b80604052505050565b5f6116406115b0565b905061164c8282611606565b919050565b5f67ffffffffffffffff82111561166b5761166a6115d9565b5b611674826115c9565b9050602081019050919050565b828183375f83830152505050565b5f6116a161169c84611651565b611637565b9050828152602081018484840111156116bd576116bc6115c5565b5b6116c8848285611681565b509392505050565b5f82601f8301126116e4576116e36115c1565b5b81356116f484826020860161168f565b91505092915050565b5f60208284031215611712576117116115b9565b5b5f82013567ffffffffffffffff81111561172f5761172e6115bd565b5b61173b848285016116d0565b91505092915050565b5f81519050919050565b5f82825260208201905092915050565b5f5b8381101561177b578082015181840152602081019050611760565b5f8484015250505050565b5f61179082611744565b61179a818561174e565b93506117aa81856020860161175e565b6117b3816115c9565b840191505092915050565b5f73ffffffffffffffffffffffffffffffffffffffff82169050919050565b5f6117e7826117be565b9050919050565b6117f7816117dd565b82525050565b5f819050919050565b61180f816117fd565b82525050565b5f8115159050919050565b61182981611815565b82525050565b5f60c083015f8301518482035f8601526118498282611786565b915050602083015184820360208601526118638282611786565b915050604083015161187860408601826117ee565b50606083015161188b6060860182611806565b50608083015161189e6080860182611806565b5060a08301516118b160a0860182611820565b508091505092915050565b5f6020820190508181035f8301526118d4818461182f565b905092915050565b5f82825260208201905092915050565b5f6118f682611744565b61190081856118dc565b935061191081856020860161175e565b611919816115c9565b840191505092915050565b61192d816117dd565b82525050565b61193c816117fd565b82525050565b61194b81611815565b82525050565b5f60c0820190508181035f83015261196981896118ec565b9050818103602083015261197d81886118ec565b905061198c6040830187611924565b6119996060830186611933565b6119a66080830185611933565b6119b360a0830184611942565b979650505050505050565b6119c7816117dd565b81146119d1575f80fd5b50565b5f813590506119e2816119be565b92915050565b5f602082840312156119fd576119fc6115b9565b5b5f611a0a848285016119d4565b91505092915050565b5f81519050919050565b5f82825260208201905092915050565b5f819050602082019050919050565b5f611a478383611786565b905092915050565b5f602082019050919050565b5f611a6582611a13565b611a6f8185611a1d565b935083602082028501611a8185611a2d565b805f5b85811015611abc5784840389528151611a9d8582611a3c565b9450611aa883611a4f565b925060208a01995050600181019050611a84565b50829750879550505050505092915050565b5f6020820190508181035f830152611ae68184611a5b565b905092915050565b5f8060408385031215611b0457611b036115b9565b5b5f83013567ffffffffffffffff811115611b2157611b206115bd565b5b611b2d858286016116d0565b9250506020611b3e858286016119d4565b9150509250929050565b5f6020820190508181035f830152611b6081846118ec565b905092915050565b5f602082019050611b7b5f830184611924565b92915050565b5f819050919050565b5f611ba4611b9f611b9a846117be565b611b81565b6117be565b9050919050565b5f611bb582611b8a565b9050919050565b5f611bc682611bab565b9050919050565b611bd681611bbc565b82525050565b5f602082019050611bef5f830184611bcd565b92915050565b5f819050919050565b611c0781611bf5565b8114611c11575f80fd5b50565b5f81359050611c2281611bfe565b92915050565b611c31816117fd565b8114611c3b575f80fd5b50565b5f81359050611c4c81611c28565b92915050565b5f805f8060808587031215611c6a57611c696115b9565b5b5f85013567ffffffffffffffff811115611c8757611c866115bd565b5b611c93878288016116d0565b9450506020611ca487828801611c14565b935050604085013567ffffffffffffffff811115611cc557611cc46115bd565b5b611cd1878288016116d0565b9250506060611ce287828801611c3e565b91505092959194509250565b5f8060408385031215611d0457611d036115b9565b5b5f611d11858286016119d4565b9250506020611d2285828601611c3e565b9150509250929050565b5f602082019050611d3f5f830184611933565b92915050565b5f8060408385031215611d5b57611d5a6115b9565b5b5f83013567ffffffffffffffff811115611d7857611d776115bd565b5b611d84858286016116d0565b9250506020611d9585828601611c3e565b9150509250929050565b5f81905092915050565b5f611db382611744565b611dbd8185611d9f565b9350611dcd81856020860161175e565b80840191505092915050565b5f611de48284611da9565b915081905092915050565b7f4163636f756e7420646f6573206e6f74206578697374000000000000000000005f82015250565b5f611e236016836118dc565b9150611e2e82611def565b602082019050919050565b5f6020820190508181035f830152611e5081611e17565b9050919050565b7f4e487b71000000000000000000000000000000000000000000000000000000005f52602260045260245ffd5b5f6002820490506001821680611e9b57607f821691505b602082108103611eae57611ead611e57565b5b50919050565b5f604082019050611ec75f830185611924565b611ed46020830184611933565b9392505050565b611ee481611815565b8114611eee575f80fd5b50565b5f81519050611eff81611edb565b92915050565b5f60208284031215611f1a57611f196115b9565b5b5f611f2784828501611ef1565b91505092915050565b7f4e6f7420617574686f72697a65643a20504c4154464f524d20726f6c652072655f8201527f7175697265640000000000000000000000000000000000000000000000000000602082015250565b5f611f8a6026836118dc565b9150611f9582611f30565b604082019050919050565b5f6020820190508181035f830152611fb781611f7e565b9050919050565b7f496e76616c6964206d656d6265724749430000000000000000000000000000005f82015250565b5f611ff26011836118dc565b9150611ffd82611fbe565b602082019050919050565b5f6020820190508181035f83015261201f81611fe6565b9050919050565b7f496e76616c6964206164647265737300000000000000000000000000000000005f82015250565b5f61205a600f836118dc565b915061206582612026565b602082019050919050565b5f6020820190508181035f8301526120878161204e565b9050919050565b7f4947414e2d0000000000000000000000000000000000000000000000000000005f82015250565b5f6120c2600583611d9f565b91506120cd8261208e565b600582019050919050565b5f6120e2826120b6565b91506120ee8284611da9565b915081905092915050565b7f4e487b71000000000000000000000000000000000000000000000000000000005f52601160045260245ffd5b5f612130826117fd565b91507fffffffffffffffffffffffffffffffffffffffffffffffffffffffffffffffff8203612162576121616120f9565b5b600182019050919050565b5f819050815f5260205f209050919050565b5f6020601f8301049050919050565b5f82821b905092915050565b5f600883026121c97fffffffffffffffffffffffffffffffffffffffffffffffffffffffffffffffff8261218e565b6121d3868361218e565b95508019841693508086168417925050509392505050565b5f6122056122006121fb846117fd565b611b81565b6117fd565b9050919050565b5f819050919050565b61221e836121eb565b61223261222a8261220c565b84845461219a565b825550505050565b5f90565b61224661223a565b612251818484612215565b505050565b5b81811015612274576122695f8261223e565b600181019050612257565b5050565b601f8211156122b95761228a8161216d565b6122938461217f565b810160208510156122a2578190505b6122b66122ae8561217f565b830182612256565b50505b505050565b5f82821c905092915050565b5f6122d95f19846008026122be565b1980831691505092915050565b5f6122f183836122ca565b9150826002028217905092915050565b61230a82611744565b67ffffffffffffffff811115612323576123226115d9565b5b61232d8254611e84565b612338828285612278565b5f60209050601f831160018114612369575f8415612357578287015190505b61236185826122e6565b8655506123c8565b601f1984166123778661216d565b5f5b8281101561239e57848901518255600182019150602085019450602081019050612379565b868310156123bb57848901516123b7601f8916826122ca565b8355505b6001600288020188555050505b505050505050565b7f4e6f7420617574686f72697a65640000000000000000000000000000000000005f82015250565b5f612404600e836118dc565b915061240f826123d0565b602082019050919050565b5f6020820190508181035f830152612431816123f8565b9050919050565b7f4163636f756e74206e6f742061637469766500000000000000000000000000005f82015250565b5f61246c6012836118dc565b915061247782612438565b602082019050919050565b5f6020820190508181035f83015261249981612460565b9050919050565b5f6124aa82611bf5565b91507f800000000000000000000000000000000000000000000000000000000000000082036124dc576124db6120f9565b5b815f039050919050565b7f496e73756666696369656e742062616c616e63650000000000000000000000005f82015250565b5f61251a6014836118dc565b9150612525826124e6565b602082019050919050565b5f6020820190508181035f8301526125478161250e565b9050919050565b5f612558826117fd565b9150612563836117fd565b925082820390508181111561257b5761257a6120f9565b5b92915050565b5f61258b826117fd565b9150612596836117fd565b92508282019050808211156125ae576125ad6120f9565b5b92915050565b6125bd81611bf5565b82525050565b5f60a0820190506125d65f8301886125b4565b6125e36020830187611933565b81810360408301526125f581866118ec565b90506126046060830185611933565b6126116080830184611933565b9695505050505050565b7f4e487b71000000000000000000000000000000000000000000000000000000005f52601260045260245ffd5b5f612652826117fd565b915061265d836117fd565b92508261266d5761266c61261b565b5b828204905092915050565b5f612682826117fd565b915061268d836117fd565b925082820261269b816117fd565b915082820484148315176126b2576126b16120f9565b5b5092915050565b5f60ff82169050919050565b5f6126cf826126b9565b91506126da836126b9565b9250828201905060ff8111156126f3576126f26120f9565b5b92915050565b7f4e487b71000000000000000000000000000000000000000000000000000000005f52603260045260245ffdfea26469706673582212208d3535d1893a9f34e912eff051e881695ad2bc48ea130fb58ee27dceb239296f64736f6c63430008180033","linkReferences":{}},"methodIdentifiers":{"accounts(string)":"30390414","addressAccounts(address,uint256)":"c10533be","createAccount(string,address)":"73b1e6d8","getAccountBalance(string)":"c82b4dbb","getAccountDetails(string)":"17c3c068","getAccountsByAddress(address)":"380e78af","getAccountsByMember(string)":"f0d33399","memberAccounts(string,uint256)":"f2b42f9f","memberRegistry()":"a74d4772","owner()":"8da5cb5b","renounceOwnership()":"715018a6","transferOwnership(address)":"f2fde38b","updateBalance(string,int256,string,uint256)":"bb119a6e"},"id":0}