{"abi":[{"type":"constructor","inputs":[{"name":"_memberRegistry","type":"address","internalType":"address"}],"stateMutability":"nonpayable"},{"type":"function","name":"createVaultSite","inputs":[{"name":"vaultSiteId","type":"string","internalType":"string"},{"name":"vaultSiteName","type":"string","internalType":"string"},{"name":"memberGIC","type":"string","internalType":"string"},{"name":"locationName","type":"string","internalType":"string"},{"name":"registeredAddress","type":"string","internalType":"string"},{"name":"operationalAddress","type":"string","internalType":"string"},{"name":"city","type":"string","internalType":"string"},{"name":"stateOrProvince","type":"string","internalType":"string"},{"name":"postalCode","type":"string","internalType":"string"},{"name":"country","type":"string","internalType":"string"},{"name":"timezone","type":"string","internalType":"string"},{"name":"gpsCoordinates","type":"string","internalType":"string"},{"name":"numberOfVaults","type":"uint256","internalType":"uint256"},{"name":"maximumWeightInGoldKg","type":"uint256","internalType":"uint256"},{"name":"openingHours","type":"string","internalType":"string"},{"name":"insurerName","type":"string","internalType":"string"},{"name":"insuranceExpirationDate","type":"string","internalType":"string"},{"name":"insuranceDocumentationSodId","type":"string","internalType":"string"},{"name":"auditDocumentationSodId","type":"string","internalType":"string"},{"name":"lastAuditDate","type":"string","internalType":"string"}],"outputs":[{"name":"success","type":"bool","internalType":"bool"}],"stateMutability":"nonpayable"},{"type":"function","name":"getVaultSite","inputs":[{"name":"vaultSiteId","type":"string","internalType":"string"}],"outputs":[{"name":"site","type":"tuple","internalType":"struct VaultSiteRegistry.VaultSite","components":[{"name":"vaultSiteId","type":"string","internalType":"string"},{"name":"vaultSiteName","type":"string","internalType":"string"},{"name":"memberGIC","type":"string","internalType":"string"},{"name":"locationName","type":"string","internalType":"string"},{"name":"registeredAddress","type":"string","internalType":"string"},{"name":"operationalAddress","type":"string","internalType":"string"},{"name":"city","type":"string","internalType":"string"},{"name":"stateOrProvince","type":"string","internalType":"string"},{"name":"postalCode","type":"string","internalType":"string"},{"name":"country","type":"string","internalType":"string"},{"name":"timezone","type":"string","internalType":"string"},{"name":"gpsCoordinates","type":"string","internalType":"string"},{"name":"numberOfVaults","type":"uint256","internalType":"uint256"},{"name":"maximumWeightInGoldKg","type":"uint256","internalType":"uint256"},{"name":"openingHours","type":"string","internalType":"string"},{"name":"insurerName","type":"string","internalType":"string"},{"name":"insuranceExpirationDate","type":"string","internalType":"string"},{"name":"insuranceDocumentationSodId","type":"string","internalType":"string"},{"name":"auditDocumentationSodId","type":"string","internalType":"string"},{"name":"lastAuditDate","type":"string","internalType":"string"},{"name":"status","type":"string","internalType":"string"},{"name":"createdAt","type":"uint256","internalType":"uint256"},{"name":"createdBy","type":"address","internalType":"address"}]}],"stateMutability":"view"},{"type":"function","name":"getVaultSiteIds","inputs":[],"outputs":[{"name":"ids","type":"string[]","internalType":"string[]"}],"stateMutability":"view"},{"type":"function","name":"memberRegistry","inputs":[],"outputs":[{"name":"","type":"address","internalType":"contract IMemberRegistry"}],"stateMutability":"view"},{"type":"function","name":"owner","inputs":[],"outputs":[{"name":"","type":"address","internalType":"address"}],"stateMutability":"view"},{"type":"function","name":"renounceOwnership","inputs":[],"outputs":[],"stateMutability":"nonpayable"},{"type":"function","name":"transferOwnership","inputs":[{"name":"newOwner","type":"address","internalType":"address"}],"outputs":[],"stateMutability":"nonpayable"},{"type":"function","name":"vaultSiteExistsView","inputs":[{"name":"vaultSiteId","type":"string","internalType":"string"}],"outputs":[{"name":"exists","type":"bool","internalType":"bool"}],"stateMutability":"view"},{"type":"event","name":"OwnershipTransferred","inputs":[{"name":"previousOwner","type":"address","indexed":true,"internalType":"address"},{"name":"newOwner","type":"address","indexed":true,"internalType":"address"}],"anonymous":false},{"type":"event","name":"VaultSiteCreated","inputs":[{"name":"vaultSiteId","type":"string","indexed":true,"internalType":"string"},{"name":"memberGIC","type":"string","indexed":true,"internalType":"string"},{"name":"vaultSiteName","type":"string","indexed":false,"internalType":"string"},{"name":"country","type":"string","indexed":false,"internalType":"string"},{"name":"numberOfVaults","type":"uint256","indexed":false,"internalType":"uint256"},{"name":"maximumWeightInGoldKg","type":"uint256","indexed":false,"internalType":"uint256"},{"name":"lastAuditDate","type":"string","indexed":false,"internalType":"string"},{"name":"createdBy","type":"address","indexed":true,"internalType":"address"},{"name":"timestamp","type":"uint256","indexed":false,"internalType":"uint256"}],"anonymous":false},{"type":"error","name":"OwnableInvalidOwner","inputs":[{"name":"owner","type":"address","internalType":"address"}]},{"type":"error","name":"OwnableUnauthorizedAccount","inputs":[{"name":"account","type":"address","internalType":"address"}]}],"bytecode":{"object":"0x60803461010e57601f6118f238819003918201601f19168301916001600160401b038311848410176101125780849260209460405283398101031261010e57516001600160a01b038082169182900361010e5733156100f6575f549060018060a01b03199133838216175f55604051913391167f8be0079c531659141344cd1fd0a4f28419497f9722a3daafe3b4186f6b6457e05f80a382156100b4575060015416176001556040516117cb90816101278239f35b62461bcd60e51b815260206004820152601660248201527f496e76616c6964204d656d6265725265676973747279000000000000000000006044820152606490fd5b604051631e4fbdf760e01b81525f6004820152602490fd5b5f80fd5b634e487b7160e01b5f52604160045260245ffdfe610160806040526004361015610013575f80fd5b5f3560e01c90816306d5220a1461138c575080632430dad814610742578063715018a6146106eb5780638da5cb5b146106c4578063a74d47721461069c578063b4dd2eec14610166578063f2fde38b146100da5763fa7b9ad214610075575f80fd5b346100d65760203660031901126100d6576004356001600160401b0381116100d65760156100c060206100ad819436906004016114fc565b8160405193828580945193849201611479565b8101600281520301902001541515604051908152f35b5f80fd5b346100d65760203660031901126100d6576004356001600160a01b03818116918290036100d65761010961176a565b811561014e575f54826bffffffffffffffffffffffff60a01b8216175f55167f8be0079c531659141344cd1fd0a4f28419497f9722a3daafe3b4186f6b6457e05f80a3005b604051631e4fbdf760e01b81525f6004820152602490fd5b346100d65760203660031901126100d6576004356001600160401b0381116100d6576101969036906004016114fc565b5f6102c06040516101a6816114bf565b60608152606060208201526060604082015260608082015260606080820152606060a0820152606060c0820152606060e0820152606061010082015260606101208201526060610140820152606061016082015282610180820152826101a082015260606101c082015260606101e082015260606102008201526060610220820152606061024082015260606102608201526060610280820152826102a08201520152601560405160208184516102608183858901611479565b8101600281520301902001541561065757602061028a918160405193828580945193849201611479565b81016002815203019020604051906102a1826114bf565b6102aa81611589565b82526102b860018201611589565b60208301526102c960028201611589565b60408301526102da60038201611589565b60608301526102eb60048201611589565b60808301526102fc60058201611589565b60a083015261030d60068201611589565b60c083015261031e60078201611589565b60e083015261032f60088201611589565b61010083015261034160098201611589565b610120830152610353600a8201611589565b610140830152610365600b8201611589565b610160830152600c810154610180830152600d8101546101a083015261038d600e8201611589565b6101c083015261039f600f8201611589565b6101e08301526103b160108201611589565b6102008301526103c360118201611589565b6102208301526103d560128201611589565b6102408301526103e760138201611589565b6102608301526103f960148201611589565b61028083015260158101546102a0830152601660018060a01b03910154166102c08201526040518091602082526106306106186106006105e86105d06105b86105a06105706105586105406105288b8d6101006105126104fd6104e76104d16104bb6104a561048f6104798a516102e060208c01526103008b019061149a565b60208b01518a8203601f190160408c015261149a565b60408a0151898203601f190160608b015261149a565b6060890151888203601f190160808a015261149a565b6080880151878203601f190160a089015261149a565b60a0870151868203601f190160c088015261149a565b60c0860151858203601f190160e087015261149a565b60e0850151848203601f19018486015261149a565b92015190610120601f198285030191015261149a565b6101208c01518d8203601f19016101408f015261149a565b6101408b01518c8203601f19016101608e015261149a565b6101608a01518b8203601f19016101808d015261149a565b6101808901516101a08b01526101a08901516101c08b01526101c0890151601f198b8303016101e08c015261149a565b6101e0880151898203601f19016102008b015261149a565b610200870151888203601f19016102208a015261149a565b610220860151878203601f190161024089015261149a565b610240850151868203601f190161026088015261149a565b610260840151858203601f190161028087015261149a565b610280830151848203601f19016102a086015261149a565b6102a08201516102c084810191909152909101516001600160a01b03166102e08301520390f35b60405162461bcd60e51b815260206004820152601960248201527f5661756c74207369746520646f6573206e6f74206578697374000000000000006044820152606490fd5b346100d6575f3660031901126100d6576001546040516001600160a01b039091168152602090f35b346100d6575f3660031901126100d6575f546040516001600160a01b039091168152602090f35b346100d6575f3660031901126100d65761070361176a565b5f80546001600160a01b0319811682556001600160a01b03167f8be0079c531659141344cd1fd0a4f28419497f9722a3daafe3b4186f6b6457e08280a3005b346100d6576102803660031901126100d6576004356001600160401b0381116100d6576107739036906004016114fc565b60e0526024356001600160401b0381116100d6576107959036906004016114fc565b610140526044356001600160401b0381116100d6576107b89036906004016114fc565b610100526064356001600160401b0381116100d6576107db9036906004016114fc565b6084356001600160401b0381116100d6576107fa9036906004016114fc565b60a4356001600160401b0381116100d6576108199036906004016114fc565b60c4356001600160401b0381116100d6576108389036906004016114fc565b60e4356001600160401b0381116100d6576108579036906004016114fc565b610104356001600160401b0381116100d6576108779036906004016114fc565b6001600160401b0361012435116100d65761089836610124356004016114fc565b61012052610144356001600160401b0381116100d6576108bc9036906004016114fc565b90610164356001600160401b0381116100d6576108dd9036906004016114fc565b926101c4356001600160401b0381116100d6576108fe9036906004016114fc565b946101e4356001600160401b0381116100d65761091f9036906004016114fc565b966001600160401b0361020435116100d65761094136610204356004016114fc565b986001600160401b0361022435116100d65761096336610224356004016114fc565b9a610244356001600160401b0381116100d6576109849036906004016114fc565b60a052610264356001600160401b0381116100d6576109a79036906004016114fc565b60c052600154604051638cbdcead60e01b8152336004820152600c60248201526001600160a01b0390911690602081604481855afa908115610f52575f9161136d575b508015611306575b156112ae5760e051511561127157601560405160208160e05151610a1b81838560e05101611479565b81016002815203019020015461122c576101405151156111e7576101005151156111ad578151156111705782511561112b578451156110f75760026101205151036110bb576101843515611076576101a43515611023578a5115610fe7578b5115610fa25760c0515115610f5d5760206040518092638e690fc560e01b82528260048301528180610ab2602482016101005161149a565b03915afa908115610f52575f91610f15575b5060ff6001911603610edc57604051608052610ae16080516114bf565b60e05160805152610140516020608051015261010051604060805101526060608051015260808051015260a0608051015260c0608051015260e060805101526101006080510152610120516101206080510152610140608051015261016060805101526101843561018060805101526101a4356101a060805101526101c060805101526101e060805101526102006080510152610220608051015260a051610240608051015260c05161026060805101526040518060408101106001600160401b03604083011117610ec85760408101604052600681526561637469766560d01b60208201526102806080510152426102a06080510152336102c06080510152601660405160208160e05151610bfc81838560e05101611479565b81016002815203019020610c136080515182611643565b610c266020608051015160018301611643565b610c396040608051015160028301611643565b610c4c6060608051015160038301611643565b610c5e60808051015160048301611643565b610c7160a0608051015160058301611643565b610c8460c0608051015160068301611643565b610c9760e0608051015160078301611643565b610cab610100608051015160088301611643565b610cbf610120608051015160098301611643565b610cd36101406080510151600a8301611643565b610ce76101606080510151600b8301611643565b608051610180810151600c8301556101a0810151600d8301556101c00151610d1290600e8301611643565b610d266101e06080510151600f8301611643565b610d3a610200608051015160108301611643565b610d4e610220608051015160118301611643565b610d62610240608051015160128301611643565b610d76610260608051015160138301611643565b610d8a610280608051015160148301611643565b6102a0608051015160158201550160018060a01b036102c06080510151166bffffffffffffffffffffffff60a01b82541617905560035468010000000000000000811015610ec8576001810180600355811015610eb45760035f5260e051610e13917fc2575a0e9e593c00f959f8c92f12db2869c3395a3b0502d05e2516446f71f85b01611643565b610e1e60e05161174a565b610e2a6101005161174a565b6040519160c083527febea8aae2433b06f5c5190b207c97c7e80334668b27a79fcaf72a6278345f195610e9c610e7a610e6960c087016101405161149a565b86810360208801526101205161149a565b6101843560408701526101a4356060870152858103608087015260c05161149a565b934260a08201528033950390a4602060405160018152f35b634e487b7160e01b5f52603260045260245ffd5b634e487b7160e01b5f52604160045260245ffd5b60405162461bcd60e51b81526020600482015260116024820152704d656d626572206e6f742061637469766560781b6044820152606490fd5b90506020813d602011610f4a575b81610f30602093836114db565b810103126100d6575160ff811681036100d65760ff610ac4565b3d9150610f23565b6040513d5f823e3d90fd5b60405162461bcd60e51b815260206004820152601760248201527f496e76616c6964206c6173745f61756469745f646174650000000000000000006044820152606490fd5b60405162461bcd60e51b815260206004820152601c60248201527f496e76616c696420696e737572616e63652065787069726174696f6e000000006044820152606490fd5b60405162461bcd60e51b8152602060048201526014602482015273496e76616c696420696e7375726572206e616d6560601b6044820152606490fd5b60405162461bcd60e51b815260206004820152602560248201527f6d6178696d756d5f7765696768745f696e5f676f6c645f6b67206d7573742062604482015264065203e20360dc1b6064820152608490fd5b60405162461bcd60e51b815260206004820152601c60248201527f6e756d6265725f6f665f7661756c7473206d757374206265203e2030000000006044820152606490fd5b60405162461bcd60e51b8152602060048201526014602482015273496e76616c696420636f756e74727920636f646560601b6044820152606490fd5b60405162461bcd60e51b815260206004820152600c60248201526b496e76616c6964206369747960a01b6044820152606490fd5b60405162461bcd60e51b815260206004820152601a60248201527f496e76616c696420726567697374657265645f616464726573730000000000006044820152606490fd5b60405162461bcd60e51b8152602060048201526015602482015274496e76616c6964206c6f636174696f6e5f6e616d6560581b6044820152606490fd5b60405162461bcd60e51b8152602060048201526012602482015271496e76616c6964206d656d6265725f67696360701b6044820152606490fd5b60405162461bcd60e51b815260206004820152601760248201527f496e76616c6964207661756c745f736974655f6e616d650000000000000000006044820152606490fd5b60405162461bcd60e51b815260206004820152601960248201527f5661756c74207369746520616c726561647920657869737473000000000000006044820152606490fd5b60405162461bcd60e51b8152602060048201526015602482015274125b9d985b1a59081d985d5b1d17dcda5d1957da59605a1b6044820152606490fd5b60405162461bcd60e51b815260206004820152602a60248201527f4e6f7420617574686f72697a65643a205641554c54206f7220474d4f20726f6c60448201526919481c995c5d5a5c995960b21b6064820152608490fd5b50604051638cbdcead60e01b815233600482015260c06024820152602081604481855afa908115610f52575f9161133e575b506109f2565b611360915060203d602011611366575b61135881836114db565b81019061162b565b8e611338565b503d61134e565b611386915060203d6020116113665761135881836114db565b8e6109ea565b346100d6575f3660031901126100d657600354906001600160401b038211610ec857906020906113c1828260051b01846114db565b808352818301908160035f527fc2575a0e9e593c00f959f8c92f12db2869c3395a3b0502d05e2516446f71f85b5f915b8383106114575750505050604051918083019381845251809452604083019360408160051b85010192915f955b82871061142b5785850386f35b909192938280611447600193603f198a8203018652885161149a565b960192019601959291909261141e565b6001868192611468859a999a611589565b8152019201920191909594956113f1565b5f5b83811061148a5750505f910152565b818101518382015260200161147b565b906020916114b381518092818552858086019101611479565b601f01601f1916010190565b6102e081019081106001600160401b03821117610ec857604052565b90601f801991011681019081106001600160401b03821117610ec857604052565b81601f820112156100d6578035906001600160401b038211610ec85760405192611530601f8401601f1916602001856114db565b828452602083830101116100d657815f926020809301838601378301015290565b90600182811c9216801561157f575b602083101461156b57565b634e487b7160e01b5f52602260045260245ffd5b91607f1691611560565b9060405191825f825461159b81611551565b908184526020946001916001811690815f1461160957506001146115cb575b5050506115c9925003836114db565b565b5f90815285812095935091905b8183106115f15750506115c993508201015f80806115ba565b855488840185015294850194879450918301916115d8565b925050506115c994925060ff191682840152151560051b8201015f80806115ba565b908160209103126100d6575180151581036100d65790565b91909182516001600160401b038111610ec8576116608254611551565b601f8111611705575b50602080601f83116001146116a45750819293945f92611699575b50508160011b915f199060031b1c1916179055565b015190505f80611684565b90601f19831695845f5260205f20925f905b8882106116ed575050836001959697106116d5575b505050811b019055565b01515f1960f88460031b161c191690555f80806116cb565b806001859682949686015181550195019301906116b6565b825f5260205f20601f830160051c81019160208410611740575b601f0160051c01905b8181106117355750611669565b5f8155600101611728565b909150819061171f565b61176290602060405192828480945193849201611479565b810103902090565b5f546001600160a01b0316330361177d57565b60405163118cdaa760e01b8152336004820152602490fdfea26469706673582212203c7985d24cfb32a6b6be09fdc155da58f02c7b000ae5691a5258c05b5fee003f64736f6c63430008180033","linkReferences":{}},"methodIdentifiers":{"createVaultSite(string,string,string,string,string,string,string,string,string,string,string,string,uint256,uint256,string,string,string,string,string,string)":"2430dad8","getVaultSite(string)":"b4dd2eec","getVaultSiteIds()":"06d5220a","memberRegistry()":"a74d4772","owner()":"8da5cb5b","renounceOwnership()":"715018a6","transferOwnership(address)":"f2fde38b","vaultSiteExistsView(string)":"fa7b9ad2"},"id":11}