{"abi":[{"type":"constructor","inputs":[{"name":"_memberRegistry","type":"address","internalType":"address"}],"stateMutability":"nonpayable"},{"type":"function","name":"createVaultSite","inputs":[{"name":"vaultSiteId","type":"string","internalType":"string"},{"name":"vaultSiteName","type":"string","internalType":"string"},{"name":"memberGIC","type":"string","internalType":"string"},{"name":"locationName","type":"string","internalType":"string"},{"name":"registeredAddress","type":"string","internalType":"string"},{"name":"operationalAddress","type":"string","internalType":"string"},{"name":"city","type":"string","internalType":"string"},{"name":"stateOrProvince","type":"string","internalType":"string"},{"name":"postalCode","type":"string","internalType":"string"},{"name":"country","type":"string","internalType":"string"},{"name":"timezone","type":"string","internalType":"string"},{"name":"gpsCoordinates","type":"string","internalType":"string"},{"name":"numberOfVaults","type":"uint256","internalType":"uint256"},{"name":"maximumWeightInGoldKg","type":"uint256","internalType":"uint256"},{"name":"openingHours","type":"string","internalType":"string"},{"name":"insurerName","type":"string","internalType":"string"},{"name":"insuranceExpirationDate","type":"string","internalType":"string"},{"name":"insuranceDocumentationSodId","type":"string","internalType":"string"},{"name":"auditDocumentationSodId","type":"string","internalType":"string"},{"name":"lastAuditDate","type":"string","internalType":"string"}],"outputs":[{"name":"success","type":"bool","internalType":"bool"}],"stateMutability":"nonpayable"},{"type":"function","name":"getVaultSite","inputs":[{"name":"vaultSiteId","type":"string","internalType":"string"}],"outputs":[{"name":"site","type":"tuple","internalType":"struct VaultSiteRegistry.VaultSite","components":[{"name":"vaultSiteId","type":"string","internalType":"string"},{"name":"vaultSiteName","type":"string","internalType":"string"},{"name":"memberGIC","type":"string","internalType":"string"},{"name":"locationName","type":"string","internalType":"string"},{"name":"registeredAddress","type":"string","internalType":"string"},{"name":"operationalAddress","type":"string","internalType":"string"},{"name":"city","type":"string","internalType":"string"},{"name":"stateOrProvince","type":"string","internalType":"string"},{"name":"postalCode","type":"string","internalType":"string"},{"name":"country","type":"string","internalType":"string"},{"name":"timezone","type":"string","internalType":"string"},{"name":"gpsCoordinates","type":"string","internalType":"string"},{"name":"numberOfVaults","type":"uint256","internalType":"uint256"},{"name":"maximumWeightInGoldKg","type":"uint256","internalType":"uint256"},{"name":"openingHours","type":"string","internalType":"string"},{"name":"insurerName","type":"string","internalType":"string"},{"name":"insuranceExpirationDate","type":"string","internalType":"string"},{"name":"insuranceDocumentationSodId","type":"string","internalType":"string"},{"name":"auditDocumentationSodId","type":"string","internalType":"string"},{"name":"lastAuditDate","type":"string","internalType":"string"},{"name":"status","type":"string","internalType":"string"},{"name":"createdAt","type":"uint256","internalType":"uint256"},{"name":"createdBy","type":"address","internalType":"address"}]}],"stateMutability":"view"},{"type":"function","name":"getVaultSiteIds","inputs":[],"outputs":[{"name":"ids","type":"string[]","internalType":"string[]"}],"stateMutability":"view"},{"type":"function","name":"memberRegistry","inputs":[],"outputs":[{"name":"","type":"address","internalType":"contract IMemberRegistry"}],"stateMutability":"view"},{"type":"function","name":"owner","inputs":[],"outputs":[{"name":"","type":"address","internalType":"address"}],"stateMutability":"view"},{"type":"function","name":"renounceOwnership","inputs":[],"outputs":[],"stateMutability":"nonpayable"},{"type":"function","name":"transferOwnership","inputs":[{"name":"newOwner","type":"address","internalType":"address"}],"outputs":[],"stateMutability":"nonpayable"},{"type":"function","name":"vaultSiteExistsView","inputs":[{"name":"vaultSiteId","type":"string","internalType":"string"}],"outputs":[{"name":"exists","type":"bool","internalType":"bool"}],"stateMutability":"view"},{"type":"event","name":"OwnershipTransferred","inputs":[{"name":"previousOwner","type":"address","indexed":true,"internalType":"address"},{"name":"newOwner","type":"address","indexed":true,"internalType":"address"}],"anonymous":false},{"type":"event","name":"VaultSiteCreated","inputs":[{"name":"vaultSiteId","type":"string","indexed":true,"internalType":"string"},{"name":"memberGIC","type":"string","indexed":true,"internalType":"string"},{"name":"vaultSiteName","type":"string","indexed":false,"internalType":"string"},{"name":"country","type":"string","indexed":false,"internalType":"string"},{"name":"numberOfVaults","type":"uint256","indexed":false,"internalType":"uint256"},{"name":"maximumWeightInGoldKg","type":"uint256","indexed":false,"internalType":"uint256"},{"name":"lastAuditDate","type":"string","indexed":false,"internalType":"string"},{"name":"createdBy","type":"address","indexed":true,"internalType":"address"},{"name":"timestamp","type":"uint256","indexed":false,"internalType":"uint256"}],"anonymous":false},{"type":"error","name":"OwnableInvalidOwner","inputs":[{"name":"owner","type":"address","internalType":"address"}]},{"type":"error","name":"OwnableUnauthorizedAccount","inputs":[{"name":"account","type":"address","internalType":"address"}]}],"bytecode":{"object":"0x60803461010e57601f61188038819003918201601f19168301916001600160401b038311848410176101125780849260209460405283398101031261010e57516001600160a01b038082169182900361010e5733156100f6575f549060018060a01b03199133838216175f55604051913391167f8be0079c531659141344cd1fd0a4f28419497f9722a3daafe3b4186f6b6457e05f80a382156100b45750600154161760015560405161175990816101278239f35b62461bcd60e51b815260206004820152601660248201527f496e76616c6964204d656d6265725265676973747279000000000000000000006044820152606490fd5b604051631e4fbdf760e01b81525f6004820152602490fd5b5f80fd5b634e487b7160e01b5f52604160045260245ffdfe610160806040526004361015610013575f80fd5b5f3560e01c90816306d5220a14611332575080632430dad814610742578063715018a6146106eb5780638da5cb5b146106c4578063a74d47721461069c578063b4dd2eec14610166578063f2fde38b146100da5763fa7b9ad214610075575f80fd5b346100d65760203660031901126100d6576004356001600160401b0381116100d65760156100c060206100ad819436906004016114a2565b816040519382858094519384920161141f565b8101600281520301902001541515604051908152f35b5f80fd5b346100d65760203660031901126100d6576004356001600160a01b03818116918290036100d6576101096116f8565b811561014e575f54826bffffffffffffffffffffffff60a01b8216175f55167f8be0079c531659141344cd1fd0a4f28419497f9722a3daafe3b4186f6b6457e05f80a3005b604051631e4fbdf760e01b81525f6004820152602490fd5b346100d65760203660031901126100d6576004356001600160401b0381116100d6576101969036906004016114a2565b5f6102c06040516101a681611465565b60608152606060208201526060604082015260608082015260606080820152606060a0820152606060c0820152606060e0820152606061010082015260606101208201526060610140820152606061016082015282610180820152826101a082015260606101c082015260606101e082015260606102008201526060610220820152606061024082015260606102608201526060610280820152826102a0820152015260156040516020818451610260818385890161141f565b8101600281520301902001541561065757602061028a91816040519382858094519384920161141f565b81016002815203019020604051906102a182611465565b6102aa8161152f565b82526102b86001820161152f565b60208301526102c96002820161152f565b60408301526102da6003820161152f565b60608301526102eb6004820161152f565b60808301526102fc6005820161152f565b60a083015261030d6006820161152f565b60c083015261031e6007820161152f565b60e083015261032f6008820161152f565b6101008301526103416009820161152f565b610120830152610353600a820161152f565b610140830152610365600b820161152f565b610160830152600c810154610180830152600d8101546101a083015261038d600e820161152f565b6101c083015261039f600f820161152f565b6101e08301526103b16010820161152f565b6102008301526103c36011820161152f565b6102208301526103d56012820161152f565b6102408301526103e76013820161152f565b6102608301526103f96014820161152f565b61028083015260158101546102a0830152601660018060a01b03910154166102c08201526040518091602082526106306106186106006105e86105d06105b86105a06105706105586105406105288b8d6101006105126104fd6104e76104d16104bb6104a561048f6104798a516102e060208c01526103008b0190611440565b60208b01518a8203601f190160408c0152611440565b60408a0151898203601f190160608b0152611440565b6060890151888203601f190160808a0152611440565b6080880151878203601f190160a0890152611440565b60a0870151868203601f190160c0880152611440565b60c0860151858203601f190160e0870152611440565b60e0850151848203601f190184860152611440565b92015190610120601f1982850301910152611440565b6101208c01518d8203601f19016101408f0152611440565b6101408b01518c8203601f19016101608e0152611440565b6101608a01518b8203601f19016101808d0152611440565b6101808901516101a08b01526101a08901516101c08b01526101c0890151601f198b8303016101e08c0152611440565b6101e0880151898203601f19016102008b0152611440565b610200870151888203601f19016102208a0152611440565b610220860151878203601f1901610240890152611440565b610240850151868203601f1901610260880152611440565b610260840151858203601f1901610280870152611440565b610280830151848203601f19016102a0860152611440565b6102a08201516102c084810191909152909101516001600160a01b03166102e08301520390f35b60405162461bcd60e51b815260206004820152601960248201527f5661756c74207369746520646f6573206e6f74206578697374000000000000006044820152606490fd5b346100d6575f3660031901126100d6576001546040516001600160a01b039091168152602090f35b346100d6575f3660031901126100d6575f546040516001600160a01b039091168152602090f35b346100d6575f3660031901126100d6576107036116f8565b5f80546001600160a01b0319811682556001600160a01b03167f8be0079c531659141344cd1fd0a4f28419497f9722a3daafe3b4186f6b6457e08280a3005b346100d6576102803660031901126100d6576004356001600160401b0381116100d6576107739036906004016114a2565b60e0526024356001600160401b0381116100d6576107959036906004016114a2565b610140526044356001600160401b0381116100d6576107b89036906004016114a2565b610100526064356001600160401b0381116100d6576107db9036906004016114a2565b6084356001600160401b0381116100d6576107fa9036906004016114a2565b60a4356001600160401b0381116100d6576108199036906004016114a2565b60c4356001600160401b0381116100d6576108389036906004016114a2565b60e4356001600160401b0381116100d6576108579036906004016114a2565b610104356001600160401b0381116100d6576108779036906004016114a2565b6001600160401b0361012435116100d65761089836610124356004016114a2565b61012052610144356001600160401b0381116100d6576108bc9036906004016114a2565b90610164356001600160401b0381116100d6576108dd9036906004016114a2565b926101c4356001600160401b0381116100d6576108fe9036906004016114a2565b946001600160401b036101e435116100d657610920366101e4356004016114a2565b96610204356001600160401b0381116100d6576109419036906004016114a2565b986001600160401b0361022435116100d65761096336610224356004016114a2565b9a610244356001600160401b0381116100d6576109849036906004016114a2565b60a052610264356001600160401b0381116100d6576109a79036906004016114a2565b60c05260018060a01b0360015416604051638cbdcead60e01b815233600482015260406024820152602081604481855afa908115610f47575f916112f7575b50156112a35760e051511561126657601560405160208160e05151610a1081838560e0510161141f565b810160028152030190200154611221576101405151156111dc576101005151156111a25781511561116557825115611120578451156110ec5760026101205151036110b057610184351561106b576101a43515611018578a5115610fdc578b5115610f975760c0515115610f525760206040518092638e690fc560e01b82528260048301528180610aa76024820161010051611440565b03915afa908115610f47575f91610f0a575b5060ff6001911603610ed157604051608052610ad6608051611465565b60e05160805152610140516020608051015261010051604060805101526060608051015260808051015260a0608051015260c0608051015260e060805101526101006080510152610120516101206080510152610140608051015261016060805101526101843561018060805101526101a4356101a060805101526101c060805101526101e060805101526102006080510152610220608051015260a051610240608051015260c05161026060805101526040518060408101106001600160401b03604083011117610ebd5760408101604052600681526561637469766560d01b60208201526102806080510152426102a06080510152336102c06080510152601660405160208160e05151610bf181838560e0510161141f565b81016002815203019020610c0860805151826115d1565b610c1b60206080510151600183016115d1565b610c2e60406080510151600283016115d1565b610c4160606080510151600383016115d1565b610c53608080510151600483016115d1565b610c6660a06080510151600583016115d1565b610c7960c06080510151600683016115d1565b610c8c60e06080510151600783016115d1565b610ca06101006080510151600883016115d1565b610cb46101206080510151600983016115d1565b610cc86101406080510151600a83016115d1565b610cdc6101606080510151600b83016115d1565b608051610180810151600c8301556101a0810151600d8301556101c00151610d0790600e83016115d1565b610d1b6101e06080510151600f83016115d1565b610d2f6102006080510151601083016115d1565b610d436102206080510151601183016115d1565b610d576102406080510151601283016115d1565b610d6b6102606080510151601383016115d1565b610d7f6102806080510151601483016115d1565b6102a0608051015160158201550160018060a01b036102c06080510151166bffffffffffffffffffffffff60a01b82541617905560035468010000000000000000811015610ebd576001810180600355811015610ea95760035f5260e051610e08917fc2575a0e9e593c00f959f8c92f12db2869c3395a3b0502d05e2516446f71f85b016115d1565b610e1360e0516116d8565b610e1f610100516116d8565b6040519160c083527febea8aae2433b06f5c5190b207c97c7e80334668b27a79fcaf72a6278345f195610e91610e6f610e5e60c0870161014051611440565b868103602088015261012051611440565b6101843560408701526101a4356060870152858103608087015260c051611440565b934260a08201528033950390a4602060405160018152f35b634e487b7160e01b5f52603260045260245ffd5b634e487b7160e01b5f52604160045260245ffd5b60405162461bcd60e51b81526020600482015260116024820152704d656d626572206e6f742061637469766560781b6044820152606490fd5b90506020813d602011610f3f575b81610f2560209383611481565b810103126100d6575160ff811681036100d65760ff610ab9565b3d9150610f18565b6040513d5f823e3d90fd5b60405162461bcd60e51b815260206004820152601760248201527f496e76616c6964206c6173745f61756469745f646174650000000000000000006044820152606490fd5b60405162461bcd60e51b815260206004820152601c60248201527f496e76616c696420696e737572616e63652065787069726174696f6e000000006044820152606490fd5b60405162461bcd60e51b8152602060048201526014602482015273496e76616c696420696e7375726572206e616d6560601b6044820152606490fd5b60405162461bcd60e51b815260206004820152602560248201527f6d6178696d756d5f7765696768745f696e5f676f6c645f6b67206d7573742062604482015264065203e20360dc1b6064820152608490fd5b60405162461bcd60e51b815260206004820152601c60248201527f6e756d6265725f6f665f7661756c7473206d757374206265203e2030000000006044820152606490fd5b60405162461bcd60e51b8152602060048201526014602482015273496e76616c696420636f756e74727920636f646560601b6044820152606490fd5b60405162461bcd60e51b815260206004820152600c60248201526b496e76616c6964206369747960a01b6044820152606490fd5b60405162461bcd60e51b815260206004820152601a60248201527f496e76616c696420726567697374657265645f616464726573730000000000006044820152606490fd5b60405162461bcd60e51b8152602060048201526015602482015274496e76616c6964206c6f636174696f6e5f6e616d6560581b6044820152606490fd5b60405162461bcd60e51b8152602060048201526012602482015271496e76616c6964206d656d6265725f67696360701b6044820152606490fd5b60405162461bcd60e51b815260206004820152601760248201527f496e76616c6964207661756c745f736974655f6e616d650000000000000000006044820152606490fd5b60405162461bcd60e51b815260206004820152601960248201527f5661756c74207369746520616c726561647920657869737473000000000000006044820152606490fd5b60405162461bcd60e51b8152602060048201526015602482015274125b9d985b1a59081d985d5b1d17dcda5d1957da59605a1b6044820152606490fd5b60405162461bcd60e51b815260206004820152602660248201527f4e6f7420617574686f72697a65643a20504c4154464f524d20726f6c652072656044820152651c5d5a5c995960d21b6064820152608490fd5b90506020813d60201161132a575b8161131260209383611481565b810103126100d6575180151581036100d6578e6109e6565b3d9150611305565b346100d6575f3660031901126100d657600354906001600160401b038211610ebd5790602090611367828260051b0184611481565b808352818301908160035f527fc2575a0e9e593c00f959f8c92f12db2869c3395a3b0502d05e2516446f71f85b5f915b8383106113fd5750505050604051918083019381845251809452604083019360408160051b85010192915f955b8287106113d15785850386f35b9091929382806113ed600193603f198a82030186528851611440565b96019201960195929190926113c4565b600186819261140e859a999a61152f565b815201920192019190959495611397565b5f5b8381106114305750505f910152565b8181015183820152602001611421565b906020916114598151809281855285808601910161141f565b601f01601f1916010190565b6102e081019081106001600160401b03821117610ebd57604052565b90601f801991011681019081106001600160401b03821117610ebd57604052565b81601f820112156100d6578035906001600160401b038211610ebd57604051926114d6601f8401601f191660200185611481565b828452602083830101116100d657815f926020809301838601378301015290565b90600182811c92168015611525575b602083101461151157565b634e487b7160e01b5f52602260045260245ffd5b91607f1691611506565b9060405191825f8254611541816114f7565b908184526020946001916001811690815f146115af5750600114611571575b50505061156f92500383611481565b565b5f90815285812095935091905b81831061159757505061156f93508201015f8080611560565b8554888401850152948501948794509183019161157e565b9250505061156f94925060ff191682840152151560051b8201015f8080611560565b91909182516001600160401b038111610ebd576115ee82546114f7565b601f8111611693575b50602080601f83116001146116325750819293945f92611627575b50508160011b915f199060031b1c1916179055565b015190505f80611612565b90601f19831695845f5260205f20925f905b88821061167b57505083600195969710611663575b505050811b019055565b01515f1960f88460031b161c191690555f8080611659565b80600185968294968601518155019501930190611644565b825f5260205f20601f830160051c810191602084106116ce575b601f0160051c01905b8181106116c357506115f7565b5f81556001016116b6565b90915081906116ad565b6116f09060206040519282848094519384920161141f565b810103902090565b5f546001600160a01b0316330361170b57565b60405163118cdaa760e01b8152336004820152602490fdfea264697066735822122077cec7fec6644bc1cc8ded66b7327234878bb5ce7ab55d0e2ed9bbfd6d27f19664736f6c63430008180033","linkReferences":{}},"methodIdentifiers":{"createVaultSite(string,string,string,string,string,string,string,string,string,string,string,string,uint256,uint256,string,string,string,string,string,string)":"2430dad8","getVaultSite(string)":"b4dd2eec","getVaultSiteIds()":"06d5220a","memberRegistry()":"a74d4772","owner()":"8da5cb5b","renounceOwnership()":"715018a6","transferOwnership(address)":"f2fde38b","vaultSiteExistsView(string)":"fa7b9ad2"},"id":3}