{"abi":[{"type":"constructor","inputs":[{"name":"_memberRegistry","type":"address","internalType":"address"},{"name":"_vaultSiteRegistry","type":"address","internalType":"address"}],"stateMutability":"nonpayable"},{"type":"function","name":"createVault","inputs":[{"name":"vaultSiteId","type":"string","internalType":"string"},{"name":"vaultId","type":"string","internalType":"string"},{"name":"memberInternalVaultId","type":"string","internalType":"string"},{"name":"vaultDimensions","type":"string","internalType":"string"},{"name":"vaultGoldCapacityKg","type":"uint256","internalType":"uint256"},{"name":"initialStatus","type":"uint8","internalType":"enum VaultRegistry.VaultStatus"},{"name":"lastAuditDate","type":"string","internalType":"string"}],"outputs":[{"name":"success","type":"bool","internalType":"bool"}],"stateMutability":"nonpayable"},{"type":"function","name":"getAllVaultIds","inputs":[],"outputs":[{"name":"vaultIds","type":"string[]","internalType":"string[]"}],"stateMutability":"view"},{"type":"function","name":"getVault","inputs":[{"name":"vaultId","type":"string","internalType":"string"}],"outputs":[{"name":"vault","type":"tuple","internalType":"struct VaultRegistry.Vault","components":[{"name":"vaultId","type":"string","internalType":"string"},{"name":"vaultSiteId","type":"string","internalType":"string"},{"name":"memberInternalVaultId","type":"string","internalType":"string"},{"name":"vaultDimensions","type":"string","internalType":"string"},{"name":"vaultGoldCapacityKg","type":"uint256","internalType":"uint256"},{"name":"currentWeightKg","type":"uint256","internalType":"uint256"},{"name":"status","type":"uint8","internalType":"enum VaultRegistry.VaultStatus"},{"name":"lastAuditDate","type":"string","internalType":"string"},{"name":"outOfServiceReason","type":"string","internalType":"string"},{"name":"createdAt","type":"uint256","internalType":"uint256"},{"name":"createdBy","type":"address","internalType":"address"}]}],"stateMutability":"view"},{"type":"function","name":"getVaultIdsBySite","inputs":[{"name":"vaultSiteId","type":"string","internalType":"string"}],"outputs":[{"name":"vaultIds","type":"string[]","internalType":"string[]"}],"stateMutability":"view"},{"type":"function","name":"memberRegistry","inputs":[],"outputs":[{"name":"","type":"address","internalType":"contract IMemberRegistry"}],"stateMutability":"view"},{"type":"function","name":"owner","inputs":[],"outputs":[{"name":"","type":"address","internalType":"address"}],"stateMutability":"view"},{"type":"function","name":"renounceOwnership","inputs":[],"outputs":[],"stateMutability":"nonpayable"},{"type":"function","name":"transferOwnership","inputs":[{"name":"newOwner","type":"address","internalType":"address"}],"outputs":[],"stateMutability":"nonpayable"},{"type":"function","name":"updateVaultStatus","inputs":[{"name":"vaultId","type":"string","internalType":"string"},{"name":"newStatus","type":"uint8","internalType":"enum VaultRegistry.VaultStatus"},{"name":"reason","type":"string","internalType":"string"},{"name":"lastAuditDate","type":"string","internalType":"string"}],"outputs":[{"name":"success","type":"bool","internalType":"bool"}],"stateMutability":"nonpayable"},{"type":"function","name":"vaultExistsView","inputs":[{"name":"vaultId","type":"string","internalType":"string"}],"outputs":[{"name":"exists","type":"bool","internalType":"bool"}],"stateMutability":"view"},{"type":"function","name":"vaultSiteRegistry","inputs":[],"outputs":[{"name":"","type":"address","internalType":"contract VaultSiteRegistry"}],"stateMutability":"view"},{"type":"event","name":"OwnershipTransferred","inputs":[{"name":"previousOwner","type":"address","indexed":true,"internalType":"address"},{"name":"newOwner","type":"address","indexed":true,"internalType":"address"}],"anonymous":false},{"type":"event","name":"VaultCreated","inputs":[{"name":"vaultId","type":"string","indexed":true,"internalType":"string"},{"name":"vaultSiteId","type":"string","indexed":true,"internalType":"string"},{"name":"memberInternalVaultId","type":"string","indexed":false,"internalType":"string"},{"name":"vaultDimensions","type":"string","indexed":false,"internalType":"string"},{"name":"vaultGoldCapacityKg","type":"uint256","indexed":false,"internalType":"uint256"},{"name":"vaultStatus","type":"uint8","indexed":false,"internalType":"enum VaultRegistry.VaultStatus"},{"name":"createdBy","type":"address","indexed":true,"internalType":"address"},{"name":"timestamp","type":"uint256","indexed":false,"internalType":"uint256"}],"anonymous":false},{"type":"event","name":"VaultStatusUpdated","inputs":[{"name":"vaultId","type":"string","indexed":true,"internalType":"string"},{"name":"vaultSiteId","type":"string","indexed":true,"internalType":"string"},{"name":"previousStatus","type":"uint8","indexed":false,"internalType":"enum VaultRegistry.VaultStatus"},{"name":"newStatus","type":"uint8","indexed":false,"internalType":"enum VaultRegistry.VaultStatus"},{"name":"reason","type":"string","indexed":false,"internalType":"string"},{"name":"lastAuditDate","type":"string","indexed":false,"internalType":"string"},{"name":"updatedBy","type":"address","indexed":true,"internalType":"address"},{"name":"timestamp","type":"uint256","indexed":false,"internalType":"uint256"}],"anonymous":false},{"type":"error","name":"OwnableInvalidOwner","inputs":[{"name":"owner","type":"address","internalType":"address"}]},{"type":"error","name":"OwnableUnauthorizedAccount","inputs":[{"name":"account","type":"address","internalType":"address"}]}],"bytecode":{"object":"0x608034610171576200161490601f38839003908101601f19168201906001600160401b03821183831017610175578083916040958694855283398101031261017157610056602061004f83610189565b9201610189565b90331561015a575f549160018060a01b03908160018060a01b03199333858716175f55865195823391167f8be0079c531659141344cd1fd0a4f28419497f9722a3daafe3b4186f6b6457e05f80a3169384156101185750169182156100d45781600154161760015560025416176002555161147690816200019e8239f35b835162461bcd60e51b815260206004820152601960248201527f496e76616c6964205661756c74536974655265676973747279000000000000006044820152606490fd5b62461bcd60e51b815260206004820152601660248201527f496e76616c6964204d656d6265725265676973747279000000000000000000006044820152606490fd5b8251631e4fbdf760e01b81525f6004820152602490fd5b5f80fd5b634e487b7160e01b5f52604160045260245ffd5b51906001600160a01b03821682036101715756fe6080806040526004361015610012575f80fd5b5f3560e01c9081630c49f53d14610ff257508063353396151461096a57806345947bec146106de578063715018a6146106875780638da5cb5b14610660578063a74d477214610638578063b7e6aa7114610597578063e57398b2146104d0578063ebef172d14610186578063ec8fcff6146101255763f2fde38b14610095575f80fd5b34610121576020366003190112610121576004356001600160a01b0381811691829003610121576100c4611415565b8115610109575f54826bffffffffffffffffffffffff60a01b8216175f55167f8be0079c531659141344cd1fd0a4f28419497f9722a3daafe3b4186f6b6457e05f80a3005b604051631e4fbdf760e01b81525f6004820152602490fd5b5f80fd5b34610121576020366003190112610121576004356001600160401b038111610121576009610170602061015d81943690600401611052565b81604051938285809451938492016110a7565b8101600381520301902001541515604051908152f35b34610121576080366003190112610121576001600160401b03600435818111610121576101b7903690600401611052565b602435600381101561012157604435838111610121576101db903690600401611052565b92606435908111610121576101f4903690600401611052565b60018054604051638cbdcead60e01b808252336004830152600c602483015260209794969394926001600160a01b0316918881604481865afa9182156104a65789915f936104b1575b50604460405180958193825233600483015260c060248301525afa80156104a657610277925f91610479575b508115610471575b50611175565b6102bb866040516102aa60098651928481818a01956102978183896110a7565b8101600381520301902001541515611341565b6040518093819287519283916110a7565b810160038152030190209160068301956102da8660ff89541698611309565b6002860361041b576102ef836008860161120c565b8051610408575b506103046001840191611321565b93604051915f91815491610317836111be565b92600181169081156103eb57506001146103b0575b50505061038b61039a9361037a847f37d5bf6ac8dca14ce498c5b6319b0d76fbad127c499fbd412c62177fd7dbb709979560079503902098610371604051809c6110ed565b8b8b01906110ed565b60a060408a015260a08901906110c8565b91878303606089015201611384565b934260808201528033950390a460405160018152f35b909192505f52885f2090895f925b8484106103d957505050908201905061038b8361037a61032c565b8054868501529201918a9082016103be565b60ff19168652505050801515028201905061038b8361037a61032c565b610415906007850161120c565b876102f6565b8251156104345761042f836008860161120c565b6102ef565b5f6008850161044381546111be565b601f8111610453575b50556102ef565b8183528a832061046b91601f0160051c8101906111f6565b8a61044c565b905088610271565b6104999150893d8b1161049f575b6104918183611031565b81019061115d565b89610269565b503d610487565b6040513d5f823e3d90fd5b6104c9919350823d841161049f576104918183611031565b918a61023d565b3461012157602080600319360112610121576001600160401b0390600435828111610121578161015d610507923690600401611052565b8101600481520301902091825490811161058357829060405191610530848360051b0184611031565b8183525f908152838120938084015b838310610558576040518061055487826110fa565b0390f35b60018281926040516105758161056e818d611384565b0382611031565b81520196019201919461053f565b634e487b7160e01b5f52604160045260245ffd5b34610121575f366003190112610121576005546001600160401b03811161058357602090604051906105cf60208260051b0183611031565b8082526020820160055f527f036b6384b5eca791c62761152d0c79bb0604c104a5fb6f4eb0703f3154bb3db0935f915b838310610614576040518061055487826110fa565b600182819260405161062a8161056e818d611384565b8152019601920191946105ff565b34610121575f366003190112610121576001546040516001600160a01b039091168152602090f35b34610121575f366003190112610121575f546040516001600160a01b039091168152602090f35b34610121575f3660031901126101215761069f611415565b5f80546001600160a01b0319811682556001600160a01b03167f8be0079c531659141344cd1fd0a4f28419497f9722a3daafe3b4186f6b6457e08280a3005b34610121576020366003190112610121576004356001600160401b038111610121576020610713610792923690600401611052565b5f61014060405161072381611015565b60608152606085820152606060408201526060808201528260808201528260a08201528260c0820152606060e0820152606061010082015282610120820152015260405190610781600982519385818186019661029781838a6110a7565b6040519384928392519283916110a7565b81016003815203019020604051906107a982611015565b6040516107ba8161056e8185611384565b82526040516107d08161056e8160018601611384565b60208301526040516107e98161056e8160028601611384565b60408301526040516108028161056e8160038601611384565b606083015260048101546080830152600581015460a083015261082f60ff60068301541660c084016111b2565b6040516108438161056e8160078601611384565b60e083015260405161085c8161056e8160088601611384565b6101008301526009810154610120830152600a60018060a01b03910154166101408201526040518091602082526109436108a4825161016060208601526101808501906110c8565b61092c6108f16108dd6108c9602087015194601f1995868a83030160408b01526110c8565b6040870151858983030160608a01526110c8565b6060860151848883030160808901526110c8565b608085015160a087015260a085015160c087015261091760c086015160e08801906110ed565b60e085015183878303016101008801526110c8565b9061010084015190858303016101208601526110c8565b61012082015161014084810191909152909101516001600160a01b03166101608301520390f35b346101215760e0366003190112610121576004356001600160401b0381116101215761099a903690600401611052565b6024356001600160401b038111610121576109b9903690600401611052565b6044356001600160401b038111610121576109d8903690600401611052565b916064356001600160401b038111610121576109f8903690600401611052565b91600360a43510156101215760c4356001600160401b03811161012157610a23903690600401611052565b600154604051638cbdcead60e01b8152336004820152600c6024820152906001600160a01b0316602082604481845afa9081156104a6576044925f92610fd0575b5060209060405193848092638cbdcead60e01b825233600483015260c060248301525afa80156104a657610aa6925f91610fb1575b508115610fa95750611175565b825115610f6c57600254604051637d3dcd6960e11b8152602060048201819052909182906001600160a01b03168180610ae2602482018a6110c8565b03915afa9081156104a6575f91610f4d575b5015610f0857815115610ed05760096040516020818551610b188183858a016110a7565b810160038152030190200154610e9457845115610e5957835115610e1f5760843515610de75760405190610b4b82611015565b82825283602083015285604083015284606083015260843560808301525f60a0830152610b7d60a43560c084016111b2565b60e0820152604051908160208101106001600160401b0360208401111761058357602082016040525f825261010081019182526101208101914283526101408201923384526040516020818751610bd78183858c016110a7565b8101600381520301902091610bed84518461120c565b610bfe60208501516001850161120c565b610c0f60408501516002850161120c565b610c2060608501516003850161120c565b6080840151600484015560a0840151600584015560c0840151906003821015610dd357610c6660e0600a96610c5b610c709560068901611309565b01516007860161120c565b516008840161120c565b516009820155019060018060a01b039051166bffffffffffffffffffffffff60a01b8254161790556040516020818451610cad81838589016110a7565b8101600481520301902080546801000000000000000091828210156105835760018201808255821015610dbf57610cec9184915f5260205f200161120c565b60055490811015610583576001810180600555811015610dbf57610d6c610d6683610d617faad377e5aa8100192b08f3ac922a63ae2953c16bef91f55e23f871b80a13957095610d909560055f527f036b6384b5eca791c62761152d0c79bb0604c104a5fb6f4eb0703f3154bb3db00161120c565b611321565b93611321565b93610d826040519660a0885260a08801906110c8565b9086820360208801526110c8565b936084356040820152610da86060820160a4356110ed565b4260808201528033950390a4602060405160018152f35b634e487b7160e01b5f52603260045260245ffd5b634e487b7160e01b5f52602160045260245ffd5b60405162461bcd60e51b815260206004820152601060248201526f496e76616c696420636170616369747960801b6044820152606490fd5b60405162461bcd60e51b8152602060048201526012602482015271496e76616c69642064696d656e73696f6e7360701b6044820152606490fd5b60405162461bcd60e51b8152602060048201526013602482015272125b9d985b1a59081a5b9d195c9b985b081a59606a1b6044820152606490fd5b60405162461bcd60e51b81526020600482015260146024820152735661756c7420616c72656164792065786973747360601b6044820152606490fd5b60405162461bcd60e51b815260206004820152601060248201526f125b9d985b1a59081d985d5b1d17da5960821b6044820152606490fd5b60405162461bcd60e51b815260206004820152601960248201527f5661756c74207369746520646f6573206e6f74206578697374000000000000006044820152606490fd5b610f66915060203d60201161049f576104918183611031565b86610af4565b60405162461bcd60e51b8152602060048201526015602482015274125b9d985b1a59081d985d5b1d17dcda5d1957da59605a1b6044820152606490fd5b905087610271565b610fca915060203d60201161049f576104918183611031565b88610a99565b6020919250610feb90823d841161049f576104918183611031565b9190610a64565b34610121575f366003190112610121576002546001600160a01b03168152602090f35b61016081019081106001600160401b0382111761058357604052565b90601f801991011681019081106001600160401b0382111761058357604052565b81601f82011215610121578035906001600160401b0382116105835760405192611086601f8401601f191660200185611031565b8284526020838301011161012157815f926020809301838601378301015290565b5f5b8381106110b85750505f910152565b81810151838201526020016110a9565b906020916110e1815180928185528580860191016110a7565b601f01601f1916010190565b906003821015610dd35752565b6020808201906020835283518092526040830192602060408460051b8301019501935f915b84831061112f5750505050505090565b909192939495848061114d600193603f198682030187528a516110c8565b980193019301919493929061111f565b90816020910312610121575180151581036101215790565b1561117c57565b60405162461bcd60e51b815260206004820152600e60248201526d139bdd08185d5d1a1bdc9a5e995960921b6044820152606490fd5b6003821015610dd35752565b90600182811c921680156111ec575b60208310146111d857565b634e487b7160e01b5f52602260045260245ffd5b91607f16916111cd565b818110611201575050565b5f81556001016111f6565b91909182516001600160401b0381116105835761122982546111be565b601f81116112ce575b50602080601f831160011461126d5750819293945f92611262575b50508160011b915f199060031b1c1916179055565b015190505f8061124d565b90601f19831695845f5260205f20925f905b8882106112b65750508360019596971061129e575b505050811b019055565b01515f1960f88460031b161c191690555f8080611294565b8060018596829496860151815501950193019061127f565b6112f990835f5260205f20601f840160051c810191602085106112ff575b601f0160051c01906111f6565b5f611232565b90915081906112ec565b906003811015610dd35760ff80198354169116179055565b611339906020604051928284809451938492016110a7565b810103902090565b1561134857565b60405162461bcd60e51b815260206004820152601460248201527315985d5b1d08191bd95cc81b9bdd08195e1a5cdd60621b6044820152606490fd5b80545f9392611392826111be565b918282526020936001916001811690815f146113f657506001146113b8575b5050505050565b90939495505f92919252835f2092845f945b8386106113e257505050500101905f808080806113b1565b8054858701830152940193859082016113ca565b60ff19168685015250505090151560051b010191505f808080806113b1565b5f546001600160a01b0316330361142857565b60405163118cdaa760e01b8152336004820152602490fdfea264697066735822122098c137697593bdf7ec2ab92f764740e98ad33d234fc416b52649d4b532f850a764736f6c63430008180033","linkReferences":{}},"methodIdentifiers":{"createVault(string,string,string,string,uint256,uint8,string)":"35339615","getAllVaultIds()":"b7e6aa71","getVault(string)":"45947bec","getVaultIdsBySite(string)":"e57398b2","memberRegistry()":"a74d4772","owner()":"8da5cb5b","renounceOwnership()":"715018a6","transferOwnership(address)":"f2fde38b","updateVaultStatus(string,uint8,string,string)":"ebef172d","vaultExistsView(string)":"ec8fcff6","vaultSiteRegistry()":"0c49f53d"},"id":10}